{
  "_format": "hh-sol-artifact-1",
  "contractName": "FxERC20FixedSupplyRootTunnelMock",
  "sourceName": "contracts/mocks/fx-portal/tunnel/ERC20/FxERC20FixedSupplyRootTunnelMock.sol",
  "abi": [
    {
      "inputs": [
        {
          "internalType": "address",
          "name": "checkpointManager",
          "type": "address"
        },
        {
          "internalType": "address",
          "name": "fxRoot",
          "type": "address"
        },
        {
          "internalType": "address",
          "name": "fxERC20Token",
          "type": "address"
        },
        {
          "internalType": "contract IForwarderRegistry",
          "name": "forwarderRegistry",
          "type": "address"
        }
      ],
      "stateMutability": "nonpayable",
      "type": "constructor"
    },
    {
      "inputs": [],
      "name": "FxERC20InvalidDepositAddress",
      "type": "error"
    },
    {
      "inputs": [
        {
          "internalType": "address",
          "name": "childToken",
          "type": "address"
        },
        {
          "internalType": "address",
          "name": "expectedRootToken",
          "type": "address"
        },
        {
          "internalType": "address",
          "name": "actualRootToken",
          "type": "address"
        }
      ],
      "name": "FxERC20InvalidMappingOnExit",
      "type": "error"
    },
    {
      "inputs": [],
      "name": "IllegalInterfaceId",
      "type": "error"
    },
    {
      "anonymous": false,
      "inputs": [
        {
          "indexed": true,
          "internalType": "address",
          "name": "rootToken",
          "type": "address"
        },
        {
          "indexed": true,
          "internalType": "address",
          "name": "childToken",
          "type": "address"
        },
        {
          "indexed": false,
          "internalType": "address",
          "name": "depositor",
          "type": "address"
        },
        {
          "indexed": false,
          "internalType": "address",
          "name": "recipient",
          "type": "address"
        },
        {
          "indexed": false,
          "internalType": "uint256",
          "name": "amount",
          "type": "uint256"
        }
      ],
      "name": "FxERC20Deposit",
      "type": "event"
    },
    {
      "anonymous": false,
      "inputs": [
        {
          "indexed": true,
          "internalType": "address",
          "name": "rootToken",
          "type": "address"
        },
        {
          "indexed": true,
          "internalType": "address",
          "name": "childToken",
          "type": "address"
        }
      ],
      "name": "FxERC20TokenMapping",
      "type": "event"
    },
    {
      "anonymous": false,
      "inputs": [
        {
          "indexed": true,
          "internalType": "address",
          "name": "rootToken",
          "type": "address"
        },
        {
          "indexed": true,
          "internalType": "address",
          "name": "childToken",
          "type": "address"
        },
        {
          "indexed": false,
          "internalType": "address",
          "name": "withdrawer",
          "type": "address"
        },
        {
          "indexed": false,
          "internalType": "address",
          "name": "recipient",
          "type": "address"
        },
        {
          "indexed": false,
          "internalType": "uint256",
          "name": "amount",
          "type": "uint256"
        }
      ],
      "name": "FxERC20Withdrawal",
      "type": "event"
    },
    {
      "inputs": [],
      "name": "CHILD_TOKEN_PROXY_CODEHASH",
      "outputs": [
        {
          "internalType": "bytes32",
          "name": "",
          "type": "bytes32"
        }
      ],
      "stateMutability": "view",
      "type": "function"
    },
    {
      "inputs": [],
      "name": "DEPOSIT",
      "outputs": [
        {
          "internalType": "bytes32",
          "name": "",
          "type": "bytes32"
        }
      ],
      "stateMutability": "view",
      "type": "function"
    },
    {
      "inputs": [],
      "name": "MAP_TOKEN",
      "outputs": [
        {
          "internalType": "bytes32",
          "name": "",
          "type": "bytes32"
        }
      ],
      "stateMutability": "view",
      "type": "function"
    },
    {
      "inputs": [],
      "name": "SEND_MESSAGE_EVENT_SIG",
      "outputs": [
        {
          "internalType": "bytes32",
          "name": "",
          "type": "bytes32"
        }
      ],
      "stateMutability": "view",
      "type": "function"
    },
    {
      "inputs": [
        {
          "internalType": "bytes",
          "name": "data",
          "type": "bytes"
        }
      ],
      "name": "__processMessageFromChild",
      "outputs": [],
      "stateMutability": "nonpayable",
      "type": "function"
    },
    {
      "inputs": [],
      "name": "checkpointManager",
      "outputs": [
        {
          "internalType": "contract ICheckpointManager",
          "name": "",
          "type": "address"
        }
      ],
      "stateMutability": "view",
      "type": "function"
    },
    {
      "inputs": [
        {
          "internalType": "address",
          "name": "rootToken",
          "type": "address"
        }
      ],
      "name": "childToken",
      "outputs": [
        {
          "internalType": "address",
          "name": "",
          "type": "address"
        }
      ],
      "stateMutability": "view",
      "type": "function"
    },
    {
      "inputs": [
        {
          "internalType": "bytes32",
          "name": "salt",
          "type": "bytes32"
        },
        {
          "internalType": "bytes32",
          "name": "bytecodeHash",
          "type": "bytes32"
        },
        {
          "internalType": "address",
          "name": "deployer",
          "type": "address"
        }
      ],
      "name": "computedCreate2Address",
      "outputs": [
        {
          "internalType": "address",
          "name": "",
          "type": "address"
        }
      ],
      "stateMutability": "pure",
      "type": "function"
    },
    {
      "inputs": [
        {
          "internalType": "address",
          "name": "rootToken",
          "type": "address"
        },
        {
          "internalType": "uint256",
          "name": "amount",
          "type": "uint256"
        }
      ],
      "name": "deposit",
      "outputs": [],
      "stateMutability": "nonpayable",
      "type": "function"
    },
    {
      "inputs": [
        {
          "internalType": "address",
          "name": "rootToken",
          "type": "address"
        },
        {
          "internalType": "address",
          "name": "receiver",
          "type": "address"
        },
        {
          "internalType": "uint256",
          "name": "amount",
          "type": "uint256"
        }
      ],
      "name": "depositTo",
      "outputs": [],
      "stateMutability": "nonpayable",
      "type": "function"
    },
    {
      "inputs": [],
      "name": "forwarderRegistry",
      "outputs": [
        {
          "internalType": "contract IForwarderRegistry",
          "name": "",
          "type": "address"
        }
      ],
      "stateMutability": "view",
      "type": "function"
    },
    {
      "inputs": [],
      "name": "fxChildTunnel",
      "outputs": [
        {
          "internalType": "address",
          "name": "",
          "type": "address"
        }
      ],
      "stateMutability": "view",
      "type": "function"
    },
    {
      "inputs": [],
      "name": "fxRoot",
      "outputs": [
        {
          "internalType": "contract IFxStateSender",
          "name": "",
          "type": "address"
        }
      ],
      "stateMutability": "view",
      "type": "function"
    },
    {
      "inputs": [
        {
          "internalType": "address",
          "name": "forwarder",
          "type": "address"
        }
      ],
      "name": "isTrustedForwarder",
      "outputs": [
        {
          "internalType": "bool",
          "name": "",
          "type": "bool"
        }
      ],
      "stateMutability": "view",
      "type": "function"
    },
    {
      "inputs": [
        {
          "internalType": "address",
          "name": "rootToken",
          "type": "address"
        }
      ],
      "name": "mapToken",
      "outputs": [
        {
          "internalType": "address",
          "name": "childToken",
          "type": "address"
        }
      ],
      "stateMutability": "nonpayable",
      "type": "function"
    },
    {
      "inputs": [
        {
          "internalType": "address",
          "name": "",
          "type": "address"
        },
        {
          "internalType": "address",
          "name": "from",
          "type": "address"
        },
        {
          "internalType": "uint256",
          "name": "value",
          "type": "uint256"
        },
        {
          "internalType": "bytes",
          "name": "data",
          "type": "bytes"
        }
      ],
      "name": "onERC20Received",
      "outputs": [
        {
          "internalType": "bytes4",
          "name": "magicValue",
          "type": "bytes4"
        }
      ],
      "stateMutability": "nonpayable",
      "type": "function"
    },
    {
      "inputs": [
        {
          "internalType": "bytes32",
          "name": "",
          "type": "bytes32"
        }
      ],
      "name": "processedExits",
      "outputs": [
        {
          "internalType": "bool",
          "name": "",
          "type": "bool"
        }
      ],
      "stateMutability": "view",
      "type": "function"
    },
    {
      "inputs": [
        {
          "internalType": "bytes",
          "name": "inputData",
          "type": "bytes"
        }
      ],
      "name": "receiveMessage",
      "outputs": [],
      "stateMutability": "nonpayable",
      "type": "function"
    },
    {
      "inputs": [
        {
          "internalType": "address",
          "name": "",
          "type": "address"
        }
      ],
      "name": "rootToChildToken",
      "outputs": [
        {
          "internalType": "address",
          "name": "",
          "type": "address"
        }
      ],
      "stateMutability": "view",
      "type": "function"
    },
    {
      "inputs": [
        {
          "internalType": "address",
          "name": "_fxChildTunnel",
          "type": "address"
        }
      ],
      "name": "setFxChildTunnel",
      "outputs": [],
      "stateMutability": "nonpayable",
      "type": "function"
    },
    {
      "inputs": [
        {
          "internalType": "bytes4",
          "name": "interfaceId",
          "type": "bytes4"
        }
      ],
      "name": "supportsInterface",
      "outputs": [
        {
          "internalType": "bool",
          "name": "",
          "type": "bool"
        }
      ],
      "stateMutability": "view",
      "type": "function"
    }
  ],
  "bytecode": "0x60c06040523480156200001157600080fd5b5060405162003a5038038062003a508339810160408190526200003491620001d3565b600180546001600160a01b038087166001600160a01b0319928316178355600080549187169190921617905584908490849084908490849084908490819081906200009490634fc3585960e01b906200008c62000127565b91906200015d565b6001600160a01b03166080525060408051693d602d80600a3d3981f360b01b602082015269363d3d373d3d3d363d7360b01b602a8201526001600160601b0319606085901b1660348201526e5af43d82803e903d91602b57fd5bf360881b6048820152815180820360370181526057909101909152805160209091012060a052506200025d9a5050505050505050505050565b6000806200015760017fca9d3e17f264b0f3984e2634e94adb37fa3e6a8103f06aeae6fa59e21c769f5e6200023b565b92915050565b600160e01b6001600160e01b03198316016200018c576040516372c683bb60e01b815260040160405180910390fd5b6001600160e01b03199190911660009081526020929092526040909120805460ff1916911515919091179055565b6001600160a01b0381168114620001d057600080fd5b50565b60008060008060808587031215620001ea57600080fd5b8451620001f781620001ba565b60208601519094506200020a81620001ba565b60408601519093506200021d81620001ba565b60608601519092506200023081620001ba565b939692955090935050565b818103818111156200015757634e487b7160e01b600052601160045260246000fd5b60805160a0516137aa620002a6600039600081816101a9015281816106590152610956015260008181610202015281816102b001528181610b760152610bfe01526137aa6000f3fe608060405234801561001057600080fd5b50600436106101775760003560e01c80638e415f33116100d8578063de9b771f1161008c578063f213159c11610066578063f213159c14610440578063f4a120f714610453578063f953cec71461046657600080fd5b8063de9b771f146103d7578063ea60c7c4146103f7578063ecbb36da1461042d57600080fd5b8063aea4e49e116100bd578063aea4e49e1461037d578063c0857ba014610390578063d81c8e52146103b057600080fd5b80638e415f331461034a578063972c49281461035d57600080fd5b80634fc358591161012f578063607f2d4211610114578063607f2d42146102ed5780637337957f14610310578063886a69ba1461032357600080fd5b80634fc358591461025c578063572b6c05146102a057600080fd5b80630e387de6116101605780630e387de6146101d95780632b4c9f161461020057806347e7ef241461024757600080fd5b806301ffc9a71461017c5780630ca92ab3146101a4575b600080fd5b61018f61018a366004612e0c565b610479565b60405190151581526020015b60405180910390f35b6101cb7f000000000000000000000000000000000000000000000000000000000000000081565b60405190815260200161019b565b6101cb7f8c5261668696ce22758910d05bab8f186d6eb247ceac2af2e82c7dc17669b03681565b7f00000000000000000000000000000000000000000000000000000000000000005b60405173ffffffffffffffffffffffffffffffffffffffff909116815260200161019b565b61025a610255366004612e73565b610493565b005b61026f61026a366004612ee8565b6104bb565b6040517fffffffff00000000000000000000000000000000000000000000000000000000909116815260200161019b565b61018f6102ae366004612f5b565b7f000000000000000000000000000000000000000000000000000000000000000073ffffffffffffffffffffffffffffffffffffffff90811691161490565b61018f6102fb366004612f78565b60036020526000908152604090205460ff1681565b61022261031e366004612f91565b610556565b6101cb7f2cef46a936bdc5b7e6e8c71aa04560c41cf7d88bb26901a7e7f4936ff02accad81565b610222610358366004612f5b565b6105de565b6002546102229073ffffffffffffffffffffffffffffffffffffffff1681565b61025a61038b366004612f5b565b610694565b6001546102229073ffffffffffffffffffffffffffffffffffffffff1681565b6101cb7f87a7811f4bfedea3d341ad165680ae306b01aaeacc205d227629cf157dd9f82181565b6000546102229073ffffffffffffffffffffffffffffffffffffffff1681565b610222610405366004612f5b565b60046020526000908152604090205473ffffffffffffffffffffffffffffffffffffffff1681565b61025a61043b366004612fca565b610786565b61025a61044e36600461300c565b6107c9565b610222610461366004612f5b565b61083e565b61025a610474366004613111565b610a15565b600061048d82610487610a2b565b90610a59565b92915050565b600061049d610b33565b90506104ab83828385610c7a565b6104b6838284610d7f565b505050565b600084821561051e576104d083850185612f5b565b905073ffffffffffffffffffffffffffffffffffffffff811661051e576040517e7336b000000000000000000000000000000000000000000000000000000000815260040160405180910390fd5b61052a33878388610c7a565b507f4fc35859000000000000000000000000000000000000000000000000000000009695505050505050565b604080517fff00000000000000000000000000000000000000000000000000000000000000602080830191909152606084901b7fffffffffffffffffffffffffffffffffffffffff00000000000000000000000016602183015260358201869052605580830186905283518084039091018152607590920190925280519101205b9392505050565b6040517fffffffffffffffffffffffffffffffffffffffff000000000000000000000000606083901b1660208201526000908190603401604080517fffffffffffffffffffffffffffffffffffffffffffffffffffffffffffffffe081840301815291905280516020909101206002549091506105d79082907f00000000000000000000000000000000000000000000000000000000000000009073ffffffffffffffffffffffffffffffffffffffff16610556565b60025473ffffffffffffffffffffffffffffffffffffffff161561073f576040517f08c379a000000000000000000000000000000000000000000000000000000000815260206004820152602a60248201527f467842617365526f6f7454756e6e656c3a204348494c445f54554e4e454c5f4160448201527f4c52454144595f5345540000000000000000000000000000000000000000000060648201526084015b60405180910390fd5b600280547fffffffffffffffffffffffff00000000000000000000000000000000000000001673ffffffffffffffffffffffffffffffffffffffff92909216919091179055565b6107c582828080601f016020809104026020016040519081016040528093929190818152602001838380828437600092019190915250610da192505050565b5050565b73ffffffffffffffffffffffffffffffffffffffff8216610815576040517e7336b000000000000000000000000000000000000000000000000000000000815260040160405180910390fd5b600061081f610b33565b905061082d84828585610c7a565b610838848284610d7f565b50505050565b73ffffffffffffffffffffffffffffffffffffffff80821660009081526004602052604090205416801561087157919050565b6109007f2cef46a936bdc5b7e6e8c71aa04560c41cf7d88bb26901a7e7f4936ff02accad8361089f85610ecb565b6040516020016108b09291906131ff565b604080517fffffffffffffffffffffffffffffffffffffffffffffffffffffffffffffffe0818403018152908290526108ec929160200161322e565b604051602081830303815290604052611222565b60408051606084901b7fffffffffffffffffffffffffffffffffffffffff0000000000000000000000001660208083019190915282516014818403018152603490920190925280519101206002546109919082907f00000000000000000000000000000000000000000000000000000000000000009073ffffffffffffffffffffffffffffffffffffffff16610556565b73ffffffffffffffffffffffffffffffffffffffff84811660008181526004602052604080822080547fffffffffffffffffffffffff000000000000000000000000000000000000000016948616948517905551939550919290917ff935ffb7c4a7f69e191e46617fc2f41d98d93290443199977b42dd086e744c8691a350919050565b6000610a20826112b3565b90506107c581610da1565b60008061048d60017fca9d3e17f264b0f3984e2634e94adb37fa3e6a8103f06aeae6fa59e21c769f5e613276565b60007c01000000000000000000000000000000000000000000000000000000007fffffffff00000000000000000000000000000000000000000000000000000000831601610aa95750600061048d565b7ffe003659000000000000000000000000000000000000000000000000000000007fffffffff00000000000000000000000000000000000000000000000000000000831601610afa5750600161048d565b507fffffffff00000000000000000000000000000000000000000000000000000000166000908152602091909152604090205460ff1690565b600033321480610b435750601836105b15610b4d57503390565b7fffffffffffffffffffffffffffffffffffffffffffffffffffffffffffffffec36013560601c7f000000000000000000000000000000000000000000000000000000000000000073ffffffffffffffffffffffffffffffffffffffff16331480610c6957506040517f8929a8ca00000000000000000000000000000000000000000000000000000000815273ffffffffffffffffffffffffffffffffffffffff82811660048301523360248301527f00000000000000000000000000000000000000000000000000000000000000001690638929a8ca90604401602060405180830381865afa158015610c45573d6000803e3d6000fd5b505050506040513d601f19601f82011682018060405250810190610c699190613289565b15610c7357919050565b3391505090565b6040805173ffffffffffffffffffffffffffffffffffffffff8681166020830152858116828401528416606082015260808082018490528251808303909101815260a08201909252600091610cf4917f87a7811f4bfedea3d341ad165680ae306b01aaeacc205d227629cf157dd9f821919060c00161322e565b6040516020818303038152906040529050610d0e81611222565b610d178561083e565b6040805173ffffffffffffffffffffffffffffffffffffffff8781168252868116602083015291810185905291811691908716907fd04a997afc07fd79393f2188ae8935e4389ab8aef6144f0f839e3aade5b858ab9060600160405180910390a35050505050565b6104b673ffffffffffffffffffffffffffffffffffffffff8416833084611695565b600080600080600085806020019051810190610dbd91906132ab565b73ffffffffffffffffffffffffffffffffffffffff808616600090815260046020526040902054959a50939850919650945092509081169085168114610e57576040517f3855947700000000000000000000000000000000000000000000000000000000815273ffffffffffffffffffffffffffffffffffffffff8088166004830152808716602483015282166044820152606401610736565b610e62868484611771565b6040805173ffffffffffffffffffffffffffffffffffffffff86811682528581166020830152918101849052818716918816907faa4bbbc02123d0c446b55ec99a14078c9eab05cb4a271e6d8f8e278d9e4cd1849060600160405180910390a350505050505050565b606060008273ffffffffffffffffffffffffffffffffffffffff166318160ddd6040518163ffffffff1660e01b8152600401602060405180830381865afa158015610f1a573d6000803e3d6000fd5b505050506040513d601f19601f82011682018060405250810190610f3e9190613316565b9050600083905060008173ffffffffffffffffffffffffffffffffffffffff166306fdde036040518163ffffffff1660e01b8152600401600060405180830381865afa158015610f92573d6000803e3d6000fd5b505050506040513d6000823e601f3d9081017fffffffffffffffffffffffffffffffffffffffffffffffffffffffffffffffe0168201604052610fd8919081019061335f565b905060008273ffffffffffffffffffffffffffffffffffffffff166395d89b416040518163ffffffff1660e01b8152600401600060405180830381865afa158015611027573d6000803e3d6000fd5b505050506040513d6000823e601f3d9081017fffffffffffffffffffffffffffffffffffffffffffffffffffffffffffffffe016820160405261106d919081019061335f565b905060008373ffffffffffffffffffffffffffffffffffffffff1663313ce5676040518163ffffffff1660e01b8152600401602060405180830381865afa1580156110bc573d6000803e3d6000fd5b505050506040513d601f19601f820116820180604052508101906110e091906133a8565b905060008773ffffffffffffffffffffffffffffffffffffffff16633c130d906040518163ffffffff1660e01b8152600401600060405180830381865afa15801561112f573d6000803e3d6000fd5b505050506040513d6000823e601f3d9081017fffffffffffffffffffffffffffffffffffffffffffffffffffffffffffffffe0168201604052611175919081019061335f565b905060008873ffffffffffffffffffffffffffffffffffffffff16638da5cb5b6040518163ffffffff1660e01b8152600401602060405180830381865afa1580156111c4573d6000803e3d6000fd5b505050506040513d601f19601f820116820180604052508101906111e891906133cb565b9050868585858585604051602001611205969594939291906133e8565b604051602081830303815290604052975050505050505050919050565b6000546002546040517fb472047700000000000000000000000000000000000000000000000000000000815273ffffffffffffffffffffffffffffffffffffffff9283169263b47204779261127e9291169085906004016131ff565b600060405180830381600087803b15801561129857600080fd5b505af11580156112ac573d6000803e3d6000fd5b5050505050565b606060006112c083611792565b905060006112cd826117f1565b905060006112da8361181a565b90506000816112e884611843565b6112f186611a27565b6040516020016113039392919061345a565b604080517fffffffffffffffffffffffffffffffffffffffffffffffffffffffffffffffe081840301815291815281516020928301206000818152600390935291205490915060ff16156113d8576040517f08c379a0000000000000000000000000000000000000000000000000000000008152602060048201526024808201527f4678526f6f7454756e6e656c3a20455849545f414c52454144595f50524f434560448201527f53534544000000000000000000000000000000000000000000000000000000006064820152608401610736565b600081815260036020526040812080547fffffffffffffffffffffffffffffffffffffffffffffffffffffffffffffff0016600117905561141885611a43565b9050600061142582611b8d565b905061143081611c1d565b60025473ffffffffffffffffffffffffffffffffffffffff9081169116146114da576040517f08c379a000000000000000000000000000000000000000000000000000000000815260206004820152602560248201527f4678526f6f7454756e6e656c3a20494e56414c49445f46585f4348494c445f5460448201527f554e4e454c0000000000000000000000000000000000000000000000000000006064820152608401610736565b60006114e587611c46565b90506115056114f5846020015190565b876114ff8a611c62565b84611c7e565b611591576040517f08c379a000000000000000000000000000000000000000000000000000000000815260206004820152602360248201527f4678526f6f7454756e6e656c3a20494e56414c49445f524543454950545f505260448201527f4f4f4600000000000000000000000000000000000000000000000000000000006064820152608401610736565b6115bf8561159e89611f27565b6115a78a611f43565b846115b18c611f5f565b6115ba8d611f7b565b611f97565b5060006115cb836120fd565b90507f8c5261668696ce22758910d05bab8f186d6eb247ceac2af2e82c7dc17669b0366116016115fc836000612139565b612171565b14611668576040517f08c379a000000000000000000000000000000000000000000000000000000000815260206004820152601f60248201527f4678526f6f7454756e6e656c3a20494e56414c49445f5349474e4154555245006044820152606401610736565b6000611673846121ec565b806020019051810190611686919061335f565b9b9a5050505050505050505050565b60405173ffffffffffffffffffffffffffffffffffffffff808516602483015283166044820152606481018290526108389085907f23b872dd00000000000000000000000000000000000000000000000000000000906084015b604080517fffffffffffffffffffffffffffffffffffffffffffffffffffffffffffffffe08184030181529190526020810180517bffffffffffffffffffffffffffffffffffffffffffffffffffffffff167fffffffff0000000000000000000000000000000000000000000000000000000090931692909217909152612208565b6104b673ffffffffffffffffffffffffffffffffffffffff84168383612317565b60408051602081019091526060815260006117dc6117d78460408051808201825260008082526020918201528151808301909252825182529182019181019190915290565b61236d565b60408051602081019091529081529392505050565b606061048d826000015160088151811061180d5761180d613487565b6020026020010151612479565b600061048d826000015160028151811061183657611836613487565b6020026020010151612171565b6040805160208101909152600081528151606091901561048d5760008061186b600086612516565b60f81c9050600181148061188257508060ff166003145b156119425760018551600261189791906134b6565b6118a19190613276565b67ffffffffffffffff8111156118b9576118b961304d565b6040519080825280601f01601f1916602001820160405280156118e3576020820181803683370190505b50925060006118f3600187612516565b9050808460008151811061190957611909613487565b60200101907effffffffffffffffffffffffffffffffffffffffffffffffffffffffffffff1916908160001a90535060019250506119a6565b60028551600261195291906134b6565b61195c9190613276565b67ffffffffffffffff8111156119745761197461304d565b6040519080825280601f01601f19166020018201604052801561199e576020820181803683370190505b509250600091505b60ff82165b8351811015611a1e576119d56119c460ff851683613276565b6119cf9060026134cd565b87612516565b8482815181106119e7576119e7613487565b60200101907effffffffffffffffffffffffffffffffffffffffffffffffffffffffffffff1916908160001a9053506001016119ab565b50505092915050565b600061048d826000015160098151811061183657611836613487565b611a6760405180606001604052806060815260200160608152602001600081525090565b611a81826000015160068151811061180d5761180d613487565b602082810182905260408051808201825260008082529083015280518082019091528251815291810190820152611ab781612597565b15611acc57611ac58161236d565b8252611b79565b60208201518051600090611ae290600190613276565b67ffffffffffffffff811115611afa57611afa61304d565b6040519080825280601f01601f191660200182016040528015611b24576020820181803683370190505b509050600080836021019150826020019050611b42828285516125d2565b604080518082018252600080825260209182015281518083019092528451825280850190820152611b729061236d565b8652505050505b611b8283611a27565b604083015250919050565b604080516080810182526000918101828152606080830193909352815260208101919091526000611bdb8360000151600381518110611bce57611bce613487565b602002602001015161236d565b836040015181518110611bf057611bf0613487565b602002602001015190506040518060400160405280828152602001611c148361236d565b90529392505050565b600061048d8260200151600081518110611c3957611c39613487565b602002602001015161265d565b600061048d826000015160058151811061183657611836613487565b606061048d826000015160078151811061180d5761180d613487565b600080611cb28460408051808201825260008082526020918201528151808301909252825182529182019181019190915290565b90506000611cbf8261236d565b905060608085600080611cd18b611843565b90508051600003611cec576000975050505050505050611f1f565b60005b8651811015611f16578151831115611d1257600098505050505050505050611f1f565b611d34878281518110611d2757611d27613487565b6020026020010151612677565b955085805190602001208414611d5557600098505050505050505050611f1f565b611d6a878281518110611bce57611bce613487565b94508451601103611e3c5781518303611dc9578c80519060200120611d9b8660108151811061180d5761180d613487565b8051906020012003611db857600198505050505050505050611f1f565b600098505050505050505050611f1f565b6000828481518110611ddd57611ddd613487565b016020015160f81c90506010811115611e025760009950505050505050505050611f1f565b611e27868260ff1681518110611e1a57611e1a613487565b60200260200101516126f6565b9450611e346001856134cd565b935050611f0e565b8451600203611db8576000611e67611e608760008151811061180d5761180d613487565b8486612724565b8351909150611e7682866134cd565b03611ec9578d80519060200120611e998760018151811061180d5761180d613487565b8051906020012003611eb75760019950505050505050505050611f1f565b60009950505050505050505050611f1f565b80600003611ee35760009950505050505050505050611f1f565b611eed81856134cd565b9350611f0586600181518110611e1a57611e1a613487565b9450611f0e9050565b600101611cef565b50505050505050505b949350505050565b600061048d826000015160038151811061183657611836613487565b600061048d826000015160048151811061183657611836613487565b600061048d826000015160008151811061183657611836613487565b606061048d826000015160018151811061180d5761180d613487565b6001546040517f41539d4a0000000000000000000000000000000000000000000000000000000081526004810184905260009182918291829173ffffffffffffffffffffffffffffffffffffffff909116906341539d4a9060240160a060405180830381865afa15801561200f573d6000803e3d6000fd5b505050506040513d601f19601f8201168201806040525081019061203391906134e0565b509350509250925061208a828b61204a9190613276565b6040805160208082018f90528183018e9052606082018d905260808083018d90528351808403909101815260a09092019092528051910120908588612851565b6120f0576040517f08c379a000000000000000000000000000000000000000000000000000000000815260206004820152601c60248201527f4678526f6f7454756e6e656c3a20494e56414c49445f484541444552000000006044820152606401610736565b9998505050505050505050565b60408051602081019091526060815260405180602001604052806121318460200151600181518110611bce57611bce613487565b905292915050565b6040805180820190915260008082526020820152825180518390811061216157612161613487565b6020026020010151905092915050565b80516000901580159061218657508151602110155b61218f57600080fd5b600061219e83602001516129fe565b905060008184600001516121b29190613276565b90506000808386602001516121c791906134cd565b90508051915060208310156121e357826020036101000a820491505b50949350505050565b606061048d826020015160028151811061180d5761180d613487565b600061226a826040518060400160405280602081526020017f5361666545524332303a206c6f772d6c6576656c2063616c6c206661696c65648152508573ffffffffffffffffffffffffffffffffffffffff16612a799092919063ffffffff16565b905080516000148061228b57508080602001905181019061228b9190613289565b6104b6576040517f08c379a000000000000000000000000000000000000000000000000000000000815260206004820152602a60248201527f5361666545524332303a204552433230206f7065726174696f6e20646964206e60448201527f6f742073756363656564000000000000000000000000000000000000000000006064820152608401610736565b60405173ffffffffffffffffffffffffffffffffffffffff83166024820152604481018290526104b69084907fa9059cbb00000000000000000000000000000000000000000000000000000000906064016116ef565b606061237882612597565b61238157600080fd5b600061238c83612a88565b905060008167ffffffffffffffff8111156123a9576123a961304d565b6040519080825280602002602001820160405280156123ee57816020015b60408051808201909152600080825260208201528152602001906001900390816123c75790505b509050600061240085602001516129fe565b856020015161240f91906134cd565b90506000805b8481101561246e5761242683612b0d565b915060405180604001604052808381526020018481525084828151811061244f5761244f613487565b602090810291909101015261246482846134cd565b9250600101612415565b509195945050505050565b805160609061248757600080fd5b600061249683602001516129fe565b905060008184600001516124aa9190613276565b905060008167ffffffffffffffff8111156124c7576124c761304d565b6040519080825280601f01601f1916602001820160405280156124f1576020820181803683370190505b50905060008160200190506121e384876020015161250f91906134cd565b8285612bcf565b600061252360028461355c565b1561255d57601082612536600286613570565b8151811061254657612546613487565b0160200151612558919060f81c613584565b61258d565b60108261256b600286613570565b8151811061257b5761257b613487565b016020015161258d919060f81c6135a6565b60f81b9392505050565b805160009081036125aa57506000919050565b6020820151805160001a9060c08210156125c8575060009392505050565b5060019392505050565b806000036125df57505050565b6020811061261757825182526125f66020846134cd565b92506126036020836134cd565b9150612610602082613276565b90506125df565b8060000361262457505050565b60006001612633836020613276565b61263f906101006136e8565b6126499190613276565b935183518516941916939093179091525050565b805160009060151461266e57600080fd5b61048d82612171565b60606000826000015167ffffffffffffffff8111156126985761269861304d565b6040519080825280601f01601f1916602001820160405280156126c2576020820181803683370190505b50905080516000036126d45792915050565b60008160200190506126ef8460200151828660000151612bcf565b5092915050565b805160009060211461270757600080fd5b6000808360200151600161271b91906134cd565b51949350505050565b6000808061273186611843565b90506000815167ffffffffffffffff81111561274f5761274f61304d565b6040519080825280601f01601f191660200182016040528015612779576020820181803683370190505b509050845b825161278a90876134cd565b8110156128225760008782815181106127a5576127a5613487565b01602001517fff0000000000000000000000000000000000000000000000000000000000000016905080836127da8985613276565b815181106127ea576127ea613487565b60200101907effffffffffffffffffffffffffffffffffffffffffffffffffffffffffffff1916908160001a9053505060010161277e565b5080805190602001208280519060200120036128415781519250612846565b600092505b509095945050505050565b600060208251612861919061355c565b156128c8576040517f08c379a000000000000000000000000000000000000000000000000000000000815260206004820152601460248201527f496e76616c69642070726f6f66206c656e6774680000000000000000000000006044820152606401610736565b6000602083516128d89190613570565b90506128e58160026136e8565b851061294d576040517f08c379a000000000000000000000000000000000000000000000000000000000815260206004820152601560248201527f4c65616620696e64657820697320746f6f2062696700000000000000000000006044820152606401610736565b60008660205b855181116129f05785810151925061296c60028961355c565b6000036129a45760408051602081018490529081018490526060016040516020818303038152906040528051906020012091506129d1565b60408051602081018590529081018390526060016040516020818303038152906040528051906020012091505b6129dc600289613570565b97506129e96020826134cd565b9050612953565b509094149695505050505050565b8051600090811a6080811015612a175750600092915050565b60b8811080612a32575060c08110801590612a32575060f881105b15612a405750600192915050565b60c0811015612a6d57612a55600160b86136f4565b612a629060ff1682613276565b6105d79060016134cd565b612a55600160f86136f4565b6060611f1f8484600085612c14565b80516000908103612a9b57506000919050565b600080612aab84602001516129fe565b8460200151612aba91906134cd565b9050600084600001518560200151612ad291906134cd565b90505b80821015612b0457612ae682612b0d565b612af090836134cd565b915082612afc8161370d565b935050612ad5565b50909392505050565b80516000908190811a6080811015612b2857600191506126ef565b60b8811015612b4e57612b3c608082613276565b612b479060016134cd565b91506126ef565b60c0811015612b7b5760b78103600185019450806020036101000a855104600182018101935050506126ef565b60f8811015612b8f57612b3c60c082613276565b60019390930151602084900360f7016101000a90049092017fffffffffffffffffffffffffffffffffffffffffffffffffffffffffffffff0a0192915050565b80600003612bdc57505050565b602081106126175782518252612bf36020846134cd565b9250612c006020836134cd565b9150612c0d602082613276565b9050612bdc565b606082471015612ca6576040517f08c379a000000000000000000000000000000000000000000000000000000000815260206004820152602660248201527f416464726573733a20696e73756666696369656e742062616c616e636520666f60448201527f722063616c6c00000000000000000000000000000000000000000000000000006064820152608401610736565b6000808673ffffffffffffffffffffffffffffffffffffffff168587604051612ccf9190613745565b60006040518083038185875af1925050503d8060008114612d0c576040519150601f19603f3d011682016040523d82523d6000602084013e612d11565b606091505b5091509150612d2287838387612d2d565b979650505050505050565b60608315612dc3578251600003612dbc5773ffffffffffffffffffffffffffffffffffffffff85163b612dbc576040517f08c379a000000000000000000000000000000000000000000000000000000000815260206004820152601d60248201527f416464726573733a2063616c6c20746f206e6f6e2d636f6e74726163740000006044820152606401610736565b5081611f1f565b611f1f8383815115612dd85781518083602001fd5b806040517f08c379a00000000000000000000000000000000000000000000000000000000081526004016107369190613761565b600060208284031215612e1e57600080fd5b81357fffffffff00000000000000000000000000000000000000000000000000000000811681146105d757600080fd5b73ffffffffffffffffffffffffffffffffffffffff81168114612e7057600080fd5b50565b60008060408385031215612e8657600080fd5b8235612e9181612e4e565b946020939093013593505050565b60008083601f840112612eb157600080fd5b50813567ffffffffffffffff811115612ec957600080fd5b602083019150836020828501011115612ee157600080fd5b9250929050565b600080600080600060808688031215612f0057600080fd5b8535612f0b81612e4e565b94506020860135612f1b81612e4e565b935060408601359250606086013567ffffffffffffffff811115612f3e57600080fd5b612f4a88828901612e9f565b969995985093965092949392505050565b600060208284031215612f6d57600080fd5b81356105d781612e4e565b600060208284031215612f8a57600080fd5b5035919050565b600080600060608486031215612fa657600080fd5b83359250602084013591506040840135612fbf81612e4e565b809150509250925092565b60008060208385031215612fdd57600080fd5b823567ffffffffffffffff811115612ff457600080fd5b61300085828601612e9f565b90969095509350505050565b60008060006060848603121561302157600080fd5b833561302c81612e4e565b9250602084013561303c81612e4e565b929592945050506040919091013590565b7f4e487b7100000000000000000000000000000000000000000000000000000000600052604160045260246000fd5b604051601f82017fffffffffffffffffffffffffffffffffffffffffffffffffffffffffffffffe016810167ffffffffffffffff811182821017156130c3576130c361304d565b604052919050565b600067ffffffffffffffff8211156130e5576130e561304d565b50601f017fffffffffffffffffffffffffffffffffffffffffffffffffffffffffffffffe01660200190565b60006020828403121561312357600080fd5b813567ffffffffffffffff81111561313a57600080fd5b8201601f8101841361314b57600080fd5b803561315e613159826130cb565b61307c565b81815285602083850101111561317357600080fd5b81602084016020830137600091810160200191909152949350505050565b60005b838110156131ac578181015183820152602001613194565b50506000910152565b600081518084526131cd816020860160208601613191565b601f017fffffffffffffffffffffffffffffffffffffffffffffffffffffffffffffffe0169290920160200192915050565b73ffffffffffffffffffffffffffffffffffffffff83168152604060208201526000611f1f60408301846131b5565b828152604060208201526000611f1f60408301846131b5565b7f4e487b7100000000000000000000000000000000000000000000000000000000600052601160045260246000fd5b8181038181111561048d5761048d613247565b60006020828403121561329b57600080fd5b815180151581146105d757600080fd5b600080600080600060a086880312156132c357600080fd5b85516132ce81612e4e565b60208701519095506132df81612e4e565b60408701519094506132f081612e4e565b606087015190935061330181612e4e565b80925050608086015190509295509295909350565b60006020828403121561332857600080fd5b5051919050565b600061333d613159846130cb565b905082815283838301111561335157600080fd5b6105d7836020830184613191565b60006020828403121561337157600080fd5b815167ffffffffffffffff81111561338857600080fd5b8201601f8101841361339957600080fd5b611f1f8482516020840161332f565b6000602082840312156133ba57600080fd5b815160ff811681146105d757600080fd5b6000602082840312156133dd57600080fd5b81516105d781612e4e565b86815260c06020820152600061340160c08301886131b5565b828103604084015261341381886131b5565b905060ff86166060840152828103608084015261343081866131b5565b91505073ffffffffffffffffffffffffffffffffffffffff831660a0830152979650505050505050565b83815260008351613472816020850160208801613191565b60209201918201929092526040019392505050565b7f4e487b7100000000000000000000000000000000000000000000000000000000600052603260045260246000fd5b808202811582820484141761048d5761048d613247565b8082018082111561048d5761048d613247565b600080600080600060a086880312156134f857600080fd5b85519450602086015193506040860151925060608601519150608086015161351f81612e4e565b809150509295509295909350565b7f4e487b7100000000000000000000000000000000000000000000000000000000600052601260045260246000fd5b60008261356b5761356b61352d565b500690565b60008261357f5761357f61352d565b500490565b600060ff8316806135975761359761352d565b8060ff84160691505092915050565b600060ff8316806135b9576135b961352d565b8060ff84160491505092915050565b600181815b8085111561362157817fffffffffffffffffffffffffffffffffffffffffffffffffffffffffffffffff0482111561360757613607613247565b8085161561361457918102915b93841c93908002906135cd565b509250929050565b6000826136385750600161048d565b816136455750600061048d565b816001811461365b576002811461366557613681565b600191505061048d565b60ff84111561367657613676613247565b50506001821b61048d565b5060208310610133831016604e8410600b84101617156136a4575081810a61048d565b6136ae83836135c8565b807fffffffffffffffffffffffffffffffffffffffffffffffffffffffffffffffff048211156136e0576136e0613247565b029392505050565b60006105d78383613629565b60ff828116828216039081111561048d5761048d613247565b60007fffffffffffffffffffffffffffffffffffffffffffffffffffffffffffffffff820361373e5761373e613247565b5060010190565b60008251613757818460208701613191565b9190910192915050565b6020815260006105d760208301846131b556fea264697066735822122018c2841d2bac6ae895a8c1506bc7c67fc9fdce7cac9f6fbd141d2bacb19f1be364736f6c63430008160033",
  "linkReferences": {},
  "deployedLinkReferences": {}
}