{
  "_format": "hh-sol-artifact-1",
  "contractName": "OFTFixedSupplyMock",
  "sourceName": "contracts/mocks/layerzero/token/ERC20/OFTFixedSupplyMock.sol",
  "abi": [
    {
      "inputs": [
        {
          "internalType": "string",
          "name": "tokenName",
          "type": "string"
        },
        {
          "internalType": "string",
          "name": "tokenSymbol",
          "type": "string"
        },
        {
          "internalType": "uint8",
          "name": "tokenDecimals",
          "type": "uint8"
        },
        {
          "internalType": "address[]",
          "name": "holders",
          "type": "address[]"
        },
        {
          "internalType": "uint256[]",
          "name": "allocations",
          "type": "uint256[]"
        },
        {
          "internalType": "contract IForwarderRegistry",
          "name": "forwarderRegistry",
          "type": "address"
        },
        {
          "internalType": "address",
          "name": "lzEndpoint",
          "type": "address"
        },
        {
          "internalType": "address",
          "name": "delegate",
          "type": "address"
        }
      ],
      "stateMutability": "nonpayable",
      "type": "constructor"
    },
    {
      "inputs": [
        {
          "internalType": "address",
          "name": "owner",
          "type": "address"
        },
        {
          "internalType": "address",
          "name": "spender",
          "type": "address"
        },
        {
          "internalType": "uint256",
          "name": "allowance",
          "type": "uint256"
        },
        {
          "internalType": "uint256",
          "name": "increment",
          "type": "uint256"
        }
      ],
      "name": "ERC20AllowanceOverflow",
      "type": "error"
    },
    {
      "inputs": [
        {
          "internalType": "address",
          "name": "owner",
          "type": "address"
        }
      ],
      "name": "ERC20ApprovalToAddressZero",
      "type": "error"
    },
    {
      "inputs": [],
      "name": "ERC20BatchMintValuesOverflow",
      "type": "error"
    },
    {
      "inputs": [],
      "name": "ERC20BatchTransferValuesOverflow",
      "type": "error"
    },
    {
      "inputs": [
        {
          "internalType": "address",
          "name": "owner",
          "type": "address"
        },
        {
          "internalType": "address",
          "name": "spender",
          "type": "address"
        },
        {
          "internalType": "uint256",
          "name": "allowance",
          "type": "uint256"
        },
        {
          "internalType": "uint256",
          "name": "decrement",
          "type": "uint256"
        }
      ],
      "name": "ERC20InsufficientAllowance",
      "type": "error"
    },
    {
      "inputs": [
        {
          "internalType": "address",
          "name": "owner",
          "type": "address"
        },
        {
          "internalType": "uint256",
          "name": "balance",
          "type": "uint256"
        },
        {
          "internalType": "uint256",
          "name": "value",
          "type": "uint256"
        }
      ],
      "name": "ERC20InsufficientBalance",
      "type": "error"
    },
    {
      "inputs": [],
      "name": "ERC20MintToAddressZero",
      "type": "error"
    },
    {
      "inputs": [
        {
          "internalType": "uint256",
          "name": "deadline",
          "type": "uint256"
        }
      ],
      "name": "ERC20PermitExpired",
      "type": "error"
    },
    {
      "inputs": [],
      "name": "ERC20PermitFromAddressZero",
      "type": "error"
    },
    {
      "inputs": [],
      "name": "ERC20PermitInvalidSignature",
      "type": "error"
    },
    {
      "inputs": [
        {
          "internalType": "address",
          "name": "recipient",
          "type": "address"
        }
      ],
      "name": "ERC20SafeTransferRejected",
      "type": "error"
    },
    {
      "inputs": [
        {
          "internalType": "uint256",
          "name": "supply",
          "type": "uint256"
        },
        {
          "internalType": "uint256",
          "name": "value",
          "type": "uint256"
        }
      ],
      "name": "ERC20TotalSupplyOverflow",
      "type": "error"
    },
    {
      "inputs": [
        {
          "internalType": "address",
          "name": "owner",
          "type": "address"
        }
      ],
      "name": "ERC20TransferToAddressZero",
      "type": "error"
    },
    {
      "inputs": [],
      "name": "FailedCall",
      "type": "error"
    },
    {
      "inputs": [],
      "name": "IllegalInterfaceId",
      "type": "error"
    },
    {
      "inputs": [],
      "name": "InconsistentArrayLengths",
      "type": "error"
    },
    {
      "inputs": [
        {
          "internalType": "address",
          "name": "tokenContract",
          "type": "address"
        }
      ],
      "name": "IncorrectTokenContractType",
      "type": "error"
    },
    {
      "inputs": [
        {
          "internalType": "uint256",
          "name": "balance",
          "type": "uint256"
        },
        {
          "internalType": "uint256",
          "name": "needed",
          "type": "uint256"
        }
      ],
      "name": "InsufficientBalance",
      "type": "error"
    },
    {
      "inputs": [],
      "name": "InvalidDelegate",
      "type": "error"
    },
    {
      "inputs": [],
      "name": "InvalidEndpointCall",
      "type": "error"
    },
    {
      "inputs": [],
      "name": "InvalidLocalDecimals",
      "type": "error"
    },
    {
      "inputs": [
        {
          "internalType": "bytes",
          "name": "options",
          "type": "bytes"
        }
      ],
      "name": "InvalidOptions",
      "type": "error"
    },
    {
      "inputs": [],
      "name": "LzTokenUnavailable",
      "type": "error"
    },
    {
      "inputs": [
        {
          "internalType": "uint32",
          "name": "eid",
          "type": "uint32"
        }
      ],
      "name": "NoPeer",
      "type": "error"
    },
    {
      "inputs": [
        {
          "internalType": "uint256",
          "name": "msgValue",
          "type": "uint256"
        }
      ],
      "name": "NotEnoughNative",
      "type": "error"
    },
    {
      "inputs": [
        {
          "internalType": "address",
          "name": "addr",
          "type": "address"
        }
      ],
      "name": "OnlyEndpoint",
      "type": "error"
    },
    {
      "inputs": [
        {
          "internalType": "uint32",
          "name": "eid",
          "type": "uint32"
        },
        {
          "internalType": "bytes32",
          "name": "sender",
          "type": "bytes32"
        }
      ],
      "name": "OnlyPeer",
      "type": "error"
    },
    {
      "inputs": [],
      "name": "OnlySelf",
      "type": "error"
    },
    {
      "inputs": [
        {
          "internalType": "address",
          "name": "owner",
          "type": "address"
        }
      ],
      "name": "OwnableInvalidOwner",
      "type": "error"
    },
    {
      "inputs": [
        {
          "internalType": "address",
          "name": "account",
          "type": "address"
        }
      ],
      "name": "OwnableUnauthorizedAccount",
      "type": "error"
    },
    {
      "inputs": [
        {
          "internalType": "address",
          "name": "token",
          "type": "address"
        }
      ],
      "name": "SafeERC20FailedOperation",
      "type": "error"
    },
    {
      "inputs": [
        {
          "internalType": "bytes",
          "name": "result",
          "type": "bytes"
        }
      ],
      "name": "SimulationResult",
      "type": "error"
    },
    {
      "inputs": [
        {
          "internalType": "uint256",
          "name": "amountLD",
          "type": "uint256"
        },
        {
          "internalType": "uint256",
          "name": "minAmountLD",
          "type": "uint256"
        }
      ],
      "name": "SlippageExceeded",
      "type": "error"
    },
    {
      "anonymous": false,
      "inputs": [
        {
          "indexed": true,
          "internalType": "address",
          "name": "owner",
          "type": "address"
        },
        {
          "indexed": true,
          "internalType": "address",
          "name": "spender",
          "type": "address"
        },
        {
          "indexed": false,
          "internalType": "uint256",
          "name": "value",
          "type": "uint256"
        }
      ],
      "name": "Approval",
      "type": "event"
    },
    {
      "anonymous": false,
      "inputs": [
        {
          "components": [
            {
              "internalType": "uint32",
              "name": "eid",
              "type": "uint32"
            },
            {
              "internalType": "uint16",
              "name": "msgType",
              "type": "uint16"
            },
            {
              "internalType": "bytes",
              "name": "options",
              "type": "bytes"
            }
          ],
          "indexed": false,
          "internalType": "struct EnforcedOptionParam[]",
          "name": "_enforcedOptions",
          "type": "tuple[]"
        }
      ],
      "name": "EnforcedOptionSet",
      "type": "event"
    },
    {
      "anonymous": false,
      "inputs": [
        {
          "indexed": false,
          "internalType": "address",
          "name": "inspector",
          "type": "address"
        }
      ],
      "name": "MsgInspectorSet",
      "type": "event"
    },
    {
      "anonymous": false,
      "inputs": [
        {
          "indexed": true,
          "internalType": "bytes32",
          "name": "guid",
          "type": "bytes32"
        },
        {
          "indexed": false,
          "internalType": "uint32",
          "name": "srcEid",
          "type": "uint32"
        },
        {
          "indexed": true,
          "internalType": "address",
          "name": "toAddress",
          "type": "address"
        },
        {
          "indexed": false,
          "internalType": "uint256",
          "name": "amountReceivedLD",
          "type": "uint256"
        }
      ],
      "name": "OFTReceived",
      "type": "event"
    },
    {
      "anonymous": false,
      "inputs": [
        {
          "indexed": true,
          "internalType": "bytes32",
          "name": "guid",
          "type": "bytes32"
        },
        {
          "indexed": false,
          "internalType": "uint32",
          "name": "dstEid",
          "type": "uint32"
        },
        {
          "indexed": true,
          "internalType": "address",
          "name": "fromAddress",
          "type": "address"
        },
        {
          "indexed": false,
          "internalType": "uint256",
          "name": "amountSentLD",
          "type": "uint256"
        },
        {
          "indexed": false,
          "internalType": "uint256",
          "name": "amountReceivedLD",
          "type": "uint256"
        }
      ],
      "name": "OFTSent",
      "type": "event"
    },
    {
      "anonymous": false,
      "inputs": [
        {
          "indexed": true,
          "internalType": "address",
          "name": "previousOwner",
          "type": "address"
        },
        {
          "indexed": true,
          "internalType": "address",
          "name": "newOwner",
          "type": "address"
        }
      ],
      "name": "OwnershipTransferred",
      "type": "event"
    },
    {
      "anonymous": false,
      "inputs": [
        {
          "indexed": false,
          "internalType": "uint32",
          "name": "eid",
          "type": "uint32"
        },
        {
          "indexed": false,
          "internalType": "bytes32",
          "name": "peer",
          "type": "bytes32"
        }
      ],
      "name": "PeerSet",
      "type": "event"
    },
    {
      "anonymous": false,
      "inputs": [
        {
          "indexed": false,
          "internalType": "address",
          "name": "preCrimeAddress",
          "type": "address"
        }
      ],
      "name": "PreCrimeSet",
      "type": "event"
    },
    {
      "anonymous": false,
      "inputs": [
        {
          "indexed": true,
          "internalType": "address",
          "name": "from",
          "type": "address"
        },
        {
          "indexed": true,
          "internalType": "address",
          "name": "to",
          "type": "address"
        },
        {
          "indexed": false,
          "internalType": "uint256",
          "name": "value",
          "type": "uint256"
        }
      ],
      "name": "Transfer",
      "type": "event"
    },
    {
      "inputs": [],
      "name": "DOMAIN_SEPARATOR",
      "outputs": [
        {
          "internalType": "bytes32",
          "name": "",
          "type": "bytes32"
        }
      ],
      "stateMutability": "view",
      "type": "function"
    },
    {
      "inputs": [],
      "name": "SEND",
      "outputs": [
        {
          "internalType": "uint16",
          "name": "",
          "type": "uint16"
        }
      ],
      "stateMutability": "view",
      "type": "function"
    },
    {
      "inputs": [],
      "name": "SEND_AND_CALL",
      "outputs": [
        {
          "internalType": "uint16",
          "name": "",
          "type": "uint16"
        }
      ],
      "stateMutability": "view",
      "type": "function"
    },
    {
      "inputs": [],
      "name": "__msgData",
      "outputs": [
        {
          "internalType": "bytes",
          "name": "",
          "type": "bytes"
        }
      ],
      "stateMutability": "view",
      "type": "function"
    },
    {
      "inputs": [
        {
          "components": [
            {
              "internalType": "uint32",
              "name": "srcEid",
              "type": "uint32"
            },
            {
              "internalType": "bytes32",
              "name": "sender",
              "type": "bytes32"
            },
            {
              "internalType": "uint64",
              "name": "nonce",
              "type": "uint64"
            }
          ],
          "internalType": "struct Origin",
          "name": "origin",
          "type": "tuple"
        }
      ],
      "name": "allowInitializePath",
      "outputs": [
        {
          "internalType": "bool",
          "name": "",
          "type": "bool"
        }
      ],
      "stateMutability": "view",
      "type": "function"
    },
    {
      "inputs": [
        {
          "internalType": "address",
          "name": "owner",
          "type": "address"
        },
        {
          "internalType": "address",
          "name": "spender",
          "type": "address"
        }
      ],
      "name": "allowance",
      "outputs": [
        {
          "internalType": "uint256",
          "name": "value",
          "type": "uint256"
        }
      ],
      "stateMutability": "view",
      "type": "function"
    },
    {
      "inputs": [],
      "name": "approvalRequired",
      "outputs": [
        {
          "internalType": "bool",
          "name": "",
          "type": "bool"
        }
      ],
      "stateMutability": "pure",
      "type": "function"
    },
    {
      "inputs": [
        {
          "internalType": "address",
          "name": "spender",
          "type": "address"
        },
        {
          "internalType": "uint256",
          "name": "value",
          "type": "uint256"
        }
      ],
      "name": "approve",
      "outputs": [
        {
          "internalType": "bool",
          "name": "result",
          "type": "bool"
        }
      ],
      "stateMutability": "nonpayable",
      "type": "function"
    },
    {
      "inputs": [
        {
          "internalType": "address",
          "name": "owner",
          "type": "address"
        }
      ],
      "name": "balanceOf",
      "outputs": [
        {
          "internalType": "uint256",
          "name": "balance",
          "type": "uint256"
        }
      ],
      "stateMutability": "view",
      "type": "function"
    },
    {
      "inputs": [
        {
          "internalType": "address[]",
          "name": "recipients",
          "type": "address[]"
        },
        {
          "internalType": "uint256[]",
          "name": "values",
          "type": "uint256[]"
        }
      ],
      "name": "batchTransfer",
      "outputs": [
        {
          "internalType": "bool",
          "name": "",
          "type": "bool"
        }
      ],
      "stateMutability": "nonpayable",
      "type": "function"
    },
    {
      "inputs": [
        {
          "internalType": "address",
          "name": "from",
          "type": "address"
        },
        {
          "internalType": "address[]",
          "name": "recipients",
          "type": "address[]"
        },
        {
          "internalType": "uint256[]",
          "name": "values",
          "type": "uint256[]"
        }
      ],
      "name": "batchTransferFrom",
      "outputs": [
        {
          "internalType": "bool",
          "name": "",
          "type": "bool"
        }
      ],
      "stateMutability": "nonpayable",
      "type": "function"
    },
    {
      "inputs": [
        {
          "internalType": "uint32",
          "name": "_eid",
          "type": "uint32"
        },
        {
          "internalType": "uint16",
          "name": "_msgType",
          "type": "uint16"
        },
        {
          "internalType": "bytes",
          "name": "_extraOptions",
          "type": "bytes"
        }
      ],
      "name": "combineOptions",
      "outputs": [
        {
          "internalType": "bytes",
          "name": "",
          "type": "bytes"
        }
      ],
      "stateMutability": "view",
      "type": "function"
    },
    {
      "inputs": [],
      "name": "decimalConversionRate",
      "outputs": [
        {
          "internalType": "uint256",
          "name": "",
          "type": "uint256"
        }
      ],
      "stateMutability": "view",
      "type": "function"
    },
    {
      "inputs": [],
      "name": "decimals",
      "outputs": [
        {
          "internalType": "uint8",
          "name": "",
          "type": "uint8"
        }
      ],
      "stateMutability": "view",
      "type": "function"
    },
    {
      "inputs": [
        {
          "internalType": "address",
          "name": "spender",
          "type": "address"
        },
        {
          "internalType": "uint256",
          "name": "subtractedValue",
          "type": "uint256"
        }
      ],
      "name": "decreaseAllowance",
      "outputs": [
        {
          "internalType": "bool",
          "name": "result",
          "type": "bool"
        }
      ],
      "stateMutability": "nonpayable",
      "type": "function"
    },
    {
      "inputs": [],
      "name": "endpoint",
      "outputs": [
        {
          "internalType": "contract ILayerZeroEndpointV2",
          "name": "",
          "type": "address"
        }
      ],
      "stateMutability": "view",
      "type": "function"
    },
    {
      "inputs": [
        {
          "internalType": "uint32",
          "name": "eid",
          "type": "uint32"
        },
        {
          "internalType": "uint16",
          "name": "msgType",
          "type": "uint16"
        }
      ],
      "name": "enforcedOptions",
      "outputs": [
        {
          "internalType": "bytes",
          "name": "enforcedOption",
          "type": "bytes"
        }
      ],
      "stateMutability": "view",
      "type": "function"
    },
    {
      "inputs": [],
      "name": "forwarderRegistry",
      "outputs": [
        {
          "internalType": "contract IForwarderRegistry",
          "name": "",
          "type": "address"
        }
      ],
      "stateMutability": "view",
      "type": "function"
    },
    {
      "inputs": [
        {
          "internalType": "address",
          "name": "spender",
          "type": "address"
        },
        {
          "internalType": "uint256",
          "name": "addedValue",
          "type": "uint256"
        }
      ],
      "name": "increaseAllowance",
      "outputs": [
        {
          "internalType": "bool",
          "name": "result",
          "type": "bool"
        }
      ],
      "stateMutability": "nonpayable",
      "type": "function"
    },
    {
      "inputs": [
        {
          "components": [
            {
              "internalType": "uint32",
              "name": "srcEid",
              "type": "uint32"
            },
            {
              "internalType": "bytes32",
              "name": "sender",
              "type": "bytes32"
            },
            {
              "internalType": "uint64",
              "name": "nonce",
              "type": "uint64"
            }
          ],
          "internalType": "struct Origin",
          "name": "",
          "type": "tuple"
        },
        {
          "internalType": "bytes",
          "name": "",
          "type": "bytes"
        },
        {
          "internalType": "address",
          "name": "_sender",
          "type": "address"
        }
      ],
      "name": "isComposeMsgSender",
      "outputs": [
        {
          "internalType": "bool",
          "name": "",
          "type": "bool"
        }
      ],
      "stateMutability": "view",
      "type": "function"
    },
    {
      "inputs": [
        {
          "internalType": "uint32",
          "name": "_eid",
          "type": "uint32"
        },
        {
          "internalType": "bytes32",
          "name": "_peer",
          "type": "bytes32"
        }
      ],
      "name": "isPeer",
      "outputs": [
        {
          "internalType": "bool",
          "name": "",
          "type": "bool"
        }
      ],
      "stateMutability": "view",
      "type": "function"
    },
    {
      "inputs": [
        {
          "internalType": "address",
          "name": "forwarder",
          "type": "address"
        }
      ],
      "name": "isTrustedForwarder",
      "outputs": [
        {
          "internalType": "bool",
          "name": "",
          "type": "bool"
        }
      ],
      "stateMutability": "view",
      "type": "function"
    },
    {
      "inputs": [
        {
          "components": [
            {
              "internalType": "uint32",
              "name": "srcEid",
              "type": "uint32"
            },
            {
              "internalType": "bytes32",
              "name": "sender",
              "type": "bytes32"
            },
            {
              "internalType": "uint64",
              "name": "nonce",
              "type": "uint64"
            }
          ],
          "internalType": "struct Origin",
          "name": "_origin",
          "type": "tuple"
        },
        {
          "internalType": "bytes32",
          "name": "_guid",
          "type": "bytes32"
        },
        {
          "internalType": "bytes",
          "name": "_message",
          "type": "bytes"
        },
        {
          "internalType": "address",
          "name": "_executor",
          "type": "address"
        },
        {
          "internalType": "bytes",
          "name": "_extraData",
          "type": "bytes"
        }
      ],
      "name": "lzReceive",
      "outputs": [],
      "stateMutability": "payable",
      "type": "function"
    },
    {
      "inputs": [
        {
          "components": [
            {
              "components": [
                {
                  "internalType": "uint32",
                  "name": "srcEid",
                  "type": "uint32"
                },
                {
                  "internalType": "bytes32",
                  "name": "sender",
                  "type": "bytes32"
                },
                {
                  "internalType": "uint64",
                  "name": "nonce",
                  "type": "uint64"
                }
              ],
              "internalType": "struct Origin",
              "name": "origin",
              "type": "tuple"
            },
            {
              "internalType": "uint32",
              "name": "dstEid",
              "type": "uint32"
            },
            {
              "internalType": "address",
              "name": "receiver",
              "type": "address"
            },
            {
              "internalType": "bytes32",
              "name": "guid",
              "type": "bytes32"
            },
            {
              "internalType": "uint256",
              "name": "value",
              "type": "uint256"
            },
            {
              "internalType": "address",
              "name": "executor",
              "type": "address"
            },
            {
              "internalType": "bytes",
              "name": "message",
              "type": "bytes"
            },
            {
              "internalType": "bytes",
              "name": "extraData",
              "type": "bytes"
            }
          ],
          "internalType": "struct InboundPacket[]",
          "name": "_packets",
          "type": "tuple[]"
        }
      ],
      "name": "lzReceiveAndRevert",
      "outputs": [],
      "stateMutability": "payable",
      "type": "function"
    },
    {
      "inputs": [
        {
          "components": [
            {
              "internalType": "uint32",
              "name": "srcEid",
              "type": "uint32"
            },
            {
              "internalType": "bytes32",
              "name": "sender",
              "type": "bytes32"
            },
            {
              "internalType": "uint64",
              "name": "nonce",
              "type": "uint64"
            }
          ],
          "internalType": "struct Origin",
          "name": "_origin",
          "type": "tuple"
        },
        {
          "internalType": "bytes32",
          "name": "_guid",
          "type": "bytes32"
        },
        {
          "internalType": "bytes",
          "name": "_message",
          "type": "bytes"
        },
        {
          "internalType": "address",
          "name": "_executor",
          "type": "address"
        },
        {
          "internalType": "bytes",
          "name": "_extraData",
          "type": "bytes"
        }
      ],
      "name": "lzReceiveSimulate",
      "outputs": [],
      "stateMutability": "payable",
      "type": "function"
    },
    {
      "inputs": [],
      "name": "msgInspector",
      "outputs": [
        {
          "internalType": "address",
          "name": "",
          "type": "address"
        }
      ],
      "stateMutability": "view",
      "type": "function"
    },
    {
      "inputs": [],
      "name": "name",
      "outputs": [
        {
          "internalType": "string",
          "name": "",
          "type": "string"
        }
      ],
      "stateMutability": "view",
      "type": "function"
    },
    {
      "inputs": [
        {
          "internalType": "uint32",
          "name": "",
          "type": "uint32"
        },
        {
          "internalType": "bytes32",
          "name": "",
          "type": "bytes32"
        }
      ],
      "name": "nextNonce",
      "outputs": [
        {
          "internalType": "uint64",
          "name": "nonce",
          "type": "uint64"
        }
      ],
      "stateMutability": "view",
      "type": "function"
    },
    {
      "inputs": [
        {
          "internalType": "address",
          "name": "owner",
          "type": "address"
        }
      ],
      "name": "nonces",
      "outputs": [
        {
          "internalType": "uint256",
          "name": "",
          "type": "uint256"
        }
      ],
      "stateMutability": "view",
      "type": "function"
    },
    {
      "inputs": [],
      "name": "oApp",
      "outputs": [
        {
          "internalType": "address",
          "name": "",
          "type": "address"
        }
      ],
      "stateMutability": "view",
      "type": "function"
    },
    {
      "inputs": [],
      "name": "oAppVersion",
      "outputs": [
        {
          "internalType": "uint64",
          "name": "senderVersion",
          "type": "uint64"
        },
        {
          "internalType": "uint64",
          "name": "receiverVersion",
          "type": "uint64"
        }
      ],
      "stateMutability": "pure",
      "type": "function"
    },
    {
      "inputs": [],
      "name": "oftVersion",
      "outputs": [
        {
          "internalType": "bytes4",
          "name": "interfaceId",
          "type": "bytes4"
        },
        {
          "internalType": "uint64",
          "name": "version",
          "type": "uint64"
        }
      ],
      "stateMutability": "pure",
      "type": "function"
    },
    {
      "inputs": [],
      "name": "owner",
      "outputs": [
        {
          "internalType": "address",
          "name": "",
          "type": "address"
        }
      ],
      "stateMutability": "view",
      "type": "function"
    },
    {
      "inputs": [
        {
          "internalType": "uint32",
          "name": "eid",
          "type": "uint32"
        }
      ],
      "name": "peers",
      "outputs": [
        {
          "internalType": "bytes32",
          "name": "peer",
          "type": "bytes32"
        }
      ],
      "stateMutability": "view",
      "type": "function"
    },
    {
      "inputs": [
        {
          "internalType": "address",
          "name": "owner",
          "type": "address"
        },
        {
          "internalType": "address",
          "name": "spender",
          "type": "address"
        },
        {
          "internalType": "uint256",
          "name": "value",
          "type": "uint256"
        },
        {
          "internalType": "uint256",
          "name": "deadline",
          "type": "uint256"
        },
        {
          "internalType": "uint8",
          "name": "v",
          "type": "uint8"
        },
        {
          "internalType": "bytes32",
          "name": "r",
          "type": "bytes32"
        },
        {
          "internalType": "bytes32",
          "name": "s",
          "type": "bytes32"
        }
      ],
      "name": "permit",
      "outputs": [],
      "stateMutability": "nonpayable",
      "type": "function"
    },
    {
      "inputs": [],
      "name": "preCrime",
      "outputs": [
        {
          "internalType": "address",
          "name": "",
          "type": "address"
        }
      ],
      "stateMutability": "view",
      "type": "function"
    },
    {
      "inputs": [
        {
          "components": [
            {
              "internalType": "uint32",
              "name": "dstEid",
              "type": "uint32"
            },
            {
              "internalType": "bytes32",
              "name": "to",
              "type": "bytes32"
            },
            {
              "internalType": "uint256",
              "name": "amountLD",
              "type": "uint256"
            },
            {
              "internalType": "uint256",
              "name": "minAmountLD",
              "type": "uint256"
            },
            {
              "internalType": "bytes",
              "name": "extraOptions",
              "type": "bytes"
            },
            {
              "internalType": "bytes",
              "name": "composeMsg",
              "type": "bytes"
            },
            {
              "internalType": "bytes",
              "name": "oftCmd",
              "type": "bytes"
            }
          ],
          "internalType": "struct SendParam",
          "name": "_sendParam",
          "type": "tuple"
        }
      ],
      "name": "quoteOFT",
      "outputs": [
        {
          "components": [
            {
              "internalType": "uint256",
              "name": "minAmountLD",
              "type": "uint256"
            },
            {
              "internalType": "uint256",
              "name": "maxAmountLD",
              "type": "uint256"
            }
          ],
          "internalType": "struct OFTLimit",
          "name": "oftLimit",
          "type": "tuple"
        },
        {
          "components": [
            {
              "internalType": "int256",
              "name": "feeAmountLD",
              "type": "int256"
            },
            {
              "internalType": "string",
              "name": "description",
              "type": "string"
            }
          ],
          "internalType": "struct OFTFeeDetail[]",
          "name": "oftFeeDetails",
          "type": "tuple[]"
        },
        {
          "components": [
            {
              "internalType": "uint256",
              "name": "amountSentLD",
              "type": "uint256"
            },
            {
              "internalType": "uint256",
              "name": "amountReceivedLD",
              "type": "uint256"
            }
          ],
          "internalType": "struct OFTReceipt",
          "name": "oftReceipt",
          "type": "tuple"
        }
      ],
      "stateMutability": "view",
      "type": "function"
    },
    {
      "inputs": [
        {
          "components": [
            {
              "internalType": "uint32",
              "name": "dstEid",
              "type": "uint32"
            },
            {
              "internalType": "bytes32",
              "name": "to",
              "type": "bytes32"
            },
            {
              "internalType": "uint256",
              "name": "amountLD",
              "type": "uint256"
            },
            {
              "internalType": "uint256",
              "name": "minAmountLD",
              "type": "uint256"
            },
            {
              "internalType": "bytes",
              "name": "extraOptions",
              "type": "bytes"
            },
            {
              "internalType": "bytes",
              "name": "composeMsg",
              "type": "bytes"
            },
            {
              "internalType": "bytes",
              "name": "oftCmd",
              "type": "bytes"
            }
          ],
          "internalType": "struct SendParam",
          "name": "_sendParam",
          "type": "tuple"
        },
        {
          "internalType": "bool",
          "name": "_payInLzToken",
          "type": "bool"
        }
      ],
      "name": "quoteSend",
      "outputs": [
        {
          "components": [
            {
              "internalType": "uint256",
              "name": "nativeFee",
              "type": "uint256"
            },
            {
              "internalType": "uint256",
              "name": "lzTokenFee",
              "type": "uint256"
            }
          ],
          "internalType": "struct MessagingFee",
          "name": "msgFee",
          "type": "tuple"
        }
      ],
      "stateMutability": "view",
      "type": "function"
    },
    {
      "inputs": [
        {
          "internalType": "address[]",
          "name": "accounts",
          "type": "address[]"
        },
        {
          "internalType": "contract IERC20[]",
          "name": "tokens",
          "type": "address[]"
        },
        {
          "internalType": "uint256[]",
          "name": "amounts",
          "type": "uint256[]"
        }
      ],
      "name": "recoverERC20s",
      "outputs": [],
      "stateMutability": "nonpayable",
      "type": "function"
    },
    {
      "inputs": [
        {
          "internalType": "address[]",
          "name": "accounts",
          "type": "address[]"
        },
        {
          "internalType": "contract IERC721[]",
          "name": "contracts",
          "type": "address[]"
        },
        {
          "internalType": "uint256[]",
          "name": "tokenIds",
          "type": "uint256[]"
        }
      ],
      "name": "recoverERC721s",
      "outputs": [],
      "stateMutability": "nonpayable",
      "type": "function"
    },
    {
      "inputs": [
        {
          "internalType": "address payable[]",
          "name": "accounts",
          "type": "address[]"
        },
        {
          "internalType": "uint256[]",
          "name": "amounts",
          "type": "uint256[]"
        }
      ],
      "name": "recoverETH",
      "outputs": [],
      "stateMutability": "nonpayable",
      "type": "function"
    },
    {
      "inputs": [],
      "name": "renounceOwnership",
      "outputs": [],
      "stateMutability": "nonpayable",
      "type": "function"
    },
    {
      "inputs": [
        {
          "internalType": "address",
          "name": "to",
          "type": "address"
        },
        {
          "internalType": "uint256",
          "name": "value",
          "type": "uint256"
        },
        {
          "internalType": "bytes",
          "name": "data",
          "type": "bytes"
        }
      ],
      "name": "safeTransfer",
      "outputs": [
        {
          "internalType": "bool",
          "name": "",
          "type": "bool"
        }
      ],
      "stateMutability": "nonpayable",
      "type": "function"
    },
    {
      "inputs": [
        {
          "internalType": "address",
          "name": "from",
          "type": "address"
        },
        {
          "internalType": "address",
          "name": "to",
          "type": "address"
        },
        {
          "internalType": "uint256",
          "name": "value",
          "type": "uint256"
        },
        {
          "internalType": "bytes",
          "name": "data",
          "type": "bytes"
        }
      ],
      "name": "safeTransferFrom",
      "outputs": [
        {
          "internalType": "bool",
          "name": "",
          "type": "bool"
        }
      ],
      "stateMutability": "nonpayable",
      "type": "function"
    },
    {
      "inputs": [
        {
          "components": [
            {
              "internalType": "uint32",
              "name": "dstEid",
              "type": "uint32"
            },
            {
              "internalType": "bytes32",
              "name": "to",
              "type": "bytes32"
            },
            {
              "internalType": "uint256",
              "name": "amountLD",
              "type": "uint256"
            },
            {
              "internalType": "uint256",
              "name": "minAmountLD",
              "type": "uint256"
            },
            {
              "internalType": "bytes",
              "name": "extraOptions",
              "type": "bytes"
            },
            {
              "internalType": "bytes",
              "name": "composeMsg",
              "type": "bytes"
            },
            {
              "internalType": "bytes",
              "name": "oftCmd",
              "type": "bytes"
            }
          ],
          "internalType": "struct SendParam",
          "name": "_sendParam",
          "type": "tuple"
        },
        {
          "components": [
            {
              "internalType": "uint256",
              "name": "nativeFee",
              "type": "uint256"
            },
            {
              "internalType": "uint256",
              "name": "lzTokenFee",
              "type": "uint256"
            }
          ],
          "internalType": "struct MessagingFee",
          "name": "_fee",
          "type": "tuple"
        },
        {
          "internalType": "address",
          "name": "_refundAddress",
          "type": "address"
        }
      ],
      "name": "send",
      "outputs": [
        {
          "components": [
            {
              "internalType": "bytes32",
              "name": "guid",
              "type": "bytes32"
            },
            {
              "internalType": "uint64",
              "name": "nonce",
              "type": "uint64"
            },
            {
              "components": [
                {
                  "internalType": "uint256",
                  "name": "nativeFee",
                  "type": "uint256"
                },
                {
                  "internalType": "uint256",
                  "name": "lzTokenFee",
                  "type": "uint256"
                }
              ],
              "internalType": "struct MessagingFee",
              "name": "fee",
              "type": "tuple"
            }
          ],
          "internalType": "struct MessagingReceipt",
          "name": "msgReceipt",
          "type": "tuple"
        },
        {
          "components": [
            {
              "internalType": "uint256",
              "name": "amountSentLD",
              "type": "uint256"
            },
            {
              "internalType": "uint256",
              "name": "amountReceivedLD",
              "type": "uint256"
            }
          ],
          "internalType": "struct OFTReceipt",
          "name": "oftReceipt",
          "type": "tuple"
        }
      ],
      "stateMutability": "payable",
      "type": "function"
    },
    {
      "inputs": [
        {
          "internalType": "address",
          "name": "_delegate",
          "type": "address"
        }
      ],
      "name": "setDelegate",
      "outputs": [],
      "stateMutability": "nonpayable",
      "type": "function"
    },
    {
      "inputs": [
        {
          "components": [
            {
              "internalType": "uint32",
              "name": "eid",
              "type": "uint32"
            },
            {
              "internalType": "uint16",
              "name": "msgType",
              "type": "uint16"
            },
            {
              "internalType": "bytes",
              "name": "options",
              "type": "bytes"
            }
          ],
          "internalType": "struct EnforcedOptionParam[]",
          "name": "_enforcedOptions",
          "type": "tuple[]"
        }
      ],
      "name": "setEnforcedOptions",
      "outputs": [],
      "stateMutability": "nonpayable",
      "type": "function"
    },
    {
      "inputs": [
        {
          "internalType": "address",
          "name": "_msgInspector",
          "type": "address"
        }
      ],
      "name": "setMsgInspector",
      "outputs": [],
      "stateMutability": "nonpayable",
      "type": "function"
    },
    {
      "inputs": [
        {
          "internalType": "uint32",
          "name": "_eid",
          "type": "uint32"
        },
        {
          "internalType": "bytes32",
          "name": "_peer",
          "type": "bytes32"
        }
      ],
      "name": "setPeer",
      "outputs": [],
      "stateMutability": "nonpayable",
      "type": "function"
    },
    {
      "inputs": [
        {
          "internalType": "address",
          "name": "_preCrime",
          "type": "address"
        }
      ],
      "name": "setPreCrime",
      "outputs": [],
      "stateMutability": "nonpayable",
      "type": "function"
    },
    {
      "inputs": [
        {
          "internalType": "string",
          "name": "uri",
          "type": "string"
        }
      ],
      "name": "setTokenURI",
      "outputs": [],
      "stateMutability": "nonpayable",
      "type": "function"
    },
    {
      "inputs": [],
      "name": "sharedDecimals",
      "outputs": [
        {
          "internalType": "uint8",
          "name": "",
          "type": "uint8"
        }
      ],
      "stateMutability": "view",
      "type": "function"
    },
    {
      "inputs": [
        {
          "internalType": "bytes4",
          "name": "interfaceId",
          "type": "bytes4"
        }
      ],
      "name": "supportsInterface",
      "outputs": [
        {
          "internalType": "bool",
          "name": "",
          "type": "bool"
        }
      ],
      "stateMutability": "view",
      "type": "function"
    },
    {
      "inputs": [],
      "name": "symbol",
      "outputs": [
        {
          "internalType": "string",
          "name": "",
          "type": "string"
        }
      ],
      "stateMutability": "view",
      "type": "function"
    },
    {
      "inputs": [],
      "name": "token",
      "outputs": [
        {
          "internalType": "address",
          "name": "",
          "type": "address"
        }
      ],
      "stateMutability": "view",
      "type": "function"
    },
    {
      "inputs": [],
      "name": "tokenURI",
      "outputs": [
        {
          "internalType": "string",
          "name": "",
          "type": "string"
        }
      ],
      "stateMutability": "view",
      "type": "function"
    },
    {
      "inputs": [],
      "name": "totalSupply",
      "outputs": [
        {
          "internalType": "uint256",
          "name": "supply",
          "type": "uint256"
        }
      ],
      "stateMutability": "view",
      "type": "function"
    },
    {
      "inputs": [
        {
          "internalType": "address",
          "name": "to",
          "type": "address"
        },
        {
          "internalType": "uint256",
          "name": "value",
          "type": "uint256"
        }
      ],
      "name": "transfer",
      "outputs": [
        {
          "internalType": "bool",
          "name": "result",
          "type": "bool"
        }
      ],
      "stateMutability": "nonpayable",
      "type": "function"
    },
    {
      "inputs": [
        {
          "internalType": "address",
          "name": "from",
          "type": "address"
        },
        {
          "internalType": "address",
          "name": "to",
          "type": "address"
        },
        {
          "internalType": "uint256",
          "name": "value",
          "type": "uint256"
        }
      ],
      "name": "transferFrom",
      "outputs": [
        {
          "internalType": "bool",
          "name": "result",
          "type": "bool"
        }
      ],
      "stateMutability": "nonpayable",
      "type": "function"
    },
    {
      "inputs": [
        {
          "internalType": "address",
          "name": "newOwner",
          "type": "address"
        }
      ],
      "name": "transferOwnership",
      "outputs": [],
      "stateMutability": "nonpayable",
      "type": "function"
    }
  ],
  "bytecode": "0x60e060405234801561001057600080fd5b5060405161698238038061698283398101604081905261002f9161074c565b8787878787878787828089898980878781818181338061006a57604051631e4fbdf760e01b8152600060048201526024015b60405180910390fd5b610073816101c5565b506001600160a01b0380831660805281166100a157604051632d618d8160e21b815260040160405180910390fd5b60805160405163ca5eb5e160e01b81526001600160a01b0383811660048301529091169063ca5eb5e190602401600060405180830381600087803b1580156100e857600080fd5b505af11580156100fc573d6000803e3d6000fd5b505050505050505061011261021560201b60201c565b60ff168360ff161015610138576040516301e9714b60e41b815260040160405180910390fd5b610143600684610866565b61014e90600a610966565b60a0525061015d91505061021a565b61017383838361016b61024f565b929190610283565b5061017f9150506102d1565b6101876102e8565b61018f6102fd565b6001600160a01b031660c052506101b085856101a9610312565b9190610340565b50505050505050505050505050505050610ae9565b600080546001600160a01b038381166001600160a01b0319831681178455604051919092169283917f8be0079c531659141344cd1fd0a4f28419497f9722a3daafe3b4186f6b6457e09190a35050565b600690565b60006102246104ca565b9050610239816336372b0760e01b60016104f8565b61024c81634e83a8c360e11b60016104f8565b50565b60008061027d60017f335df4119bbb04f056b33eba33b826d3529129e458faf6daa9924b5a8f3b6a8261097c565b92915050565b8361028e8482610a15565b506001840161029d8382610a15565b5060028401805460ff191660ff83161790556102cb63a219a02560e01b60016102c46104ca565b91906104f8565b50505050565b6102e6634ec7fbed60e11b60016102c46104ca565b565b6102e66353f41a9760e01b60016102c46104ca565b6102e663602993f360e11b60016102c46104ca565b60008061027d60017f1da92899d3da68bf9787824388a37ea2bfa79780bcef91b9716c390eec8ecbef61097c565b815181518114610363576040516332c1299b60e11b815260040160405180910390fd5b806000036103715750505050565b6000805b8281101561048357600085828151811061039157610391610ad3565b6020026020010151905060006001600160a01b0316816001600160a01b0316036103ce576040516392fd9c8f60e01b815260040160405180910390fd5b60008583815181106103e2576103e2610ad3565b60200260200101519050806000146104385783810184811161041757604051631550ab9f60e21b815260040160405180910390fd5b6001600160a01b038316600090815260208a90526040902080548301905593505b6040518181526001600160a01b038316906000907fddf252ad1be2c89b69c2b068fc378daa952ba7f163c4a11628f55a4df523b3ef9060200160405180910390a35050600101610375565b5080156104c35760028501548181018181116104bc576040516301b352fb60e11b81526004810183905260248101849052604401610061565b6002870155505b5050505050565b60008061027d60017fca9d3e17f264b0f3984e2634e94adb37fa3e6a8103f06aeae6fa59e21c769f5e61097c565b600160e01b6001600160e01b0319831601610526576040516372c683bb60e01b815260040160405180910390fd5b6001600160e01b03199190911660009081526020929092526040909120805460ff1916911515919091179055565b634e487b7160e01b600052604160045260246000fd5b604051601f8201601f191681016001600160401b038111828210171561059257610592610554565b604052919050565b600082601f8301126105ab57600080fd5b81516001600160401b038111156105c4576105c4610554565b6105d7601f8201601f191660200161056a565b8181528460208386010111156105ec57600080fd5b60005b8281101561060b576020818601810151838301820152016105ef565b506000918101602001919091529392505050565b805160ff8116811461063057600080fd5b919050565b60006001600160401b0382111561064e5761064e610554565b5060051b60200190565b6001600160a01b038116811461024c57600080fd5b805161063081610658565b600082601f83011261068957600080fd5b815161069c61069782610635565b61056a565b8082825260208201915060208360051b8601019250858311156106be57600080fd5b602085015b838110156106e45780516106d681610658565b8352602092830192016106c3565b5095945050505050565b600082601f8301126106ff57600080fd5b815161070d61069782610635565b8082825260208201915060208360051b86010192508583111561072f57600080fd5b602085015b838110156106e4578051835260209283019201610734565b600080600080600080600080610100898b03121561076957600080fd5b88516001600160401b0381111561077f57600080fd5b61078b8b828c0161059a565b60208b015190995090506001600160401b038111156107a957600080fd5b6107b58b828c0161059a565b9750506107c460408a0161061f565b60608a01519096506001600160401b038111156107e057600080fd5b6107ec8b828c01610678565b60808b015190965090506001600160401b0381111561080a57600080fd5b6108168b828c016106ee565b94505061082560a08a0161066d565b925061083360c08a0161066d565b915061084160e08a0161066d565b90509295985092959890939650565b634e487b7160e01b600052601160045260246000fd5b60ff828116828216039081111561027d5761027d610850565b6001815b60018411156108ba5780850481111561089e5761089e610850565b60018416156108ac57908102905b60019390931c928002610883565b935093915050565b6000826108d15750600161027d565b816108de5750600061027d565b81600181146108f457600281146108fe5761091a565b600191505061027d565b60ff84111561090f5761090f610850565b50506001821b61027d565b5060208310610133831016604e8410600b841016171561093d575081810a61027d565b61094a600019848461087f565b806000190482111561095e5761095e610850565b029392505050565b600061097560ff8416836108c2565b9392505050565b8181038181111561027d5761027d610850565b600181811c908216806109a357607f821691505b6020821081036109c357634e487b7160e01b600052602260045260246000fd5b50919050565b601f821115610a1057806000526020600020601f840160051c810160208510156109f05750805b601f840160051c820191505b818110156104c357600081556001016109fc565b505050565b81516001600160401b03811115610a2e57610a2e610554565b610a4281610a3c845461098f565b846109c9565b6020601f821160018114610a765760008315610a5e5750848201515b600019600385901b1c1916600184901b1784556104c3565b600084815260208120601f198516915b82811015610aa65787850151825560209485019460019092019101610a86565b5084821015610ac45786840151600019600387901b60f8161c191681555b50505050600190811b01905550565b634e487b7160e01b600052603260045260246000fd5b60805160a05160c051615e01610b816000396000818161059b015281816107100152818161397401528181613a0201528181613c190152613c5701526000818161092f01528181613a8201528181613af70152613d5901526000818161079601528181610dec015281816116db01528181611d990152818161238701528181614007015281816144ec01526145e50152615e016000f3fe6080604052600436106103975760003560e01c80637d25a05e116101dc578063bc70b35411610102578063d505accf116100a0578063f2fde38b1161006f578063f2fde38b14610b86578063f7ba94bd14610ba6578063fc0c546a146106c0578063ff7bd03d14610bc657600080fd5b8063d505accf14610b06578063dd62ed3e14610b26578063e0df5b6f14610b46578063eb79554914610b6657600080fd5b8063c7c7f5b3116100dc578063c7c7f5b314610a92578063ca5eb5e114610ab3578063d045a0dc14610ad3578063d424388514610ae657600080fd5b8063bc70b35414610a3f578063bd815db014610a5f578063c3666c3614610a7257600080fd5b8063963efcaa1161017a578063b731ea0a11610149578063b731ea0a146109a5578063b88d4fde146109d2578063b98bd070146109f2578063bb0b6a5314610a1257600080fd5b8063963efcaa1461091d5780639f68b96414610951578063a457c2d714610965578063a9059cbb1461098557600080fd5b8063857749b0116101b6578063857749b0146108a957806388d695b2146108bd5780638da5cb5b146108dd57806395d89b411461090857600080fd5b80637d25a05e1461082d5780637ecebe001461086957806382413eac1461088957600080fd5b80633400288b116102c15780635535d4611161025f5780636fc1b31e1161022e5780636fc1b31e146107b857806370a08231146107d8578063715018a6146107f857806373c8a9581461080d57600080fd5b80635535d461146106d3578063572b6c05146106f35780635a0dfe4d1461074d5780635e280f111461078457600080fd5b80633b6f743b1161029b5780633b6f743b1461065e5780633c130d901461068b5780634885b254146106a057806352ae2879146106c057600080fd5b80633400288b146106095780633644e51514610629578063395093511461063e57600080fd5b8063156a0d0f1161033957806323b872dd1161030857806323b872dd1461056c5780632b4c9f161461058c578063313ce567146105bf57806331e66e1e146105e657600080fd5b8063156a0d0f146104d157806317442b701461051257806318160ddd146105345780631f5e13341461055757600080fd5b80630d35b415116103755780630d35b41514610413578063111ecdad1461044257806313137d6514610494578063134d4f25146104a957600080fd5b806301ffc9a71461039c57806306fdde03146103d1578063095ea7b3146103f3575b600080fd5b3480156103a857600080fd5b506103bc6103b7366004614708565b610be6565b60405190151581526020015b60405180910390f35b3480156103dd57600080fd5b506103e6610c00565b6040516103c89190614793565b3480156103ff57600080fd5b506103bc61040e3660046147c8565b610c17565b34801561041f57600080fd5b5061043361042e36600461480c565b610c3f565b6040516103c893929190614841565b34801561044e57600080fd5b5060045461046f9073ffffffffffffffffffffffffffffffffffffffff1681565b60405173ffffffffffffffffffffffffffffffffffffffff90911681526020016103c8565b6104a76104a2366004614957565b610dea565b005b3480156104b557600080fd5b506104be600281565b60405161ffff90911681526020016103c8565b3480156104dd57600080fd5b50604080517f02e49c2c00000000000000000000000000000000000000000000000000000000815260016020820152016103c8565b34801561051e57600080fd5b50604080516001815260026020820152016103c8565b34801561054057600080fd5b50610549610ee9565b6040519081526020016103c8565b34801561056357600080fd5b506104be600181565b34801561057857600080fd5b506103bc6105873660046149fa565b610efd565b34801561059857600080fd5b507f000000000000000000000000000000000000000000000000000000000000000061046f565b3480156105cb57600080fd5b506105d4610f29565b60405160ff90911681526020016103c8565b3480156105f257600080fd5b506105fb610f40565b6040516103c8929190614a84565b34801561061557600080fd5b506104a7610624366004614ab1565b610f53565b34801561063557600080fd5b50610549610f69565b34801561064a57600080fd5b506103bc6106593660046147c8565b610f73565b34801561066a57600080fd5b5061067e610679366004614adb565b610f92565b6040516103c89190614b2d565b34801561069757600080fd5b506103e6610ff9565b3480156106ac57600080fd5b506103bc6106bb366004614b89565b611006565b3480156106cc57600080fd5b503061046f565b3480156106df57600080fd5b506103e66106ee366004614c23565b611037565b3480156106ff57600080fd5b506103bc61070e366004614c56565b7f000000000000000000000000000000000000000000000000000000000000000073ffffffffffffffffffffffffffffffffffffffff90811691161490565b34801561075957600080fd5b506103bc610768366004614ab1565b63ffffffff919091166000908152600160205260409020541490565b34801561079057600080fd5b5061046f7f000000000000000000000000000000000000000000000000000000000000000081565b3480156107c457600080fd5b506104a76107d3366004614c56565b6110dc565b3480156107e457600080fd5b506105496107f3366004614c56565b61115e565b34801561080457600080fd5b506104a7611196565b34801561081957600080fd5b506104a7610828366004614c73565b6111aa565b34801561083957600080fd5b50610850610848366004614ab1565b600092915050565b60405167ffffffffffffffff90911681526020016103c8565b34801561087557600080fd5b50610549610884366004614c56565b6111c8565b34801561089557600080fd5b506103bc6108a4366004614d19565b6111d6565b3480156108b557600080fd5b5060066105d4565b3480156108c957600080fd5b506103bc6108d8366004614d80565b6111f8565b3480156108e957600080fd5b5060005473ffffffffffffffffffffffffffffffffffffffff1661046f565b34801561091457600080fd5b506103e6611226565b34801561092957600080fd5b506105497f000000000000000000000000000000000000000000000000000000000000000081565b34801561095d57600080fd5b5060006103bc565b34801561097157600080fd5b506103bc6109803660046147c8565b611238565b34801561099157600080fd5b506103bc6109a03660046147c8565b611257565b3480156109b157600080fd5b5060025461046f9073ffffffffffffffffffffffffffffffffffffffff1681565b3480156109de57600080fd5b506103bc6109ed366004614df1565b611276565b3480156109fe57600080fd5b506104a7610a0d366004614e53565b61129b565b348015610a1e57600080fd5b50610549610a2d366004614e95565b60016020526000908152604090205481565b348015610a4b57600080fd5b506103e6610a5a366004614eb0565b6112b5565b6104a7610a6d366004614e53565b611476565b348015610a7e57600080fd5b506104a7610a8d366004614c73565b611644565b610aa5610aa0366004614f05565b61165a565b6040516103c8929190614f91565b348015610abf57600080fd5b506104a7610ace366004614c56565b61168e565b6104a7610ae1366004614957565b61173a565b348015610af257600080fd5b506104a7610b01366004614c56565b611782565b348015610b1257600080fd5b506104a7610b21366004614fe4565b6117fd565b348015610b3257600080fd5b50610549610b4136600461505b565b61181b565b348015610b5257600080fd5b506104a7610b61366004615089565b611866565b348015610b7257600080fd5b506103bc610b813660046150bf565b611882565b348015610b9257600080fd5b506104a7610ba1366004614c56565b6118a5565b348015610bb257600080fd5b506104a7610bc1366004614d80565b611909565b348015610bd257600080fd5b506103bc610be1366004615103565b611923565b6000610bfa82610bf4611959565b90611987565b92915050565b6060610c12610c0d611a61565b611a8f565b905090565b6000610c36610c24611b25565b8484610c2e611b2f565b929190611b5d565b50600192915050565b60408051808201909152600080825260208201526060610c72604051806040016040528060008152602001600081525090565b6000803073ffffffffffffffffffffffffffffffffffffffff1663fc0c546a6040518163ffffffff1660e01b8152600401602060405180830381865afa158015610cc0573d6000803e3d6000fd5b505050506040513d601f19601f82011682018060405250810190610ce4919061511f565b73ffffffffffffffffffffffffffffffffffffffff166318160ddd6040518163ffffffff1660e01b8152600401602060405180830381865afa158015610d2e573d6000803e3d6000fd5b505050506040513d601f19601f82011682018060405250810190610d52919061513c565b60408051808201825284815260208082018490528251600080825291810190935290975091925090610da7565b604080518082019091526000815260606020820152815260200190600190039081610d7f5790505b509350600080610dcc604089013560608a0135610dc760208c018c614e95565b611c34565b60408051808201909152918252602082015296989597505050505050565b7f000000000000000000000000000000000000000000000000000000000000000073ffffffffffffffffffffffffffffffffffffffff163314610e60576040517f91ac5e4f0000000000000000000000000000000000000000000000000000000081523360048201526024015b60405180910390fd5b60208701803590610e7a90610e75908a614e95565b611c89565b14610ed157610e8c6020880188614e95565b6040517fc26bebcc00000000000000000000000000000000000000000000000000000000815263ffffffff909116600482015260208801356024820152604401610e57565b610ee087878787878787611cde565b50505050505050565b6000610c12610ef6611b2f565b6002015490565b6000610f1e610f0a611b25565b858585610f15611b2f565b93929190611e78565b5060015b9392505050565b6000610c12610f36611a61565b6002015460ff1690565b366000610f4b611ec3565b915091509091565b610f5b611ece565b610f658282611f79565b5050565b6000610c12611fce565b6000610c36610f80611b25565b8484610f8a611b2f565b929190612069565b60408051808201909152600080825260208201526000610fc260408501356060860135610dc76020880188614e95565b915050600080610fd2868461221b565b9092509050610fef610fe76020880188614e95565b838388612371565b9695505050505050565b6060610c12610c0d61245f565b600061102b611013611b25565b8787878787611020611b2f565b95949392919061248d565b50600195945050505050565b60036020908152600092835260408084209091529082529020805461105b90615184565b80601f016020809104026020016040519081016040528092919081815260200182805461108790615184565b80156110d45780601f106110a9576101008083540402835291602001916110d4565b820191906000526020600020905b8154815290600101906020018083116110b757829003601f168201915b505050505081565b6110e4611ece565b600480547fffffffffffffffffffffffff00000000000000000000000000000000000000001673ffffffffffffffffffffffffffffffffffffffff83169081179091556040519081527ff0be4f1e87349231d80c36b33f9e8639658eeaf474014dee15a3e6a4d4414197906020015b60405180910390a150565b6000610bfa8261116c611b2f565b9073ffffffffffffffffffffffffffffffffffffffff166000908152602091909152604090205490565b61119e611ece565b6111a86000612867565b565b6111b2611ece565b6111c08686868686866128dc565b505050505050565b6000610bfa8261116c6129c7565b73ffffffffffffffffffffffffffffffffffffffff811630145b949350505050565b600061121b611205611b25565b86868686611211611b2f565b94939291906129f5565b506001949350505050565b6060610c12611233611a61565b612d4c565b6000610c36611245611b25565b848461124f611b2f565b929190612d5d565b6000610c36611264611b25565b848461126e611b2f565b929190612e95565b600061102b611283611b25565b8787878787611290611b2f565b959493929190613054565b6112a3611ece565b610f656112b082846152b2565b6130c1565b63ffffffff8416600090815260036020908152604080832061ffff871684529091528120805460609291906112e990615184565b80601f016020809104026020016040519081016040528092919081815260200182805461131590615184565b80156113625780601f1061133757610100808354040283529160200191611362565b820191906000526020600020905b81548152906001019060200180831161134557829003601f168201915b5050505050905080516000036113b25783838080601f0160208091040260200160405190810160405280939291908181526020018383808284376000920191909152509294506111f09350505050565b60008390036113c25790506111f0565b600283106114405761140984848080601f0160208091040260200160405190810160405280939291908181526020018383808284376000920191909152506131c892505050565b8061141784600281886153de565b60405160200161142993929190615408565b6040516020818303038152906040529150506111f0565b83836040517f9a6d49cd000000000000000000000000000000000000000000000000000000008152600401610e57929190614a84565b60005b8181101561157f573683838381811061149457611494615430565b90506020028101906114a6919061545f565b90506114d96114b86020830183614e95565b602083013563ffffffff919091166000908152600160205260409020541490565b6114e35750611577565b3063d045a0dc60c08301358360a081013561150261010083018361549d565b611513610100890160e08a01614c56565b6115216101208a018a61549d565b6040518963ffffffff1660e01b81526004016115439796959493929190615518565b6000604051808303818588803b15801561155c57600080fd5b505af1158015611570573d6000803e3d6000fd5b5050505050505b600101611479565b503373ffffffffffffffffffffffffffffffffffffffff16638e9e70996040518163ffffffff1660e01b8152600401600060405180830381865afa1580156115cb573d6000803e3d6000fd5b505050506040513d6000823e601f3d9081017fffffffffffffffffffffffffffffffffffffffffffffffffffffffffffffffe016820160405261161191908101906155ac565b6040517f8351eea7000000000000000000000000000000000000000000000000000000008152600401610e579190614793565b61164c611ece565b6111c086868686868661320d565b611662614692565b60408051808201909152600080825260208201526116818585856134a3565b915091505b935093915050565b611696611ece565b6040517fca5eb5e100000000000000000000000000000000000000000000000000000000815273ffffffffffffffffffffffffffffffffffffffff82811660048301527f0000000000000000000000000000000000000000000000000000000000000000169063ca5eb5e190602401600060405180830381600087803b15801561171f57600080fd5b505af1158015611733573d6000803e3d6000fd5b5050505050565b333014611773576040517f14d4a4e800000000000000000000000000000000000000000000000000000000815260040160405180910390fd5b610ee087878787878787610ed1565b61178a611ece565b600280547fffffffffffffffffffffffff00000000000000000000000000000000000000001673ffffffffffffffffffffffffffffffffffffffff83169081179091556040519081527fd48d879cef83a1c0bdda516f27b13ddb1b3f8bbac1c9e1511bb2a659c242776090602001611153565b610ee08787878787878761180f6129c7565b9695949392919061359e565b6000610f22838361182a611b2f565b919073ffffffffffffffffffffffffffffffffffffffff9182166000908152600193909301602090815260408085209290931684525290205490565b61186e611ece565b610f65828261187b61245f565b919061380d565b600061121b61188f611b25565b8686868661189b611b2f565b9493929190613819565b6118ad611ece565b73ffffffffffffffffffffffffffffffffffffffff81166118fd576040517f1e4fbdf700000000000000000000000000000000000000000000000000000000815260006004820152602401610e57565b61190681612867565b50565b611911611ece565b61191d84848484613885565b50505050565b600060208201803590600190839061193b9086614e95565b63ffffffff1681526020810191909152604001600020541492915050565b600080610bfa60017fca9d3e17f264b0f3984e2634e94adb37fa3e6a8103f06aeae6fa59e21c769f5e615649565b60007c01000000000000000000000000000000000000000000000000000000007fffffffff000000000000000000000000000000000000000000000000000000008316016119d757506000610bfa565b7ffe003659000000000000000000000000000000000000000000000000000000007fffffffff00000000000000000000000000000000000000000000000000000000831601611a2857506001610bfa565b507fffffffff00000000000000000000000000000000000000000000000000000000166000908152602091909152604090205460ff1690565b600080610bfa60017f335df4119bbb04f056b33eba33b826d3529129e458faf6daa9924b5a8f3b6a82615649565b6060816000018054611aa090615184565b80601f0160208091040260200160405190810160405280929190818152602001828054611acc90615184565b8015611b195780601f10611aee57610100808354040283529160200191611b19565b820191906000526020600020905b815481529060010190602001808311611afc57829003601f168201915b50505050509050919050565b6000610c12613931565b600080610bfa60017f1da92899d3da68bf9787824388a37ea2bfa79780bcef91b9716c390eec8ecbef615649565b73ffffffffffffffffffffffffffffffffffffffff8216611bc2576040517ff7e1ac0f00000000000000000000000000000000000000000000000000000000815273ffffffffffffffffffffffffffffffffffffffff84166004820152602401610e57565b73ffffffffffffffffffffffffffffffffffffffff838116600081815260018701602090815260408083209487168084529482529182902085905590518481527f8c5be1e5ebec7d5bd14f71427d1e84f3dd0314c0f7b2291e5b200ac8c7c3b92591015b60405180910390a350505050565b600080611c4085613a7e565b915081905083811015611686576040517f71c4efed0000000000000000000000000000000000000000000000000000000081526004810182905260248101859052604401610e57565b63ffffffff811660009081526001602052604081205480610bfa576040517ff6ff4fb700000000000000000000000000000000000000000000000000000000815263ffffffff84166004820152602401610e57565b6000611cf0611ced8787613ab5565b90565b90506000611d1c82611d0a611d058a8a613acd565b613af0565b611d1760208d018d614e95565b613b26565b90506028861115611e09576000611d59611d3c60608c0160408d0161565c565b611d4960208d018d614e95565b84611d548c8c613b65565b613bb0565b6040517f7cb5901200000000000000000000000000000000000000000000000000000000815290915073ffffffffffffffffffffffffffffffffffffffff7f00000000000000000000000000000000000000000000000000000000000000001690637cb5901290611dd59086908d906000908790600401615679565b600060405180830381600087803b158015611def57600080fd5b505af1158015611e03573d6000803e3d6000fd5b50505050505b73ffffffffffffffffffffffffffffffffffffffff8216887fefed6d3500546b29533b128a29e3a94d70788727f0507505ac12eaf2e578fd9c611e4f60208d018d614e95565b6040805163ffffffff9092168252602082018690520160405180910390a3505050505050505050565b8373ffffffffffffffffffffffffffffffffffffffff168373ffffffffffffffffffffffffffffffffffffffff1614611eb757611eb785848684612d5d565b61173385848484612e95565b366000610f4b613be2565b611ed6611b25565b73ffffffffffffffffffffffffffffffffffffffff16611f0b60005473ffffffffffffffffffffffffffffffffffffffff1690565b73ffffffffffffffffffffffffffffffffffffffff16146111a857611f2e611b25565b6040517f118cdaa700000000000000000000000000000000000000000000000000000000815273ffffffffffffffffffffffffffffffffffffffff9091166004820152602401610e57565b63ffffffff8216600081815260016020908152604091829020849055815192835282018390527f238399d427b947898edb290f5ff0f9109849b1c3ba196a42e35f00c50a54b98b910160405180910390a15050565b6000467f8b73c3c69bb8fe3d512ecc4cf759cc79239f7b179b0ffacaa9a75d522b39400f611ffd610c0d611a61565b80516020918201206040805192830193909352918101919091527fc89efdaa54c0f20c7adf612882df0950f5a951637e0307cdcb4c672f298b8bc66060820152608081018290523060a082015260c0016040516020818303038152906040528051906020012091505090565b73ffffffffffffffffffffffffffffffffffffffff82166120ce576040517ff7e1ac0f00000000000000000000000000000000000000000000000000000000815273ffffffffffffffffffffffffffffffffffffffff84166004820152602401610e57565b73ffffffffffffffffffffffffffffffffffffffff808416600090815260018601602090815260408083209386168352929052205481156121ad57808201818111612173576040517f93bc2ff100000000000000000000000000000000000000000000000000000000815273ffffffffffffffffffffffffffffffffffffffff8087166004830152851660248201526044810183905260648101849052608401610e57565b73ffffffffffffffffffffffffffffffffffffffff8086166000908152600188016020908152604080832093881683529290522081905590505b8273ffffffffffffffffffffffffffffffffffffffff168473ffffffffffffffffffffffffffffffffffffffff167f8c5be1e5ebec7d5bd14f71427d1e84f3dd0314c0f7b2291e5b200ac8c7c3b9258360405161220c91815260200190565b60405180910390a35050505050565b6060806000612278856020013561223186613d52565b61223e60a089018961549d565b8080601f016020809104026020016040519081016040528093929190818152602001838380828437600092019190915250613d7e92505050565b909350905060008161228b57600161228e565b60025b90506122ae6122a06020880188614e95565b82610a5a60808a018a61549d565b60045490935073ffffffffffffffffffffffffffffffffffffffff168015612367576040517f043a78eb00000000000000000000000000000000000000000000000000000000815273ffffffffffffffffffffffffffffffffffffffff82169063043a78eb9061232490889088906004016156b8565b602060405180830381865afa158015612341573d6000803e3d6000fd5b505050506040513d601f19601f8201168201806040525081019061236591906156dd565b505b5050509250929050565b60408051808201909152600080825260208201527f000000000000000000000000000000000000000000000000000000000000000073ffffffffffffffffffffffffffffffffffffffff1663ddc28c586040518060a001604052808863ffffffff1681526020016123e189611c89565b8152602001878152602001868152602001851515815250306040518363ffffffff1660e01b81526004016124169291906156fa565b6040805180830381865afa158015612432573d6000803e3d6000fd5b505050506040513d601f19601f8201168201806040525081019061245691906157cf565b95945050505050565b600080610bfa60017ff41bf6a5db26bffdfab174dcf66b31fbba8fdb7e3db040721ce1e62d61839ceb615649565b828181146124c7576040517f6582533600000000000000000000000000000000000000000000000000000000815260040160405180910390fd5b806000036124d55750610ee0565b73ffffffffffffffffffffffffffffffffffffffff86166000908152602089905260408120549080805b8481101561281a57600089898381811061251b5761251b615430565b90506020020160208101906125309190614c56565b905073ffffffffffffffffffffffffffffffffffffffff8116612597576040517f754f425b00000000000000000000000000000000000000000000000000000000815273ffffffffffffffffffffffffffffffffffffffff8c166004820152602401610e57565b60008888848181106125ab576125ab615430565b905060200201359050806000146126e9578481018581116125f8576040517fdedd834100000000000000000000000000000000000000000000000000000000815260040160405180910390fd5b8095508273ffffffffffffffffffffffffffffffffffffffff168d73ffffffffffffffffffffffffffffffffffffffff161461268257818f60000160008573ffffffffffffffffffffffffffffffffffffffff1673ffffffffffffffffffffffffffffffffffffffff168152602001908152602001600020600082825401925050819055506126e7565b868211156126e2576040517fe450d38c00000000000000000000000000000000000000000000000000000000815273ffffffffffffffffffffffffffffffffffffffff8e1660048201526024810188905260448101839052606401610e57565b938101935b505b8173ffffffffffffffffffffffffffffffffffffffff168c73ffffffffffffffffffffffffffffffffffffffff167fddf252ad1be2c89b69c2b068fc378daa952ba7f163c4a11628f55a4df523b3ef8360405161274891815260200190565b60405180910390a3841580159061275f5750838514155b15612810578486038681106127c6576040517fe450d38c00000000000000000000000000000000000000000000000000000000815273ffffffffffffffffffffffffffffffffffffffff8e1660048201526024810188905260448101879052606401610e57565b8481018f60000160008f73ffffffffffffffffffffffffffffffffffffffff1673ffffffffffffffffffffffffffffffffffffffff16815260200190815260200160002081905550505b50506001016124ff565b508973ffffffffffffffffffffffffffffffffffffffff168973ffffffffffffffffffffffffffffffffffffffff161461285a5761285a8b8a8c85612d5d565b5050505050505050505050565b6000805473ffffffffffffffffffffffffffffffffffffffff8381167fffffffffffffffffffffffff0000000000000000000000000000000000000000831681178455604051919092169283917f8be0079c531659141344cd1fd0a4f28419497f9722a3daafe3b4186f6b6457e09190a35050565b8483811415806128ec5750808214155b15612923576040517f6582533600000000000000000000000000000000000000000000000000000000815260040160405180910390fd5b60005b818110156129bd576129b588888381811061294357612943615430565b90506020020160208101906129589190614c56565b85858481811061296a5761296a615430565b9050602002013588888581811061298357612983615430565b90506020020160208101906129989190614c56565b73ffffffffffffffffffffffffffffffffffffffff169190613e10565b600101612926565b5050505050505050565b600080610bfa60017f93fe0ff7226b064a4a8f0b09910762afb4bc2441835792c021ffd78cd513011e615649565b82818114612a2f576040517f6582533600000000000000000000000000000000000000000000000000000000815260040160405180910390fd5b80600003612a3d57506111c0565b73ffffffffffffffffffffffffffffffffffffffff86166000908152602088905260408120549080805b84811015612c9e576000898983818110612a8357612a83615430565b9050602002016020810190612a989190614c56565b905073ffffffffffffffffffffffffffffffffffffffff8116612aff576040517f754f425b00000000000000000000000000000000000000000000000000000000815273ffffffffffffffffffffffffffffffffffffffff8c166004820152602401610e57565b6000888884818110612b1357612b13615430565b90506020020135905080600014612c2d57848101858111612b60576040517fdedd834100000000000000000000000000000000000000000000000000000000815260040160405180910390fd5b8095508273ffffffffffffffffffffffffffffffffffffffff168d73ffffffffffffffffffffffffffffffffffffffff1614612bc65773ffffffffffffffffffffffffffffffffffffffff8316600090815260208f905260409020805483019055612c2b565b86821115612c26576040517fe450d38c00000000000000000000000000000000000000000000000000000000815273ffffffffffffffffffffffffffffffffffffffff8e1660048201526024810188905260448101839052606401610e57565b938101935b505b8173ffffffffffffffffffffffffffffffffffffffff168c73ffffffffffffffffffffffffffffffffffffffff167fddf252ad1be2c89b69c2b068fc378daa952ba7f163c4a11628f55a4df523b3ef83604051612c8c91815260200190565b60405180910390a35050600101612a67565b508115801590612cae5750808214155b15612d4057818303838110612d15576040517fe450d38c00000000000000000000000000000000000000000000000000000000815273ffffffffffffffffffffffffffffffffffffffff8b1660048201526024810185905260448101849052606401610e57565b73ffffffffffffffffffffffffffffffffffffffff8a16600090815260208c90526040902090820190555b50505050505050505050565b6060816001018054611aa090615184565b73ffffffffffffffffffffffffffffffffffffffff8216612dc2576040517ff7e1ac0f00000000000000000000000000000000000000000000000000000000815273ffffffffffffffffffffffffffffffffffffffff84166004820152602401610e57565b73ffffffffffffffffffffffffffffffffffffffff80841660009081526001860160209081526040808320938616835292905220547fffffffffffffffffffffffffffffffffffffffffffffffffffffffffffffffff8114801590612e2657508115155b156121ad57818103818110612173576040517f137ad6ab00000000000000000000000000000000000000000000000000000000815273ffffffffffffffffffffffffffffffffffffffff8087166004830152851660248201526044810183905260648101849052608401610e57565b73ffffffffffffffffffffffffffffffffffffffff8216612efa576040517f754f425b00000000000000000000000000000000000000000000000000000000815273ffffffffffffffffffffffffffffffffffffffff84166004820152602401610e57565b8015612ff55773ffffffffffffffffffffffffffffffffffffffff8316600090815260208590526040902054818103818110612f88576040517fe450d38c00000000000000000000000000000000000000000000000000000000815273ffffffffffffffffffffffffffffffffffffffff861660048201526024810183905260448101849052606401610e57565b8373ffffffffffffffffffffffffffffffffffffffff168573ffffffffffffffffffffffffffffffffffffffff1614612ff25773ffffffffffffffffffffffffffffffffffffffff8086166000908152602088905260408082208490559186168152208054840190555b50505b8173ffffffffffffffffffffffffffffffffffffffff168373ffffffffffffffffffffffffffffffffffffffff167fddf252ad1be2c89b69c2b068fc378daa952ba7f163c4a11628f55a4df523b3ef83604051611c2691815260200190565b6130618787878787611e78565b73ffffffffffffffffffffffffffffffffffffffff84163b15610ee057610ee08686868686868080601f016020809104026020016040519081016040528093929190818152602001838380828437600092019190915250613e9692505050565b60005b8151811015613198576130f38282815181106130e2576130e2615430565b6020026020010151604001516131c8565b81818151811061310557613105615430565b6020026020010151604001516003600084848151811061312757613127615430565b60200260200101516000015163ffffffff1663ffffffff168152602001908152602001600020600084848151811061316157613161615430565b60200260200101516020015161ffff1661ffff168152602001908152602001600020908161318f9190615832565b506001016130c4565b507fbe4864a8e820971c0247f5992e2da559595f7bf076a21cb5928d443d2a13b67481604051611153919061594b565b600281015161ffff8116600314610f6557816040517f9a6d49cd000000000000000000000000000000000000000000000000000000008152600401610e579190614793565b84838114158061321d5750808214155b15613254576040517f6582533600000000000000000000000000000000000000000000000000000000815260040160405180910390fd5b60005b818110156129bd57600086868381811061327357613273615430565b90506020020160208101906132889190614c56565b6040517f01ffc9a70000000000000000000000000000000000000000000000000000000081527f80ac58cd00000000000000000000000000000000000000000000000000000000600482015290915073ffffffffffffffffffffffffffffffffffffffff8216906301ffc9a790602401602060405180830381865afa158015613315573d6000803e3d6000fd5b505050506040513d601f19601f8201168201806040525081019061333991906156dd565b613387576040517f986b9f1f00000000000000000000000000000000000000000000000000000000815273ffffffffffffffffffffffffffffffffffffffff82166004820152602401610e57565b86868381811061339957613399615430565b90506020020160208101906133ae9190614c56565b73ffffffffffffffffffffffffffffffffffffffff166342842e0e308b8b868181106133dc576133dc615430565b90506020020160208101906133f19190614c56565b88888781811061340357613403615430565b6040517fffffffff0000000000000000000000000000000000000000000000000000000060e088901b16815273ffffffffffffffffffffffffffffffffffffffff958616600482015294909316602485015250602090910201356044820152606401600060405180830381600087803b15801561347f57600080fd5b505af1158015613493573d6000803e3d6000fd5b5050505050806001019050613257565b6134ab614692565b60408051808201909152600080825260208201526000806134e233604089013560608a01356134dd60208c018c614e95565b613fa4565b915091506000806134f3898461221b565b909250905061351f61350860208b018b614e95565b8383613519368d90038d018d6159f9565b8b613fd4565b60408051808201909152858152602080820186905282519298509096503391907f85496b760a4b7f8d66384b9df21b381f5d1b1e79f229a47aaf4c232edc2fe59a9061356d908d018d614e95565b6040805163ffffffff909216825260208201899052810187905260600160405180910390a350505050935093915050565b73ffffffffffffffffffffffffffffffffffffffff87166135eb576040517fa974697600000000000000000000000000000000000000000000000000000000815260040160405180910390fd5b83421115613628576040517fea2b6f5800000000000000000000000000000000000000000000000000000000815260048101859052602401610e57565b73ffffffffffffffffffffffffffffffffffffffff878116600081815260208b8152604080832080546001810190915581517f6e71edae12b1b97f4d1f60370fef10105fa2faae0126114a169c64845d6126c98185015280830195909552948b166060850152608084018a905260a084019490945260c08084018990528451808503909101815260e090930190935281519190920120906136c7611fce565b6040517f19010000000000000000000000000000000000000000000000000000000000006020820152602281019190915260428101839052606201604080517fffffffffffffffffffffffffffffffffffffffffffffffffffffffffffffffe08184030181528282528051602091820120600080855291840180845281905260ff89169284019290925260608301879052608083018690529092509060019060a0016020604051602081039080840390855afa15801561378b573d6000803e3d6000fd5b5050506020604051035190508973ffffffffffffffffffffffffffffffffffffffff168173ffffffffffffffffffffffffffffffffffffffff16146137fc576040517f822a64c800000000000000000000000000000000000000000000000000000000815260040160405180910390fd5b5050506129bd878787610c2e611b2f565b8261191d828483615a2c565b61382586868686612e95565b73ffffffffffffffffffffffffffffffffffffffff84163b156111c0576111c08586868686868080601f016020809104026020016040519081016040528093929190818152602001838380828437600092019190915250613e9692505050565b828181146138bf576040517f6582533600000000000000000000000000000000000000000000000000000000815260040160405180910390fd5b60005b818110156111c0576139298484838181106138df576138df615430565b905060200201358787848181106138f8576138f8615430565b905060200201602081019061390d9190614c56565b73ffffffffffffffffffffffffffffffffffffffff16906140ec565b6001016138c2565b6000333214806139415750601836105b1561394b57503390565b7fffffffffffffffffffffffffffffffffffffffffffffffffffffffffffffffec36013560601c7f000000000000000000000000000000000000000000000000000000000000000073ffffffffffffffffffffffffffffffffffffffff16331480613a6d57506040517f019a202800000000000000000000000000000000000000000000000000000000815273ffffffffffffffffffffffffffffffffffffffff82811660048301523360248301523060448301527f0000000000000000000000000000000000000000000000000000000000000000169063019a202890606401602060405180830381865afa158015613a49573d6000803e3d6000fd5b505050506040513d601f19601f82011682018060405250810190613a6d91906156dd565b15613a7757919050565b3391505090565b60007f0000000000000000000000000000000000000000000000000000000000000000613aab8184615b46565b610bfa9190615b81565b6000613ac460208284866153de565b610f2291615b98565b6000613add6028602084866153de565b613ae691615bd4565b60c01c9392505050565b6000610bfa7f000000000000000000000000000000000000000000000000000000000000000067ffffffffffffffff8416615b81565b600073ffffffffffffffffffffffffffffffffffffffff8416613b495761dead93505b613b5d8484613b56611b2f565b91906141a2565b509092915050565b6060613b7482602881866153de565b8080601f016020809104026020016040519081016040528093929190818152602001838380828437600092019190915250929695505050505050565b606084848484604051602001613bc99493929190615c3a565b6040516020818303038152906040529050949350505050565b36600033321480613bf35750601836105b15613c015750600091369150565b3373ffffffffffffffffffffffffffffffffffffffff7f0000000000000000000000000000000000000000000000000000000000000000161480613d3c575073ffffffffffffffffffffffffffffffffffffffff7f00000000000000000000000000000000000000000000000000000000000000001663019a2028367fffffffffffffffffffffffffffffffffffffffffffffffffffffffffffffffec013560601c6040517fffffffff0000000000000000000000000000000000000000000000000000000060e084901b16815273ffffffffffffffffffffffffffffffffffffffff9091166004820152336024820152306044820152606401602060405180830381865afa158015613d18573d6000803e3d6000fd5b505050506040513d601f19601f82011682018060405250810190613d3c91906156dd565b15613d4957610f4b6142c6565b50600091369150565b6000610bfa7f000000000000000000000000000000000000000000000000000000000000000083615b46565b8051606090151580613ddf578484604051602001613dcb92919091825260c01b7fffffffffffffffff00000000000000000000000000000000000000000000000016602082015260280190565b604051602081830303815290604052613e06565b84843385604051602001613df69493929190615cb8565b6040516020818303038152906040525b9150935093915050565b60405173ffffffffffffffffffffffffffffffffffffffff838116602483015260448201839052613e9191859182169063a9059cbb906064015b604051602081830303815290604052915060e01b6020820180517bffffffffffffffffffffffffffffffffffffffffffffffffffffffff83818316178352505050506142f7565b505050565b6040517f4fc35859000000000000000000000000000000000000000000000000000000008082529073ffffffffffffffffffffffffffffffffffffffff851690634fc3585990613ef0908990899088908890600401615d11565b6020604051808303816000875af1158015613f0f573d6000803e3d6000fd5b505050506040513d601f19601f82011682018060405250810190613f339190615d62565b7fffffffff000000000000000000000000000000000000000000000000000000001614611733576040517f6d44973600000000000000000000000000000000000000000000000000000000815273ffffffffffffffffffffffffffffffffffffffff84166004820152602401610e57565b600080613fb2858585611c34565b9092509050613fcb8683613fc4611b2f565b919061439b565b94509492505050565b613fdc614692565b6000613feb84600001516144a7565b6020850151909150156140055761400584602001516144e8565b7f000000000000000000000000000000000000000000000000000000000000000073ffffffffffffffffffffffffffffffffffffffff16632637a450826040518060a001604052808b63ffffffff1681526020016140628c611c89565b81526020018a815260200189815260200160008960200151111515815250866040518463ffffffff1660e01b815260040161409e9291906156fa565b60806040518083038185885af11580156140bc573d6000803e3d6000fd5b50505050506040513d601f19601f820116820180604052508101906140e19190615d7f565b979650505050505050565b8047101561412f576040517fcf47918100000000000000000000000000000000000000000000000000000000815247600482015260248101829052604401610e57565b6000808373ffffffffffffffffffffffffffffffffffffffff168360405160006040518083038185875af1925050503d806000811461418a576040519150601f19603f3d011682016040523d82523d6000602084013e61418f565b606091505b50915091508161191d5761191d8161460a565b73ffffffffffffffffffffffffffffffffffffffff82166141ef576040517f92fd9c8f00000000000000000000000000000000000000000000000000000000815260040160405180910390fd5b8015614272576002830154818101818111614240576040517f0366a5f60000000000000000000000000000000000000000000000000000000081526004810183905260248101849052604401610e57565b60028501555073ffffffffffffffffffffffffffffffffffffffff821660009081526020849052604090208054820190555b60405181815273ffffffffffffffffffffffffffffffffffffffff8316906000907fddf252ad1be2c89b69c2b068fc378daa952ba7f163c4a11628f55a4df523b3ef906020015b60405180910390a3505050565b366000610f4b7fffffffffffffffffffffffffffffffffffffffffffffffffffffffffffffffec83018284816153de565b600080602060008451602086016000885af18061431a576040513d6000823e3d81fd5b50506000513d9150811561433257806001141561434c565b73ffffffffffffffffffffffffffffffffffffffff84163b155b1561191d576040517f5274afe700000000000000000000000000000000000000000000000000000000815273ffffffffffffffffffffffffffffffffffffffff85166004820152602401610e57565b801561445c5773ffffffffffffffffffffffffffffffffffffffff8216600090815260208490526040902054818103818110614429576040517fe450d38c00000000000000000000000000000000000000000000000000000000815273ffffffffffffffffffffffffffffffffffffffff851660048201526024810183905260448101849052606401610e57565b73ffffffffffffffffffffffffffffffffffffffff84166000908152602086905260409020555060028301805482900390555b60405181815260009073ffffffffffffffffffffffffffffffffffffffff8416907fddf252ad1be2c89b69c2b068fc378daa952ba7f163c4a11628f55a4df523b3ef906020016142b9565b60008134146144e4576040517f9f704120000000000000000000000000000000000000000000000000000000008152346004820152602401610e57565b5090565b60007f000000000000000000000000000000000000000000000000000000000000000073ffffffffffffffffffffffffffffffffffffffff1663e4fe1d946040518163ffffffff1660e01b8152600401602060405180830381865afa158015614555573d6000803e3d6000fd5b505050506040513d601f19601f82011682018060405250810190614579919061511f565b905073ffffffffffffffffffffffffffffffffffffffff81166145c8576040517f5373352a00000000000000000000000000000000000000000000000000000000815260040160405180910390fd5b610f6573ffffffffffffffffffffffffffffffffffffffff8216337f00000000000000000000000000000000000000000000000000000000000000008561464c565b80511561461a5780518082602001fd5b6040517fd6bda27500000000000000000000000000000000000000000000000000000000815260040160405180910390fd5b60405173ffffffffffffffffffffffffffffffffffffffff848116602483015283811660448301526064820183905261191d9186918216906323b872dd90608401613e4a565b604051806060016040528060008019168152602001600067ffffffffffffffff1681526020016146d5604051806040016040528060008152602001600081525090565b905290565b7fffffffff000000000000000000000000000000000000000000000000000000008116811461190657600080fd5b60006020828403121561471a57600080fd5b8135610f22816146da565b60005b83811015614740578181015183820152602001614728565b50506000910152565b60008151808452614761816020860160208601614725565b601f017fffffffffffffffffffffffffffffffffffffffffffffffffffffffffffffffe0169290920160200192915050565b602081526000610f226020830184614749565b73ffffffffffffffffffffffffffffffffffffffff8116811461190657600080fd5b600080604083850312156147db57600080fd5b82356147e6816147a6565b946020939093013593505050565b600060e0828403121561480657600080fd5b50919050565b60006020828403121561481e57600080fd5b813567ffffffffffffffff81111561483557600080fd5b6111f0848285016147f4565b8351815260208085015190820152600060a0820160a0604084015280855180835260c08501915060c08160051b86010192506020870160005b828110156148e0577fffffffffffffffffffffffffffffffffffffffffffffffffffffffffffffff4087860301845281518051865260208101519050604060208701526148ca6040870182614749565b955050602093840193919091019060010161487a565b50508551606086015250506020840151608084015290506111f0565b60006060828403121561480657600080fd5b60008083601f84011261492057600080fd5b50813567ffffffffffffffff81111561493857600080fd5b60208301915083602082850101111561495057600080fd5b9250929050565b600080600080600080600060e0888a03121561497257600080fd5b61497c89896148fc565b965060608801359550608088013567ffffffffffffffff81111561499f57600080fd5b6149ab8a828b0161490e565b90965094505060a08801356149bf816147a6565b925060c088013567ffffffffffffffff8111156149db57600080fd5b6149e78a828b0161490e565b989b979a50959850939692959293505050565b600080600060608486031215614a0f57600080fd5b8335614a1a816147a6565b92506020840135614a2a816147a6565b929592945050506040919091013590565b8183528181602085013750600060208284010152600060207fffffffffffffffffffffffffffffffffffffffffffffffffffffffffffffffe0601f840116840101905092915050565b6020815260006111f0602083018486614a3b565b803563ffffffff81168114614aac57600080fd5b919050565b60008060408385031215614ac457600080fd5b6147e683614a98565b801515811461190657600080fd5b60008060408385031215614aee57600080fd5b823567ffffffffffffffff811115614b0557600080fd5b614b11858286016147f4565b9250506020830135614b2281614acd565b809150509250929050565b815181526020808301519082015260408101610bfa565b60008083601f840112614b5657600080fd5b50813567ffffffffffffffff811115614b6e57600080fd5b6020830191508360208260051b850101111561495057600080fd5b600080600080600060608688031215614ba157600080fd5b8535614bac816147a6565b9450602086013567ffffffffffffffff811115614bc857600080fd5b614bd488828901614b44565b909550935050604086013567ffffffffffffffff811115614bf457600080fd5b614c0088828901614b44565b969995985093965092949392505050565b803561ffff81168114614aac57600080fd5b60008060408385031215614c3657600080fd5b614c3f83614a98565b9150614c4d60208401614c11565b90509250929050565b600060208284031215614c6857600080fd5b8135610f22816147a6565b60008060008060008060608789031215614c8c57600080fd5b863567ffffffffffffffff811115614ca357600080fd5b614caf89828a01614b44565b909750955050602087013567ffffffffffffffff811115614ccf57600080fd5b614cdb89828a01614b44565b909550935050604087013567ffffffffffffffff811115614cfb57600080fd5b614d0789828a01614b44565b979a9699509497509295939492505050565b60008060008060a08587031215614d2f57600080fd5b614d3986866148fc565b9350606085013567ffffffffffffffff811115614d5557600080fd5b614d618782880161490e565b9094509250506080850135614d75816147a6565b939692955090935050565b60008060008060408587031215614d9657600080fd5b843567ffffffffffffffff811115614dad57600080fd5b614db987828801614b44565b909550935050602085013567ffffffffffffffff811115614dd957600080fd5b614de587828801614b44565b95989497509550505050565b600080600080600060808688031215614e0957600080fd5b8535614e14816147a6565b94506020860135614e24816147a6565b935060408601359250606086013567ffffffffffffffff811115614e4757600080fd5b614c008882890161490e565b60008060208385031215614e6657600080fd5b823567ffffffffffffffff811115614e7d57600080fd5b614e8985828601614b44565b90969095509350505050565b600060208284031215614ea757600080fd5b610f2282614a98565b60008060008060608587031215614ec657600080fd5b614ecf85614a98565b9350614edd60208601614c11565b9250604085013567ffffffffffffffff811115614ef957600080fd5b614de58782880161490e565b60008060008385036080811215614f1b57600080fd5b843567ffffffffffffffff811115614f3257600080fd5b614f3e878288016147f4565b94505060407fffffffffffffffffffffffffffffffffffffffffffffffffffffffffffffffe082011215614f7157600080fd5b506020840191506060840135614f86816147a6565b809150509250925092565b600060c0820190508351825267ffffffffffffffff60208501511660208301526040840151614fcd604084018280518252602090810151910152565b5082516080830152602083015160a0830152610f22565b600080600080600080600060e0888a031215614fff57600080fd5b873561500a816147a6565b9650602088013561501a816147a6565b95506040880135945060608801359350608088013560ff8116811461503e57600080fd5b9699959850939692959460a0840135945060c09093013592915050565b6000806040838503121561506e57600080fd5b8235615079816147a6565b91506020830135614b22816147a6565b6000806020838503121561509c57600080fd5b823567ffffffffffffffff8111156150b357600080fd5b614e898582860161490e565b600080600080606085870312156150d557600080fd5b84356150e0816147a6565b935060208501359250604085013567ffffffffffffffff811115614ef957600080fd5b60006060828403121561511557600080fd5b610f2283836148fc565b60006020828403121561513157600080fd5b8151610f22816147a6565b60006020828403121561514e57600080fd5b5051919050565b7f4e487b7100000000000000000000000000000000000000000000000000000000600052604160045260246000fd5b600181811c9082168061519857607f821691505b602082108103614806577f4e487b7100000000000000000000000000000000000000000000000000000000600052602260045260246000fd5b6040516060810167ffffffffffffffff811182821017156151f4576151f4615155565b60405290565b6040805190810167ffffffffffffffff811182821017156151f4576151f4615155565b604051601f82017fffffffffffffffffffffffffffffffffffffffffffffffffffffffffffffffe016810167ffffffffffffffff8111828210171561526457615264615155565b604052919050565b600067ffffffffffffffff82111561528657615286615155565b50601f017fffffffffffffffffffffffffffffffffffffffffffffffffffffffffffffffe01660200190565b600067ffffffffffffffff8311156152cc576152cc615155565b8260051b6152dc6020820161521d565b848152908301906020810190368311156152f557600080fd5b845b838110156153d457803567ffffffffffffffff81111561531657600080fd5b8601606036829003121561532957600080fd5b6153316151d1565b61533a82614a98565b815261534860208301614c11565b6020820152604082013567ffffffffffffffff81111561536757600080fd5b919091019036601f83011261537b57600080fd5b813561538e6153898261526c565b61521d565b8181523660208386010111156153a357600080fd5b81602085016020830137600060208383010152806040840152505080855250506020830192506020810190506152f7565b5095945050505050565b600080858511156153ee57600080fd5b838611156153fb57600080fd5b5050820193919092039150565b6000845161541a818460208901614725565b8201838582376000930192835250909392505050565b7f4e487b7100000000000000000000000000000000000000000000000000000000600052603260045260246000fd5b600082357ffffffffffffffffffffffffffffffffffffffffffffffffffffffffffffffec183360301811261549357600080fd5b9190910192915050565b60008083357fffffffffffffffffffffffffffffffffffffffffffffffffffffffffffffffe18436030181126154d257600080fd5b83018035915067ffffffffffffffff8211156154ed57600080fd5b60200191503681900382131561495057600080fd5b67ffffffffffffffff8116811461190657600080fd5b63ffffffff61552689614a98565b168152602088810135908201526000604089013561554381615502565b67ffffffffffffffff811660408401525087606083015260e0608083015261556f60e083018789614a3b565b73ffffffffffffffffffffffffffffffffffffffff861660a084015282810360c084015261559e818587614a3b565b9a9950505050505050505050565b6000602082840312156155be57600080fd5b815167ffffffffffffffff8111156155d557600080fd5b8201601f810184136155e657600080fd5b80516155f46153898261526c565b81815285602083850101111561560957600080fd5b612456826020830160208601614725565b7f4e487b7100000000000000000000000000000000000000000000000000000000600052601160045260246000fd5b81810381811115610bfa57610bfa61561a565b60006020828403121561566e57600080fd5b8135610f2281615502565b73ffffffffffffffffffffffffffffffffffffffff8516815283602082015261ffff83166040820152608060608201526000610fef6080830184614749565b6040815260006156cb6040830185614749565b82810360208401526124568185614749565b6000602082840312156156ef57600080fd5b8151610f2281614acd565b6040815263ffffffff8351166040820152602083015160608201526000604084015160a0608084015261573060e0840182614749565b905060608501517fffffffffffffffffffffffffffffffffffffffffffffffffffffffffffffffc08483030160a085015261576b8282614749565b60809690960151151560c085015250505073ffffffffffffffffffffffffffffffffffffffff9190911660209091015290565b6000604082840312156157b057600080fd5b6157b86151fa565b825181526020928301519281019290925250919050565b6000604082840312156157e157600080fd5b610f22838361579e565b601f821115613e9157806000526020600020601f840160051c810160208510156158125750805b601f840160051c820191505b81811015611733576000815560010161581e565b815167ffffffffffffffff81111561584c5761584c615155565b6158608161585a8454615184565b846157eb565b6020601f8211600181146158b2576000831561587c5750848201515b7fffffffffffffffffffffffffffffffffffffffffffffffffffffffffffffffff600385901b1c1916600184901b178455611733565b6000848152602081207fffffffffffffffffffffffffffffffffffffffffffffffffffffffffffffffe08516915b8281101561590057878501518255602094850194600190920191016158e0565b508482101561593c57868401517fffffffffffffffffffffffffffffffffffffffffffffffffffffffffffffffff600387901b60f8161c191681555b50505050600190811b01905550565b6000602082016020835280845180835260408501915060408160051b86010192506020860160005b828110156159ed577fffffffffffffffffffffffffffffffffffffffffffffffffffffffffffffffc0878603018452815163ffffffff815116865261ffff602082015116602087015260408101519050606060408701526159d76060870182614749565b9550506020938401939190910190600101615973565b50929695505050505050565b60006040828403128015615a0c57600080fd5b50615a156151fa565b823581526020928301359281019290925250919050565b67ffffffffffffffff831115615a4457615a44615155565b615a5883615a528354615184565b836157eb565b6000601f841160018114615aaa5760008515615a745750838201355b7fffffffffffffffffffffffffffffffffffffffffffffffffffffffffffffffff600387901b1c1916600186901b178355611733565b6000838152602090207fffffffffffffffffffffffffffffffffffffffffffffffffffffffffffffffe0861690835b82811015615af95786850135825560209485019460019092019101615ad9565b5086821015615b34577fffffffffffffffffffffffffffffffffffffffffffffffffffffffffffffffff60f88860031b161c19848701351681555b505060018560011b0183555050505050565b600082615b7c577f4e487b7100000000000000000000000000000000000000000000000000000000600052601260045260246000fd5b500490565b8082028115828204841417610bfa57610bfa61561a565b80356020831015610bfa577fffffffffffffffffffffffffffffffffffffffffffffffffffffffffffffffff602084900360031b1b1692915050565b80357fffffffffffffffff0000000000000000000000000000000000000000000000008116906008841015615c33577fffffffffffffffff000000000000000000000000000000000000000000000000808560080360031b1b82161691505b5092915050565b7fffffffffffffffff0000000000000000000000000000000000000000000000008560c01b1681527fffffffff000000000000000000000000000000000000000000000000000000008460e01b16600882015282600c82015260008251615ca881602c850160208701614725565b91909101602c0195945050505050565b8481527fffffffffffffffff0000000000000000000000000000000000000000000000008460c01b16602082015282602882015260008251615d01816048850160208701614725565b9190910160480195945050505050565b73ffffffffffffffffffffffffffffffffffffffff8516815273ffffffffffffffffffffffffffffffffffffffff84166020820152826040820152608060608201526000610fef6080830184614749565b600060208284031215615d7457600080fd5b8151610f22816146da565b60006080828403128015615d9257600080fd5b50615d9b6151d1565b825181526020830151615dad81615502565b6020820152615dbf846040850161579e565b6040820152939250505056fea2646970667358221220642f773ea4526e6df27440bb5420ed83c06b84f5d9719d181bb3a70309232a1c64736f6c634300081c0033",
  "linkReferences": {},
  "deployedLinkReferences": {}
}