{
  "_format": "hh-sol-artifact-1",
  "contractName": "FxERC20MintBurnChildTunnel",
  "sourceName": "contracts/fx-portal/ERC20/tunnel/FxERC20MintBurnChildTunnel.sol",
  "abi": [
    {
      "inputs": [
        {
          "internalType": "address",
          "name": "fxChild",
          "type": "address"
        },
        {
          "internalType": "address",
          "name": "childTokenLogic",
          "type": "address"
        },
        {
          "internalType": "contract IForwarderRegistry",
          "name": "forwarderRegistry",
          "type": "address"
        }
      ],
      "stateMutability": "nonpayable",
      "type": "constructor"
    },
    {
      "inputs": [],
      "name": "FxERC20ChildTokenLogicNotContract",
      "type": "error"
    },
    {
      "inputs": [
        {
          "internalType": "bytes32",
          "name": "syncType",
          "type": "bytes32"
        }
      ],
      "name": "FxERC20InvalidSyncType",
      "type": "error"
    },
    {
      "inputs": [],
      "name": "FxERC20InvalidWithdrawalAddress",
      "type": "error"
    },
    {
      "inputs": [
        {
          "internalType": "address",
          "name": "rootToken",
          "type": "address"
        },
        {
          "internalType": "address",
          "name": "childToken",
          "type": "address"
        }
      ],
      "name": "FxERC20TokenAlreadyMapped",
      "type": "error"
    },
    {
      "inputs": [],
      "name": "FxERC20TokenNotMapped",
      "type": "error"
    },
    {
      "anonymous": false,
      "inputs": [
        {
          "indexed": true,
          "internalType": "address",
          "name": "rootToken",
          "type": "address"
        },
        {
          "indexed": true,
          "internalType": "address",
          "name": "childToken",
          "type": "address"
        },
        {
          "indexed": false,
          "internalType": "address",
          "name": "depositor",
          "type": "address"
        },
        {
          "indexed": false,
          "internalType": "address",
          "name": "recipient",
          "type": "address"
        },
        {
          "indexed": false,
          "internalType": "uint256",
          "name": "amount",
          "type": "uint256"
        }
      ],
      "name": "FxERC20Deposit",
      "type": "event"
    },
    {
      "anonymous": false,
      "inputs": [
        {
          "indexed": true,
          "internalType": "address",
          "name": "rootToken",
          "type": "address"
        },
        {
          "indexed": true,
          "internalType": "address",
          "name": "childToken",
          "type": "address"
        }
      ],
      "name": "FxERC20TokenMapping",
      "type": "event"
    },
    {
      "anonymous": false,
      "inputs": [
        {
          "indexed": true,
          "internalType": "address",
          "name": "rootToken",
          "type": "address"
        },
        {
          "indexed": true,
          "internalType": "address",
          "name": "childToken",
          "type": "address"
        },
        {
          "indexed": false,
          "internalType": "address",
          "name": "withdrawer",
          "type": "address"
        },
        {
          "indexed": false,
          "internalType": "address",
          "name": "recipient",
          "type": "address"
        },
        {
          "indexed": false,
          "internalType": "uint256",
          "name": "amount",
          "type": "uint256"
        }
      ],
      "name": "FxERC20Withdrawal",
      "type": "event"
    },
    {
      "anonymous": false,
      "inputs": [
        {
          "indexed": false,
          "internalType": "bytes",
          "name": "message",
          "type": "bytes"
        }
      ],
      "name": "MessageSent",
      "type": "event"
    },
    {
      "inputs": [],
      "name": "DEPOSIT",
      "outputs": [
        {
          "internalType": "bytes32",
          "name": "",
          "type": "bytes32"
        }
      ],
      "stateMutability": "view",
      "type": "function"
    },
    {
      "inputs": [],
      "name": "MAP_TOKEN",
      "outputs": [
        {
          "internalType": "bytes32",
          "name": "",
          "type": "bytes32"
        }
      ],
      "stateMutability": "view",
      "type": "function"
    },
    {
      "inputs": [],
      "name": "PREFIX_SYMBOL",
      "outputs": [
        {
          "internalType": "string",
          "name": "",
          "type": "string"
        }
      ],
      "stateMutability": "view",
      "type": "function"
    },
    {
      "inputs": [],
      "name": "SUFFIX_NAME",
      "outputs": [
        {
          "internalType": "string",
          "name": "",
          "type": "string"
        }
      ],
      "stateMutability": "view",
      "type": "function"
    },
    {
      "inputs": [],
      "name": "childTokenLogic",
      "outputs": [
        {
          "internalType": "address",
          "name": "",
          "type": "address"
        }
      ],
      "stateMutability": "view",
      "type": "function"
    },
    {
      "inputs": [
        {
          "internalType": "bytes32",
          "name": "salt",
          "type": "bytes32"
        },
        {
          "internalType": "bytes32",
          "name": "bytecodeHash",
          "type": "bytes32"
        },
        {
          "internalType": "address",
          "name": "deployer",
          "type": "address"
        }
      ],
      "name": "computedCreate2Address",
      "outputs": [
        {
          "internalType": "address",
          "name": "",
          "type": "address"
        }
      ],
      "stateMutability": "pure",
      "type": "function"
    },
    {
      "inputs": [],
      "name": "forwarderRegistry",
      "outputs": [
        {
          "internalType": "contract IForwarderRegistry",
          "name": "",
          "type": "address"
        }
      ],
      "stateMutability": "view",
      "type": "function"
    },
    {
      "inputs": [],
      "name": "fxChild",
      "outputs": [
        {
          "internalType": "address",
          "name": "",
          "type": "address"
        }
      ],
      "stateMutability": "view",
      "type": "function"
    },
    {
      "inputs": [],
      "name": "fxRootTunnel",
      "outputs": [
        {
          "internalType": "address",
          "name": "",
          "type": "address"
        }
      ],
      "stateMutability": "view",
      "type": "function"
    },
    {
      "inputs": [
        {
          "internalType": "address",
          "name": "forwarder",
          "type": "address"
        }
      ],
      "name": "isTrustedForwarder",
      "outputs": [
        {
          "internalType": "bool",
          "name": "",
          "type": "bool"
        }
      ],
      "stateMutability": "view",
      "type": "function"
    },
    {
      "inputs": [
        {
          "internalType": "address",
          "name": "",
          "type": "address"
        },
        {
          "internalType": "address",
          "name": "from",
          "type": "address"
        },
        {
          "internalType": "uint256",
          "name": "value",
          "type": "uint256"
        },
        {
          "internalType": "bytes",
          "name": "data",
          "type": "bytes"
        }
      ],
      "name": "onERC20Received",
      "outputs": [
        {
          "internalType": "bytes4",
          "name": "magicValue",
          "type": "bytes4"
        }
      ],
      "stateMutability": "nonpayable",
      "type": "function"
    },
    {
      "inputs": [
        {
          "internalType": "uint256",
          "name": "stateId",
          "type": "uint256"
        },
        {
          "internalType": "address",
          "name": "rootMessageSender",
          "type": "address"
        },
        {
          "internalType": "bytes",
          "name": "data",
          "type": "bytes"
        }
      ],
      "name": "processMessageFromRoot",
      "outputs": [],
      "stateMutability": "nonpayable",
      "type": "function"
    },
    {
      "inputs": [
        {
          "internalType": "address",
          "name": "",
          "type": "address"
        }
      ],
      "name": "rootToChildToken",
      "outputs": [
        {
          "internalType": "address",
          "name": "",
          "type": "address"
        }
      ],
      "stateMutability": "view",
      "type": "function"
    },
    {
      "inputs": [
        {
          "internalType": "address",
          "name": "_fxRootTunnel",
          "type": "address"
        }
      ],
      "name": "setFxRootTunnel",
      "outputs": [],
      "stateMutability": "nonpayable",
      "type": "function"
    },
    {
      "inputs": [
        {
          "internalType": "bytes4",
          "name": "interfaceId",
          "type": "bytes4"
        }
      ],
      "name": "supportsInterface",
      "outputs": [
        {
          "internalType": "bool",
          "name": "",
          "type": "bool"
        }
      ],
      "stateMutability": "view",
      "type": "function"
    },
    {
      "inputs": [
        {
          "internalType": "address",
          "name": "childToken",
          "type": "address"
        },
        {
          "internalType": "uint256",
          "name": "amount",
          "type": "uint256"
        }
      ],
      "name": "withdraw",
      "outputs": [],
      "stateMutability": "nonpayable",
      "type": "function"
    },
    {
      "inputs": [
        {
          "internalType": "address",
          "name": "childToken",
          "type": "address"
        },
        {
          "internalType": "address",
          "name": "receiver",
          "type": "address"
        },
        {
          "internalType": "uint256",
          "name": "amount",
          "type": "uint256"
        }
      ],
      "name": "withdrawTo",
      "outputs": [],
      "stateMutability": "nonpayable",
      "type": "function"
    }
  ],
  "bytecode": "0x60c06040523480156200001157600080fd5b5060405162001e2b38038062001e2b8339810160408190526200003491620001d9565b600080546001600160a01b0319166001600160a01b03851617905582828280806200008d634fc3585960e01b600162000078620000eb602090811b620007b817901c565b6200012160201b620007e6179092919060201c565b6001600160a01b03908116608052620000b591508316620001b1602090811b620008f217901c565b620000d357604051630a1ae39360e11b815260040160405180910390fd5b506001600160a01b031660a052506200024f92505050565b6000806200011b60017fca9d3e17f264b0f3984e2634e94adb37fa3e6a8103f06aeae6fa59e21c769f5e6200022d565b92915050565b600160e01b6001600160e01b0319831601620001835760405162461bcd60e51b815260206004820152601f60248201527f496e74657266616365446574656374696f6e3a2077726f6e672076616c756500604482015260640160405180910390fd5b6001600160e01b03199190911660009081526020929092526040909120805460ff1916911515919091179055565b6001600160a01b03163b151590565b6001600160a01b0381168114620001d657600080fd5b50565b600080600060608486031215620001ef57600080fd5b8351620001fc81620001c0565b60208501519093506200020f81620001c0565b60408501519092506200022281620001c0565b809150509250925092565b818103818111156200011b57634e487b7160e01b600052601160045260246000fd5b60805160a051611b9a62000291600039600081816102ca015261117201526000818161014a0152818161028801528181610de80152610e700152611b9a6000f3fe608060405234801561001057600080fd5b506004361061011b5760003560e01c80637337957f116100b25780639a7c4b7111610081578063d81c8e5211610066578063d81c8e5214610410578063ea60c7c414610437578063f3fef3a31461046d57600080fd5b80639a7c4b71146103ea578063c3b35a7e146103fd57600080fd5b80637337957f146102ec5780637f1e9cb014610380578063886a69ba146103a057806388837094146103d557600080fd5b8063450d11f0116100ee578063450d11f0146102145780634fc3585914610234578063572b6c051461027857806360dc23fc146102c557600080fd5b806301ffc9a7146101205780632b4c9f16146101485780633740d5a01461018f57806339c6c9e0146101d8575b600080fd5b61013361012e366004611512565b610480565b60405190151581526020015b60405180910390f35b7f00000000000000000000000000000000000000000000000000000000000000005b60405173ffffffffffffffffffffffffffffffffffffffff909116815260200161013f565b6101cb6040518060400160405280600181526020017f700000000000000000000000000000000000000000000000000000000000000081525081565b60405161013f91906115c9565b6101cb6040518060400160405280600a81526020017f2028506f6c79676f6e290000000000000000000000000000000000000000000081525081565b60005461016a9073ffffffffffffffffffffffffffffffffffffffff1681565b61024761024236600461164a565b61049a565b6040517fffffffff00000000000000000000000000000000000000000000000000000000909116815260200161013f565b6101336102863660046116bd565b7f000000000000000000000000000000000000000000000000000000000000000073ffffffffffffffffffffffffffffffffffffffff90811691161490565b61016a7f000000000000000000000000000000000000000000000000000000000000000081565b61016a6102fa3660046116da565b604080517fff0000000000000000000000000000000000000000000000000000000000000060208083019190915260609390931b7fffffffffffffffffffffffffffffffffffffffff0000000000000000000000001660218201526035810194909452605580850193909352805180850390930183526075909301909252805191012090565b60015461016a9073ffffffffffffffffffffffffffffffffffffffff1681565b6103c77f2cef46a936bdc5b7e6e8c71aa04560c41cf7d88bb26901a7e7f4936ff02accad81565b60405190815260200161013f565b6103e86103e33660046116bd565b610540565b005b6103e86103f8366004611713565b610632565b6103e861040b36600461176f565b610720565b6103c77f87a7811f4bfedea3d341ad165680ae306b01aaeacc205d227629cf157dd9f82181565b61016a6104453660046116bd565b60026020526000908152604090205473ffffffffffffffffffffffffffffffffffffffff1681565b6103e861047b3660046117b0565b610790565b60006104948261048e6107b8565b9061090e565b92915050565b60008482156104fe576104af838501856116bd565b905073ffffffffffffffffffffffffffffffffffffffff81166104fe576040517fcb13d6aa00000000000000000000000000000000000000000000000000000000815260040160405180910390fd5b61050a338783886109e8565b6105143386610ba5565b507f4fc35859000000000000000000000000000000000000000000000000000000009695505050505050565b60015473ffffffffffffffffffffffffffffffffffffffff16156105eb576040517f08c379a000000000000000000000000000000000000000000000000000000000815260206004820152602a60248201527f4678426173654368696c6454756e6e656c3a20524f4f545f54554e4e454c5f4160448201527f4c52454144595f5345540000000000000000000000000000000000000000000060648201526084015b60405180910390fd5b600180547fffffffffffffffffffffffff00000000000000000000000000000000000000001673ffffffffffffffffffffffffffffffffffffffff92909216919091179055565b60005473ffffffffffffffffffffffffffffffffffffffff1633146106d9576040517f08c379a000000000000000000000000000000000000000000000000000000000815260206004820152602160248201527f4678426173654368696c6454756e6e656c3a20494e56414c49445f53454e444560448201527f520000000000000000000000000000000000000000000000000000000000000060648201526084016105e2565b61071a848484848080601f016020809104026020016040519081016040528093929190818152602001838380828437600092019190915250610c3692505050565b50505050565b73ffffffffffffffffffffffffffffffffffffffff821661076d576040517fcb13d6aa00000000000000000000000000000000000000000000000000000000815260040160405180910390fd5b6000610777610da5565b9050610785848285856109e8565b61071a848284610eec565b600061079a610da5565b90506107a8838283856109e8565b6107b3838284610eec565b505050565b60008061049460017fca9d3e17f264b0f3984e2634e94adb37fa3e6a8103f06aeae6fa59e21c769f5e6117dc565b7c01000000000000000000000000000000000000000000000000000000007fffffffff0000000000000000000000000000000000000000000000000000000083160161088e576040517f08c379a000000000000000000000000000000000000000000000000000000000815260206004820152601f60248201527f496e74657266616365446574656374696f6e3a2077726f6e672076616c75650060448201526064016105e2565b7fffffffff00000000000000000000000000000000000000000000000000000000919091166000908152602092909252604090912080547fffffffffffffffffffffffffffffffffffffffffffffffffffffffffffffff0016911515919091179055565b73ffffffffffffffffffffffffffffffffffffffff163b151590565b60007c01000000000000000000000000000000000000000000000000000000007fffffffff0000000000000000000000000000000000000000000000000000000083160161095e57506000610494565b7ffe003659000000000000000000000000000000000000000000000000000000007fffffffff000000000000000000000000000000000000000000000000000000008316016109af57506001610494565b507fffffffff00000000000000000000000000000000000000000000000000000000166000908152602091909152604090205460ff1690565b60008473ffffffffffffffffffffffffffffffffffffffff16630a8a49146040518163ffffffff1660e01b81526004016020604051808303816000875af1158015610a37573d6000803e3d6000fd5b505050506040513d601f19601f82011682018060405250810190610a5b9190611816565b905073ffffffffffffffffffffffffffffffffffffffff81161580610aaa575073ffffffffffffffffffffffffffffffffffffffff808216600090815260026020526040902054868216911614155b15610ae1576040517f6cddfcaf00000000000000000000000000000000000000000000000000000000815260040160405180910390fd5b6040805173ffffffffffffffffffffffffffffffffffffffff8084166020830152808816928201929092528186166060820152908416608082015260a08101839052610b3e9060c001604051602081830303815290604052610f85565b6040805173ffffffffffffffffffffffffffffffffffffffff86811682528581166020830152918101849052818716918316907faa4bbbc02123d0c446b55ec99a14078c9eab05cb4a271e6d8f8e278d9e4cd1849060600160405180910390a35050505050565b6040517f42966c680000000000000000000000000000000000000000000000000000000081526004810182905273ffffffffffffffffffffffffffffffffffffffff8316906342966c68906024016020604051808303816000875af1158015610c12573d6000803e3d6000fd5b505050506040513d601f19601f820116820180604052508101906107b39190611833565b600154829073ffffffffffffffffffffffffffffffffffffffff808316911614610ce2576040517f08c379a000000000000000000000000000000000000000000000000000000000815260206004820152602b60248201527f4678426173654368696c6454756e6e656c3a20494e56414c49445f53454e444560448201527f525f46524f4d5f524f4f5400000000000000000000000000000000000000000060648201526084016105e2565b60008083806020019051810190610cf9919061192a565b915091507f87a7811f4bfedea3d341ad165680ae306b01aaeacc205d227629cf157dd9f8218203610d3257610d2d81610fbf565b610d9d565b7f2cef46a936bdc5b7e6e8c71aa04560c41cf7d88bb26901a7e7f4936ff02accad8203610d6857610d628161107f565b50610d9d565b6040517f079fc927000000000000000000000000000000000000000000000000000000008152600481018390526024016105e2565b505050505050565b600033321480610db55750601836105b15610dbf57503390565b7fffffffffffffffffffffffffffffffffffffffffffffffffffffffffffffffec36013560601c7f000000000000000000000000000000000000000000000000000000000000000073ffffffffffffffffffffffffffffffffffffffff16331480610edb57506040517f8929a8ca00000000000000000000000000000000000000000000000000000000815273ffffffffffffffffffffffffffffffffffffffff82811660048301523360248301527f00000000000000000000000000000000000000000000000000000000000000001690638929a8ca90604401602060405180830381865afa158015610eb7573d6000803e3d6000fd5b505050506040513d601f19601f82011682018060405250810190610edb9190611833565b15610ee557919050565b3391505090565b6040517f79cc679000000000000000000000000000000000000000000000000000000000815273ffffffffffffffffffffffffffffffffffffffff8381166004830152602482018390528416906379cc6790906044016020604051808303816000875af1158015610f61573d6000803e3d6000fd5b505050506040513d601f19601f8201168201806040525081019061071a9190611833565b7f8c5261668696ce22758910d05bab8f186d6eb247ceac2af2e82c7dc17669b03681604051610fb491906115c9565b60405180910390a150565b60008060008084806020019051810190610fd99190611971565b73ffffffffffffffffffffffffffffffffffffffff808516600090815260026020526040902054949850929650909450925016611017818484611223565b6040805173ffffffffffffffffffffffffffffffffffffffff86811682528581166020830152918101849052818316918716907fd04a997afc07fd79393f2188ae8935e4389ab8aef6144f0f839e3aade5b858ab9060600160405180910390a3505050505050565b60008060008380602001905181019061109891906119c4565b73ffffffffffffffffffffffffffffffffffffffff8083166000908152600260205260409020541694509092509050821561111f576040517ff5b9e7de00000000000000000000000000000000000000000000000000000000815273ffffffffffffffffffffffffffffffffffffffff8084166004830152841660248201526044016105e2565b6040517fffffffffffffffffffffffffffffffffffffffff000000000000000000000000606084901b166020820152600090603401604051602081830303815290604052805190602001209050611196817f00000000000000000000000000000000000000000000000000000000000000006112b0565b93506111a38385846113bf565b73ffffffffffffffffffffffffffffffffffffffff83811660008181526002602052604080822080547fffffffffffffffffffffffff0000000000000000000000000000000000000000169489169485179055517ff935ffb7c4a7f69e191e46617fc2f41d98d93290443199977b42dd086e744c869190a3505050919050565b6040517f40c10f1900000000000000000000000000000000000000000000000000000000815273ffffffffffffffffffffffffffffffffffffffff8381166004830152602482018390528416906340c10f1990604401600060405180830381600087803b15801561129357600080fd5b505af11580156112a7573d6000803e3d6000fd5b50505050505050565b6000808260601b90506040517f3d602d80600a3d3981f3363d3d373d3d3d363d7300000000000000000000000081528160148201527f5af43d82803e903d91602b57fd5bf300000000000000000000000000000000006028820152846037826000f592505073ffffffffffffffffffffffffffffffffffffffff82166113b8576040517f08c379a000000000000000000000000000000000000000000000000000000000815260206004820152602160248201527f437265617465323a204661696c6564206f6e206d696e696d616c206465706c6f60448201527f790000000000000000000000000000000000000000000000000000000000000060648201526084016105e2565b5092915050565b6000806000806000858060200190518101906113db91906119ff565b945094509450945094508673ffffffffffffffffffffffffffffffffffffffff16639a0186a3308a886040518060400160405280600a81526020017f2028506f6c79676f6e290000000000000000000000000000000000000000000081525060405160200161144b929190611ab6565b6040516020818303038152906040526040518060400160405280600181526020017f7000000000000000000000000000000000000000000000000000000000000000815250896040516020016114a2929190611ab6565b6040516020818303038152906040528888886040518863ffffffff1660e01b81526004016114d69796959493929190611ae5565b600060405180830381600087803b1580156114f057600080fd5b505af1158015611504573d6000803e3d6000fd5b505050505050505050505050565b60006020828403121561152457600080fd5b81357fffffffff000000000000000000000000000000000000000000000000000000008116811461155457600080fd5b9392505050565b60005b8381101561157657818101518382015260200161155e565b50506000910152565b6000815180845261159781602086016020860161155b565b601f017fffffffffffffffffffffffffffffffffffffffffffffffffffffffffffffffe0169290920160200192915050565b602081526000611554602083018461157f565b73ffffffffffffffffffffffffffffffffffffffff811681146115fe57600080fd5b50565b60008083601f84011261161357600080fd5b50813567ffffffffffffffff81111561162b57600080fd5b60208301915083602082850101111561164357600080fd5b9250929050565b60008060008060006080868803121561166257600080fd5b853561166d816115dc565b9450602086013561167d816115dc565b935060408601359250606086013567ffffffffffffffff8111156116a057600080fd5b6116ac88828901611601565b969995985093965092949392505050565b6000602082840312156116cf57600080fd5b8135611554816115dc565b6000806000606084860312156116ef57600080fd5b83359250602084013591506040840135611708816115dc565b809150509250925092565b6000806000806060858703121561172957600080fd5b84359350602085013561173b816115dc565b9250604085013567ffffffffffffffff81111561175757600080fd5b61176387828801611601565b95989497509550505050565b60008060006060848603121561178457600080fd5b833561178f816115dc565b9250602084013561179f816115dc565b929592945050506040919091013590565b600080604083850312156117c357600080fd5b82356117ce816115dc565b946020939093013593505050565b81810381811115610494577f4e487b7100000000000000000000000000000000000000000000000000000000600052601160045260246000fd5b60006020828403121561182857600080fd5b8151611554816115dc565b60006020828403121561184557600080fd5b8151801515811461155457600080fd5b7f4e487b7100000000000000000000000000000000000000000000000000000000600052604160045260246000fd5b600082601f83011261189557600080fd5b815167ffffffffffffffff808211156118b0576118b0611855565b604051601f83017fffffffffffffffffffffffffffffffffffffffffffffffffffffffffffffffe0908116603f011681019082821181831017156118f6576118f6611855565b8160405283815286602085880101111561190f57600080fd5b61192084602083016020890161155b565b9695505050505050565b6000806040838503121561193d57600080fd5b82519150602083015167ffffffffffffffff81111561195b57600080fd5b61196785828601611884565b9150509250929050565b6000806000806080858703121561198757600080fd5b8451611992816115dc565b60208601519094506119a3816115dc565b60408601519093506119b4816115dc565b6060959095015193969295505050565b600080604083850312156119d757600080fd5b82516119e2816115dc565b602084015190925067ffffffffffffffff81111561195b57600080fd5b600080600080600060a08688031215611a1757600080fd5b855167ffffffffffffffff80821115611a2f57600080fd5b611a3b89838a01611884565b96506020880151915080821115611a5157600080fd5b611a5d89838a01611884565b95506040880151915060ff82168214611a7557600080fd5b606088015191945080821115611a8a57600080fd5b50611a9788828901611884565b9250506080860151611aa8816115dc565b809150509295509295909350565b60008351611ac881846020880161155b565b835190830190611adc81836020880161155b565b01949350505050565b600073ffffffffffffffffffffffffffffffffffffffff808a168352808916602084015260e06040840152611b1d60e084018961157f565b8381036060850152611b2f818961157f565b905060ff8716608085015283810360a0850152611b4c818761157f565b92505080841660c0840152509897505050505050505056fea2646970667358221220a34cc3dd20b81960541c361b48ae0dba174bb52b443a4cbbe53a3aa5395ad89e64736f6c63430008110033",
  "linkReferences": {},
  "deployedLinkReferences": {}
}