{
  "_format": "hh-sol-artifact-1",
  "contractName": "FxERC20FixedSupplyRootTunnel",
  "sourceName": "contracts/fx-portal/tunnel/ERC20/FxERC20FixedSupplyRootTunnel.sol",
  "abi": [
    {
      "inputs": [
        {
          "internalType": "address",
          "name": "checkpointManager",
          "type": "address"
        },
        {
          "internalType": "address",
          "name": "fxRoot",
          "type": "address"
        },
        {
          "internalType": "address",
          "name": "fxERC20Token",
          "type": "address"
        },
        {
          "internalType": "contract IForwarderRegistry",
          "name": "forwarderRegistry",
          "type": "address"
        }
      ],
      "stateMutability": "nonpayable",
      "type": "constructor"
    },
    {
      "inputs": [],
      "name": "FxERC20InvalidDepositAddress",
      "type": "error"
    },
    {
      "inputs": [
        {
          "internalType": "address",
          "name": "childToken",
          "type": "address"
        },
        {
          "internalType": "address",
          "name": "expectedRootToken",
          "type": "address"
        },
        {
          "internalType": "address",
          "name": "actualRootToken",
          "type": "address"
        }
      ],
      "name": "FxERC20InvalidMappingOnExit",
      "type": "error"
    },
    {
      "inputs": [],
      "name": "IllegalInterfaceId",
      "type": "error"
    },
    {
      "anonymous": false,
      "inputs": [
        {
          "indexed": true,
          "internalType": "address",
          "name": "rootToken",
          "type": "address"
        },
        {
          "indexed": true,
          "internalType": "address",
          "name": "childToken",
          "type": "address"
        },
        {
          "indexed": false,
          "internalType": "address",
          "name": "depositor",
          "type": "address"
        },
        {
          "indexed": false,
          "internalType": "address",
          "name": "recipient",
          "type": "address"
        },
        {
          "indexed": false,
          "internalType": "uint256",
          "name": "amount",
          "type": "uint256"
        }
      ],
      "name": "FxERC20Deposit",
      "type": "event"
    },
    {
      "anonymous": false,
      "inputs": [
        {
          "indexed": true,
          "internalType": "address",
          "name": "rootToken",
          "type": "address"
        },
        {
          "indexed": true,
          "internalType": "address",
          "name": "childToken",
          "type": "address"
        }
      ],
      "name": "FxERC20TokenMapping",
      "type": "event"
    },
    {
      "anonymous": false,
      "inputs": [
        {
          "indexed": true,
          "internalType": "address",
          "name": "rootToken",
          "type": "address"
        },
        {
          "indexed": true,
          "internalType": "address",
          "name": "childToken",
          "type": "address"
        },
        {
          "indexed": false,
          "internalType": "address",
          "name": "withdrawer",
          "type": "address"
        },
        {
          "indexed": false,
          "internalType": "address",
          "name": "recipient",
          "type": "address"
        },
        {
          "indexed": false,
          "internalType": "uint256",
          "name": "amount",
          "type": "uint256"
        }
      ],
      "name": "FxERC20Withdrawal",
      "type": "event"
    },
    {
      "inputs": [],
      "name": "CHILD_TOKEN_PROXY_CODEHASH",
      "outputs": [
        {
          "internalType": "bytes32",
          "name": "",
          "type": "bytes32"
        }
      ],
      "stateMutability": "view",
      "type": "function"
    },
    {
      "inputs": [],
      "name": "DEPOSIT",
      "outputs": [
        {
          "internalType": "bytes32",
          "name": "",
          "type": "bytes32"
        }
      ],
      "stateMutability": "view",
      "type": "function"
    },
    {
      "inputs": [],
      "name": "MAP_TOKEN",
      "outputs": [
        {
          "internalType": "bytes32",
          "name": "",
          "type": "bytes32"
        }
      ],
      "stateMutability": "view",
      "type": "function"
    },
    {
      "inputs": [],
      "name": "SEND_MESSAGE_EVENT_SIG",
      "outputs": [
        {
          "internalType": "bytes32",
          "name": "",
          "type": "bytes32"
        }
      ],
      "stateMutability": "view",
      "type": "function"
    },
    {
      "inputs": [],
      "name": "checkpointManager",
      "outputs": [
        {
          "internalType": "contract ICheckpointManager",
          "name": "",
          "type": "address"
        }
      ],
      "stateMutability": "view",
      "type": "function"
    },
    {
      "inputs": [
        {
          "internalType": "bytes32",
          "name": "salt",
          "type": "bytes32"
        },
        {
          "internalType": "bytes32",
          "name": "bytecodeHash",
          "type": "bytes32"
        },
        {
          "internalType": "address",
          "name": "deployer",
          "type": "address"
        }
      ],
      "name": "computedCreate2Address",
      "outputs": [
        {
          "internalType": "address",
          "name": "",
          "type": "address"
        }
      ],
      "stateMutability": "pure",
      "type": "function"
    },
    {
      "inputs": [
        {
          "internalType": "address",
          "name": "rootToken",
          "type": "address"
        },
        {
          "internalType": "uint256",
          "name": "amount",
          "type": "uint256"
        }
      ],
      "name": "deposit",
      "outputs": [],
      "stateMutability": "nonpayable",
      "type": "function"
    },
    {
      "inputs": [
        {
          "internalType": "address",
          "name": "rootToken",
          "type": "address"
        },
        {
          "internalType": "address",
          "name": "receiver",
          "type": "address"
        },
        {
          "internalType": "uint256",
          "name": "amount",
          "type": "uint256"
        }
      ],
      "name": "depositTo",
      "outputs": [],
      "stateMutability": "nonpayable",
      "type": "function"
    },
    {
      "inputs": [],
      "name": "forwarderRegistry",
      "outputs": [
        {
          "internalType": "contract IForwarderRegistry",
          "name": "",
          "type": "address"
        }
      ],
      "stateMutability": "view",
      "type": "function"
    },
    {
      "inputs": [],
      "name": "fxChildTunnel",
      "outputs": [
        {
          "internalType": "address",
          "name": "",
          "type": "address"
        }
      ],
      "stateMutability": "view",
      "type": "function"
    },
    {
      "inputs": [],
      "name": "fxRoot",
      "outputs": [
        {
          "internalType": "contract IFxStateSender",
          "name": "",
          "type": "address"
        }
      ],
      "stateMutability": "view",
      "type": "function"
    },
    {
      "inputs": [
        {
          "internalType": "address",
          "name": "forwarder",
          "type": "address"
        }
      ],
      "name": "isTrustedForwarder",
      "outputs": [
        {
          "internalType": "bool",
          "name": "",
          "type": "bool"
        }
      ],
      "stateMutability": "view",
      "type": "function"
    },
    {
      "inputs": [
        {
          "internalType": "address",
          "name": "rootToken",
          "type": "address"
        }
      ],
      "name": "mapToken",
      "outputs": [
        {
          "internalType": "address",
          "name": "childToken",
          "type": "address"
        }
      ],
      "stateMutability": "nonpayable",
      "type": "function"
    },
    {
      "inputs": [
        {
          "internalType": "address",
          "name": "",
          "type": "address"
        },
        {
          "internalType": "address",
          "name": "from",
          "type": "address"
        },
        {
          "internalType": "uint256",
          "name": "value",
          "type": "uint256"
        },
        {
          "internalType": "bytes",
          "name": "data",
          "type": "bytes"
        }
      ],
      "name": "onERC20Received",
      "outputs": [
        {
          "internalType": "bytes4",
          "name": "magicValue",
          "type": "bytes4"
        }
      ],
      "stateMutability": "nonpayable",
      "type": "function"
    },
    {
      "inputs": [
        {
          "internalType": "bytes32",
          "name": "",
          "type": "bytes32"
        }
      ],
      "name": "processedExits",
      "outputs": [
        {
          "internalType": "bool",
          "name": "",
          "type": "bool"
        }
      ],
      "stateMutability": "view",
      "type": "function"
    },
    {
      "inputs": [
        {
          "internalType": "bytes",
          "name": "inputData",
          "type": "bytes"
        }
      ],
      "name": "receiveMessage",
      "outputs": [],
      "stateMutability": "nonpayable",
      "type": "function"
    },
    {
      "inputs": [
        {
          "internalType": "address",
          "name": "",
          "type": "address"
        }
      ],
      "name": "rootToChildToken",
      "outputs": [
        {
          "internalType": "address",
          "name": "",
          "type": "address"
        }
      ],
      "stateMutability": "view",
      "type": "function"
    },
    {
      "inputs": [
        {
          "internalType": "address",
          "name": "_fxChildTunnel",
          "type": "address"
        }
      ],
      "name": "setFxChildTunnel",
      "outputs": [],
      "stateMutability": "nonpayable",
      "type": "function"
    },
    {
      "inputs": [
        {
          "internalType": "bytes4",
          "name": "interfaceId",
          "type": "bytes4"
        }
      ],
      "name": "supportsInterface",
      "outputs": [
        {
          "internalType": "bool",
          "name": "",
          "type": "bool"
        }
      ],
      "stateMutability": "view",
      "type": "function"
    }
  ],
  "bytecode": "0x60c06040523480156200001157600080fd5b506040516200389d3803806200389d8339810160408190526200003491620001c7565b600180546001600160a01b038087166001600160a01b031992831617835560008054918716919092161790558490849084908490819081906200008c90634fc3585960e01b90620000846200011b565b919062000151565b6001600160a01b03166080525060408051693d602d80600a3d3981f360b01b602082015269363d3d373d3d3d363d7360b01b602a8201526001600160601b0319606085901b1660348201526e5af43d82803e903d91602b57fd5bf360881b6048820152815180820360370181526057909101909152805160209091012060a05250620002519650505050505050565b6000806200014b60017fca9d3e17f264b0f3984e2634e94adb37fa3e6a8103f06aeae6fa59e21c769f5e6200022f565b92915050565b600160e01b6001600160e01b031983160162000180576040516372c683bb60e01b815260040160405180910390fd5b6001600160e01b03199190911660009081526020929092526040909120805460ff1916911515919091179055565b6001600160a01b0381168114620001c457600080fd5b50565b60008060008060808587031215620001de57600080fd5b8451620001eb81620001ae565b6020860151909450620001fe81620001ae565b60408601519093506200021181620001ae565b60608601519092506200022481620001ae565b939692955090935050565b818103818111156200014b57634e487b7160e01b600052601160045260246000fd5b60805160a05161360a620002936000396000818161018301526108110152600081816101dc0152818161028a01528181610a350152610abd015261360a6000f3fe608060405234801561001057600080fd5b50600436106101515760003560e01c8063886a69ba116100cd578063de9b771f11610081578063f213159c11610066578063f213159c146103f4578063f4a120f714610407578063f953cec71461041a57600080fd5b8063de9b771f1461039e578063ea60c7c4146103be57600080fd5b8063aea4e49e116100b2578063aea4e49e14610344578063c0857ba014610357578063d81c8e521461037757600080fd5b8063886a69ba146102fd578063972c49281461032457600080fd5b806347e7ef2411610124578063572b6c0511610109578063572b6c051461027a578063607f2d42146102c75780637337957f146102ea57600080fd5b806347e7ef24146102215780634fc358591461023657600080fd5b806301ffc9a7146101565780630ca92ab31461017e5780630e387de6146101b35780632b4c9f16146101da575b600080fd5b610169610164366004612ccb565b61042d565b60405190151581526020015b60405180910390f35b6101a57f000000000000000000000000000000000000000000000000000000000000000081565b604051908152602001610175565b6101a57f8c5261668696ce22758910d05bab8f186d6eb247ceac2af2e82c7dc17669b03681565b7f00000000000000000000000000000000000000000000000000000000000000005b60405173ffffffffffffffffffffffffffffffffffffffff9091168152602001610175565b61023461022f366004612d32565b610447565b005b610249610244366004612d5e565b61046f565b6040517fffffffff000000000000000000000000000000000000000000000000000000009091168152602001610175565b610169610288366004612dfd565b7f000000000000000000000000000000000000000000000000000000000000000073ffffffffffffffffffffffffffffffffffffffff90811691161490565b6101696102d5366004612e1a565b60036020526000908152604090205460ff1681565b6101fc6102f8366004612e33565b61050a565b6101a57f2cef46a936bdc5b7e6e8c71aa04560c41cf7d88bb26901a7e7f4936ff02accad81565b6002546101fc9073ffffffffffffffffffffffffffffffffffffffff1681565b610234610352366004612dfd565b610592565b6001546101fc9073ffffffffffffffffffffffffffffffffffffffff1681565b6101a57f87a7811f4bfedea3d341ad165680ae306b01aaeacc205d227629cf157dd9f82181565b6000546101fc9073ffffffffffffffffffffffffffffffffffffffff1681565b6101fc6103cc366004612dfd565b60046020526000908152604090205473ffffffffffffffffffffffffffffffffffffffff1681565b610234610402366004612e6c565b610684565b6101fc610415366004612dfd565b6106f9565b610234610428366004612f71565b6108d0565b60006104418261043b6108ea565b90610918565b92915050565b60006104516109f2565b905061045f83828385610b39565b61046a838284610c3e565b505050565b60008482156104d25761048483850185612dfd565b905073ffffffffffffffffffffffffffffffffffffffff81166104d2576040517e7336b000000000000000000000000000000000000000000000000000000000815260040160405180910390fd5b6104de33878388610b39565b507f4fc35859000000000000000000000000000000000000000000000000000000009695505050505050565b604080517fff00000000000000000000000000000000000000000000000000000000000000602080830191909152606084901b7fffffffffffffffffffffffffffffffffffffffff00000000000000000000000016602183015260358201869052605580830186905283518084039091018152607590920190925280519101205b9392505050565b60025473ffffffffffffffffffffffffffffffffffffffff161561063d576040517f08c379a000000000000000000000000000000000000000000000000000000000815260206004820152602a60248201527f467842617365526f6f7454756e6e656c3a204348494c445f54554e4e454c5f4160448201527f4c52454144595f5345540000000000000000000000000000000000000000000060648201526084015b60405180910390fd5b600280547fffffffffffffffffffffffff00000000000000000000000000000000000000001673ffffffffffffffffffffffffffffffffffffffff92909216919091179055565b73ffffffffffffffffffffffffffffffffffffffff82166106d0576040517e7336b000000000000000000000000000000000000000000000000000000000815260040160405180910390fd5b60006106da6109f2565b90506106e884828585610b39565b6106f3848284610c3e565b50505050565b73ffffffffffffffffffffffffffffffffffffffff80821660009081526004602052604090205416801561072c57919050565b6107bb7f2cef46a936bdc5b7e6e8c71aa04560c41cf7d88bb26901a7e7f4936ff02accad8361075a85610c60565b60405160200161076b92919061305f565b604080517fffffffffffffffffffffffffffffffffffffffffffffffffffffffffffffffe0818403018152908290526107a7929160200161308e565b604051602081830303815290604052610fb7565b60408051606084901b7fffffffffffffffffffffffffffffffffffffffff00000000000000000000000016602080830191909152825160148184030181526034909201909252805191012060025461084c9082907f00000000000000000000000000000000000000000000000000000000000000009073ffffffffffffffffffffffffffffffffffffffff1661050a565b73ffffffffffffffffffffffffffffffffffffffff84811660008181526004602052604080822080547fffffffffffffffffffffffff000000000000000000000000000000000000000016948616948517905551939550919290917ff935ffb7c4a7f69e191e46617fc2f41d98d93290443199977b42dd086e744c8691a350919050565b60006108db82611048565b90506108e68161142a565b5050565b60008061044160017fca9d3e17f264b0f3984e2634e94adb37fa3e6a8103f06aeae6fa59e21c769f5e6130d6565b60007c01000000000000000000000000000000000000000000000000000000007fffffffff0000000000000000000000000000000000000000000000000000000083160161096857506000610441565b7ffe003659000000000000000000000000000000000000000000000000000000007fffffffff000000000000000000000000000000000000000000000000000000008316016109b957506001610441565b507fffffffff00000000000000000000000000000000000000000000000000000000166000908152602091909152604090205460ff1690565b600033321480610a025750601836105b15610a0c57503390565b7fffffffffffffffffffffffffffffffffffffffffffffffffffffffffffffffec36013560601c7f000000000000000000000000000000000000000000000000000000000000000073ffffffffffffffffffffffffffffffffffffffff16331480610b2857506040517f8929a8ca00000000000000000000000000000000000000000000000000000000815273ffffffffffffffffffffffffffffffffffffffff82811660048301523360248301527f00000000000000000000000000000000000000000000000000000000000000001690638929a8ca90604401602060405180830381865afa158015610b04573d6000803e3d6000fd5b505050506040513d601f19601f82011682018060405250810190610b2891906130e9565b15610b3257919050565b3391505090565b6040805173ffffffffffffffffffffffffffffffffffffffff8681166020830152858116828401528416606082015260808082018490528251808303909101815260a08201909252600091610bb3917f87a7811f4bfedea3d341ad165680ae306b01aaeacc205d227629cf157dd9f821919060c00161308e565b6040516020818303038152906040529050610bcd81610fb7565b610bd6856106f9565b6040805173ffffffffffffffffffffffffffffffffffffffff8781168252868116602083015291810185905291811691908716907fd04a997afc07fd79393f2188ae8935e4389ab8aef6144f0f839e3aade5b858ab9060600160405180910390a35050505050565b61046a73ffffffffffffffffffffffffffffffffffffffff8416833084611554565b606060008273ffffffffffffffffffffffffffffffffffffffff166318160ddd6040518163ffffffff1660e01b8152600401602060405180830381865afa158015610caf573d6000803e3d6000fd5b505050506040513d601f19601f82011682018060405250810190610cd3919061310b565b9050600083905060008173ffffffffffffffffffffffffffffffffffffffff166306fdde036040518163ffffffff1660e01b8152600401600060405180830381865afa158015610d27573d6000803e3d6000fd5b505050506040513d6000823e601f3d9081017fffffffffffffffffffffffffffffffffffffffffffffffffffffffffffffffe0168201604052610d6d9190810190613154565b905060008273ffffffffffffffffffffffffffffffffffffffff166395d89b416040518163ffffffff1660e01b8152600401600060405180830381865afa158015610dbc573d6000803e3d6000fd5b505050506040513d6000823e601f3d9081017fffffffffffffffffffffffffffffffffffffffffffffffffffffffffffffffe0168201604052610e029190810190613154565b905060008373ffffffffffffffffffffffffffffffffffffffff1663313ce5676040518163ffffffff1660e01b8152600401602060405180830381865afa158015610e51573d6000803e3d6000fd5b505050506040513d601f19601f82011682018060405250810190610e75919061319d565b905060008773ffffffffffffffffffffffffffffffffffffffff16633c130d906040518163ffffffff1660e01b8152600401600060405180830381865afa158015610ec4573d6000803e3d6000fd5b505050506040513d6000823e601f3d9081017fffffffffffffffffffffffffffffffffffffffffffffffffffffffffffffffe0168201604052610f0a9190810190613154565b905060008873ffffffffffffffffffffffffffffffffffffffff16638da5cb5b6040518163ffffffff1660e01b8152600401602060405180830381865afa158015610f59573d6000803e3d6000fd5b505050506040513d601f19601f82011682018060405250810190610f7d91906131c0565b9050868585858585604051602001610f9a969594939291906131dd565b604051602081830303815290604052975050505050505050919050565b6000546002546040517fb472047700000000000000000000000000000000000000000000000000000000815273ffffffffffffffffffffffffffffffffffffffff9283169263b47204779261101392911690859060040161305f565b600060405180830381600087803b15801561102d57600080fd5b505af1158015611041573d6000803e3d6000fd5b5050505050565b6060600061105583611630565b905060006110628261168f565b9050600061106f836116b8565b905060008161107d846116e1565b611086866118c5565b6040516020016110989392919061324f565b604080517fffffffffffffffffffffffffffffffffffffffffffffffffffffffffffffffe081840301815291815281516020928301206000818152600390935291205490915060ff161561116d576040517f08c379a0000000000000000000000000000000000000000000000000000000008152602060048201526024808201527f4678526f6f7454756e6e656c3a20455849545f414c52454144595f50524f434560448201527f53534544000000000000000000000000000000000000000000000000000000006064820152608401610634565b600081815260036020526040812080547fffffffffffffffffffffffffffffffffffffffffffffffffffffffffffffff001660011790556111ad856118e1565b905060006111ba82611a2b565b90506111c581611abb565b60025473ffffffffffffffffffffffffffffffffffffffff90811691161461126f576040517f08c379a000000000000000000000000000000000000000000000000000000000815260206004820152602560248201527f4678526f6f7454756e6e656c3a20494e56414c49445f46585f4348494c445f5460448201527f554e4e454c0000000000000000000000000000000000000000000000000000006064820152608401610634565b600061127a87611ae4565b905061129a61128a846020015190565b876112948a611b00565b84611b1c565b611326576040517f08c379a000000000000000000000000000000000000000000000000000000000815260206004820152602360248201527f4678526f6f7454756e6e656c3a20494e56414c49445f524543454950545f505260448201527f4f4f4600000000000000000000000000000000000000000000000000000000006064820152608401610634565b6113548561133389611dc5565b61133c8a611de1565b846113468c611dfd565b61134f8d611e19565b611e35565b50600061136083611f9b565b90507f8c5261668696ce22758910d05bab8f186d6eb247ceac2af2e82c7dc17669b036611396611391836000611fd7565b61200f565b146113fd576040517f08c379a000000000000000000000000000000000000000000000000000000000815260206004820152601f60248201527f4678526f6f7454756e6e656c3a20494e56414c49445f5349474e4154555245006044820152606401610634565b60006114088461208a565b80602001905181019061141b9190613154565b9b9a5050505050505050505050565b600080600080600085806020019051810190611446919061327c565b73ffffffffffffffffffffffffffffffffffffffff808616600090815260046020526040902054959a509398509196509450925090811690851681146114e0576040517f3855947700000000000000000000000000000000000000000000000000000000815273ffffffffffffffffffffffffffffffffffffffff8088166004830152808716602483015282166044820152606401610634565b6114eb8684846120a6565b6040805173ffffffffffffffffffffffffffffffffffffffff86811682528581166020830152918101849052818716918816907faa4bbbc02123d0c446b55ec99a14078c9eab05cb4a271e6d8f8e278d9e4cd1849060600160405180910390a350505050505050565b60405173ffffffffffffffffffffffffffffffffffffffff808516602483015283166044820152606481018290526106f39085907f23b872dd00000000000000000000000000000000000000000000000000000000906084015b604080517fffffffffffffffffffffffffffffffffffffffffffffffffffffffffffffffe08184030181529190526020810180517bffffffffffffffffffffffffffffffffffffffffffffffffffffffff167fffffffff00000000000000000000000000000000000000000000000000000000909316929092179091526120c7565b604080516020810190915260608152600061167a6116758460408051808201825260008082526020918201528151808301909252825182529182019181019190915290565b6121d6565b60408051602081019091529081529392505050565b606061044182600001516008815181106116ab576116ab6132e7565b60200260200101516122e2565b600061044182600001516002815181106116d4576116d46132e7565b602002602001015161200f565b604080516020810190915260008152815160609190156104415760008061170960008661237f565b60f81c9050600181148061172057508060ff166003145b156117e0576001855160026117359190613316565b61173f91906130d6565b67ffffffffffffffff81111561175757611757612ead565b6040519080825280601f01601f191660200182016040528015611781576020820181803683370190505b509250600061179160018761237f565b905080846000815181106117a7576117a76132e7565b60200101907effffffffffffffffffffffffffffffffffffffffffffffffffffffffffffff1916908160001a9053506001925050611844565b6002855160026117f09190613316565b6117fa91906130d6565b67ffffffffffffffff81111561181257611812612ead565b6040519080825280601f01601f19166020018201604052801561183c576020820181803683370190505b509250600091505b60ff82165b83518110156118bc5761187361186260ff8516836130d6565b61186d90600261332d565b8761237f565b848281518110611885576118856132e7565b60200101907effffffffffffffffffffffffffffffffffffffffffffffffffffffffffffff1916908160001a905350600101611849565b50505092915050565b600061044182600001516009815181106116d4576116d46132e7565b61190560405180606001604052806060815260200160608152602001600081525090565b61191f82600001516006815181106116ab576116ab6132e7565b60208281018290526040805180820182526000808252908301528051808201909152825181529181019082015261195581612400565b1561196a57611963816121d6565b8252611a17565b60208201518051600090611980906001906130d6565b67ffffffffffffffff81111561199857611998612ead565b6040519080825280601f01601f1916602001820160405280156119c2576020820181803683370190505b5090506000808360210191508260200190506119e08282855161243b565b604080518082018252600080825260209182015281518083019092528451825280850190820152611a10906121d6565b8652505050505b611a20836118c5565b604083015250919050565b604080516080810182526000918101828152606080830193909352815260208101919091526000611a798360000151600381518110611a6c57611a6c6132e7565b60200260200101516121d6565b836040015181518110611a8e57611a8e6132e7565b602002602001015190506040518060400160405280828152602001611ab2836121d6565b90529392505050565b60006104418260200151600081518110611ad757611ad76132e7565b60200260200101516124c6565b600061044182600001516005815181106116d4576116d46132e7565b606061044182600001516007815181106116ab576116ab6132e7565b600080611b508460408051808201825260008082526020918201528151808301909252825182529182019181019190915290565b90506000611b5d826121d6565b905060608085600080611b6f8b6116e1565b90508051600003611b8a576000975050505050505050611dbd565b60005b8651811015611db4578151831115611bb057600098505050505050505050611dbd565b611bd2878281518110611bc557611bc56132e7565b60200260200101516124e0565b955085805190602001208414611bf357600098505050505050505050611dbd565b611c08878281518110611a6c57611a6c6132e7565b94508451601103611cda5781518303611c67578c80519060200120611c39866010815181106116ab576116ab6132e7565b8051906020012003611c5657600198505050505050505050611dbd565b600098505050505050505050611dbd565b6000828481518110611c7b57611c7b6132e7565b016020015160f81c90506010811115611ca05760009950505050505050505050611dbd565b611cc5868260ff1681518110611cb857611cb86132e7565b602002602001015161255f565b9450611cd260018561332d565b935050611dac565b8451600203611c56576000611d05611cfe876000815181106116ab576116ab6132e7565b848661258d565b8351909150611d14828661332d565b03611d67578d80519060200120611d37876001815181106116ab576116ab6132e7565b8051906020012003611d555760019950505050505050505050611dbd565b60009950505050505050505050611dbd565b80600003611d815760009950505050505050505050611dbd565b611d8b818561332d565b9350611da386600181518110611cb857611cb86132e7565b9450611dac9050565b600101611b8d565b50505050505050505b949350505050565b600061044182600001516003815181106116d4576116d46132e7565b600061044182600001516004815181106116d4576116d46132e7565b600061044182600001516000815181106116d4576116d46132e7565b606061044182600001516001815181106116ab576116ab6132e7565b6001546040517f41539d4a0000000000000000000000000000000000000000000000000000000081526004810184905260009182918291829173ffffffffffffffffffffffffffffffffffffffff909116906341539d4a9060240160a060405180830381865afa158015611ead573d6000803e3d6000fd5b505050506040513d601f19601f82011682018060405250810190611ed19190613340565b5093505092509250611f28828b611ee891906130d6565b6040805160208082018f90528183018e9052606082018d905260808083018d90528351808403909101815260a090920190925280519101209085886126ba565b611f8e576040517f08c379a000000000000000000000000000000000000000000000000000000000815260206004820152601c60248201527f4678526f6f7454756e6e656c3a20494e56414c49445f484541444552000000006044820152606401610634565b9998505050505050505050565b6040805160208101909152606081526040518060200160405280611fcf8460200151600181518110611a6c57611a6c6132e7565b905292915050565b60408051808201909152600080825260208201528251805183908110611fff57611fff6132e7565b6020026020010151905092915050565b80516000901580159061202457508151602110155b61202d57600080fd5b600061203c8360200151612867565b9050600081846000015161205091906130d6565b9050600080838660200151612065919061332d565b905080519150602083101561208157826020036101000a820491505b50949350505050565b606061044182602001516002815181106116ab576116ab6132e7565b61046a73ffffffffffffffffffffffffffffffffffffffff841683836128e2565b6000612129826040518060400160405280602081526020017f5361666545524332303a206c6f772d6c6576656c2063616c6c206661696c65648152508573ffffffffffffffffffffffffffffffffffffffff166129389092919063ffffffff16565b905080516000148061214a57508080602001905181019061214a91906130e9565b61046a576040517f08c379a000000000000000000000000000000000000000000000000000000000815260206004820152602a60248201527f5361666545524332303a204552433230206f7065726174696f6e20646964206e60448201527f6f742073756363656564000000000000000000000000000000000000000000006064820152608401610634565b60606121e182612400565b6121ea57600080fd5b60006121f583612947565b905060008167ffffffffffffffff81111561221257612212612ead565b60405190808252806020026020018201604052801561225757816020015b60408051808201909152600080825260208201528152602001906001900390816122305790505b50905060006122698560200151612867565b8560200151612278919061332d565b90506000805b848110156122d75761228f836129cc565b91506040518060400160405280838152602001848152508482815181106122b8576122b86132e7565b60209081029190910101526122cd828461332d565b925060010161227e565b509195945050505050565b80516060906122f057600080fd5b60006122ff8360200151612867565b9050600081846000015161231391906130d6565b905060008167ffffffffffffffff81111561233057612330612ead565b6040519080825280601f01601f19166020018201604052801561235a576020820181803683370190505b5090506000816020019050612081848760200151612378919061332d565b8285612a8e565b600061238c6002846133bc565b156123c65760108261239f6002866133d0565b815181106123af576123af6132e7565b01602001516123c1919060f81c6133e4565b6123f6565b6010826123d46002866133d0565b815181106123e4576123e46132e7565b01602001516123f6919060f81c613406565b60f81b9392505050565b8051600090810361241357506000919050565b6020820151805160001a9060c0821015612431575060009392505050565b5060019392505050565b8060000361244857505050565b60208110612480578251825261245f60208461332d565b925061246c60208361332d565b91506124796020826130d6565b9050612448565b8060000361248d57505050565b6000600161249c8360206130d6565b6124a890610100613548565b6124b291906130d6565b935183518516941916939093179091525050565b80516000906015146124d757600080fd5b6104418261200f565b60606000826000015167ffffffffffffffff81111561250157612501612ead565b6040519080825280601f01601f19166020018201604052801561252b576020820181803683370190505b509050805160000361253d5792915050565b60008160200190506125588460200151828660000151612a8e565b5092915050565b805160009060211461257057600080fd5b60008083602001516001612584919061332d565b51949350505050565b6000808061259a866116e1565b90506000815167ffffffffffffffff8111156125b8576125b8612ead565b6040519080825280601f01601f1916602001820160405280156125e2576020820181803683370190505b509050845b82516125f3908761332d565b81101561268b57600087828151811061260e5761260e6132e7565b01602001517fff00000000000000000000000000000000000000000000000000000000000000169050808361264389856130d6565b81518110612653576126536132e7565b60200101907effffffffffffffffffffffffffffffffffffffffffffffffffffffffffffff1916908160001a905350506001016125e7565b5080805190602001208280519060200120036126aa57815192506126af565b600092505b509095945050505050565b6000602082516126ca91906133bc565b15612731576040517f08c379a000000000000000000000000000000000000000000000000000000000815260206004820152601460248201527f496e76616c69642070726f6f66206c656e6774680000000000000000000000006044820152606401610634565b60006020835161274191906133d0565b905061274e816002613548565b85106127b6576040517f08c379a000000000000000000000000000000000000000000000000000000000815260206004820152601560248201527f4c65616620696e64657820697320746f6f2062696700000000000000000000006044820152606401610634565b60008660205b85518111612859578581015192506127d56002896133bc565b60000361280d57604080516020810184905290810184905260600160405160208183030381529060405280519060200120915061283a565b60408051602081018590529081018390526060016040516020818303038152906040528051906020012091505b6128456002896133d0565b975061285260208261332d565b90506127bc565b509094149695505050505050565b8051600090811a60808110156128805750600092915050565b60b881108061289b575060c0811080159061289b575060f881105b156128a95750600192915050565b60c08110156128d6576128be600160b8613554565b6128cb9060ff16826130d6565b61058b90600161332d565b6128be600160f8613554565b60405173ffffffffffffffffffffffffffffffffffffffff831660248201526044810182905261046a9084907fa9059cbb00000000000000000000000000000000000000000000000000000000906064016115ae565b6060611dbd8484600085612ad3565b8051600090810361295a57506000919050565b60008061296a8460200151612867565b8460200151612979919061332d565b9050600084600001518560200151612991919061332d565b90505b808210156129c3576129a5826129cc565b6129af908361332d565b9150826129bb8161356d565b935050612994565b50909392505050565b80516000908190811a60808110156129e75760019150612558565b60b8811015612a0d576129fb6080826130d6565b612a0690600161332d565b9150612558565b60c0811015612a3a5760b78103600185019450806020036101000a85510460018201810193505050612558565b60f8811015612a4e576129fb60c0826130d6565b60019390930151602084900360f7016101000a90049092017fffffffffffffffffffffffffffffffffffffffffffffffffffffffffffffff0a0192915050565b80600003612a9b57505050565b602081106124805782518252612ab260208461332d565b9250612abf60208361332d565b9150612acc6020826130d6565b9050612a9b565b606082471015612b65576040517f08c379a000000000000000000000000000000000000000000000000000000000815260206004820152602660248201527f416464726573733a20696e73756666696369656e742062616c616e636520666f60448201527f722063616c6c00000000000000000000000000000000000000000000000000006064820152608401610634565b6000808673ffffffffffffffffffffffffffffffffffffffff168587604051612b8e91906135a5565b60006040518083038185875af1925050503d8060008114612bcb576040519150601f19603f3d011682016040523d82523d6000602084013e612bd0565b606091505b5091509150612be187838387612bec565b979650505050505050565b60608315612c82578251600003612c7b5773ffffffffffffffffffffffffffffffffffffffff85163b612c7b576040517f08c379a000000000000000000000000000000000000000000000000000000000815260206004820152601d60248201527f416464726573733a2063616c6c20746f206e6f6e2d636f6e74726163740000006044820152606401610634565b5081611dbd565b611dbd8383815115612c975781518083602001fd5b806040517f08c379a000000000000000000000000000000000000000000000000000000000815260040161063491906135c1565b600060208284031215612cdd57600080fd5b81357fffffffff000000000000000000000000000000000000000000000000000000008116811461058b57600080fd5b73ffffffffffffffffffffffffffffffffffffffff81168114612d2f57600080fd5b50565b60008060408385031215612d4557600080fd5b8235612d5081612d0d565b946020939093013593505050565b600080600080600060808688031215612d7657600080fd5b8535612d8181612d0d565b94506020860135612d9181612d0d565b935060408601359250606086013567ffffffffffffffff80821115612db557600080fd5b818801915088601f830112612dc957600080fd5b813581811115612dd857600080fd5b896020828501011115612dea57600080fd5b9699959850939650602001949392505050565b600060208284031215612e0f57600080fd5b813561058b81612d0d565b600060208284031215612e2c57600080fd5b5035919050565b600080600060608486031215612e4857600080fd5b83359250602084013591506040840135612e6181612d0d565b809150509250925092565b600080600060608486031215612e8157600080fd5b8335612e8c81612d0d565b92506020840135612e9c81612d0d565b929592945050506040919091013590565b7f4e487b7100000000000000000000000000000000000000000000000000000000600052604160045260246000fd5b604051601f82017fffffffffffffffffffffffffffffffffffffffffffffffffffffffffffffffe016810167ffffffffffffffff81118282101715612f2357612f23612ead565b604052919050565b600067ffffffffffffffff821115612f4557612f45612ead565b50601f017fffffffffffffffffffffffffffffffffffffffffffffffffffffffffffffffe01660200190565b600060208284031215612f8357600080fd5b813567ffffffffffffffff811115612f9a57600080fd5b8201601f81018413612fab57600080fd5b8035612fbe612fb982612f2b565b612edc565b818152856020838501011115612fd357600080fd5b81602084016020830137600091810160200191909152949350505050565b60005b8381101561300c578181015183820152602001612ff4565b50506000910152565b6000815180845261302d816020860160208601612ff1565b601f017fffffffffffffffffffffffffffffffffffffffffffffffffffffffffffffffe0169290920160200192915050565b73ffffffffffffffffffffffffffffffffffffffff83168152604060208201526000611dbd6040830184613015565b828152604060208201526000611dbd6040830184613015565b7f4e487b7100000000000000000000000000000000000000000000000000000000600052601160045260246000fd5b81810381811115610441576104416130a7565b6000602082840312156130fb57600080fd5b8151801515811461058b57600080fd5b60006020828403121561311d57600080fd5b5051919050565b6000613132612fb984612f2b565b905082815283838301111561314657600080fd5b61058b836020830184612ff1565b60006020828403121561316657600080fd5b815167ffffffffffffffff81111561317d57600080fd5b8201601f8101841361318e57600080fd5b611dbd84825160208401613124565b6000602082840312156131af57600080fd5b815160ff8116811461058b57600080fd5b6000602082840312156131d257600080fd5b815161058b81612d0d565b86815260c0602082015260006131f660c0830188613015565b82810360408401526132088188613015565b905060ff8616606084015282810360808401526132258186613015565b91505073ffffffffffffffffffffffffffffffffffffffff831660a0830152979650505050505050565b83815260008351613267816020850160208801612ff1565b60209201918201929092526040019392505050565b600080600080600060a0868803121561329457600080fd5b855161329f81612d0d565b60208701519095506132b081612d0d565b60408701519094506132c181612d0d565b60608701519093506132d281612d0d565b80925050608086015190509295509295909350565b7f4e487b7100000000000000000000000000000000000000000000000000000000600052603260045260246000fd5b8082028115828204841417610441576104416130a7565b80820180821115610441576104416130a7565b600080600080600060a0868803121561335857600080fd5b85519450602086015193506040860151925060608601519150608086015161337f81612d0d565b809150509295509295909350565b7f4e487b7100000000000000000000000000000000000000000000000000000000600052601260045260246000fd5b6000826133cb576133cb61338d565b500690565b6000826133df576133df61338d565b500490565b600060ff8316806133f7576133f761338d565b8060ff84160691505092915050565b600060ff8316806134195761341961338d565b8060ff84160491505092915050565b600181815b8085111561348157817fffffffffffffffffffffffffffffffffffffffffffffffffffffffffffffffff04821115613467576134676130a7565b8085161561347457918102915b93841c939080029061342d565b509250929050565b60008261349857506001610441565b816134a557506000610441565b81600181146134bb57600281146134c5576134e1565b6001915050610441565b60ff8411156134d6576134d66130a7565b50506001821b610441565b5060208310610133831016604e8410600b8410161715613504575081810a610441565b61350e8383613428565b807fffffffffffffffffffffffffffffffffffffffffffffffffffffffffffffffff04821115613540576135406130a7565b029392505050565b600061058b8383613489565b60ff8281168282160390811115610441576104416130a7565b60007fffffffffffffffffffffffffffffffffffffffffffffffffffffffffffffffff820361359e5761359e6130a7565b5060010190565b600082516135b7818460208701612ff1565b9190910192915050565b60208152600061058b602083018461301556fea26469706673582212207375b7dbeb7e4c20e3995ed19fbe835e5738b0d8225e205daca2ee608bc8d5ec64736f6c63430008160033",
  "linkReferences": {},
  "deployedLinkReferences": {}
}