{
  "_format": "hh-sol-artifact-1",
  "contractName": "FxERC20MintBurn",
  "sourceName": "contracts/fx-portal/ERC20/token/FxERC20MintBurn.sol",
  "abi": [
    {
      "inputs": [
        {
          "internalType": "contract IForwarderRegistry",
          "name": "forwarderRegistry",
          "type": "address"
        }
      ],
      "stateMutability": "nonpayable",
      "type": "constructor"
    },
    {
      "anonymous": false,
      "inputs": [
        {
          "indexed": true,
          "internalType": "address",
          "name": "owner",
          "type": "address"
        },
        {
          "indexed": true,
          "internalType": "address",
          "name": "spender",
          "type": "address"
        },
        {
          "indexed": false,
          "internalType": "uint256",
          "name": "value",
          "type": "uint256"
        }
      ],
      "name": "Approval",
      "type": "event"
    },
    {
      "anonymous": false,
      "inputs": [
        {
          "indexed": true,
          "internalType": "address",
          "name": "previousOwner",
          "type": "address"
        },
        {
          "indexed": true,
          "internalType": "address",
          "name": "newOwner",
          "type": "address"
        }
      ],
      "name": "OwnershipTransferred",
      "type": "event"
    },
    {
      "anonymous": false,
      "inputs": [
        {
          "indexed": false,
          "internalType": "bytes32",
          "name": "role",
          "type": "bytes32"
        },
        {
          "indexed": false,
          "internalType": "address",
          "name": "account",
          "type": "address"
        },
        {
          "indexed": false,
          "internalType": "address",
          "name": "operator",
          "type": "address"
        }
      ],
      "name": "RoleGranted",
      "type": "event"
    },
    {
      "anonymous": false,
      "inputs": [
        {
          "indexed": false,
          "internalType": "bytes32",
          "name": "role",
          "type": "bytes32"
        },
        {
          "indexed": false,
          "internalType": "address",
          "name": "account",
          "type": "address"
        },
        {
          "indexed": false,
          "internalType": "address",
          "name": "operator",
          "type": "address"
        }
      ],
      "name": "RoleRevoked",
      "type": "event"
    },
    {
      "anonymous": false,
      "inputs": [
        {
          "indexed": true,
          "internalType": "address",
          "name": "from",
          "type": "address"
        },
        {
          "indexed": true,
          "internalType": "address",
          "name": "to",
          "type": "address"
        },
        {
          "indexed": false,
          "internalType": "uint256",
          "name": "value",
          "type": "uint256"
        }
      ],
      "name": "Transfer",
      "type": "event"
    },
    {
      "inputs": [],
      "name": "DOMAIN_SEPARATOR",
      "outputs": [
        {
          "internalType": "bytes32",
          "name": "",
          "type": "bytes32"
        }
      ],
      "stateMutability": "view",
      "type": "function"
    },
    {
      "inputs": [],
      "name": "MINTER_ROLE",
      "outputs": [
        {
          "internalType": "bytes32",
          "name": "",
          "type": "bytes32"
        }
      ],
      "stateMutability": "view",
      "type": "function"
    },
    {
      "inputs": [
        {
          "internalType": "address",
          "name": "owner",
          "type": "address"
        },
        {
          "internalType": "address",
          "name": "spender",
          "type": "address"
        }
      ],
      "name": "allowance",
      "outputs": [
        {
          "internalType": "uint256",
          "name": "value",
          "type": "uint256"
        }
      ],
      "stateMutability": "view",
      "type": "function"
    },
    {
      "inputs": [
        {
          "internalType": "address",
          "name": "spender",
          "type": "address"
        },
        {
          "internalType": "uint256",
          "name": "value",
          "type": "uint256"
        }
      ],
      "name": "approve",
      "outputs": [
        {
          "internalType": "bool",
          "name": "result",
          "type": "bool"
        }
      ],
      "stateMutability": "nonpayable",
      "type": "function"
    },
    {
      "inputs": [
        {
          "internalType": "address",
          "name": "owner",
          "type": "address"
        }
      ],
      "name": "balanceOf",
      "outputs": [
        {
          "internalType": "uint256",
          "name": "balance",
          "type": "uint256"
        }
      ],
      "stateMutability": "view",
      "type": "function"
    },
    {
      "inputs": [
        {
          "internalType": "address[]",
          "name": "owners",
          "type": "address[]"
        },
        {
          "internalType": "uint256[]",
          "name": "values",
          "type": "uint256[]"
        }
      ],
      "name": "batchBurnFrom",
      "outputs": [
        {
          "internalType": "bool",
          "name": "",
          "type": "bool"
        }
      ],
      "stateMutability": "nonpayable",
      "type": "function"
    },
    {
      "inputs": [
        {
          "internalType": "address[]",
          "name": "recipients",
          "type": "address[]"
        },
        {
          "internalType": "uint256[]",
          "name": "values",
          "type": "uint256[]"
        }
      ],
      "name": "batchMint",
      "outputs": [],
      "stateMutability": "nonpayable",
      "type": "function"
    },
    {
      "inputs": [
        {
          "internalType": "address[]",
          "name": "recipients",
          "type": "address[]"
        },
        {
          "internalType": "uint256[]",
          "name": "values",
          "type": "uint256[]"
        }
      ],
      "name": "batchTransfer",
      "outputs": [
        {
          "internalType": "bool",
          "name": "",
          "type": "bool"
        }
      ],
      "stateMutability": "nonpayable",
      "type": "function"
    },
    {
      "inputs": [
        {
          "internalType": "address",
          "name": "from",
          "type": "address"
        },
        {
          "internalType": "address[]",
          "name": "recipients",
          "type": "address[]"
        },
        {
          "internalType": "uint256[]",
          "name": "values",
          "type": "uint256[]"
        }
      ],
      "name": "batchTransferFrom",
      "outputs": [
        {
          "internalType": "bool",
          "name": "",
          "type": "bool"
        }
      ],
      "stateMutability": "nonpayable",
      "type": "function"
    },
    {
      "inputs": [
        {
          "internalType": "uint256",
          "name": "value",
          "type": "uint256"
        }
      ],
      "name": "burn",
      "outputs": [
        {
          "internalType": "bool",
          "name": "",
          "type": "bool"
        }
      ],
      "stateMutability": "nonpayable",
      "type": "function"
    },
    {
      "inputs": [
        {
          "internalType": "address",
          "name": "from",
          "type": "address"
        },
        {
          "internalType": "uint256",
          "name": "value",
          "type": "uint256"
        }
      ],
      "name": "burnFrom",
      "outputs": [
        {
          "internalType": "bool",
          "name": "",
          "type": "bool"
        }
      ],
      "stateMutability": "nonpayable",
      "type": "function"
    },
    {
      "inputs": [],
      "name": "connectedToken",
      "outputs": [
        {
          "internalType": "address",
          "name": "",
          "type": "address"
        }
      ],
      "stateMutability": "view",
      "type": "function"
    },
    {
      "inputs": [],
      "name": "decimals",
      "outputs": [
        {
          "internalType": "uint8",
          "name": "",
          "type": "uint8"
        }
      ],
      "stateMutability": "view",
      "type": "function"
    },
    {
      "inputs": [
        {
          "internalType": "address",
          "name": "spender",
          "type": "address"
        },
        {
          "internalType": "uint256",
          "name": "subtractedValue",
          "type": "uint256"
        }
      ],
      "name": "decreaseAllowance",
      "outputs": [
        {
          "internalType": "bool",
          "name": "result",
          "type": "bool"
        }
      ],
      "stateMutability": "nonpayable",
      "type": "function"
    },
    {
      "inputs": [],
      "name": "forwarderRegistry",
      "outputs": [
        {
          "internalType": "contract IForwarderRegistry",
          "name": "",
          "type": "address"
        }
      ],
      "stateMutability": "view",
      "type": "function"
    },
    {
      "inputs": [],
      "name": "fxManager",
      "outputs": [
        {
          "internalType": "address",
          "name": "",
          "type": "address"
        }
      ],
      "stateMutability": "view",
      "type": "function"
    },
    {
      "inputs": [
        {
          "internalType": "bytes32",
          "name": "role",
          "type": "bytes32"
        },
        {
          "internalType": "address",
          "name": "account",
          "type": "address"
        }
      ],
      "name": "grantRole",
      "outputs": [],
      "stateMutability": "nonpayable",
      "type": "function"
    },
    {
      "inputs": [
        {
          "internalType": "bytes32",
          "name": "role",
          "type": "bytes32"
        },
        {
          "internalType": "address",
          "name": "account",
          "type": "address"
        }
      ],
      "name": "hasRole",
      "outputs": [
        {
          "internalType": "bool",
          "name": "",
          "type": "bool"
        }
      ],
      "stateMutability": "view",
      "type": "function"
    },
    {
      "inputs": [
        {
          "internalType": "address",
          "name": "spender",
          "type": "address"
        },
        {
          "internalType": "uint256",
          "name": "addedValue",
          "type": "uint256"
        }
      ],
      "name": "increaseAllowance",
      "outputs": [
        {
          "internalType": "bool",
          "name": "result",
          "type": "bool"
        }
      ],
      "stateMutability": "nonpayable",
      "type": "function"
    },
    {
      "inputs": [
        {
          "internalType": "address",
          "name": "fxManager_",
          "type": "address"
        },
        {
          "internalType": "address",
          "name": "connectedToken_",
          "type": "address"
        },
        {
          "internalType": "string",
          "name": "tokenName",
          "type": "string"
        },
        {
          "internalType": "string",
          "name": "tokenSymbol",
          "type": "string"
        },
        {
          "internalType": "uint8",
          "name": "tokenDecimals",
          "type": "uint8"
        },
        {
          "internalType": "string",
          "name": "uri",
          "type": "string"
        },
        {
          "internalType": "address",
          "name": "initialOwner",
          "type": "address"
        }
      ],
      "name": "initialize",
      "outputs": [],
      "stateMutability": "nonpayable",
      "type": "function"
    },
    {
      "inputs": [
        {
          "internalType": "address",
          "name": "forwarder",
          "type": "address"
        }
      ],
      "name": "isTrustedForwarder",
      "outputs": [
        {
          "internalType": "bool",
          "name": "",
          "type": "bool"
        }
      ],
      "stateMutability": "view",
      "type": "function"
    },
    {
      "inputs": [
        {
          "internalType": "address",
          "name": "to",
          "type": "address"
        },
        {
          "internalType": "uint256",
          "name": "value",
          "type": "uint256"
        }
      ],
      "name": "mint",
      "outputs": [],
      "stateMutability": "nonpayable",
      "type": "function"
    },
    {
      "inputs": [],
      "name": "name",
      "outputs": [
        {
          "internalType": "string",
          "name": "",
          "type": "string"
        }
      ],
      "stateMutability": "view",
      "type": "function"
    },
    {
      "inputs": [
        {
          "internalType": "address",
          "name": "owner",
          "type": "address"
        }
      ],
      "name": "nonces",
      "outputs": [
        {
          "internalType": "uint256",
          "name": "",
          "type": "uint256"
        }
      ],
      "stateMutability": "view",
      "type": "function"
    },
    {
      "inputs": [],
      "name": "owner",
      "outputs": [
        {
          "internalType": "address",
          "name": "",
          "type": "address"
        }
      ],
      "stateMutability": "view",
      "type": "function"
    },
    {
      "inputs": [
        {
          "internalType": "address",
          "name": "owner",
          "type": "address"
        },
        {
          "internalType": "address",
          "name": "spender",
          "type": "address"
        },
        {
          "internalType": "uint256",
          "name": "value",
          "type": "uint256"
        },
        {
          "internalType": "uint256",
          "name": "deadline",
          "type": "uint256"
        },
        {
          "internalType": "uint8",
          "name": "v",
          "type": "uint8"
        },
        {
          "internalType": "bytes32",
          "name": "r",
          "type": "bytes32"
        },
        {
          "internalType": "bytes32",
          "name": "s",
          "type": "bytes32"
        }
      ],
      "name": "permit",
      "outputs": [],
      "stateMutability": "nonpayable",
      "type": "function"
    },
    {
      "inputs": [
        {
          "internalType": "address[]",
          "name": "accounts",
          "type": "address[]"
        },
        {
          "internalType": "contract IERC20[]",
          "name": "tokens",
          "type": "address[]"
        },
        {
          "internalType": "uint256[]",
          "name": "amounts",
          "type": "uint256[]"
        }
      ],
      "name": "recoverERC20s",
      "outputs": [],
      "stateMutability": "nonpayable",
      "type": "function"
    },
    {
      "inputs": [
        {
          "internalType": "address[]",
          "name": "accounts",
          "type": "address[]"
        },
        {
          "internalType": "contract IERC721[]",
          "name": "contracts",
          "type": "address[]"
        },
        {
          "internalType": "uint256[]",
          "name": "tokenIds",
          "type": "uint256[]"
        }
      ],
      "name": "recoverERC721s",
      "outputs": [],
      "stateMutability": "nonpayable",
      "type": "function"
    },
    {
      "inputs": [
        {
          "internalType": "address payable[]",
          "name": "accounts",
          "type": "address[]"
        },
        {
          "internalType": "uint256[]",
          "name": "amounts",
          "type": "uint256[]"
        }
      ],
      "name": "recoverETH",
      "outputs": [],
      "stateMutability": "nonpayable",
      "type": "function"
    },
    {
      "inputs": [
        {
          "internalType": "bytes32",
          "name": "role",
          "type": "bytes32"
        }
      ],
      "name": "renounceRole",
      "outputs": [],
      "stateMutability": "nonpayable",
      "type": "function"
    },
    {
      "inputs": [
        {
          "internalType": "bytes32",
          "name": "role",
          "type": "bytes32"
        },
        {
          "internalType": "address",
          "name": "account",
          "type": "address"
        }
      ],
      "name": "revokeRole",
      "outputs": [],
      "stateMutability": "nonpayable",
      "type": "function"
    },
    {
      "inputs": [
        {
          "internalType": "address",
          "name": "to",
          "type": "address"
        },
        {
          "internalType": "uint256",
          "name": "value",
          "type": "uint256"
        },
        {
          "internalType": "bytes",
          "name": "data",
          "type": "bytes"
        }
      ],
      "name": "safeTransfer",
      "outputs": [
        {
          "internalType": "bool",
          "name": "",
          "type": "bool"
        }
      ],
      "stateMutability": "nonpayable",
      "type": "function"
    },
    {
      "inputs": [
        {
          "internalType": "address",
          "name": "from",
          "type": "address"
        },
        {
          "internalType": "address",
          "name": "to",
          "type": "address"
        },
        {
          "internalType": "uint256",
          "name": "value",
          "type": "uint256"
        },
        {
          "internalType": "bytes",
          "name": "data",
          "type": "bytes"
        }
      ],
      "name": "safeTransferFrom",
      "outputs": [
        {
          "internalType": "bool",
          "name": "",
          "type": "bool"
        }
      ],
      "stateMutability": "nonpayable",
      "type": "function"
    },
    {
      "inputs": [
        {
          "internalType": "string",
          "name": "uri",
          "type": "string"
        }
      ],
      "name": "setTokenURI",
      "outputs": [],
      "stateMutability": "nonpayable",
      "type": "function"
    },
    {
      "inputs": [
        {
          "internalType": "bytes4",
          "name": "interfaceId",
          "type": "bytes4"
        }
      ],
      "name": "supportsInterface",
      "outputs": [
        {
          "internalType": "bool",
          "name": "",
          "type": "bool"
        }
      ],
      "stateMutability": "view",
      "type": "function"
    },
    {
      "inputs": [],
      "name": "symbol",
      "outputs": [
        {
          "internalType": "string",
          "name": "",
          "type": "string"
        }
      ],
      "stateMutability": "view",
      "type": "function"
    },
    {
      "inputs": [],
      "name": "tokenURI",
      "outputs": [
        {
          "internalType": "string",
          "name": "",
          "type": "string"
        }
      ],
      "stateMutability": "view",
      "type": "function"
    },
    {
      "inputs": [],
      "name": "totalSupply",
      "outputs": [
        {
          "internalType": "uint256",
          "name": "supply",
          "type": "uint256"
        }
      ],
      "stateMutability": "view",
      "type": "function"
    },
    {
      "inputs": [
        {
          "internalType": "address",
          "name": "to",
          "type": "address"
        },
        {
          "internalType": "uint256",
          "name": "value",
          "type": "uint256"
        }
      ],
      "name": "transfer",
      "outputs": [
        {
          "internalType": "bool",
          "name": "result",
          "type": "bool"
        }
      ],
      "stateMutability": "nonpayable",
      "type": "function"
    },
    {
      "inputs": [
        {
          "internalType": "address",
          "name": "from",
          "type": "address"
        },
        {
          "internalType": "address",
          "name": "to",
          "type": "address"
        },
        {
          "internalType": "uint256",
          "name": "value",
          "type": "uint256"
        }
      ],
      "name": "transferFrom",
      "outputs": [
        {
          "internalType": "bool",
          "name": "result",
          "type": "bool"
        }
      ],
      "stateMutability": "nonpayable",
      "type": "function"
    },
    {
      "inputs": [
        {
          "internalType": "address",
          "name": "newOwner",
          "type": "address"
        }
      ],
      "name": "transferOwnership",
      "outputs": [],
      "stateMutability": "nonpayable",
      "type": "function"
    }
  ],
  "bytecode": "0x60a06040523480156200001157600080fd5b5060405162004b3538038062004b35833981016040819052620000349162000046565b6001600160a01b031660805262000078565b6000602082840312156200005957600080fd5b81516001600160a01b03811681146200007157600080fd5b9392505050565b608051614a8c620000a9600039600081816103930152818161045201528181613c650152613ced0152614a8c6000f3fe608060405234801561001057600080fd5b50600436106102d35760003560e01c806379cc679011610186578063a9059cbb116100e3578063d547741f11610097578063eb79554911610071578063eb79554914610611578063f2fde38b14610624578063f7ba94bd1461063757600080fd5b8063d547741f146105d8578063dd62ed3e146105eb578063e0df5b6f146105fe57600080fd5b8063c3666c36116100c8578063c3666c361461058b578063d505accf1461059e578063d5391393146105b157600080fd5b8063a9059cbb14610565578063b88d4fde1461057857600080fd5b806391d148541161013a5780639a0186a31161011f5780639a0186a3146105375780639b7791531461054a578063a457c2d71461055257600080fd5b806391d148541461051c57806395d89b411461052f57600080fd5b806388d695b21161016b57806388d695b2146104ee5780638bb9c5bf146105015780638da5cb5b1461051457600080fd5b806379cc6790146104c85780637ecebe00146104db57600080fd5b80633644e515116102345780634885b254116101e857806368573107116101cd578063685731071461048f57806370a08231146104a257806373c8a958146104b557600080fd5b80634885b2541461042f578063572b6c051461044257600080fd5b80633c130d90116102195780633c130d901461040157806340c10f191461040957806342966c681461041c57600080fd5b80633644e515146103e657806339509351146103ee57600080fd5b80631b9a75291161028b5780632b4c9f16116102705780632b4c9f16146103915780632f2ff15d146103b7578063313ce567146103cc57600080fd5b80631b9a75291461036b57806323b872dd1461037e57600080fd5b8063095ea7b3116102bc578063095ea7b3146103155780630a8a49141461032857806318160ddd1461035557600080fd5b806301ffc9a7146102d857806306fdde0314610300575b600080fd5b6102eb6102e63660046140bd565b61064a565b60405190151581526020015b60405180910390f35b610308610664565b6040516102f79190614148565b6102eb61032336600461418d565b61067b565b6103306106a3565b60405173ffffffffffffffffffffffffffffffffffffffff90911681526020016102f7565b61035d6106cd565b6040519081526020016102f7565b6102eb610379366004614205565b6106e1565b6102eb61038c366004614271565b61070f565b7f0000000000000000000000000000000000000000000000000000000000000000610330565b6103ca6103c53660046142b2565b61073b565b005b6103d4610774565b60405160ff90911681526020016102f7565b61035d61078b565b6102eb6103fc36600461418d565b610795565b6103086107b4565b6103ca61041736600461418d565b6107c1565b6102eb61042a3660046142e2565b610814565b6102eb61043d3660046142fb565b610839565b6102eb61045036600461437e565b7f000000000000000000000000000000000000000000000000000000000000000073ffffffffffffffffffffffffffffffffffffffff90811691161490565b6103ca61049d366004614205565b61086a565b61035d6104b036600461437e565b610914565b6103ca6104c336600461439b565b61094c565b6102eb6104d636600461418d565b610a7c565b61035d6104e936600461437e565b610a9b565b6102eb6104fc366004614205565b610aa9565b6103ca61050f3660046142e2565b610acc565b610330610aea565b6102eb61052a3660046142b2565b610b11565b610308610b55565b6103ca610545366004614488565b610b67565b610330610b95565b6102eb61056036600461418d565b610ba2565b6102eb61057336600461418d565b610bc1565b6102eb61058636600461456b565b610be0565b6103ca61059936600461439b565b610c05565b6103ca6105ac3660046145cd565b610daa565b61035d7f6d696e746572000000000000000000000000000000000000000000000000000081565b6103ca6105e63660046142b2565b610dd1565b61035d6105f936600461463b565b610dff565b6103ca61060c366004614669565b610e4a565b6102eb61061f3660046146ab565b610e69565b6103ca61063236600461437e565b610e8c565b6103ca610645366004614205565b610ea7565b600061065e82610658610f95565b90610fc3565b92915050565b606061067661067161109d565b6110cb565b905090565b600061069a610688611161565b848461069261116b565b929190611199565b50600192915050565b60006106766106b0611288565b6001015473ffffffffffffffffffffffffffffffffffffffff1690565b60006106766106da61116b565b6002015490565b60006107046106ee611161565b868686866106fa61116b565b94939291906112b6565b506001949350505050565b600061073061071c611161565b85858561072761116b565b939291906114f8565b5060015b9392505050565b6000610745611161565b90506107598161075361154a565b90611578565b61076f8383836107676115fb565b929190611629565b505050565b600061067661078161109d565b6002015460ff1690565b60006106766116ff565b600061069a6107a2611161565b84846107ac61116b565b92919061179a565b6060610676610671611966565b6107fc7f6d696e74657200000000000000000000000000000000000000000000000000006107ed611161565b6107f56115fb565b9190611994565b610810828261080961116b565b9190611a40565b5050565b6000610831610821611161565b8361082a61116b565b9190611bba565b506001919050565b600061085e610846611161565b878787878761085361116b565b959493929190611cd0565b50600195945050505050565b6108967f6d696e74657200000000000000000000000000000000000000000000000000006107ed611161565b61090e84848080602002602001604051908101604052809392919081815260200183836020028082843760009201919091525050604080516020808802828101820190935287825290935087925086918291850190849080828437600092019190915250610907925061116b915050565b9190612116565b50505050565b600061065e8261092261116b565b9073ffffffffffffffffffffffffffffffffffffffff166000908152602091909152604090205490565b61095f610957611161565b61075361154a565b84838114801561096e57508082145b6109d9576040517f08c379a000000000000000000000000000000000000000000000000000000000815260206004820152601d60248201527f5265636f766572793a20696e636f6e73697374656e742061727261797300000060448201526064015b60405180910390fd5b60005b818114610a7257610a6a8888838181106109f8576109f86146fb565b9050602002016020810190610a0d919061437e565b858584818110610a1f57610a1f6146fb565b90506020020135888885818110610a3857610a386146fb565b9050602002016020810190610a4d919061437e565b73ffffffffffffffffffffffffffffffffffffffff1691906123ec565b6001016109dc565b5050505050505050565b600061069a610a89611161565b8484610a9361116b565b929190612479565b600061065e826109226124c3565b6000610704610ab6611161565b86868686610ac261116b565b94939291906124f1565b610ae7610ad7611161565b82610ae06115fb565b91906128d2565b50565b6000610676610af761154a565b5473ffffffffffffffffffffffffffffffffffffffff1690565b60006107348383610b206115fb565b60009283526020908152604080842073ffffffffffffffffffffffffffffffffffffffff909316845291905290205460ff1690565b6060610676610b6261109d565b612976565b610b798a8a8a8a8a8a8a8a8a8a612987565b610b816129fc565b610b89612a33565b50505050505050505050565b6000610676610af7611288565b600061069a610baf611161565b8484610bb961116b565b929190612a61565b600061069a610bce611161565b8484610bd861116b565b929190612bb3565b600061085e610bed611161565b8787878787610bfa61116b565b959493929190612d94565b610c10610957611161565b848381148015610c1f57508082145b610c85576040517f08c379a000000000000000000000000000000000000000000000000000000000815260206004820152601d60248201527f5265636f766572793a20696e636f6e73697374656e742061727261797300000060448201526064016109d0565b60005b818114610a7257858582818110610ca157610ca16146fb565b9050602002016020810190610cb6919061437e565b73ffffffffffffffffffffffffffffffffffffffff166323b872dd308a8a85818110610ce457610ce46146fb565b9050602002016020810190610cf9919061437e565b878786818110610d0b57610d0b6146fb565b6040517fffffffff0000000000000000000000000000000000000000000000000000000060e088901b16815273ffffffffffffffffffffffffffffffffffffffff958616600482015294909316602485015250602090910201356044820152606401600060405180830381600087803b158015610d8757600080fd5b505af1158015610d9b573d6000803e3d6000fd5b50505050806001019050610c88565b610dc887878787878787610dbc6124c3565b96959493929190612e01565b50505050505050565b6000610ddb611161565b9050610de98161075361154a565b61076f838383610df76115fb565b9291906130fd565b60006107348383610e0e61116b565b919073ffffffffffffffffffffffffffffffffffffffff9182166000908152600193909301602090815260408085209290931684525290205490565b610e55610957611161565b6108108282610e62611966565b91906131c7565b6000610704610e76611161565b86868686610e8261116b565b94939291906131d3565b610ae7610e97611161565b82610ea061154a565b919061323f565b610eb2610957611161565b82818114610f1c576040517f08c379a000000000000000000000000000000000000000000000000000000000815260206004820152601d60248201527f5265636f766572793a20696e636f6e73697374656e742061727261797300000060448201526064016109d0565b60005b818114610f8d57610f85848483818110610f3b57610f3b6146fb565b90506020020135878784818110610f5457610f546146fb565b9050602002016020810190610f69919061437e565b73ffffffffffffffffffffffffffffffffffffffff169061336b565b600101610f1f565b505050505050565b60008061065e60017fca9d3e17f264b0f3984e2634e94adb37fa3e6a8103f06aeae6fa59e21c769f5e61472a565b60007c01000000000000000000000000000000000000000000000000000000007fffffffff000000000000000000000000000000000000000000000000000000008316016110135750600061065e565b7ffe003659000000000000000000000000000000000000000000000000000000007fffffffff000000000000000000000000000000000000000000000000000000008316016110645750600161065e565b507fffffffff00000000000000000000000000000000000000000000000000000000166000908152602091909152604090205460ff1690565b60008061065e60017f335df4119bbb04f056b33eba33b826d3529129e458faf6daa9924b5a8f3b6a8261472a565b60608160000180546110dc90614764565b80601f016020809104026020016040519081016040528092919081815260200182805461110890614764565b80156111555780601f1061112a57610100808354040283529160200191611155565b820191906000526020600020905b81548152906001019060200180831161113857829003601f168201915b50505050509050919050565b60006106766134c5565b60008061065e60017f1da92899d3da68bf9787824388a37ea2bfa79780bcef91b9716c390eec8ecbef61472a565b73ffffffffffffffffffffffffffffffffffffffff8216611216576040517f08c379a000000000000000000000000000000000000000000000000000000000815260206004820152601d60248201527f45524332303a20617070726f76616c20746f206164647265737328302900000060448201526064016109d0565b73ffffffffffffffffffffffffffffffffffffffff838116600081815260018701602090815260408083209487168084529482529182902085905590518481527f8c5be1e5ebec7d5bd14f71427d1e84f3dd0314c0f7b2291e5b200ac8c7c3b92591015b60405180910390a350505050565b60008061065e60017ffbf67eff80ed72d4d972e624738c2b5704d828cc6926cf8653e1018c8eef81c061472a565b82818114611320576040517f08c379a000000000000000000000000000000000000000000000000000000000815260206004820152601a60248201527f45524332303a20696e636f6e73697374656e742061727261797300000000000060448201526064016109d0565b8060000361132e5750610f8d565b6000805b8281146114dc57600087878381811061134d5761134d6146fb565b9050602002016020810190611362919061437e565b90506000868684818110611378576113786146fb565b9050602002013590508973ffffffffffffffffffffffffffffffffffffffff168273ffffffffffffffffffffffffffffffffffffffff16146113c0576113c08b838c84612a61565b80156114845773ffffffffffffffffffffffffffffffffffffffff8216600090815260208c90526040902054818103818110611458576040517f08c379a000000000000000000000000000000000000000000000000000000000815260206004820152601b60248201527f45524332303a20696e73756666696369656e742062616c616e6365000000000060448201526064016109d0565b73ffffffffffffffffffffffffffffffffffffffff8416600090815260208e9052604090205550928301925b60405181815260009073ffffffffffffffffffffffffffffffffffffffff8416907fddf252ad1be2c89b69c2b068fc378daa952ba7f163c4a11628f55a4df523b3ef9060200160405180910390a35050600101611332565b508015610a725760028801805482900390555050505050505050565b8373ffffffffffffffffffffffffffffffffffffffff168373ffffffffffffffffffffffffffffffffffffffff16146115375761153785848684612a61565b61154385848484612bb3565b5050505050565b60008061065e60017fc9ed16f33ab3a66c84bfd83099ccb2a8845871e2e1c1928f63797152f0fd54cd61472a565b815473ffffffffffffffffffffffffffffffffffffffff828116911614610810576040517f08c379a000000000000000000000000000000000000000000000000000000000815260206004820152601860248201527f4f776e6572736869703a206e6f7420746865206f776e6572000000000000000060448201526064016109d0565b60008061065e60017fc8827d3282af6f37b64c3e9e6f3ac9df286ab0bb0fccd6f8661bf19adb368b2361472a565b60008381526020858152604080832073ffffffffffffffffffffffffffffffffffffffff8616845290915290205460ff1661090e5760008381526020858152604080832073ffffffffffffffffffffffffffffffffffffffff8681168086529184529382902080547fffffffffffffffffffffffffffffffffffffffffffffffffffffffffffffff00166001179055815187815292830152918316918101919091527f2f8788117e7eff1d82e926ec794901d17c78024a50270940304540a733656f0d906060015b60405180910390a150505050565b6000467f8b73c3c69bb8fe3d512ecc4cf759cc79239f7b179b0ffacaa9a75d522b39400f61172e61067161109d565b80516020918201206040805192830193909352918101919091527fc89efdaa54c0f20c7adf612882df0950f5a951637e0307cdcb4c672f298b8bc66060820152608081018290523060a082015260c0016040516020818303038152906040528051906020012091505090565b73ffffffffffffffffffffffffffffffffffffffff8216611817576040517f08c379a000000000000000000000000000000000000000000000000000000000815260206004820152601d60248201527f45524332303a20617070726f76616c20746f206164647265737328302900000060448201526064016109d0565b73ffffffffffffffffffffffffffffffffffffffff808416600090815260018601602090815260408083209386168352929052205481156118f8578082018181116118be576040517f08c379a000000000000000000000000000000000000000000000000000000000815260206004820152601960248201527f45524332303a20616c6c6f77616e6365206f766572666c6f770000000000000060448201526064016109d0565b73ffffffffffffffffffffffffffffffffffffffff8086166000908152600188016020908152604080832093881683529290522081905590505b8273ffffffffffffffffffffffffffffffffffffffff168473ffffffffffffffffffffffffffffffffffffffff167f8c5be1e5ebec7d5bd14f71427d1e84f3dd0314c0f7b2291e5b200ac8c7c3b9258360405161195791815260200190565b60405180910390a35050505050565b60008061065e60017ff41bf6a5db26bffdfab174dcf66b31fbba8fdb7e3db040721ce1e62d61839ceb61472a565b60008281526020848152604080832073ffffffffffffffffffffffffffffffffffffffff8516845290915290205460ff1661076f576119d2826134cf565b6040516020016119e291906147b7565b604080517fffffffffffffffffffffffffffffffffffffffffffffffffffffffffffffffe0818403018152908290527f08c379a00000000000000000000000000000000000000000000000000000000082526109d091600401614148565b73ffffffffffffffffffffffffffffffffffffffff8216611abd576040517f08c379a000000000000000000000000000000000000000000000000000000000815260206004820152601960248201527f45524332303a206d696e7420746f20616464726573732830290000000000000060448201526064016109d0565b8015611b66576002830154818101818111611b34576040517f08c379a000000000000000000000000000000000000000000000000000000000815260206004820152601660248201527f45524332303a20737570706c79206f766572666c6f770000000000000000000060448201526064016109d0565b60028501555073ffffffffffffffffffffffffffffffffffffffff821660009081526020849052604090208054820190555b60405181815273ffffffffffffffffffffffffffffffffffffffff8316906000907fddf252ad1be2c89b69c2b068fc378daa952ba7f163c4a11628f55a4df523b3ef906020015b60405180910390a3505050565b8015611c855773ffffffffffffffffffffffffffffffffffffffff8216600090815260208490526040902054818103818110611c52576040517f08c379a000000000000000000000000000000000000000000000000000000000815260206004820152601b60248201527f45524332303a20696e73756666696369656e742062616c616e6365000000000060448201526064016109d0565b73ffffffffffffffffffffffffffffffffffffffff84166000908152602086905260409020555060028301805482900390555b60405181815260009073ffffffffffffffffffffffffffffffffffffffff8416907fddf252ad1be2c89b69c2b068fc378daa952ba7f163c4a11628f55a4df523b3ef90602001611bad565b82818114611d3a576040517f08c379a000000000000000000000000000000000000000000000000000000000815260206004820152601a60248201527f45524332303a20696e636f6e73697374656e742061727261797300000000000060448201526064016109d0565b80600003611d485750610dc8565b73ffffffffffffffffffffffffffffffffffffffff86166000908152602089905260408120549080805b84811461201e576000898983818110611d8d57611d8d6146fb565b9050602002016020810190611da2919061437e565b905073ffffffffffffffffffffffffffffffffffffffff8116611e21576040517f08c379a000000000000000000000000000000000000000000000000000000000815260206004820152601d60248201527f45524332303a207472616e7366657220746f206164647265737328302900000060448201526064016109d0565b6000888884818110611e3557611e356146fb565b90506020020135905080600014611fad57848101858111611eb2576040517f08c379a000000000000000000000000000000000000000000000000000000000815260206004820152601660248201527f45524332303a2076616c756573206f766572666c6f770000000000000000000060448201526064016109d0565b8095508273ffffffffffffffffffffffffffffffffffffffff168d73ffffffffffffffffffffffffffffffffffffffff1614611f3c57818f60000160008573ffffffffffffffffffffffffffffffffffffffff1673ffffffffffffffffffffffffffffffffffffffff16815260200190815260200160002060008282540192505081905550611fab565b86821115611fa6576040517f08c379a000000000000000000000000000000000000000000000000000000000815260206004820152601b60248201527f45524332303a20696e73756666696369656e742062616c616e6365000000000060448201526064016109d0565b938101935b505b8173ffffffffffffffffffffffffffffffffffffffff168c73ffffffffffffffffffffffffffffffffffffffff167fddf252ad1be2c89b69c2b068fc378daa952ba7f163c4a11628f55a4df523b3ef8360405161200c91815260200190565b60405180910390a35050600101611d72565b50811580159061202e5750808214155b156120ca5781830383811061209f576040517f08c379a000000000000000000000000000000000000000000000000000000000815260206004820152601b60248201527f45524332303a20696e73756666696369656e742062616c616e6365000000000060448201526064016109d0565b73ffffffffffffffffffffffffffffffffffffffff8a16600090815260208d90526040902090820190555b8973ffffffffffffffffffffffffffffffffffffffff168973ffffffffffffffffffffffffffffffffffffffff1614612109576121098b8a8c85612a61565b5050505050505050505050565b815181518114612182576040517f08c379a000000000000000000000000000000000000000000000000000000000815260206004820152601a60248201527f45524332303a20696e636f6e73697374656e742061727261797300000000000060448201526064016109d0565b806000036121905750505050565b6000805b8281146123675760008582815181106121af576121af6146fb565b60200260200101519050600073ffffffffffffffffffffffffffffffffffffffff168173ffffffffffffffffffffffffffffffffffffffff160361224f576040517f08c379a000000000000000000000000000000000000000000000000000000000815260206004820152601960248201527f45524332303a206d696e7420746f20616464726573732830290000000000000060448201526064016109d0565b6000858381518110612263576122636146fb565b602002602001015190508060001461230f578381018481116122e1576040517f08c379a000000000000000000000000000000000000000000000000000000000815260206004820152601660248201527f45524332303a2076616c756573206f766572666c6f770000000000000000000060448201526064016109d0565b73ffffffffffffffffffffffffffffffffffffffff8316600090815260208a90526040902080548301905593505b60405181815273ffffffffffffffffffffffffffffffffffffffff8316906000907fddf252ad1be2c89b69c2b068fc378daa952ba7f163c4a11628f55a4df523b3ef9060200160405180910390a35050600101612194565b5080156115435760028501548181018181116123df576040517f08c379a000000000000000000000000000000000000000000000000000000000815260206004820152601660248201527f45524332303a20737570706c79206f766572666c6f770000000000000000000060448201526064016109d0565b6002870155505050505050565b6040805173ffffffffffffffffffffffffffffffffffffffff8416602482015260448082018490528251808303909101815260649091019091526020810180517bffffffffffffffffffffffffffffffffffffffffffffffffffffffff167fa9059cbb0000000000000000000000000000000000000000000000000000000017905261076f908490613661565b8273ffffffffffffffffffffffffffffffffffffffff168273ffffffffffffffffffffffffffffffffffffffff16146124b8576124b884838584612a61565b61090e848383611bba565b60008061065e60017f93fe0ff7226b064a4a8f0b09910762afb4bc2441835792c021ffd78cd513011e61472a565b8281811461255b576040517f08c379a000000000000000000000000000000000000000000000000000000000815260206004820152601a60248201527f45524332303a20696e636f6e73697374656e742061727261797300000000000060448201526064016109d0565b806000036125695750610f8d565b73ffffffffffffffffffffffffffffffffffffffff86166000908152602088905260408120549080805b84811461281b5760008989838181106125ae576125ae6146fb565b90506020020160208101906125c3919061437e565b905073ffffffffffffffffffffffffffffffffffffffff8116612642576040517f08c379a000000000000000000000000000000000000000000000000000000000815260206004820152601d60248201527f45524332303a207472616e7366657220746f206164647265737328302900000060448201526064016109d0565b6000888884818110612656576126566146fb565b905060200201359050806000146127aa578481018581116126d3576040517f08c379a000000000000000000000000000000000000000000000000000000000815260206004820152601660248201527f45524332303a2076616c756573206f766572666c6f770000000000000000000060448201526064016109d0565b8095508273ffffffffffffffffffffffffffffffffffffffff168d73ffffffffffffffffffffffffffffffffffffffff16146127395773ffffffffffffffffffffffffffffffffffffffff8316600090815260208f9052604090208054830190556127a8565b868211156127a3576040517f08c379a000000000000000000000000000000000000000000000000000000000815260206004820152601b60248201527f45524332303a20696e73756666696369656e742062616c616e6365000000000060448201526064016109d0565b938101935b505b8173ffffffffffffffffffffffffffffffffffffffff168c73ffffffffffffffffffffffffffffffffffffffff167fddf252ad1be2c89b69c2b068fc378daa952ba7f163c4a11628f55a4df523b3ef8360405161280991815260200190565b60405180910390a35050600101612593565b50811580159061282b5750808214155b15610b895781830383811061289c576040517f08c379a000000000000000000000000000000000000000000000000000000000815260206004820152601b60248201527f45524332303a20696e73756666696369656e742062616c616e6365000000000060448201526064016109d0565b73ffffffffffffffffffffffffffffffffffffffff8a16600090815260208c905260409020908201905550505050505050505050565b6128dd838284611994565b60008181526020848152604080832073ffffffffffffffffffffffffffffffffffffffff86168085529083529281902080547fffffffffffffffffffffffffffffffffffffffffffffffffffffffffffffff0016905580518481529182018390528101919091527ff6391f5c32d9c69d2a47ea670b442974b53935d1edc7fd64eb21e047a839171b9060600160405180910390a1505050565b60608160010180546110dc90614764565b61298f61376d565b6129a9888888888861299f61109d565b94939291906137d1565b6129b1613880565b6129be8383610e62611966565b6129c66138ae565b6129ce6138dc565b6129d661390a565b6129ea8a8a6129e3611288565b9190613938565b610b89816129f661154a565b906139b8565b612a317f28963e1e000000000000000000000000000000000000000000000000000000006001612a2a610f95565b91906139f0565b565b612a317f20c07ed1000000000000000000000000000000000000000000000000000000006001612a2a610f95565b73ffffffffffffffffffffffffffffffffffffffff8216612ade576040517f08c379a000000000000000000000000000000000000000000000000000000000815260206004820152601d60248201527f45524332303a20617070726f76616c20746f206164647265737328302900000060448201526064016109d0565b73ffffffffffffffffffffffffffffffffffffffff80841660009081526001860160209081526040808320938616835292905220547fffffffffffffffffffffffffffffffffffffffffffffffffffffffffffffffff8114801590612b4257508115155b156118f8578181038181106118be576040517f08c379a000000000000000000000000000000000000000000000000000000000815260206004820152601d60248201527f45524332303a20696e73756666696369656e7420616c6c6f77616e636500000060448201526064016109d0565b73ffffffffffffffffffffffffffffffffffffffff8216612c30576040517f08c379a000000000000000000000000000000000000000000000000000000000815260206004820152601d60248201527f45524332303a207472616e7366657220746f206164647265737328302900000060448201526064016109d0565b8015612d355773ffffffffffffffffffffffffffffffffffffffff8316600090815260208590526040902054818103818110612cc8576040517f08c379a000000000000000000000000000000000000000000000000000000000815260206004820152601b60248201527f45524332303a20696e73756666696369656e742062616c616e6365000000000060448201526064016109d0565b8373ffffffffffffffffffffffffffffffffffffffff168573ffffffffffffffffffffffffffffffffffffffff1614612d325773ffffffffffffffffffffffffffffffffffffffff8086166000908152602088905260408082208490559186168152208054840190555b50505b8173ffffffffffffffffffffffffffffffffffffffff168373ffffffffffffffffffffffffffffffffffffffff167fddf252ad1be2c89b69c2b068fc378daa952ba7f163c4a11628f55a4df523b3ef8360405161127a91815260200190565b612da187878787876114f8565b73ffffffffffffffffffffffffffffffffffffffff84163b15610dc857610dc88686868686868080601f016020809104026020016040519081016040528093929190818152602001838380828437600092019190915250613afc92505050565b73ffffffffffffffffffffffffffffffffffffffff8716612e7e576040517f08c379a000000000000000000000000000000000000000000000000000000000815260206004820152601d60248201527f45524332303a207065726d69742066726f6d206164647265737328302900000060448201526064016109d0565b83421115612ee8576040517f08c379a000000000000000000000000000000000000000000000000000000000815260206004820152601560248201527f45524332303a2065787069726564207065726d6974000000000000000000000060448201526064016109d0565b73ffffffffffffffffffffffffffffffffffffffff878116600081815260208b8152604080832080546001810190915581517f6e71edae12b1b97f4d1f60370fef10105fa2faae0126114a169c64845d6126c98185015280830195909552948b166060850152608084018a905260a084019490945260c08084018990528451808503909101815260e09093019093528151919092012090612f876116ff565b6040517f19010000000000000000000000000000000000000000000000000000000000006020820152602281019190915260428101839052606201604080517fffffffffffffffffffffffffffffffffffffffffffffffffffffffffffffffe08184030181528282528051602091820120600080855291840180845281905260ff89169284019290925260608301879052608083018690529092509060019060a0016020604051602081039080840390855afa15801561304b573d6000803e3d6000fd5b5050506020604051035190508973ffffffffffffffffffffffffffffffffffffffff168173ffffffffffffffffffffffffffffffffffffffff16146130ec576040517f08c379a000000000000000000000000000000000000000000000000000000000815260206004820152601560248201527f45524332303a20696e76616c6964207065726d6974000000000000000000000060448201526064016109d0565b505050610a7287878761069261116b565b60008381526020858152604080832073ffffffffffffffffffffffffffffffffffffffff8616845290915290205460ff161561090e5760008381526020858152604080832073ffffffffffffffffffffffffffffffffffffffff8681168086529184529382902080547fffffffffffffffffffffffffffffffffffffffffffffffffffffffffffffff00169055815187815292830152918316918101919091527ff6391f5c32d9c69d2a47ea670b442974b53935d1edc7fd64eb21e047a839171b906060016116f1565b8261090e828483614898565b6131df86868686612bb3565b73ffffffffffffffffffffffffffffffffffffffff84163b15610f8d57610f8d8586868686868080601f016020809104026020016040519081016040528093929190818152602001838380828437600092019190915250613afc92505050565b825473ffffffffffffffffffffffffffffffffffffffff90811690831681146132c4576040517f08c379a000000000000000000000000000000000000000000000000000000000815260206004820152601860248201527f4f776e6572736869703a206e6f7420746865206f776e6572000000000000000060448201526064016109d0565b8173ffffffffffffffffffffffffffffffffffffffff168173ffffffffffffffffffffffffffffffffffffffff161461090e5783547fffffffffffffffffffffffff00000000000000000000000000000000000000001673ffffffffffffffffffffffffffffffffffffffff8381169182178655604051908316907f8be0079c531659141344cd1fd0a4f28419497f9722a3daafe3b4186f6b6457e090600090a350505050565b804710156133d5576040517f08c379a000000000000000000000000000000000000000000000000000000000815260206004820152601d60248201527f416464726573733a20696e73756666696369656e742062616c616e636500000060448201526064016109d0565b60008273ffffffffffffffffffffffffffffffffffffffff168260405160006040518083038185875af1925050503d806000811461342f576040519150601f19603f3d011682016040523d82523d6000602084013e613434565b606091505b505090508061076f576040517f08c379a000000000000000000000000000000000000000000000000000000000815260206004820152603a60248201527f416464726573733a20756e61626c6520746f2073656e642076616c75652c207260448201527f6563697069656e74206d6179206861766520726576657274656400000000000060648201526084016109d0565b6000610676613c22565b606060008290036134ee57505060408051602081019091526000815290565b60008260405160200161350391815260200190565b604080517fffffffffffffffffffffffffffffffffffffffffffffffffffffffffffffffe08184030181529190529050601f5b818181518110613548576135486146fb565b01602001517fff000000000000000000000000000000000000000000000000000000000000001660000361359d577fffffffffffffffffffffffffffffffffffffffffffffffffffffffffffffffff01613536565b60008160010167ffffffffffffffff8111156135bb576135bb614823565b6040519080825280601f01601f1916602001820160405280156135e5576020820181803683370190505b50905060005b82811161365857838181518110613604576136046146fb565b602001015160f81c60f81b828281518110613621576136216146fb565b60200101907effffffffffffffffffffffffffffffffffffffffffffffffffffffffffffff1916908160001a9053506001016135eb565b50949350505050565b60006136c3826040518060400160405280602081526020017f5361666545524332303a206c6f772d6c6576656c2063616c6c206661696c65648152508573ffffffffffffffffffffffffffffffffffffffff16613d699092919063ffffffff16565b80519091501561076f57808060200190518101906136e191906149b2565b61076f576040517f08c379a000000000000000000000000000000000000000000000000000000000815260206004820152602a60248201527f5361666545524332303a204552433230206f7065726174696f6e20646964206e60448201527f6f7420737563636565640000000000000000000000000000000000000000000060648201526084016109d0565b6000613777610f95565b90506137a5817f36372b070000000000000000000000000000000000000000000000000000000060016139f0565b610ae7817f9d0751860000000000000000000000000000000000000000000000000000000060016139f0565b6138066137ff60017fd217496980d1cb14720b20a80af36676bbece8e5feeb5d8970a9681a2c76bb7561472a565b6001613d80565b85613812858783614898565b5060018601613822838583614898565b506002860180547fffffffffffffffffffffffffffffffffffffffffffffffffffffffffffffff001660ff8316179055610f8d7fa219a025000000000000000000000000000000000000000000000000000000006001612a2a610f95565b612a317f3c130d90000000000000000000000000000000000000000000000000000000006001612a2a610f95565b612a317f9d8ff7da000000000000000000000000000000000000000000000000000000006001612a2a610f95565b612a317fc05327e6000000000000000000000000000000000000000000000000000000006001612a2a610f95565b612a317f53f41a97000000000000000000000000000000000000000000000000000000006001612a2a610f95565b6139666137ff60017f207034c18a9defc6f1e4e1ae46a487e86951456577b7bce22778749189164d2a61472a565b82547fffffffffffffffffffffffff000000000000000000000000000000000000000090811673ffffffffffffffffffffffffffffffffffffffff938416178455600190930180549093169116179055565b6139e66137ff60017f5b388d90dc1312ba799f321972f13311234fa1163bcabec7cf66101c4876eb8461472a565b6108108282613df0565b7c01000000000000000000000000000000000000000000000000000000007fffffffff00000000000000000000000000000000000000000000000000000000831601613a98576040517f08c379a000000000000000000000000000000000000000000000000000000000815260206004820152601f60248201527f496e74657266616365446574656374696f6e3a2077726f6e672076616c75650060448201526064016109d0565b7fffffffff00000000000000000000000000000000000000000000000000000000919091166000908152602092909252604090912080547fffffffffffffffffffffffffffffffffffffffffffffffffffffffffffffff0016911515919091179055565b6040517f4fc35859000000000000000000000000000000000000000000000000000000008082529073ffffffffffffffffffffffffffffffffffffffff851690634fc3585990613b569089908990889088906004016149d4565b6020604051808303816000875af1158015613b75573d6000803e3d6000fd5b505050506040513d601f19601f82011682018060405250810190613b999190614a1d565b7fffffffff000000000000000000000000000000000000000000000000000000001614611543576040517f08c379a000000000000000000000000000000000000000000000000000000000815260206004820152601d60248201527f45524332303a2073616665207472616e736665722072656a656374656400000060448201526064016109d0565b600033321480613c325750601836105b15613c3c57503390565b7fffffffffffffffffffffffffffffffffffffffffffffffffffffffffffffffec36013560601c7f000000000000000000000000000000000000000000000000000000000000000073ffffffffffffffffffffffffffffffffffffffff16331480613d5857506040517f8929a8ca00000000000000000000000000000000000000000000000000000000815273ffffffffffffffffffffffffffffffffffffffff82811660048301523360248301527f00000000000000000000000000000000000000000000000000000000000000001690638929a8ca90604401602060405180830381865afa158015613d34573d6000803e3d6000fd5b505050506040513d601f19601f82011682018060405250810190613d5891906149b2565b15613d6257919050565b3391505090565b6060613d788484600085613ea6565b949350505050565b815482908211613dec576040517f08c379a000000000000000000000000000000000000000000000000000000000815260206004820152601660248201527f53746f726167653a20706861736520726561636865640000000000000000000060448201526064016109d0565b5550565b73ffffffffffffffffffffffffffffffffffffffff811615613e785781547fffffffffffffffffffffffff00000000000000000000000000000000000000001673ffffffffffffffffffffffffffffffffffffffff821690811783556040516000907f8be0079c531659141344cd1fd0a4f28419497f9722a3daafe3b4186f6b6457e0908290a35b6108107f7f5828d0000000000000000000000000000000000000000000000000000000006001612a2a610f95565b606082471015613f38576040517f08c379a000000000000000000000000000000000000000000000000000000000815260206004820152602660248201527f416464726573733a20696e73756666696369656e742062616c616e636520666f60448201527f722063616c6c000000000000000000000000000000000000000000000000000060648201526084016109d0565b73ffffffffffffffffffffffffffffffffffffffff85163b613fb6576040517f08c379a000000000000000000000000000000000000000000000000000000000815260206004820152601d60248201527f416464726573733a2063616c6c20746f206e6f6e2d636f6e747261637400000060448201526064016109d0565b6000808673ffffffffffffffffffffffffffffffffffffffff168587604051613fdf9190614a3a565b60006040518083038185875af1925050503d806000811461401c576040519150601f19603f3d011682016040523d82523d6000602084013e614021565b606091505b509150915061403182828661403c565b979650505050505050565b6060831561404b575081610734565b82511561405b5782518084602001fd5b816040517f08c379a00000000000000000000000000000000000000000000000000000000081526004016109d09190614148565b7fffffffff0000000000000000000000000000000000000000000000000000000081168114610ae757600080fd5b6000602082840312156140cf57600080fd5b81356107348161408f565b60005b838110156140f55781810151838201526020016140dd565b50506000910152565b600081518084526141168160208601602086016140da565b601f017fffffffffffffffffffffffffffffffffffffffffffffffffffffffffffffffe0169290920160200192915050565b60208152600061073460208301846140fe565b73ffffffffffffffffffffffffffffffffffffffff81168114610ae757600080fd5b80356141888161415b565b919050565b600080604083850312156141a057600080fd5b82356141ab8161415b565b946020939093013593505050565b60008083601f8401126141cb57600080fd5b50813567ffffffffffffffff8111156141e357600080fd5b6020830191508360208260051b85010111156141fe57600080fd5b9250929050565b6000806000806040858703121561421b57600080fd5b843567ffffffffffffffff8082111561423357600080fd5b61423f888389016141b9565b9096509450602087013591508082111561425857600080fd5b50614265878288016141b9565b95989497509550505050565b60008060006060848603121561428657600080fd5b83356142918161415b565b925060208401356142a18161415b565b929592945050506040919091013590565b600080604083850312156142c557600080fd5b8235915060208301356142d78161415b565b809150509250929050565b6000602082840312156142f457600080fd5b5035919050565b60008060008060006060868803121561431357600080fd5b853561431e8161415b565b9450602086013567ffffffffffffffff8082111561433b57600080fd5b61434789838a016141b9565b9096509450604088013591508082111561436057600080fd5b5061436d888289016141b9565b969995985093965092949392505050565b60006020828403121561439057600080fd5b81356107348161415b565b600080600080600080606087890312156143b457600080fd5b863567ffffffffffffffff808211156143cc57600080fd5b6143d88a838b016141b9565b909850965060208901359150808211156143f157600080fd5b6143fd8a838b016141b9565b9096509450604089013591508082111561441657600080fd5b5061442389828a016141b9565b979a9699509497509295939492505050565b60008083601f84011261444757600080fd5b50813567ffffffffffffffff81111561445f57600080fd5b6020830191508360208285010111156141fe57600080fd5b803560ff8116811461418857600080fd5b60008060008060008060008060008060e08b8d0312156144a757600080fd5b8a356144b28161415b565b995060208b01356144c28161415b565b985060408b013567ffffffffffffffff808211156144df57600080fd5b6144eb8e838f01614435565b909a50985060608d013591508082111561450457600080fd5b6145108e838f01614435565b909850965086915061452460808e01614477565b955060a08d013591508082111561453a57600080fd5b506145478d828e01614435565b909450925061455a905060c08c0161417d565b90509295989b9194979a5092959850565b60008060008060006080868803121561458357600080fd5b853561458e8161415b565b9450602086013561459e8161415b565b935060408601359250606086013567ffffffffffffffff8111156145c157600080fd5b61436d88828901614435565b600080600080600080600060e0888a0312156145e857600080fd5b87356145f38161415b565b965060208801356146038161415b565b9550604088013594506060880135935061461f60808901614477565b925060a0880135915060c0880135905092959891949750929550565b6000806040838503121561464e57600080fd5b82356146598161415b565b915060208301356142d78161415b565b6000806020838503121561467c57600080fd5b823567ffffffffffffffff81111561469357600080fd5b61469f85828601614435565b90969095509350505050565b600080600080606085870312156146c157600080fd5b84356146cc8161415b565b935060208501359250604085013567ffffffffffffffff8111156146ef57600080fd5b61426587828801614435565b7f4e487b7100000000000000000000000000000000000000000000000000000000600052603260045260246000fd5b8181038181111561065e577f4e487b7100000000000000000000000000000000000000000000000000000000600052601160045260246000fd5b600181811c9082168061477857607f821691505b6020821081036147b1577f4e487b7100000000000000000000000000000000000000000000000000000000600052602260045260246000fd5b50919050565b7f416363657373436f6e74726f6c3a206d697373696e67202700000000000000008152600082516147ef8160188501602087016140da565b7f2720726f6c6500000000000000000000000000000000000000000000000000006018939091019283015250601e01919050565b7f4e487b7100000000000000000000000000000000000000000000000000000000600052604160045260246000fd5b601f82111561076f57600081815260208120601f850160051c810160208610156148795750805b601f850160051c820191505b81811015610f8d57828155600101614885565b67ffffffffffffffff8311156148b0576148b0614823565b6148c4836148be8354614764565b83614852565b6000601f84116001811461491657600085156148e05750838201355b7fffffffffffffffffffffffffffffffffffffffffffffffffffffffffffffffff600387901b1c1916600186901b178355611543565b6000838152602090207fffffffffffffffffffffffffffffffffffffffffffffffffffffffffffffffe0861690835b828110156149655786850135825560209485019460019092019101614945565b50868210156149a0577fffffffffffffffffffffffffffffffffffffffffffffffffffffffffffffffff60f88860031b161c19848701351681555b505060018560011b0183555050505050565b6000602082840312156149c457600080fd5b8151801515811461073457600080fd5b600073ffffffffffffffffffffffffffffffffffffffff808716835280861660208401525083604083015260806060830152614a1360808301846140fe565b9695505050505050565b600060208284031215614a2f57600080fd5b81516107348161408f565b60008251614a4c8184602087016140da565b919091019291505056fea2646970667358221220389c7893298ee88d13ca1353f3193788bdd763ccf8740e3a0a2f2d3690d36ced64736f6c63430008110033",
  "linkReferences": {},
  "deployedLinkReferences": {}
}