{
  "_format": "hh-sol-artifact-1",
  "contractName": "FxERC20MintBurnRootTunnel",
  "sourceName": "contracts/fx-portal/ERC20/tunnel/FxERC20MintBurnRootTunnel.sol",
  "abi": [
    {
      "inputs": [
        {
          "internalType": "address",
          "name": "checkpointManager",
          "type": "address"
        },
        {
          "internalType": "address",
          "name": "fxRoot",
          "type": "address"
        },
        {
          "internalType": "address",
          "name": "fxERC20Token",
          "type": "address"
        },
        {
          "internalType": "contract IForwarderRegistry",
          "name": "forwarderRegistry",
          "type": "address"
        }
      ],
      "stateMutability": "nonpayable",
      "type": "constructor"
    },
    {
      "inputs": [],
      "name": "FxERC20InvalidDepositAddress",
      "type": "error"
    },
    {
      "inputs": [
        {
          "internalType": "address",
          "name": "childToken",
          "type": "address"
        },
        {
          "internalType": "address",
          "name": "expectedRootToken",
          "type": "address"
        },
        {
          "internalType": "address",
          "name": "actualRootToken",
          "type": "address"
        }
      ],
      "name": "FxERC20InvalidMappingOnExit",
      "type": "error"
    },
    {
      "anonymous": false,
      "inputs": [
        {
          "indexed": true,
          "internalType": "address",
          "name": "rootToken",
          "type": "address"
        },
        {
          "indexed": true,
          "internalType": "address",
          "name": "childToken",
          "type": "address"
        },
        {
          "indexed": false,
          "internalType": "address",
          "name": "depositor",
          "type": "address"
        },
        {
          "indexed": false,
          "internalType": "address",
          "name": "recipient",
          "type": "address"
        },
        {
          "indexed": false,
          "internalType": "uint256",
          "name": "amount",
          "type": "uint256"
        }
      ],
      "name": "FxERC20Deposit",
      "type": "event"
    },
    {
      "anonymous": false,
      "inputs": [
        {
          "indexed": true,
          "internalType": "address",
          "name": "rootToken",
          "type": "address"
        },
        {
          "indexed": true,
          "internalType": "address",
          "name": "childToken",
          "type": "address"
        }
      ],
      "name": "FxERC20TokenMapping",
      "type": "event"
    },
    {
      "anonymous": false,
      "inputs": [
        {
          "indexed": true,
          "internalType": "address",
          "name": "rootToken",
          "type": "address"
        },
        {
          "indexed": true,
          "internalType": "address",
          "name": "childToken",
          "type": "address"
        },
        {
          "indexed": false,
          "internalType": "address",
          "name": "withdrawer",
          "type": "address"
        },
        {
          "indexed": false,
          "internalType": "address",
          "name": "recipient",
          "type": "address"
        },
        {
          "indexed": false,
          "internalType": "uint256",
          "name": "amount",
          "type": "uint256"
        }
      ],
      "name": "FxERC20Withdrawal",
      "type": "event"
    },
    {
      "inputs": [],
      "name": "DEPOSIT",
      "outputs": [
        {
          "internalType": "bytes32",
          "name": "",
          "type": "bytes32"
        }
      ],
      "stateMutability": "view",
      "type": "function"
    },
    {
      "inputs": [],
      "name": "MAP_TOKEN",
      "outputs": [
        {
          "internalType": "bytes32",
          "name": "",
          "type": "bytes32"
        }
      ],
      "stateMutability": "view",
      "type": "function"
    },
    {
      "inputs": [],
      "name": "SEND_MESSAGE_EVENT_SIG",
      "outputs": [
        {
          "internalType": "bytes32",
          "name": "",
          "type": "bytes32"
        }
      ],
      "stateMutability": "view",
      "type": "function"
    },
    {
      "inputs": [],
      "name": "checkpointManager",
      "outputs": [
        {
          "internalType": "contract ICheckpointManager",
          "name": "",
          "type": "address"
        }
      ],
      "stateMutability": "view",
      "type": "function"
    },
    {
      "inputs": [],
      "name": "childTokenProxyCodeHash",
      "outputs": [
        {
          "internalType": "bytes32",
          "name": "",
          "type": "bytes32"
        }
      ],
      "stateMutability": "view",
      "type": "function"
    },
    {
      "inputs": [
        {
          "internalType": "bytes32",
          "name": "salt",
          "type": "bytes32"
        },
        {
          "internalType": "bytes32",
          "name": "bytecodeHash",
          "type": "bytes32"
        },
        {
          "internalType": "address",
          "name": "deployer",
          "type": "address"
        }
      ],
      "name": "computedCreate2Address",
      "outputs": [
        {
          "internalType": "address",
          "name": "",
          "type": "address"
        }
      ],
      "stateMutability": "pure",
      "type": "function"
    },
    {
      "inputs": [
        {
          "internalType": "address",
          "name": "rootToken",
          "type": "address"
        },
        {
          "internalType": "uint256",
          "name": "amount",
          "type": "uint256"
        }
      ],
      "name": "deposit",
      "outputs": [],
      "stateMutability": "nonpayable",
      "type": "function"
    },
    {
      "inputs": [
        {
          "internalType": "address",
          "name": "rootToken",
          "type": "address"
        },
        {
          "internalType": "address",
          "name": "receiver",
          "type": "address"
        },
        {
          "internalType": "uint256",
          "name": "amount",
          "type": "uint256"
        }
      ],
      "name": "depositTo",
      "outputs": [],
      "stateMutability": "nonpayable",
      "type": "function"
    },
    {
      "inputs": [],
      "name": "forwarderRegistry",
      "outputs": [
        {
          "internalType": "contract IForwarderRegistry",
          "name": "",
          "type": "address"
        }
      ],
      "stateMutability": "view",
      "type": "function"
    },
    {
      "inputs": [],
      "name": "fxChildTunnel",
      "outputs": [
        {
          "internalType": "address",
          "name": "",
          "type": "address"
        }
      ],
      "stateMutability": "view",
      "type": "function"
    },
    {
      "inputs": [],
      "name": "fxRoot",
      "outputs": [
        {
          "internalType": "contract IFxStateSender",
          "name": "",
          "type": "address"
        }
      ],
      "stateMutability": "view",
      "type": "function"
    },
    {
      "inputs": [
        {
          "internalType": "address",
          "name": "forwarder",
          "type": "address"
        }
      ],
      "name": "isTrustedForwarder",
      "outputs": [
        {
          "internalType": "bool",
          "name": "",
          "type": "bool"
        }
      ],
      "stateMutability": "view",
      "type": "function"
    },
    {
      "inputs": [
        {
          "internalType": "address",
          "name": "rootToken",
          "type": "address"
        }
      ],
      "name": "mapToken",
      "outputs": [
        {
          "internalType": "address",
          "name": "childToken",
          "type": "address"
        }
      ],
      "stateMutability": "nonpayable",
      "type": "function"
    },
    {
      "inputs": [
        {
          "internalType": "address",
          "name": "",
          "type": "address"
        },
        {
          "internalType": "address",
          "name": "from",
          "type": "address"
        },
        {
          "internalType": "uint256",
          "name": "value",
          "type": "uint256"
        },
        {
          "internalType": "bytes",
          "name": "data",
          "type": "bytes"
        }
      ],
      "name": "onERC20Received",
      "outputs": [
        {
          "internalType": "bytes4",
          "name": "magicValue",
          "type": "bytes4"
        }
      ],
      "stateMutability": "nonpayable",
      "type": "function"
    },
    {
      "inputs": [
        {
          "internalType": "bytes32",
          "name": "",
          "type": "bytes32"
        }
      ],
      "name": "processedExits",
      "outputs": [
        {
          "internalType": "bool",
          "name": "",
          "type": "bool"
        }
      ],
      "stateMutability": "view",
      "type": "function"
    },
    {
      "inputs": [
        {
          "internalType": "bytes",
          "name": "inputData",
          "type": "bytes"
        }
      ],
      "name": "receiveMessage",
      "outputs": [],
      "stateMutability": "nonpayable",
      "type": "function"
    },
    {
      "inputs": [
        {
          "internalType": "address",
          "name": "",
          "type": "address"
        }
      ],
      "name": "rootToChildToken",
      "outputs": [
        {
          "internalType": "address",
          "name": "",
          "type": "address"
        }
      ],
      "stateMutability": "view",
      "type": "function"
    },
    {
      "inputs": [
        {
          "internalType": "address",
          "name": "_fxChildTunnel",
          "type": "address"
        }
      ],
      "name": "setFxChildTunnel",
      "outputs": [],
      "stateMutability": "nonpayable",
      "type": "function"
    },
    {
      "inputs": [
        {
          "internalType": "bytes4",
          "name": "interfaceId",
          "type": "bytes4"
        }
      ],
      "name": "supportsInterface",
      "outputs": [
        {
          "internalType": "bool",
          "name": "",
          "type": "bool"
        }
      ],
      "stateMutability": "view",
      "type": "function"
    }
  ],
  "bytecode": "0x60c06040523480156200001157600080fd5b506040516200369d3803806200369d833981016040819052620000349162000215565b600180546001600160a01b03199081166001600160a01b0387811691909117835560008054909216908616179055849084908490849081908190620000a790634fc3585960e01b906200009262000136602090811b620008f417901c565b6200016c60201b62000922179092919060201c565b6001600160a01b03166080525060408051693d602d80600a3d3981f360b01b602082015269363d3d373d3d3d363d7360b01b602a8201526001600160601b0319606085901b1660348201526e5af43d82803e903d91602b57fd5bf360881b6048820152815180820360370181526057909101909152805160209091012060a052506200029f9650505050505050565b6000806200016660017fca9d3e17f264b0f3984e2634e94adb37fa3e6a8103f06aeae6fa59e21c769f5e6200027d565b92915050565b600160e01b6001600160e01b0319831601620001ce5760405162461bcd60e51b815260206004820152601f60248201527f496e74657266616365446574656374696f6e3a2077726f6e672076616c756500604482015260640160405180910390fd5b6001600160e01b03199190911660009081526020929092526040909120805460ff1916911515919091179055565b6001600160a01b03811681146200021257600080fd5b50565b600080600080608085870312156200022c57600080fd5b84516200023981620001fc565b60208601519094506200024c81620001fc565b60408601519093506200025f81620001fc565b60608601519092506200027281620001fc565b939692955090935050565b818103818111156200016657634e487b7160e01b600052601160045260246000fd5b60805160a0516133bc620002e160003960008181610335015261081b0152600081816101b50152818161026301528181610b4b0152610bd301526133bc6000f3fe608060405234801561001057600080fd5b50600436106101515760003560e01c8063972c4928116100cd578063de9b771f11610081578063f213159c11610066578063f213159c146103f4578063f4a120f714610407578063f953cec71461041a57600080fd5b8063de9b771f1461039e578063ea60c7c4146103be57600080fd5b8063b3e37c18116100b2578063b3e37c1814610330578063c0857ba014610357578063d81c8e521461037757600080fd5b8063972c4928146102fd578063aea4e49e1461031d57600080fd5b80634fc3585911610124578063607f2d4211610109578063607f2d42146102a05780637337957f146102c3578063886a69ba146102d657600080fd5b80634fc358591461020f578063572b6c051461025357600080fd5b806301ffc9a7146101565780630e387de61461017e5780632b4c9f16146101b357806347e7ef24146101fa575b600080fd5b610169610164366004612acc565b61042d565b60405190151581526020015b60405180910390f35b6101a57f8c5261668696ce22758910d05bab8f186d6eb247ceac2af2e82c7dc17669b03681565b604051908152602001610175565b7f00000000000000000000000000000000000000000000000000000000000000005b60405173ffffffffffffffffffffffffffffffffffffffff9091168152602001610175565b61020d610208366004612b33565b610447565b005b61022261021d366004612b5f565b61046f565b6040517fffffffff000000000000000000000000000000000000000000000000000000009091168152602001610175565b610169610261366004612bfe565b7f000000000000000000000000000000000000000000000000000000000000000073ffffffffffffffffffffffffffffffffffffffff90811691161490565b6101696102ae366004612c1b565b60036020526000908152604090205460ff1681565b6101d56102d1366004612c34565b610514565b6101a57f2cef46a936bdc5b7e6e8c71aa04560c41cf7d88bb26901a7e7f4936ff02accad81565b6002546101d59073ffffffffffffffffffffffffffffffffffffffff1681565b61020d61032b366004612bfe565b61059c565b6101a57f000000000000000000000000000000000000000000000000000000000000000081565b6001546101d59073ffffffffffffffffffffffffffffffffffffffff1681565b6101a57f87a7811f4bfedea3d341ad165680ae306b01aaeacc205d227629cf157dd9f82181565b6000546101d59073ffffffffffffffffffffffffffffffffffffffff1681565b6101d56103cc366004612bfe565b60046020526000908152604090205473ffffffffffffffffffffffffffffffffffffffff1681565b61020d610402366004612c6d565b61068e565b6101d5610415366004612bfe565b610703565b61020d610428366004612d72565b6108da565b60006104418261043b6108f4565b90610a2e565b92915050565b6000610451610b08565b905061045f83828385610c4f565b61046a838284610d60565b505050565b60008482156104d25761048483850185612bfe565b905073ffffffffffffffffffffffffffffffffffffffff81166104d2576040517e7336b000000000000000000000000000000000000000000000000000000000815260040160405180910390fd5b6104de33878388610c4f565b6104e83386610df9565b507f4fc35859000000000000000000000000000000000000000000000000000000009695505050505050565b604080517fff00000000000000000000000000000000000000000000000000000000000000602080830191909152606084901b7fffffffffffffffffffffffffffffffffffffffff00000000000000000000000016602183015260358201869052605580830186905283518084039091018152607590920190925280519101205b9392505050565b60025473ffffffffffffffffffffffffffffffffffffffff1615610647576040517f08c379a000000000000000000000000000000000000000000000000000000000815260206004820152602a60248201527f467842617365526f6f7454756e6e656c3a204348494c445f54554e4e454c5f4160448201527f4c52454144595f5345540000000000000000000000000000000000000000000060648201526084015b60405180910390fd5b600280547fffffffffffffffffffffffff00000000000000000000000000000000000000001673ffffffffffffffffffffffffffffffffffffffff92909216919091179055565b73ffffffffffffffffffffffffffffffffffffffff82166106da576040517e7336b000000000000000000000000000000000000000000000000000000000815260040160405180910390fd5b60006106e4610b08565b90506106f284828585610c4f565b6106fd848284610d60565b50505050565b73ffffffffffffffffffffffffffffffffffffffff80821660009081526004602052604090205416801561073657919050565b6107c57f2cef46a936bdc5b7e6e8c71aa04560c41cf7d88bb26901a7e7f4936ff02accad8361076485610e8a565b604051602001610775929190612e60565b604080517fffffffffffffffffffffffffffffffffffffffffffffffffffffffffffffffe0818403018152908290526107b19291602001612e8f565b60405160208183030381529060405261116b565b60408051606084901b7fffffffffffffffffffffffffffffffffffffffff0000000000000000000000001660208083019190915282516014818403018152603490920190925280519101206002546108569082907f00000000000000000000000000000000000000000000000000000000000000009073ffffffffffffffffffffffffffffffffffffffff16610514565b73ffffffffffffffffffffffffffffffffffffffff84811660008181526004602052604080822080547fffffffffffffffffffffffff000000000000000000000000000000000000000016948616948517905551939550919290917ff935ffb7c4a7f69e191e46617fc2f41d98d93290443199977b42dd086e744c8691a350919050565b60006108e5826111fc565b90506108f0816115de565b5050565b60008061044160017fca9d3e17f264b0f3984e2634e94adb37fa3e6a8103f06aeae6fa59e21c769f5e612ed7565b7c01000000000000000000000000000000000000000000000000000000007fffffffff000000000000000000000000000000000000000000000000000000008316016109ca576040517f08c379a000000000000000000000000000000000000000000000000000000000815260206004820152601f60248201527f496e74657266616365446574656374696f6e3a2077726f6e672076616c756500604482015260640161063e565b7fffffffff00000000000000000000000000000000000000000000000000000000919091166000908152602092909252604090912080547fffffffffffffffffffffffffffffffffffffffffffffffffffffffffffffff0016911515919091179055565b60007c01000000000000000000000000000000000000000000000000000000007fffffffff00000000000000000000000000000000000000000000000000000000831601610a7e57506000610441565b7ffe003659000000000000000000000000000000000000000000000000000000007fffffffff00000000000000000000000000000000000000000000000000000000831601610acf57506001610441565b507fffffffff00000000000000000000000000000000000000000000000000000000166000908152602091909152604090205460ff1690565b600033321480610b185750601836105b15610b2257503390565b7fffffffffffffffffffffffffffffffffffffffffffffffffffffffffffffffec36013560601c7f000000000000000000000000000000000000000000000000000000000000000073ffffffffffffffffffffffffffffffffffffffff16331480610c3e57506040517f8929a8ca00000000000000000000000000000000000000000000000000000000815273ffffffffffffffffffffffffffffffffffffffff82811660048301523360248301527f00000000000000000000000000000000000000000000000000000000000000001690638929a8ca90604401602060405180830381865afa158015610c1a573d6000803e3d6000fd5b505050506040513d601f19601f82011682018060405250810190610c3e9190612eea565b15610c4857919050565b3391505090565b6000610c5a85610703565b6040805173ffffffffffffffffffffffffffffffffffffffff88811660208301528381168284015287811660608301528616608082015260a08082018690528251808303909101815260c08201909252919250600091610cde917f87a7811f4bfedea3d341ad165680ae306b01aaeacc205d227629cf157dd9f8219160e001612e8f565b6040516020818303038152906040529050610cf88161116b565b6040805173ffffffffffffffffffffffffffffffffffffffff87811682528681166020830152918101859052818416918816907fd04a997afc07fd79393f2188ae8935e4389ab8aef6144f0f839e3aade5b858ab9060600160405180910390a3505050505050565b6040517f79cc679000000000000000000000000000000000000000000000000000000000815273ffffffffffffffffffffffffffffffffffffffff8381166004830152602482018390528416906379cc6790906044016020604051808303816000875af1158015610dd5573d6000803e3d6000fd5b505050506040513d601f19601f820116820180604052508101906106fd9190612eea565b6040517f42966c680000000000000000000000000000000000000000000000000000000081526004810182905273ffffffffffffffffffffffffffffffffffffffff8316906342966c68906024016020604051808303816000875af1158015610e66573d6000803e3d6000fd5b505050506040513d601f19601f8201168201806040525081019061046a9190612eea565b6060600082905060008173ffffffffffffffffffffffffffffffffffffffff166306fdde036040518163ffffffff1660e01b8152600401600060405180830381865afa158015610ede573d6000803e3d6000fd5b505050506040513d6000823e601f3d9081017fffffffffffffffffffffffffffffffffffffffffffffffffffffffffffffffe0168201604052610f249190810190612f3c565b905060008273ffffffffffffffffffffffffffffffffffffffff166395d89b416040518163ffffffff1660e01b8152600401600060405180830381865afa158015610f73573d6000803e3d6000fd5b505050506040513d6000823e601f3d9081017fffffffffffffffffffffffffffffffffffffffffffffffffffffffffffffffe0168201604052610fb99190810190612f3c565b905060008373ffffffffffffffffffffffffffffffffffffffff1663313ce5676040518163ffffffff1660e01b8152600401602060405180830381865afa158015611008573d6000803e3d6000fd5b505050506040513d601f19601f8201168201806040525081019061102c9190612f85565b905060008673ffffffffffffffffffffffffffffffffffffffff16633c130d906040518163ffffffff1660e01b8152600401600060405180830381865afa15801561107b573d6000803e3d6000fd5b505050506040513d6000823e601f3d9081017fffffffffffffffffffffffffffffffffffffffffffffffffffffffffffffffe01682016040526110c19190810190612f3c565b905060008773ffffffffffffffffffffffffffffffffffffffff16638da5cb5b6040518163ffffffff1660e01b8152600401602060405180830381865afa158015611110573d6000803e3d6000fd5b505050506040513d601f19601f820116820180604052508101906111349190612fa8565b9050848484848460405160200161114f959493929190612fc5565b6040516020818303038152906040529650505050505050919050565b6000546002546040517fb472047700000000000000000000000000000000000000000000000000000000815273ffffffffffffffffffffffffffffffffffffffff9283169263b4720477926111c7929116908590600401612e60565b600060405180830381600087803b1580156111e157600080fd5b505af11580156111f5573d6000803e3d6000fd5b5050505050565b6060600061120983611708565b9050600061121682611767565b9050600061122383611790565b9050600081611231846117b9565b61123a866119a7565b60405160200161124c93929190613030565b604080517fffffffffffffffffffffffffffffffffffffffffffffffffffffffffffffffe081840301815291815281516020928301206000818152600390935291205490915060ff1615611321576040517f08c379a0000000000000000000000000000000000000000000000000000000008152602060048201526024808201527f4678526f6f7454756e6e656c3a20455849545f414c52454144595f50524f434560448201527f5353454400000000000000000000000000000000000000000000000000000000606482015260840161063e565b600081815260036020526040812080547fffffffffffffffffffffffffffffffffffffffffffffffffffffffffffffff00166001179055611361856119c3565b9050600061136e82611b0d565b905061137981611b9d565b60025473ffffffffffffffffffffffffffffffffffffffff908116911614611423576040517f08c379a000000000000000000000000000000000000000000000000000000000815260206004820152602560248201527f4678526f6f7454756e6e656c3a20494e56414c49445f46585f4348494c445f5460448201527f554e4e454c000000000000000000000000000000000000000000000000000000606482015260840161063e565b600061142e87611bc6565b905061144e61143e846020015190565b876114488a611be2565b84611bfe565b6114da576040517f08c379a000000000000000000000000000000000000000000000000000000000815260206004820152602360248201527f4678526f6f7454756e6e656c3a20494e56414c49445f524543454950545f505260448201527f4f4f460000000000000000000000000000000000000000000000000000000000606482015260840161063e565b611508856114e789611eb1565b6114f08a611ecd565b846114fa8c611ee9565b6115038d611f05565b611f21565b50600061151483612087565b90507f8c5261668696ce22758910d05bab8f186d6eb247ceac2af2e82c7dc17669b03661154a6115458360006120c3565b6120fb565b146115b1576040517f08c379a000000000000000000000000000000000000000000000000000000000815260206004820152601f60248201527f4678526f6f7454756e6e656c3a20494e56414c49445f5349474e415455524500604482015260640161063e565b60006115bc84612176565b8060200190518101906115cf9190612f3c565b9b9a5050505050505050505050565b6000806000806000858060200190518101906115fa919061305d565b73ffffffffffffffffffffffffffffffffffffffff808616600090815260046020526040902054959a50939850919650945092509081169085168114611694576040517f3855947700000000000000000000000000000000000000000000000000000000815273ffffffffffffffffffffffffffffffffffffffff808816600483015280871660248301528216604482015260640161063e565b61169f868484612192565b6040805173ffffffffffffffffffffffffffffffffffffffff86811682528581166020830152918101849052818716918816907faa4bbbc02123d0c446b55ec99a14078c9eab05cb4a271e6d8f8e278d9e4cd1849060600160405180910390a350505050505050565b604080516020810190915260608152600061175261174d8460408051808201825260008082526020918201528151808301909252825182529182019181019190915290565b61221f565b60408051602081019091529081529392505050565b60606104418260000151600881518110611783576117836130c8565b6020026020010151612335565b600061044182600001516002815181106117ac576117ac6130c8565b60200260200101516120fb565b60408051602081019091526000815281516060919015610441576000806117e16000866123d2565b60f81c905060018114806117f857508060ff166003145b156118b85760018551600261180d91906130f7565b6118179190612ed7565b67ffffffffffffffff81111561182f5761182f612cae565b6040519080825280601f01601f191660200182016040528015611859576020820181803683370190505b50925060006118696001876123d2565b9050808460008151811061187f5761187f6130c8565b60200101907effffffffffffffffffffffffffffffffffffffffffffffffffffffffffffff1916908160001a905350600192505061191c565b6002855160026118c891906130f7565b6118d29190612ed7565b67ffffffffffffffff8111156118ea576118ea612cae565b6040519080825280601f01601f191660200182016040528015611914576020820181803683370190505b509250600091505b60ff82165b835181101561199e5761194b61193a60ff851683612ed7565b61194590600261310e565b876123d2565b84828151811061195d5761195d6130c8565b60200101907effffffffffffffffffffffffffffffffffffffffffffffffffffffffffffff1916908160001a9053508061199681613121565b915050611921565b50505092915050565b600061044182600001516009815181106117ac576117ac6130c8565b6119e760405180606001604052806060815260200160608152602001600081525090565b611a018260000151600681518110611783576117836130c8565b602082810182905260408051808201825260008082529083015280518082019091528251815291810190820152611a3781612453565b15611a4c57611a458161221f565b8252611af9565b60208201518051600090611a6290600190612ed7565b67ffffffffffffffff811115611a7a57611a7a612cae565b6040519080825280601f01601f191660200182016040528015611aa4576020820181803683370190505b509050600080836021019150826020019050611ac28282855161248e565b604080518082018252600080825260209182015281518083019092528451825280850190820152611af29061221f565b8652505050505b611b02836119a7565b604083015250919050565b604080516080810182526000918101828152606080830193909352815260208101919091526000611b5b8360000151600381518110611b4e57611b4e6130c8565b602002602001015161221f565b836040015181518110611b7057611b706130c8565b602002602001015190506040518060400160405280828152602001611b948361221f565b90529392505050565b60006104418260200151600081518110611bb957611bb96130c8565b6020026020010151612519565b600061044182600001516005815181106117ac576117ac6130c8565b60606104418260000151600781518110611783576117836130c8565b600080611c328460408051808201825260008082526020918201528151808301909252825182529182019181019190915290565b90506000611c3f8261221f565b905060608085600080611c518b6117b9565b90508051600003611c6c576000975050505050505050611ea9565b60005b8651811015611ea0578151831115611c9257600098505050505050505050611ea9565b611cb4878281518110611ca757611ca76130c8565b6020026020010151612533565b955085805190602001208414611cd557600098505050505050505050611ea9565b611cea878281518110611b4e57611b4e6130c8565b94508451601103611dbc5781518303611d49578c80519060200120611d1b86601081518110611783576117836130c8565b8051906020012003611d3857600198505050505050505050611ea9565b600098505050505050505050611ea9565b6000828481518110611d5d57611d5d6130c8565b016020015160f81c90506010811115611d825760009950505050505050505050611ea9565b611da7868260ff1681518110611d9a57611d9a6130c8565b60200260200101516125b2565b9450611db460018561310e565b935050611e8e565b8451600203611d38576000611de7611de087600081518110611783576117836130c8565b84866125e0565b8351909150611df6828661310e565b03611e49578d80519060200120611e1987600181518110611783576117836130c8565b8051906020012003611e375760019950505050505050505050611ea9565b60009950505050505050505050611ea9565b80600003611e635760009950505050505050505050611ea9565b611e6d818561310e565b9350611e8586600181518110611d9a57611d9a6130c8565b9450611e8e9050565b80611e9881613121565b915050611c6f565b50505050505050505b949350505050565b600061044182600001516003815181106117ac576117ac6130c8565b600061044182600001516004815181106117ac576117ac6130c8565b600061044182600001516000815181106117ac576117ac6130c8565b60606104418260000151600181518110611783576117836130c8565b6001546040517f41539d4a0000000000000000000000000000000000000000000000000000000081526004810184905260009182918291829173ffffffffffffffffffffffffffffffffffffffff909116906341539d4a9060240160a060405180830381865afa158015611f99573d6000803e3d6000fd5b505050506040513d601f19601f82011682018060405250810190611fbd9190613159565b5093505092509250612014828b611fd49190612ed7565b6040805160208082018f90528183018e9052606082018d905260808083018d90528351808403909101815260a09092019092528051910120908588612718565b61207a576040517f08c379a000000000000000000000000000000000000000000000000000000000815260206004820152601c60248201527f4678526f6f7454756e6e656c3a20494e56414c49445f48454144455200000000604482015260640161063e565b9998505050505050505050565b60408051602081019091526060815260405180602001604052806120bb8460200151600181518110611b4e57611b4e6130c8565b905292915050565b604080518082019091526000808252602082015282518051839081106120eb576120eb6130c8565b6020026020010151905092915050565b80516000901580159061211057508151602110155b61211957600080fd5b600061212883602001516128c5565b9050600081846000015161213c9190612ed7565b9050600080838660200151612151919061310e565b905080519150602083101561216d57826020036101000a820491505b50949350505050565b60606104418260200151600281518110611783576117836130c8565b6040517f40c10f1900000000000000000000000000000000000000000000000000000000815273ffffffffffffffffffffffffffffffffffffffff8381166004830152602482018390528416906340c10f1990604401600060405180830381600087803b15801561220257600080fd5b505af1158015612216573d6000803e3d6000fd5b50505050505050565b606061222a82612453565b61223357600080fd5b600061223e83612940565b905060008167ffffffffffffffff81111561225b5761225b612cae565b6040519080825280602002602001820160405280156122a057816020015b60408051808201909152600080825260208201528152602001906001900390816122795790505b50905060006122b285602001516128c5565b85602001516122c1919061310e565b90506000805b8481101561232a576122d8836129c5565b9150604051806040016040528083815260200184815250848281518110612301576123016130c8565b6020908102919091010152612316828461310e565b92508061232281613121565b9150506122c7565b509195945050505050565b805160609061234357600080fd5b600061235283602001516128c5565b905060008184600001516123669190612ed7565b905060008167ffffffffffffffff81111561238357612383612cae565b6040519080825280601f01601f1916602001820160405280156123ad576020820181803683370190505b509050600081602001905061216d8487602001516123cb919061310e565b8285612a87565b60006123df6002846131d5565b15612419576010826123f26002866131e9565b81518110612402576124026130c8565b0160200151612414919060f81c6131fd565b612449565b6010826124276002866131e9565b81518110612437576124376130c8565b0160200151612449919060f81c61321f565b60f81b9392505050565b8051600090810361246657506000919050565b6020820151805160001a9060c0821015612484575060009392505050565b5060019392505050565b8060000361249b57505050565b602081106124d357825182526124b260208461310e565b92506124bf60208361310e565b91506124cc602082612ed7565b905061249b565b806000036124e057505050565b600060016124ef836020612ed7565b6124fb90610100613361565b6125059190612ed7565b935183518516941916939093179091525050565b805160009060151461252a57600080fd5b610441826120fb565b60606000826000015167ffffffffffffffff81111561255457612554612cae565b6040519080825280601f01601f19166020018201604052801561257e576020820181803683370190505b50905080516000036125905792915050565b60008160200190506125ab8460200151828660000151612a87565b5092915050565b80516000906021146125c357600080fd5b600080836020015160016125d7919061310e565b51949350505050565b600080806125ed866117b9565b90506000815167ffffffffffffffff81111561260b5761260b612cae565b6040519080825280601f01601f191660200182016040528015612635576020820181803683370190505b509050845b8251612646908761310e565b8110156126e9576000878281518110612661576126616130c8565b01602001517fff0000000000000000000000000000000000000000000000000000000000000016905080836126968985612ed7565b815181106126a6576126a66130c8565b60200101907effffffffffffffffffffffffffffffffffffffffffffffffffffffffffffff1916908160001a9053505080806126e190613121565b91505061263a565b508080519060200120828051906020012003612708578151925061270d565b600092505b509095945050505050565b60006020825161272891906131d5565b1561278f576040517f08c379a000000000000000000000000000000000000000000000000000000000815260206004820152601460248201527f496e76616c69642070726f6f66206c656e677468000000000000000000000000604482015260640161063e565b60006020835161279f91906131e9565b90506127ac816002613361565b8510612814576040517f08c379a000000000000000000000000000000000000000000000000000000000815260206004820152601560248201527f4c65616620696e64657820697320746f6f206269670000000000000000000000604482015260640161063e565b60008660205b855181116128b7578581015192506128336002896131d5565b60000361286b576040805160208101849052908101849052606001604051602081830303815290604052805190602001209150612898565b60408051602081018590529081018390526060016040516020818303038152906040528051906020012091505b6128a36002896131e9565b97506128b060208261310e565b905061281a565b509094149695505050505050565b8051600090811a60808110156128de5750600092915050565b60b88110806128f9575060c081108015906128f9575060f881105b156129075750600192915050565b60c08110156129345761291c600160b861336d565b6129299060ff1682612ed7565b61059590600161310e565b61291c600160f861336d565b8051600090810361295357506000919050565b60008061296384602001516128c5565b8460200151612972919061310e565b905060008460000151856020015161298a919061310e565b90505b808210156129bc5761299e826129c5565b6129a8908361310e565b9150826129b481613121565b93505061298d565b50909392505050565b80516000908190811a60808110156129e057600191506125ab565b60b8811015612a06576129f4608082612ed7565b6129ff90600161310e565b91506125ab565b60c0811015612a335760b78103600185019450806020036101000a855104600182018101935050506125ab565b60f8811015612a47576129f460c082612ed7565b60019390930151602084900360f7016101000a90049092017fffffffffffffffffffffffffffffffffffffffffffffffffffffffffffffff0a0192915050565b80600003612a9457505050565b602081106124d35782518252612aab60208461310e565b9250612ab860208361310e565b9150612ac5602082612ed7565b9050612a94565b600060208284031215612ade57600080fd5b81357fffffffff000000000000000000000000000000000000000000000000000000008116811461059557600080fd5b73ffffffffffffffffffffffffffffffffffffffff81168114612b3057600080fd5b50565b60008060408385031215612b4657600080fd5b8235612b5181612b0e565b946020939093013593505050565b600080600080600060808688031215612b7757600080fd5b8535612b8281612b0e565b94506020860135612b9281612b0e565b935060408601359250606086013567ffffffffffffffff80821115612bb657600080fd5b818801915088601f830112612bca57600080fd5b813581811115612bd957600080fd5b896020828501011115612beb57600080fd5b9699959850939650602001949392505050565b600060208284031215612c1057600080fd5b813561059581612b0e565b600060208284031215612c2d57600080fd5b5035919050565b600080600060608486031215612c4957600080fd5b83359250602084013591506040840135612c6281612b0e565b809150509250925092565b600080600060608486031215612c8257600080fd5b8335612c8d81612b0e565b92506020840135612c9d81612b0e565b929592945050506040919091013590565b7f4e487b7100000000000000000000000000000000000000000000000000000000600052604160045260246000fd5b604051601f82017fffffffffffffffffffffffffffffffffffffffffffffffffffffffffffffffe016810167ffffffffffffffff81118282101715612d2457612d24612cae565b604052919050565b600067ffffffffffffffff821115612d4657612d46612cae565b50601f017fffffffffffffffffffffffffffffffffffffffffffffffffffffffffffffffe01660200190565b600060208284031215612d8457600080fd5b813567ffffffffffffffff811115612d9b57600080fd5b8201601f81018413612dac57600080fd5b8035612dbf612dba82612d2c565b612cdd565b818152856020838501011115612dd457600080fd5b81602084016020830137600091810160200191909152949350505050565b60005b83811015612e0d578181015183820152602001612df5565b50506000910152565b60008151808452612e2e816020860160208601612df2565b601f017fffffffffffffffffffffffffffffffffffffffffffffffffffffffffffffffe0169290920160200192915050565b73ffffffffffffffffffffffffffffffffffffffff83168152604060208201526000611ea96040830184612e16565b828152604060208201526000611ea96040830184612e16565b7f4e487b7100000000000000000000000000000000000000000000000000000000600052601160045260246000fd5b8181038181111561044157610441612ea8565b600060208284031215612efc57600080fd5b8151801515811461059557600080fd5b6000612f1a612dba84612d2c565b9050828152838383011115612f2e57600080fd5b610595836020830184612df2565b600060208284031215612f4e57600080fd5b815167ffffffffffffffff811115612f6557600080fd5b8201601f81018413612f7657600080fd5b611ea984825160208401612f0c565b600060208284031215612f9757600080fd5b815160ff8116811461059557600080fd5b600060208284031215612fba57600080fd5b815161059581612b0e565b60a081526000612fd860a0830188612e16565b8281036020840152612fea8188612e16565b905060ff8616604084015282810360608401526130078186612e16565b91505073ffffffffffffffffffffffffffffffffffffffff831660808301529695505050505050565b83815260008351613048816020850160208801612df2565b60209201918201929092526040019392505050565b600080600080600060a0868803121561307557600080fd5b855161308081612b0e565b602087015190955061309181612b0e565b60408701519094506130a281612b0e565b60608701519093506130b381612b0e565b80925050608086015190509295509295909350565b7f4e487b7100000000000000000000000000000000000000000000000000000000600052603260045260246000fd5b808202811582820484141761044157610441612ea8565b8082018082111561044157610441612ea8565b60007fffffffffffffffffffffffffffffffffffffffffffffffffffffffffffffffff820361315257613152612ea8565b5060010190565b600080600080600060a0868803121561317157600080fd5b85519450602086015193506040860151925060608601519150608086015161319881612b0e565b809150509295509295909350565b7f4e487b7100000000000000000000000000000000000000000000000000000000600052601260045260246000fd5b6000826131e4576131e46131a6565b500690565b6000826131f8576131f86131a6565b500490565b600060ff831680613210576132106131a6565b8060ff84160691505092915050565b600060ff831680613232576132326131a6565b8060ff84160491505092915050565b600181815b8085111561329a57817fffffffffffffffffffffffffffffffffffffffffffffffffffffffffffffffff0482111561328057613280612ea8565b8085161561328d57918102915b93841c9390800290613246565b509250929050565b6000826132b157506001610441565b816132be57506000610441565b81600181146132d457600281146132de576132fa565b6001915050610441565b60ff8411156132ef576132ef612ea8565b50506001821b610441565b5060208310610133831016604e8410600b841016171561331d575081810a610441565b6133278383613241565b807fffffffffffffffffffffffffffffffffffffffffffffffffffffffffffffffff0482111561335957613359612ea8565b029392505050565b600061059583836132a2565b60ff828116828216039081111561044157610441612ea856fea2646970667358221220576db1a468238689d66a7777684318d6a39b2e6306fc262936e48d714d2a1d1764736f6c63430008110033",
  "linkReferences": {},
  "deployedLinkReferences": {}
}