{
  "_format": "hh-sol-artifact-1",
  "contractName": "FxERC20MintBurnMock",
  "sourceName": "contracts/mocks/fx-portal/ERC20/FxERC20MintBurnMock.sol",
  "abi": [
    {
      "inputs": [
        {
          "internalType": "address[]",
          "name": "holders",
          "type": "address[]"
        },
        {
          "internalType": "uint256[]",
          "name": "allocations",
          "type": "uint256[]"
        },
        {
          "internalType": "contract IForwarderRegistry",
          "name": "forwarderRegistry",
          "type": "address"
        }
      ],
      "stateMutability": "nonpayable",
      "type": "constructor"
    },
    {
      "anonymous": false,
      "inputs": [
        {
          "indexed": true,
          "internalType": "address",
          "name": "owner",
          "type": "address"
        },
        {
          "indexed": true,
          "internalType": "address",
          "name": "spender",
          "type": "address"
        },
        {
          "indexed": false,
          "internalType": "uint256",
          "name": "value",
          "type": "uint256"
        }
      ],
      "name": "Approval",
      "type": "event"
    },
    {
      "anonymous": false,
      "inputs": [
        {
          "indexed": true,
          "internalType": "address",
          "name": "previousOwner",
          "type": "address"
        },
        {
          "indexed": true,
          "internalType": "address",
          "name": "newOwner",
          "type": "address"
        }
      ],
      "name": "OwnershipTransferred",
      "type": "event"
    },
    {
      "anonymous": false,
      "inputs": [
        {
          "indexed": false,
          "internalType": "bytes32",
          "name": "role",
          "type": "bytes32"
        },
        {
          "indexed": false,
          "internalType": "address",
          "name": "account",
          "type": "address"
        },
        {
          "indexed": false,
          "internalType": "address",
          "name": "operator",
          "type": "address"
        }
      ],
      "name": "RoleGranted",
      "type": "event"
    },
    {
      "anonymous": false,
      "inputs": [
        {
          "indexed": false,
          "internalType": "bytes32",
          "name": "role",
          "type": "bytes32"
        },
        {
          "indexed": false,
          "internalType": "address",
          "name": "account",
          "type": "address"
        },
        {
          "indexed": false,
          "internalType": "address",
          "name": "operator",
          "type": "address"
        }
      ],
      "name": "RoleRevoked",
      "type": "event"
    },
    {
      "anonymous": false,
      "inputs": [
        {
          "indexed": true,
          "internalType": "address",
          "name": "from",
          "type": "address"
        },
        {
          "indexed": true,
          "internalType": "address",
          "name": "to",
          "type": "address"
        },
        {
          "indexed": false,
          "internalType": "uint256",
          "name": "value",
          "type": "uint256"
        }
      ],
      "name": "Transfer",
      "type": "event"
    },
    {
      "inputs": [],
      "name": "DOMAIN_SEPARATOR",
      "outputs": [
        {
          "internalType": "bytes32",
          "name": "",
          "type": "bytes32"
        }
      ],
      "stateMutability": "view",
      "type": "function"
    },
    {
      "inputs": [],
      "name": "MINTER_ROLE",
      "outputs": [
        {
          "internalType": "bytes32",
          "name": "",
          "type": "bytes32"
        }
      ],
      "stateMutability": "view",
      "type": "function"
    },
    {
      "inputs": [],
      "name": "__msgData",
      "outputs": [
        {
          "internalType": "bytes",
          "name": "",
          "type": "bytes"
        }
      ],
      "stateMutability": "view",
      "type": "function"
    },
    {
      "inputs": [
        {
          "internalType": "address",
          "name": "owner",
          "type": "address"
        },
        {
          "internalType": "address",
          "name": "spender",
          "type": "address"
        }
      ],
      "name": "allowance",
      "outputs": [
        {
          "internalType": "uint256",
          "name": "value",
          "type": "uint256"
        }
      ],
      "stateMutability": "view",
      "type": "function"
    },
    {
      "inputs": [
        {
          "internalType": "address",
          "name": "spender",
          "type": "address"
        },
        {
          "internalType": "uint256",
          "name": "value",
          "type": "uint256"
        }
      ],
      "name": "approve",
      "outputs": [
        {
          "internalType": "bool",
          "name": "result",
          "type": "bool"
        }
      ],
      "stateMutability": "nonpayable",
      "type": "function"
    },
    {
      "inputs": [
        {
          "internalType": "address",
          "name": "owner",
          "type": "address"
        }
      ],
      "name": "balanceOf",
      "outputs": [
        {
          "internalType": "uint256",
          "name": "balance",
          "type": "uint256"
        }
      ],
      "stateMutability": "view",
      "type": "function"
    },
    {
      "inputs": [
        {
          "internalType": "address[]",
          "name": "owners",
          "type": "address[]"
        },
        {
          "internalType": "uint256[]",
          "name": "values",
          "type": "uint256[]"
        }
      ],
      "name": "batchBurnFrom",
      "outputs": [
        {
          "internalType": "bool",
          "name": "",
          "type": "bool"
        }
      ],
      "stateMutability": "nonpayable",
      "type": "function"
    },
    {
      "inputs": [
        {
          "internalType": "address[]",
          "name": "recipients",
          "type": "address[]"
        },
        {
          "internalType": "uint256[]",
          "name": "values",
          "type": "uint256[]"
        }
      ],
      "name": "batchMint",
      "outputs": [],
      "stateMutability": "nonpayable",
      "type": "function"
    },
    {
      "inputs": [
        {
          "internalType": "address[]",
          "name": "recipients",
          "type": "address[]"
        },
        {
          "internalType": "uint256[]",
          "name": "values",
          "type": "uint256[]"
        }
      ],
      "name": "batchTransfer",
      "outputs": [
        {
          "internalType": "bool",
          "name": "",
          "type": "bool"
        }
      ],
      "stateMutability": "nonpayable",
      "type": "function"
    },
    {
      "inputs": [
        {
          "internalType": "address",
          "name": "from",
          "type": "address"
        },
        {
          "internalType": "address[]",
          "name": "recipients",
          "type": "address[]"
        },
        {
          "internalType": "uint256[]",
          "name": "values",
          "type": "uint256[]"
        }
      ],
      "name": "batchTransferFrom",
      "outputs": [
        {
          "internalType": "bool",
          "name": "",
          "type": "bool"
        }
      ],
      "stateMutability": "nonpayable",
      "type": "function"
    },
    {
      "inputs": [
        {
          "internalType": "uint256",
          "name": "value",
          "type": "uint256"
        }
      ],
      "name": "burn",
      "outputs": [
        {
          "internalType": "bool",
          "name": "",
          "type": "bool"
        }
      ],
      "stateMutability": "nonpayable",
      "type": "function"
    },
    {
      "inputs": [
        {
          "internalType": "address",
          "name": "from",
          "type": "address"
        },
        {
          "internalType": "uint256",
          "name": "value",
          "type": "uint256"
        }
      ],
      "name": "burnFrom",
      "outputs": [
        {
          "internalType": "bool",
          "name": "",
          "type": "bool"
        }
      ],
      "stateMutability": "nonpayable",
      "type": "function"
    },
    {
      "inputs": [],
      "name": "connectedToken",
      "outputs": [
        {
          "internalType": "address",
          "name": "",
          "type": "address"
        }
      ],
      "stateMutability": "view",
      "type": "function"
    },
    {
      "inputs": [],
      "name": "decimals",
      "outputs": [
        {
          "internalType": "uint8",
          "name": "",
          "type": "uint8"
        }
      ],
      "stateMutability": "view",
      "type": "function"
    },
    {
      "inputs": [
        {
          "internalType": "address",
          "name": "spender",
          "type": "address"
        },
        {
          "internalType": "uint256",
          "name": "subtractedValue",
          "type": "uint256"
        }
      ],
      "name": "decreaseAllowance",
      "outputs": [
        {
          "internalType": "bool",
          "name": "result",
          "type": "bool"
        }
      ],
      "stateMutability": "nonpayable",
      "type": "function"
    },
    {
      "inputs": [],
      "name": "forwarderRegistry",
      "outputs": [
        {
          "internalType": "contract IForwarderRegistry",
          "name": "",
          "type": "address"
        }
      ],
      "stateMutability": "view",
      "type": "function"
    },
    {
      "inputs": [],
      "name": "fxManager",
      "outputs": [
        {
          "internalType": "address",
          "name": "",
          "type": "address"
        }
      ],
      "stateMutability": "view",
      "type": "function"
    },
    {
      "inputs": [
        {
          "internalType": "bytes32",
          "name": "role",
          "type": "bytes32"
        },
        {
          "internalType": "address",
          "name": "account",
          "type": "address"
        }
      ],
      "name": "grantRole",
      "outputs": [],
      "stateMutability": "nonpayable",
      "type": "function"
    },
    {
      "inputs": [
        {
          "internalType": "bytes32",
          "name": "role",
          "type": "bytes32"
        },
        {
          "internalType": "address",
          "name": "account",
          "type": "address"
        }
      ],
      "name": "hasRole",
      "outputs": [
        {
          "internalType": "bool",
          "name": "",
          "type": "bool"
        }
      ],
      "stateMutability": "view",
      "type": "function"
    },
    {
      "inputs": [
        {
          "internalType": "address",
          "name": "spender",
          "type": "address"
        },
        {
          "internalType": "uint256",
          "name": "addedValue",
          "type": "uint256"
        }
      ],
      "name": "increaseAllowance",
      "outputs": [
        {
          "internalType": "bool",
          "name": "result",
          "type": "bool"
        }
      ],
      "stateMutability": "nonpayable",
      "type": "function"
    },
    {
      "inputs": [
        {
          "internalType": "address",
          "name": "fxManager_",
          "type": "address"
        },
        {
          "internalType": "address",
          "name": "connectedToken_",
          "type": "address"
        },
        {
          "internalType": "string",
          "name": "tokenName",
          "type": "string"
        },
        {
          "internalType": "string",
          "name": "tokenSymbol",
          "type": "string"
        },
        {
          "internalType": "uint8",
          "name": "tokenDecimals",
          "type": "uint8"
        },
        {
          "internalType": "string",
          "name": "uri",
          "type": "string"
        },
        {
          "internalType": "address",
          "name": "initialOwner",
          "type": "address"
        }
      ],
      "name": "initialize",
      "outputs": [],
      "stateMutability": "nonpayable",
      "type": "function"
    },
    {
      "inputs": [
        {
          "internalType": "address",
          "name": "forwarder",
          "type": "address"
        }
      ],
      "name": "isTrustedForwarder",
      "outputs": [
        {
          "internalType": "bool",
          "name": "",
          "type": "bool"
        }
      ],
      "stateMutability": "view",
      "type": "function"
    },
    {
      "inputs": [
        {
          "internalType": "address",
          "name": "to",
          "type": "address"
        },
        {
          "internalType": "uint256",
          "name": "value",
          "type": "uint256"
        }
      ],
      "name": "mint",
      "outputs": [],
      "stateMutability": "nonpayable",
      "type": "function"
    },
    {
      "inputs": [],
      "name": "name",
      "outputs": [
        {
          "internalType": "string",
          "name": "",
          "type": "string"
        }
      ],
      "stateMutability": "view",
      "type": "function"
    },
    {
      "inputs": [
        {
          "internalType": "address",
          "name": "owner",
          "type": "address"
        }
      ],
      "name": "nonces",
      "outputs": [
        {
          "internalType": "uint256",
          "name": "",
          "type": "uint256"
        }
      ],
      "stateMutability": "view",
      "type": "function"
    },
    {
      "inputs": [],
      "name": "owner",
      "outputs": [
        {
          "internalType": "address",
          "name": "",
          "type": "address"
        }
      ],
      "stateMutability": "view",
      "type": "function"
    },
    {
      "inputs": [
        {
          "internalType": "address",
          "name": "owner",
          "type": "address"
        },
        {
          "internalType": "address",
          "name": "spender",
          "type": "address"
        },
        {
          "internalType": "uint256",
          "name": "value",
          "type": "uint256"
        },
        {
          "internalType": "uint256",
          "name": "deadline",
          "type": "uint256"
        },
        {
          "internalType": "uint8",
          "name": "v",
          "type": "uint8"
        },
        {
          "internalType": "bytes32",
          "name": "r",
          "type": "bytes32"
        },
        {
          "internalType": "bytes32",
          "name": "s",
          "type": "bytes32"
        }
      ],
      "name": "permit",
      "outputs": [],
      "stateMutability": "nonpayable",
      "type": "function"
    },
    {
      "inputs": [
        {
          "internalType": "address[]",
          "name": "accounts",
          "type": "address[]"
        },
        {
          "internalType": "contract IERC20[]",
          "name": "tokens",
          "type": "address[]"
        },
        {
          "internalType": "uint256[]",
          "name": "amounts",
          "type": "uint256[]"
        }
      ],
      "name": "recoverERC20s",
      "outputs": [],
      "stateMutability": "nonpayable",
      "type": "function"
    },
    {
      "inputs": [
        {
          "internalType": "address[]",
          "name": "accounts",
          "type": "address[]"
        },
        {
          "internalType": "contract IERC721[]",
          "name": "contracts",
          "type": "address[]"
        },
        {
          "internalType": "uint256[]",
          "name": "tokenIds",
          "type": "uint256[]"
        }
      ],
      "name": "recoverERC721s",
      "outputs": [],
      "stateMutability": "nonpayable",
      "type": "function"
    },
    {
      "inputs": [
        {
          "internalType": "address payable[]",
          "name": "accounts",
          "type": "address[]"
        },
        {
          "internalType": "uint256[]",
          "name": "amounts",
          "type": "uint256[]"
        }
      ],
      "name": "recoverETH",
      "outputs": [],
      "stateMutability": "nonpayable",
      "type": "function"
    },
    {
      "inputs": [
        {
          "internalType": "bytes32",
          "name": "role",
          "type": "bytes32"
        }
      ],
      "name": "renounceRole",
      "outputs": [],
      "stateMutability": "nonpayable",
      "type": "function"
    },
    {
      "inputs": [
        {
          "internalType": "bytes32",
          "name": "role",
          "type": "bytes32"
        },
        {
          "internalType": "address",
          "name": "account",
          "type": "address"
        }
      ],
      "name": "revokeRole",
      "outputs": [],
      "stateMutability": "nonpayable",
      "type": "function"
    },
    {
      "inputs": [
        {
          "internalType": "address",
          "name": "to",
          "type": "address"
        },
        {
          "internalType": "uint256",
          "name": "value",
          "type": "uint256"
        },
        {
          "internalType": "bytes",
          "name": "data",
          "type": "bytes"
        }
      ],
      "name": "safeTransfer",
      "outputs": [
        {
          "internalType": "bool",
          "name": "",
          "type": "bool"
        }
      ],
      "stateMutability": "nonpayable",
      "type": "function"
    },
    {
      "inputs": [
        {
          "internalType": "address",
          "name": "from",
          "type": "address"
        },
        {
          "internalType": "address",
          "name": "to",
          "type": "address"
        },
        {
          "internalType": "uint256",
          "name": "value",
          "type": "uint256"
        },
        {
          "internalType": "bytes",
          "name": "data",
          "type": "bytes"
        }
      ],
      "name": "safeTransferFrom",
      "outputs": [
        {
          "internalType": "bool",
          "name": "",
          "type": "bool"
        }
      ],
      "stateMutability": "nonpayable",
      "type": "function"
    },
    {
      "inputs": [
        {
          "internalType": "string",
          "name": "uri",
          "type": "string"
        }
      ],
      "name": "setTokenURI",
      "outputs": [],
      "stateMutability": "nonpayable",
      "type": "function"
    },
    {
      "inputs": [
        {
          "internalType": "bytes4",
          "name": "interfaceId",
          "type": "bytes4"
        }
      ],
      "name": "supportsInterface",
      "outputs": [
        {
          "internalType": "bool",
          "name": "",
          "type": "bool"
        }
      ],
      "stateMutability": "view",
      "type": "function"
    },
    {
      "inputs": [],
      "name": "symbol",
      "outputs": [
        {
          "internalType": "string",
          "name": "",
          "type": "string"
        }
      ],
      "stateMutability": "view",
      "type": "function"
    },
    {
      "inputs": [],
      "name": "tokenURI",
      "outputs": [
        {
          "internalType": "string",
          "name": "",
          "type": "string"
        }
      ],
      "stateMutability": "view",
      "type": "function"
    },
    {
      "inputs": [],
      "name": "totalSupply",
      "outputs": [
        {
          "internalType": "uint256",
          "name": "supply",
          "type": "uint256"
        }
      ],
      "stateMutability": "view",
      "type": "function"
    },
    {
      "inputs": [
        {
          "internalType": "address",
          "name": "to",
          "type": "address"
        },
        {
          "internalType": "uint256",
          "name": "value",
          "type": "uint256"
        }
      ],
      "name": "transfer",
      "outputs": [
        {
          "internalType": "bool",
          "name": "result",
          "type": "bool"
        }
      ],
      "stateMutability": "nonpayable",
      "type": "function"
    },
    {
      "inputs": [
        {
          "internalType": "address",
          "name": "from",
          "type": "address"
        },
        {
          "internalType": "address",
          "name": "to",
          "type": "address"
        },
        {
          "internalType": "uint256",
          "name": "value",
          "type": "uint256"
        }
      ],
      "name": "transferFrom",
      "outputs": [
        {
          "internalType": "bool",
          "name": "result",
          "type": "bool"
        }
      ],
      "stateMutability": "nonpayable",
      "type": "function"
    },
    {
      "inputs": [
        {
          "internalType": "address",
          "name": "newOwner",
          "type": "address"
        }
      ],
      "name": "transferOwnership",
      "outputs": [],
      "stateMutability": "nonpayable",
      "type": "function"
    }
  ],
  "bytecode": "0x60a06040523480156200001157600080fd5b506040516200525b3803806200525b833981016040819052620000349162000410565b6001600160a01b0381166080526200007283836200005d6200007b602090811b62000fd017901c565b620000b160201b62000ffe179092919060201c565b5050506200052c565b600080620000ab60017f1da92899d3da68bf9787824388a37ea2bfa79780bcef91b9716c390eec8ecbef620004f4565b92915050565b815181518114620001095760405162461bcd60e51b815260206004820152601a60248201527f45524332303a20696e636f6e73697374656e742061727261797300000000000060448201526064015b60405180910390fd5b80600003620001185750505050565b6000805b828114620002945760008582815181106200013b576200013b62000516565b6020026020010151905060006001600160a01b0316816001600160a01b031603620001a95760405162461bcd60e51b815260206004820152601960248201527f45524332303a206d696e7420746f206164647265737328302900000000000000604482015260640162000100565b6000858381518110620001c057620001c062000516565b60200260200101519050806000146200024857838101848111620002275760405162461bcd60e51b815260206004820152601660248201527f45524332303a2076616c756573206f766572666c6f7700000000000000000000604482015260640162000100565b6001600160a01b038316600090815260208a90526040902080548301905593505b6040518181526001600160a01b038316906000907fddf252ad1be2c89b69c2b068fc378daa952ba7f163c4a11628f55a4df523b3ef9060200160405180910390a350506001016200011c565b508015620002fc576002850154818101818111620002f55760405162461bcd60e51b815260206004820152601660248201527f45524332303a20737570706c79206f766572666c6f7700000000000000000000604482015260640162000100565b6002870155505b5050505050565b634e487b7160e01b600052604160045260246000fd5b604051601f8201601f191681016001600160401b038111828210171562000344576200034462000303565b604052919050565b60006001600160401b0382111562000368576200036862000303565b5060051b60200190565b6001600160a01b03811681146200038857600080fd5b50565b600082601f8301126200039d57600080fd5b81516020620003b6620003b0836200034c565b62000319565b82815260059290921b84018101918181019086841115620003d657600080fd5b8286015b84811015620003f35780518352918301918301620003da565b509695505050505050565b80516200040b8162000372565b919050565b6000806000606084860312156200042657600080fd5b83516001600160401b03808211156200043e57600080fd5b818601915086601f8301126200045357600080fd5b8151602062000466620003b0836200034c565b82815260059290921b8401810191818101908a8411156200048657600080fd5b948201945b83861015620004b1578551620004a18162000372565b825294820194908201906200048b565b91890151919750909350505080821115620004cb57600080fd5b50620004da868287016200038b565b925050620004eb60408501620003fe565b90509250925092565b81810381811115620000ab57634e487b7160e01b600052601160045260246000fd5b634e487b7160e01b600052603260045260246000fd5b608051614cf06200056b6000396000818161039e0152818161047301528181613cb001528181613d3801528181613deb0152613e290152614cf06000f3fe608060405234801561001057600080fd5b50600436106102de5760003560e01c806379cc679011610186578063a9059cbb116100e3578063d547741f11610097578063eb79554911610071578063eb79554914610632578063f2fde38b14610645578063f7ba94bd1461065857600080fd5b8063d547741f146105f9578063dd62ed3e1461060c578063e0df5b6f1461061f57600080fd5b8063c3666c36116100c8578063c3666c36146105ac578063d505accf146105bf578063d5391393146105d257600080fd5b8063a9059cbb14610586578063b88d4fde1461059957600080fd5b806391d148541161013a5780639a0186a31161011f5780639a0186a3146105585780639b7791531461056b578063a457c2d71461057357600080fd5b806391d148541461053d57806395d89b411461055057600080fd5b806388d695b21161016b57806388d695b21461050f5780638bb9c5bf146105225780638da5cb5b1461053557600080fd5b806379cc6790146104e95780637ecebe00146104fc57600080fd5b806331e66e1e1161023f57806342966c68116101f357806368573107116101cd57806368573107146104b057806370a08231146104c357806373c8a958146104d657600080fd5b806342966c681461043d5780634885b25414610450578063572b6c051461046357600080fd5b80633950935111610224578063395093511461040f5780633c130d901461042257806340c10f191461042a57600080fd5b806331e66e1e146103f15780633644e5151461040757600080fd5b80631b9a7529116102965780632b4c9f161161027b5780632b4c9f161461039c5780632f2ff15d146103c2578063313ce567146103d757600080fd5b80631b9a75291461037657806323b872dd1461038957600080fd5b8063095ea7b3116102c7578063095ea7b3146103205780630a8a49141461033357806318160ddd1461036057600080fd5b806301ffc9a7146102e357806306fdde031461030b575b600080fd5b6102f66102f13660046142aa565b61066b565b60405190151581526020015b60405180910390f35b610313610685565b6040516103029190614335565b6102f661032e36600461437a565b61069c565b61033b6106c4565b60405173ffffffffffffffffffffffffffffffffffffffff9091168152602001610302565b6103686106ee565b604051908152602001610302565b6102f66103843660046143f2565b610702565b6102f661039736600461445e565b610731565b7f000000000000000000000000000000000000000000000000000000000000000061033b565b6103d56103d036600461449f565b61075c565b005b6103df610795565b60405160ff9091168152602001610302565b6103f96107ac565b6040516103029291906144cf565b6103686107bf565b6102f661041d36600461437a565b6107c9565b6103136107e8565b6103d561043836600461437a565b6107f5565b6102f661044b36600461451c565b610848565b6102f661045e366004614535565b61086d565b6102f66104713660046145b8565b7f000000000000000000000000000000000000000000000000000000000000000073ffffffffffffffffffffffffffffffffffffffff90811691161490565b6103d56104be3660046143f2565b61089e565b6103686104d13660046145b8565b610948565b6103d56104e43660046145d5565b610980565b6102f66104f736600461437a565b610ab0565b61036861050a3660046145b8565b610acf565b6102f661051d3660046143f2565b610add565b6103d561053036600461451c565b610b00565b61033b610b1e565b6102f661054b36600461449f565b610b45565b610313610b90565b6103d56105663660046146c2565b610ba2565b61033b610bd0565b6102f661058136600461437a565b610bdd565b6102f661059436600461437a565b610bfc565b6102f66105a73660046147a5565b610c1b565b6103d56105ba3660046145d5565b610c40565b6103d56105cd366004614807565b610de5565b6103687f6d696e746572000000000000000000000000000000000000000000000000000081565b6103d561060736600461449f565b610e0c565b61036861061a366004614875565b610e3a565b6103d561062d3660046148a3565b610e85565b6102f66106403660046148e5565b610ea4565b6103d56106533660046145b8565b610ec7565b6103d56106663660046143f2565b610ee2565b600061067f826106796112d5565b90611303565b92915050565b60606106976106926113dd565b61140b565b905090565b60006106bb6106a96114a1565b84846106b3610fd0565b9291906114ab565b50600192915050565b60006106976106d161159a565b6001015473ffffffffffffffffffffffffffffffffffffffff1690565b60006106976106fb610fd0565b6002015490565b600061072561070f6114a1565b8686868661071b610fd0565b94939291906115c8565b5060015b949350505050565b600061075261073e6114a1565b858585610749610fd0565b9392919061180a565b5060019392505050565b60006107666114a1565b905061077a81610774611855565b90611883565b610790838383610788611906565b929190611934565b505050565b60006106976107a26113dd565b6002015460ff1690565b3660006107b7611a0a565b915091509091565b6000610697611a15565b60006106bb6107d66114a1565b84846107e0610fd0565b929190611ab0565b6060610697610692611c7c565b6108307f6d696e74657200000000000000000000000000000000000000000000000000006108216114a1565b610829611906565b9190611caa565b610844828261083d610fd0565b9190611d56565b5050565b60006108656108556114a1565b8361085e610fd0565b9190611ed0565b506001919050565b600061089261087a6114a1565b8787878787610887610fd0565b959493929190611fe6565b50600195945050505050565b6108ca7f6d696e74657200000000000000000000000000000000000000000000000000006108216114a1565b6109428484808060200260200160405190810160405280939291908181526020018383602002808284376000920191909152505060408051602080880282810182019093528782529093508792508691829185019084908082843760009201919091525061093b9250610fd0915050565b9190610ffe565b50505050565b600061067f82610956610fd0565b9073ffffffffffffffffffffffffffffffffffffffff166000908152602091909152604090205490565b61099361098b6114a1565b610774611855565b8483811480156109a257508082145b610a0d576040517f08c379a000000000000000000000000000000000000000000000000000000000815260206004820152601d60248201527f5265636f766572793a20696e636f6e73697374656e742061727261797300000060448201526064015b60405180910390fd5b60005b818114610aa657610a9e888883818110610a2c57610a2c614935565b9050602002016020810190610a4191906145b8565b858584818110610a5357610a53614935565b90506020020135888885818110610a6c57610a6c614935565b9050602002016020810190610a8191906145b8565b73ffffffffffffffffffffffffffffffffffffffff16919061242c565b600101610a10565b5050505050505050565b60006106bb610abd6114a1565b8484610ac7610fd0565b9291906124b9565b600061067f82610956612503565b6000610725610aea6114a1565b86868686610af6610fd0565b9493929190612531565b610b1b610b0b6114a1565b82610b14611906565b9190612912565b50565b6000610697610b2b611855565b5473ffffffffffffffffffffffffffffffffffffffff1690565b6000610b898383610b54611906565b60009283526020908152604080842073ffffffffffffffffffffffffffffffffffffffff909316845291905290205460ff1690565b9392505050565b6060610697610b9d6113dd565b6129b6565b610bb48a8a8a8a8a8a8a8a8a8a6129c7565b610bbc612a3c565b610bc4612a73565b50505050505050505050565b6000610697610b2b61159a565b60006106bb610bea6114a1565b8484610bf4610fd0565b929190612aa1565b60006106bb610c096114a1565b8484610c13610fd0565b929190612bf3565b6000610892610c286114a1565b8787878787610c35610fd0565b959493929190612dd4565b610c4b61098b6114a1565b848381148015610c5a57508082145b610cc0576040517f08c379a000000000000000000000000000000000000000000000000000000000815260206004820152601d60248201527f5265636f766572793a20696e636f6e73697374656e74206172726179730000006044820152606401610a04565b60005b818114610aa657858582818110610cdc57610cdc614935565b9050602002016020810190610cf191906145b8565b73ffffffffffffffffffffffffffffffffffffffff166323b872dd308a8a85818110610d1f57610d1f614935565b9050602002016020810190610d3491906145b8565b878786818110610d4657610d46614935565b6040517fffffffff0000000000000000000000000000000000000000000000000000000060e088901b16815273ffffffffffffffffffffffffffffffffffffffff958616600482015294909316602485015250602090910201356044820152606401600060405180830381600087803b158015610dc257600080fd5b505af1158015610dd6573d6000803e3d6000fd5b50505050806001019050610cc3565b610e0387878787878787610df7612503565b96959493929190612e41565b50505050505050565b6000610e166114a1565b9050610e2481610774611855565b610790838383610e32611906565b92919061313d565b6000610b898383610e49610fd0565b919073ffffffffffffffffffffffffffffffffffffffff9182166000908152600193909301602090815260408085209290931684525290205490565b610e9061098b6114a1565b6108448282610e9d611c7c565b9190613207565b6000610725610eb16114a1565b86868686610ebd610fd0565b9493929190613213565b610b1b610ed26114a1565b82610edb611855565b919061327f565b610eed61098b6114a1565b82818114610f57576040517f08c379a000000000000000000000000000000000000000000000000000000000815260206004820152601d60248201527f5265636f766572793a20696e636f6e73697374656e74206172726179730000006044820152606401610a04565b60005b818114610fc857610fc0848483818110610f7657610f76614935565b90506020020135878784818110610f8f57610f8f614935565b9050602002016020810190610fa491906145b8565b73ffffffffffffffffffffffffffffffffffffffff16906133ab565b600101610f5a565b505050505050565b60008061067f60017f1da92899d3da68bf9787824388a37ea2bfa79780bcef91b9716c390eec8ecbef614964565b81518151811461106a576040517f08c379a000000000000000000000000000000000000000000000000000000000815260206004820152601a60248201527f45524332303a20696e636f6e73697374656e74206172726179730000000000006044820152606401610a04565b806000036110785750505050565b6000805b82811461124f57600085828151811061109757611097614935565b60200260200101519050600073ffffffffffffffffffffffffffffffffffffffff168173ffffffffffffffffffffffffffffffffffffffff1603611137576040517f08c379a000000000000000000000000000000000000000000000000000000000815260206004820152601960248201527f45524332303a206d696e7420746f2061646472657373283029000000000000006044820152606401610a04565b600085838151811061114b5761114b614935565b60200260200101519050806000146111f7578381018481116111c9576040517f08c379a000000000000000000000000000000000000000000000000000000000815260206004820152601660248201527f45524332303a2076616c756573206f766572666c6f77000000000000000000006044820152606401610a04565b73ffffffffffffffffffffffffffffffffffffffff8316600090815260208a90526040902080548301905593505b60405181815273ffffffffffffffffffffffffffffffffffffffff8316906000907fddf252ad1be2c89b69c2b068fc378daa952ba7f163c4a11628f55a4df523b3ef9060200160405180910390a3505060010161107c565b5080156112ce5760028501548181018181116112c7576040517f08c379a000000000000000000000000000000000000000000000000000000000815260206004820152601660248201527f45524332303a20737570706c79206f766572666c6f77000000000000000000006044820152606401610a04565b6002870155505b5050505050565b60008061067f60017fca9d3e17f264b0f3984e2634e94adb37fa3e6a8103f06aeae6fa59e21c769f5e614964565b60007c01000000000000000000000000000000000000000000000000000000007fffffffff000000000000000000000000000000000000000000000000000000008316016113535750600061067f565b7ffe003659000000000000000000000000000000000000000000000000000000007fffffffff000000000000000000000000000000000000000000000000000000008316016113a45750600161067f565b507fffffffff00000000000000000000000000000000000000000000000000000000166000908152602091909152604090205460ff1690565b60008061067f60017f335df4119bbb04f056b33eba33b826d3529129e458faf6daa9924b5a8f3b6a82614964565b606081600001805461141c9061499e565b80601f01602080910402602001604051908101604052809291908181526020018280546114489061499e565b80156114955780601f1061146a57610100808354040283529160200191611495565b820191906000526020600020905b81548152906001019060200180831161147857829003601f168201915b50505050509050919050565b6000610697613505565b73ffffffffffffffffffffffffffffffffffffffff8216611528576040517f08c379a000000000000000000000000000000000000000000000000000000000815260206004820152601d60248201527f45524332303a20617070726f76616c20746f20616464726573732830290000006044820152606401610a04565b73ffffffffffffffffffffffffffffffffffffffff838116600081815260018701602090815260408083209487168084529482529182902085905590518481527f8c5be1e5ebec7d5bd14f71427d1e84f3dd0314c0f7b2291e5b200ac8c7c3b92591015b60405180910390a350505050565b60008061067f60017ffbf67eff80ed72d4d972e624738c2b5704d828cc6926cf8653e1018c8eef81c0614964565b82818114611632576040517f08c379a000000000000000000000000000000000000000000000000000000000815260206004820152601a60248201527f45524332303a20696e636f6e73697374656e74206172726179730000000000006044820152606401610a04565b806000036116405750610fc8565b6000805b8281146117ee57600087878381811061165f5761165f614935565b905060200201602081019061167491906145b8565b9050600086868481811061168a5761168a614935565b9050602002013590508973ffffffffffffffffffffffffffffffffffffffff168273ffffffffffffffffffffffffffffffffffffffff16146116d2576116d28b838c84612aa1565b80156117965773ffffffffffffffffffffffffffffffffffffffff8216600090815260208c9052604090205481810381811061176a576040517f08c379a000000000000000000000000000000000000000000000000000000000815260206004820152601b60248201527f45524332303a20696e73756666696369656e742062616c616e636500000000006044820152606401610a04565b73ffffffffffffffffffffffffffffffffffffffff8416600090815260208e9052604090205550928301925b60405181815260009073ffffffffffffffffffffffffffffffffffffffff8416907fddf252ad1be2c89b69c2b068fc378daa952ba7f163c4a11628f55a4df523b3ef9060200160405180910390a35050600101611644565b508015610aa65760028801805482900390555050505050505050565b8373ffffffffffffffffffffffffffffffffffffffff168373ffffffffffffffffffffffffffffffffffffffff16146118495761184985848684612aa1565b6112ce85848484612bf3565b60008061067f60017fc9ed16f33ab3a66c84bfd83099ccb2a8845871e2e1c1928f63797152f0fd54cd614964565b815473ffffffffffffffffffffffffffffffffffffffff828116911614610844576040517f08c379a000000000000000000000000000000000000000000000000000000000815260206004820152601860248201527f4f776e6572736869703a206e6f7420746865206f776e657200000000000000006044820152606401610a04565b60008061067f60017fc8827d3282af6f37b64c3e9e6f3ac9df286ab0bb0fccd6f8661bf19adb368b23614964565b60008381526020858152604080832073ffffffffffffffffffffffffffffffffffffffff8616845290915290205460ff166109425760008381526020858152604080832073ffffffffffffffffffffffffffffffffffffffff8681168086529184529382902080547fffffffffffffffffffffffffffffffffffffffffffffffffffffffffffffff00166001179055815187815292830152918316918101919091527f2f8788117e7eff1d82e926ec794901d17c78024a50270940304540a733656f0d906060015b60405180910390a150505050565b3660006107b761350f565b6000467f8b73c3c69bb8fe3d512ecc4cf759cc79239f7b179b0ffacaa9a75d522b39400f611a446106926113dd565b80516020918201206040805192830193909352918101919091527fc89efdaa54c0f20c7adf612882df0950f5a951637e0307cdcb4c672f298b8bc66060820152608081018290523060a082015260c0016040516020818303038152906040528051906020012091505090565b73ffffffffffffffffffffffffffffffffffffffff8216611b2d576040517f08c379a000000000000000000000000000000000000000000000000000000000815260206004820152601d60248201527f45524332303a20617070726f76616c20746f20616464726573732830290000006044820152606401610a04565b73ffffffffffffffffffffffffffffffffffffffff80841660009081526001860160209081526040808320938616835292905220548115611c0e57808201818111611bd4576040517f08c379a000000000000000000000000000000000000000000000000000000000815260206004820152601960248201527f45524332303a20616c6c6f77616e6365206f766572666c6f77000000000000006044820152606401610a04565b73ffffffffffffffffffffffffffffffffffffffff8086166000908152600188016020908152604080832093881683529290522081905590505b8273ffffffffffffffffffffffffffffffffffffffff168473ffffffffffffffffffffffffffffffffffffffff167f8c5be1e5ebec7d5bd14f71427d1e84f3dd0314c0f7b2291e5b200ac8c7c3b92583604051611c6d91815260200190565b60405180910390a35050505050565b60008061067f60017ff41bf6a5db26bffdfab174dcf66b31fbba8fdb7e3db040721ce1e62d61839ceb614964565b60008281526020848152604080832073ffffffffffffffffffffffffffffffffffffffff8516845290915290205460ff1661079057611ce88261351a565b604051602001611cf891906149f1565b604080517fffffffffffffffffffffffffffffffffffffffffffffffffffffffffffffffe0818403018152908290527f08c379a0000000000000000000000000000000000000000000000000000000008252610a0491600401614335565b73ffffffffffffffffffffffffffffffffffffffff8216611dd3576040517f08c379a000000000000000000000000000000000000000000000000000000000815260206004820152601960248201527f45524332303a206d696e7420746f2061646472657373283029000000000000006044820152606401610a04565b8015611e7c576002830154818101818111611e4a576040517f08c379a000000000000000000000000000000000000000000000000000000000815260206004820152601660248201527f45524332303a20737570706c79206f766572666c6f77000000000000000000006044820152606401610a04565b60028501555073ffffffffffffffffffffffffffffffffffffffff821660009081526020849052604090208054820190555b60405181815273ffffffffffffffffffffffffffffffffffffffff8316906000907fddf252ad1be2c89b69c2b068fc378daa952ba7f163c4a11628f55a4df523b3ef906020015b60405180910390a3505050565b8015611f9b5773ffffffffffffffffffffffffffffffffffffffff8216600090815260208490526040902054818103818110611f68576040517f08c379a000000000000000000000000000000000000000000000000000000000815260206004820152601b60248201527f45524332303a20696e73756666696369656e742062616c616e636500000000006044820152606401610a04565b73ffffffffffffffffffffffffffffffffffffffff84166000908152602086905260409020555060028301805482900390555b60405181815260009073ffffffffffffffffffffffffffffffffffffffff8416907fddf252ad1be2c89b69c2b068fc378daa952ba7f163c4a11628f55a4df523b3ef90602001611ec3565b82818114612050576040517f08c379a000000000000000000000000000000000000000000000000000000000815260206004820152601a60248201527f45524332303a20696e636f6e73697374656e74206172726179730000000000006044820152606401610a04565b8060000361205e5750610e03565b73ffffffffffffffffffffffffffffffffffffffff86166000908152602089905260408120549080805b8481146123345760008989838181106120a3576120a3614935565b90506020020160208101906120b891906145b8565b905073ffffffffffffffffffffffffffffffffffffffff8116612137576040517f08c379a000000000000000000000000000000000000000000000000000000000815260206004820152601d60248201527f45524332303a207472616e7366657220746f20616464726573732830290000006044820152606401610a04565b600088888481811061214b5761214b614935565b905060200201359050806000146122c3578481018581116121c8576040517f08c379a000000000000000000000000000000000000000000000000000000000815260206004820152601660248201527f45524332303a2076616c756573206f766572666c6f77000000000000000000006044820152606401610a04565b8095508273ffffffffffffffffffffffffffffffffffffffff168d73ffffffffffffffffffffffffffffffffffffffff161461225257818f60000160008573ffffffffffffffffffffffffffffffffffffffff1673ffffffffffffffffffffffffffffffffffffffff168152602001908152602001600020600082825401925050819055506122c1565b868211156122bc576040517f08c379a000000000000000000000000000000000000000000000000000000000815260206004820152601b60248201527f45524332303a20696e73756666696369656e742062616c616e636500000000006044820152606401610a04565b938101935b505b8173ffffffffffffffffffffffffffffffffffffffff168c73ffffffffffffffffffffffffffffffffffffffff167fddf252ad1be2c89b69c2b068fc378daa952ba7f163c4a11628f55a4df523b3ef8360405161232291815260200190565b60405180910390a35050600101612088565b5081158015906123445750808214155b156123e0578183038381106123b5576040517f08c379a000000000000000000000000000000000000000000000000000000000815260206004820152601b60248201527f45524332303a20696e73756666696369656e742062616c616e636500000000006044820152606401610a04565b73ffffffffffffffffffffffffffffffffffffffff8a16600090815260208d90526040902090820190555b8973ffffffffffffffffffffffffffffffffffffffff168973ffffffffffffffffffffffffffffffffffffffff161461241f5761241f8b8a8c85612aa1565b5050505050505050505050565b6040805173ffffffffffffffffffffffffffffffffffffffff8416602482015260448082018490528251808303909101815260649091019091526020810180517bffffffffffffffffffffffffffffffffffffffffffffffffffffffff167fa9059cbb000000000000000000000000000000000000000000000000000000001790526107909084906136ac565b8273ffffffffffffffffffffffffffffffffffffffff168273ffffffffffffffffffffffffffffffffffffffff16146124f8576124f884838584612aa1565b610942848383611ed0565b60008061067f60017f93fe0ff7226b064a4a8f0b09910762afb4bc2441835792c021ffd78cd513011e614964565b8281811461259b576040517f08c379a000000000000000000000000000000000000000000000000000000000815260206004820152601a60248201527f45524332303a20696e636f6e73697374656e74206172726179730000000000006044820152606401610a04565b806000036125a95750610fc8565b73ffffffffffffffffffffffffffffffffffffffff86166000908152602088905260408120549080805b84811461285b5760008989838181106125ee576125ee614935565b905060200201602081019061260391906145b8565b905073ffffffffffffffffffffffffffffffffffffffff8116612682576040517f08c379a000000000000000000000000000000000000000000000000000000000815260206004820152601d60248201527f45524332303a207472616e7366657220746f20616464726573732830290000006044820152606401610a04565b600088888481811061269657612696614935565b905060200201359050806000146127ea57848101858111612713576040517f08c379a000000000000000000000000000000000000000000000000000000000815260206004820152601660248201527f45524332303a2076616c756573206f766572666c6f77000000000000000000006044820152606401610a04565b8095508273ffffffffffffffffffffffffffffffffffffffff168d73ffffffffffffffffffffffffffffffffffffffff16146127795773ffffffffffffffffffffffffffffffffffffffff8316600090815260208f9052604090208054830190556127e8565b868211156127e3576040517f08c379a000000000000000000000000000000000000000000000000000000000815260206004820152601b60248201527f45524332303a20696e73756666696369656e742062616c616e636500000000006044820152606401610a04565b938101935b505b8173ffffffffffffffffffffffffffffffffffffffff168c73ffffffffffffffffffffffffffffffffffffffff167fddf252ad1be2c89b69c2b068fc378daa952ba7f163c4a11628f55a4df523b3ef8360405161284991815260200190565b60405180910390a350506001016125d3565b50811580159061286b5750808214155b15610bc4578183038381106128dc576040517f08c379a000000000000000000000000000000000000000000000000000000000815260206004820152601b60248201527f45524332303a20696e73756666696369656e742062616c616e636500000000006044820152606401610a04565b73ffffffffffffffffffffffffffffffffffffffff8a16600090815260208c905260409020908201905550505050505050505050565b61291d838284611caa565b60008181526020848152604080832073ffffffffffffffffffffffffffffffffffffffff86168085529083529281902080547fffffffffffffffffffffffffffffffffffffffffffffffffffffffffffffff0016905580518481529182018390528101919091527ff6391f5c32d9c69d2a47ea670b442974b53935d1edc7fd64eb21e047a839171b9060600160405180910390a1505050565b606081600101805461141c9061499e565b6129cf6137b8565b6129e988888888886129df6113dd565b949392919061381c565b6129f16138cb565b6129fe8383610e9d611c7c565b612a066138f9565b612a0e613927565b612a16613955565b612a2a8a8a612a2361159a565b9190613983565b610bc481612a36611855565b90613a03565b612a717f28963e1e000000000000000000000000000000000000000000000000000000006001612a6a6112d5565b9190613a3b565b565b612a717f20c07ed1000000000000000000000000000000000000000000000000000000006001612a6a6112d5565b73ffffffffffffffffffffffffffffffffffffffff8216612b1e576040517f08c379a000000000000000000000000000000000000000000000000000000000815260206004820152601d60248201527f45524332303a20617070726f76616c20746f20616464726573732830290000006044820152606401610a04565b73ffffffffffffffffffffffffffffffffffffffff80841660009081526001860160209081526040808320938616835292905220547fffffffffffffffffffffffffffffffffffffffffffffffffffffffffffffffff8114801590612b8257508115155b15611c0e57818103818110611bd4576040517f08c379a000000000000000000000000000000000000000000000000000000000815260206004820152601d60248201527f45524332303a20696e73756666696369656e7420616c6c6f77616e63650000006044820152606401610a04565b73ffffffffffffffffffffffffffffffffffffffff8216612c70576040517f08c379a000000000000000000000000000000000000000000000000000000000815260206004820152601d60248201527f45524332303a207472616e7366657220746f20616464726573732830290000006044820152606401610a04565b8015612d755773ffffffffffffffffffffffffffffffffffffffff8316600090815260208590526040902054818103818110612d08576040517f08c379a000000000000000000000000000000000000000000000000000000000815260206004820152601b60248201527f45524332303a20696e73756666696369656e742062616c616e636500000000006044820152606401610a04565b8373ffffffffffffffffffffffffffffffffffffffff168573ffffffffffffffffffffffffffffffffffffffff1614612d725773ffffffffffffffffffffffffffffffffffffffff8086166000908152602088905260408082208490559186168152208054840190555b50505b8173ffffffffffffffffffffffffffffffffffffffff168373ffffffffffffffffffffffffffffffffffffffff167fddf252ad1be2c89b69c2b068fc378daa952ba7f163c4a11628f55a4df523b3ef8360405161158c91815260200190565b612de1878787878761180a565b73ffffffffffffffffffffffffffffffffffffffff84163b15610e0357610e038686868686868080601f016020809104026020016040519081016040528093929190818152602001838380828437600092019190915250613b4792505050565b73ffffffffffffffffffffffffffffffffffffffff8716612ebe576040517f08c379a000000000000000000000000000000000000000000000000000000000815260206004820152601d60248201527f45524332303a207065726d69742066726f6d20616464726573732830290000006044820152606401610a04565b83421115612f28576040517f08c379a000000000000000000000000000000000000000000000000000000000815260206004820152601560248201527f45524332303a2065787069726564207065726d697400000000000000000000006044820152606401610a04565b73ffffffffffffffffffffffffffffffffffffffff878116600081815260208b8152604080832080546001810190915581517f6e71edae12b1b97f4d1f60370fef10105fa2faae0126114a169c64845d6126c98185015280830195909552948b166060850152608084018a905260a084019490945260c08084018990528451808503909101815260e09093019093528151919092012090612fc7611a15565b6040517f19010000000000000000000000000000000000000000000000000000000000006020820152602281019190915260428101839052606201604080517fffffffffffffffffffffffffffffffffffffffffffffffffffffffffffffffe08184030181528282528051602091820120600080855291840180845281905260ff89169284019290925260608301879052608083018690529092509060019060a0016020604051602081039080840390855afa15801561308b573d6000803e3d6000fd5b5050506020604051035190508973ffffffffffffffffffffffffffffffffffffffff168173ffffffffffffffffffffffffffffffffffffffff161461312c576040517f08c379a000000000000000000000000000000000000000000000000000000000815260206004820152601560248201527f45524332303a20696e76616c6964207065726d697400000000000000000000006044820152606401610a04565b505050610aa68787876106b3610fd0565b60008381526020858152604080832073ffffffffffffffffffffffffffffffffffffffff8616845290915290205460ff16156109425760008381526020858152604080832073ffffffffffffffffffffffffffffffffffffffff8681168086529184529382902080547fffffffffffffffffffffffffffffffffffffffffffffffffffffffffffffff00169055815187815292830152918316918101919091527ff6391f5c32d9c69d2a47ea670b442974b53935d1edc7fd64eb21e047a839171b906060016119fc565b82610942828483614ad2565b61321f86868686612bf3565b73ffffffffffffffffffffffffffffffffffffffff84163b15610fc857610fc88586868686868080601f016020809104026020016040519081016040528093929190818152602001838380828437600092019190915250613b4792505050565b825473ffffffffffffffffffffffffffffffffffffffff9081169083168114613304576040517f08c379a000000000000000000000000000000000000000000000000000000000815260206004820152601860248201527f4f776e6572736869703a206e6f7420746865206f776e657200000000000000006044820152606401610a04565b8173ffffffffffffffffffffffffffffffffffffffff168173ffffffffffffffffffffffffffffffffffffffff16146109425783547fffffffffffffffffffffffff00000000000000000000000000000000000000001673ffffffffffffffffffffffffffffffffffffffff8381169182178655604051908316907f8be0079c531659141344cd1fd0a4f28419497f9722a3daafe3b4186f6b6457e090600090a350505050565b80471015613415576040517f08c379a000000000000000000000000000000000000000000000000000000000815260206004820152601d60248201527f416464726573733a20696e73756666696369656e742062616c616e63650000006044820152606401610a04565b60008273ffffffffffffffffffffffffffffffffffffffff168260405160006040518083038185875af1925050503d806000811461346f576040519150601f19603f3d011682016040523d82523d6000602084013e613474565b606091505b5050905080610790576040517f08c379a000000000000000000000000000000000000000000000000000000000815260206004820152603a60248201527f416464726573733a20756e61626c6520746f2073656e642076616c75652c207260448201527f6563697069656e74206d617920686176652072657665727465640000000000006064820152608401610a04565b6000610697613c6d565b3660006107b7613db4565b6060600082900361353957505060408051602081019091526000815290565b60008260405160200161354e91815260200190565b604080517fffffffffffffffffffffffffffffffffffffffffffffffffffffffffffffffe08184030181529190529050601f5b81818151811061359357613593614935565b01602001517fff00000000000000000000000000000000000000000000000000000000000000166000036135e8577fffffffffffffffffffffffffffffffffffffffffffffffffffffffffffffffff01613581565b60008160010167ffffffffffffffff81111561360657613606614a5d565b6040519080825280601f01601f191660200182016040528015613630576020820181803683370190505b50905060005b8281116136a35783818151811061364f5761364f614935565b602001015160f81c60f81b82828151811061366c5761366c614935565b60200101907effffffffffffffffffffffffffffffffffffffffffffffffffffffffffffff1916908160001a905350600101613636565b50949350505050565b600061370e826040518060400160405280602081526020017f5361666545524332303a206c6f772d6c6576656c2063616c6c206661696c65648152508573ffffffffffffffffffffffffffffffffffffffff16613f1e9092919063ffffffff16565b805190915015610790578080602001905181019061372c9190614bec565b610790576040517f08c379a000000000000000000000000000000000000000000000000000000000815260206004820152602a60248201527f5361666545524332303a204552433230206f7065726174696f6e20646964206e60448201527f6f742073756363656564000000000000000000000000000000000000000000006064820152608401610a04565b60006137c26112d5565b90506137f0817f36372b07000000000000000000000000000000000000000000000000000000006001613a3b565b610b1b817f9d075186000000000000000000000000000000000000000000000000000000006001613a3b565b61385161384a60017fd217496980d1cb14720b20a80af36676bbece8e5feeb5d8970a9681a2c76bb75614964565b6001613f2d565b8561385d858783614ad2565b506001860161386d838583614ad2565b506002860180547fffffffffffffffffffffffffffffffffffffffffffffffffffffffffffffff001660ff8316179055610fc87fa219a025000000000000000000000000000000000000000000000000000000006001612a6a6112d5565b612a717f3c130d90000000000000000000000000000000000000000000000000000000006001612a6a6112d5565b612a717f9d8ff7da000000000000000000000000000000000000000000000000000000006001612a6a6112d5565b612a717fc05327e6000000000000000000000000000000000000000000000000000000006001612a6a6112d5565b612a717f53f41a97000000000000000000000000000000000000000000000000000000006001612a6a6112d5565b6139b161384a60017f207034c18a9defc6f1e4e1ae46a487e86951456577b7bce22778749189164d2a614964565b82547fffffffffffffffffffffffff000000000000000000000000000000000000000090811673ffffffffffffffffffffffffffffffffffffffff938416178455600190930180549093169116179055565b613a3161384a60017f5b388d90dc1312ba799f321972f13311234fa1163bcabec7cf66101c4876eb84614964565b6108448282613f9d565b7c01000000000000000000000000000000000000000000000000000000007fffffffff00000000000000000000000000000000000000000000000000000000831601613ae3576040517f08c379a000000000000000000000000000000000000000000000000000000000815260206004820152601f60248201527f496e74657266616365446574656374696f6e3a2077726f6e672076616c7565006044820152606401610a04565b7fffffffff00000000000000000000000000000000000000000000000000000000919091166000908152602092909252604090912080547fffffffffffffffffffffffffffffffffffffffffffffffffffffffffffffff0016911515919091179055565b6040517f4fc35859000000000000000000000000000000000000000000000000000000008082529073ffffffffffffffffffffffffffffffffffffffff851690634fc3585990613ba1908990899088908890600401614c0e565b6020604051808303816000875af1158015613bc0573d6000803e3d6000fd5b505050506040513d601f19601f82011682018060405250810190613be49190614c57565b7fffffffff0000000000000000000000000000000000000000000000000000000016146112ce576040517f08c379a000000000000000000000000000000000000000000000000000000000815260206004820152601d60248201527f45524332303a2073616665207472616e736665722072656a65637465640000006044820152606401610a04565b600033321480613c7d5750601836105b15613c8757503390565b7fffffffffffffffffffffffffffffffffffffffffffffffffffffffffffffffec36013560601c7f000000000000000000000000000000000000000000000000000000000000000073ffffffffffffffffffffffffffffffffffffffff16331480613da357506040517f8929a8ca00000000000000000000000000000000000000000000000000000000815273ffffffffffffffffffffffffffffffffffffffff82811660048301523360248301527f00000000000000000000000000000000000000000000000000000000000000001690638929a8ca90604401602060405180830381865afa158015613d7f573d6000803e3d6000fd5b505050506040513d601f19601f82011682018060405250810190613da39190614bec565b15613dad57919050565b3391505090565b36600033321480613dc55750601836105b15613dd35750600091369150565b3373ffffffffffffffffffffffffffffffffffffffff7f0000000000000000000000000000000000000000000000000000000000000000161480613f08575073ffffffffffffffffffffffffffffffffffffffff7f000000000000000000000000000000000000000000000000000000000000000016638929a8ca367fffffffffffffffffffffffffffffffffffffffffffffffffffffffffffffffec013560601c6040517fffffffff0000000000000000000000000000000000000000000000000000000060e084901b16815273ffffffffffffffffffffffffffffffffffffffff9091166004820152336024820152604401602060405180830381865afa158015613ee4573d6000803e3d6000fd5b505050506040513d601f19601f82011682018060405250810190613f089190614bec565b15613f15576107b7614053565b50600091369150565b60606107298484600085614084565b815482908211613f99576040517f08c379a000000000000000000000000000000000000000000000000000000000815260206004820152601660248201527f53746f726167653a2070686173652072656163686564000000000000000000006044820152606401610a04565b5550565b73ffffffffffffffffffffffffffffffffffffffff8116156140255781547fffffffffffffffffffffffff00000000000000000000000000000000000000001673ffffffffffffffffffffffffffffffffffffffff821690811783556040516000907f8be0079c531659141344cd1fd0a4f28419497f9722a3daafe3b4186f6b6457e0908290a35b6108447f7f5828d0000000000000000000000000000000000000000000000000000000006001612a6a6112d5565b3660006107b77fffffffffffffffffffffffffffffffffffffffffffffffffffffffffffffffec8301828481614c74565b606082471015614116576040517f08c379a000000000000000000000000000000000000000000000000000000000815260206004820152602660248201527f416464726573733a20696e73756666696369656e742062616c616e636520666f60448201527f722063616c6c00000000000000000000000000000000000000000000000000006064820152608401610a04565b6000808673ffffffffffffffffffffffffffffffffffffffff16858760405161413f9190614c9e565b60006040518083038185875af1925050503d806000811461417c576040519150601f19603f3d011682016040523d82523d6000602084013e614181565b606091505b50915091506141928783838761419d565b979650505050505050565b6060831561423357825160000361422c5773ffffffffffffffffffffffffffffffffffffffff85163b61422c576040517f08c379a000000000000000000000000000000000000000000000000000000000815260206004820152601d60248201527f416464726573733a2063616c6c20746f206e6f6e2d636f6e74726163740000006044820152606401610a04565b5081610729565b61072983838151156142485781518083602001fd5b806040517f08c379a0000000000000000000000000000000000000000000000000000000008152600401610a049190614335565b7fffffffff0000000000000000000000000000000000000000000000000000000081168114610b1b57600080fd5b6000602082840312156142bc57600080fd5b8135610b898161427c565b60005b838110156142e25781810151838201526020016142ca565b50506000910152565b600081518084526143038160208601602086016142c7565b601f017fffffffffffffffffffffffffffffffffffffffffffffffffffffffffffffffe0169290920160200192915050565b602081526000610b8960208301846142eb565b73ffffffffffffffffffffffffffffffffffffffff81168114610b1b57600080fd5b803561437581614348565b919050565b6000806040838503121561438d57600080fd5b823561439881614348565b946020939093013593505050565b60008083601f8401126143b857600080fd5b50813567ffffffffffffffff8111156143d057600080fd5b6020830191508360208260051b85010111156143eb57600080fd5b9250929050565b6000806000806040858703121561440857600080fd5b843567ffffffffffffffff8082111561442057600080fd5b61442c888389016143a6565b9096509450602087013591508082111561444557600080fd5b50614452878288016143a6565b95989497509550505050565b60008060006060848603121561447357600080fd5b833561447e81614348565b9250602084013561448e81614348565b929592945050506040919091013590565b600080604083850312156144b257600080fd5b8235915060208301356144c481614348565b809150509250929050565b60208152816020820152818360408301376000818301604090810191909152601f9092017fffffffffffffffffffffffffffffffffffffffffffffffffffffffffffffffe0160101919050565b60006020828403121561452e57600080fd5b5035919050565b60008060008060006060868803121561454d57600080fd5b853561455881614348565b9450602086013567ffffffffffffffff8082111561457557600080fd5b61458189838a016143a6565b9096509450604088013591508082111561459a57600080fd5b506145a7888289016143a6565b969995985093965092949392505050565b6000602082840312156145ca57600080fd5b8135610b8981614348565b600080600080600080606087890312156145ee57600080fd5b863567ffffffffffffffff8082111561460657600080fd5b6146128a838b016143a6565b9098509650602089013591508082111561462b57600080fd5b6146378a838b016143a6565b9096509450604089013591508082111561465057600080fd5b5061465d89828a016143a6565b979a9699509497509295939492505050565b60008083601f84011261468157600080fd5b50813567ffffffffffffffff81111561469957600080fd5b6020830191508360208285010111156143eb57600080fd5b803560ff8116811461437557600080fd5b60008060008060008060008060008060e08b8d0312156146e157600080fd5b8a356146ec81614348565b995060208b01356146fc81614348565b985060408b013567ffffffffffffffff8082111561471957600080fd5b6147258e838f0161466f565b909a50985060608d013591508082111561473e57600080fd5b61474a8e838f0161466f565b909850965086915061475e60808e016146b1565b955060a08d013591508082111561477457600080fd5b506147818d828e0161466f565b9094509250614794905060c08c0161436a565b90509295989b9194979a5092959850565b6000806000806000608086880312156147bd57600080fd5b85356147c881614348565b945060208601356147d881614348565b935060408601359250606086013567ffffffffffffffff8111156147fb57600080fd5b6145a78882890161466f565b600080600080600080600060e0888a03121561482257600080fd5b873561482d81614348565b9650602088013561483d81614348565b95506040880135945060608801359350614859608089016146b1565b925060a0880135915060c0880135905092959891949750929550565b6000806040838503121561488857600080fd5b823561489381614348565b915060208301356144c481614348565b600080602083850312156148b657600080fd5b823567ffffffffffffffff8111156148cd57600080fd5b6148d98582860161466f565b90969095509350505050565b600080600080606085870312156148fb57600080fd5b843561490681614348565b935060208501359250604085013567ffffffffffffffff81111561492957600080fd5b6144528782880161466f565b7f4e487b7100000000000000000000000000000000000000000000000000000000600052603260045260246000fd5b8181038181111561067f577f4e487b7100000000000000000000000000000000000000000000000000000000600052601160045260246000fd5b600181811c908216806149b257607f821691505b6020821081036149eb577f4e487b7100000000000000000000000000000000000000000000000000000000600052602260045260246000fd5b50919050565b7f416363657373436f6e74726f6c3a206d697373696e6720270000000000000000815260008251614a298160188501602087016142c7565b7f2720726f6c6500000000000000000000000000000000000000000000000000006018939091019283015250601e01919050565b7f4e487b7100000000000000000000000000000000000000000000000000000000600052604160045260246000fd5b601f82111561079057600081815260208120601f850160051c81016020861015614ab35750805b601f850160051c820191505b81811015610fc857828155600101614abf565b67ffffffffffffffff831115614aea57614aea614a5d565b614afe83614af8835461499e565b83614a8c565b6000601f841160018114614b505760008515614b1a5750838201355b7fffffffffffffffffffffffffffffffffffffffffffffffffffffffffffffffff600387901b1c1916600186901b1783556112ce565b6000838152602090207fffffffffffffffffffffffffffffffffffffffffffffffffffffffffffffffe0861690835b82811015614b9f5786850135825560209485019460019092019101614b7f565b5086821015614bda577fffffffffffffffffffffffffffffffffffffffffffffffffffffffffffffffff60f88860031b161c19848701351681555b505060018560011b0183555050505050565b600060208284031215614bfe57600080fd5b81518015158114610b8957600080fd5b600073ffffffffffffffffffffffffffffffffffffffff808716835280861660208401525083604083015260806060830152614c4d60808301846142eb565b9695505050505050565b600060208284031215614c6957600080fd5b8151610b898161427c565b60008085851115614c8457600080fd5b83861115614c9157600080fd5b5050820193919092039150565b60008251614cb08184602087016142c7565b919091019291505056fea264697066735822122025afccdb46b25761936c7fdd0f9ef7d387562ef68809e6a1eb6427b77126f7cf64736f6c63430008110033",
  "linkReferences": {},
  "deployedLinkReferences": {}
}