{
  "_format": "hh-sol-artifact-1",
  "contractName": "FxERC20MintBurnMock",
  "sourceName": "contracts/mocks/fx-portal/token/ERC20/FxERC20MintBurnMock.sol",
  "abi": [
    {
      "inputs": [
        {
          "internalType": "contract IForwarderRegistry",
          "name": "forwarderRegistry",
          "type": "address"
        }
      ],
      "stateMutability": "nonpayable",
      "type": "constructor"
    },
    {
      "inputs": [
        {
          "internalType": "address",
          "name": "owner",
          "type": "address"
        },
        {
          "internalType": "address",
          "name": "spender",
          "type": "address"
        },
        {
          "internalType": "uint256",
          "name": "allowance",
          "type": "uint256"
        },
        {
          "internalType": "uint256",
          "name": "increment",
          "type": "uint256"
        }
      ],
      "name": "ERC20AllowanceOverflow",
      "type": "error"
    },
    {
      "inputs": [
        {
          "internalType": "address",
          "name": "owner",
          "type": "address"
        }
      ],
      "name": "ERC20ApprovalToAddressZero",
      "type": "error"
    },
    {
      "inputs": [],
      "name": "ERC20BatchMintValuesOverflow",
      "type": "error"
    },
    {
      "inputs": [],
      "name": "ERC20BatchTransferValuesOverflow",
      "type": "error"
    },
    {
      "inputs": [
        {
          "internalType": "address",
          "name": "owner",
          "type": "address"
        },
        {
          "internalType": "address",
          "name": "spender",
          "type": "address"
        },
        {
          "internalType": "uint256",
          "name": "allowance",
          "type": "uint256"
        },
        {
          "internalType": "uint256",
          "name": "decrement",
          "type": "uint256"
        }
      ],
      "name": "ERC20InsufficientAllowance",
      "type": "error"
    },
    {
      "inputs": [
        {
          "internalType": "address",
          "name": "owner",
          "type": "address"
        },
        {
          "internalType": "uint256",
          "name": "balance",
          "type": "uint256"
        },
        {
          "internalType": "uint256",
          "name": "value",
          "type": "uint256"
        }
      ],
      "name": "ERC20InsufficientBalance",
      "type": "error"
    },
    {
      "inputs": [],
      "name": "ERC20MintToAddressZero",
      "type": "error"
    },
    {
      "inputs": [
        {
          "internalType": "uint256",
          "name": "deadline",
          "type": "uint256"
        }
      ],
      "name": "ERC20PermitExpired",
      "type": "error"
    },
    {
      "inputs": [],
      "name": "ERC20PermitFromAddressZero",
      "type": "error"
    },
    {
      "inputs": [],
      "name": "ERC20PermitInvalidSignature",
      "type": "error"
    },
    {
      "inputs": [
        {
          "internalType": "address",
          "name": "recipient",
          "type": "address"
        }
      ],
      "name": "ERC20SafeTransferRejected",
      "type": "error"
    },
    {
      "inputs": [
        {
          "internalType": "uint256",
          "name": "supply",
          "type": "uint256"
        },
        {
          "internalType": "uint256",
          "name": "value",
          "type": "uint256"
        }
      ],
      "name": "ERC20TotalSupplyOverflow",
      "type": "error"
    },
    {
      "inputs": [
        {
          "internalType": "address",
          "name": "owner",
          "type": "address"
        }
      ],
      "name": "ERC20TransferToAddressZero",
      "type": "error"
    },
    {
      "inputs": [],
      "name": "IllegalInterfaceId",
      "type": "error"
    },
    {
      "inputs": [],
      "name": "InconsistentArrayLengths",
      "type": "error"
    },
    {
      "inputs": [
        {
          "internalType": "address",
          "name": "tokenContract",
          "type": "address"
        }
      ],
      "name": "IncorrectTokenContractType",
      "type": "error"
    },
    {
      "inputs": [
        {
          "internalType": "uint256",
          "name": "currentPhase",
          "type": "uint256"
        },
        {
          "internalType": "uint256",
          "name": "newPhase",
          "type": "uint256"
        }
      ],
      "name": "InitializationPhaseAlreadyReached",
      "type": "error"
    },
    {
      "inputs": [
        {
          "internalType": "address",
          "name": "account",
          "type": "address"
        }
      ],
      "name": "NotContractOwner",
      "type": "error"
    },
    {
      "inputs": [
        {
          "internalType": "bytes32",
          "name": "role",
          "type": "bytes32"
        },
        {
          "internalType": "address",
          "name": "account",
          "type": "address"
        }
      ],
      "name": "NotRoleHolder",
      "type": "error"
    },
    {
      "anonymous": false,
      "inputs": [
        {
          "indexed": true,
          "internalType": "address",
          "name": "owner",
          "type": "address"
        },
        {
          "indexed": true,
          "internalType": "address",
          "name": "spender",
          "type": "address"
        },
        {
          "indexed": false,
          "internalType": "uint256",
          "name": "value",
          "type": "uint256"
        }
      ],
      "name": "Approval",
      "type": "event"
    },
    {
      "anonymous": false,
      "inputs": [
        {
          "indexed": true,
          "internalType": "address",
          "name": "previousOwner",
          "type": "address"
        },
        {
          "indexed": true,
          "internalType": "address",
          "name": "newOwner",
          "type": "address"
        }
      ],
      "name": "OwnershipTransferred",
      "type": "event"
    },
    {
      "anonymous": false,
      "inputs": [
        {
          "indexed": false,
          "internalType": "bytes32",
          "name": "role",
          "type": "bytes32"
        },
        {
          "indexed": false,
          "internalType": "address",
          "name": "account",
          "type": "address"
        },
        {
          "indexed": false,
          "internalType": "address",
          "name": "operator",
          "type": "address"
        }
      ],
      "name": "RoleGranted",
      "type": "event"
    },
    {
      "anonymous": false,
      "inputs": [
        {
          "indexed": false,
          "internalType": "bytes32",
          "name": "role",
          "type": "bytes32"
        },
        {
          "indexed": false,
          "internalType": "address",
          "name": "account",
          "type": "address"
        },
        {
          "indexed": false,
          "internalType": "address",
          "name": "operator",
          "type": "address"
        }
      ],
      "name": "RoleRevoked",
      "type": "event"
    },
    {
      "anonymous": false,
      "inputs": [
        {
          "indexed": true,
          "internalType": "address",
          "name": "from",
          "type": "address"
        },
        {
          "indexed": true,
          "internalType": "address",
          "name": "to",
          "type": "address"
        },
        {
          "indexed": false,
          "internalType": "uint256",
          "name": "value",
          "type": "uint256"
        }
      ],
      "name": "Transfer",
      "type": "event"
    },
    {
      "inputs": [],
      "name": "DOMAIN_SEPARATOR",
      "outputs": [
        {
          "internalType": "bytes32",
          "name": "",
          "type": "bytes32"
        }
      ],
      "stateMutability": "view",
      "type": "function"
    },
    {
      "inputs": [],
      "name": "MINTER_ROLE",
      "outputs": [
        {
          "internalType": "bytes32",
          "name": "",
          "type": "bytes32"
        }
      ],
      "stateMutability": "view",
      "type": "function"
    },
    {
      "inputs": [],
      "name": "__msgData",
      "outputs": [
        {
          "internalType": "bytes",
          "name": "",
          "type": "bytes"
        }
      ],
      "stateMutability": "view",
      "type": "function"
    },
    {
      "inputs": [
        {
          "internalType": "address[]",
          "name": "holders",
          "type": "address[]"
        },
        {
          "internalType": "uint256[]",
          "name": "allocations",
          "type": "uint256[]"
        }
      ],
      "name": "allocate",
      "outputs": [],
      "stateMutability": "nonpayable",
      "type": "function"
    },
    {
      "inputs": [
        {
          "internalType": "address",
          "name": "owner",
          "type": "address"
        },
        {
          "internalType": "address",
          "name": "spender",
          "type": "address"
        }
      ],
      "name": "allowance",
      "outputs": [
        {
          "internalType": "uint256",
          "name": "value",
          "type": "uint256"
        }
      ],
      "stateMutability": "view",
      "type": "function"
    },
    {
      "inputs": [
        {
          "internalType": "address",
          "name": "spender",
          "type": "address"
        },
        {
          "internalType": "uint256",
          "name": "value",
          "type": "uint256"
        }
      ],
      "name": "approve",
      "outputs": [
        {
          "internalType": "bool",
          "name": "result",
          "type": "bool"
        }
      ],
      "stateMutability": "nonpayable",
      "type": "function"
    },
    {
      "inputs": [
        {
          "internalType": "address",
          "name": "owner",
          "type": "address"
        }
      ],
      "name": "balanceOf",
      "outputs": [
        {
          "internalType": "uint256",
          "name": "balance",
          "type": "uint256"
        }
      ],
      "stateMutability": "view",
      "type": "function"
    },
    {
      "inputs": [
        {
          "internalType": "address[]",
          "name": "owners",
          "type": "address[]"
        },
        {
          "internalType": "uint256[]",
          "name": "values",
          "type": "uint256[]"
        }
      ],
      "name": "batchBurnFrom",
      "outputs": [
        {
          "internalType": "bool",
          "name": "",
          "type": "bool"
        }
      ],
      "stateMutability": "nonpayable",
      "type": "function"
    },
    {
      "inputs": [
        {
          "internalType": "address[]",
          "name": "recipients",
          "type": "address[]"
        },
        {
          "internalType": "uint256[]",
          "name": "values",
          "type": "uint256[]"
        }
      ],
      "name": "batchMint",
      "outputs": [],
      "stateMutability": "nonpayable",
      "type": "function"
    },
    {
      "inputs": [
        {
          "internalType": "address[]",
          "name": "recipients",
          "type": "address[]"
        },
        {
          "internalType": "uint256[]",
          "name": "values",
          "type": "uint256[]"
        }
      ],
      "name": "batchTransfer",
      "outputs": [
        {
          "internalType": "bool",
          "name": "",
          "type": "bool"
        }
      ],
      "stateMutability": "nonpayable",
      "type": "function"
    },
    {
      "inputs": [
        {
          "internalType": "address",
          "name": "from",
          "type": "address"
        },
        {
          "internalType": "address[]",
          "name": "recipients",
          "type": "address[]"
        },
        {
          "internalType": "uint256[]",
          "name": "values",
          "type": "uint256[]"
        }
      ],
      "name": "batchTransferFrom",
      "outputs": [
        {
          "internalType": "bool",
          "name": "",
          "type": "bool"
        }
      ],
      "stateMutability": "nonpayable",
      "type": "function"
    },
    {
      "inputs": [
        {
          "internalType": "uint256",
          "name": "value",
          "type": "uint256"
        }
      ],
      "name": "burn",
      "outputs": [
        {
          "internalType": "bool",
          "name": "",
          "type": "bool"
        }
      ],
      "stateMutability": "nonpayable",
      "type": "function"
    },
    {
      "inputs": [
        {
          "internalType": "address",
          "name": "from",
          "type": "address"
        },
        {
          "internalType": "uint256",
          "name": "value",
          "type": "uint256"
        }
      ],
      "name": "burnFrom",
      "outputs": [
        {
          "internalType": "bool",
          "name": "",
          "type": "bool"
        }
      ],
      "stateMutability": "nonpayable",
      "type": "function"
    },
    {
      "inputs": [],
      "name": "connectedToken",
      "outputs": [
        {
          "internalType": "address",
          "name": "",
          "type": "address"
        }
      ],
      "stateMutability": "view",
      "type": "function"
    },
    {
      "inputs": [],
      "name": "decimals",
      "outputs": [
        {
          "internalType": "uint8",
          "name": "",
          "type": "uint8"
        }
      ],
      "stateMutability": "view",
      "type": "function"
    },
    {
      "inputs": [
        {
          "internalType": "address",
          "name": "spender",
          "type": "address"
        },
        {
          "internalType": "uint256",
          "name": "subtractedValue",
          "type": "uint256"
        }
      ],
      "name": "decreaseAllowance",
      "outputs": [
        {
          "internalType": "bool",
          "name": "result",
          "type": "bool"
        }
      ],
      "stateMutability": "nonpayable",
      "type": "function"
    },
    {
      "inputs": [],
      "name": "forwarderRegistry",
      "outputs": [
        {
          "internalType": "contract IForwarderRegistry",
          "name": "",
          "type": "address"
        }
      ],
      "stateMutability": "view",
      "type": "function"
    },
    {
      "inputs": [],
      "name": "fxManager",
      "outputs": [
        {
          "internalType": "address",
          "name": "",
          "type": "address"
        }
      ],
      "stateMutability": "view",
      "type": "function"
    },
    {
      "inputs": [
        {
          "internalType": "bytes32",
          "name": "role",
          "type": "bytes32"
        },
        {
          "internalType": "address",
          "name": "account",
          "type": "address"
        }
      ],
      "name": "grantRole",
      "outputs": [],
      "stateMutability": "nonpayable",
      "type": "function"
    },
    {
      "inputs": [
        {
          "internalType": "bytes32",
          "name": "role",
          "type": "bytes32"
        },
        {
          "internalType": "address",
          "name": "account",
          "type": "address"
        }
      ],
      "name": "hasRole",
      "outputs": [
        {
          "internalType": "bool",
          "name": "hasRole_",
          "type": "bool"
        }
      ],
      "stateMutability": "view",
      "type": "function"
    },
    {
      "inputs": [
        {
          "internalType": "address",
          "name": "spender",
          "type": "address"
        },
        {
          "internalType": "uint256",
          "name": "addedValue",
          "type": "uint256"
        }
      ],
      "name": "increaseAllowance",
      "outputs": [
        {
          "internalType": "bool",
          "name": "result",
          "type": "bool"
        }
      ],
      "stateMutability": "nonpayable",
      "type": "function"
    },
    {
      "inputs": [
        {
          "internalType": "address",
          "name": "fxManager_",
          "type": "address"
        },
        {
          "internalType": "address",
          "name": "connectedToken_",
          "type": "address"
        },
        {
          "internalType": "string",
          "name": "tokenName",
          "type": "string"
        },
        {
          "internalType": "string",
          "name": "tokenSymbol",
          "type": "string"
        },
        {
          "internalType": "uint8",
          "name": "tokenDecimals",
          "type": "uint8"
        },
        {
          "internalType": "string",
          "name": "uri",
          "type": "string"
        },
        {
          "internalType": "address",
          "name": "initialOwner",
          "type": "address"
        }
      ],
      "name": "initialize",
      "outputs": [],
      "stateMutability": "nonpayable",
      "type": "function"
    },
    {
      "inputs": [
        {
          "internalType": "address",
          "name": "forwarder",
          "type": "address"
        }
      ],
      "name": "isTrustedForwarder",
      "outputs": [
        {
          "internalType": "bool",
          "name": "",
          "type": "bool"
        }
      ],
      "stateMutability": "view",
      "type": "function"
    },
    {
      "inputs": [
        {
          "internalType": "address",
          "name": "to",
          "type": "address"
        },
        {
          "internalType": "uint256",
          "name": "value",
          "type": "uint256"
        }
      ],
      "name": "mint",
      "outputs": [],
      "stateMutability": "nonpayable",
      "type": "function"
    },
    {
      "inputs": [],
      "name": "name",
      "outputs": [
        {
          "internalType": "string",
          "name": "",
          "type": "string"
        }
      ],
      "stateMutability": "view",
      "type": "function"
    },
    {
      "inputs": [
        {
          "internalType": "address",
          "name": "owner",
          "type": "address"
        }
      ],
      "name": "nonces",
      "outputs": [
        {
          "internalType": "uint256",
          "name": "",
          "type": "uint256"
        }
      ],
      "stateMutability": "view",
      "type": "function"
    },
    {
      "inputs": [],
      "name": "owner",
      "outputs": [
        {
          "internalType": "address",
          "name": "",
          "type": "address"
        }
      ],
      "stateMutability": "view",
      "type": "function"
    },
    {
      "inputs": [
        {
          "internalType": "address",
          "name": "owner",
          "type": "address"
        },
        {
          "internalType": "address",
          "name": "spender",
          "type": "address"
        },
        {
          "internalType": "uint256",
          "name": "value",
          "type": "uint256"
        },
        {
          "internalType": "uint256",
          "name": "deadline",
          "type": "uint256"
        },
        {
          "internalType": "uint8",
          "name": "v",
          "type": "uint8"
        },
        {
          "internalType": "bytes32",
          "name": "r",
          "type": "bytes32"
        },
        {
          "internalType": "bytes32",
          "name": "s",
          "type": "bytes32"
        }
      ],
      "name": "permit",
      "outputs": [],
      "stateMutability": "nonpayable",
      "type": "function"
    },
    {
      "inputs": [
        {
          "internalType": "address[]",
          "name": "accounts",
          "type": "address[]"
        },
        {
          "internalType": "contract IERC20[]",
          "name": "tokens",
          "type": "address[]"
        },
        {
          "internalType": "uint256[]",
          "name": "amounts",
          "type": "uint256[]"
        }
      ],
      "name": "recoverERC20s",
      "outputs": [],
      "stateMutability": "nonpayable",
      "type": "function"
    },
    {
      "inputs": [
        {
          "internalType": "address[]",
          "name": "accounts",
          "type": "address[]"
        },
        {
          "internalType": "contract IERC721[]",
          "name": "contracts",
          "type": "address[]"
        },
        {
          "internalType": "uint256[]",
          "name": "tokenIds",
          "type": "uint256[]"
        }
      ],
      "name": "recoverERC721s",
      "outputs": [],
      "stateMutability": "nonpayable",
      "type": "function"
    },
    {
      "inputs": [
        {
          "internalType": "address payable[]",
          "name": "accounts",
          "type": "address[]"
        },
        {
          "internalType": "uint256[]",
          "name": "amounts",
          "type": "uint256[]"
        }
      ],
      "name": "recoverETH",
      "outputs": [],
      "stateMutability": "nonpayable",
      "type": "function"
    },
    {
      "inputs": [
        {
          "internalType": "bytes32",
          "name": "role",
          "type": "bytes32"
        }
      ],
      "name": "renounceRole",
      "outputs": [],
      "stateMutability": "nonpayable",
      "type": "function"
    },
    {
      "inputs": [
        {
          "internalType": "bytes32",
          "name": "role",
          "type": "bytes32"
        },
        {
          "internalType": "address",
          "name": "account",
          "type": "address"
        }
      ],
      "name": "revokeRole",
      "outputs": [],
      "stateMutability": "nonpayable",
      "type": "function"
    },
    {
      "inputs": [
        {
          "internalType": "address",
          "name": "to",
          "type": "address"
        },
        {
          "internalType": "uint256",
          "name": "value",
          "type": "uint256"
        },
        {
          "internalType": "bytes",
          "name": "data",
          "type": "bytes"
        }
      ],
      "name": "safeTransfer",
      "outputs": [
        {
          "internalType": "bool",
          "name": "",
          "type": "bool"
        }
      ],
      "stateMutability": "nonpayable",
      "type": "function"
    },
    {
      "inputs": [
        {
          "internalType": "address",
          "name": "from",
          "type": "address"
        },
        {
          "internalType": "address",
          "name": "to",
          "type": "address"
        },
        {
          "internalType": "uint256",
          "name": "value",
          "type": "uint256"
        },
        {
          "internalType": "bytes",
          "name": "data",
          "type": "bytes"
        }
      ],
      "name": "safeTransferFrom",
      "outputs": [
        {
          "internalType": "bool",
          "name": "",
          "type": "bool"
        }
      ],
      "stateMutability": "nonpayable",
      "type": "function"
    },
    {
      "inputs": [
        {
          "internalType": "string",
          "name": "uri",
          "type": "string"
        }
      ],
      "name": "setTokenURI",
      "outputs": [],
      "stateMutability": "nonpayable",
      "type": "function"
    },
    {
      "inputs": [
        {
          "internalType": "bytes4",
          "name": "interfaceId",
          "type": "bytes4"
        }
      ],
      "name": "supportsInterface",
      "outputs": [
        {
          "internalType": "bool",
          "name": "",
          "type": "bool"
        }
      ],
      "stateMutability": "view",
      "type": "function"
    },
    {
      "inputs": [],
      "name": "symbol",
      "outputs": [
        {
          "internalType": "string",
          "name": "",
          "type": "string"
        }
      ],
      "stateMutability": "view",
      "type": "function"
    },
    {
      "inputs": [],
      "name": "tokenURI",
      "outputs": [
        {
          "internalType": "string",
          "name": "",
          "type": "string"
        }
      ],
      "stateMutability": "view",
      "type": "function"
    },
    {
      "inputs": [],
      "name": "totalSupply",
      "outputs": [
        {
          "internalType": "uint256",
          "name": "supply",
          "type": "uint256"
        }
      ],
      "stateMutability": "view",
      "type": "function"
    },
    {
      "inputs": [
        {
          "internalType": "address",
          "name": "to",
          "type": "address"
        },
        {
          "internalType": "uint256",
          "name": "value",
          "type": "uint256"
        }
      ],
      "name": "transfer",
      "outputs": [
        {
          "internalType": "bool",
          "name": "result",
          "type": "bool"
        }
      ],
      "stateMutability": "nonpayable",
      "type": "function"
    },
    {
      "inputs": [
        {
          "internalType": "address",
          "name": "from",
          "type": "address"
        },
        {
          "internalType": "address",
          "name": "to",
          "type": "address"
        },
        {
          "internalType": "uint256",
          "name": "value",
          "type": "uint256"
        }
      ],
      "name": "transferFrom",
      "outputs": [
        {
          "internalType": "bool",
          "name": "result",
          "type": "bool"
        }
      ],
      "stateMutability": "nonpayable",
      "type": "function"
    },
    {
      "inputs": [
        {
          "internalType": "address",
          "name": "newOwner",
          "type": "address"
        }
      ],
      "name": "transferOwnership",
      "outputs": [],
      "stateMutability": "nonpayable",
      "type": "function"
    }
  ],
  "bytecode": "0x60a06040523480156200001157600080fd5b506040516200487038038062004870833981016040819052620000349162000046565b6001600160a01b031660805262000078565b6000602082840312156200005957600080fd5b81516001600160a01b03811681146200007157600080fd5b9392505050565b6080516147b9620000b7600039600081816103a90152818161047e015281816138070152818161388f01528181613942015261398001526147b96000f3fe608060405234801561001057600080fd5b50600436106102e95760003560e01c806379cc679011610191578063b88d4fde116100e3578063d547741f11610097578063eb79554911610071578063eb79554914610650578063f2fde38b14610663578063f7ba94bd1461067657600080fd5b8063d547741f14610617578063dd62ed3e1461062a578063e0df5b6f1461063d57600080fd5b8063c3666c36116100c8578063c3666c36146105ca578063d505accf146105dd578063d5391393146105f057600080fd5b8063b88d4fde146105a4578063bdad4dc3146105b757600080fd5b806391d14854116101455780639b7791531161011f5780639b77915314610576578063a457c2d71461057e578063a9059cbb1461059157600080fd5b806391d148541461054857806395d89b411461055b5780639a0186a31461056357600080fd5b806388d695b21161017657806388d695b21461051a5780638bb9c5bf1461052d5780638da5cb5b1461054057600080fd5b806379cc6790146104f45780637ecebe001461050757600080fd5b806331e66e1e1161024a57806342966c68116101fe57806368573107116101d857806368573107146104bb57806370a08231146104ce57806373c8a958146104e157600080fd5b806342966c68146104485780634885b2541461045b578063572b6c051461046e57600080fd5b8063395093511161022f578063395093511461041a5780633c130d901461042d57806340c10f191461043557600080fd5b806331e66e1e146103fc5780633644e5151461041257600080fd5b80631b9a7529116102a15780632b4c9f16116102865780632b4c9f16146103a75780632f2ff15d146103cd578063313ce567146103e257600080fd5b80631b9a75291461038157806323b872dd1461039457600080fd5b8063095ea7b3116102d2578063095ea7b31461032b5780630a8a49141461033e57806318160ddd1461036b57600080fd5b806301ffc9a7146102ee57806306fdde0314610316575b600080fd5b6103016102fc366004613ddd565b610689565b60405190151581526020015b60405180910390f35b61031e6106a3565b60405161030d9190613e68565b610301610339366004613ead565b6106ba565b6103466106e2565b60405173ffffffffffffffffffffffffffffffffffffffff909116815260200161030d565b61037361070c565b60405190815260200161030d565b61030161038f366004613f25565b610720565b6103016103a2366004613f91565b61074f565b7f0000000000000000000000000000000000000000000000000000000000000000610346565b6103e06103db366004613fd2565b61077a565b005b6103ea6107b3565b60405160ff909116815260200161030d565b6104046107ca565b60405161030d929190614002565b6103736107dd565b610301610428366004613ead565b6107e7565b61031e610806565b6103e0610443366004613ead565b610813565b61030161045636600461404f565b610866565b610301610469366004614068565b61088b565b61030161047c3660046140eb565b7f000000000000000000000000000000000000000000000000000000000000000073ffffffffffffffffffffffffffffffffffffffff90811691161490565b6103e06104c9366004613f25565b6108bc565b6103736104dc3660046140eb565b610966565b6103e06104ef366004614108565b61099e565b610301610502366004613ead565b610a9c565b6103736105153660046140eb565b610abb565b610301610528366004613f25565b610ac9565b6103e061053b36600461404f565b610aec565b610346610b0a565b610301610556366004613fd2565b610b31565b61031e610b7c565b6103e06105713660046141f5565b610b8e565b610346610bbc565b61030161058c366004613ead565b610bc9565b61030161059f366004613ead565b610be8565b6103016105b23660046142d8565b610c07565b6103e06105c5366004613f25565b6108e8565b6103e06105d8366004614108565b610c2c565b6103e06105eb36600461433a565b610ed2565b6103737f6d696e746572000000000000000000000000000000000000000000000000000081565b6103e0610625366004613fd2565b610ef9565b6103736106383660046143a8565b610f27565b6103e061064b3660046143d6565b610f72565b61030161065e366004614418565b610f91565b6103e06106713660046140eb565b610fb4565b6103e0610684366004613f25565b610fcf565b600061069d8261069761108e565b906110bc565b92915050565b60606106b56106b0611196565b6111c4565b905090565b60006106d96106c761125a565b84846106d1611264565b929190611292565b50600192915050565b60006106b56106ef611369565b6001015473ffffffffffffffffffffffffffffffffffffffff1690565b60006106b5610719611264565b6002015490565b600061074361072d61125a565b86868686610739611264565b9493929190611397565b5060015b949350505050565b600061077061075c61125a565b858585610767611264565b939291906115a0565b5060019392505050565b600061078461125a565b9050610798816107926115f2565b90611620565b6107ae8383836107a661168b565b9291906116b9565b505050565b60006106b56107c0611196565b6002015460ff1690565b3660006107d561178f565b915091509091565b60006106b561179a565b60006106d96107f461125a565b84846107fe611264565b929190611835565b60606106b56106b06119e7565b61084e7f6d696e746572000000000000000000000000000000000000000000000000000061083f61125a565b61084761168b565b9190611a15565b610862828261085b611264565b9190611a9b565b5050565b600061088361087361125a565b8361087c611264565b9190611bbf565b506001919050565b60006108b061089861125a565b87878787876108a5611264565b959493929190611ccb565b50600195945050505050565b6108e87f6d696e746572000000000000000000000000000000000000000000000000000061083f61125a565b610960848480806020026020016040519081016040528093929190818152602001838360200280828437600092019190915250506040805160208088028281018201909352878252909350879250869182918501908490808284376000920191909152506109599250611264915050565b91906120a5565b50505050565b600061069d82610974611264565b9073ffffffffffffffffffffffffffffffffffffffff166000908152602091909152604090205490565b6109b16109a961125a565b6107926115f2565b8483811415806109c15750808214155b156109f8576040517f6582533600000000000000000000000000000000000000000000000000000000815260040160405180910390fd5b60005b81811015610a9257610a8a888883818110610a1857610a18614468565b9050602002016020810190610a2d91906140eb565b858584818110610a3f57610a3f614468565b90506020020135888885818110610a5857610a58614468565b9050602002016020810190610a6d91906140eb565b73ffffffffffffffffffffffffffffffffffffffff1691906122c6565b6001016109fb565b5050505050505050565b60006106d9610aa961125a565b8484610ab3611264565b929190612353565b600061069d8261097461239d565b6000610743610ad661125a565b86868686610ae2611264565b94939291906123cb565b610b07610af761125a565b82610b0061168b565b9190612721565b50565b60006106b5610b176115f2565b5473ffffffffffffffffffffffffffffffffffffffff1690565b6000610b758383610b4061168b565b60009283526020908152604080842073ffffffffffffffffffffffffffffffffffffffff909316845291905290205460ff1690565b9392505050565b60606106b5610b89611196565b6127c5565b610ba08a8a8a8a8a8a8a8a8a8a6127d6565b610ba861284b565b610bb0612882565b50505050505050505050565b60006106b5610b17611369565b60006106d9610bd661125a565b8484610be0611264565b9291906128b0565b60006106d9610bf561125a565b8484610bff611264565b9291906129e8565b60006108b0610c1461125a565b8787878787610c21611264565b959493929190612ba7565b610c376109a961125a565b848381141580610c475750808214155b15610c7e576040517f6582533600000000000000000000000000000000000000000000000000000000815260040160405180910390fd5b60005b81811015610a92576000868683818110610c9d57610c9d614468565b9050602002016020810190610cb291906140eb565b6040517f01ffc9a70000000000000000000000000000000000000000000000000000000081527f80ac58cd00000000000000000000000000000000000000000000000000000000600482015290915073ffffffffffffffffffffffffffffffffffffffff8216906301ffc9a790602401602060405180830381865afa158015610d3f573d6000803e3d6000fd5b505050506040513d601f19601f82011682018060405250810190610d639190614497565b610db6576040517f986b9f1f00000000000000000000000000000000000000000000000000000000815273ffffffffffffffffffffffffffffffffffffffff821660048201526024015b60405180910390fd5b868683818110610dc857610dc8614468565b9050602002016020810190610ddd91906140eb565b73ffffffffffffffffffffffffffffffffffffffff166342842e0e308b8b86818110610e0b57610e0b614468565b9050602002016020810190610e2091906140eb565b888887818110610e3257610e32614468565b6040517fffffffff0000000000000000000000000000000000000000000000000000000060e088901b16815273ffffffffffffffffffffffffffffffffffffffff958616600482015294909316602485015250602090910201356044820152606401600060405180830381600087803b158015610eae57600080fd5b505af1158015610ec2573d6000803e3d6000fd5b5050505050806001019050610c81565b610ef087878787878787610ee461239d565b96959493929190612c14565b50505050505050565b6000610f0361125a565b9050610f11816107926115f2565b6107ae838383610f1f61168b565b929190612e83565b6000610b758383610f36611264565b919073ffffffffffffffffffffffffffffffffffffffff9182166000908152600193909301602090815260408085209290931684525290205490565b610f7d6109a961125a565b6108628282610f8a6119e7565b9190612f4d565b6000610743610f9e61125a565b86868686610faa611264565b9493929190612f59565b610b07610fbf61125a565b82610fc86115f2565b9190612fc5565b610fda6109a961125a565b82818114611014576040517f6582533600000000000000000000000000000000000000000000000000000000815260040160405180910390fd5b60005b818110156110865761107e84848381811061103457611034614468565b9050602002013587878481811061104d5761104d614468565b905060200201602081019061106291906140eb565b73ffffffffffffffffffffffffffffffffffffffff16906130d9565b600101611017565b505050505050565b60008061069d60017fca9d3e17f264b0f3984e2634e94adb37fa3e6a8103f06aeae6fa59e21c769f5e6144b9565b60007c01000000000000000000000000000000000000000000000000000000007fffffffff0000000000000000000000000000000000000000000000000000000083160161110c5750600061069d565b7ffe003659000000000000000000000000000000000000000000000000000000007fffffffff0000000000000000000000000000000000000000000000000000000083160161115d5750600161069d565b507fffffffff00000000000000000000000000000000000000000000000000000000166000908152602091909152604090205460ff1690565b60008061069d60017f335df4119bbb04f056b33eba33b826d3529129e458faf6daa9924b5a8f3b6a826144b9565b60608160000180546111d5906144f3565b80601f0160208091040260200160405190810160405280929190818152602001828054611201906144f3565b801561124e5780601f106112235761010080835404028352916020019161124e565b820191906000526020600020905b81548152906001019060200180831161123157829003601f168201915b50505050509050919050565b60006106b5613233565b60008061069d60017f1da92899d3da68bf9787824388a37ea2bfa79780bcef91b9716c390eec8ecbef6144b9565b73ffffffffffffffffffffffffffffffffffffffff82166112f7576040517ff7e1ac0f00000000000000000000000000000000000000000000000000000000815273ffffffffffffffffffffffffffffffffffffffff84166004820152602401610dad565b73ffffffffffffffffffffffffffffffffffffffff838116600081815260018701602090815260408083209487168084529482529182902085905590518481527f8c5be1e5ebec7d5bd14f71427d1e84f3dd0314c0f7b2291e5b200ac8c7c3b92591015b60405180910390a350505050565b60008061069d60017ffbf67eff80ed72d4d972e624738c2b5704d828cc6926cf8653e1018c8eef81c06144b9565b828181146113d1576040517f6582533600000000000000000000000000000000000000000000000000000000815260040160405180910390fd5b806000036113df5750611086565b6000805b828110156115845760008787838181106113ff576113ff614468565b905060200201602081019061141491906140eb565b9050600086868481811061142a5761142a614468565b9050602002013590508973ffffffffffffffffffffffffffffffffffffffff168273ffffffffffffffffffffffffffffffffffffffff1614611472576114728b838c846128b0565b801561152c5773ffffffffffffffffffffffffffffffffffffffff8216600090815260208c90526040902054818103818110611500576040517fe450d38c00000000000000000000000000000000000000000000000000000000815273ffffffffffffffffffffffffffffffffffffffff851660048201526024810183905260448101849052606401610dad565b73ffffffffffffffffffffffffffffffffffffffff8416600090815260208e9052604090205550928301925b60405181815260009073ffffffffffffffffffffffffffffffffffffffff8416907fddf252ad1be2c89b69c2b068fc378daa952ba7f163c4a11628f55a4df523b3ef9060200160405180910390a350506001016113e3565b508015610a925760028801805482900390555050505050505050565b8373ffffffffffffffffffffffffffffffffffffffff168373ffffffffffffffffffffffffffffffffffffffff16146115df576115df858486846128b0565b6115eb858484846129e8565b5050505050565b60008061069d60017fc9ed16f33ab3a66c84bfd83099ccb2a8845871e2e1c1928f63797152f0fd54cd6144b9565b815473ffffffffffffffffffffffffffffffffffffffff828116911614610862576040517f2ef4875e00000000000000000000000000000000000000000000000000000000815273ffffffffffffffffffffffffffffffffffffffff82166004820152602401610dad565b60008061069d60017fc8827d3282af6f37b64c3e9e6f3ac9df286ab0bb0fccd6f8661bf19adb368b236144b9565b60008381526020858152604080832073ffffffffffffffffffffffffffffffffffffffff8616845290915290205460ff166109605760008381526020858152604080832073ffffffffffffffffffffffffffffffffffffffff8681168086529184529382902080547fffffffffffffffffffffffffffffffffffffffffffffffffffffffffffffff00166001179055815187815292830152918316918101919091527f2f8788117e7eff1d82e926ec794901d17c78024a50270940304540a733656f0d906060015b60405180910390a150505050565b3660006107d561323d565b6000467f8b73c3c69bb8fe3d512ecc4cf759cc79239f7b179b0ffacaa9a75d522b39400f6117c96106b0611196565b80516020918201206040805192830193909352918101919091527fc89efdaa54c0f20c7adf612882df0950f5a951637e0307cdcb4c672f298b8bc66060820152608081018290523060a082015260c0016040516020818303038152906040528051906020012091505090565b73ffffffffffffffffffffffffffffffffffffffff821661189a576040517ff7e1ac0f00000000000000000000000000000000000000000000000000000000815273ffffffffffffffffffffffffffffffffffffffff84166004820152602401610dad565b73ffffffffffffffffffffffffffffffffffffffff808416600090815260018601602090815260408083209386168352929052205481156119795780820181811161193f576040517f93bc2ff100000000000000000000000000000000000000000000000000000000815273ffffffffffffffffffffffffffffffffffffffff8087166004830152851660248201526044810183905260648101849052608401610dad565b73ffffffffffffffffffffffffffffffffffffffff8086166000908152600188016020908152604080832093881683529290522081905590505b8273ffffffffffffffffffffffffffffffffffffffff168473ffffffffffffffffffffffffffffffffffffffff167f8c5be1e5ebec7d5bd14f71427d1e84f3dd0314c0f7b2291e5b200ac8c7c3b925836040516119d891815260200190565b60405180910390a35050505050565b60008061069d60017ff41bf6a5db26bffdfab174dcf66b31fbba8fdb7e3db040721ce1e62d61839ceb6144b9565b60008281526020848152604080832073ffffffffffffffffffffffffffffffffffffffff8516845290915290205460ff166107ae576040517f7aa728820000000000000000000000000000000000000000000000000000000081526004810183905273ffffffffffffffffffffffffffffffffffffffff82166024820152604401610dad565b73ffffffffffffffffffffffffffffffffffffffff8216611ae8576040517f92fd9c8f00000000000000000000000000000000000000000000000000000000815260040160405180910390fd5b8015611b6b576002830154818101818111611b39576040517f0366a5f60000000000000000000000000000000000000000000000000000000081526004810183905260248101849052604401610dad565b60028501555073ffffffffffffffffffffffffffffffffffffffff821660009081526020849052604090208054820190555b60405181815273ffffffffffffffffffffffffffffffffffffffff8316906000907fddf252ad1be2c89b69c2b068fc378daa952ba7f163c4a11628f55a4df523b3ef906020015b60405180910390a3505050565b8015611c805773ffffffffffffffffffffffffffffffffffffffff8216600090815260208490526040902054818103818110611c4d576040517fe450d38c00000000000000000000000000000000000000000000000000000000815273ffffffffffffffffffffffffffffffffffffffff851660048201526024810183905260448101849052606401610dad565b73ffffffffffffffffffffffffffffffffffffffff84166000908152602086905260409020555060028301805482900390555b60405181815260009073ffffffffffffffffffffffffffffffffffffffff8416907fddf252ad1be2c89b69c2b068fc378daa952ba7f163c4a11628f55a4df523b3ef90602001611bb2565b82818114611d05576040517f6582533600000000000000000000000000000000000000000000000000000000815260040160405180910390fd5b80600003611d135750610ef0565b73ffffffffffffffffffffffffffffffffffffffff86166000908152602089905260408120549080805b84811015612058576000898983818110611d5957611d59614468565b9050602002016020810190611d6e91906140eb565b905073ffffffffffffffffffffffffffffffffffffffff8116611dd5576040517f754f425b00000000000000000000000000000000000000000000000000000000815273ffffffffffffffffffffffffffffffffffffffff8c166004820152602401610dad565b6000888884818110611de957611de9614468565b90506020020135905080600014611f2757848101858111611e36576040517fdedd834100000000000000000000000000000000000000000000000000000000815260040160405180910390fd5b8095508273ffffffffffffffffffffffffffffffffffffffff168d73ffffffffffffffffffffffffffffffffffffffff1614611ec057818f60000160008573ffffffffffffffffffffffffffffffffffffffff1673ffffffffffffffffffffffffffffffffffffffff16815260200190815260200160002060008282540192505081905550611f25565b86821115611f20576040517fe450d38c00000000000000000000000000000000000000000000000000000000815273ffffffffffffffffffffffffffffffffffffffff8e1660048201526024810188905260448101839052606401610dad565b938101935b505b8173ffffffffffffffffffffffffffffffffffffffff168c73ffffffffffffffffffffffffffffffffffffffff167fddf252ad1be2c89b69c2b068fc378daa952ba7f163c4a11628f55a4df523b3ef83604051611f8691815260200190565b60405180910390a38415801590611f9d5750838514155b1561204e57848603868110612004576040517fe450d38c00000000000000000000000000000000000000000000000000000000815273ffffffffffffffffffffffffffffffffffffffff8e1660048201526024810188905260448101879052606401610dad565b8481018f60000160008f73ffffffffffffffffffffffffffffffffffffffff1673ffffffffffffffffffffffffffffffffffffffff16815260200190815260200160002081905550505b5050600101611d3d565b508973ffffffffffffffffffffffffffffffffffffffff168973ffffffffffffffffffffffffffffffffffffffff1614612098576120988b8a8c856128b0565b5050505050505050505050565b8151815181146120e1576040517f6582533600000000000000000000000000000000000000000000000000000000815260040160405180910390fd5b806000036120ef5750505050565b6000805b8281101561226757600085828151811061210f5761210f614468565b60200260200101519050600073ffffffffffffffffffffffffffffffffffffffff168173ffffffffffffffffffffffffffffffffffffffff160361217f576040517f92fd9c8f00000000000000000000000000000000000000000000000000000000815260040160405180910390fd5b600085838151811061219357612193614468565b602002602001015190508060001461220f578381018481116121e1576040517f5542ae7c00000000000000000000000000000000000000000000000000000000815260040160405180910390fd5b73ffffffffffffffffffffffffffffffffffffffff8316600090815260208a90526040902080548301905593505b60405181815273ffffffffffffffffffffffffffffffffffffffff8316906000907fddf252ad1be2c89b69c2b068fc378daa952ba7f163c4a11628f55a4df523b3ef9060200160405180910390a350506001016120f3565b5080156115eb5760028501548181018181116122b9576040517f0366a5f60000000000000000000000000000000000000000000000000000000081526004810183905260248101849052604401610dad565b6002870155505050505050565b6040805173ffffffffffffffffffffffffffffffffffffffff8416602482015260448082018490528251808303909101815260649091019091526020810180517bffffffffffffffffffffffffffffffffffffffffffffffffffffffff167fa9059cbb000000000000000000000000000000000000000000000000000000001790526107ae908490613248565b8273ffffffffffffffffffffffffffffffffffffffff168273ffffffffffffffffffffffffffffffffffffffff161461239257612392848385846128b0565b610960848383611bbf565b60008061069d60017f93fe0ff7226b064a4a8f0b09910762afb4bc2441835792c021ffd78cd513011e6144b9565b82818114612405576040517f6582533600000000000000000000000000000000000000000000000000000000815260040160405180910390fd5b806000036124135750611086565b73ffffffffffffffffffffffffffffffffffffffff86166000908152602088905260408120549080805b8481101561267457600089898381811061245957612459614468565b905060200201602081019061246e91906140eb565b905073ffffffffffffffffffffffffffffffffffffffff81166124d5576040517f754f425b00000000000000000000000000000000000000000000000000000000815273ffffffffffffffffffffffffffffffffffffffff8c166004820152602401610dad565b60008888848181106124e9576124e9614468565b9050602002013590508060001461260357848101858111612536576040517fdedd834100000000000000000000000000000000000000000000000000000000815260040160405180910390fd5b8095508273ffffffffffffffffffffffffffffffffffffffff168d73ffffffffffffffffffffffffffffffffffffffff161461259c5773ffffffffffffffffffffffffffffffffffffffff8316600090815260208f905260409020805483019055612601565b868211156125fc576040517fe450d38c00000000000000000000000000000000000000000000000000000000815273ffffffffffffffffffffffffffffffffffffffff8e1660048201526024810188905260448101839052606401610dad565b938101935b505b8173ffffffffffffffffffffffffffffffffffffffff168c73ffffffffffffffffffffffffffffffffffffffff167fddf252ad1be2c89b69c2b068fc378daa952ba7f163c4a11628f55a4df523b3ef8360405161266291815260200190565b60405180910390a3505060010161243d565b5081158015906126845750808214155b15610bb0578183038381106126eb576040517fe450d38c00000000000000000000000000000000000000000000000000000000815273ffffffffffffffffffffffffffffffffffffffff8b1660048201526024810185905260448101849052606401610dad565b73ffffffffffffffffffffffffffffffffffffffff8a16600090815260208c905260409020908201905550505050505050505050565b61272c838284611a15565b60008181526020848152604080832073ffffffffffffffffffffffffffffffffffffffff86168085529083529281902080547fffffffffffffffffffffffffffffffffffffffffffffffffffffffffffffff0016905580518481529182018390528101919091527ff6391f5c32d9c69d2a47ea670b442974b53935d1edc7fd64eb21e047a839171b9060600160405180910390a1505050565b60608160010180546111d5906144f3565b6127de613357565b6127f888888888886127ee611196565b94939291906133bb565b61280061346a565b61280d8383610f8a6119e7565b612815613498565b61281d6134c6565b6128256134f4565b6128398a8a612832611369565b9190613522565b610bb0816128456115f2565b906135a2565b6128807f28963e1e00000000000000000000000000000000000000000000000000000000600161287961108e565b91906135da565b565b6128807f20c07ed100000000000000000000000000000000000000000000000000000000600161287961108e565b73ffffffffffffffffffffffffffffffffffffffff8216612915576040517ff7e1ac0f00000000000000000000000000000000000000000000000000000000815273ffffffffffffffffffffffffffffffffffffffff84166004820152602401610dad565b73ffffffffffffffffffffffffffffffffffffffff80841660009081526001860160209081526040808320938616835292905220547fffffffffffffffffffffffffffffffffffffffffffffffffffffffffffffffff811480159061297957508115155b156119795781810381811061193f576040517f137ad6ab00000000000000000000000000000000000000000000000000000000815273ffffffffffffffffffffffffffffffffffffffff8087166004830152851660248201526044810183905260648101849052608401610dad565b73ffffffffffffffffffffffffffffffffffffffff8216612a4d576040517f754f425b00000000000000000000000000000000000000000000000000000000815273ffffffffffffffffffffffffffffffffffffffff84166004820152602401610dad565b8015612b485773ffffffffffffffffffffffffffffffffffffffff8316600090815260208590526040902054818103818110612adb576040517fe450d38c00000000000000000000000000000000000000000000000000000000815273ffffffffffffffffffffffffffffffffffffffff861660048201526024810183905260448101849052606401610dad565b8373ffffffffffffffffffffffffffffffffffffffff168573ffffffffffffffffffffffffffffffffffffffff1614612b455773ffffffffffffffffffffffffffffffffffffffff8086166000908152602088905260408082208490559186168152208054840190555b50505b8173ffffffffffffffffffffffffffffffffffffffff168373ffffffffffffffffffffffffffffffffffffffff167fddf252ad1be2c89b69c2b068fc378daa952ba7f163c4a11628f55a4df523b3ef8360405161135b91815260200190565b612bb487878787876115a0565b73ffffffffffffffffffffffffffffffffffffffff84163b15610ef057610ef08686868686868080601f0160208091040260200160405190810160405280939291908181526020018383808284376000920191909152506136b692505050565b73ffffffffffffffffffffffffffffffffffffffff8716612c61576040517fa974697600000000000000000000000000000000000000000000000000000000815260040160405180910390fd5b83421115612c9e576040517fea2b6f5800000000000000000000000000000000000000000000000000000000815260048101859052602401610dad565b73ffffffffffffffffffffffffffffffffffffffff878116600081815260208b8152604080832080546001810190915581517f6e71edae12b1b97f4d1f60370fef10105fa2faae0126114a169c64845d6126c98185015280830195909552948b166060850152608084018a905260a084019490945260c08084018990528451808503909101815260e09093019093528151919092012090612d3d61179a565b6040517f19010000000000000000000000000000000000000000000000000000000000006020820152602281019190915260428101839052606201604080517fffffffffffffffffffffffffffffffffffffffffffffffffffffffffffffffe08184030181528282528051602091820120600080855291840180845281905260ff89169284019290925260608301879052608083018690529092509060019060a0016020604051602081039080840390855afa158015612e01573d6000803e3d6000fd5b5050506020604051035190508973ffffffffffffffffffffffffffffffffffffffff168173ffffffffffffffffffffffffffffffffffffffff1614612e72576040517f822a64c800000000000000000000000000000000000000000000000000000000815260040160405180910390fd5b505050610a928787876106d1611264565b60008381526020858152604080832073ffffffffffffffffffffffffffffffffffffffff8616845290915290205460ff16156109605760008381526020858152604080832073ffffffffffffffffffffffffffffffffffffffff8681168086529184529382902080547fffffffffffffffffffffffffffffffffffffffffffffffffffffffffffffff00169055815187815292830152918316918101919091527ff6391f5c32d9c69d2a47ea670b442974b53935d1edc7fd64eb21e047a839171b90606001611781565b826109608284836145bd565b612f65868686866129e8565b73ffffffffffffffffffffffffffffffffffffffff84163b15611086576110868586868686868080601f0160208091040260200160405190810160405280939291908181526020018383808284376000920191909152506136b692505050565b825473ffffffffffffffffffffffffffffffffffffffff9081169083168114613032576040517f2ef4875e00000000000000000000000000000000000000000000000000000000815273ffffffffffffffffffffffffffffffffffffffff84166004820152602401610dad565b8173ffffffffffffffffffffffffffffffffffffffff168173ffffffffffffffffffffffffffffffffffffffff16146109605783547fffffffffffffffffffffffff00000000000000000000000000000000000000001673ffffffffffffffffffffffffffffffffffffffff8381169182178655604051908316907f8be0079c531659141344cd1fd0a4f28419497f9722a3daafe3b4186f6b6457e090600090a350505050565b80471015613143576040517f08c379a000000000000000000000000000000000000000000000000000000000815260206004820152601d60248201527f416464726573733a20696e73756666696369656e742062616c616e63650000006044820152606401610dad565b60008273ffffffffffffffffffffffffffffffffffffffff168260405160006040518083038185875af1925050503d806000811461319d576040519150601f19603f3d011682016040523d82523d6000602084013e6131a2565b606091505b50509050806107ae576040517f08c379a000000000000000000000000000000000000000000000000000000000815260206004820152603a60248201527f416464726573733a20756e61626c6520746f2073656e642076616c75652c207260448201527f6563697069656e74206d617920686176652072657665727465640000000000006064820152608401610dad565b60006106b56137c4565b3660006107d561390b565b60006132aa826040518060400160405280602081526020017f5361666545524332303a206c6f772d6c6576656c2063616c6c206661696c65648152508573ffffffffffffffffffffffffffffffffffffffff16613a759092919063ffffffff16565b90508051600014806132cb5750808060200190518101906132cb9190614497565b6107ae576040517f08c379a000000000000000000000000000000000000000000000000000000000815260206004820152602a60248201527f5361666545524332303a204552433230206f7065726174696f6e20646964206e60448201527f6f742073756363656564000000000000000000000000000000000000000000006064820152608401610dad565b600061336161108e565b905061338f817f36372b070000000000000000000000000000000000000000000000000000000060016135da565b610b07817f9d0751860000000000000000000000000000000000000000000000000000000060016135da565b6133f06133e960017fd217496980d1cb14720b20a80af36676bbece8e5feeb5d8970a9681a2c76bb756144b9565b6001613a84565b856133fc8587836145bd565b506001860161340c8385836145bd565b506002860180547fffffffffffffffffffffffffffffffffffffffffffffffffffffffffffffff001660ff83161790556110867fa219a02500000000000000000000000000000000000000000000000000000000600161287961108e565b6128807f3c130d9000000000000000000000000000000000000000000000000000000000600161287961108e565b6128807f9d8ff7da00000000000000000000000000000000000000000000000000000000600161287961108e565b6128807fc05327e600000000000000000000000000000000000000000000000000000000600161287961108e565b6128807f53f41a9700000000000000000000000000000000000000000000000000000000600161287961108e565b6135506133e960017f207034c18a9defc6f1e4e1ae46a487e86951456577b7bce22778749189164d2a6144b9565b82547fffffffffffffffffffffffff000000000000000000000000000000000000000090811673ffffffffffffffffffffffffffffffffffffffff938416178455600190930180549093169116179055565b6135d06133e960017f5b388d90dc1312ba799f321972f13311234fa1163bcabec7cf66101c4876eb846144b9565b6108628282613ad0565b7c01000000000000000000000000000000000000000000000000000000007fffffffff00000000000000000000000000000000000000000000000000000000831601613652576040517f72c683bb00000000000000000000000000000000000000000000000000000000815260040160405180910390fd5b7fffffffff00000000000000000000000000000000000000000000000000000000919091166000908152602092909252604090912080547fffffffffffffffffffffffffffffffffffffffffffffffffffffffffffffff0016911515919091179055565b6040517f4fc35859000000000000000000000000000000000000000000000000000000008082529073ffffffffffffffffffffffffffffffffffffffff851690634fc35859906137109089908990889088906004016146d7565b6020604051808303816000875af115801561372f573d6000803e3d6000fd5b505050506040513d601f19601f820116820180604052508101906137539190614720565b7fffffffff0000000000000000000000000000000000000000000000000000000016146115eb576040517f6d44973600000000000000000000000000000000000000000000000000000000815273ffffffffffffffffffffffffffffffffffffffff84166004820152602401610dad565b6000333214806137d45750601836105b156137de57503390565b7fffffffffffffffffffffffffffffffffffffffffffffffffffffffffffffffec36013560601c7f000000000000000000000000000000000000000000000000000000000000000073ffffffffffffffffffffffffffffffffffffffff163314806138fa57506040517f8929a8ca00000000000000000000000000000000000000000000000000000000815273ffffffffffffffffffffffffffffffffffffffff82811660048301523360248301527f00000000000000000000000000000000000000000000000000000000000000001690638929a8ca90604401602060405180830381865afa1580156138d6573d6000803e3d6000fd5b505050506040513d601f19601f820116820180604052508101906138fa9190614497565b1561390457919050565b3391505090565b3660003332148061391c5750601836105b1561392a5750600091369150565b3373ffffffffffffffffffffffffffffffffffffffff7f0000000000000000000000000000000000000000000000000000000000000000161480613a5f575073ffffffffffffffffffffffffffffffffffffffff7f000000000000000000000000000000000000000000000000000000000000000016638929a8ca367fffffffffffffffffffffffffffffffffffffffffffffffffffffffffffffffec013560601c6040517fffffffff0000000000000000000000000000000000000000000000000000000060e084901b16815273ffffffffffffffffffffffffffffffffffffffff9091166004820152336024820152604401602060405180830381865afa158015613a3b573d6000803e3d6000fd5b505050506040513d601f19601f82011682018060405250810190613a5f9190614497565b15613a6c576107d5613b86565b50600091369150565b60606107478484600085613bb7565b81548290828110613acb576040517fbf0c18ec0000000000000000000000000000000000000000000000000000000081526004810182905260248101849052604401610dad565b505550565b73ffffffffffffffffffffffffffffffffffffffff811615613b585781547fffffffffffffffffffffffff00000000000000000000000000000000000000001673ffffffffffffffffffffffffffffffffffffffff821690811783556040516000907f8be0079c531659141344cd1fd0a4f28419497f9722a3daafe3b4186f6b6457e0908290a35b6108627f7f5828d000000000000000000000000000000000000000000000000000000000600161287961108e565b3660006107d57fffffffffffffffffffffffffffffffffffffffffffffffffffffffffffffffec830182848161473d565b606082471015613c49576040517f08c379a000000000000000000000000000000000000000000000000000000000815260206004820152602660248201527f416464726573733a20696e73756666696369656e742062616c616e636520666f60448201527f722063616c6c00000000000000000000000000000000000000000000000000006064820152608401610dad565b6000808673ffffffffffffffffffffffffffffffffffffffff168587604051613c729190614767565b60006040518083038185875af1925050503d8060008114613caf576040519150601f19603f3d011682016040523d82523d6000602084013e613cb4565b606091505b5091509150613cc587838387613cd0565b979650505050505050565b60608315613d66578251600003613d5f5773ffffffffffffffffffffffffffffffffffffffff85163b613d5f576040517f08c379a000000000000000000000000000000000000000000000000000000000815260206004820152601d60248201527f416464726573733a2063616c6c20746f206e6f6e2d636f6e74726163740000006044820152606401610dad565b5081610747565b6107478383815115613d7b5781518083602001fd5b806040517f08c379a0000000000000000000000000000000000000000000000000000000008152600401610dad9190613e68565b7fffffffff0000000000000000000000000000000000000000000000000000000081168114610b0757600080fd5b600060208284031215613def57600080fd5b8135610b7581613daf565b60005b83811015613e15578181015183820152602001613dfd565b50506000910152565b60008151808452613e36816020860160208601613dfa565b601f017fffffffffffffffffffffffffffffffffffffffffffffffffffffffffffffffe0169290920160200192915050565b602081526000610b756020830184613e1e565b73ffffffffffffffffffffffffffffffffffffffff81168114610b0757600080fd5b8035613ea881613e7b565b919050565b60008060408385031215613ec057600080fd5b8235613ecb81613e7b565b946020939093013593505050565b60008083601f840112613eeb57600080fd5b50813567ffffffffffffffff811115613f0357600080fd5b6020830191508360208260051b8501011115613f1e57600080fd5b9250929050565b60008060008060408587031215613f3b57600080fd5b843567ffffffffffffffff80821115613f5357600080fd5b613f5f88838901613ed9565b90965094506020870135915080821115613f7857600080fd5b50613f8587828801613ed9565b95989497509550505050565b600080600060608486031215613fa657600080fd5b8335613fb181613e7b565b92506020840135613fc181613e7b565b929592945050506040919091013590565b60008060408385031215613fe557600080fd5b823591506020830135613ff781613e7b565b809150509250929050565b60208152816020820152818360408301376000818301604090810191909152601f9092017fffffffffffffffffffffffffffffffffffffffffffffffffffffffffffffffe0160101919050565b60006020828403121561406157600080fd5b5035919050565b60008060008060006060868803121561408057600080fd5b853561408b81613e7b565b9450602086013567ffffffffffffffff808211156140a857600080fd5b6140b489838a01613ed9565b909650945060408801359150808211156140cd57600080fd5b506140da88828901613ed9565b969995985093965092949392505050565b6000602082840312156140fd57600080fd5b8135610b7581613e7b565b6000806000806000806060878903121561412157600080fd5b863567ffffffffffffffff8082111561413957600080fd5b6141458a838b01613ed9565b9098509650602089013591508082111561415e57600080fd5b61416a8a838b01613ed9565b9096509450604089013591508082111561418357600080fd5b5061419089828a01613ed9565b979a9699509497509295939492505050565b60008083601f8401126141b457600080fd5b50813567ffffffffffffffff8111156141cc57600080fd5b602083019150836020828501011115613f1e57600080fd5b803560ff81168114613ea857600080fd5b60008060008060008060008060008060e08b8d03121561421457600080fd5b8a3561421f81613e7b565b995060208b013561422f81613e7b565b985060408b013567ffffffffffffffff8082111561424c57600080fd5b6142588e838f016141a2565b909a50985060608d013591508082111561427157600080fd5b61427d8e838f016141a2565b909850965086915061429160808e016141e4565b955060a08d01359150808211156142a757600080fd5b506142b48d828e016141a2565b90945092506142c7905060c08c01613e9d565b90509295989b9194979a5092959850565b6000806000806000608086880312156142f057600080fd5b85356142fb81613e7b565b9450602086013561430b81613e7b565b935060408601359250606086013567ffffffffffffffff81111561432e57600080fd5b6140da888289016141a2565b600080600080600080600060e0888a03121561435557600080fd5b873561436081613e7b565b9650602088013561437081613e7b565b9550604088013594506060880135935061438c608089016141e4565b925060a0880135915060c0880135905092959891949750929550565b600080604083850312156143bb57600080fd5b82356143c681613e7b565b91506020830135613ff781613e7b565b600080602083850312156143e957600080fd5b823567ffffffffffffffff81111561440057600080fd5b61440c858286016141a2565b90969095509350505050565b6000806000806060858703121561442e57600080fd5b843561443981613e7b565b935060208501359250604085013567ffffffffffffffff81111561445c57600080fd5b613f85878288016141a2565b7f4e487b7100000000000000000000000000000000000000000000000000000000600052603260045260246000fd5b6000602082840312156144a957600080fd5b81518015158114610b7557600080fd5b8181038181111561069d577f4e487b7100000000000000000000000000000000000000000000000000000000600052601160045260246000fd5b600181811c9082168061450757607f821691505b602082108103614540577f4e487b7100000000000000000000000000000000000000000000000000000000600052602260045260246000fd5b50919050565b7f4e487b7100000000000000000000000000000000000000000000000000000000600052604160045260246000fd5b601f8211156107ae576000816000526020600020601f850160051c8101602086101561459e5750805b601f850160051c820191505b81811015611086578281556001016145aa565b67ffffffffffffffff8311156145d5576145d5614546565b6145e9836145e383546144f3565b83614575565b6000601f84116001811461463b57600085156146055750838201355b7fffffffffffffffffffffffffffffffffffffffffffffffffffffffffffffffff600387901b1c1916600186901b1783556115eb565b6000838152602090207fffffffffffffffffffffffffffffffffffffffffffffffffffffffffffffffe0861690835b8281101561468a578685013582556020948501946001909201910161466a565b50868210156146c5577fffffffffffffffffffffffffffffffffffffffffffffffffffffffffffffffff60f88860031b161c19848701351681555b505060018560011b0183555050505050565b600073ffffffffffffffffffffffffffffffffffffffff8087168352808616602084015250836040830152608060608301526147166080830184613e1e565b9695505050505050565b60006020828403121561473257600080fd5b8151610b7581613daf565b6000808585111561474d57600080fd5b8386111561475a57600080fd5b5050820193919092039150565b60008251614779818460208701613dfa565b919091019291505056fea26469706673582212207903edc9d55a5505c59696f3eb7ac928f41e0dfde9138b180d61eee82dd821e064736f6c63430008160033",
  "linkReferences": {},
  "deployedLinkReferences": {}
}