{
  "_format": "hh-sol-artifact-1",
  "contractName": "FxERC20FixedSupplyMock",
  "sourceName": "contracts/mocks/fx-portal/token/ERC20/FxERC20FixedSupplyMock.sol",
  "abi": [
    {
      "inputs": [
        {
          "internalType": "contract IForwarderRegistry",
          "name": "forwarderRegistry",
          "type": "address"
        }
      ],
      "stateMutability": "nonpayable",
      "type": "constructor"
    },
    {
      "inputs": [
        {
          "internalType": "address",
          "name": "owner",
          "type": "address"
        },
        {
          "internalType": "address",
          "name": "spender",
          "type": "address"
        },
        {
          "internalType": "uint256",
          "name": "allowance",
          "type": "uint256"
        },
        {
          "internalType": "uint256",
          "name": "increment",
          "type": "uint256"
        }
      ],
      "name": "ERC20AllowanceOverflow",
      "type": "error"
    },
    {
      "inputs": [
        {
          "internalType": "address",
          "name": "owner",
          "type": "address"
        }
      ],
      "name": "ERC20ApprovalToAddressZero",
      "type": "error"
    },
    {
      "inputs": [],
      "name": "ERC20BatchMintValuesOverflow",
      "type": "error"
    },
    {
      "inputs": [],
      "name": "ERC20BatchTransferValuesOverflow",
      "type": "error"
    },
    {
      "inputs": [
        {
          "internalType": "address",
          "name": "owner",
          "type": "address"
        },
        {
          "internalType": "address",
          "name": "spender",
          "type": "address"
        },
        {
          "internalType": "uint256",
          "name": "allowance",
          "type": "uint256"
        },
        {
          "internalType": "uint256",
          "name": "decrement",
          "type": "uint256"
        }
      ],
      "name": "ERC20InsufficientAllowance",
      "type": "error"
    },
    {
      "inputs": [
        {
          "internalType": "address",
          "name": "owner",
          "type": "address"
        },
        {
          "internalType": "uint256",
          "name": "balance",
          "type": "uint256"
        },
        {
          "internalType": "uint256",
          "name": "value",
          "type": "uint256"
        }
      ],
      "name": "ERC20InsufficientBalance",
      "type": "error"
    },
    {
      "inputs": [],
      "name": "ERC20MintToAddressZero",
      "type": "error"
    },
    {
      "inputs": [
        {
          "internalType": "uint256",
          "name": "deadline",
          "type": "uint256"
        }
      ],
      "name": "ERC20PermitExpired",
      "type": "error"
    },
    {
      "inputs": [],
      "name": "ERC20PermitFromAddressZero",
      "type": "error"
    },
    {
      "inputs": [],
      "name": "ERC20PermitInvalidSignature",
      "type": "error"
    },
    {
      "inputs": [
        {
          "internalType": "address",
          "name": "recipient",
          "type": "address"
        }
      ],
      "name": "ERC20SafeTransferRejected",
      "type": "error"
    },
    {
      "inputs": [
        {
          "internalType": "uint256",
          "name": "supply",
          "type": "uint256"
        },
        {
          "internalType": "uint256",
          "name": "value",
          "type": "uint256"
        }
      ],
      "name": "ERC20TotalSupplyOverflow",
      "type": "error"
    },
    {
      "inputs": [
        {
          "internalType": "address",
          "name": "owner",
          "type": "address"
        }
      ],
      "name": "ERC20TransferToAddressZero",
      "type": "error"
    },
    {
      "inputs": [],
      "name": "IllegalInterfaceId",
      "type": "error"
    },
    {
      "inputs": [],
      "name": "InconsistentArrayLengths",
      "type": "error"
    },
    {
      "inputs": [
        {
          "internalType": "address",
          "name": "tokenContract",
          "type": "address"
        }
      ],
      "name": "IncorrectTokenContractType",
      "type": "error"
    },
    {
      "inputs": [
        {
          "internalType": "uint256",
          "name": "currentPhase",
          "type": "uint256"
        },
        {
          "internalType": "uint256",
          "name": "newPhase",
          "type": "uint256"
        }
      ],
      "name": "InitializationPhaseAlreadyReached",
      "type": "error"
    },
    {
      "inputs": [
        {
          "internalType": "address",
          "name": "account",
          "type": "address"
        }
      ],
      "name": "NotContractOwner",
      "type": "error"
    },
    {
      "anonymous": false,
      "inputs": [
        {
          "indexed": true,
          "internalType": "address",
          "name": "owner",
          "type": "address"
        },
        {
          "indexed": true,
          "internalType": "address",
          "name": "spender",
          "type": "address"
        },
        {
          "indexed": false,
          "internalType": "uint256",
          "name": "value",
          "type": "uint256"
        }
      ],
      "name": "Approval",
      "type": "event"
    },
    {
      "anonymous": false,
      "inputs": [
        {
          "indexed": true,
          "internalType": "address",
          "name": "previousOwner",
          "type": "address"
        },
        {
          "indexed": true,
          "internalType": "address",
          "name": "newOwner",
          "type": "address"
        }
      ],
      "name": "OwnershipTransferred",
      "type": "event"
    },
    {
      "anonymous": false,
      "inputs": [
        {
          "indexed": true,
          "internalType": "address",
          "name": "from",
          "type": "address"
        },
        {
          "indexed": true,
          "internalType": "address",
          "name": "to",
          "type": "address"
        },
        {
          "indexed": false,
          "internalType": "uint256",
          "name": "value",
          "type": "uint256"
        }
      ],
      "name": "Transfer",
      "type": "event"
    },
    {
      "inputs": [],
      "name": "DOMAIN_SEPARATOR",
      "outputs": [
        {
          "internalType": "bytes32",
          "name": "",
          "type": "bytes32"
        }
      ],
      "stateMutability": "view",
      "type": "function"
    },
    {
      "inputs": [],
      "name": "__msgData",
      "outputs": [
        {
          "internalType": "bytes",
          "name": "",
          "type": "bytes"
        }
      ],
      "stateMutability": "view",
      "type": "function"
    },
    {
      "inputs": [
        {
          "internalType": "address[]",
          "name": "holders",
          "type": "address[]"
        },
        {
          "internalType": "uint256[]",
          "name": "allocations",
          "type": "uint256[]"
        }
      ],
      "name": "allocate",
      "outputs": [],
      "stateMutability": "nonpayable",
      "type": "function"
    },
    {
      "inputs": [
        {
          "internalType": "address",
          "name": "owner",
          "type": "address"
        },
        {
          "internalType": "address",
          "name": "spender",
          "type": "address"
        }
      ],
      "name": "allowance",
      "outputs": [
        {
          "internalType": "uint256",
          "name": "value",
          "type": "uint256"
        }
      ],
      "stateMutability": "view",
      "type": "function"
    },
    {
      "inputs": [
        {
          "internalType": "address",
          "name": "spender",
          "type": "address"
        },
        {
          "internalType": "uint256",
          "name": "value",
          "type": "uint256"
        }
      ],
      "name": "approve",
      "outputs": [
        {
          "internalType": "bool",
          "name": "result",
          "type": "bool"
        }
      ],
      "stateMutability": "nonpayable",
      "type": "function"
    },
    {
      "inputs": [
        {
          "internalType": "address",
          "name": "owner",
          "type": "address"
        }
      ],
      "name": "balanceOf",
      "outputs": [
        {
          "internalType": "uint256",
          "name": "balance",
          "type": "uint256"
        }
      ],
      "stateMutability": "view",
      "type": "function"
    },
    {
      "inputs": [
        {
          "internalType": "address[]",
          "name": "recipients",
          "type": "address[]"
        },
        {
          "internalType": "uint256[]",
          "name": "values",
          "type": "uint256[]"
        }
      ],
      "name": "batchTransfer",
      "outputs": [
        {
          "internalType": "bool",
          "name": "",
          "type": "bool"
        }
      ],
      "stateMutability": "nonpayable",
      "type": "function"
    },
    {
      "inputs": [
        {
          "internalType": "address",
          "name": "from",
          "type": "address"
        },
        {
          "internalType": "address[]",
          "name": "recipients",
          "type": "address[]"
        },
        {
          "internalType": "uint256[]",
          "name": "values",
          "type": "uint256[]"
        }
      ],
      "name": "batchTransferFrom",
      "outputs": [
        {
          "internalType": "bool",
          "name": "",
          "type": "bool"
        }
      ],
      "stateMutability": "nonpayable",
      "type": "function"
    },
    {
      "inputs": [],
      "name": "connectedToken",
      "outputs": [
        {
          "internalType": "address",
          "name": "",
          "type": "address"
        }
      ],
      "stateMutability": "view",
      "type": "function"
    },
    {
      "inputs": [],
      "name": "decimals",
      "outputs": [
        {
          "internalType": "uint8",
          "name": "",
          "type": "uint8"
        }
      ],
      "stateMutability": "view",
      "type": "function"
    },
    {
      "inputs": [
        {
          "internalType": "address",
          "name": "spender",
          "type": "address"
        },
        {
          "internalType": "uint256",
          "name": "subtractedValue",
          "type": "uint256"
        }
      ],
      "name": "decreaseAllowance",
      "outputs": [
        {
          "internalType": "bool",
          "name": "result",
          "type": "bool"
        }
      ],
      "stateMutability": "nonpayable",
      "type": "function"
    },
    {
      "inputs": [],
      "name": "forwarderRegistry",
      "outputs": [
        {
          "internalType": "contract IForwarderRegistry",
          "name": "",
          "type": "address"
        }
      ],
      "stateMutability": "view",
      "type": "function"
    },
    {
      "inputs": [],
      "name": "fxManager",
      "outputs": [
        {
          "internalType": "address",
          "name": "",
          "type": "address"
        }
      ],
      "stateMutability": "view",
      "type": "function"
    },
    {
      "inputs": [
        {
          "internalType": "address",
          "name": "spender",
          "type": "address"
        },
        {
          "internalType": "uint256",
          "name": "addedValue",
          "type": "uint256"
        }
      ],
      "name": "increaseAllowance",
      "outputs": [
        {
          "internalType": "bool",
          "name": "result",
          "type": "bool"
        }
      ],
      "stateMutability": "nonpayable",
      "type": "function"
    },
    {
      "inputs": [
        {
          "internalType": "address",
          "name": "fxManager_",
          "type": "address"
        },
        {
          "internalType": "address",
          "name": "connectedToken_",
          "type": "address"
        },
        {
          "internalType": "uint256",
          "name": "totalSupply",
          "type": "uint256"
        },
        {
          "internalType": "string",
          "name": "tokenName",
          "type": "string"
        },
        {
          "internalType": "string",
          "name": "tokenSymbol",
          "type": "string"
        },
        {
          "internalType": "uint8",
          "name": "tokenDecimals",
          "type": "uint8"
        },
        {
          "internalType": "string",
          "name": "uri",
          "type": "string"
        },
        {
          "internalType": "address",
          "name": "initialOwner",
          "type": "address"
        }
      ],
      "name": "initialize",
      "outputs": [],
      "stateMutability": "nonpayable",
      "type": "function"
    },
    {
      "inputs": [
        {
          "internalType": "address",
          "name": "forwarder",
          "type": "address"
        }
      ],
      "name": "isTrustedForwarder",
      "outputs": [
        {
          "internalType": "bool",
          "name": "",
          "type": "bool"
        }
      ],
      "stateMutability": "view",
      "type": "function"
    },
    {
      "inputs": [],
      "name": "name",
      "outputs": [
        {
          "internalType": "string",
          "name": "",
          "type": "string"
        }
      ],
      "stateMutability": "view",
      "type": "function"
    },
    {
      "inputs": [
        {
          "internalType": "address",
          "name": "owner",
          "type": "address"
        }
      ],
      "name": "nonces",
      "outputs": [
        {
          "internalType": "uint256",
          "name": "",
          "type": "uint256"
        }
      ],
      "stateMutability": "view",
      "type": "function"
    },
    {
      "inputs": [],
      "name": "owner",
      "outputs": [
        {
          "internalType": "address",
          "name": "",
          "type": "address"
        }
      ],
      "stateMutability": "view",
      "type": "function"
    },
    {
      "inputs": [
        {
          "internalType": "address",
          "name": "owner",
          "type": "address"
        },
        {
          "internalType": "address",
          "name": "spender",
          "type": "address"
        },
        {
          "internalType": "uint256",
          "name": "value",
          "type": "uint256"
        },
        {
          "internalType": "uint256",
          "name": "deadline",
          "type": "uint256"
        },
        {
          "internalType": "uint8",
          "name": "v",
          "type": "uint8"
        },
        {
          "internalType": "bytes32",
          "name": "r",
          "type": "bytes32"
        },
        {
          "internalType": "bytes32",
          "name": "s",
          "type": "bytes32"
        }
      ],
      "name": "permit",
      "outputs": [],
      "stateMutability": "nonpayable",
      "type": "function"
    },
    {
      "inputs": [
        {
          "internalType": "address[]",
          "name": "accounts",
          "type": "address[]"
        },
        {
          "internalType": "contract IERC20[]",
          "name": "tokens",
          "type": "address[]"
        },
        {
          "internalType": "uint256[]",
          "name": "amounts",
          "type": "uint256[]"
        }
      ],
      "name": "recoverERC20s",
      "outputs": [],
      "stateMutability": "nonpayable",
      "type": "function"
    },
    {
      "inputs": [
        {
          "internalType": "address[]",
          "name": "accounts",
          "type": "address[]"
        },
        {
          "internalType": "contract IERC721[]",
          "name": "contracts",
          "type": "address[]"
        },
        {
          "internalType": "uint256[]",
          "name": "tokenIds",
          "type": "uint256[]"
        }
      ],
      "name": "recoverERC721s",
      "outputs": [],
      "stateMutability": "nonpayable",
      "type": "function"
    },
    {
      "inputs": [
        {
          "internalType": "address payable[]",
          "name": "accounts",
          "type": "address[]"
        },
        {
          "internalType": "uint256[]",
          "name": "amounts",
          "type": "uint256[]"
        }
      ],
      "name": "recoverETH",
      "outputs": [],
      "stateMutability": "nonpayable",
      "type": "function"
    },
    {
      "inputs": [
        {
          "internalType": "address",
          "name": "to",
          "type": "address"
        },
        {
          "internalType": "uint256",
          "name": "value",
          "type": "uint256"
        },
        {
          "internalType": "bytes",
          "name": "data",
          "type": "bytes"
        }
      ],
      "name": "safeTransfer",
      "outputs": [
        {
          "internalType": "bool",
          "name": "",
          "type": "bool"
        }
      ],
      "stateMutability": "nonpayable",
      "type": "function"
    },
    {
      "inputs": [
        {
          "internalType": "address",
          "name": "from",
          "type": "address"
        },
        {
          "internalType": "address",
          "name": "to",
          "type": "address"
        },
        {
          "internalType": "uint256",
          "name": "value",
          "type": "uint256"
        },
        {
          "internalType": "bytes",
          "name": "data",
          "type": "bytes"
        }
      ],
      "name": "safeTransferFrom",
      "outputs": [
        {
          "internalType": "bool",
          "name": "",
          "type": "bool"
        }
      ],
      "stateMutability": "nonpayable",
      "type": "function"
    },
    {
      "inputs": [
        {
          "internalType": "string",
          "name": "uri",
          "type": "string"
        }
      ],
      "name": "setTokenURI",
      "outputs": [],
      "stateMutability": "nonpayable",
      "type": "function"
    },
    {
      "inputs": [
        {
          "internalType": "bytes4",
          "name": "interfaceId",
          "type": "bytes4"
        }
      ],
      "name": "supportsInterface",
      "outputs": [
        {
          "internalType": "bool",
          "name": "",
          "type": "bool"
        }
      ],
      "stateMutability": "view",
      "type": "function"
    },
    {
      "inputs": [],
      "name": "symbol",
      "outputs": [
        {
          "internalType": "string",
          "name": "",
          "type": "string"
        }
      ],
      "stateMutability": "view",
      "type": "function"
    },
    {
      "inputs": [],
      "name": "tokenURI",
      "outputs": [
        {
          "internalType": "string",
          "name": "",
          "type": "string"
        }
      ],
      "stateMutability": "view",
      "type": "function"
    },
    {
      "inputs": [],
      "name": "totalSupply",
      "outputs": [
        {
          "internalType": "uint256",
          "name": "supply",
          "type": "uint256"
        }
      ],
      "stateMutability": "view",
      "type": "function"
    },
    {
      "inputs": [
        {
          "internalType": "address",
          "name": "to",
          "type": "address"
        },
        {
          "internalType": "uint256",
          "name": "value",
          "type": "uint256"
        }
      ],
      "name": "transfer",
      "outputs": [
        {
          "internalType": "bool",
          "name": "result",
          "type": "bool"
        }
      ],
      "stateMutability": "nonpayable",
      "type": "function"
    },
    {
      "inputs": [
        {
          "internalType": "address",
          "name": "from",
          "type": "address"
        },
        {
          "internalType": "address",
          "name": "to",
          "type": "address"
        },
        {
          "internalType": "uint256",
          "name": "value",
          "type": "uint256"
        }
      ],
      "name": "transferFrom",
      "outputs": [
        {
          "internalType": "bool",
          "name": "result",
          "type": "bool"
        }
      ],
      "stateMutability": "nonpayable",
      "type": "function"
    },
    {
      "inputs": [
        {
          "internalType": "address",
          "name": "newOwner",
          "type": "address"
        }
      ],
      "name": "transferOwnership",
      "outputs": [],
      "stateMutability": "nonpayable",
      "type": "function"
    }
  ],
  "bytecode": "0x60a06040523480156200001157600080fd5b5060405162003e1c38038062003e1c833981016040819052620000349162000046565b6001600160a01b031660805262000078565b6000602082840312156200005957600080fd5b81516001600160a01b03811681146200007157600080fd5b9392505050565b608051613d65620000b7600039600081816102b80152818161035201528181612865015281816128ed015281816129a001526129de0152613d656000f3fe608060405234801561001057600080fd5b506004361061020b5760003560e01c80637ecebe001161012a578063b88d4fde116100bd578063dd62ed3e1161008c578063eb79554911610071578063eb795549146104a0578063f2fde38b146104b3578063f7ba94bd146104c657600080fd5b8063dd62ed3e1461047a578063e0df5b6f1461048d57600080fd5b8063b88d4fde1461042e578063bdad4dc314610441578063c3666c3614610454578063d505accf1461046757600080fd5b80639b779153116100f95780639b779153146103ed5780639d11b050146103f5578063a457c2d714610408578063a9059cbb1461041b57600080fd5b80637ecebe00146103b757806388d695b2146103ca5780638da5cb5b146103dd57806395d89b41146103e557600080fd5b806331e66e1e116101a25780634885b254116101715780634885b2541461032f578063572b6c051461034257806370a082311461038f57806373c8a958146103a257600080fd5b806331e66e1e146102f65780633644e5151461030c57806339509351146103145780633c130d901461032757600080fd5b806318160ddd116101de57806318160ddd1461028d57806323b872dd146102a35780632b4c9f16146102b6578063313ce567146102dc57600080fd5b806301ffc9a71461021057806306fdde0314610238578063095ea7b31461024d5780630a8a491414610260575b600080fd5b61022361021e3660046133c0565b6104d9565b60405190151581526020015b60405180910390f35b6102406104f3565b60405161022f919061344b565b61022361025b366004613490565b61050a565b610268610532565b60405173ffffffffffffffffffffffffffffffffffffffff909116815260200161022f565b61029561055c565b60405190815260200161022f565b6102236102b13660046134bc565b610570565b7f0000000000000000000000000000000000000000000000000000000000000000610268565b6102e461059b565b60405160ff909116815260200161022f565b6102fe6105b2565b60405161022f9291906134fd565b6102956105c5565b610223610322366004613490565b6105cf565b6102406105ee565b61022361033d366004613596565b6105fb565b610223610350366004613619565b7f000000000000000000000000000000000000000000000000000000000000000073ffffffffffffffffffffffffffffffffffffffff90811691161490565b61029561039d366004613619565b61062c565b6103b56103b0366004613636565b610664565b005b6102956103c5366004613619565b610768565b6102236103d83660046136d0565b610776565b6102686107a5565b6102406107cc565b6102686107de565b6103b561040336600461378f565b6107eb565b610223610416366004613490565b61081e565b610223610429366004613490565b61083d565b61022361043c366004613879565b61085c565b6103b561044f3660046136d0565b610881565b6103b5610462366004613636565b6108ff565b6103b56104753660046138db565b610ba5565b610295610488366004613949565b610bcc565b6103b561049b366004613982565b610c1e565b6102236104ae3660046139c4565b610c41565b6103b56104c1366004613619565b610c64565b6103b56104d43660046136d0565b610c82565b60006104ed826104e7610d41565b90610d6f565b92915050565b6060610505610500610e49565b610e77565b905090565b6000610529610517610f0d565b8484610521610f17565b929190610f45565b50600192915050565b600061050561053f61101c565b6001015473ffffffffffffffffffffffffffffffffffffffff1690565b6000610505610569610f17565b6002015490565b600061059161057d610f0d565b858585610588610f17565b9392919061104a565b5060019392505050565b60006105056105a8610e49565b6002015460ff1690565b3660006105bd61109c565b915091509091565b60006105056110a7565b60006105296105dc610f0d565b84846105e6610f17565b929190611142565b60606105056105006112f4565b6000610620610608610f0d565b8787878787610615610f17565b959493929190611322565b50600195945050505050565b60006104ed8261063a610f17565b9073ffffffffffffffffffffffffffffffffffffffff166000908152602091909152604090205490565b61067d61066f610f0d565b6106776116ef565b9061171d565b84838114158061068d5750808214155b156106c4576040517f6582533600000000000000000000000000000000000000000000000000000000815260040160405180910390fd5b60005b8181101561075e576107568888838181106106e4576106e4613a14565b90506020020160208101906106f99190613619565b85858481811061070b5761070b613a14565b9050602002013588888581811061072457610724613a14565b90506020020160208101906107399190613619565b73ffffffffffffffffffffffffffffffffffffffff169190611788565b6001016106c7565b5050505050505050565b60006104ed8261063a61181a565b6000610799610783610f0d565b8686868661078f610f17565b9493929190611848565b5060015b949350505050565b60006105056107b26116ef565b5473ffffffffffffffffffffffffffffffffffffffff1690565b60606105056107d9610e49565b611b9f565b60006105056107b261101c565b6107fd8b8b8a8a8a8a8a8a8a8a611bb0565b6108118b8a61080a610f17565b9190611c25565b5050505050505050505050565b600061052961082b610f0d565b8484610835610f17565b929190611d48565b600061052961084a610f0d565b8484610854610f17565b929190611e80565b6000610620610869610f0d565b8787878787610876610f17565b95949392919061203f565b6108f9848480806020026020016040519081016040528093929190818152602001838360200280828437600092019190915250506040805160208088028281018201909352878252909350879250869182918501908490808284376000920191909152506108f29250610f17915050565b91906120ac565b50505050565b61090a61066f610f0d565b84838114158061091a5750808214155b15610951576040517f6582533600000000000000000000000000000000000000000000000000000000815260040160405180910390fd5b60005b8181101561075e57600086868381811061097057610970613a14565b90506020020160208101906109859190613619565b6040517f01ffc9a70000000000000000000000000000000000000000000000000000000081527f80ac58cd00000000000000000000000000000000000000000000000000000000600482015290915073ffffffffffffffffffffffffffffffffffffffff8216906301ffc9a790602401602060405180830381865afa158015610a12573d6000803e3d6000fd5b505050506040513d601f19601f82011682018060405250810190610a369190613a43565b610a89576040517f986b9f1f00000000000000000000000000000000000000000000000000000000815273ffffffffffffffffffffffffffffffffffffffff821660048201526024015b60405180910390fd5b868683818110610a9b57610a9b613a14565b9050602002016020810190610ab09190613619565b73ffffffffffffffffffffffffffffffffffffffff166342842e0e308b8b86818110610ade57610ade613a14565b9050602002016020810190610af39190613619565b888887818110610b0557610b05613a14565b6040517fffffffff0000000000000000000000000000000000000000000000000000000060e088901b16815273ffffffffffffffffffffffffffffffffffffffff958616600482015294909316602485015250602090910201356044820152606401600060405180830381600087803b158015610b8157600080fd5b505af1158015610b95573d6000803e3d6000fd5b5050505050806001019050610954565b610bc387878787878787610bb761181a565b969594939291906122cd565b50505050505050565b6000610c178383610bdb610f17565b919073ffffffffffffffffffffffffffffffffffffffff9182166000908152600193909301602090815260408085209290931684525290205490565b9392505050565b610c2961066f610f0d565b610c3d8282610c366112f4565b919061253c565b5050565b6000610799610c4e610f0d565b86868686610c5a610f17565b9493929190612548565b610c7f610c6f610f0d565b82610c786116ef565b91906125b4565b50565b610c8d61066f610f0d565b82818114610cc7576040517f6582533600000000000000000000000000000000000000000000000000000000815260040160405180910390fd5b60005b81811015610d3957610d31848483818110610ce757610ce7613a14565b90506020020135878784818110610d0057610d00613a14565b9050602002016020810190610d159190613619565b73ffffffffffffffffffffffffffffffffffffffff16906126c8565b600101610cca565b505050505050565b6000806104ed60017fca9d3e17f264b0f3984e2634e94adb37fa3e6a8103f06aeae6fa59e21c769f5e613a65565b60007c01000000000000000000000000000000000000000000000000000000007fffffffff00000000000000000000000000000000000000000000000000000000831601610dbf575060006104ed565b7ffe003659000000000000000000000000000000000000000000000000000000007fffffffff00000000000000000000000000000000000000000000000000000000831601610e10575060016104ed565b507fffffffff00000000000000000000000000000000000000000000000000000000166000908152602091909152604090205460ff1690565b6000806104ed60017f335df4119bbb04f056b33eba33b826d3529129e458faf6daa9924b5a8f3b6a82613a65565b6060816000018054610e8890613a9f565b80601f0160208091040260200160405190810160405280929190818152602001828054610eb490613a9f565b8015610f015780601f10610ed657610100808354040283529160200191610f01565b820191906000526020600020905b815481529060010190602001808311610ee457829003601f168201915b50505050509050919050565b6000610505612822565b6000806104ed60017f1da92899d3da68bf9787824388a37ea2bfa79780bcef91b9716c390eec8ecbef613a65565b73ffffffffffffffffffffffffffffffffffffffff8216610faa576040517ff7e1ac0f00000000000000000000000000000000000000000000000000000000815273ffffffffffffffffffffffffffffffffffffffff84166004820152602401610a80565b73ffffffffffffffffffffffffffffffffffffffff838116600081815260018701602090815260408083209487168084529482529182902085905590518481527f8c5be1e5ebec7d5bd14f71427d1e84f3dd0314c0f7b2291e5b200ac8c7c3b92591015b60405180910390a350505050565b6000806104ed60017ffbf67eff80ed72d4d972e624738c2b5704d828cc6926cf8653e1018c8eef81c0613a65565b8373ffffffffffffffffffffffffffffffffffffffff168373ffffffffffffffffffffffffffffffffffffffff16146110895761108985848684611d48565b61109585848484611e80565b5050505050565b3660006105bd612969565b6000467f8b73c3c69bb8fe3d512ecc4cf759cc79239f7b179b0ffacaa9a75d522b39400f6110d6610500610e49565b80516020918201206040805192830193909352918101919091527fc89efdaa54c0f20c7adf612882df0950f5a951637e0307cdcb4c672f298b8bc66060820152608081018290523060a082015260c0016040516020818303038152906040528051906020012091505090565b73ffffffffffffffffffffffffffffffffffffffff82166111a7576040517ff7e1ac0f00000000000000000000000000000000000000000000000000000000815273ffffffffffffffffffffffffffffffffffffffff84166004820152602401610a80565b73ffffffffffffffffffffffffffffffffffffffff808416600090815260018601602090815260408083209386168352929052205481156112865780820181811161124c576040517f93bc2ff100000000000000000000000000000000000000000000000000000000815273ffffffffffffffffffffffffffffffffffffffff8087166004830152851660248201526044810183905260648101849052608401610a80565b73ffffffffffffffffffffffffffffffffffffffff8086166000908152600188016020908152604080832093881683529290522081905590505b8273ffffffffffffffffffffffffffffffffffffffff168473ffffffffffffffffffffffffffffffffffffffff167f8c5be1e5ebec7d5bd14f71427d1e84f3dd0314c0f7b2291e5b200ac8c7c3b925836040516112e591815260200190565b60405180910390a35050505050565b6000806104ed60017ff41bf6a5db26bffdfab174dcf66b31fbba8fdb7e3db040721ce1e62d61839ceb613a65565b8281811461135c576040517f6582533600000000000000000000000000000000000000000000000000000000815260040160405180910390fd5b8060000361136a5750610bc3565b73ffffffffffffffffffffffffffffffffffffffff86166000908152602089905260408120549080805b848110156116af5760008989838181106113b0576113b0613a14565b90506020020160208101906113c59190613619565b905073ffffffffffffffffffffffffffffffffffffffff811661142c576040517f754f425b00000000000000000000000000000000000000000000000000000000815273ffffffffffffffffffffffffffffffffffffffff8c166004820152602401610a80565b600088888481811061144057611440613a14565b9050602002013590508060001461157e5784810185811161148d576040517fdedd834100000000000000000000000000000000000000000000000000000000815260040160405180910390fd5b8095508273ffffffffffffffffffffffffffffffffffffffff168d73ffffffffffffffffffffffffffffffffffffffff161461151757818f60000160008573ffffffffffffffffffffffffffffffffffffffff1673ffffffffffffffffffffffffffffffffffffffff1681526020019081526020016000206000828254019250508190555061157c565b86821115611577576040517fe450d38c00000000000000000000000000000000000000000000000000000000815273ffffffffffffffffffffffffffffffffffffffff8e1660048201526024810188905260448101839052606401610a80565b938101935b505b8173ffffffffffffffffffffffffffffffffffffffff168c73ffffffffffffffffffffffffffffffffffffffff167fddf252ad1be2c89b69c2b068fc378daa952ba7f163c4a11628f55a4df523b3ef836040516115dd91815260200190565b60405180910390a384158015906115f45750838514155b156116a55784860386811061165b576040517fe450d38c00000000000000000000000000000000000000000000000000000000815273ffffffffffffffffffffffffffffffffffffffff8e1660048201526024810188905260448101879052606401610a80565b8481018f60000160008f73ffffffffffffffffffffffffffffffffffffffff1673ffffffffffffffffffffffffffffffffffffffff16815260200190815260200160002081905550505b5050600101611394565b508973ffffffffffffffffffffffffffffffffffffffff168973ffffffffffffffffffffffffffffffffffffffff1614610811576108118b8a8c85611d48565b6000806104ed60017fc9ed16f33ab3a66c84bfd83099ccb2a8845871e2e1c1928f63797152f0fd54cd613a65565b815473ffffffffffffffffffffffffffffffffffffffff828116911614610c3d576040517f2ef4875e00000000000000000000000000000000000000000000000000000000815273ffffffffffffffffffffffffffffffffffffffff82166004820152602401610a80565b6040805173ffffffffffffffffffffffffffffffffffffffff8416602482015260448082018490528251808303909101815260649091019091526020810180517bffffffffffffffffffffffffffffffffffffffffffffffffffffffff167fa9059cbb00000000000000000000000000000000000000000000000000000000179052611815908490612ad3565b505050565b6000806104ed60017f93fe0ff7226b064a4a8f0b09910762afb4bc2441835792c021ffd78cd513011e613a65565b82818114611882576040517f6582533600000000000000000000000000000000000000000000000000000000815260040160405180910390fd5b806000036118905750610d39565b73ffffffffffffffffffffffffffffffffffffffff86166000908152602088905260408120549080805b84811015611af15760008989838181106118d6576118d6613a14565b90506020020160208101906118eb9190613619565b905073ffffffffffffffffffffffffffffffffffffffff8116611952576040517f754f425b00000000000000000000000000000000000000000000000000000000815273ffffffffffffffffffffffffffffffffffffffff8c166004820152602401610a80565b600088888481811061196657611966613a14565b90506020020135905080600014611a80578481018581116119b3576040517fdedd834100000000000000000000000000000000000000000000000000000000815260040160405180910390fd5b8095508273ffffffffffffffffffffffffffffffffffffffff168d73ffffffffffffffffffffffffffffffffffffffff1614611a195773ffffffffffffffffffffffffffffffffffffffff8316600090815260208f905260409020805483019055611a7e565b86821115611a79576040517fe450d38c00000000000000000000000000000000000000000000000000000000815273ffffffffffffffffffffffffffffffffffffffff8e1660048201526024810188905260448101839052606401610a80565b938101935b505b8173ffffffffffffffffffffffffffffffffffffffff168c73ffffffffffffffffffffffffffffffffffffffff167fddf252ad1be2c89b69c2b068fc378daa952ba7f163c4a11628f55a4df523b3ef83604051611adf91815260200190565b60405180910390a350506001016118ba565b508115801590611b015750808214155b15611b9357818303838110611b68576040517fe450d38c00000000000000000000000000000000000000000000000000000000815273ffffffffffffffffffffffffffffffffffffffff8b1660048201526024810185905260448101849052606401610a80565b73ffffffffffffffffffffffffffffffffffffffff8a16600090815260208c90526040902090820190555b50505050505050505050565b6060816001018054610e8890613a9f565b611bb8612be2565b611bd28888888888611bc8610e49565b9493929190612c46565b611bda612cfc565b611be78383610c366112f4565b611bef612d2c565b611bf7612d5a565b611bff612d88565b611c138a8a611c0c61101c565b9190612db6565b611b9381611c1f6116ef565b90612e36565b73ffffffffffffffffffffffffffffffffffffffff8216611c72576040517f92fd9c8f00000000000000000000000000000000000000000000000000000000815260040160405180910390fd5b8015611cf5576002830154818101818111611cc3576040517f0366a5f60000000000000000000000000000000000000000000000000000000081526004810183905260248101849052604401610a80565b60028501555073ffffffffffffffffffffffffffffffffffffffff821660009081526020849052604090208054820190555b60405181815273ffffffffffffffffffffffffffffffffffffffff8316906000907fddf252ad1be2c89b69c2b068fc378daa952ba7f163c4a11628f55a4df523b3ef9060200160405180910390a3505050565b73ffffffffffffffffffffffffffffffffffffffff8216611dad576040517ff7e1ac0f00000000000000000000000000000000000000000000000000000000815273ffffffffffffffffffffffffffffffffffffffff84166004820152602401610a80565b73ffffffffffffffffffffffffffffffffffffffff80841660009081526001860160209081526040808320938616835292905220547fffffffffffffffffffffffffffffffffffffffffffffffffffffffffffffffff8114801590611e1157508115155b156112865781810381811061124c576040517f137ad6ab00000000000000000000000000000000000000000000000000000000815273ffffffffffffffffffffffffffffffffffffffff8087166004830152851660248201526044810183905260648101849052608401610a80565b73ffffffffffffffffffffffffffffffffffffffff8216611ee5576040517f754f425b00000000000000000000000000000000000000000000000000000000815273ffffffffffffffffffffffffffffffffffffffff84166004820152602401610a80565b8015611fe05773ffffffffffffffffffffffffffffffffffffffff8316600090815260208590526040902054818103818110611f73576040517fe450d38c00000000000000000000000000000000000000000000000000000000815273ffffffffffffffffffffffffffffffffffffffff861660048201526024810183905260448101849052606401610a80565b8373ffffffffffffffffffffffffffffffffffffffff168573ffffffffffffffffffffffffffffffffffffffff1614611fdd5773ffffffffffffffffffffffffffffffffffffffff8086166000908152602088905260408082208490559186168152208054840190555b50505b8173ffffffffffffffffffffffffffffffffffffffff168373ffffffffffffffffffffffffffffffffffffffff167fddf252ad1be2c89b69c2b068fc378daa952ba7f163c4a11628f55a4df523b3ef8360405161100e91815260200190565b61204c878787878761104a565b73ffffffffffffffffffffffffffffffffffffffff84163b15610bc357610bc38686868686868080601f016020809104026020016040519081016040528093929190818152602001838380828437600092019190915250612e6e92505050565b8151815181146120e8576040517f6582533600000000000000000000000000000000000000000000000000000000815260040160405180910390fd5b806000036120f65750505050565b6000805b8281101561226e57600085828151811061211657612116613a14565b60200260200101519050600073ffffffffffffffffffffffffffffffffffffffff168173ffffffffffffffffffffffffffffffffffffffff1603612186576040517f92fd9c8f00000000000000000000000000000000000000000000000000000000815260040160405180910390fd5b600085838151811061219a5761219a613a14565b6020026020010151905080600014612216578381018481116121e8576040517f5542ae7c00000000000000000000000000000000000000000000000000000000815260040160405180910390fd5b73ffffffffffffffffffffffffffffffffffffffff8316600090815260208a90526040902080548301905593505b60405181815273ffffffffffffffffffffffffffffffffffffffff8316906000907fddf252ad1be2c89b69c2b068fc378daa952ba7f163c4a11628f55a4df523b3ef9060200160405180910390a350506001016120fa565b5080156110955760028501548181018181116122c0576040517f0366a5f60000000000000000000000000000000000000000000000000000000081526004810183905260248101849052604401610a80565b6002870155505050505050565b73ffffffffffffffffffffffffffffffffffffffff871661231a576040517fa974697600000000000000000000000000000000000000000000000000000000815260040160405180910390fd5b83421115612357576040517fea2b6f5800000000000000000000000000000000000000000000000000000000815260048101859052602401610a80565b73ffffffffffffffffffffffffffffffffffffffff878116600081815260208b8152604080832080546001810190915581517f6e71edae12b1b97f4d1f60370fef10105fa2faae0126114a169c64845d6126c98185015280830195909552948b166060850152608084018a905260a084019490945260c08084018990528451808503909101815260e090930190935281519190920120906123f66110a7565b6040517f19010000000000000000000000000000000000000000000000000000000000006020820152602281019190915260428101839052606201604080517fffffffffffffffffffffffffffffffffffffffffffffffffffffffffffffffe08184030181528282528051602091820120600080855291840180845281905260ff89169284019290925260608301879052608083018690529092509060019060a0016020604051602081039080840390855afa1580156124ba573d6000803e3d6000fd5b5050506020604051035190508973ffffffffffffffffffffffffffffffffffffffff168173ffffffffffffffffffffffffffffffffffffffff161461252b576040517f822a64c800000000000000000000000000000000000000000000000000000000815260040160405180910390fd5b50505061075e878787610521610f17565b826108f9828483613b69565b61255486868686611e80565b73ffffffffffffffffffffffffffffffffffffffff84163b15610d3957610d398586868686868080601f016020809104026020016040519081016040528093929190818152602001838380828437600092019190915250612e6e92505050565b825473ffffffffffffffffffffffffffffffffffffffff9081169083168114612621576040517f2ef4875e00000000000000000000000000000000000000000000000000000000815273ffffffffffffffffffffffffffffffffffffffff84166004820152602401610a80565b8173ffffffffffffffffffffffffffffffffffffffff168173ffffffffffffffffffffffffffffffffffffffff16146108f95783547fffffffffffffffffffffffff00000000000000000000000000000000000000001673ffffffffffffffffffffffffffffffffffffffff8381169182178655604051908316907f8be0079c531659141344cd1fd0a4f28419497f9722a3daafe3b4186f6b6457e090600090a350505050565b80471015612732576040517f08c379a000000000000000000000000000000000000000000000000000000000815260206004820152601d60248201527f416464726573733a20696e73756666696369656e742062616c616e63650000006044820152606401610a80565b60008273ffffffffffffffffffffffffffffffffffffffff168260405160006040518083038185875af1925050503d806000811461278c576040519150601f19603f3d011682016040523d82523d6000602084013e612791565b606091505b5050905080611815576040517f08c379a000000000000000000000000000000000000000000000000000000000815260206004820152603a60248201527f416464726573733a20756e61626c6520746f2073656e642076616c75652c207260448201527f6563697069656e74206d617920686176652072657665727465640000000000006064820152608401610a80565b6000333214806128325750601836105b1561283c57503390565b7fffffffffffffffffffffffffffffffffffffffffffffffffffffffffffffffec36013560601c7f000000000000000000000000000000000000000000000000000000000000000073ffffffffffffffffffffffffffffffffffffffff1633148061295857506040517f8929a8ca00000000000000000000000000000000000000000000000000000000815273ffffffffffffffffffffffffffffffffffffffff82811660048301523360248301527f00000000000000000000000000000000000000000000000000000000000000001690638929a8ca90604401602060405180830381865afa158015612934573d6000803e3d6000fd5b505050506040513d601f19601f820116820180604052508101906129589190613a43565b1561296257919050565b3391505090565b3660003332148061297a5750601836105b156129885750600091369150565b3373ffffffffffffffffffffffffffffffffffffffff7f0000000000000000000000000000000000000000000000000000000000000000161480612abd575073ffffffffffffffffffffffffffffffffffffffff7f000000000000000000000000000000000000000000000000000000000000000016638929a8ca367fffffffffffffffffffffffffffffffffffffffffffffffffffffffffffffffec013560601c6040517fffffffff0000000000000000000000000000000000000000000000000000000060e084901b16815273ffffffffffffffffffffffffffffffffffffffff9091166004820152336024820152604401602060405180830381865afa158015612a99573d6000803e3d6000fd5b505050506040513d601f19601f82011682018060405250810190612abd9190613a43565b15612aca576105bd612f7c565b50600091369150565b6000612b35826040518060400160405280602081526020017f5361666545524332303a206c6f772d6c6576656c2063616c6c206661696c65648152508573ffffffffffffffffffffffffffffffffffffffff16612fad9092919063ffffffff16565b9050805160001480612b56575080806020019051810190612b569190613a43565b611815576040517f08c379a000000000000000000000000000000000000000000000000000000000815260206004820152602a60248201527f5361666545524332303a204552433230206f7065726174696f6e20646964206e60448201527f6f742073756363656564000000000000000000000000000000000000000000006064820152608401610a80565b6000612bec610d41565b9050612c1a817f36372b07000000000000000000000000000000000000000000000000000000006001612fbc565b610c7f817f9d075186000000000000000000000000000000000000000000000000000000006001612fbc565b612c7b612c7460017fd217496980d1cb14720b20a80af36676bbece8e5feeb5d8970a9681a2c76bb75613a65565b6001613098565b85612c87858783613b69565b5060018601612c97838583613b69565b506002860180547fffffffffffffffffffffffffffffffffffffffffffffffffffffffffffffff001660ff8316179055610d397fa219a025000000000000000000000000000000000000000000000000000000006001612cf5610d41565b9190612fbc565b612d2a7f3c130d90000000000000000000000000000000000000000000000000000000006001612cf5610d41565b565b612d2a7f9d8ff7da000000000000000000000000000000000000000000000000000000006001612cf5610d41565b612d2a7fc05327e6000000000000000000000000000000000000000000000000000000006001612cf5610d41565b612d2a7f53f41a97000000000000000000000000000000000000000000000000000000006001612cf5610d41565b612de4612c7460017f207034c18a9defc6f1e4e1ae46a487e86951456577b7bce22778749189164d2a613a65565b82547fffffffffffffffffffffffff000000000000000000000000000000000000000090811673ffffffffffffffffffffffffffffffffffffffff938416178455600190930180549093169116179055565b612e64612c7460017f5b388d90dc1312ba799f321972f13311234fa1163bcabec7cf66101c4876eb84613a65565b610c3d82826130e4565b6040517f4fc35859000000000000000000000000000000000000000000000000000000008082529073ffffffffffffffffffffffffffffffffffffffff851690634fc3585990612ec8908990899088908890600401613c83565b6020604051808303816000875af1158015612ee7573d6000803e3d6000fd5b505050506040513d601f19601f82011682018060405250810190612f0b9190613ccc565b7fffffffff000000000000000000000000000000000000000000000000000000001614611095576040517f6d44973600000000000000000000000000000000000000000000000000000000815273ffffffffffffffffffffffffffffffffffffffff84166004820152602401610a80565b3660006105bd7fffffffffffffffffffffffffffffffffffffffffffffffffffffffffffffffec8301828481613ce9565b606061079d848460008561319a565b7c01000000000000000000000000000000000000000000000000000000007fffffffff00000000000000000000000000000000000000000000000000000000831601613034576040517f72c683bb00000000000000000000000000000000000000000000000000000000815260040160405180910390fd5b7fffffffff00000000000000000000000000000000000000000000000000000000919091166000908152602092909252604090912080547fffffffffffffffffffffffffffffffffffffffffffffffffffffffffffffff0016911515919091179055565b815482908281106130df576040517fbf0c18ec0000000000000000000000000000000000000000000000000000000081526004810182905260248101849052604401610a80565b505550565b73ffffffffffffffffffffffffffffffffffffffff81161561316c5781547fffffffffffffffffffffffff00000000000000000000000000000000000000001673ffffffffffffffffffffffffffffffffffffffff821690811783556040516000907f8be0079c531659141344cd1fd0a4f28419497f9722a3daafe3b4186f6b6457e0908290a35b610c3d7f7f5828d0000000000000000000000000000000000000000000000000000000006001612cf5610d41565b60608247101561322c576040517f08c379a000000000000000000000000000000000000000000000000000000000815260206004820152602660248201527f416464726573733a20696e73756666696369656e742062616c616e636520666f60448201527f722063616c6c00000000000000000000000000000000000000000000000000006064820152608401610a80565b6000808673ffffffffffffffffffffffffffffffffffffffff1685876040516132559190613d13565b60006040518083038185875af1925050503d8060008114613292576040519150601f19603f3d011682016040523d82523d6000602084013e613297565b606091505b50915091506132a8878383876132b3565b979650505050505050565b606083156133495782516000036133425773ffffffffffffffffffffffffffffffffffffffff85163b613342576040517f08c379a000000000000000000000000000000000000000000000000000000000815260206004820152601d60248201527f416464726573733a2063616c6c20746f206e6f6e2d636f6e74726163740000006044820152606401610a80565b508161079d565b61079d838381511561335e5781518083602001fd5b806040517f08c379a0000000000000000000000000000000000000000000000000000000008152600401610a80919061344b565b7fffffffff0000000000000000000000000000000000000000000000000000000081168114610c7f57600080fd5b6000602082840312156133d257600080fd5b8135610c1781613392565b60005b838110156133f85781810151838201526020016133e0565b50506000910152565b600081518084526134198160208601602086016133dd565b601f017fffffffffffffffffffffffffffffffffffffffffffffffffffffffffffffffe0169290920160200192915050565b602081526000610c176020830184613401565b73ffffffffffffffffffffffffffffffffffffffff81168114610c7f57600080fd5b803561348b8161345e565b919050565b600080604083850312156134a357600080fd5b82356134ae8161345e565b946020939093013593505050565b6000806000606084860312156134d157600080fd5b83356134dc8161345e565b925060208401356134ec8161345e565b929592945050506040919091013590565b60208152816020820152818360408301376000818301604090810191909152601f9092017fffffffffffffffffffffffffffffffffffffffffffffffffffffffffffffffe0160101919050565b60008083601f84011261355c57600080fd5b50813567ffffffffffffffff81111561357457600080fd5b6020830191508360208260051b850101111561358f57600080fd5b9250929050565b6000806000806000606086880312156135ae57600080fd5b85356135b98161345e565b9450602086013567ffffffffffffffff808211156135d657600080fd5b6135e289838a0161354a565b909650945060408801359150808211156135fb57600080fd5b506136088882890161354a565b969995985093965092949392505050565b60006020828403121561362b57600080fd5b8135610c178161345e565b6000806000806000806060878903121561364f57600080fd5b863567ffffffffffffffff8082111561366757600080fd5b6136738a838b0161354a565b9098509650602089013591508082111561368c57600080fd5b6136988a838b0161354a565b909650945060408901359150808211156136b157600080fd5b506136be89828a0161354a565b979a9699509497509295939492505050565b600080600080604085870312156136e657600080fd5b843567ffffffffffffffff808211156136fe57600080fd5b61370a8883890161354a565b9096509450602087013591508082111561372357600080fd5b506137308782880161354a565b95989497509550505050565b60008083601f84011261374e57600080fd5b50813567ffffffffffffffff81111561376657600080fd5b60208301915083602082850101111561358f57600080fd5b803560ff8116811461348b57600080fd5b60008060008060008060008060008060006101008c8e0312156137b157600080fd5b6137ba8c613480565b9a506137c860208d01613480565b995060408c0135985067ffffffffffffffff8060608e013511156137eb57600080fd5b6137fb8e60608f01358f0161373c565b909950975060808d013581101561381157600080fd5b6138218e60808f01358f0161373c565b909750955061383260a08e0161377e565b94508060c08e0135111561384557600080fd5b506138568d60c08e01358e0161373c565b909350915061386760e08d01613480565b90509295989b509295989b9093969950565b60008060008060006080868803121561389157600080fd5b853561389c8161345e565b945060208601356138ac8161345e565b935060408601359250606086013567ffffffffffffffff8111156138cf57600080fd5b6136088882890161373c565b600080600080600080600060e0888a0312156138f657600080fd5b87356139018161345e565b965060208801356139118161345e565b9550604088013594506060880135935061392d6080890161377e565b925060a0880135915060c0880135905092959891949750929550565b6000806040838503121561395c57600080fd5b82356139678161345e565b915060208301356139778161345e565b809150509250929050565b6000806020838503121561399557600080fd5b823567ffffffffffffffff8111156139ac57600080fd5b6139b88582860161373c565b90969095509350505050565b600080600080606085870312156139da57600080fd5b84356139e58161345e565b935060208501359250604085013567ffffffffffffffff811115613a0857600080fd5b6137308782880161373c565b7f4e487b7100000000000000000000000000000000000000000000000000000000600052603260045260246000fd5b600060208284031215613a5557600080fd5b81518015158114610c1757600080fd5b818103818111156104ed577f4e487b7100000000000000000000000000000000000000000000000000000000600052601160045260246000fd5b600181811c90821680613ab357607f821691505b602082108103613aec577f4e487b7100000000000000000000000000000000000000000000000000000000600052602260045260246000fd5b50919050565b7f4e487b7100000000000000000000000000000000000000000000000000000000600052604160045260246000fd5b601f821115611815576000816000526020600020601f850160051c81016020861015613b4a5750805b601f850160051c820191505b81811015610d3957828155600101613b56565b67ffffffffffffffff831115613b8157613b81613af2565b613b9583613b8f8354613a9f565b83613b21565b6000601f841160018114613be75760008515613bb15750838201355b7fffffffffffffffffffffffffffffffffffffffffffffffffffffffffffffffff600387901b1c1916600186901b178355611095565b6000838152602090207fffffffffffffffffffffffffffffffffffffffffffffffffffffffffffffffe0861690835b82811015613c365786850135825560209485019460019092019101613c16565b5086821015613c71577fffffffffffffffffffffffffffffffffffffffffffffffffffffffffffffffff60f88860031b161c19848701351681555b505060018560011b0183555050505050565b600073ffffffffffffffffffffffffffffffffffffffff808716835280861660208401525083604083015260806060830152613cc26080830184613401565b9695505050505050565b600060208284031215613cde57600080fd5b8151610c1781613392565b60008085851115613cf957600080fd5b83861115613d0657600080fd5b5050820193919092039150565b60008251613d258184602087016133dd565b919091019291505056fea26469706673582212209d825b63e2f54eb57ae824945c261bfbb3551f1b29844bc8daec82a3a8251f7364736f6c63430008160033",
  "linkReferences": {},
  "deployedLinkReferences": {}
}