{
  "_format": "hh-sol-artifact-1",
  "contractName": "FxERC20FixedSupplyMock",
  "sourceName": "contracts/mocks/fx-portal/token/ERC20/FxERC20FixedSupplyMock.sol",
  "abi": [
    {
      "inputs": [
        {
          "internalType": "address[]",
          "name": "holders",
          "type": "address[]"
        },
        {
          "internalType": "uint256[]",
          "name": "allocations",
          "type": "uint256[]"
        },
        {
          "internalType": "contract IForwarderRegistry",
          "name": "forwarderRegistry",
          "type": "address"
        }
      ],
      "stateMutability": "nonpayable",
      "type": "constructor"
    },
    {
      "inputs": [
        {
          "internalType": "address",
          "name": "owner",
          "type": "address"
        },
        {
          "internalType": "address",
          "name": "spender",
          "type": "address"
        },
        {
          "internalType": "uint256",
          "name": "allowance",
          "type": "uint256"
        },
        {
          "internalType": "uint256",
          "name": "increment",
          "type": "uint256"
        }
      ],
      "name": "ERC20AllowanceOverflow",
      "type": "error"
    },
    {
      "inputs": [
        {
          "internalType": "address",
          "name": "owner",
          "type": "address"
        }
      ],
      "name": "ERC20ApprovalToAddressZero",
      "type": "error"
    },
    {
      "inputs": [],
      "name": "ERC20BatchMintValuesOverflow",
      "type": "error"
    },
    {
      "inputs": [],
      "name": "ERC20BatchTransferValuesOverflow",
      "type": "error"
    },
    {
      "inputs": [
        {
          "internalType": "address",
          "name": "owner",
          "type": "address"
        },
        {
          "internalType": "address",
          "name": "spender",
          "type": "address"
        },
        {
          "internalType": "uint256",
          "name": "allowance",
          "type": "uint256"
        },
        {
          "internalType": "uint256",
          "name": "decrement",
          "type": "uint256"
        }
      ],
      "name": "ERC20InsufficientAllowance",
      "type": "error"
    },
    {
      "inputs": [
        {
          "internalType": "address",
          "name": "owner",
          "type": "address"
        },
        {
          "internalType": "uint256",
          "name": "balance",
          "type": "uint256"
        },
        {
          "internalType": "uint256",
          "name": "value",
          "type": "uint256"
        }
      ],
      "name": "ERC20InsufficientBalance",
      "type": "error"
    },
    {
      "inputs": [],
      "name": "ERC20MintToAddressZero",
      "type": "error"
    },
    {
      "inputs": [
        {
          "internalType": "uint256",
          "name": "deadline",
          "type": "uint256"
        }
      ],
      "name": "ERC20PermitExpired",
      "type": "error"
    },
    {
      "inputs": [],
      "name": "ERC20PermitFromAddressZero",
      "type": "error"
    },
    {
      "inputs": [],
      "name": "ERC20PermitInvalidSignature",
      "type": "error"
    },
    {
      "inputs": [
        {
          "internalType": "address",
          "name": "recipient",
          "type": "address"
        }
      ],
      "name": "ERC20SafeTransferRejected",
      "type": "error"
    },
    {
      "inputs": [
        {
          "internalType": "uint256",
          "name": "supply",
          "type": "uint256"
        },
        {
          "internalType": "uint256",
          "name": "value",
          "type": "uint256"
        }
      ],
      "name": "ERC20TotalSupplyOverflow",
      "type": "error"
    },
    {
      "inputs": [
        {
          "internalType": "address",
          "name": "owner",
          "type": "address"
        }
      ],
      "name": "ERC20TransferToAddressZero",
      "type": "error"
    },
    {
      "inputs": [],
      "name": "FailedCall",
      "type": "error"
    },
    {
      "inputs": [],
      "name": "IllegalInterfaceId",
      "type": "error"
    },
    {
      "inputs": [],
      "name": "InconsistentArrayLengths",
      "type": "error"
    },
    {
      "inputs": [
        {
          "internalType": "address",
          "name": "tokenContract",
          "type": "address"
        }
      ],
      "name": "IncorrectTokenContractType",
      "type": "error"
    },
    {
      "inputs": [
        {
          "internalType": "uint256",
          "name": "currentPhase",
          "type": "uint256"
        },
        {
          "internalType": "uint256",
          "name": "newPhase",
          "type": "uint256"
        }
      ],
      "name": "InitializationPhaseAlreadyReached",
      "type": "error"
    },
    {
      "inputs": [
        {
          "internalType": "uint256",
          "name": "balance",
          "type": "uint256"
        },
        {
          "internalType": "uint256",
          "name": "needed",
          "type": "uint256"
        }
      ],
      "name": "InsufficientBalance",
      "type": "error"
    },
    {
      "inputs": [
        {
          "internalType": "address",
          "name": "account",
          "type": "address"
        }
      ],
      "name": "NotContractOwner",
      "type": "error"
    },
    {
      "inputs": [
        {
          "internalType": "address",
          "name": "token",
          "type": "address"
        }
      ],
      "name": "SafeERC20FailedOperation",
      "type": "error"
    },
    {
      "anonymous": false,
      "inputs": [
        {
          "indexed": true,
          "internalType": "address",
          "name": "owner",
          "type": "address"
        },
        {
          "indexed": true,
          "internalType": "address",
          "name": "spender",
          "type": "address"
        },
        {
          "indexed": false,
          "internalType": "uint256",
          "name": "value",
          "type": "uint256"
        }
      ],
      "name": "Approval",
      "type": "event"
    },
    {
      "anonymous": false,
      "inputs": [
        {
          "indexed": true,
          "internalType": "address",
          "name": "previousOwner",
          "type": "address"
        },
        {
          "indexed": true,
          "internalType": "address",
          "name": "newOwner",
          "type": "address"
        }
      ],
      "name": "OwnershipTransferred",
      "type": "event"
    },
    {
      "anonymous": false,
      "inputs": [
        {
          "indexed": true,
          "internalType": "address",
          "name": "from",
          "type": "address"
        },
        {
          "indexed": true,
          "internalType": "address",
          "name": "to",
          "type": "address"
        },
        {
          "indexed": false,
          "internalType": "uint256",
          "name": "value",
          "type": "uint256"
        }
      ],
      "name": "Transfer",
      "type": "event"
    },
    {
      "inputs": [],
      "name": "DOMAIN_SEPARATOR",
      "outputs": [
        {
          "internalType": "bytes32",
          "name": "",
          "type": "bytes32"
        }
      ],
      "stateMutability": "view",
      "type": "function"
    },
    {
      "inputs": [],
      "name": "__msgData",
      "outputs": [
        {
          "internalType": "bytes",
          "name": "",
          "type": "bytes"
        }
      ],
      "stateMutability": "view",
      "type": "function"
    },
    {
      "inputs": [
        {
          "internalType": "address",
          "name": "owner",
          "type": "address"
        },
        {
          "internalType": "address",
          "name": "spender",
          "type": "address"
        }
      ],
      "name": "allowance",
      "outputs": [
        {
          "internalType": "uint256",
          "name": "value",
          "type": "uint256"
        }
      ],
      "stateMutability": "view",
      "type": "function"
    },
    {
      "inputs": [
        {
          "internalType": "address",
          "name": "spender",
          "type": "address"
        },
        {
          "internalType": "uint256",
          "name": "value",
          "type": "uint256"
        }
      ],
      "name": "approve",
      "outputs": [
        {
          "internalType": "bool",
          "name": "result",
          "type": "bool"
        }
      ],
      "stateMutability": "nonpayable",
      "type": "function"
    },
    {
      "inputs": [
        {
          "internalType": "address",
          "name": "owner",
          "type": "address"
        }
      ],
      "name": "balanceOf",
      "outputs": [
        {
          "internalType": "uint256",
          "name": "balance",
          "type": "uint256"
        }
      ],
      "stateMutability": "view",
      "type": "function"
    },
    {
      "inputs": [
        {
          "internalType": "address[]",
          "name": "recipients",
          "type": "address[]"
        },
        {
          "internalType": "uint256[]",
          "name": "values",
          "type": "uint256[]"
        }
      ],
      "name": "batchTransfer",
      "outputs": [
        {
          "internalType": "bool",
          "name": "",
          "type": "bool"
        }
      ],
      "stateMutability": "nonpayable",
      "type": "function"
    },
    {
      "inputs": [
        {
          "internalType": "address",
          "name": "from",
          "type": "address"
        },
        {
          "internalType": "address[]",
          "name": "recipients",
          "type": "address[]"
        },
        {
          "internalType": "uint256[]",
          "name": "values",
          "type": "uint256[]"
        }
      ],
      "name": "batchTransferFrom",
      "outputs": [
        {
          "internalType": "bool",
          "name": "",
          "type": "bool"
        }
      ],
      "stateMutability": "nonpayable",
      "type": "function"
    },
    {
      "inputs": [],
      "name": "connectedToken",
      "outputs": [
        {
          "internalType": "address",
          "name": "",
          "type": "address"
        }
      ],
      "stateMutability": "view",
      "type": "function"
    },
    {
      "inputs": [],
      "name": "decimals",
      "outputs": [
        {
          "internalType": "uint8",
          "name": "",
          "type": "uint8"
        }
      ],
      "stateMutability": "view",
      "type": "function"
    },
    {
      "inputs": [
        {
          "internalType": "address",
          "name": "spender",
          "type": "address"
        },
        {
          "internalType": "uint256",
          "name": "subtractedValue",
          "type": "uint256"
        }
      ],
      "name": "decreaseAllowance",
      "outputs": [
        {
          "internalType": "bool",
          "name": "result",
          "type": "bool"
        }
      ],
      "stateMutability": "nonpayable",
      "type": "function"
    },
    {
      "inputs": [],
      "name": "forwarderRegistry",
      "outputs": [
        {
          "internalType": "contract IForwarderRegistry",
          "name": "",
          "type": "address"
        }
      ],
      "stateMutability": "view",
      "type": "function"
    },
    {
      "inputs": [],
      "name": "fxManager",
      "outputs": [
        {
          "internalType": "address",
          "name": "",
          "type": "address"
        }
      ],
      "stateMutability": "view",
      "type": "function"
    },
    {
      "inputs": [
        {
          "internalType": "address",
          "name": "spender",
          "type": "address"
        },
        {
          "internalType": "uint256",
          "name": "addedValue",
          "type": "uint256"
        }
      ],
      "name": "increaseAllowance",
      "outputs": [
        {
          "internalType": "bool",
          "name": "result",
          "type": "bool"
        }
      ],
      "stateMutability": "nonpayable",
      "type": "function"
    },
    {
      "inputs": [
        {
          "internalType": "address",
          "name": "fxManager_",
          "type": "address"
        },
        {
          "internalType": "address",
          "name": "connectedToken_",
          "type": "address"
        },
        {
          "internalType": "uint256",
          "name": "totalSupply",
          "type": "uint256"
        },
        {
          "internalType": "string",
          "name": "tokenName",
          "type": "string"
        },
        {
          "internalType": "string",
          "name": "tokenSymbol",
          "type": "string"
        },
        {
          "internalType": "uint8",
          "name": "tokenDecimals",
          "type": "uint8"
        },
        {
          "internalType": "string",
          "name": "uri",
          "type": "string"
        },
        {
          "internalType": "address",
          "name": "initialOwner",
          "type": "address"
        }
      ],
      "name": "initialize",
      "outputs": [],
      "stateMutability": "nonpayable",
      "type": "function"
    },
    {
      "inputs": [
        {
          "internalType": "address",
          "name": "forwarder",
          "type": "address"
        }
      ],
      "name": "isTrustedForwarder",
      "outputs": [
        {
          "internalType": "bool",
          "name": "",
          "type": "bool"
        }
      ],
      "stateMutability": "view",
      "type": "function"
    },
    {
      "inputs": [],
      "name": "name",
      "outputs": [
        {
          "internalType": "string",
          "name": "",
          "type": "string"
        }
      ],
      "stateMutability": "view",
      "type": "function"
    },
    {
      "inputs": [
        {
          "internalType": "address",
          "name": "owner",
          "type": "address"
        }
      ],
      "name": "nonces",
      "outputs": [
        {
          "internalType": "uint256",
          "name": "",
          "type": "uint256"
        }
      ],
      "stateMutability": "view",
      "type": "function"
    },
    {
      "inputs": [],
      "name": "owner",
      "outputs": [
        {
          "internalType": "address",
          "name": "",
          "type": "address"
        }
      ],
      "stateMutability": "view",
      "type": "function"
    },
    {
      "inputs": [
        {
          "internalType": "address",
          "name": "owner",
          "type": "address"
        },
        {
          "internalType": "address",
          "name": "spender",
          "type": "address"
        },
        {
          "internalType": "uint256",
          "name": "value",
          "type": "uint256"
        },
        {
          "internalType": "uint256",
          "name": "deadline",
          "type": "uint256"
        },
        {
          "internalType": "uint8",
          "name": "v",
          "type": "uint8"
        },
        {
          "internalType": "bytes32",
          "name": "r",
          "type": "bytes32"
        },
        {
          "internalType": "bytes32",
          "name": "s",
          "type": "bytes32"
        }
      ],
      "name": "permit",
      "outputs": [],
      "stateMutability": "nonpayable",
      "type": "function"
    },
    {
      "inputs": [
        {
          "internalType": "address[]",
          "name": "accounts",
          "type": "address[]"
        },
        {
          "internalType": "contract IERC20[]",
          "name": "tokens",
          "type": "address[]"
        },
        {
          "internalType": "uint256[]",
          "name": "amounts",
          "type": "uint256[]"
        }
      ],
      "name": "recoverERC20s",
      "outputs": [],
      "stateMutability": "nonpayable",
      "type": "function"
    },
    {
      "inputs": [
        {
          "internalType": "address[]",
          "name": "accounts",
          "type": "address[]"
        },
        {
          "internalType": "contract IERC721[]",
          "name": "contracts",
          "type": "address[]"
        },
        {
          "internalType": "uint256[]",
          "name": "tokenIds",
          "type": "uint256[]"
        }
      ],
      "name": "recoverERC721s",
      "outputs": [],
      "stateMutability": "nonpayable",
      "type": "function"
    },
    {
      "inputs": [
        {
          "internalType": "address payable[]",
          "name": "accounts",
          "type": "address[]"
        },
        {
          "internalType": "uint256[]",
          "name": "amounts",
          "type": "uint256[]"
        }
      ],
      "name": "recoverETH",
      "outputs": [],
      "stateMutability": "nonpayable",
      "type": "function"
    },
    {
      "inputs": [
        {
          "internalType": "address",
          "name": "to",
          "type": "address"
        },
        {
          "internalType": "uint256",
          "name": "value",
          "type": "uint256"
        },
        {
          "internalType": "bytes",
          "name": "data",
          "type": "bytes"
        }
      ],
      "name": "safeTransfer",
      "outputs": [
        {
          "internalType": "bool",
          "name": "",
          "type": "bool"
        }
      ],
      "stateMutability": "nonpayable",
      "type": "function"
    },
    {
      "inputs": [
        {
          "internalType": "address",
          "name": "from",
          "type": "address"
        },
        {
          "internalType": "address",
          "name": "to",
          "type": "address"
        },
        {
          "internalType": "uint256",
          "name": "value",
          "type": "uint256"
        },
        {
          "internalType": "bytes",
          "name": "data",
          "type": "bytes"
        }
      ],
      "name": "safeTransferFrom",
      "outputs": [
        {
          "internalType": "bool",
          "name": "",
          "type": "bool"
        }
      ],
      "stateMutability": "nonpayable",
      "type": "function"
    },
    {
      "inputs": [
        {
          "internalType": "string",
          "name": "uri",
          "type": "string"
        }
      ],
      "name": "setTokenURI",
      "outputs": [],
      "stateMutability": "nonpayable",
      "type": "function"
    },
    {
      "inputs": [
        {
          "internalType": "bytes4",
          "name": "interfaceId",
          "type": "bytes4"
        }
      ],
      "name": "supportsInterface",
      "outputs": [
        {
          "internalType": "bool",
          "name": "",
          "type": "bool"
        }
      ],
      "stateMutability": "view",
      "type": "function"
    },
    {
      "inputs": [],
      "name": "symbol",
      "outputs": [
        {
          "internalType": "string",
          "name": "",
          "type": "string"
        }
      ],
      "stateMutability": "view",
      "type": "function"
    },
    {
      "inputs": [],
      "name": "tokenURI",
      "outputs": [
        {
          "internalType": "string",
          "name": "",
          "type": "string"
        }
      ],
      "stateMutability": "view",
      "type": "function"
    },
    {
      "inputs": [],
      "name": "totalSupply",
      "outputs": [
        {
          "internalType": "uint256",
          "name": "supply",
          "type": "uint256"
        }
      ],
      "stateMutability": "view",
      "type": "function"
    },
    {
      "inputs": [
        {
          "internalType": "address",
          "name": "to",
          "type": "address"
        },
        {
          "internalType": "uint256",
          "name": "value",
          "type": "uint256"
        }
      ],
      "name": "transfer",
      "outputs": [
        {
          "internalType": "bool",
          "name": "result",
          "type": "bool"
        }
      ],
      "stateMutability": "nonpayable",
      "type": "function"
    },
    {
      "inputs": [
        {
          "internalType": "address",
          "name": "from",
          "type": "address"
        },
        {
          "internalType": "address",
          "name": "to",
          "type": "address"
        },
        {
          "internalType": "uint256",
          "name": "value",
          "type": "uint256"
        }
      ],
      "name": "transferFrom",
      "outputs": [
        {
          "internalType": "bool",
          "name": "result",
          "type": "bool"
        }
      ],
      "stateMutability": "nonpayable",
      "type": "function"
    },
    {
      "inputs": [
        {
          "internalType": "address",
          "name": "newOwner",
          "type": "address"
        }
      ],
      "name": "transferOwnership",
      "outputs": [],
      "stateMutability": "nonpayable",
      "type": "function"
    }
  ],
  "bytecode": "0x60a060405234801561001057600080fd5b50604051613c71380380613c7183398101604081905261002f91610318565b6001600160a01b0381166080526100508383610049610058565b919061008c565b50505061042a565b60008061008660017f1da92899d3da68bf9787824388a37ea2bfa79780bcef91b9716c390eec8ecbef6103f3565b92915050565b8151815181146100af576040516332c1299b60e11b815260040160405180910390fd5b806000036100bd5750505050565b6000805b828110156101cf5760008582815181106100dd576100dd610414565b6020026020010151905060006001600160a01b0316816001600160a01b03160361011a576040516392fd9c8f60e01b815260040160405180910390fd5b600085838151811061012e5761012e610414565b60200260200101519050806000146101845783810184811161016357604051631550ab9f60e21b815260040160405180910390fd5b6001600160a01b038316600090815260208a90526040902080548301905593505b6040518181526001600160a01b038316906000907fddf252ad1be2c89b69c2b068fc378daa952ba7f163c4a11628f55a4df523b3ef9060200160405180910390a350506001016100c1565b50801561021357600285015481810181811161020c576040516301b352fb60e11b8152600481018390526024810184905260440160405180910390fd5b6002870155505b5050505050565b634e487b7160e01b600052604160045260246000fd5b604051601f8201601f191681016001600160401b03811182821017156102585761025861021a565b604052919050565b60006001600160401b038211156102795761027961021a565b5060051b60200190565b6001600160a01b038116811461029857600080fd5b50565b600082601f8301126102ac57600080fd5b81516102bf6102ba82610260565b610230565b8082825260208201915060208360051b8601019250858311156102e157600080fd5b602085015b838110156102fe5780518352602092830192016102e6565b5095945050505050565b805161031381610283565b919050565b60008060006060848603121561032d57600080fd5b83516001600160401b0381111561034357600080fd5b8401601f8101861361035457600080fd5b80516103626102ba82610260565b8082825260208201915060208360051b85010192508883111561038457600080fd5b6020840193505b828410156103af57835161039e81610283565b82526020938401939091019061038b565b6020880151909650925050506001600160401b038111156103cf57600080fd5b6103db8682870161029b565b9250506103ea60408501610308565b90509250925092565b8181038181111561008657634e487b7160e01b600052601160045260246000fd5b634e487b7160e01b600052603260045260246000fd5b6080516138096104686000396000818161029d01528181610337015281816123d9015281816124670152818161251a015261255801526138096000f3fe608060405234801561001057600080fd5b50600436106101f05760003560e01c80637ecebe001161010f578063b88d4fde116100a2578063e0df5b6f11610071578063e0df5b6f1461045f578063eb79554914610472578063f2fde38b14610485578063f7ba94bd1461049857600080fd5b8063b88d4fde14610413578063c3666c3614610426578063d505accf14610439578063dd62ed3e1461044c57600080fd5b80639b779153116100de5780639b779153146103d25780639d11b050146103da578063a457c2d7146103ed578063a9059cbb1461040057600080fd5b80637ecebe001461039c57806388d695b2146103af5780638da5cb5b146103c257806395d89b41146103ca57600080fd5b806331e66e1e116101875780634885b254116101565780634885b25414610314578063572b6c051461032757806370a082311461037457806373c8a9581461038757600080fd5b806331e66e1e146102db5780633644e515146102f157806339509351146102f95780633c130d901461030c57600080fd5b806318160ddd116101c357806318160ddd1461027257806323b872dd146102885780632b4c9f161461029b578063313ce567146102c157600080fd5b806301ffc9a7146101f557806306fdde031461021d578063095ea7b3146102325780630a8a491414610245575b600080fd5b610208610203366004612e58565b6104ab565b60405190151581526020015b60405180910390f35b6102256104c5565b6040516102149190612ed9565b610208610240366004612f1e565b6104dc565b61024d610504565b60405173ffffffffffffffffffffffffffffffffffffffff9091168152602001610214565b61027a61052e565b604051908152602001610214565b610208610296366004612f4a565b610542565b7f000000000000000000000000000000000000000000000000000000000000000061024d565b6102c961056d565b60405160ff9091168152602001610214565b6102e3610584565b604051610214929190612f8b565b61027a610597565b610208610307366004612f1e565b6105a1565b6102256105c0565b610208610322366004613024565b6105cd565b6102086103353660046130ac565b7f000000000000000000000000000000000000000000000000000000000000000073ffffffffffffffffffffffffffffffffffffffff90811691161490565b61027a6103823660046130ac565b6105fe565b61039a6103953660046130c9565b610636565b005b61027a6103aa3660046130ac565b610665565b6102086103bd36600461316f565b610673565b61024d6106a1565b6102256106c8565b61024d6106da565b61039a6103e8366004613233565b6106e7565b6102086103fb366004612f1e565b61071a565b61020861040e366004612f1e565b610739565b610208610421366004613327565b610758565b61039a6104343660046130c9565b61077d565b61039a610447366004613389565b610796565b61027a61045a3660046133f8565b6107bd565b61039a61046d366004613431565b61080f565b610208610480366004613473565b610832565b61039a6104933660046130ac565b610855565b61039a6104a636600461316f565b610873565b60006104bf826104b9610890565b906108be565b92915050565b60606104d76104d2610998565b6109c6565b905090565b60006104fb6104e9610a5c565b84846104f3610a66565b929190610a94565b50600192915050565b60006104d7610511610b70565b6001015473ffffffffffffffffffffffffffffffffffffffff1690565b60006104d761053b610a66565b6002015490565b600061056361054f610a5c565b85858561055a610a66565b93929190610b9e565b5060019392505050565b60006104d761057a610998565b6002015460ff1690565b36600061058f610bf0565b915091509091565b60006104d7610bfb565b60006104fb6105ae610a5c565b84846105b8610a66565b929190610c96565b60606104d76104d2610e48565b60006105f26105da610a5c565b87878787876105e7610a66565b959493929190610e76565b50600195945050505050565b60006104bf8261060c610a66565b9073ffffffffffffffffffffffffffffffffffffffff166000908152602091909152604090205490565b61064f610641610a5c565b610649611243565b90611271565b61065d8686868686866112dc565b505050505050565b60006104bf8261060c6113c7565b6000610696610680610a5c565b8686868661068c610a66565b94939291906113f5565b506001949350505050565b60006104d76106ae611243565b5473ffffffffffffffffffffffffffffffffffffffff1690565b60606104d76106d5610998565b61174c565b60006104d76106ae610b70565b6106f98b8b8a8a8a8a8a8a8a8a61175d565b61070d8b8a610706610a66565b91906117d2565b5050505050505050505050565b60006104fb610727610a5c565b8484610731610a66565b9291906118f5565b60006104fb610746610a5c565b8484610750610a66565b929190611a2d565b60006105f2610765610a5c565b8787878787610772610a66565b959493929190611bec565b610788610641610a5c565b61065d868686868686611c59565b6107b4878787878787876107a86113c7565b96959493929190611eef565b50505050505050565b600061080883836107cc610a66565b919073ffffffffffffffffffffffffffffffffffffffff9182166000908152600193909301602090815260408085209290931684525290205490565b9392505050565b61081a610641610a5c565b61082e8282610827610e48565b919061215e565b5050565b600061069661083f610a5c565b8686868661084b610a66565b949392919061216a565b610870610860610a5c565b82610869611243565b91906121d6565b50565b61087e610641610a5c565b61088a848484846122ea565b50505050565b6000806104bf60017fca9d3e17f264b0f3984e2634e94adb37fa3e6a8103f06aeae6fa59e21c769f5e6134c3565b60007c01000000000000000000000000000000000000000000000000000000007fffffffff0000000000000000000000000000000000000000000000000000000083160161090e575060006104bf565b7ffe003659000000000000000000000000000000000000000000000000000000007fffffffff0000000000000000000000000000000000000000000000000000000083160161095f575060016104bf565b507fffffffff00000000000000000000000000000000000000000000000000000000166000908152602091909152604090205460ff1690565b6000806104bf60017f335df4119bbb04f056b33eba33b826d3529129e458faf6daa9924b5a8f3b6a826134c3565b60608160000180546109d7906134fd565b80601f0160208091040260200160405190810160405280929190818152602001828054610a03906134fd565b8015610a505780601f10610a2557610100808354040283529160200191610a50565b820191906000526020600020905b815481529060010190602001808311610a3357829003601f168201915b50505050509050919050565b60006104d7612396565b6000806104bf60017f1da92899d3da68bf9787824388a37ea2bfa79780bcef91b9716c390eec8ecbef6134c3565b73ffffffffffffffffffffffffffffffffffffffff8216610afe576040517ff7e1ac0f00000000000000000000000000000000000000000000000000000000815273ffffffffffffffffffffffffffffffffffffffff841660048201526024015b60405180910390fd5b73ffffffffffffffffffffffffffffffffffffffff838116600081815260018701602090815260408083209487168084529482529182902085905590518481527f8c5be1e5ebec7d5bd14f71427d1e84f3dd0314c0f7b2291e5b200ac8c7c3b92591015b60405180910390a350505050565b6000806104bf60017ffbf67eff80ed72d4d972e624738c2b5704d828cc6926cf8653e1018c8eef81c06134c3565b8373ffffffffffffffffffffffffffffffffffffffff168373ffffffffffffffffffffffffffffffffffffffff1614610bdd57610bdd858486846118f5565b610be985848484611a2d565b5050505050565b36600061058f6124e3565b6000467f8b73c3c69bb8fe3d512ecc4cf759cc79239f7b179b0ffacaa9a75d522b39400f610c2a6104d2610998565b80516020918201206040805192830193909352918101919091527fc89efdaa54c0f20c7adf612882df0950f5a951637e0307cdcb4c672f298b8bc66060820152608081018290523060a082015260c0016040516020818303038152906040528051906020012091505090565b73ffffffffffffffffffffffffffffffffffffffff8216610cfb576040517ff7e1ac0f00000000000000000000000000000000000000000000000000000000815273ffffffffffffffffffffffffffffffffffffffff84166004820152602401610af5565b73ffffffffffffffffffffffffffffffffffffffff80841660009081526001860160209081526040808320938616835292905220548115610dda57808201818111610da0576040517f93bc2ff100000000000000000000000000000000000000000000000000000000815273ffffffffffffffffffffffffffffffffffffffff8087166004830152851660248201526044810183905260648101849052608401610af5565b73ffffffffffffffffffffffffffffffffffffffff8086166000908152600188016020908152604080832093881683529290522081905590505b8273ffffffffffffffffffffffffffffffffffffffff168473ffffffffffffffffffffffffffffffffffffffff167f8c5be1e5ebec7d5bd14f71427d1e84f3dd0314c0f7b2291e5b200ac8c7c3b92583604051610e3991815260200190565b60405180910390a35050505050565b6000806104bf60017ff41bf6a5db26bffdfab174dcf66b31fbba8fdb7e3db040721ce1e62d61839ceb6134c3565b82818114610eb0576040517f6582533600000000000000000000000000000000000000000000000000000000815260040160405180910390fd5b80600003610ebe57506107b4565b73ffffffffffffffffffffffffffffffffffffffff86166000908152602089905260408120549080805b84811015611203576000898983818110610f0457610f04613550565b9050602002016020810190610f1991906130ac565b905073ffffffffffffffffffffffffffffffffffffffff8116610f80576040517f754f425b00000000000000000000000000000000000000000000000000000000815273ffffffffffffffffffffffffffffffffffffffff8c166004820152602401610af5565b6000888884818110610f9457610f94613550565b905060200201359050806000146110d257848101858111610fe1576040517fdedd834100000000000000000000000000000000000000000000000000000000815260040160405180910390fd5b8095508273ffffffffffffffffffffffffffffffffffffffff168d73ffffffffffffffffffffffffffffffffffffffff161461106b57818f60000160008573ffffffffffffffffffffffffffffffffffffffff1673ffffffffffffffffffffffffffffffffffffffff168152602001908152602001600020600082825401925050819055506110d0565b868211156110cb576040517fe450d38c00000000000000000000000000000000000000000000000000000000815273ffffffffffffffffffffffffffffffffffffffff8e1660048201526024810188905260448101839052606401610af5565b938101935b505b8173ffffffffffffffffffffffffffffffffffffffff168c73ffffffffffffffffffffffffffffffffffffffff167fddf252ad1be2c89b69c2b068fc378daa952ba7f163c4a11628f55a4df523b3ef8360405161113191815260200190565b60405180910390a384158015906111485750838514155b156111f9578486038681106111af576040517fe450d38c00000000000000000000000000000000000000000000000000000000815273ffffffffffffffffffffffffffffffffffffffff8e1660048201526024810188905260448101879052606401610af5565b8481018f60000160008f73ffffffffffffffffffffffffffffffffffffffff1673ffffffffffffffffffffffffffffffffffffffff16815260200190815260200160002081905550505b5050600101610ee8565b508973ffffffffffffffffffffffffffffffffffffffff168973ffffffffffffffffffffffffffffffffffffffff161461070d5761070d8b8a8c856118f5565b6000806104bf60017fc9ed16f33ab3a66c84bfd83099ccb2a8845871e2e1c1928f63797152f0fd54cd6134c3565b815473ffffffffffffffffffffffffffffffffffffffff82811691161461082e576040517f2ef4875e00000000000000000000000000000000000000000000000000000000815273ffffffffffffffffffffffffffffffffffffffff82166004820152602401610af5565b8483811415806112ec5750808214155b15611323576040517f6582533600000000000000000000000000000000000000000000000000000000815260040160405180910390fd5b60005b818110156113bd576113b588888381811061134357611343613550565b905060200201602081019061135891906130ac565b85858481811061136a5761136a613550565b9050602002013588888581811061138357611383613550565b905060200201602081019061139891906130ac565b73ffffffffffffffffffffffffffffffffffffffff169190612653565b600101611326565b5050505050505050565b6000806104bf60017f93fe0ff7226b064a4a8f0b09910762afb4bc2441835792c021ffd78cd513011e6134c3565b8281811461142f576040517f6582533600000000000000000000000000000000000000000000000000000000815260040160405180910390fd5b8060000361143d575061065d565b73ffffffffffffffffffffffffffffffffffffffff86166000908152602088905260408120549080805b8481101561169e57600089898381811061148357611483613550565b905060200201602081019061149891906130ac565b905073ffffffffffffffffffffffffffffffffffffffff81166114ff576040517f754f425b00000000000000000000000000000000000000000000000000000000815273ffffffffffffffffffffffffffffffffffffffff8c166004820152602401610af5565b600088888481811061151357611513613550565b9050602002013590508060001461162d57848101858111611560576040517fdedd834100000000000000000000000000000000000000000000000000000000815260040160405180910390fd5b8095508273ffffffffffffffffffffffffffffffffffffffff168d73ffffffffffffffffffffffffffffffffffffffff16146115c65773ffffffffffffffffffffffffffffffffffffffff8316600090815260208f90526040902080548301905561162b565b86821115611626576040517fe450d38c00000000000000000000000000000000000000000000000000000000815273ffffffffffffffffffffffffffffffffffffffff8e1660048201526024810188905260448101839052606401610af5565b938101935b505b8173ffffffffffffffffffffffffffffffffffffffff168c73ffffffffffffffffffffffffffffffffffffffff167fddf252ad1be2c89b69c2b068fc378daa952ba7f163c4a11628f55a4df523b3ef8360405161168c91815260200190565b60405180910390a35050600101611467565b5081158015906116ae5750808214155b1561174057818303838110611715576040517fe450d38c00000000000000000000000000000000000000000000000000000000815273ffffffffffffffffffffffffffffffffffffffff8b1660048201526024810185905260448101849052606401610af5565b73ffffffffffffffffffffffffffffffffffffffff8a16600090815260208c90526040902090820190555b50505050505050505050565b60608160010180546109d7906134fd565b6117656126e5565b61177f8888888888611775610998565b9493929190612749565b6117876127ff565b6117948383610827610e48565b61179c61282f565b6117a461285d565b6117ac61288b565b6117c08a8a6117b9610b70565b91906128b9565b611740816117cc611243565b90612939565b73ffffffffffffffffffffffffffffffffffffffff821661181f576040517f92fd9c8f00000000000000000000000000000000000000000000000000000000815260040160405180910390fd5b80156118a2576002830154818101818111611870576040517f0366a5f60000000000000000000000000000000000000000000000000000000081526004810183905260248101849052604401610af5565b60028501555073ffffffffffffffffffffffffffffffffffffffff821660009081526020849052604090208054820190555b60405181815273ffffffffffffffffffffffffffffffffffffffff8316906000907fddf252ad1be2c89b69c2b068fc378daa952ba7f163c4a11628f55a4df523b3ef9060200160405180910390a3505050565b73ffffffffffffffffffffffffffffffffffffffff821661195a576040517ff7e1ac0f00000000000000000000000000000000000000000000000000000000815273ffffffffffffffffffffffffffffffffffffffff84166004820152602401610af5565b73ffffffffffffffffffffffffffffffffffffffff80841660009081526001860160209081526040808320938616835292905220547fffffffffffffffffffffffffffffffffffffffffffffffffffffffffffffffff81148015906119be57508115155b15610dda57818103818110610da0576040517f137ad6ab00000000000000000000000000000000000000000000000000000000815273ffffffffffffffffffffffffffffffffffffffff8087166004830152851660248201526044810183905260648101849052608401610af5565b73ffffffffffffffffffffffffffffffffffffffff8216611a92576040517f754f425b00000000000000000000000000000000000000000000000000000000815273ffffffffffffffffffffffffffffffffffffffff84166004820152602401610af5565b8015611b8d5773ffffffffffffffffffffffffffffffffffffffff8316600090815260208590526040902054818103818110611b20576040517fe450d38c00000000000000000000000000000000000000000000000000000000815273ffffffffffffffffffffffffffffffffffffffff861660048201526024810183905260448101849052606401610af5565b8373ffffffffffffffffffffffffffffffffffffffff168573ffffffffffffffffffffffffffffffffffffffff1614611b8a5773ffffffffffffffffffffffffffffffffffffffff8086166000908152602088905260408082208490559186168152208054840190555b50505b8173ffffffffffffffffffffffffffffffffffffffff168373ffffffffffffffffffffffffffffffffffffffff167fddf252ad1be2c89b69c2b068fc378daa952ba7f163c4a11628f55a4df523b3ef83604051610b6291815260200190565b611bf98787878787610b9e565b73ffffffffffffffffffffffffffffffffffffffff84163b156107b4576107b48686868686868080601f01602080910402602001604051908101604052809392919081815260200183838082843760009201919091525061297192505050565b848381141580611c695750808214155b15611ca0576040517f6582533600000000000000000000000000000000000000000000000000000000815260040160405180910390fd5b60005b818110156113bd576000868683818110611cbf57611cbf613550565b9050602002016020810190611cd491906130ac565b6040517f01ffc9a70000000000000000000000000000000000000000000000000000000081527f80ac58cd00000000000000000000000000000000000000000000000000000000600482015290915073ffffffffffffffffffffffffffffffffffffffff8216906301ffc9a790602401602060405180830381865afa158015611d61573d6000803e3d6000fd5b505050506040513d601f19601f82011682018060405250810190611d85919061357f565b611dd3576040517f986b9f1f00000000000000000000000000000000000000000000000000000000815273ffffffffffffffffffffffffffffffffffffffff82166004820152602401610af5565b868683818110611de557611de5613550565b9050602002016020810190611dfa91906130ac565b73ffffffffffffffffffffffffffffffffffffffff166342842e0e308b8b86818110611e2857611e28613550565b9050602002016020810190611e3d91906130ac565b888887818110611e4f57611e4f613550565b6040517fffffffff0000000000000000000000000000000000000000000000000000000060e088901b16815273ffffffffffffffffffffffffffffffffffffffff958616600482015294909316602485015250602090910201356044820152606401600060405180830381600087803b158015611ecb57600080fd5b505af1158015611edf573d6000803e3d6000fd5b5050505050806001019050611ca3565b73ffffffffffffffffffffffffffffffffffffffff8716611f3c576040517fa974697600000000000000000000000000000000000000000000000000000000815260040160405180910390fd5b83421115611f79576040517fea2b6f5800000000000000000000000000000000000000000000000000000000815260048101859052602401610af5565b73ffffffffffffffffffffffffffffffffffffffff878116600081815260208b8152604080832080546001810190915581517f6e71edae12b1b97f4d1f60370fef10105fa2faae0126114a169c64845d6126c98185015280830195909552948b166060850152608084018a905260a084019490945260c08084018990528451808503909101815260e09093019093528151919092012090612018610bfb565b6040517f19010000000000000000000000000000000000000000000000000000000000006020820152602281019190915260428101839052606201604080517fffffffffffffffffffffffffffffffffffffffffffffffffffffffffffffffe08184030181528282528051602091820120600080855291840180845281905260ff89169284019290925260608301879052608083018690529092509060019060a0016020604051602081039080840390855afa1580156120dc573d6000803e3d6000fd5b5050506020604051035190508973ffffffffffffffffffffffffffffffffffffffff168173ffffffffffffffffffffffffffffffffffffffff161461214d576040517f822a64c800000000000000000000000000000000000000000000000000000000815260040160405180910390fd5b5050506113bd8787876104f3610a66565b8261088a828483613617565b61217686868686611a2d565b73ffffffffffffffffffffffffffffffffffffffff84163b1561065d5761065d8586868686868080601f01602080910402602001604051908101604052809392919081815260200183838082843760009201919091525061297192505050565b825473ffffffffffffffffffffffffffffffffffffffff9081169083168114612243576040517f2ef4875e00000000000000000000000000000000000000000000000000000000815273ffffffffffffffffffffffffffffffffffffffff84166004820152602401610af5565b8173ffffffffffffffffffffffffffffffffffffffff168173ffffffffffffffffffffffffffffffffffffffff161461088a5783547fffffffffffffffffffffffff00000000000000000000000000000000000000001673ffffffffffffffffffffffffffffffffffffffff8381169182178655604051908316907f8be0079c531659141344cd1fd0a4f28419497f9722a3daafe3b4186f6b6457e090600090a350505050565b82818114612324576040517f6582533600000000000000000000000000000000000000000000000000000000815260040160405180910390fd5b60005b8181101561065d5761238e84848381811061234457612344613550565b9050602002013587878481811061235d5761235d613550565b905060200201602081019061237291906130ac565b73ffffffffffffffffffffffffffffffffffffffff1690612a7f565b600101612327565b6000333214806123a65750601836105b156123b057503390565b7fffffffffffffffffffffffffffffffffffffffffffffffffffffffffffffffec36013560601c7f000000000000000000000000000000000000000000000000000000000000000073ffffffffffffffffffffffffffffffffffffffff163314806124d257506040517f019a202800000000000000000000000000000000000000000000000000000000815273ffffffffffffffffffffffffffffffffffffffff82811660048301523360248301523060448301527f0000000000000000000000000000000000000000000000000000000000000000169063019a202890606401602060405180830381865afa1580156124ae573d6000803e3d6000fd5b505050506040513d601f19601f820116820180604052508101906124d2919061357f565b156124dc57919050565b3391505090565b366000333214806124f45750601836105b156125025750600091369150565b3373ffffffffffffffffffffffffffffffffffffffff7f000000000000000000000000000000000000000000000000000000000000000016148061263d575073ffffffffffffffffffffffffffffffffffffffff7f00000000000000000000000000000000000000000000000000000000000000001663019a2028367fffffffffffffffffffffffffffffffffffffffffffffffffffffffffffffffec013560601c6040517fffffffff0000000000000000000000000000000000000000000000000000000060e084901b16815273ffffffffffffffffffffffffffffffffffffffff9091166004820152336024820152306044820152606401602060405180830381865afa158015612619573d6000803e3d6000fd5b505050506040513d601f19601f8201168201806040525081019061263d919061357f565b1561264a5761058f612b35565b50600091369150565b6040805173ffffffffffffffffffffffffffffffffffffffff8416602482015260448082018490528251808303909101815260649091019091526020810180517bffffffffffffffffffffffffffffffffffffffffffffffffffffffff167fa9059cbb000000000000000000000000000000000000000000000000000000001790526126e0908490612b66565b505050565b60006126ef610890565b905061271d817f36372b07000000000000000000000000000000000000000000000000000000006001612c0a565b610870817f9d075186000000000000000000000000000000000000000000000000000000006001612c0a565b61277e61277760017fd217496980d1cb14720b20a80af36676bbece8e5feeb5d8970a9681a2c76bb756134c3565b6001612ce6565b8561278a858783613617565b506001860161279a838583613617565b506002860180547fffffffffffffffffffffffffffffffffffffffffffffffffffffffffffffff001660ff831617905561065d7fa219a0250000000000000000000000000000000000000000000000000000000060016127f8610890565b9190612c0a565b61282d7f3c130d900000000000000000000000000000000000000000000000000000000060016127f8610890565b565b61282d7f9d8ff7da0000000000000000000000000000000000000000000000000000000060016127f8610890565b61282d7fc05327e60000000000000000000000000000000000000000000000000000000060016127f8610890565b61282d7f53f41a970000000000000000000000000000000000000000000000000000000060016127f8610890565b6128e761277760017f207034c18a9defc6f1e4e1ae46a487e86951456577b7bce22778749189164d2a6134c3565b82547fffffffffffffffffffffffff000000000000000000000000000000000000000090811673ffffffffffffffffffffffffffffffffffffffff938416178455600190930180549093169116179055565b61296761277760017f5b388d90dc1312ba799f321972f13311234fa1163bcabec7cf66101c4876eb846134c3565b61082e8282612d32565b6040517f4fc35859000000000000000000000000000000000000000000000000000000008082529073ffffffffffffffffffffffffffffffffffffffff851690634fc35859906129cb908990899088908890600401613731565b6020604051808303816000875af11580156129ea573d6000803e3d6000fd5b505050506040513d601f19601f82011682018060405250810190612a0e919061378c565b7fffffffff000000000000000000000000000000000000000000000000000000001614610be9576040517f6d44973600000000000000000000000000000000000000000000000000000000815273ffffffffffffffffffffffffffffffffffffffff84166004820152602401610af5565b80471015612ac2576040517fcf47918100000000000000000000000000000000000000000000000000000000815247600482015260248101829052604401610af5565b6000808373ffffffffffffffffffffffffffffffffffffffff168360405160006040518083038185875af1925050503d8060008114612b1d576040519150601f19603f3d011682016040523d82523d6000602084013e612b22565b606091505b50915091508161088a5761088a81612de8565b36600061058f7fffffffffffffffffffffffffffffffffffffffffffffffffffffffffffffffec83018284816137a9565b600080602060008451602086016000885af180612b89576040513d6000823e3d81fd5b50506000513d91508115612ba1578060011415612bbb565b73ffffffffffffffffffffffffffffffffffffffff84163b155b1561088a576040517f5274afe700000000000000000000000000000000000000000000000000000000815273ffffffffffffffffffffffffffffffffffffffff85166004820152602401610af5565b7c01000000000000000000000000000000000000000000000000000000007fffffffff00000000000000000000000000000000000000000000000000000000831601612c82576040517f72c683bb00000000000000000000000000000000000000000000000000000000815260040160405180910390fd5b7fffffffff00000000000000000000000000000000000000000000000000000000919091166000908152602092909252604090912080547fffffffffffffffffffffffffffffffffffffffffffffffffffffffffffffff0016911515919091179055565b81548290828110612d2d576040517fbf0c18ec0000000000000000000000000000000000000000000000000000000081526004810182905260248101849052604401610af5565b505550565b73ffffffffffffffffffffffffffffffffffffffff811615612dba5781547fffffffffffffffffffffffff00000000000000000000000000000000000000001673ffffffffffffffffffffffffffffffffffffffff821690811783556040516000907f8be0079c531659141344cd1fd0a4f28419497f9722a3daafe3b4186f6b6457e0908290a35b61082e7f7f5828d00000000000000000000000000000000000000000000000000000000060016127f8610890565b805115612df85780518082602001fd5b6040517fd6bda27500000000000000000000000000000000000000000000000000000000815260040160405180910390fd5b7fffffffff000000000000000000000000000000000000000000000000000000008116811461087057600080fd5b600060208284031215612e6a57600080fd5b813561080881612e2a565b6000815180845260005b81811015612e9b57602081850181015186830182015201612e7f565b5060006020828601015260207fffffffffffffffffffffffffffffffffffffffffffffffffffffffffffffffe0601f83011685010191505092915050565b6020815260006108086020830184612e75565b73ffffffffffffffffffffffffffffffffffffffff8116811461087057600080fd5b8035612f1981612eec565b919050565b60008060408385031215612f3157600080fd5b8235612f3c81612eec565b946020939093013593505050565b600080600060608486031215612f5f57600080fd5b8335612f6a81612eec565b92506020840135612f7a81612eec565b929592945050506040919091013590565b60208152816020820152818360408301376000818301604090810191909152601f9092017fffffffffffffffffffffffffffffffffffffffffffffffffffffffffffffffe0160101919050565b60008083601f840112612fea57600080fd5b50813567ffffffffffffffff81111561300257600080fd5b6020830191508360208260051b850101111561301d57600080fd5b9250929050565b60008060008060006060868803121561303c57600080fd5b853561304781612eec565b9450602086013567ffffffffffffffff81111561306357600080fd5b61306f88828901612fd8565b909550935050604086013567ffffffffffffffff81111561308f57600080fd5b61309b88828901612fd8565b969995985093965092949392505050565b6000602082840312156130be57600080fd5b813561080881612eec565b600080600080600080606087890312156130e257600080fd5b863567ffffffffffffffff8111156130f957600080fd5b61310589828a01612fd8565b909750955050602087013567ffffffffffffffff81111561312557600080fd5b61313189828a01612fd8565b909550935050604087013567ffffffffffffffff81111561315157600080fd5b61315d89828a01612fd8565b979a9699509497509295939492505050565b6000806000806040858703121561318557600080fd5b843567ffffffffffffffff81111561319c57600080fd5b6131a887828801612fd8565b909550935050602085013567ffffffffffffffff8111156131c857600080fd5b6131d487828801612fd8565b95989497509550505050565b60008083601f8401126131f257600080fd5b50813567ffffffffffffffff81111561320a57600080fd5b60208301915083602082850101111561301d57600080fd5b803560ff81168114612f1957600080fd5b60008060008060008060008060008060006101008c8e03121561325557600080fd5b61325e8c612f0e565b9a5061326c60208d01612f0e565b995060408c0135985060608c013567ffffffffffffffff81111561328f57600080fd5b61329b8e828f016131e0565b90995097505060808c013567ffffffffffffffff8111156132bb57600080fd5b6132c78e828f016131e0565b90975095506132da905060a08d01613222565b935060c08c013567ffffffffffffffff8111156132f657600080fd5b6133028e828f016131e0565b9094509250613315905060e08d01612f0e565b90509295989b509295989b9093969950565b60008060008060006080868803121561333f57600080fd5b853561334a81612eec565b9450602086013561335a81612eec565b935060408601359250606086013567ffffffffffffffff81111561337d57600080fd5b61309b888289016131e0565b600080600080600080600060e0888a0312156133a457600080fd5b87356133af81612eec565b965060208801356133bf81612eec565b955060408801359450606088013593506133db60808901613222565b9699959850939692959460a0840135945060c09093013592915050565b6000806040838503121561340b57600080fd5b823561341681612eec565b9150602083013561342681612eec565b809150509250929050565b6000806020838503121561344457600080fd5b823567ffffffffffffffff81111561345b57600080fd5b613467858286016131e0565b90969095509350505050565b6000806000806060858703121561348957600080fd5b843561349481612eec565b935060208501359250604085013567ffffffffffffffff8111156134b757600080fd5b6131d4878288016131e0565b818103818111156104bf577f4e487b7100000000000000000000000000000000000000000000000000000000600052601160045260246000fd5b600181811c9082168061351157607f821691505b60208210810361354a577f4e487b7100000000000000000000000000000000000000000000000000000000600052602260045260246000fd5b50919050565b7f4e487b7100000000000000000000000000000000000000000000000000000000600052603260045260246000fd5b60006020828403121561359157600080fd5b8151801515811461080857600080fd5b7f4e487b7100000000000000000000000000000000000000000000000000000000600052604160045260246000fd5b601f8211156126e057806000526020600020601f840160051c810160208510156135f75750805b601f840160051c820191505b81811015610be95760008155600101613603565b67ffffffffffffffff83111561362f5761362f6135a1565b6136438361363d83546134fd565b836135d0565b6000601f841160018114613695576000851561365f5750838201355b7fffffffffffffffffffffffffffffffffffffffffffffffffffffffffffffffff600387901b1c1916600186901b178355610be9565b6000838152602090207fffffffffffffffffffffffffffffffffffffffffffffffffffffffffffffffe0861690835b828110156136e457868501358255602094850194600190920191016136c4565b508682101561371f577fffffffffffffffffffffffffffffffffffffffffffffffffffffffffffffffff60f88860031b161c19848701351681555b505060018560011b0183555050505050565b73ffffffffffffffffffffffffffffffffffffffff8516815273ffffffffffffffffffffffffffffffffffffffff841660208201528260408201526080606082015260006137826080830184612e75565b9695505050505050565b60006020828403121561379e57600080fd5b815161080881612e2a565b600080858511156137b957600080fd5b838611156137c657600080fd5b505082019391909203915056fea26469706673582212201ba88f11b1c1ded54ca7809b975cbd266b28ae14ac939329d1c4fa6543a7475164736f6c634300081c0033",
  "linkReferences": {},
  "deployedLinkReferences": {}
}