{
  "_format": "hh-sol-artifact-1",
  "contractName": "FxERC20FixedSupplyMock",
  "sourceName": "contracts/mocks/fx-portal/token/ERC20/FxERC20FixedSupplyMock.sol",
  "abi": [
    {
      "inputs": [
        {
          "internalType": "address[]",
          "name": "holders",
          "type": "address[]"
        },
        {
          "internalType": "uint256[]",
          "name": "allocations",
          "type": "uint256[]"
        },
        {
          "internalType": "contract IForwarderRegistry",
          "name": "forwarderRegistry",
          "type": "address"
        }
      ],
      "stateMutability": "nonpayable",
      "type": "constructor"
    },
    {
      "inputs": [
        {
          "internalType": "address",
          "name": "owner",
          "type": "address"
        },
        {
          "internalType": "address",
          "name": "spender",
          "type": "address"
        },
        {
          "internalType": "uint256",
          "name": "allowance",
          "type": "uint256"
        },
        {
          "internalType": "uint256",
          "name": "increment",
          "type": "uint256"
        }
      ],
      "name": "ERC20AllowanceOverflow",
      "type": "error"
    },
    {
      "inputs": [
        {
          "internalType": "address",
          "name": "owner",
          "type": "address"
        }
      ],
      "name": "ERC20ApprovalToAddressZero",
      "type": "error"
    },
    {
      "inputs": [],
      "name": "ERC20BatchMintValuesOverflow",
      "type": "error"
    },
    {
      "inputs": [],
      "name": "ERC20BatchTransferValuesOverflow",
      "type": "error"
    },
    {
      "inputs": [
        {
          "internalType": "address",
          "name": "owner",
          "type": "address"
        },
        {
          "internalType": "address",
          "name": "spender",
          "type": "address"
        },
        {
          "internalType": "uint256",
          "name": "allowance",
          "type": "uint256"
        },
        {
          "internalType": "uint256",
          "name": "decrement",
          "type": "uint256"
        }
      ],
      "name": "ERC20InsufficientAllowance",
      "type": "error"
    },
    {
      "inputs": [
        {
          "internalType": "address",
          "name": "owner",
          "type": "address"
        },
        {
          "internalType": "uint256",
          "name": "balance",
          "type": "uint256"
        },
        {
          "internalType": "uint256",
          "name": "value",
          "type": "uint256"
        }
      ],
      "name": "ERC20InsufficientBalance",
      "type": "error"
    },
    {
      "inputs": [],
      "name": "ERC20MintToAddressZero",
      "type": "error"
    },
    {
      "inputs": [
        {
          "internalType": "uint256",
          "name": "deadline",
          "type": "uint256"
        }
      ],
      "name": "ERC20PermitExpired",
      "type": "error"
    },
    {
      "inputs": [],
      "name": "ERC20PermitFromAddressZero",
      "type": "error"
    },
    {
      "inputs": [],
      "name": "ERC20PermitInvalidSignature",
      "type": "error"
    },
    {
      "inputs": [
        {
          "internalType": "address",
          "name": "recipient",
          "type": "address"
        }
      ],
      "name": "ERC20SafeTransferRejected",
      "type": "error"
    },
    {
      "inputs": [
        {
          "internalType": "uint256",
          "name": "supply",
          "type": "uint256"
        },
        {
          "internalType": "uint256",
          "name": "value",
          "type": "uint256"
        }
      ],
      "name": "ERC20TotalSupplyOverflow",
      "type": "error"
    },
    {
      "inputs": [
        {
          "internalType": "address",
          "name": "owner",
          "type": "address"
        }
      ],
      "name": "ERC20TransferToAddressZero",
      "type": "error"
    },
    {
      "inputs": [],
      "name": "FailedCall",
      "type": "error"
    },
    {
      "inputs": [],
      "name": "IllegalInterfaceId",
      "type": "error"
    },
    {
      "inputs": [],
      "name": "InconsistentArrayLengths",
      "type": "error"
    },
    {
      "inputs": [
        {
          "internalType": "address",
          "name": "tokenContract",
          "type": "address"
        }
      ],
      "name": "IncorrectTokenContractType",
      "type": "error"
    },
    {
      "inputs": [
        {
          "internalType": "uint256",
          "name": "currentPhase",
          "type": "uint256"
        },
        {
          "internalType": "uint256",
          "name": "newPhase",
          "type": "uint256"
        }
      ],
      "name": "InitializationPhaseAlreadyReached",
      "type": "error"
    },
    {
      "inputs": [
        {
          "internalType": "uint256",
          "name": "balance",
          "type": "uint256"
        },
        {
          "internalType": "uint256",
          "name": "needed",
          "type": "uint256"
        }
      ],
      "name": "InsufficientBalance",
      "type": "error"
    },
    {
      "inputs": [
        {
          "internalType": "address",
          "name": "account",
          "type": "address"
        }
      ],
      "name": "NotContractOwner",
      "type": "error"
    },
    {
      "inputs": [
        {
          "internalType": "address",
          "name": "token",
          "type": "address"
        }
      ],
      "name": "SafeERC20FailedOperation",
      "type": "error"
    },
    {
      "anonymous": false,
      "inputs": [
        {
          "indexed": true,
          "internalType": "address",
          "name": "owner",
          "type": "address"
        },
        {
          "indexed": true,
          "internalType": "address",
          "name": "spender",
          "type": "address"
        },
        {
          "indexed": false,
          "internalType": "uint256",
          "name": "value",
          "type": "uint256"
        }
      ],
      "name": "Approval",
      "type": "event"
    },
    {
      "anonymous": false,
      "inputs": [
        {
          "indexed": true,
          "internalType": "address",
          "name": "previousOwner",
          "type": "address"
        },
        {
          "indexed": true,
          "internalType": "address",
          "name": "newOwner",
          "type": "address"
        }
      ],
      "name": "OwnershipTransferred",
      "type": "event"
    },
    {
      "anonymous": false,
      "inputs": [
        {
          "indexed": true,
          "internalType": "address",
          "name": "from",
          "type": "address"
        },
        {
          "indexed": true,
          "internalType": "address",
          "name": "to",
          "type": "address"
        },
        {
          "indexed": false,
          "internalType": "uint256",
          "name": "value",
          "type": "uint256"
        }
      ],
      "name": "Transfer",
      "type": "event"
    },
    {
      "inputs": [],
      "name": "DOMAIN_SEPARATOR",
      "outputs": [
        {
          "internalType": "bytes32",
          "name": "",
          "type": "bytes32"
        }
      ],
      "stateMutability": "view",
      "type": "function"
    },
    {
      "inputs": [],
      "name": "__msgData",
      "outputs": [
        {
          "internalType": "bytes",
          "name": "",
          "type": "bytes"
        }
      ],
      "stateMutability": "view",
      "type": "function"
    },
    {
      "inputs": [
        {
          "internalType": "address",
          "name": "owner",
          "type": "address"
        },
        {
          "internalType": "address",
          "name": "spender",
          "type": "address"
        }
      ],
      "name": "allowance",
      "outputs": [
        {
          "internalType": "uint256",
          "name": "value",
          "type": "uint256"
        }
      ],
      "stateMutability": "view",
      "type": "function"
    },
    {
      "inputs": [
        {
          "internalType": "address",
          "name": "spender",
          "type": "address"
        },
        {
          "internalType": "uint256",
          "name": "value",
          "type": "uint256"
        }
      ],
      "name": "approve",
      "outputs": [
        {
          "internalType": "bool",
          "name": "result",
          "type": "bool"
        }
      ],
      "stateMutability": "nonpayable",
      "type": "function"
    },
    {
      "inputs": [
        {
          "internalType": "address",
          "name": "owner",
          "type": "address"
        }
      ],
      "name": "balanceOf",
      "outputs": [
        {
          "internalType": "uint256",
          "name": "balance",
          "type": "uint256"
        }
      ],
      "stateMutability": "view",
      "type": "function"
    },
    {
      "inputs": [
        {
          "internalType": "address[]",
          "name": "recipients",
          "type": "address[]"
        },
        {
          "internalType": "uint256[]",
          "name": "values",
          "type": "uint256[]"
        }
      ],
      "name": "batchTransfer",
      "outputs": [
        {
          "internalType": "bool",
          "name": "",
          "type": "bool"
        }
      ],
      "stateMutability": "nonpayable",
      "type": "function"
    },
    {
      "inputs": [
        {
          "internalType": "address",
          "name": "from",
          "type": "address"
        },
        {
          "internalType": "address[]",
          "name": "recipients",
          "type": "address[]"
        },
        {
          "internalType": "uint256[]",
          "name": "values",
          "type": "uint256[]"
        }
      ],
      "name": "batchTransferFrom",
      "outputs": [
        {
          "internalType": "bool",
          "name": "",
          "type": "bool"
        }
      ],
      "stateMutability": "nonpayable",
      "type": "function"
    },
    {
      "inputs": [],
      "name": "connectedToken",
      "outputs": [
        {
          "internalType": "address",
          "name": "",
          "type": "address"
        }
      ],
      "stateMutability": "view",
      "type": "function"
    },
    {
      "inputs": [],
      "name": "decimals",
      "outputs": [
        {
          "internalType": "uint8",
          "name": "",
          "type": "uint8"
        }
      ],
      "stateMutability": "view",
      "type": "function"
    },
    {
      "inputs": [
        {
          "internalType": "address",
          "name": "spender",
          "type": "address"
        },
        {
          "internalType": "uint256",
          "name": "subtractedValue",
          "type": "uint256"
        }
      ],
      "name": "decreaseAllowance",
      "outputs": [
        {
          "internalType": "bool",
          "name": "result",
          "type": "bool"
        }
      ],
      "stateMutability": "nonpayable",
      "type": "function"
    },
    {
      "inputs": [],
      "name": "forwarderRegistry",
      "outputs": [
        {
          "internalType": "contract IForwarderRegistry",
          "name": "",
          "type": "address"
        }
      ],
      "stateMutability": "view",
      "type": "function"
    },
    {
      "inputs": [],
      "name": "fxManager",
      "outputs": [
        {
          "internalType": "address",
          "name": "",
          "type": "address"
        }
      ],
      "stateMutability": "view",
      "type": "function"
    },
    {
      "inputs": [
        {
          "internalType": "address",
          "name": "spender",
          "type": "address"
        },
        {
          "internalType": "uint256",
          "name": "addedValue",
          "type": "uint256"
        }
      ],
      "name": "increaseAllowance",
      "outputs": [
        {
          "internalType": "bool",
          "name": "result",
          "type": "bool"
        }
      ],
      "stateMutability": "nonpayable",
      "type": "function"
    },
    {
      "inputs": [
        {
          "internalType": "address",
          "name": "fxManager_",
          "type": "address"
        },
        {
          "internalType": "address",
          "name": "connectedToken_",
          "type": "address"
        },
        {
          "internalType": "uint256",
          "name": "totalSupply",
          "type": "uint256"
        },
        {
          "internalType": "string",
          "name": "tokenName",
          "type": "string"
        },
        {
          "internalType": "string",
          "name": "tokenSymbol",
          "type": "string"
        },
        {
          "internalType": "uint8",
          "name": "tokenDecimals",
          "type": "uint8"
        },
        {
          "internalType": "string",
          "name": "uri",
          "type": "string"
        },
        {
          "internalType": "address",
          "name": "initialOwner",
          "type": "address"
        }
      ],
      "name": "initialize",
      "outputs": [],
      "stateMutability": "nonpayable",
      "type": "function"
    },
    {
      "inputs": [
        {
          "internalType": "address",
          "name": "forwarder",
          "type": "address"
        }
      ],
      "name": "isTrustedForwarder",
      "outputs": [
        {
          "internalType": "bool",
          "name": "",
          "type": "bool"
        }
      ],
      "stateMutability": "view",
      "type": "function"
    },
    {
      "inputs": [],
      "name": "name",
      "outputs": [
        {
          "internalType": "string",
          "name": "",
          "type": "string"
        }
      ],
      "stateMutability": "view",
      "type": "function"
    },
    {
      "inputs": [
        {
          "internalType": "address",
          "name": "owner",
          "type": "address"
        }
      ],
      "name": "nonces",
      "outputs": [
        {
          "internalType": "uint256",
          "name": "",
          "type": "uint256"
        }
      ],
      "stateMutability": "view",
      "type": "function"
    },
    {
      "inputs": [],
      "name": "owner",
      "outputs": [
        {
          "internalType": "address",
          "name": "",
          "type": "address"
        }
      ],
      "stateMutability": "view",
      "type": "function"
    },
    {
      "inputs": [
        {
          "internalType": "address",
          "name": "owner",
          "type": "address"
        },
        {
          "internalType": "address",
          "name": "spender",
          "type": "address"
        },
        {
          "internalType": "uint256",
          "name": "value",
          "type": "uint256"
        },
        {
          "internalType": "uint256",
          "name": "deadline",
          "type": "uint256"
        },
        {
          "internalType": "uint8",
          "name": "v",
          "type": "uint8"
        },
        {
          "internalType": "bytes32",
          "name": "r",
          "type": "bytes32"
        },
        {
          "internalType": "bytes32",
          "name": "s",
          "type": "bytes32"
        }
      ],
      "name": "permit",
      "outputs": [],
      "stateMutability": "nonpayable",
      "type": "function"
    },
    {
      "inputs": [
        {
          "internalType": "address[]",
          "name": "accounts",
          "type": "address[]"
        },
        {
          "internalType": "contract IERC20[]",
          "name": "tokens",
          "type": "address[]"
        },
        {
          "internalType": "uint256[]",
          "name": "amounts",
          "type": "uint256[]"
        }
      ],
      "name": "recoverERC20s",
      "outputs": [],
      "stateMutability": "nonpayable",
      "type": "function"
    },
    {
      "inputs": [
        {
          "internalType": "address[]",
          "name": "accounts",
          "type": "address[]"
        },
        {
          "internalType": "contract IERC721[]",
          "name": "contracts",
          "type": "address[]"
        },
        {
          "internalType": "uint256[]",
          "name": "tokenIds",
          "type": "uint256[]"
        }
      ],
      "name": "recoverERC721s",
      "outputs": [],
      "stateMutability": "nonpayable",
      "type": "function"
    },
    {
      "inputs": [
        {
          "internalType": "address payable[]",
          "name": "accounts",
          "type": "address[]"
        },
        {
          "internalType": "uint256[]",
          "name": "amounts",
          "type": "uint256[]"
        }
      ],
      "name": "recoverETH",
      "outputs": [],
      "stateMutability": "nonpayable",
      "type": "function"
    },
    {
      "inputs": [
        {
          "internalType": "address",
          "name": "to",
          "type": "address"
        },
        {
          "internalType": "uint256",
          "name": "value",
          "type": "uint256"
        },
        {
          "internalType": "bytes",
          "name": "data",
          "type": "bytes"
        }
      ],
      "name": "safeTransfer",
      "outputs": [
        {
          "internalType": "bool",
          "name": "",
          "type": "bool"
        }
      ],
      "stateMutability": "nonpayable",
      "type": "function"
    },
    {
      "inputs": [
        {
          "internalType": "address",
          "name": "from",
          "type": "address"
        },
        {
          "internalType": "address",
          "name": "to",
          "type": "address"
        },
        {
          "internalType": "uint256",
          "name": "value",
          "type": "uint256"
        },
        {
          "internalType": "bytes",
          "name": "data",
          "type": "bytes"
        }
      ],
      "name": "safeTransferFrom",
      "outputs": [
        {
          "internalType": "bool",
          "name": "",
          "type": "bool"
        }
      ],
      "stateMutability": "nonpayable",
      "type": "function"
    },
    {
      "inputs": [
        {
          "internalType": "string",
          "name": "uri",
          "type": "string"
        }
      ],
      "name": "setTokenURI",
      "outputs": [],
      "stateMutability": "nonpayable",
      "type": "function"
    },
    {
      "inputs": [
        {
          "internalType": "bytes4",
          "name": "interfaceId",
          "type": "bytes4"
        }
      ],
      "name": "supportsInterface",
      "outputs": [
        {
          "internalType": "bool",
          "name": "",
          "type": "bool"
        }
      ],
      "stateMutability": "view",
      "type": "function"
    },
    {
      "inputs": [],
      "name": "symbol",
      "outputs": [
        {
          "internalType": "string",
          "name": "",
          "type": "string"
        }
      ],
      "stateMutability": "view",
      "type": "function"
    },
    {
      "inputs": [],
      "name": "tokenURI",
      "outputs": [
        {
          "internalType": "string",
          "name": "",
          "type": "string"
        }
      ],
      "stateMutability": "view",
      "type": "function"
    },
    {
      "inputs": [],
      "name": "totalSupply",
      "outputs": [
        {
          "internalType": "uint256",
          "name": "supply",
          "type": "uint256"
        }
      ],
      "stateMutability": "view",
      "type": "function"
    },
    {
      "inputs": [
        {
          "internalType": "address",
          "name": "to",
          "type": "address"
        },
        {
          "internalType": "uint256",
          "name": "value",
          "type": "uint256"
        }
      ],
      "name": "transfer",
      "outputs": [
        {
          "internalType": "bool",
          "name": "result",
          "type": "bool"
        }
      ],
      "stateMutability": "nonpayable",
      "type": "function"
    },
    {
      "inputs": [
        {
          "internalType": "address",
          "name": "from",
          "type": "address"
        },
        {
          "internalType": "address",
          "name": "to",
          "type": "address"
        },
        {
          "internalType": "uint256",
          "name": "value",
          "type": "uint256"
        }
      ],
      "name": "transferFrom",
      "outputs": [
        {
          "internalType": "bool",
          "name": "result",
          "type": "bool"
        }
      ],
      "stateMutability": "nonpayable",
      "type": "function"
    },
    {
      "inputs": [
        {
          "internalType": "address",
          "name": "newOwner",
          "type": "address"
        }
      ],
      "name": "transferOwnership",
      "outputs": [],
      "stateMutability": "nonpayable",
      "type": "function"
    }
  ],
  "bytecode": "0x60a060405234801561001057600080fd5b50604051613c49380380613c4983398101604081905261002f91610318565b6001600160a01b0381166080526100508383610049610058565b919061008c565b50505061042a565b60008061008660017f1da92899d3da68bf9787824388a37ea2bfa79780bcef91b9716c390eec8ecbef6103f3565b92915050565b8151815181146100af576040516332c1299b60e11b815260040160405180910390fd5b806000036100bd5750505050565b6000805b828110156101cf5760008582815181106100dd576100dd610414565b6020026020010151905060006001600160a01b0316816001600160a01b03160361011a576040516392fd9c8f60e01b815260040160405180910390fd5b600085838151811061012e5761012e610414565b60200260200101519050806000146101845783810184811161016357604051631550ab9f60e21b815260040160405180910390fd5b6001600160a01b038316600090815260208a90526040902080548301905593505b6040518181526001600160a01b038316906000907fddf252ad1be2c89b69c2b068fc378daa952ba7f163c4a11628f55a4df523b3ef9060200160405180910390a350506001016100c1565b50801561021357600285015481810181811161020c576040516301b352fb60e11b8152600481018390526024810184905260440160405180910390fd5b6002870155505b5050505050565b634e487b7160e01b600052604160045260246000fd5b604051601f8201601f191681016001600160401b03811182821017156102585761025861021a565b604052919050565b60006001600160401b038211156102795761027961021a565b5060051b60200190565b6001600160a01b038116811461029857600080fd5b50565b600082601f8301126102ac57600080fd5b81516102bf6102ba82610260565b610230565b8082825260208201915060208360051b8601019250858311156102e157600080fd5b602085015b838110156102fe5780518352602092830192016102e6565b5095945050505050565b805161031381610283565b919050565b60008060006060848603121561032d57600080fd5b83516001600160401b0381111561034357600080fd5b8401601f8101861361035457600080fd5b80516103626102ba82610260565b8082825260208201915060208360051b85010192508883111561038457600080fd5b6020840193505b828410156103af57835161039e81610283565b82526020938401939091019061038b565b6020880151909650925050506001600160401b038111156103cf57600080fd5b6103db8682870161029b565b9250506103ea60408501610308565b90509250925092565b8181038181111561008657634e487b7160e01b600052601160045260246000fd5b634e487b7160e01b600052603260045260246000fd5b6080516137e16104686000396000818161029d01528181610337015281816124f9015281816125870152818161263a015261267801526137e16000f3fe608060405234801561001057600080fd5b50600436106101f05760003560e01c80637ecebe001161010f578063b88d4fde116100a2578063e0df5b6f11610071578063e0df5b6f1461045f578063eb79554914610472578063f2fde38b14610485578063f7ba94bd1461049857600080fd5b8063b88d4fde14610413578063c3666c3614610426578063d505accf14610439578063dd62ed3e1461044c57600080fd5b80639b779153116100de5780639b779153146103d25780639d11b050146103da578063a457c2d7146103ed578063a9059cbb1461040057600080fd5b80637ecebe001461039c57806388d695b2146103af5780638da5cb5b146103c257806395d89b41146103ca57600080fd5b806331e66e1e116101875780634885b254116101565780634885b25414610314578063572b6c051461032757806370a082311461037457806373c8a9581461038757600080fd5b806331e66e1e146102db5780633644e515146102f157806339509351146102f95780633c130d901461030c57600080fd5b806318160ddd116101c357806318160ddd1461027257806323b872dd146102885780632b4c9f161461029b578063313ce567146102c157600080fd5b806301ffc9a7146101f557806306fdde031461021d578063095ea7b3146102325780630a8a491414610245575b600080fd5b610208610203366004612e30565b6104ab565b60405190151581526020015b60405180910390f35b6102256104c5565b6040516102149190612eb1565b610208610240366004612ef6565b6104dc565b61024d610504565b60405173ffffffffffffffffffffffffffffffffffffffff9091168152602001610214565b61027a61052e565b604051908152602001610214565b610208610296366004612f22565b610542565b7f000000000000000000000000000000000000000000000000000000000000000061024d565b6102c961056d565b60405160ff9091168152602001610214565b6102e3610584565b604051610214929190612f63565b61027a610597565b610208610307366004612ef6565b6105a1565b6102256105c0565b610208610322366004612ffc565b6105cd565b610208610335366004613084565b7f000000000000000000000000000000000000000000000000000000000000000073ffffffffffffffffffffffffffffffffffffffff90811691161490565b61027a610382366004613084565b6105fe565b61039a6103953660046130a1565b610636565b005b61027a6103aa366004613084565b61073a565b6102086103bd366004613147565b610748565b61024d610776565b61022561079d565b61024d6107af565b61039a6103e836600461320b565b6107bc565b6102086103fb366004612ef6565b6107ef565b61020861040e366004612ef6565b61080e565b6102086104213660046132ff565b61082d565b61039a6104343660046130a1565b610852565b61039a610447366004613361565b610af8565b61027a61045a3660046133d0565b610b1f565b61039a61046d366004613409565b610b71565b61020861048036600461344b565b610b94565b61039a610493366004613084565b610bb7565b61039a6104a6366004613147565b610bd5565b60006104bf826104b9610c94565b90610cc2565b92915050565b60606104d76104d2610d9c565b610dca565b905090565b60006104fb6104e9610e60565b84846104f3610e6a565b929190610e98565b50600192915050565b60006104d7610511610f6f565b6001015473ffffffffffffffffffffffffffffffffffffffff1690565b60006104d761053b610e6a565b6002015490565b600061056361054f610e60565b85858561055a610e6a565b93929190610f9d565b5060019392505050565b60006104d761057a610d9c565b6002015460ff1690565b36600061058f610fef565b915091509091565b60006104d7610ffa565b60006104fb6105ae610e60565b84846105b8610e6a565b929190611095565b60606104d76104d2611247565b60006105f26105da610e60565b87878787876105e7610e6a565b959493929190611275565b50600195945050505050565b60006104bf8261060c610e6a565b9073ffffffffffffffffffffffffffffffffffffffff166000908152602091909152604090205490565b61064f610641610e60565b610649611642565b90611670565b84838114158061065f5750808214155b15610696576040517f6582533600000000000000000000000000000000000000000000000000000000815260040160405180910390fd5b60005b81811015610730576107288888838181106106b6576106b661349b565b90506020020160208101906106cb9190613084565b8585848181106106dd576106dd61349b565b905060200201358888858181106106f6576106f661349b565b905060200201602081019061070b9190613084565b73ffffffffffffffffffffffffffffffffffffffff1691906116db565b600101610699565b5050505050505050565b60006104bf8261060c61176d565b600061076b610755610e60565b86868686610761610e6a565b949392919061179b565b506001949350505050565b60006104d7610783611642565b5473ffffffffffffffffffffffffffffffffffffffff1690565b60606104d76107aa610d9c565b611af2565b60006104d7610783610f6f565b6107ce8b8b8a8a8a8a8a8a8a8a611b03565b6107e28b8a6107db610e6a565b9190611b78565b5050505050505050505050565b60006104fb6107fc610e60565b8484610806610e6a565b929190611c9b565b60006104fb61081b610e60565b8484610825610e6a565b929190611dd3565b60006105f261083a610e60565b8787878787610847610e6a565b959493929190611f92565b61085d610641610e60565b84838114158061086d5750808214155b156108a4576040517f6582533600000000000000000000000000000000000000000000000000000000815260040160405180910390fd5b60005b818110156107305760008686838181106108c3576108c361349b565b90506020020160208101906108d89190613084565b6040517f01ffc9a70000000000000000000000000000000000000000000000000000000081527f80ac58cd00000000000000000000000000000000000000000000000000000000600482015290915073ffffffffffffffffffffffffffffffffffffffff8216906301ffc9a790602401602060405180830381865afa158015610965573d6000803e3d6000fd5b505050506040513d601f19601f8201168201806040525081019061098991906134ca565b6109dc576040517f986b9f1f00000000000000000000000000000000000000000000000000000000815273ffffffffffffffffffffffffffffffffffffffff821660048201526024015b60405180910390fd5b8686838181106109ee576109ee61349b565b9050602002016020810190610a039190613084565b73ffffffffffffffffffffffffffffffffffffffff166342842e0e308b8b86818110610a3157610a3161349b565b9050602002016020810190610a469190613084565b888887818110610a5857610a5861349b565b6040517fffffffff0000000000000000000000000000000000000000000000000000000060e088901b16815273ffffffffffffffffffffffffffffffffffffffff958616600482015294909316602485015250602090910201356044820152606401600060405180830381600087803b158015610ad457600080fd5b505af1158015610ae8573d6000803e3d6000fd5b50505050508060010190506108a7565b610b1687878787878787610b0a61176d565b96959493929190611fff565b50505050505050565b6000610b6a8383610b2e610e6a565b919073ffffffffffffffffffffffffffffffffffffffff9182166000908152600193909301602090815260408085209290931684525290205490565b9392505050565b610b7c610641610e60565b610b908282610b89611247565b919061226e565b5050565b600061076b610ba1610e60565b86868686610bad610e6a565b9493929190612280565b610bd2610bc2610e60565b82610bcb611642565b91906122ec565b50565b610be0610641610e60565b82818114610c1a576040517f6582533600000000000000000000000000000000000000000000000000000000815260040160405180910390fd5b60005b81811015610c8c57610c84848483818110610c3a57610c3a61349b565b90506020020135878784818110610c5357610c5361349b565b9050602002016020810190610c689190613084565b73ffffffffffffffffffffffffffffffffffffffff1690612400565b600101610c1d565b505050505050565b6000806104bf60017fca9d3e17f264b0f3984e2634e94adb37fa3e6a8103f06aeae6fa59e21c769f5e6134ec565b60007c01000000000000000000000000000000000000000000000000000000007fffffffff00000000000000000000000000000000000000000000000000000000831601610d12575060006104bf565b7ffe003659000000000000000000000000000000000000000000000000000000007fffffffff00000000000000000000000000000000000000000000000000000000831601610d63575060016104bf565b507fffffffff00000000000000000000000000000000000000000000000000000000166000908152602091909152604090205460ff1690565b6000806104bf60017f335df4119bbb04f056b33eba33b826d3529129e458faf6daa9924b5a8f3b6a826134ec565b6060816000018054610ddb90613526565b80601f0160208091040260200160405190810160405280929190818152602001828054610e0790613526565b8015610e545780601f10610e2957610100808354040283529160200191610e54565b820191906000526020600020905b815481529060010190602001808311610e3757829003601f168201915b50505050509050919050565b60006104d76124b6565b6000806104bf60017f1da92899d3da68bf9787824388a37ea2bfa79780bcef91b9716c390eec8ecbef6134ec565b73ffffffffffffffffffffffffffffffffffffffff8216610efd576040517ff7e1ac0f00000000000000000000000000000000000000000000000000000000815273ffffffffffffffffffffffffffffffffffffffff841660048201526024016109d3565b73ffffffffffffffffffffffffffffffffffffffff838116600081815260018701602090815260408083209487168084529482529182902085905590518481527f8c5be1e5ebec7d5bd14f71427d1e84f3dd0314c0f7b2291e5b200ac8c7c3b92591015b60405180910390a350505050565b6000806104bf60017ffbf67eff80ed72d4d972e624738c2b5704d828cc6926cf8653e1018c8eef81c06134ec565b8373ffffffffffffffffffffffffffffffffffffffff168373ffffffffffffffffffffffffffffffffffffffff1614610fdc57610fdc85848684611c9b565b610fe885848484611dd3565b5050505050565b36600061058f612603565b6000467f8b73c3c69bb8fe3d512ecc4cf759cc79239f7b179b0ffacaa9a75d522b39400f6110296104d2610d9c565b80516020918201206040805192830193909352918101919091527fc89efdaa54c0f20c7adf612882df0950f5a951637e0307cdcb4c672f298b8bc66060820152608081018290523060a082015260c0016040516020818303038152906040528051906020012091505090565b73ffffffffffffffffffffffffffffffffffffffff82166110fa576040517ff7e1ac0f00000000000000000000000000000000000000000000000000000000815273ffffffffffffffffffffffffffffffffffffffff841660048201526024016109d3565b73ffffffffffffffffffffffffffffffffffffffff808416600090815260018601602090815260408083209386168352929052205481156111d95780820181811161119f576040517f93bc2ff100000000000000000000000000000000000000000000000000000000815273ffffffffffffffffffffffffffffffffffffffff80871660048301528516602482015260448101839052606481018490526084016109d3565b73ffffffffffffffffffffffffffffffffffffffff8086166000908152600188016020908152604080832093881683529290522081905590505b8273ffffffffffffffffffffffffffffffffffffffff168473ffffffffffffffffffffffffffffffffffffffff167f8c5be1e5ebec7d5bd14f71427d1e84f3dd0314c0f7b2291e5b200ac8c7c3b9258360405161123891815260200190565b60405180910390a35050505050565b6000806104bf60017ff41bf6a5db26bffdfab174dcf66b31fbba8fdb7e3db040721ce1e62d61839ceb6134ec565b828181146112af576040517f6582533600000000000000000000000000000000000000000000000000000000815260040160405180910390fd5b806000036112bd5750610b16565b73ffffffffffffffffffffffffffffffffffffffff86166000908152602089905260408120549080805b848110156116025760008989838181106113035761130361349b565b90506020020160208101906113189190613084565b905073ffffffffffffffffffffffffffffffffffffffff811661137f576040517f754f425b00000000000000000000000000000000000000000000000000000000815273ffffffffffffffffffffffffffffffffffffffff8c1660048201526024016109d3565b60008888848181106113935761139361349b565b905060200201359050806000146114d1578481018581116113e0576040517fdedd834100000000000000000000000000000000000000000000000000000000815260040160405180910390fd5b8095508273ffffffffffffffffffffffffffffffffffffffff168d73ffffffffffffffffffffffffffffffffffffffff161461146a57818f60000160008573ffffffffffffffffffffffffffffffffffffffff1673ffffffffffffffffffffffffffffffffffffffff168152602001908152602001600020600082825401925050819055506114cf565b868211156114ca576040517fe450d38c00000000000000000000000000000000000000000000000000000000815273ffffffffffffffffffffffffffffffffffffffff8e16600482015260248101889052604481018390526064016109d3565b938101935b505b8173ffffffffffffffffffffffffffffffffffffffff168c73ffffffffffffffffffffffffffffffffffffffff167fddf252ad1be2c89b69c2b068fc378daa952ba7f163c4a11628f55a4df523b3ef8360405161153091815260200190565b60405180910390a384158015906115475750838514155b156115f8578486038681106115ae576040517fe450d38c00000000000000000000000000000000000000000000000000000000815273ffffffffffffffffffffffffffffffffffffffff8e16600482015260248101889052604481018790526064016109d3565b8481018f60000160008f73ffffffffffffffffffffffffffffffffffffffff1673ffffffffffffffffffffffffffffffffffffffff16815260200190815260200160002081905550505b50506001016112e7565b508973ffffffffffffffffffffffffffffffffffffffff168973ffffffffffffffffffffffffffffffffffffffff16146107e2576107e28b8a8c85611c9b565b6000806104bf60017fc9ed16f33ab3a66c84bfd83099ccb2a8845871e2e1c1928f63797152f0fd54cd6134ec565b815473ffffffffffffffffffffffffffffffffffffffff828116911614610b90576040517f2ef4875e00000000000000000000000000000000000000000000000000000000815273ffffffffffffffffffffffffffffffffffffffff821660048201526024016109d3565b6040805173ffffffffffffffffffffffffffffffffffffffff8416602482015260448082018490528251808303909101815260649091019091526020810180517bffffffffffffffffffffffffffffffffffffffffffffffffffffffff167fa9059cbb00000000000000000000000000000000000000000000000000000000179052611768908490612773565b505050565b6000806104bf60017f93fe0ff7226b064a4a8f0b09910762afb4bc2441835792c021ffd78cd513011e6134ec565b828181146117d5576040517f6582533600000000000000000000000000000000000000000000000000000000815260040160405180910390fd5b806000036117e35750610c8c565b73ffffffffffffffffffffffffffffffffffffffff86166000908152602088905260408120549080805b84811015611a445760008989838181106118295761182961349b565b905060200201602081019061183e9190613084565b905073ffffffffffffffffffffffffffffffffffffffff81166118a5576040517f754f425b00000000000000000000000000000000000000000000000000000000815273ffffffffffffffffffffffffffffffffffffffff8c1660048201526024016109d3565b60008888848181106118b9576118b961349b565b905060200201359050806000146119d357848101858111611906576040517fdedd834100000000000000000000000000000000000000000000000000000000815260040160405180910390fd5b8095508273ffffffffffffffffffffffffffffffffffffffff168d73ffffffffffffffffffffffffffffffffffffffff161461196c5773ffffffffffffffffffffffffffffffffffffffff8316600090815260208f9052604090208054830190556119d1565b868211156119cc576040517fe450d38c00000000000000000000000000000000000000000000000000000000815273ffffffffffffffffffffffffffffffffffffffff8e16600482015260248101889052604481018390526064016109d3565b938101935b505b8173ffffffffffffffffffffffffffffffffffffffff168c73ffffffffffffffffffffffffffffffffffffffff167fddf252ad1be2c89b69c2b068fc378daa952ba7f163c4a11628f55a4df523b3ef83604051611a3291815260200190565b60405180910390a3505060010161180d565b508115801590611a545750808214155b15611ae657818303838110611abb576040517fe450d38c00000000000000000000000000000000000000000000000000000000815273ffffffffffffffffffffffffffffffffffffffff8b16600482015260248101859052604481018490526064016109d3565b73ffffffffffffffffffffffffffffffffffffffff8a16600090815260208c90526040902090820190555b50505050505050505050565b6060816001018054610ddb90613526565b611b0b612817565b611b258888888888611b1b610d9c565b949392919061287b565b611b2d612931565b611b3a8383610b89611247565b611b42612961565b611b4a61298f565b611b526129bd565b611b668a8a611b5f610f6f565b91906129eb565b611ae681611b72611642565b90612a6b565b73ffffffffffffffffffffffffffffffffffffffff8216611bc5576040517f92fd9c8f00000000000000000000000000000000000000000000000000000000815260040160405180910390fd5b8015611c48576002830154818101818111611c16576040517f0366a5f600000000000000000000000000000000000000000000000000000000815260048101839052602481018490526044016109d3565b60028501555073ffffffffffffffffffffffffffffffffffffffff821660009081526020849052604090208054820190555b60405181815273ffffffffffffffffffffffffffffffffffffffff8316906000907fddf252ad1be2c89b69c2b068fc378daa952ba7f163c4a11628f55a4df523b3ef9060200160405180910390a3505050565b73ffffffffffffffffffffffffffffffffffffffff8216611d00576040517ff7e1ac0f00000000000000000000000000000000000000000000000000000000815273ffffffffffffffffffffffffffffffffffffffff841660048201526024016109d3565b73ffffffffffffffffffffffffffffffffffffffff80841660009081526001860160209081526040808320938616835292905220547fffffffffffffffffffffffffffffffffffffffffffffffffffffffffffffffff8114801590611d6457508115155b156111d95781810381811061119f576040517f137ad6ab00000000000000000000000000000000000000000000000000000000815273ffffffffffffffffffffffffffffffffffffffff80871660048301528516602482015260448101839052606481018490526084016109d3565b73ffffffffffffffffffffffffffffffffffffffff8216611e38576040517f754f425b00000000000000000000000000000000000000000000000000000000815273ffffffffffffffffffffffffffffffffffffffff841660048201526024016109d3565b8015611f335773ffffffffffffffffffffffffffffffffffffffff8316600090815260208590526040902054818103818110611ec6576040517fe450d38c00000000000000000000000000000000000000000000000000000000815273ffffffffffffffffffffffffffffffffffffffff8616600482015260248101839052604481018490526064016109d3565b8373ffffffffffffffffffffffffffffffffffffffff168573ffffffffffffffffffffffffffffffffffffffff1614611f305773ffffffffffffffffffffffffffffffffffffffff8086166000908152602088905260408082208490559186168152208054840190555b50505b8173ffffffffffffffffffffffffffffffffffffffff168373ffffffffffffffffffffffffffffffffffffffff167fddf252ad1be2c89b69c2b068fc378daa952ba7f163c4a11628f55a4df523b3ef83604051610f6191815260200190565b611f9f8787878787610f9d565b73ffffffffffffffffffffffffffffffffffffffff84163b15610b1657610b168686868686868080601f016020809104026020016040519081016040528093929190818152602001838380828437600092019190915250612aa392505050565b73ffffffffffffffffffffffffffffffffffffffff871661204c576040517fa974697600000000000000000000000000000000000000000000000000000000815260040160405180910390fd5b83421115612089576040517fea2b6f58000000000000000000000000000000000000000000000000000000008152600481018590526024016109d3565b73ffffffffffffffffffffffffffffffffffffffff878116600081815260208b8152604080832080546001810190915581517f6e71edae12b1b97f4d1f60370fef10105fa2faae0126114a169c64845d6126c98185015280830195909552948b166060850152608084018a905260a084019490945260c08084018990528451808503909101815260e09093019093528151919092012090612128610ffa565b6040517f19010000000000000000000000000000000000000000000000000000000000006020820152602281019190915260428101839052606201604080517fffffffffffffffffffffffffffffffffffffffffffffffffffffffffffffffe08184030181528282528051602091820120600080855291840180845281905260ff89169284019290925260608301879052608083018690529092509060019060a0016020604051602081039080840390855afa1580156121ec573d6000803e3d6000fd5b5050506020604051035190508973ffffffffffffffffffffffffffffffffffffffff168173ffffffffffffffffffffffffffffffffffffffff161461225d576040517f822a64c800000000000000000000000000000000000000000000000000000000815260040160405180910390fd5b5050506107308787876104f3610e6a565b8261227a8284836135ef565b50505050565b61228c86868686611dd3565b73ffffffffffffffffffffffffffffffffffffffff84163b15610c8c57610c8c8586868686868080601f016020809104026020016040519081016040528093929190818152602001838380828437600092019190915250612aa392505050565b825473ffffffffffffffffffffffffffffffffffffffff9081169083168114612359576040517f2ef4875e00000000000000000000000000000000000000000000000000000000815273ffffffffffffffffffffffffffffffffffffffff841660048201526024016109d3565b8173ffffffffffffffffffffffffffffffffffffffff168173ffffffffffffffffffffffffffffffffffffffff161461227a5783547fffffffffffffffffffffffff00000000000000000000000000000000000000001673ffffffffffffffffffffffffffffffffffffffff8381169182178655604051908316907f8be0079c531659141344cd1fd0a4f28419497f9722a3daafe3b4186f6b6457e090600090a350505050565b80471015612443576040517fcf479181000000000000000000000000000000000000000000000000000000008152476004820152602481018290526044016109d3565b6000808373ffffffffffffffffffffffffffffffffffffffff168360405160006040518083038185875af1925050503d806000811461249e576040519150601f19603f3d011682016040523d82523d6000602084013e6124a3565b606091505b50915091508161227a5761227a81612bb1565b6000333214806124c65750601836105b156124d057503390565b7fffffffffffffffffffffffffffffffffffffffffffffffffffffffffffffffec36013560601c7f000000000000000000000000000000000000000000000000000000000000000073ffffffffffffffffffffffffffffffffffffffff163314806125f257506040517f019a202800000000000000000000000000000000000000000000000000000000815273ffffffffffffffffffffffffffffffffffffffff82811660048301523360248301523060448301527f0000000000000000000000000000000000000000000000000000000000000000169063019a202890606401602060405180830381865afa1580156125ce573d6000803e3d6000fd5b505050506040513d601f19601f820116820180604052508101906125f291906134ca565b156125fc57919050565b3391505090565b366000333214806126145750601836105b156126225750600091369150565b3373ffffffffffffffffffffffffffffffffffffffff7f000000000000000000000000000000000000000000000000000000000000000016148061275d575073ffffffffffffffffffffffffffffffffffffffff7f00000000000000000000000000000000000000000000000000000000000000001663019a2028367fffffffffffffffffffffffffffffffffffffffffffffffffffffffffffffffec013560601c6040517fffffffff0000000000000000000000000000000000000000000000000000000060e084901b16815273ffffffffffffffffffffffffffffffffffffffff9091166004820152336024820152306044820152606401602060405180830381865afa158015612739573d6000803e3d6000fd5b505050506040513d601f19601f8201168201806040525081019061275d91906134ca565b1561276a5761058f612bf3565b50600091369150565b600080602060008451602086016000885af180612796576040513d6000823e3d81fd5b50506000513d915081156127ae5780600114156127c8565b73ffffffffffffffffffffffffffffffffffffffff84163b155b1561227a576040517f5274afe700000000000000000000000000000000000000000000000000000000815273ffffffffffffffffffffffffffffffffffffffff851660048201526024016109d3565b6000612821610c94565b905061284f817f36372b07000000000000000000000000000000000000000000000000000000006001612c24565b610bd2817f9d075186000000000000000000000000000000000000000000000000000000006001612c24565b6128b06128a960017fd217496980d1cb14720b20a80af36676bbece8e5feeb5d8970a9681a2c76bb756134ec565b6001612d00565b856128bc8587836135ef565b50600186016128cc8385836135ef565b506002860180547fffffffffffffffffffffffffffffffffffffffffffffffffffffffffffffff001660ff8316179055610c8c7fa219a02500000000000000000000000000000000000000000000000000000000600161292a610c94565b9190612c24565b61295f7f3c130d9000000000000000000000000000000000000000000000000000000000600161292a610c94565b565b61295f7f9d8ff7da00000000000000000000000000000000000000000000000000000000600161292a610c94565b61295f7fc05327e600000000000000000000000000000000000000000000000000000000600161292a610c94565b61295f7f53f41a9700000000000000000000000000000000000000000000000000000000600161292a610c94565b612a196128a960017f207034c18a9defc6f1e4e1ae46a487e86951456577b7bce22778749189164d2a6134ec565b82547fffffffffffffffffffffffff000000000000000000000000000000000000000090811673ffffffffffffffffffffffffffffffffffffffff938416178455600190930180549093169116179055565b612a996128a960017f5b388d90dc1312ba799f321972f13311234fa1163bcabec7cf66101c4876eb846134ec565b610b908282612d4c565b6040517f4fc35859000000000000000000000000000000000000000000000000000000008082529073ffffffffffffffffffffffffffffffffffffffff851690634fc3585990612afd908990899088908890600401613709565b6020604051808303816000875af1158015612b1c573d6000803e3d6000fd5b505050506040513d601f19601f82011682018060405250810190612b409190613764565b7fffffffff000000000000000000000000000000000000000000000000000000001614610fe8576040517f6d44973600000000000000000000000000000000000000000000000000000000815273ffffffffffffffffffffffffffffffffffffffff841660048201526024016109d3565b805115612bc15780518082602001fd5b6040517fd6bda27500000000000000000000000000000000000000000000000000000000815260040160405180910390fd5b36600061058f7fffffffffffffffffffffffffffffffffffffffffffffffffffffffffffffffec8301828481613781565b7c01000000000000000000000000000000000000000000000000000000007fffffffff00000000000000000000000000000000000000000000000000000000831601612c9c576040517f72c683bb00000000000000000000000000000000000000000000000000000000815260040160405180910390fd5b7fffffffff00000000000000000000000000000000000000000000000000000000919091166000908152602092909252604090912080547fffffffffffffffffffffffffffffffffffffffffffffffffffffffffffffff0016911515919091179055565b81548290828110612d47576040517fbf0c18ec00000000000000000000000000000000000000000000000000000000815260048101829052602481018490526044016109d3565b505550565b73ffffffffffffffffffffffffffffffffffffffff811615612dd45781547fffffffffffffffffffffffff00000000000000000000000000000000000000001673ffffffffffffffffffffffffffffffffffffffff821690811783556040516000907f8be0079c531659141344cd1fd0a4f28419497f9722a3daafe3b4186f6b6457e0908290a35b610b907f7f5828d000000000000000000000000000000000000000000000000000000000600161292a610c94565b7fffffffff0000000000000000000000000000000000000000000000000000000081168114610bd257600080fd5b600060208284031215612e4257600080fd5b8135610b6a81612e02565b6000815180845260005b81811015612e7357602081850181015186830182015201612e57565b5060006020828601015260207fffffffffffffffffffffffffffffffffffffffffffffffffffffffffffffffe0601f83011685010191505092915050565b602081526000610b6a6020830184612e4d565b73ffffffffffffffffffffffffffffffffffffffff81168114610bd257600080fd5b8035612ef181612ec4565b919050565b60008060408385031215612f0957600080fd5b8235612f1481612ec4565b946020939093013593505050565b600080600060608486031215612f3757600080fd5b8335612f4281612ec4565b92506020840135612f5281612ec4565b929592945050506040919091013590565b60208152816020820152818360408301376000818301604090810191909152601f9092017fffffffffffffffffffffffffffffffffffffffffffffffffffffffffffffffe0160101919050565b60008083601f840112612fc257600080fd5b50813567ffffffffffffffff811115612fda57600080fd5b6020830191508360208260051b8501011115612ff557600080fd5b9250929050565b60008060008060006060868803121561301457600080fd5b853561301f81612ec4565b9450602086013567ffffffffffffffff81111561303b57600080fd5b61304788828901612fb0565b909550935050604086013567ffffffffffffffff81111561306757600080fd5b61307388828901612fb0565b969995985093965092949392505050565b60006020828403121561309657600080fd5b8135610b6a81612ec4565b600080600080600080606087890312156130ba57600080fd5b863567ffffffffffffffff8111156130d157600080fd5b6130dd89828a01612fb0565b909750955050602087013567ffffffffffffffff8111156130fd57600080fd5b61310989828a01612fb0565b909550935050604087013567ffffffffffffffff81111561312957600080fd5b61313589828a01612fb0565b979a9699509497509295939492505050565b6000806000806040858703121561315d57600080fd5b843567ffffffffffffffff81111561317457600080fd5b61318087828801612fb0565b909550935050602085013567ffffffffffffffff8111156131a057600080fd5b6131ac87828801612fb0565b95989497509550505050565b60008083601f8401126131ca57600080fd5b50813567ffffffffffffffff8111156131e257600080fd5b602083019150836020828501011115612ff557600080fd5b803560ff81168114612ef157600080fd5b60008060008060008060008060008060006101008c8e03121561322d57600080fd5b6132368c612ee6565b9a5061324460208d01612ee6565b995060408c0135985060608c013567ffffffffffffffff81111561326757600080fd5b6132738e828f016131b8565b90995097505060808c013567ffffffffffffffff81111561329357600080fd5b61329f8e828f016131b8565b90975095506132b2905060a08d016131fa565b935060c08c013567ffffffffffffffff8111156132ce57600080fd5b6132da8e828f016131b8565b90945092506132ed905060e08d01612ee6565b90509295989b509295989b9093969950565b60008060008060006080868803121561331757600080fd5b853561332281612ec4565b9450602086013561333281612ec4565b935060408601359250606086013567ffffffffffffffff81111561335557600080fd5b613073888289016131b8565b600080600080600080600060e0888a03121561337c57600080fd5b873561338781612ec4565b9650602088013561339781612ec4565b955060408801359450606088013593506133b3608089016131fa565b9699959850939692959460a0840135945060c09093013592915050565b600080604083850312156133e357600080fd5b82356133ee81612ec4565b915060208301356133fe81612ec4565b809150509250929050565b6000806020838503121561341c57600080fd5b823567ffffffffffffffff81111561343357600080fd5b61343f858286016131b8565b90969095509350505050565b6000806000806060858703121561346157600080fd5b843561346c81612ec4565b935060208501359250604085013567ffffffffffffffff81111561348f57600080fd5b6131ac878288016131b8565b7f4e487b7100000000000000000000000000000000000000000000000000000000600052603260045260246000fd5b6000602082840312156134dc57600080fd5b81518015158114610b6a57600080fd5b818103818111156104bf577f4e487b7100000000000000000000000000000000000000000000000000000000600052601160045260246000fd5b600181811c9082168061353a57607f821691505b602082108103613573577f4e487b7100000000000000000000000000000000000000000000000000000000600052602260045260246000fd5b50919050565b7f4e487b7100000000000000000000000000000000000000000000000000000000600052604160045260246000fd5b601f82111561176857806000526020600020601f840160051c810160208510156135cf5750805b601f840160051c820191505b81811015610fe857600081556001016135db565b67ffffffffffffffff83111561360757613607613579565b61361b836136158354613526565b836135a8565b6000601f84116001811461366d57600085156136375750838201355b7fffffffffffffffffffffffffffffffffffffffffffffffffffffffffffffffff600387901b1c1916600186901b178355610fe8565b6000838152602090207fffffffffffffffffffffffffffffffffffffffffffffffffffffffffffffffe0861690835b828110156136bc578685013582556020948501946001909201910161369c565b50868210156136f7577fffffffffffffffffffffffffffffffffffffffffffffffffffffffffffffffff60f88860031b161c19848701351681555b505060018560011b0183555050505050565b73ffffffffffffffffffffffffffffffffffffffff8516815273ffffffffffffffffffffffffffffffffffffffff8416602082015282604082015260806060820152600061375a6080830184612e4d565b9695505050505050565b60006020828403121561377657600080fd5b8151610b6a81612e02565b6000808585111561379157600080fd5b8386111561379e57600080fd5b505082019391909203915056fea26469706673582212208f5f348fd1525766c136d59ee8bccc20d7e457047dede45a630e597883e3c1db64736f6c634300081c0033",
  "linkReferences": {},
  "deployedLinkReferences": {}
}