{
  "_format": "hh-sol-artifact-1",
  "contractName": "FxRootMock",
  "sourceName": "contracts/mocks/fx-portal/FxRootMock.sol",
  "abi": [
    {
      "inputs": [
        {
          "internalType": "address",
          "name": "stateSender",
          "type": "address"
        }
      ],
      "stateMutability": "nonpayable",
      "type": "constructor"
    },
    {
      "inputs": [],
      "name": "fxChild",
      "outputs": [
        {
          "internalType": "address",
          "name": "",
          "type": "address"
        }
      ],
      "stateMutability": "view",
      "type": "function"
    },
    {
      "inputs": [
        {
          "internalType": "address",
          "name": "_receiver",
          "type": "address"
        },
        {
          "internalType": "bytes",
          "name": "_data",
          "type": "bytes"
        }
      ],
      "name": "sendMessageToChild",
      "outputs": [],
      "stateMutability": "nonpayable",
      "type": "function"
    },
    {
      "inputs": [
        {
          "internalType": "address",
          "name": "_fxChild",
          "type": "address"
        }
      ],
      "name": "setFxChild",
      "outputs": [],
      "stateMutability": "nonpayable",
      "type": "function"
    },
    {
      "inputs": [],
      "name": "stateSender",
      "outputs": [
        {
          "internalType": "contract IStateSender",
          "name": "",
          "type": "address"
        }
      ],
      "stateMutability": "view",
      "type": "function"
    }
  ],
  "bytecode": "0x6080604052348015600f57600080fd5b506040516104ca3803806104ca833981016040819052602c916050565b600080546001600160a01b0319166001600160a01b0392909216919091179055607e565b600060208284031215606157600080fd5b81516001600160a01b0381168114607757600080fd5b9392505050565b61043d8061008d6000396000f3fe608060405234801561001057600080fd5b506004361061004c5760003560e01c8063450d11f014610051578063b47204771461009a578063b86cfdcf146100af578063cb10f94c146100c2575b600080fd5b6001546100719073ffffffffffffffffffffffffffffffffffffffff1681565b60405173ffffffffffffffffffffffffffffffffffffffff909116815260200160405180910390f35b6100ad6100a8366004610250565b6100e2565b005b6100ad6100bd3660046102d5565b6101bd565b6000546100719073ffffffffffffffffffffffffffffffffffffffff1681565b6000338484846040516020016100fb94939291906102f7565b604080517fffffffffffffffffffffffffffffffffffffffffffffffffffffffffffffffe0818403018152908290526000546001547f16f1983100000000000000000000000000000000000000000000000000000000845291935073ffffffffffffffffffffffffffffffffffffffff908116926316f1983192610185921690859060040161037e565b600060405180830381600087803b15801561019f57600080fd5b505af11580156101b3573d6000803e3d6000fd5b5050505050505050565b60015473ffffffffffffffffffffffffffffffffffffffff16156101e057600080fd5b600180547fffffffffffffffffffffffff00000000000000000000000000000000000000001673ffffffffffffffffffffffffffffffffffffffff92909216919091179055565b803573ffffffffffffffffffffffffffffffffffffffff8116811461024b57600080fd5b919050565b60008060006040848603121561026557600080fd5b61026e84610227565b9250602084013567ffffffffffffffff81111561028a57600080fd5b8401601f8101861361029b57600080fd5b803567ffffffffffffffff8111156102b257600080fd5b8660208284010111156102c457600080fd5b939660209190910195509293505050565b6000602082840312156102e757600080fd5b6102f082610227565b9392505050565b73ffffffffffffffffffffffffffffffffffffffff8516815273ffffffffffffffffffffffffffffffffffffffff8416602082015260606040820152816060820152818360808301376000818301608090810191909152601f9092017fffffffffffffffffffffffffffffffffffffffffffffffffffffffffffffffe01601019392505050565b73ffffffffffffffffffffffffffffffffffffffff83168152604060208201526000825180604084015260005b818110156103c857602081860181015160608684010152016103ab565b5060006060828501015260607fffffffffffffffffffffffffffffffffffffffffffffffffffffffffffffffe0601f830116840101915050939250505056fea2646970667358221220f8b4f67f4dfd9f5b5e5bdfb537f5e8c9307ee92825078aa36efe8c6880361abb64736f6c634300081c0033",
  "linkReferences": {},
  "deployedLinkReferences": {}
}