{
  "_format": "hh-sol-artifact-1",
  "contractName": "FxERC20MintBurnRootTunnel",
  "sourceName": "contracts/fx-portal/tunnel/ERC20/FxERC20MintBurnRootTunnel.sol",
  "abi": [
    {
      "inputs": [
        {
          "internalType": "address",
          "name": "checkpointManager",
          "type": "address"
        },
        {
          "internalType": "address",
          "name": "fxRoot",
          "type": "address"
        },
        {
          "internalType": "address",
          "name": "fxERC20Token",
          "type": "address"
        },
        {
          "internalType": "contract IForwarderRegistry",
          "name": "forwarderRegistry",
          "type": "address"
        }
      ],
      "stateMutability": "nonpayable",
      "type": "constructor"
    },
    {
      "inputs": [],
      "name": "FxERC20InvalidDepositAddress",
      "type": "error"
    },
    {
      "inputs": [
        {
          "internalType": "address",
          "name": "childToken",
          "type": "address"
        },
        {
          "internalType": "address",
          "name": "expectedRootToken",
          "type": "address"
        },
        {
          "internalType": "address",
          "name": "actualRootToken",
          "type": "address"
        }
      ],
      "name": "FxERC20InvalidMappingOnExit",
      "type": "error"
    },
    {
      "inputs": [],
      "name": "IllegalInterfaceId",
      "type": "error"
    },
    {
      "anonymous": false,
      "inputs": [
        {
          "indexed": true,
          "internalType": "address",
          "name": "rootToken",
          "type": "address"
        },
        {
          "indexed": true,
          "internalType": "address",
          "name": "childToken",
          "type": "address"
        },
        {
          "indexed": false,
          "internalType": "address",
          "name": "depositor",
          "type": "address"
        },
        {
          "indexed": false,
          "internalType": "address",
          "name": "recipient",
          "type": "address"
        },
        {
          "indexed": false,
          "internalType": "uint256",
          "name": "amount",
          "type": "uint256"
        }
      ],
      "name": "FxERC20Deposit",
      "type": "event"
    },
    {
      "anonymous": false,
      "inputs": [
        {
          "indexed": true,
          "internalType": "address",
          "name": "rootToken",
          "type": "address"
        },
        {
          "indexed": true,
          "internalType": "address",
          "name": "childToken",
          "type": "address"
        }
      ],
      "name": "FxERC20TokenMapping",
      "type": "event"
    },
    {
      "anonymous": false,
      "inputs": [
        {
          "indexed": true,
          "internalType": "address",
          "name": "rootToken",
          "type": "address"
        },
        {
          "indexed": true,
          "internalType": "address",
          "name": "childToken",
          "type": "address"
        },
        {
          "indexed": false,
          "internalType": "address",
          "name": "withdrawer",
          "type": "address"
        },
        {
          "indexed": false,
          "internalType": "address",
          "name": "recipient",
          "type": "address"
        },
        {
          "indexed": false,
          "internalType": "uint256",
          "name": "amount",
          "type": "uint256"
        }
      ],
      "name": "FxERC20Withdrawal",
      "type": "event"
    },
    {
      "inputs": [],
      "name": "CHILD_TOKEN_PROXY_CODEHASH",
      "outputs": [
        {
          "internalType": "bytes32",
          "name": "",
          "type": "bytes32"
        }
      ],
      "stateMutability": "view",
      "type": "function"
    },
    {
      "inputs": [],
      "name": "DEPOSIT",
      "outputs": [
        {
          "internalType": "bytes32",
          "name": "",
          "type": "bytes32"
        }
      ],
      "stateMutability": "view",
      "type": "function"
    },
    {
      "inputs": [],
      "name": "MAP_TOKEN",
      "outputs": [
        {
          "internalType": "bytes32",
          "name": "",
          "type": "bytes32"
        }
      ],
      "stateMutability": "view",
      "type": "function"
    },
    {
      "inputs": [],
      "name": "SEND_MESSAGE_EVENT_SIG",
      "outputs": [
        {
          "internalType": "bytes32",
          "name": "",
          "type": "bytes32"
        }
      ],
      "stateMutability": "view",
      "type": "function"
    },
    {
      "inputs": [],
      "name": "checkpointManager",
      "outputs": [
        {
          "internalType": "contract ICheckpointManager",
          "name": "",
          "type": "address"
        }
      ],
      "stateMutability": "view",
      "type": "function"
    },
    {
      "inputs": [
        {
          "internalType": "bytes32",
          "name": "salt",
          "type": "bytes32"
        },
        {
          "internalType": "bytes32",
          "name": "bytecodeHash",
          "type": "bytes32"
        },
        {
          "internalType": "address",
          "name": "deployer",
          "type": "address"
        }
      ],
      "name": "computedCreate2Address",
      "outputs": [
        {
          "internalType": "address",
          "name": "",
          "type": "address"
        }
      ],
      "stateMutability": "pure",
      "type": "function"
    },
    {
      "inputs": [
        {
          "internalType": "address",
          "name": "rootToken",
          "type": "address"
        },
        {
          "internalType": "uint256",
          "name": "amount",
          "type": "uint256"
        }
      ],
      "name": "deposit",
      "outputs": [],
      "stateMutability": "nonpayable",
      "type": "function"
    },
    {
      "inputs": [
        {
          "internalType": "address",
          "name": "rootToken",
          "type": "address"
        },
        {
          "internalType": "address",
          "name": "receiver",
          "type": "address"
        },
        {
          "internalType": "uint256",
          "name": "amount",
          "type": "uint256"
        }
      ],
      "name": "depositTo",
      "outputs": [],
      "stateMutability": "nonpayable",
      "type": "function"
    },
    {
      "inputs": [],
      "name": "forwarderRegistry",
      "outputs": [
        {
          "internalType": "contract IForwarderRegistry",
          "name": "",
          "type": "address"
        }
      ],
      "stateMutability": "view",
      "type": "function"
    },
    {
      "inputs": [],
      "name": "fxChildTunnel",
      "outputs": [
        {
          "internalType": "address",
          "name": "",
          "type": "address"
        }
      ],
      "stateMutability": "view",
      "type": "function"
    },
    {
      "inputs": [],
      "name": "fxRoot",
      "outputs": [
        {
          "internalType": "contract IFxStateSender",
          "name": "",
          "type": "address"
        }
      ],
      "stateMutability": "view",
      "type": "function"
    },
    {
      "inputs": [
        {
          "internalType": "address",
          "name": "forwarder",
          "type": "address"
        }
      ],
      "name": "isTrustedForwarder",
      "outputs": [
        {
          "internalType": "bool",
          "name": "",
          "type": "bool"
        }
      ],
      "stateMutability": "view",
      "type": "function"
    },
    {
      "inputs": [
        {
          "internalType": "address",
          "name": "rootToken",
          "type": "address"
        }
      ],
      "name": "mapToken",
      "outputs": [
        {
          "internalType": "address",
          "name": "childToken",
          "type": "address"
        }
      ],
      "stateMutability": "nonpayable",
      "type": "function"
    },
    {
      "inputs": [
        {
          "internalType": "address",
          "name": "",
          "type": "address"
        },
        {
          "internalType": "address",
          "name": "from",
          "type": "address"
        },
        {
          "internalType": "uint256",
          "name": "value",
          "type": "uint256"
        },
        {
          "internalType": "bytes",
          "name": "data",
          "type": "bytes"
        }
      ],
      "name": "onERC20Received",
      "outputs": [
        {
          "internalType": "bytes4",
          "name": "magicValue",
          "type": "bytes4"
        }
      ],
      "stateMutability": "nonpayable",
      "type": "function"
    },
    {
      "inputs": [
        {
          "internalType": "bytes32",
          "name": "",
          "type": "bytes32"
        }
      ],
      "name": "processedExits",
      "outputs": [
        {
          "internalType": "bool",
          "name": "",
          "type": "bool"
        }
      ],
      "stateMutability": "view",
      "type": "function"
    },
    {
      "inputs": [
        {
          "internalType": "bytes",
          "name": "inputData",
          "type": "bytes"
        }
      ],
      "name": "receiveMessage",
      "outputs": [],
      "stateMutability": "nonpayable",
      "type": "function"
    },
    {
      "inputs": [
        {
          "internalType": "address",
          "name": "",
          "type": "address"
        }
      ],
      "name": "rootToChildToken",
      "outputs": [
        {
          "internalType": "address",
          "name": "",
          "type": "address"
        }
      ],
      "stateMutability": "view",
      "type": "function"
    },
    {
      "inputs": [
        {
          "internalType": "address",
          "name": "_fxChildTunnel",
          "type": "address"
        }
      ],
      "name": "setFxChildTunnel",
      "outputs": [],
      "stateMutability": "nonpayable",
      "type": "function"
    },
    {
      "inputs": [
        {
          "internalType": "bytes4",
          "name": "interfaceId",
          "type": "bytes4"
        }
      ],
      "name": "supportsInterface",
      "outputs": [
        {
          "internalType": "bool",
          "name": "",
          "type": "bool"
        }
      ],
      "stateMutability": "view",
      "type": "function"
    }
  ],
  "bytecode": "0x60c06040523480156200001157600080fd5b506040516200350e3803806200350e8339810160408190526200003491620001c7565b600180546001600160a01b038087166001600160a01b031992831617835560008054918716919092161790558490849084908490819081906200008c90634fc3585960e01b90620000846200011b565b919062000151565b6001600160a01b03166080525060408051693d602d80600a3d3981f360b01b602082015269363d3d373d3d3d363d7360b01b602a8201526001600160601b0319606085901b1660348201526e5af43d82803e903d91602b57fd5bf360881b6048820152815180820360370181526057909101909152805160209091012060a05250620002519650505050505050565b6000806200014b60017fca9d3e17f264b0f3984e2634e94adb37fa3e6a8103f06aeae6fa59e21c769f5e6200022f565b92915050565b600160e01b6001600160e01b031983160162000180576040516372c683bb60e01b815260040160405180910390fd5b6001600160e01b03199190911660009081526020929092526040909120805460ff1916911515919091179055565b6001600160a01b0381168114620001c457600080fd5b50565b60008060008060808587031215620001de57600080fd5b8451620001eb81620001ae565b6020860151909450620001fe81620001ae565b60408601519093506200021181620001ae565b60608601519092506200022481620001ae565b939692955090935050565b818103818111156200014b57634e487b7160e01b600052601160045260246000fd5b60805160a05161327b6200029360003960008181610183015261081b0152600081816101dc0152818161028a01528181610a3f0152610ac7015261327b6000f3fe608060405234801561001057600080fd5b50600436106101515760003560e01c8063886a69ba116100cd578063de9b771f11610081578063f213159c11610066578063f213159c146103f4578063f4a120f714610407578063f953cec71461041a57600080fd5b8063de9b771f1461039e578063ea60c7c4146103be57600080fd5b8063aea4e49e116100b2578063aea4e49e14610344578063c0857ba014610357578063d81c8e521461037757600080fd5b8063886a69ba146102fd578063972c49281461032457600080fd5b806347e7ef2411610124578063572b6c0511610109578063572b6c051461027a578063607f2d42146102c75780637337957f146102ea57600080fd5b806347e7ef24146102215780634fc358591461023657600080fd5b806301ffc9a7146101565780630ca92ab31461017e5780630e387de6146101b35780632b4c9f16146101da575b600080fd5b61016961016436600461298b565b61042d565b60405190151581526020015b60405180910390f35b6101a57f000000000000000000000000000000000000000000000000000000000000000081565b604051908152602001610175565b6101a57f8c5261668696ce22758910d05bab8f186d6eb247ceac2af2e82c7dc17669b03681565b7f00000000000000000000000000000000000000000000000000000000000000005b60405173ffffffffffffffffffffffffffffffffffffffff9091168152602001610175565b61023461022f3660046129f2565b610447565b005b610249610244366004612a1e565b61046f565b6040517fffffffff000000000000000000000000000000000000000000000000000000009091168152602001610175565b610169610288366004612abd565b7f000000000000000000000000000000000000000000000000000000000000000073ffffffffffffffffffffffffffffffffffffffff90811691161490565b6101696102d5366004612ada565b60036020526000908152604090205460ff1681565b6101fc6102f8366004612af3565b610514565b6101a57f2cef46a936bdc5b7e6e8c71aa04560c41cf7d88bb26901a7e7f4936ff02accad81565b6002546101fc9073ffffffffffffffffffffffffffffffffffffffff1681565b610234610352366004612abd565b61059c565b6001546101fc9073ffffffffffffffffffffffffffffffffffffffff1681565b6101a57f87a7811f4bfedea3d341ad165680ae306b01aaeacc205d227629cf157dd9f82181565b6000546101fc9073ffffffffffffffffffffffffffffffffffffffff1681565b6101fc6103cc366004612abd565b60046020526000908152604090205473ffffffffffffffffffffffffffffffffffffffff1681565b610234610402366004612b2c565b61068e565b6101fc610415366004612abd565b610703565b610234610428366004612c31565b6108da565b60006104418261043b6108f4565b90610922565b92915050565b60006104516109fc565b905061045f83828385610b43565b61046a838284610c48565b505050565b60008482156104d25761048483850185612abd565b905073ffffffffffffffffffffffffffffffffffffffff81166104d2576040517e7336b000000000000000000000000000000000000000000000000000000000815260040160405180910390fd5b6104de33878388610b43565b6104e83386610ce1565b507f4fc35859000000000000000000000000000000000000000000000000000000009695505050505050565b604080517fff00000000000000000000000000000000000000000000000000000000000000602080830191909152606084901b7fffffffffffffffffffffffffffffffffffffffff00000000000000000000000016602183015260358201869052605580830186905283518084039091018152607590920190925280519101205b9392505050565b60025473ffffffffffffffffffffffffffffffffffffffff1615610647576040517f08c379a000000000000000000000000000000000000000000000000000000000815260206004820152602a60248201527f467842617365526f6f7454756e6e656c3a204348494c445f54554e4e454c5f4160448201527f4c52454144595f5345540000000000000000000000000000000000000000000060648201526084015b60405180910390fd5b600280547fffffffffffffffffffffffff00000000000000000000000000000000000000001673ffffffffffffffffffffffffffffffffffffffff92909216919091179055565b73ffffffffffffffffffffffffffffffffffffffff82166106da576040517e7336b000000000000000000000000000000000000000000000000000000000815260040160405180910390fd5b60006106e46109fc565b90506106f284828585610b43565b6106fd848284610c48565b50505050565b73ffffffffffffffffffffffffffffffffffffffff80821660009081526004602052604090205416801561073657919050565b6107c57f2cef46a936bdc5b7e6e8c71aa04560c41cf7d88bb26901a7e7f4936ff02accad8361076485610d72565b604051602001610775929190612d1f565b604080517fffffffffffffffffffffffffffffffffffffffffffffffffffffffffffffffe0818403018152908290526107b19291602001612d4e565b604051602081830303815290604052611053565b60408051606084901b7fffffffffffffffffffffffffffffffffffffffff0000000000000000000000001660208083019190915282516014818403018152603490920190925280519101206002546108569082907f00000000000000000000000000000000000000000000000000000000000000009073ffffffffffffffffffffffffffffffffffffffff16610514565b73ffffffffffffffffffffffffffffffffffffffff84811660008181526004602052604080822080547fffffffffffffffffffffffff000000000000000000000000000000000000000016948616948517905551939550919290917ff935ffb7c4a7f69e191e46617fc2f41d98d93290443199977b42dd086e744c8691a350919050565b60006108e5826110e4565b90506108f0816114c6565b5050565b60008061044160017fca9d3e17f264b0f3984e2634e94adb37fa3e6a8103f06aeae6fa59e21c769f5e612d96565b60007c01000000000000000000000000000000000000000000000000000000007fffffffff0000000000000000000000000000000000000000000000000000000083160161097257506000610441565b7ffe003659000000000000000000000000000000000000000000000000000000007fffffffff000000000000000000000000000000000000000000000000000000008316016109c357506001610441565b507fffffffff00000000000000000000000000000000000000000000000000000000166000908152602091909152604090205460ff1690565b600033321480610a0c5750601836105b15610a1657503390565b7fffffffffffffffffffffffffffffffffffffffffffffffffffffffffffffffec36013560601c7f000000000000000000000000000000000000000000000000000000000000000073ffffffffffffffffffffffffffffffffffffffff16331480610b3257506040517f8929a8ca00000000000000000000000000000000000000000000000000000000815273ffffffffffffffffffffffffffffffffffffffff82811660048301523360248301527f00000000000000000000000000000000000000000000000000000000000000001690638929a8ca90604401602060405180830381865afa158015610b0e573d6000803e3d6000fd5b505050506040513d601f19601f82011682018060405250810190610b329190612da9565b15610b3c57919050565b3391505090565b6040805173ffffffffffffffffffffffffffffffffffffffff8681166020830152858116828401528416606082015260808082018490528251808303909101815260a08201909252600091610bbd917f87a7811f4bfedea3d341ad165680ae306b01aaeacc205d227629cf157dd9f821919060c001612d4e565b6040516020818303038152906040529050610bd781611053565b610be085610703565b6040805173ffffffffffffffffffffffffffffffffffffffff8781168252868116602083015291810185905291811691908716907fd04a997afc07fd79393f2188ae8935e4389ab8aef6144f0f839e3aade5b858ab9060600160405180910390a35050505050565b6040517f79cc679000000000000000000000000000000000000000000000000000000000815273ffffffffffffffffffffffffffffffffffffffff8381166004830152602482018390528416906379cc6790906044016020604051808303816000875af1158015610cbd573d6000803e3d6000fd5b505050506040513d601f19601f820116820180604052508101906106fd9190612da9565b6040517f42966c680000000000000000000000000000000000000000000000000000000081526004810182905273ffffffffffffffffffffffffffffffffffffffff8316906342966c68906024016020604051808303816000875af1158015610d4e573d6000803e3d6000fd5b505050506040513d601f19601f8201168201806040525081019061046a9190612da9565b6060600082905060008173ffffffffffffffffffffffffffffffffffffffff166306fdde036040518163ffffffff1660e01b8152600401600060405180830381865afa158015610dc6573d6000803e3d6000fd5b505050506040513d6000823e601f3d9081017fffffffffffffffffffffffffffffffffffffffffffffffffffffffffffffffe0168201604052610e0c9190810190612dfb565b905060008273ffffffffffffffffffffffffffffffffffffffff166395d89b416040518163ffffffff1660e01b8152600401600060405180830381865afa158015610e5b573d6000803e3d6000fd5b505050506040513d6000823e601f3d9081017fffffffffffffffffffffffffffffffffffffffffffffffffffffffffffffffe0168201604052610ea19190810190612dfb565b905060008373ffffffffffffffffffffffffffffffffffffffff1663313ce5676040518163ffffffff1660e01b8152600401602060405180830381865afa158015610ef0573d6000803e3d6000fd5b505050506040513d601f19601f82011682018060405250810190610f149190612e44565b905060008673ffffffffffffffffffffffffffffffffffffffff16633c130d906040518163ffffffff1660e01b8152600401600060405180830381865afa158015610f63573d6000803e3d6000fd5b505050506040513d6000823e601f3d9081017fffffffffffffffffffffffffffffffffffffffffffffffffffffffffffffffe0168201604052610fa99190810190612dfb565b905060008773ffffffffffffffffffffffffffffffffffffffff16638da5cb5b6040518163ffffffff1660e01b8152600401602060405180830381865afa158015610ff8573d6000803e3d6000fd5b505050506040513d601f19601f8201168201806040525081019061101c9190612e67565b90508484848484604051602001611037959493929190612e84565b6040516020818303038152906040529650505050505050919050565b6000546002546040517fb472047700000000000000000000000000000000000000000000000000000000815273ffffffffffffffffffffffffffffffffffffffff9283169263b4720477926110af929116908590600401612d1f565b600060405180830381600087803b1580156110c957600080fd5b505af11580156110dd573d6000803e3d6000fd5b5050505050565b606060006110f1836115f0565b905060006110fe8261164f565b9050600061110b83611678565b9050600081611119846116a1565b61112286611885565b60405160200161113493929190612eef565b604080517fffffffffffffffffffffffffffffffffffffffffffffffffffffffffffffffe081840301815291815281516020928301206000818152600390935291205490915060ff1615611209576040517f08c379a0000000000000000000000000000000000000000000000000000000008152602060048201526024808201527f4678526f6f7454756e6e656c3a20455849545f414c52454144595f50524f434560448201527f5353454400000000000000000000000000000000000000000000000000000000606482015260840161063e565b600081815260036020526040812080547fffffffffffffffffffffffffffffffffffffffffffffffffffffffffffffff00166001179055611249856118a1565b90506000611256826119eb565b905061126181611a7b565b60025473ffffffffffffffffffffffffffffffffffffffff90811691161461130b576040517f08c379a000000000000000000000000000000000000000000000000000000000815260206004820152602560248201527f4678526f6f7454756e6e656c3a20494e56414c49445f46585f4348494c445f5460448201527f554e4e454c000000000000000000000000000000000000000000000000000000606482015260840161063e565b600061131687611aa4565b9050611336611326846020015190565b876113308a611ac0565b84611adc565b6113c2576040517f08c379a000000000000000000000000000000000000000000000000000000000815260206004820152602360248201527f4678526f6f7454756e6e656c3a20494e56414c49445f524543454950545f505260448201527f4f4f460000000000000000000000000000000000000000000000000000000000606482015260840161063e565b6113f0856113cf89611d85565b6113d88a611da1565b846113e28c611dbd565b6113eb8d611dd9565b611df5565b5060006113fc83611f5b565b90507f8c5261668696ce22758910d05bab8f186d6eb247ceac2af2e82c7dc17669b03661143261142d836000611f97565b611fcf565b14611499576040517f08c379a000000000000000000000000000000000000000000000000000000000815260206004820152601f60248201527f4678526f6f7454756e6e656c3a20494e56414c49445f5349474e415455524500604482015260640161063e565b60006114a48461204a565b8060200190518101906114b79190612dfb565b9b9a5050505050505050505050565b6000806000806000858060200190518101906114e29190612f1c565b73ffffffffffffffffffffffffffffffffffffffff808616600090815260046020526040902054959a5093985091965094509250908116908516811461157c576040517f3855947700000000000000000000000000000000000000000000000000000000815273ffffffffffffffffffffffffffffffffffffffff808816600483015280871660248301528216604482015260640161063e565b611587868484612066565b6040805173ffffffffffffffffffffffffffffffffffffffff86811682528581166020830152918101849052818716918816907faa4bbbc02123d0c446b55ec99a14078c9eab05cb4a271e6d8f8e278d9e4cd1849060600160405180910390a350505050505050565b604080516020810190915260608152600061163a6116358460408051808201825260008082526020918201528151808301909252825182529182019181019190915290565b6120f3565b60408051602081019091529081529392505050565b6060610441826000015160088151811061166b5761166b612f87565b60200260200101516121ff565b6000610441826000015160028151811061169457611694612f87565b6020026020010151611fcf565b60408051602081019091526000815281516060919015610441576000806116c960008661229c565b60f81c905060018114806116e057508060ff166003145b156117a0576001855160026116f59190612fb6565b6116ff9190612d96565b67ffffffffffffffff81111561171757611717612b6d565b6040519080825280601f01601f191660200182016040528015611741576020820181803683370190505b509250600061175160018761229c565b9050808460008151811061176757611767612f87565b60200101907effffffffffffffffffffffffffffffffffffffffffffffffffffffffffffff1916908160001a9053506001925050611804565b6002855160026117b09190612fb6565b6117ba9190612d96565b67ffffffffffffffff8111156117d2576117d2612b6d565b6040519080825280601f01601f1916602001820160405280156117fc576020820181803683370190505b509250600091505b60ff82165b835181101561187c5761183361182260ff851683612d96565b61182d906002612fcd565b8761229c565b84828151811061184557611845612f87565b60200101907effffffffffffffffffffffffffffffffffffffffffffffffffffffffffffff1916908160001a905350600101611809565b50505092915050565b6000610441826000015160098151811061169457611694612f87565b6118c560405180606001604052806060815260200160608152602001600081525090565b6118df826000015160068151811061166b5761166b612f87565b6020828101829052604080518082018252600080825290830152805180820190915282518152918101908201526119158161231d565b1561192a57611923816120f3565b82526119d7565b6020820151805160009061194090600190612d96565b67ffffffffffffffff81111561195857611958612b6d565b6040519080825280601f01601f191660200182016040528015611982576020820181803683370190505b5090506000808360210191508260200190506119a082828551612358565b6040805180820182526000808252602091820152815180830190925284518252808501908201526119d0906120f3565b8652505050505b6119e083611885565b604083015250919050565b604080516080810182526000918101828152606080830193909352815260208101919091526000611a398360000151600381518110611a2c57611a2c612f87565b60200260200101516120f3565b836040015181518110611a4e57611a4e612f87565b602002602001015190506040518060400160405280828152602001611a72836120f3565b90529392505050565b60006104418260200151600081518110611a9757611a97612f87565b60200260200101516123e3565b6000610441826000015160058151811061169457611694612f87565b6060610441826000015160078151811061166b5761166b612f87565b600080611b108460408051808201825260008082526020918201528151808301909252825182529182019181019190915290565b90506000611b1d826120f3565b905060608085600080611b2f8b6116a1565b90508051600003611b4a576000975050505050505050611d7d565b60005b8651811015611d74578151831115611b7057600098505050505050505050611d7d565b611b92878281518110611b8557611b85612f87565b60200260200101516123fd565b955085805190602001208414611bb357600098505050505050505050611d7d565b611bc8878281518110611a2c57611a2c612f87565b94508451601103611c9a5781518303611c27578c80519060200120611bf98660108151811061166b5761166b612f87565b8051906020012003611c1657600198505050505050505050611d7d565b600098505050505050505050611d7d565b6000828481518110611c3b57611c3b612f87565b016020015160f81c90506010811115611c605760009950505050505050505050611d7d565b611c85868260ff1681518110611c7857611c78612f87565b602002602001015161247c565b9450611c92600185612fcd565b935050611d6c565b8451600203611c16576000611cc5611cbe8760008151811061166b5761166b612f87565b84866124aa565b8351909150611cd48286612fcd565b03611d27578d80519060200120611cf78760018151811061166b5761166b612f87565b8051906020012003611d155760019950505050505050505050611d7d565b60009950505050505050505050611d7d565b80600003611d415760009950505050505050505050611d7d565b611d4b8185612fcd565b9350611d6386600181518110611c7857611c78612f87565b9450611d6c9050565b600101611b4d565b50505050505050505b949350505050565b6000610441826000015160038151811061169457611694612f87565b6000610441826000015160048151811061169457611694612f87565b6000610441826000015160008151811061169457611694612f87565b6060610441826000015160018151811061166b5761166b612f87565b6001546040517f41539d4a0000000000000000000000000000000000000000000000000000000081526004810184905260009182918291829173ffffffffffffffffffffffffffffffffffffffff909116906341539d4a9060240160a060405180830381865afa158015611e6d573d6000803e3d6000fd5b505050506040513d601f19601f82011682018060405250810190611e919190612fe0565b5093505092509250611ee8828b611ea89190612d96565b6040805160208082018f90528183018e9052606082018d905260808083018d90528351808403909101815260a090920190925280519101209085886125d7565b611f4e576040517f08c379a000000000000000000000000000000000000000000000000000000000815260206004820152601c60248201527f4678526f6f7454756e6e656c3a20494e56414c49445f48454144455200000000604482015260640161063e565b9998505050505050505050565b6040805160208101909152606081526040518060200160405280611f8f8460200151600181518110611a2c57611a2c612f87565b905292915050565b60408051808201909152600080825260208201528251805183908110611fbf57611fbf612f87565b6020026020010151905092915050565b805160009015801590611fe457508151602110155b611fed57600080fd5b6000611ffc8360200151612784565b905060008184600001516120109190612d96565b90506000808386602001516120259190612fcd565b905080519150602083101561204157826020036101000a820491505b50949350505050565b6060610441826020015160028151811061166b5761166b612f87565b6040517f40c10f1900000000000000000000000000000000000000000000000000000000815273ffffffffffffffffffffffffffffffffffffffff8381166004830152602482018390528416906340c10f1990604401600060405180830381600087803b1580156120d657600080fd5b505af11580156120ea573d6000803e3d6000fd5b50505050505050565b60606120fe8261231d565b61210757600080fd5b6000612112836127ff565b905060008167ffffffffffffffff81111561212f5761212f612b6d565b60405190808252806020026020018201604052801561217457816020015b604080518082019091526000808252602082015281526020019060019003908161214d5790505b50905060006121868560200151612784565b85602001516121959190612fcd565b90506000805b848110156121f4576121ac83612884565b91506040518060400160405280838152602001848152508482815181106121d5576121d5612f87565b60209081029190910101526121ea8284612fcd565b925060010161219b565b509195945050505050565b805160609061220d57600080fd5b600061221c8360200151612784565b905060008184600001516122309190612d96565b905060008167ffffffffffffffff81111561224d5761224d612b6d565b6040519080825280601f01601f191660200182016040528015612277576020820181803683370190505b50905060008160200190506120418487602001516122959190612fcd565b8285612946565b60006122a960028461305c565b156122e3576010826122bc600286613070565b815181106122cc576122cc612f87565b01602001516122de919060f81c613084565b612313565b6010826122f1600286613070565b8151811061230157612301612f87565b0160200151612313919060f81c6130a6565b60f81b9392505050565b8051600090810361233057506000919050565b6020820151805160001a9060c082101561234e575060009392505050565b5060019392505050565b8060000361236557505050565b6020811061239d578251825261237c602084612fcd565b9250612389602083612fcd565b9150612396602082612d96565b9050612365565b806000036123aa57505050565b600060016123b9836020612d96565b6123c5906101006131e8565b6123cf9190612d96565b935183518516941916939093179091525050565b80516000906015146123f457600080fd5b61044182611fcf565b60606000826000015167ffffffffffffffff81111561241e5761241e612b6d565b6040519080825280601f01601f191660200182016040528015612448576020820181803683370190505b509050805160000361245a5792915050565b60008160200190506124758460200151828660000151612946565b5092915050565b805160009060211461248d57600080fd5b600080836020015160016124a19190612fcd565b51949350505050565b600080806124b7866116a1565b90506000815167ffffffffffffffff8111156124d5576124d5612b6d565b6040519080825280601f01601f1916602001820160405280156124ff576020820181803683370190505b509050845b82516125109087612fcd565b8110156125a857600087828151811061252b5761252b612f87565b01602001517fff0000000000000000000000000000000000000000000000000000000000000016905080836125608985612d96565b8151811061257057612570612f87565b60200101907effffffffffffffffffffffffffffffffffffffffffffffffffffffffffffff1916908160001a90535050600101612504565b5080805190602001208280519060200120036125c757815192506125cc565b600092505b509095945050505050565b6000602082516125e7919061305c565b1561264e576040517f08c379a000000000000000000000000000000000000000000000000000000000815260206004820152601460248201527f496e76616c69642070726f6f66206c656e677468000000000000000000000000604482015260640161063e565b60006020835161265e9190613070565b905061266b8160026131e8565b85106126d3576040517f08c379a000000000000000000000000000000000000000000000000000000000815260206004820152601560248201527f4c65616620696e64657820697320746f6f206269670000000000000000000000604482015260640161063e565b60008660205b85518111612776578581015192506126f260028961305c565b60000361272a576040805160208101849052908101849052606001604051602081830303815290604052805190602001209150612757565b60408051602081018590529081018390526060016040516020818303038152906040528051906020012091505b612762600289613070565b975061276f602082612fcd565b90506126d9565b509094149695505050505050565b8051600090811a608081101561279d5750600092915050565b60b88110806127b8575060c081108015906127b8575060f881105b156127c65750600192915050565b60c08110156127f3576127db600160b86131f4565b6127e89060ff1682612d96565b610595906001612fcd565b6127db600160f86131f4565b8051600090810361281257506000919050565b6000806128228460200151612784565b84602001516128319190612fcd565b90506000846000015185602001516128499190612fcd565b90505b8082101561287b5761285d82612884565b6128679083612fcd565b9150826128738161320d565b93505061284c565b50909392505050565b80516000908190811a608081101561289f5760019150612475565b60b88110156128c5576128b3608082612d96565b6128be906001612fcd565b9150612475565b60c08110156128f25760b78103600185019450806020036101000a85510460018201810193505050612475565b60f8811015612906576128b360c082612d96565b60019390930151602084900360f7016101000a90049092017fffffffffffffffffffffffffffffffffffffffffffffffffffffffffffffff0a0192915050565b8060000361295357505050565b6020811061239d578251825261296a602084612fcd565b9250612977602083612fcd565b9150612984602082612d96565b9050612953565b60006020828403121561299d57600080fd5b81357fffffffff000000000000000000000000000000000000000000000000000000008116811461059557600080fd5b73ffffffffffffffffffffffffffffffffffffffff811681146129ef57600080fd5b50565b60008060408385031215612a0557600080fd5b8235612a10816129cd565b946020939093013593505050565b600080600080600060808688031215612a3657600080fd5b8535612a41816129cd565b94506020860135612a51816129cd565b935060408601359250606086013567ffffffffffffffff80821115612a7557600080fd5b818801915088601f830112612a8957600080fd5b813581811115612a9857600080fd5b896020828501011115612aaa57600080fd5b9699959850939650602001949392505050565b600060208284031215612acf57600080fd5b8135610595816129cd565b600060208284031215612aec57600080fd5b5035919050565b600080600060608486031215612b0857600080fd5b83359250602084013591506040840135612b21816129cd565b809150509250925092565b600080600060608486031215612b4157600080fd5b8335612b4c816129cd565b92506020840135612b5c816129cd565b929592945050506040919091013590565b7f4e487b7100000000000000000000000000000000000000000000000000000000600052604160045260246000fd5b604051601f82017fffffffffffffffffffffffffffffffffffffffffffffffffffffffffffffffe016810167ffffffffffffffff81118282101715612be357612be3612b6d565b604052919050565b600067ffffffffffffffff821115612c0557612c05612b6d565b50601f017fffffffffffffffffffffffffffffffffffffffffffffffffffffffffffffffe01660200190565b600060208284031215612c4357600080fd5b813567ffffffffffffffff811115612c5a57600080fd5b8201601f81018413612c6b57600080fd5b8035612c7e612c7982612beb565b612b9c565b818152856020838501011115612c9357600080fd5b81602084016020830137600091810160200191909152949350505050565b60005b83811015612ccc578181015183820152602001612cb4565b50506000910152565b60008151808452612ced816020860160208601612cb1565b601f017fffffffffffffffffffffffffffffffffffffffffffffffffffffffffffffffe0169290920160200192915050565b73ffffffffffffffffffffffffffffffffffffffff83168152604060208201526000611d7d6040830184612cd5565b828152604060208201526000611d7d6040830184612cd5565b7f4e487b7100000000000000000000000000000000000000000000000000000000600052601160045260246000fd5b8181038181111561044157610441612d67565b600060208284031215612dbb57600080fd5b8151801515811461059557600080fd5b6000612dd9612c7984612beb565b9050828152838383011115612ded57600080fd5b610595836020830184612cb1565b600060208284031215612e0d57600080fd5b815167ffffffffffffffff811115612e2457600080fd5b8201601f81018413612e3557600080fd5b611d7d84825160208401612dcb565b600060208284031215612e5657600080fd5b815160ff8116811461059557600080fd5b600060208284031215612e7957600080fd5b8151610595816129cd565b60a081526000612e9760a0830188612cd5565b8281036020840152612ea98188612cd5565b905060ff861660408401528281036060840152612ec68186612cd5565b91505073ffffffffffffffffffffffffffffffffffffffff831660808301529695505050505050565b83815260008351612f07816020850160208801612cb1565b60209201918201929092526040019392505050565b600080600080600060a08688031215612f3457600080fd5b8551612f3f816129cd565b6020870151909550612f50816129cd565b6040870151909450612f61816129cd565b6060870151909350612f72816129cd565b80925050608086015190509295509295909350565b7f4e487b7100000000000000000000000000000000000000000000000000000000600052603260045260246000fd5b808202811582820484141761044157610441612d67565b8082018082111561044157610441612d67565b600080600080600060a08688031215612ff857600080fd5b85519450602086015193506040860151925060608601519150608086015161301f816129cd565b809150509295509295909350565b7f4e487b7100000000000000000000000000000000000000000000000000000000600052601260045260246000fd5b60008261306b5761306b61302d565b500690565b60008261307f5761307f61302d565b500490565b600060ff8316806130975761309761302d565b8060ff84160691505092915050565b600060ff8316806130b9576130b961302d565b8060ff84160491505092915050565b600181815b8085111561312157817fffffffffffffffffffffffffffffffffffffffffffffffffffffffffffffffff0482111561310757613107612d67565b8085161561311457918102915b93841c93908002906130cd565b509250929050565b60008261313857506001610441565b8161314557506000610441565b816001811461315b576002811461316557613181565b6001915050610441565b60ff84111561317657613176612d67565b50506001821b610441565b5060208310610133831016604e8410600b84101617156131a4575081810a610441565b6131ae83836130c8565b807fffffffffffffffffffffffffffffffffffffffffffffffffffffffffffffffff048211156131e0576131e0612d67565b029392505050565b60006105958383613129565b60ff828116828216039081111561044157610441612d67565b60007fffffffffffffffffffffffffffffffffffffffffffffffffffffffffffffffff820361323e5761323e612d67565b506001019056fea2646970667358221220fa732e6085c5cff79cd59340e0d99df5542f22486739860f240785cfd7ab945664736f6c63430008180033",
  "linkReferences": {},
  "deployedLinkReferences": {}
}