{
  "_format": "hh-sol-artifact-1",
  "contractName": "FxERC20MintBurnRootTunnel",
  "sourceName": "contracts/fx-portal/tunnel/ERC20/FxERC20MintBurnRootTunnel.sol",
  "abi": [
    {
      "inputs": [
        {
          "internalType": "address",
          "name": "checkpointManager",
          "type": "address"
        },
        {
          "internalType": "address",
          "name": "fxRoot",
          "type": "address"
        },
        {
          "internalType": "address",
          "name": "fxERC20Token",
          "type": "address"
        },
        {
          "internalType": "contract IForwarderRegistry",
          "name": "forwarderRegistry",
          "type": "address"
        }
      ],
      "stateMutability": "nonpayable",
      "type": "constructor"
    },
    {
      "inputs": [],
      "name": "FxERC20InvalidDepositAddress",
      "type": "error"
    },
    {
      "inputs": [
        {
          "internalType": "address",
          "name": "childToken",
          "type": "address"
        },
        {
          "internalType": "address",
          "name": "expectedRootToken",
          "type": "address"
        },
        {
          "internalType": "address",
          "name": "actualRootToken",
          "type": "address"
        }
      ],
      "name": "FxERC20InvalidMappingOnExit",
      "type": "error"
    },
    {
      "anonymous": false,
      "inputs": [
        {
          "indexed": true,
          "internalType": "address",
          "name": "rootToken",
          "type": "address"
        },
        {
          "indexed": true,
          "internalType": "address",
          "name": "childToken",
          "type": "address"
        },
        {
          "indexed": false,
          "internalType": "address",
          "name": "depositor",
          "type": "address"
        },
        {
          "indexed": false,
          "internalType": "address",
          "name": "recipient",
          "type": "address"
        },
        {
          "indexed": false,
          "internalType": "uint256",
          "name": "amount",
          "type": "uint256"
        }
      ],
      "name": "FxERC20Deposit",
      "type": "event"
    },
    {
      "anonymous": false,
      "inputs": [
        {
          "indexed": true,
          "internalType": "address",
          "name": "rootToken",
          "type": "address"
        },
        {
          "indexed": true,
          "internalType": "address",
          "name": "childToken",
          "type": "address"
        }
      ],
      "name": "FxERC20TokenMapping",
      "type": "event"
    },
    {
      "anonymous": false,
      "inputs": [
        {
          "indexed": true,
          "internalType": "address",
          "name": "rootToken",
          "type": "address"
        },
        {
          "indexed": true,
          "internalType": "address",
          "name": "childToken",
          "type": "address"
        },
        {
          "indexed": false,
          "internalType": "address",
          "name": "withdrawer",
          "type": "address"
        },
        {
          "indexed": false,
          "internalType": "address",
          "name": "recipient",
          "type": "address"
        },
        {
          "indexed": false,
          "internalType": "uint256",
          "name": "amount",
          "type": "uint256"
        }
      ],
      "name": "FxERC20Withdrawal",
      "type": "event"
    },
    {
      "inputs": [],
      "name": "DEPOSIT",
      "outputs": [
        {
          "internalType": "bytes32",
          "name": "",
          "type": "bytes32"
        }
      ],
      "stateMutability": "view",
      "type": "function"
    },
    {
      "inputs": [],
      "name": "MAP_TOKEN",
      "outputs": [
        {
          "internalType": "bytes32",
          "name": "",
          "type": "bytes32"
        }
      ],
      "stateMutability": "view",
      "type": "function"
    },
    {
      "inputs": [],
      "name": "SEND_MESSAGE_EVENT_SIG",
      "outputs": [
        {
          "internalType": "bytes32",
          "name": "",
          "type": "bytes32"
        }
      ],
      "stateMutability": "view",
      "type": "function"
    },
    {
      "inputs": [],
      "name": "checkpointManager",
      "outputs": [
        {
          "internalType": "contract ICheckpointManager",
          "name": "",
          "type": "address"
        }
      ],
      "stateMutability": "view",
      "type": "function"
    },
    {
      "inputs": [],
      "name": "childTokenProxyCodeHash",
      "outputs": [
        {
          "internalType": "bytes32",
          "name": "",
          "type": "bytes32"
        }
      ],
      "stateMutability": "view",
      "type": "function"
    },
    {
      "inputs": [
        {
          "internalType": "bytes32",
          "name": "salt",
          "type": "bytes32"
        },
        {
          "internalType": "bytes32",
          "name": "bytecodeHash",
          "type": "bytes32"
        },
        {
          "internalType": "address",
          "name": "deployer",
          "type": "address"
        }
      ],
      "name": "computedCreate2Address",
      "outputs": [
        {
          "internalType": "address",
          "name": "",
          "type": "address"
        }
      ],
      "stateMutability": "pure",
      "type": "function"
    },
    {
      "inputs": [
        {
          "internalType": "address",
          "name": "rootToken",
          "type": "address"
        },
        {
          "internalType": "uint256",
          "name": "amount",
          "type": "uint256"
        }
      ],
      "name": "deposit",
      "outputs": [],
      "stateMutability": "nonpayable",
      "type": "function"
    },
    {
      "inputs": [
        {
          "internalType": "address",
          "name": "rootToken",
          "type": "address"
        },
        {
          "internalType": "address",
          "name": "receiver",
          "type": "address"
        },
        {
          "internalType": "uint256",
          "name": "amount",
          "type": "uint256"
        }
      ],
      "name": "depositTo",
      "outputs": [],
      "stateMutability": "nonpayable",
      "type": "function"
    },
    {
      "inputs": [],
      "name": "forwarderRegistry",
      "outputs": [
        {
          "internalType": "contract IForwarderRegistry",
          "name": "",
          "type": "address"
        }
      ],
      "stateMutability": "view",
      "type": "function"
    },
    {
      "inputs": [],
      "name": "fxChildTunnel",
      "outputs": [
        {
          "internalType": "address",
          "name": "",
          "type": "address"
        }
      ],
      "stateMutability": "view",
      "type": "function"
    },
    {
      "inputs": [],
      "name": "fxRoot",
      "outputs": [
        {
          "internalType": "contract IFxStateSender",
          "name": "",
          "type": "address"
        }
      ],
      "stateMutability": "view",
      "type": "function"
    },
    {
      "inputs": [
        {
          "internalType": "address",
          "name": "forwarder",
          "type": "address"
        }
      ],
      "name": "isTrustedForwarder",
      "outputs": [
        {
          "internalType": "bool",
          "name": "",
          "type": "bool"
        }
      ],
      "stateMutability": "view",
      "type": "function"
    },
    {
      "inputs": [
        {
          "internalType": "address",
          "name": "rootToken",
          "type": "address"
        }
      ],
      "name": "mapToken",
      "outputs": [
        {
          "internalType": "address",
          "name": "childToken",
          "type": "address"
        }
      ],
      "stateMutability": "nonpayable",
      "type": "function"
    },
    {
      "inputs": [
        {
          "internalType": "address",
          "name": "",
          "type": "address"
        },
        {
          "internalType": "address",
          "name": "from",
          "type": "address"
        },
        {
          "internalType": "uint256",
          "name": "value",
          "type": "uint256"
        },
        {
          "internalType": "bytes",
          "name": "data",
          "type": "bytes"
        }
      ],
      "name": "onERC20Received",
      "outputs": [
        {
          "internalType": "bytes4",
          "name": "magicValue",
          "type": "bytes4"
        }
      ],
      "stateMutability": "nonpayable",
      "type": "function"
    },
    {
      "inputs": [
        {
          "internalType": "bytes32",
          "name": "",
          "type": "bytes32"
        }
      ],
      "name": "processedExits",
      "outputs": [
        {
          "internalType": "bool",
          "name": "",
          "type": "bool"
        }
      ],
      "stateMutability": "view",
      "type": "function"
    },
    {
      "inputs": [
        {
          "internalType": "bytes",
          "name": "inputData",
          "type": "bytes"
        }
      ],
      "name": "receiveMessage",
      "outputs": [],
      "stateMutability": "nonpayable",
      "type": "function"
    },
    {
      "inputs": [
        {
          "internalType": "address",
          "name": "",
          "type": "address"
        }
      ],
      "name": "rootToChildToken",
      "outputs": [
        {
          "internalType": "address",
          "name": "",
          "type": "address"
        }
      ],
      "stateMutability": "view",
      "type": "function"
    },
    {
      "inputs": [
        {
          "internalType": "address",
          "name": "_fxChildTunnel",
          "type": "address"
        }
      ],
      "name": "setFxChildTunnel",
      "outputs": [],
      "stateMutability": "nonpayable",
      "type": "function"
    },
    {
      "inputs": [
        {
          "internalType": "bytes4",
          "name": "interfaceId",
          "type": "bytes4"
        }
      ],
      "name": "supportsInterface",
      "outputs": [
        {
          "internalType": "bool",
          "name": "",
          "type": "bool"
        }
      ],
      "stateMutability": "view",
      "type": "function"
    }
  ],
  "bytecode": "0x60c06040523480156200001157600080fd5b506040516200356a3803806200356a8339810160408190526200003491620001fa565b600180546001600160a01b038087166001600160a01b031992831617835560008054918716919092161790558490849084908490819081906200008c90634fc3585960e01b90620000846200011b565b919062000151565b6001600160a01b03166080525060408051693d602d80600a3d3981f360b01b602082015269363d3d373d3d3d363d7360b01b602a8201526001600160601b0319606085901b1660348201526e5af43d82803e903d91602b57fd5bf360881b6048820152815180820360370181526057909101909152805160209091012060a05250620002849650505050505050565b6000806200014b60017fca9d3e17f264b0f3984e2634e94adb37fa3e6a8103f06aeae6fa59e21c769f5e62000262565b92915050565b600160e01b6001600160e01b0319831601620001b35760405162461bcd60e51b815260206004820152601f60248201527f496e74657266616365446574656374696f6e3a2077726f6e672076616c756500604482015260640160405180910390fd5b6001600160e01b03199190911660009081526020929092526040909120805460ff1916911515919091179055565b6001600160a01b0381168114620001f757600080fd5b50565b600080600080608085870312156200021157600080fd5b84516200021e81620001e1565b60208601519094506200023181620001e1565b60408601519093506200024481620001e1565b60608601519092506200025781620001e1565b939692955090935050565b818103818111156200014b57634e487b7160e01b600052601160045260246000fd5b60805160a0516132a4620002c660003960008181610335015261081b0152600081816101b50152818161026301528181610a3f0152610ac701526132a46000f3fe608060405234801561001057600080fd5b50600436106101515760003560e01c8063972c4928116100cd578063de9b771f11610081578063f213159c11610066578063f213159c146103f4578063f4a120f714610407578063f953cec71461041a57600080fd5b8063de9b771f1461039e578063ea60c7c4146103be57600080fd5b8063b3e37c18116100b2578063b3e37c1814610330578063c0857ba014610357578063d81c8e521461037757600080fd5b8063972c4928146102fd578063aea4e49e1461031d57600080fd5b80634fc3585911610124578063607f2d4211610109578063607f2d42146102a05780637337957f146102c3578063886a69ba146102d657600080fd5b80634fc358591461020f578063572b6c051461025357600080fd5b806301ffc9a7146101565780630e387de61461017e5780632b4c9f16146101b357806347e7ef24146101fa575b600080fd5b6101696101643660046129b4565b61042d565b60405190151581526020015b60405180910390f35b6101a57f8c5261668696ce22758910d05bab8f186d6eb247ceac2af2e82c7dc17669b03681565b604051908152602001610175565b7f00000000000000000000000000000000000000000000000000000000000000005b60405173ffffffffffffffffffffffffffffffffffffffff9091168152602001610175565b61020d610208366004612a1b565b610447565b005b61022261021d366004612a47565b61046f565b6040517fffffffff000000000000000000000000000000000000000000000000000000009091168152602001610175565b610169610261366004612ae6565b7f000000000000000000000000000000000000000000000000000000000000000073ffffffffffffffffffffffffffffffffffffffff90811691161490565b6101696102ae366004612b03565b60036020526000908152604090205460ff1681565b6101d56102d1366004612b1c565b610514565b6101a57f2cef46a936bdc5b7e6e8c71aa04560c41cf7d88bb26901a7e7f4936ff02accad81565b6002546101d59073ffffffffffffffffffffffffffffffffffffffff1681565b61020d61032b366004612ae6565b61059c565b6101a57f000000000000000000000000000000000000000000000000000000000000000081565b6001546101d59073ffffffffffffffffffffffffffffffffffffffff1681565b6101a57f87a7811f4bfedea3d341ad165680ae306b01aaeacc205d227629cf157dd9f82181565b6000546101d59073ffffffffffffffffffffffffffffffffffffffff1681565b6101d56103cc366004612ae6565b60046020526000908152604090205473ffffffffffffffffffffffffffffffffffffffff1681565b61020d610402366004612b55565b61068e565b6101d5610415366004612ae6565b610703565b61020d610428366004612c5a565b6108da565b60006104418261043b6108f4565b90610922565b92915050565b60006104516109fc565b905061045f83828385610b43565b61046a838284610c48565b505050565b60008482156104d25761048483850185612ae6565b905073ffffffffffffffffffffffffffffffffffffffff81166104d2576040517e7336b000000000000000000000000000000000000000000000000000000000815260040160405180910390fd5b6104de33878388610b43565b6104e83386610ce1565b507f4fc35859000000000000000000000000000000000000000000000000000000009695505050505050565b604080517fff00000000000000000000000000000000000000000000000000000000000000602080830191909152606084901b7fffffffffffffffffffffffffffffffffffffffff00000000000000000000000016602183015260358201869052605580830186905283518084039091018152607590920190925280519101205b9392505050565b60025473ffffffffffffffffffffffffffffffffffffffff1615610647576040517f08c379a000000000000000000000000000000000000000000000000000000000815260206004820152602a60248201527f467842617365526f6f7454756e6e656c3a204348494c445f54554e4e454c5f4160448201527f4c52454144595f5345540000000000000000000000000000000000000000000060648201526084015b60405180910390fd5b600280547fffffffffffffffffffffffff00000000000000000000000000000000000000001673ffffffffffffffffffffffffffffffffffffffff92909216919091179055565b73ffffffffffffffffffffffffffffffffffffffff82166106da576040517e7336b000000000000000000000000000000000000000000000000000000000815260040160405180910390fd5b60006106e46109fc565b90506106f284828585610b43565b6106fd848284610c48565b50505050565b73ffffffffffffffffffffffffffffffffffffffff80821660009081526004602052604090205416801561073657919050565b6107c57f2cef46a936bdc5b7e6e8c71aa04560c41cf7d88bb26901a7e7f4936ff02accad8361076485610d72565b604051602001610775929190612d48565b604080517fffffffffffffffffffffffffffffffffffffffffffffffffffffffffffffffe0818403018152908290526107b19291602001612d77565b604051602081830303815290604052611053565b60408051606084901b7fffffffffffffffffffffffffffffffffffffffff0000000000000000000000001660208083019190915282516014818403018152603490920190925280519101206002546108569082907f00000000000000000000000000000000000000000000000000000000000000009073ffffffffffffffffffffffffffffffffffffffff16610514565b73ffffffffffffffffffffffffffffffffffffffff84811660008181526004602052604080822080547fffffffffffffffffffffffff000000000000000000000000000000000000000016948616948517905551939550919290917ff935ffb7c4a7f69e191e46617fc2f41d98d93290443199977b42dd086e744c8691a350919050565b60006108e5826110e4565b90506108f0816114c6565b5050565b60008061044160017fca9d3e17f264b0f3984e2634e94adb37fa3e6a8103f06aeae6fa59e21c769f5e612dbf565b60007c01000000000000000000000000000000000000000000000000000000007fffffffff0000000000000000000000000000000000000000000000000000000083160161097257506000610441565b7ffe003659000000000000000000000000000000000000000000000000000000007fffffffff000000000000000000000000000000000000000000000000000000008316016109c357506001610441565b507fffffffff00000000000000000000000000000000000000000000000000000000166000908152602091909152604090205460ff1690565b600033321480610a0c5750601836105b15610a1657503390565b7fffffffffffffffffffffffffffffffffffffffffffffffffffffffffffffffec36013560601c7f000000000000000000000000000000000000000000000000000000000000000073ffffffffffffffffffffffffffffffffffffffff16331480610b3257506040517f8929a8ca00000000000000000000000000000000000000000000000000000000815273ffffffffffffffffffffffffffffffffffffffff82811660048301523360248301527f00000000000000000000000000000000000000000000000000000000000000001690638929a8ca90604401602060405180830381865afa158015610b0e573d6000803e3d6000fd5b505050506040513d601f19601f82011682018060405250810190610b329190612dd2565b15610b3c57919050565b3391505090565b6040805173ffffffffffffffffffffffffffffffffffffffff8681166020830152858116828401528416606082015260808082018490528251808303909101815260a08201909252600091610bbd917f87a7811f4bfedea3d341ad165680ae306b01aaeacc205d227629cf157dd9f821919060c001612d77565b6040516020818303038152906040529050610bd781611053565b610be085610703565b6040805173ffffffffffffffffffffffffffffffffffffffff8781168252868116602083015291810185905291811691908716907fd04a997afc07fd79393f2188ae8935e4389ab8aef6144f0f839e3aade5b858ab9060600160405180910390a35050505050565b6040517f79cc679000000000000000000000000000000000000000000000000000000000815273ffffffffffffffffffffffffffffffffffffffff8381166004830152602482018390528416906379cc6790906044016020604051808303816000875af1158015610cbd573d6000803e3d6000fd5b505050506040513d601f19601f820116820180604052508101906106fd9190612dd2565b6040517f42966c680000000000000000000000000000000000000000000000000000000081526004810182905273ffffffffffffffffffffffffffffffffffffffff8316906342966c68906024016020604051808303816000875af1158015610d4e573d6000803e3d6000fd5b505050506040513d601f19601f8201168201806040525081019061046a9190612dd2565b6060600082905060008173ffffffffffffffffffffffffffffffffffffffff166306fdde036040518163ffffffff1660e01b8152600401600060405180830381865afa158015610dc6573d6000803e3d6000fd5b505050506040513d6000823e601f3d9081017fffffffffffffffffffffffffffffffffffffffffffffffffffffffffffffffe0168201604052610e0c9190810190612e24565b905060008273ffffffffffffffffffffffffffffffffffffffff166395d89b416040518163ffffffff1660e01b8152600401600060405180830381865afa158015610e5b573d6000803e3d6000fd5b505050506040513d6000823e601f3d9081017fffffffffffffffffffffffffffffffffffffffffffffffffffffffffffffffe0168201604052610ea19190810190612e24565b905060008373ffffffffffffffffffffffffffffffffffffffff1663313ce5676040518163ffffffff1660e01b8152600401602060405180830381865afa158015610ef0573d6000803e3d6000fd5b505050506040513d601f19601f82011682018060405250810190610f149190612e6d565b905060008673ffffffffffffffffffffffffffffffffffffffff16633c130d906040518163ffffffff1660e01b8152600401600060405180830381865afa158015610f63573d6000803e3d6000fd5b505050506040513d6000823e601f3d9081017fffffffffffffffffffffffffffffffffffffffffffffffffffffffffffffffe0168201604052610fa99190810190612e24565b905060008773ffffffffffffffffffffffffffffffffffffffff16638da5cb5b6040518163ffffffff1660e01b8152600401602060405180830381865afa158015610ff8573d6000803e3d6000fd5b505050506040513d601f19601f8201168201806040525081019061101c9190612e90565b90508484848484604051602001611037959493929190612ead565b6040516020818303038152906040529650505050505050919050565b6000546002546040517fb472047700000000000000000000000000000000000000000000000000000000815273ffffffffffffffffffffffffffffffffffffffff9283169263b4720477926110af929116908590600401612d48565b600060405180830381600087803b1580156110c957600080fd5b505af11580156110dd573d6000803e3d6000fd5b5050505050565b606060006110f1836115f0565b905060006110fe8261164f565b9050600061110b83611678565b9050600081611119846116a1565b6111228661188f565b60405160200161113493929190612f18565b604080517fffffffffffffffffffffffffffffffffffffffffffffffffffffffffffffffe081840301815291815281516020928301206000818152600390935291205490915060ff1615611209576040517f08c379a0000000000000000000000000000000000000000000000000000000008152602060048201526024808201527f4678526f6f7454756e6e656c3a20455849545f414c52454144595f50524f434560448201527f5353454400000000000000000000000000000000000000000000000000000000606482015260840161063e565b600081815260036020526040812080547fffffffffffffffffffffffffffffffffffffffffffffffffffffffffffffff00166001179055611249856118ab565b90506000611256826119f5565b905061126181611a85565b60025473ffffffffffffffffffffffffffffffffffffffff90811691161461130b576040517f08c379a000000000000000000000000000000000000000000000000000000000815260206004820152602560248201527f4678526f6f7454756e6e656c3a20494e56414c49445f46585f4348494c445f5460448201527f554e4e454c000000000000000000000000000000000000000000000000000000606482015260840161063e565b600061131687611aae565b9050611336611326846020015190565b876113308a611aca565b84611ae6565b6113c2576040517f08c379a000000000000000000000000000000000000000000000000000000000815260206004820152602360248201527f4678526f6f7454756e6e656c3a20494e56414c49445f524543454950545f505260448201527f4f4f460000000000000000000000000000000000000000000000000000000000606482015260840161063e565b6113f0856113cf89611d99565b6113d88a611db5565b846113e28c611dd1565b6113eb8d611ded565b611e09565b5060006113fc83611f6f565b90507f8c5261668696ce22758910d05bab8f186d6eb247ceac2af2e82c7dc17669b03661143261142d836000611fab565b611fe3565b14611499576040517f08c379a000000000000000000000000000000000000000000000000000000000815260206004820152601f60248201527f4678526f6f7454756e6e656c3a20494e56414c49445f5349474e415455524500604482015260640161063e565b60006114a48461205e565b8060200190518101906114b79190612e24565b9b9a5050505050505050505050565b6000806000806000858060200190518101906114e29190612f45565b73ffffffffffffffffffffffffffffffffffffffff808616600090815260046020526040902054959a5093985091965094509250908116908516811461157c576040517f3855947700000000000000000000000000000000000000000000000000000000815273ffffffffffffffffffffffffffffffffffffffff808816600483015280871660248301528216604482015260640161063e565b61158786848461207a565b6040805173ffffffffffffffffffffffffffffffffffffffff86811682528581166020830152918101849052818716918816907faa4bbbc02123d0c446b55ec99a14078c9eab05cb4a271e6d8f8e278d9e4cd1849060600160405180910390a350505050505050565b604080516020810190915260608152600061163a6116358460408051808201825260008082526020918201528151808301909252825182529182019181019190915290565b612107565b60408051602081019091529081529392505050565b6060610441826000015160088151811061166b5761166b612fb0565b602002602001015161221d565b6000610441826000015160028151811061169457611694612fb0565b6020026020010151611fe3565b60408051602081019091526000815281516060919015610441576000806116c96000866122ba565b60f81c905060018114806116e057508060ff166003145b156117a0576001855160026116f59190612fdf565b6116ff9190612dbf565b67ffffffffffffffff81111561171757611717612b96565b6040519080825280601f01601f191660200182016040528015611741576020820181803683370190505b50925060006117516001876122ba565b9050808460008151811061176757611767612fb0565b60200101907effffffffffffffffffffffffffffffffffffffffffffffffffffffffffffff1916908160001a9053506001925050611804565b6002855160026117b09190612fdf565b6117ba9190612dbf565b67ffffffffffffffff8111156117d2576117d2612b96565b6040519080825280601f01601f1916602001820160405280156117fc576020820181803683370190505b509250600091505b60ff82165b83518110156118865761183361182260ff851683612dbf565b61182d906002612ff6565b876122ba565b84828151811061184557611845612fb0565b60200101907effffffffffffffffffffffffffffffffffffffffffffffffffffffffffffff1916908160001a9053508061187e81613009565b915050611809565b50505092915050565b6000610441826000015160098151811061169457611694612fb0565b6118cf60405180606001604052806060815260200160608152602001600081525090565b6118e9826000015160068151811061166b5761166b612fb0565b60208281018290526040805180820182526000808252908301528051808201909152825181529181019082015261191f8161233b565b156119345761192d81612107565b82526119e1565b6020820151805160009061194a90600190612dbf565b67ffffffffffffffff81111561196257611962612b96565b6040519080825280601f01601f19166020018201604052801561198c576020820181803683370190505b5090506000808360210191508260200190506119aa82828551612376565b6040805180820182526000808252602091820152815180830190925284518252808501908201526119da90612107565b8652505050505b6119ea8361188f565b604083015250919050565b604080516080810182526000918101828152606080830193909352815260208101919091526000611a438360000151600381518110611a3657611a36612fb0565b6020026020010151612107565b836040015181518110611a5857611a58612fb0565b602002602001015190506040518060400160405280828152602001611a7c83612107565b90529392505050565b60006104418260200151600081518110611aa157611aa1612fb0565b6020026020010151612401565b6000610441826000015160058151811061169457611694612fb0565b6060610441826000015160078151811061166b5761166b612fb0565b600080611b1a8460408051808201825260008082526020918201528151808301909252825182529182019181019190915290565b90506000611b2782612107565b905060608085600080611b398b6116a1565b90508051600003611b54576000975050505050505050611d91565b60005b8651811015611d88578151831115611b7a57600098505050505050505050611d91565b611b9c878281518110611b8f57611b8f612fb0565b602002602001015161241b565b955085805190602001208414611bbd57600098505050505050505050611d91565b611bd2878281518110611a3657611a36612fb0565b94508451601103611ca45781518303611c31578c80519060200120611c038660108151811061166b5761166b612fb0565b8051906020012003611c2057600198505050505050505050611d91565b600098505050505050505050611d91565b6000828481518110611c4557611c45612fb0565b016020015160f81c90506010811115611c6a5760009950505050505050505050611d91565b611c8f868260ff1681518110611c8257611c82612fb0565b602002602001015161249a565b9450611c9c600185612ff6565b935050611d76565b8451600203611c20576000611ccf611cc88760008151811061166b5761166b612fb0565b84866124c8565b8351909150611cde8286612ff6565b03611d31578d80519060200120611d018760018151811061166b5761166b612fb0565b8051906020012003611d1f5760019950505050505050505050611d91565b60009950505050505050505050611d91565b80600003611d4b5760009950505050505050505050611d91565b611d558185612ff6565b9350611d6d86600181518110611c8257611c82612fb0565b9450611d769050565b80611d8081613009565b915050611b57565b50505050505050505b949350505050565b6000610441826000015160038151811061169457611694612fb0565b6000610441826000015160048151811061169457611694612fb0565b6000610441826000015160008151811061169457611694612fb0565b6060610441826000015160018151811061166b5761166b612fb0565b6001546040517f41539d4a0000000000000000000000000000000000000000000000000000000081526004810184905260009182918291829173ffffffffffffffffffffffffffffffffffffffff909116906341539d4a9060240160a060405180830381865afa158015611e81573d6000803e3d6000fd5b505050506040513d601f19601f82011682018060405250810190611ea59190613041565b5093505092509250611efc828b611ebc9190612dbf565b6040805160208082018f90528183018e9052606082018d905260808083018d90528351808403909101815260a09092019092528051910120908588612600565b611f62576040517f08c379a000000000000000000000000000000000000000000000000000000000815260206004820152601c60248201527f4678526f6f7454756e6e656c3a20494e56414c49445f48454144455200000000604482015260640161063e565b9998505050505050505050565b6040805160208101909152606081526040518060200160405280611fa38460200151600181518110611a3657611a36612fb0565b905292915050565b60408051808201909152600080825260208201528251805183908110611fd357611fd3612fb0565b6020026020010151905092915050565b805160009015801590611ff857508151602110155b61200157600080fd5b600061201083602001516127ad565b905060008184600001516120249190612dbf565b90506000808386602001516120399190612ff6565b905080519150602083101561205557826020036101000a820491505b50949350505050565b6060610441826020015160028151811061166b5761166b612fb0565b6040517f40c10f1900000000000000000000000000000000000000000000000000000000815273ffffffffffffffffffffffffffffffffffffffff8381166004830152602482018390528416906340c10f1990604401600060405180830381600087803b1580156120ea57600080fd5b505af11580156120fe573d6000803e3d6000fd5b50505050505050565b60606121128261233b565b61211b57600080fd5b600061212683612828565b905060008167ffffffffffffffff81111561214357612143612b96565b60405190808252806020026020018201604052801561218857816020015b60408051808201909152600080825260208201528152602001906001900390816121615790505b509050600061219a85602001516127ad565b85602001516121a99190612ff6565b90506000805b84811015612212576121c0836128ad565b91506040518060400160405280838152602001848152508482815181106121e9576121e9612fb0565b60209081029190910101526121fe8284612ff6565b92508061220a81613009565b9150506121af565b509195945050505050565b805160609061222b57600080fd5b600061223a83602001516127ad565b9050600081846000015161224e9190612dbf565b905060008167ffffffffffffffff81111561226b5761226b612b96565b6040519080825280601f01601f191660200182016040528015612295576020820181803683370190505b50905060008160200190506120558487602001516122b39190612ff6565b828561296f565b60006122c76002846130bd565b15612301576010826122da6002866130d1565b815181106122ea576122ea612fb0565b01602001516122fc919060f81c6130e5565b612331565b60108261230f6002866130d1565b8151811061231f5761231f612fb0565b0160200151612331919060f81c613107565b60f81b9392505050565b8051600090810361234e57506000919050565b6020820151805160001a9060c082101561236c575060009392505050565b5060019392505050565b8060000361238357505050565b602081106123bb578251825261239a602084612ff6565b92506123a7602083612ff6565b91506123b4602082612dbf565b9050612383565b806000036123c857505050565b600060016123d7836020612dbf565b6123e390610100613249565b6123ed9190612dbf565b935183518516941916939093179091525050565b805160009060151461241257600080fd5b61044182611fe3565b60606000826000015167ffffffffffffffff81111561243c5761243c612b96565b6040519080825280601f01601f191660200182016040528015612466576020820181803683370190505b50905080516000036124785792915050565b6000816020019050612493846020015182866000015161296f565b5092915050565b80516000906021146124ab57600080fd5b600080836020015160016124bf9190612ff6565b51949350505050565b600080806124d5866116a1565b90506000815167ffffffffffffffff8111156124f3576124f3612b96565b6040519080825280601f01601f19166020018201604052801561251d576020820181803683370190505b509050845b825161252e9087612ff6565b8110156125d157600087828151811061254957612549612fb0565b01602001517fff00000000000000000000000000000000000000000000000000000000000000169050808361257e8985612dbf565b8151811061258e5761258e612fb0565b60200101907effffffffffffffffffffffffffffffffffffffffffffffffffffffffffffff1916908160001a9053505080806125c990613009565b915050612522565b5080805190602001208280519060200120036125f057815192506125f5565b600092505b509095945050505050565b60006020825161261091906130bd565b15612677576040517f08c379a000000000000000000000000000000000000000000000000000000000815260206004820152601460248201527f496e76616c69642070726f6f66206c656e677468000000000000000000000000604482015260640161063e565b60006020835161268791906130d1565b9050612694816002613249565b85106126fc576040517f08c379a000000000000000000000000000000000000000000000000000000000815260206004820152601560248201527f4c65616620696e64657820697320746f6f206269670000000000000000000000604482015260640161063e565b60008660205b8551811161279f5785810151925061271b6002896130bd565b600003612753576040805160208101849052908101849052606001604051602081830303815290604052805190602001209150612780565b60408051602081018590529081018390526060016040516020818303038152906040528051906020012091505b61278b6002896130d1565b9750612798602082612ff6565b9050612702565b509094149695505050505050565b8051600090811a60808110156127c65750600092915050565b60b88110806127e1575060c081108015906127e1575060f881105b156127ef5750600192915050565b60c081101561281c57612804600160b8613255565b6128119060ff1682612dbf565b610595906001612ff6565b612804600160f8613255565b8051600090810361283b57506000919050565b60008061284b84602001516127ad565b846020015161285a9190612ff6565b90506000846000015185602001516128729190612ff6565b90505b808210156128a457612886826128ad565b6128909083612ff6565b91508261289c81613009565b935050612875565b50909392505050565b80516000908190811a60808110156128c85760019150612493565b60b88110156128ee576128dc608082612dbf565b6128e7906001612ff6565b9150612493565b60c081101561291b5760b78103600185019450806020036101000a85510460018201810193505050612493565b60f881101561292f576128dc60c082612dbf565b60019390930151602084900360f7016101000a90049092017fffffffffffffffffffffffffffffffffffffffffffffffffffffffffffffff0a0192915050565b8060000361297c57505050565b602081106123bb5782518252612993602084612ff6565b92506129a0602083612ff6565b91506129ad602082612dbf565b905061297c565b6000602082840312156129c657600080fd5b81357fffffffff000000000000000000000000000000000000000000000000000000008116811461059557600080fd5b73ffffffffffffffffffffffffffffffffffffffff81168114612a1857600080fd5b50565b60008060408385031215612a2e57600080fd5b8235612a39816129f6565b946020939093013593505050565b600080600080600060808688031215612a5f57600080fd5b8535612a6a816129f6565b94506020860135612a7a816129f6565b935060408601359250606086013567ffffffffffffffff80821115612a9e57600080fd5b818801915088601f830112612ab257600080fd5b813581811115612ac157600080fd5b896020828501011115612ad357600080fd5b9699959850939650602001949392505050565b600060208284031215612af857600080fd5b8135610595816129f6565b600060208284031215612b1557600080fd5b5035919050565b600080600060608486031215612b3157600080fd5b83359250602084013591506040840135612b4a816129f6565b809150509250925092565b600080600060608486031215612b6a57600080fd5b8335612b75816129f6565b92506020840135612b85816129f6565b929592945050506040919091013590565b7f4e487b7100000000000000000000000000000000000000000000000000000000600052604160045260246000fd5b604051601f82017fffffffffffffffffffffffffffffffffffffffffffffffffffffffffffffffe016810167ffffffffffffffff81118282101715612c0c57612c0c612b96565b604052919050565b600067ffffffffffffffff821115612c2e57612c2e612b96565b50601f017fffffffffffffffffffffffffffffffffffffffffffffffffffffffffffffffe01660200190565b600060208284031215612c6c57600080fd5b813567ffffffffffffffff811115612c8357600080fd5b8201601f81018413612c9457600080fd5b8035612ca7612ca282612c14565b612bc5565b818152856020838501011115612cbc57600080fd5b81602084016020830137600091810160200191909152949350505050565b60005b83811015612cf5578181015183820152602001612cdd565b50506000910152565b60008151808452612d16816020860160208601612cda565b601f017fffffffffffffffffffffffffffffffffffffffffffffffffffffffffffffffe0169290920160200192915050565b73ffffffffffffffffffffffffffffffffffffffff83168152604060208201526000611d916040830184612cfe565b828152604060208201526000611d916040830184612cfe565b7f4e487b7100000000000000000000000000000000000000000000000000000000600052601160045260246000fd5b8181038181111561044157610441612d90565b600060208284031215612de457600080fd5b8151801515811461059557600080fd5b6000612e02612ca284612c14565b9050828152838383011115612e1657600080fd5b610595836020830184612cda565b600060208284031215612e3657600080fd5b815167ffffffffffffffff811115612e4d57600080fd5b8201601f81018413612e5e57600080fd5b611d9184825160208401612df4565b600060208284031215612e7f57600080fd5b815160ff8116811461059557600080fd5b600060208284031215612ea257600080fd5b8151610595816129f6565b60a081526000612ec060a0830188612cfe565b8281036020840152612ed28188612cfe565b905060ff861660408401528281036060840152612eef8186612cfe565b91505073ffffffffffffffffffffffffffffffffffffffff831660808301529695505050505050565b83815260008351612f30816020850160208801612cda565b60209201918201929092526040019392505050565b600080600080600060a08688031215612f5d57600080fd5b8551612f68816129f6565b6020870151909550612f79816129f6565b6040870151909450612f8a816129f6565b6060870151909350612f9b816129f6565b80925050608086015190509295509295909350565b7f4e487b7100000000000000000000000000000000000000000000000000000000600052603260045260246000fd5b808202811582820484141761044157610441612d90565b8082018082111561044157610441612d90565b60007fffffffffffffffffffffffffffffffffffffffffffffffffffffffffffffffff820361303a5761303a612d90565b5060010190565b600080600080600060a0868803121561305957600080fd5b855194506020860151935060408601519250606086015191506080860151613080816129f6565b809150509295509295909350565b7f4e487b7100000000000000000000000000000000000000000000000000000000600052601260045260246000fd5b6000826130cc576130cc61308e565b500690565b6000826130e0576130e061308e565b500490565b600060ff8316806130f8576130f861308e565b8060ff84160691505092915050565b600060ff83168061311a5761311a61308e565b8060ff84160491505092915050565b600181815b8085111561318257817fffffffffffffffffffffffffffffffffffffffffffffffffffffffffffffffff0482111561316857613168612d90565b8085161561317557918102915b93841c939080029061312e565b509250929050565b60008261319957506001610441565b816131a657506000610441565b81600181146131bc57600281146131c6576131e2565b6001915050610441565b60ff8411156131d7576131d7612d90565b50506001821b610441565b5060208310610133831016604e8410600b8410161715613205575081810a610441565b61320f8383613129565b807fffffffffffffffffffffffffffffffffffffffffffffffffffffffffffffffff0482111561324157613241612d90565b029392505050565b6000610595838361318a565b60ff828116828216039081111561044157610441612d9056fea2646970667358221220addef4e91ebb52aa2348d1d070fdf23552480e5ffb5fbc0fd88ac7e2bf67142564736f6c63430008130033",
  "linkReferences": {},
  "deployedLinkReferences": {}
}