{
  "_format": "hh-sol-artifact-1",
  "contractName": "FxERC20FixedSupply",
  "sourceName": "contracts/fx-portal/ERC20/token/FxERC20FixedSupply.sol",
  "abi": [
    {
      "inputs": [
        {
          "internalType": "contract IForwarderRegistry",
          "name": "forwarderRegistry",
          "type": "address"
        }
      ],
      "stateMutability": "nonpayable",
      "type": "constructor"
    },
    {
      "anonymous": false,
      "inputs": [
        {
          "indexed": true,
          "internalType": "address",
          "name": "owner",
          "type": "address"
        },
        {
          "indexed": true,
          "internalType": "address",
          "name": "spender",
          "type": "address"
        },
        {
          "indexed": false,
          "internalType": "uint256",
          "name": "value",
          "type": "uint256"
        }
      ],
      "name": "Approval",
      "type": "event"
    },
    {
      "anonymous": false,
      "inputs": [
        {
          "indexed": true,
          "internalType": "address",
          "name": "previousOwner",
          "type": "address"
        },
        {
          "indexed": true,
          "internalType": "address",
          "name": "newOwner",
          "type": "address"
        }
      ],
      "name": "OwnershipTransferred",
      "type": "event"
    },
    {
      "anonymous": false,
      "inputs": [
        {
          "indexed": true,
          "internalType": "address",
          "name": "from",
          "type": "address"
        },
        {
          "indexed": true,
          "internalType": "address",
          "name": "to",
          "type": "address"
        },
        {
          "indexed": false,
          "internalType": "uint256",
          "name": "value",
          "type": "uint256"
        }
      ],
      "name": "Transfer",
      "type": "event"
    },
    {
      "inputs": [],
      "name": "DOMAIN_SEPARATOR",
      "outputs": [
        {
          "internalType": "bytes32",
          "name": "",
          "type": "bytes32"
        }
      ],
      "stateMutability": "view",
      "type": "function"
    },
    {
      "inputs": [
        {
          "internalType": "address",
          "name": "owner",
          "type": "address"
        },
        {
          "internalType": "address",
          "name": "spender",
          "type": "address"
        }
      ],
      "name": "allowance",
      "outputs": [
        {
          "internalType": "uint256",
          "name": "value",
          "type": "uint256"
        }
      ],
      "stateMutability": "view",
      "type": "function"
    },
    {
      "inputs": [
        {
          "internalType": "address",
          "name": "spender",
          "type": "address"
        },
        {
          "internalType": "uint256",
          "name": "value",
          "type": "uint256"
        }
      ],
      "name": "approve",
      "outputs": [
        {
          "internalType": "bool",
          "name": "result",
          "type": "bool"
        }
      ],
      "stateMutability": "nonpayable",
      "type": "function"
    },
    {
      "inputs": [
        {
          "internalType": "address",
          "name": "owner",
          "type": "address"
        }
      ],
      "name": "balanceOf",
      "outputs": [
        {
          "internalType": "uint256",
          "name": "balance",
          "type": "uint256"
        }
      ],
      "stateMutability": "view",
      "type": "function"
    },
    {
      "inputs": [
        {
          "internalType": "address[]",
          "name": "recipients",
          "type": "address[]"
        },
        {
          "internalType": "uint256[]",
          "name": "values",
          "type": "uint256[]"
        }
      ],
      "name": "batchTransfer",
      "outputs": [
        {
          "internalType": "bool",
          "name": "",
          "type": "bool"
        }
      ],
      "stateMutability": "nonpayable",
      "type": "function"
    },
    {
      "inputs": [
        {
          "internalType": "address",
          "name": "from",
          "type": "address"
        },
        {
          "internalType": "address[]",
          "name": "recipients",
          "type": "address[]"
        },
        {
          "internalType": "uint256[]",
          "name": "values",
          "type": "uint256[]"
        }
      ],
      "name": "batchTransferFrom",
      "outputs": [
        {
          "internalType": "bool",
          "name": "",
          "type": "bool"
        }
      ],
      "stateMutability": "nonpayable",
      "type": "function"
    },
    {
      "inputs": [],
      "name": "connectedToken",
      "outputs": [
        {
          "internalType": "address",
          "name": "",
          "type": "address"
        }
      ],
      "stateMutability": "view",
      "type": "function"
    },
    {
      "inputs": [],
      "name": "decimals",
      "outputs": [
        {
          "internalType": "uint8",
          "name": "",
          "type": "uint8"
        }
      ],
      "stateMutability": "view",
      "type": "function"
    },
    {
      "inputs": [
        {
          "internalType": "address",
          "name": "spender",
          "type": "address"
        },
        {
          "internalType": "uint256",
          "name": "subtractedValue",
          "type": "uint256"
        }
      ],
      "name": "decreaseAllowance",
      "outputs": [
        {
          "internalType": "bool",
          "name": "result",
          "type": "bool"
        }
      ],
      "stateMutability": "nonpayable",
      "type": "function"
    },
    {
      "inputs": [],
      "name": "forwarderRegistry",
      "outputs": [
        {
          "internalType": "contract IForwarderRegistry",
          "name": "",
          "type": "address"
        }
      ],
      "stateMutability": "view",
      "type": "function"
    },
    {
      "inputs": [],
      "name": "fxManager",
      "outputs": [
        {
          "internalType": "address",
          "name": "",
          "type": "address"
        }
      ],
      "stateMutability": "view",
      "type": "function"
    },
    {
      "inputs": [
        {
          "internalType": "address",
          "name": "spender",
          "type": "address"
        },
        {
          "internalType": "uint256",
          "name": "addedValue",
          "type": "uint256"
        }
      ],
      "name": "increaseAllowance",
      "outputs": [
        {
          "internalType": "bool",
          "name": "result",
          "type": "bool"
        }
      ],
      "stateMutability": "nonpayable",
      "type": "function"
    },
    {
      "inputs": [
        {
          "internalType": "address",
          "name": "fxManager_",
          "type": "address"
        },
        {
          "internalType": "address",
          "name": "connectedToken_",
          "type": "address"
        },
        {
          "internalType": "uint256",
          "name": "totalSupply",
          "type": "uint256"
        },
        {
          "internalType": "string",
          "name": "tokenName",
          "type": "string"
        },
        {
          "internalType": "string",
          "name": "tokenSymbol",
          "type": "string"
        },
        {
          "internalType": "uint8",
          "name": "tokenDecimals",
          "type": "uint8"
        },
        {
          "internalType": "string",
          "name": "uri",
          "type": "string"
        },
        {
          "internalType": "address",
          "name": "initialOwner",
          "type": "address"
        }
      ],
      "name": "initialize",
      "outputs": [],
      "stateMutability": "nonpayable",
      "type": "function"
    },
    {
      "inputs": [
        {
          "internalType": "address",
          "name": "forwarder",
          "type": "address"
        }
      ],
      "name": "isTrustedForwarder",
      "outputs": [
        {
          "internalType": "bool",
          "name": "",
          "type": "bool"
        }
      ],
      "stateMutability": "view",
      "type": "function"
    },
    {
      "inputs": [],
      "name": "name",
      "outputs": [
        {
          "internalType": "string",
          "name": "",
          "type": "string"
        }
      ],
      "stateMutability": "view",
      "type": "function"
    },
    {
      "inputs": [
        {
          "internalType": "address",
          "name": "owner",
          "type": "address"
        }
      ],
      "name": "nonces",
      "outputs": [
        {
          "internalType": "uint256",
          "name": "",
          "type": "uint256"
        }
      ],
      "stateMutability": "view",
      "type": "function"
    },
    {
      "inputs": [],
      "name": "owner",
      "outputs": [
        {
          "internalType": "address",
          "name": "",
          "type": "address"
        }
      ],
      "stateMutability": "view",
      "type": "function"
    },
    {
      "inputs": [
        {
          "internalType": "address",
          "name": "owner",
          "type": "address"
        },
        {
          "internalType": "address",
          "name": "spender",
          "type": "address"
        },
        {
          "internalType": "uint256",
          "name": "value",
          "type": "uint256"
        },
        {
          "internalType": "uint256",
          "name": "deadline",
          "type": "uint256"
        },
        {
          "internalType": "uint8",
          "name": "v",
          "type": "uint8"
        },
        {
          "internalType": "bytes32",
          "name": "r",
          "type": "bytes32"
        },
        {
          "internalType": "bytes32",
          "name": "s",
          "type": "bytes32"
        }
      ],
      "name": "permit",
      "outputs": [],
      "stateMutability": "nonpayable",
      "type": "function"
    },
    {
      "inputs": [
        {
          "internalType": "address[]",
          "name": "accounts",
          "type": "address[]"
        },
        {
          "internalType": "contract IERC20[]",
          "name": "tokens",
          "type": "address[]"
        },
        {
          "internalType": "uint256[]",
          "name": "amounts",
          "type": "uint256[]"
        }
      ],
      "name": "recoverERC20s",
      "outputs": [],
      "stateMutability": "nonpayable",
      "type": "function"
    },
    {
      "inputs": [
        {
          "internalType": "address[]",
          "name": "accounts",
          "type": "address[]"
        },
        {
          "internalType": "contract IERC721[]",
          "name": "contracts",
          "type": "address[]"
        },
        {
          "internalType": "uint256[]",
          "name": "tokenIds",
          "type": "uint256[]"
        }
      ],
      "name": "recoverERC721s",
      "outputs": [],
      "stateMutability": "nonpayable",
      "type": "function"
    },
    {
      "inputs": [
        {
          "internalType": "address payable[]",
          "name": "accounts",
          "type": "address[]"
        },
        {
          "internalType": "uint256[]",
          "name": "amounts",
          "type": "uint256[]"
        }
      ],
      "name": "recoverETH",
      "outputs": [],
      "stateMutability": "nonpayable",
      "type": "function"
    },
    {
      "inputs": [
        {
          "internalType": "address",
          "name": "to",
          "type": "address"
        },
        {
          "internalType": "uint256",
          "name": "value",
          "type": "uint256"
        },
        {
          "internalType": "bytes",
          "name": "data",
          "type": "bytes"
        }
      ],
      "name": "safeTransfer",
      "outputs": [
        {
          "internalType": "bool",
          "name": "",
          "type": "bool"
        }
      ],
      "stateMutability": "nonpayable",
      "type": "function"
    },
    {
      "inputs": [
        {
          "internalType": "address",
          "name": "from",
          "type": "address"
        },
        {
          "internalType": "address",
          "name": "to",
          "type": "address"
        },
        {
          "internalType": "uint256",
          "name": "value",
          "type": "uint256"
        },
        {
          "internalType": "bytes",
          "name": "data",
          "type": "bytes"
        }
      ],
      "name": "safeTransferFrom",
      "outputs": [
        {
          "internalType": "bool",
          "name": "",
          "type": "bool"
        }
      ],
      "stateMutability": "nonpayable",
      "type": "function"
    },
    {
      "inputs": [
        {
          "internalType": "string",
          "name": "uri",
          "type": "string"
        }
      ],
      "name": "setTokenURI",
      "outputs": [],
      "stateMutability": "nonpayable",
      "type": "function"
    },
    {
      "inputs": [
        {
          "internalType": "bytes4",
          "name": "interfaceId",
          "type": "bytes4"
        }
      ],
      "name": "supportsInterface",
      "outputs": [
        {
          "internalType": "bool",
          "name": "",
          "type": "bool"
        }
      ],
      "stateMutability": "view",
      "type": "function"
    },
    {
      "inputs": [],
      "name": "symbol",
      "outputs": [
        {
          "internalType": "string",
          "name": "",
          "type": "string"
        }
      ],
      "stateMutability": "view",
      "type": "function"
    },
    {
      "inputs": [],
      "name": "tokenURI",
      "outputs": [
        {
          "internalType": "string",
          "name": "",
          "type": "string"
        }
      ],
      "stateMutability": "view",
      "type": "function"
    },
    {
      "inputs": [],
      "name": "totalSupply",
      "outputs": [
        {
          "internalType": "uint256",
          "name": "supply",
          "type": "uint256"
        }
      ],
      "stateMutability": "view",
      "type": "function"
    },
    {
      "inputs": [
        {
          "internalType": "address",
          "name": "to",
          "type": "address"
        },
        {
          "internalType": "uint256",
          "name": "value",
          "type": "uint256"
        }
      ],
      "name": "transfer",
      "outputs": [
        {
          "internalType": "bool",
          "name": "result",
          "type": "bool"
        }
      ],
      "stateMutability": "nonpayable",
      "type": "function"
    },
    {
      "inputs": [
        {
          "internalType": "address",
          "name": "from",
          "type": "address"
        },
        {
          "internalType": "address",
          "name": "to",
          "type": "address"
        },
        {
          "internalType": "uint256",
          "name": "value",
          "type": "uint256"
        }
      ],
      "name": "transferFrom",
      "outputs": [
        {
          "internalType": "bool",
          "name": "result",
          "type": "bool"
        }
      ],
      "stateMutability": "nonpayable",
      "type": "function"
    },
    {
      "inputs": [
        {
          "internalType": "address",
          "name": "newOwner",
          "type": "address"
        }
      ],
      "name": "transferOwnership",
      "outputs": [],
      "stateMutability": "nonpayable",
      "type": "function"
    }
  ],
  "bytecode": "0x60a06040523480156200001157600080fd5b5060405162003b3538038062003b35833981016040819052620000349162000046565b6001600160a01b031660805262000078565b6000602082840312156200005957600080fd5b81516001600160a01b03811681146200007157600080fd5b9392505050565b608051613a8c620000a960003960008181610292015281816103160152818161273701526127bf0152613a8c6000f3fe608060405234801561001057600080fd5b50600436106101e55760003560e01c80637ecebe001161010f578063b88d4fde116100a2578063e0df5b6f11610071578063e0df5b6f1461043e578063eb79554914610451578063f2fde38b14610464578063f7ba94bd1461047757600080fd5b8063b88d4fde146103f2578063c3666c3614610405578063d505accf14610418578063dd62ed3e1461042b57600080fd5b80639b779153116100de5780639b779153146103b15780639d11b050146103b9578063a457c2d7146103cc578063a9059cbb146103df57600080fd5b80637ecebe001461037b57806388d695b21461038e5780638da5cb5b146103a157806395d89b41146103a957600080fd5b8063313ce567116101875780634885b254116101565780634885b254146102f3578063572b6c051461030657806370a082311461035357806373c8a9581461036657600080fd5b8063313ce567146102b65780633644e515146102d057806339509351146102d85780633c130d90146102eb57600080fd5b80630a8a4914116101c35780630a8a49141461023a57806318160ddd1461026757806323b872dd1461027d5780632b4c9f161461029057600080fd5b806301ffc9a7146101ea57806306fdde0314610212578063095ea7b314610227575b600080fd5b6101fd6101f8366004613160565b61048a565b60405190151581526020015b60405180910390f35b61021a6104a4565b60405161020991906131eb565b6101fd610235366004613230565b6104bb565b6102426104e3565b60405173ffffffffffffffffffffffffffffffffffffffff9091168152602001610209565b61026f61050d565b604051908152602001610209565b6101fd61028b36600461325c565b610521565b7f0000000000000000000000000000000000000000000000000000000000000000610242565b6102be61054c565b60405160ff9091168152602001610209565b61026f610563565b6101fd6102e6366004613230565b61056d565b61021a61058c565b6101fd6103013660046132e9565b610599565b6101fd61031436600461336c565b7f000000000000000000000000000000000000000000000000000000000000000073ffffffffffffffffffffffffffffffffffffffff90811691161490565b61026f61036136600461336c565b6105ca565b610379610374366004613389565b610602565b005b61026f61038936600461336c565b610738565b6101fd61039c366004613423565b610746565b610242610775565b61021a61079c565b6102426107ae565b6103796103c73660046134e2565b6107bb565b6101fd6103da366004613230565b6107ee565b6101fd6103ed366004613230565b61080d565b6101fd6104003660046135cc565b61082c565b610379610413366004613389565b610851565b61037961042636600461362e565b6109f6565b61026f61043936600461369c565b610a1d565b61037961044c3660046136d5565b610a6f565b6101fd61045f366004613717565b610a92565b61037961047236600461336c565b610ab5565b610379610485366004613423565b610ad3565b600061049e82610498610bc1565b90610bef565b92915050565b60606104b66104b1610cc9565b610cf7565b905090565b60006104da6104c8610d8d565b84846104d2610d97565b929190610dc5565b50600192915050565b60006104b66104f0610eb4565b6001015473ffffffffffffffffffffffffffffffffffffffff1690565b60006104b661051a610d97565b6002015490565b600061054261052e610d8d565b858585610539610d97565b93929190610ee2565b5060019392505050565b60006104b6610559610cc9565b6002015460ff1690565b60006104b6610f34565b60006104da61057a610d8d565b8484610584610d97565b929190610fcf565b60606104b66104b161119b565b60006105be6105a6610d8d565b87878787876105b3610d97565b9594939291906111c9565b50600195945050505050565b600061049e826105d8610d97565b9073ffffffffffffffffffffffffffffffffffffffff166000908152602091909152604090205490565b61061b61060d610d8d565b610615611602565b90611630565b84838114801561062a57508082145b610695576040517f08c379a000000000000000000000000000000000000000000000000000000000815260206004820152601d60248201527f5265636f766572793a20696e636f6e73697374656e742061727261797300000060448201526064015b60405180910390fd5b60005b81811461072e576107268888838181106106b4576106b4613767565b90506020020160208101906106c9919061336c565b8585848181106106db576106db613767565b905060200201358888858181106106f4576106f4613767565b9050602002016020810190610709919061336c565b73ffffffffffffffffffffffffffffffffffffffff1691906116b3565b600101610698565b5050505050505050565b600061049e826105d8611745565b6000610769610753610d8d565b8686868661075f610d97565b9493929190611773565b5060015b949350505050565b60006104b6610782611602565b5473ffffffffffffffffffffffffffffffffffffffff1690565b60606104b66107a9610cc9565b611b55565b60006104b6610782610eb4565b6107cd8b8b8a8a8a8a8a8a8a8a611b66565b6107e18b8a6107da610d97565b9190611bdb565b5050505050505050505050565b60006104da6107fb610d8d565b8484610805610d97565b929190611d54565b60006104da61081a610d8d565b8484610824610d97565b929190611ea6565b60006105be610839610d8d565b8787878787610846610d97565b959493929190612087565b61085c61060d610d8d565b84838114801561086b57508082145b6108d1576040517f08c379a000000000000000000000000000000000000000000000000000000000815260206004820152601d60248201527f5265636f766572793a20696e636f6e73697374656e7420617272617973000000604482015260640161068c565b60005b81811461072e578585828181106108ed576108ed613767565b9050602002016020810190610902919061336c565b73ffffffffffffffffffffffffffffffffffffffff166323b872dd308a8a8581811061093057610930613767565b9050602002016020810190610945919061336c565b87878681811061095757610957613767565b6040517fffffffff0000000000000000000000000000000000000000000000000000000060e088901b16815273ffffffffffffffffffffffffffffffffffffffff958616600482015294909316602485015250602090910201356044820152606401600060405180830381600087803b1580156109d357600080fd5b505af11580156109e7573d6000803e3d6000fd5b505050508060010190506108d4565b610a1487878787878787610a08611745565b969594939291906120f4565b50505050505050565b6000610a688383610a2c610d97565b919073ffffffffffffffffffffffffffffffffffffffff9182166000908152600193909301602090815260408085209290931684525290205490565b9392505050565b610a7a61060d610d8d565b610a8e8282610a8761119b565b91906123f0565b5050565b6000610769610a9f610d8d565b86868686610aab610d97565b9493929190612402565b610ad0610ac0610d8d565b82610ac9611602565b919061246e565b50565b610ade61060d610d8d565b82818114610b48576040517f08c379a000000000000000000000000000000000000000000000000000000000815260206004820152601d60248201527f5265636f766572793a20696e636f6e73697374656e7420617272617973000000604482015260640161068c565b60005b818114610bb957610bb1848483818110610b6757610b67613767565b90506020020135878784818110610b8057610b80613767565b9050602002016020810190610b95919061336c565b73ffffffffffffffffffffffffffffffffffffffff169061259a565b600101610b4b565b505050505050565b60008061049e60017fca9d3e17f264b0f3984e2634e94adb37fa3e6a8103f06aeae6fa59e21c769f5e613796565b60007c01000000000000000000000000000000000000000000000000000000007fffffffff00000000000000000000000000000000000000000000000000000000831601610c3f5750600061049e565b7ffe003659000000000000000000000000000000000000000000000000000000007fffffffff00000000000000000000000000000000000000000000000000000000831601610c905750600161049e565b507fffffffff00000000000000000000000000000000000000000000000000000000166000908152602091909152604090205460ff1690565b60008061049e60017f335df4119bbb04f056b33eba33b826d3529129e458faf6daa9924b5a8f3b6a82613796565b6060816000018054610d08906137d0565b80601f0160208091040260200160405190810160405280929190818152602001828054610d34906137d0565b8015610d815780601f10610d5657610100808354040283529160200191610d81565b820191906000526020600020905b815481529060010190602001808311610d6457829003601f168201915b50505050509050919050565b60006104b66126f4565b60008061049e60017f1da92899d3da68bf9787824388a37ea2bfa79780bcef91b9716c390eec8ecbef613796565b73ffffffffffffffffffffffffffffffffffffffff8216610e42576040517f08c379a000000000000000000000000000000000000000000000000000000000815260206004820152601d60248201527f45524332303a20617070726f76616c20746f2061646472657373283029000000604482015260640161068c565b73ffffffffffffffffffffffffffffffffffffffff838116600081815260018701602090815260408083209487168084529482529182902085905590518481527f8c5be1e5ebec7d5bd14f71427d1e84f3dd0314c0f7b2291e5b200ac8c7c3b92591015b60405180910390a350505050565b60008061049e60017ffbf67eff80ed72d4d972e624738c2b5704d828cc6926cf8653e1018c8eef81c0613796565b8373ffffffffffffffffffffffffffffffffffffffff168373ffffffffffffffffffffffffffffffffffffffff1614610f2157610f2185848684611d54565b610f2d85848484611ea6565b5050505050565b6000467f8b73c3c69bb8fe3d512ecc4cf759cc79239f7b179b0ffacaa9a75d522b39400f610f636104b1610cc9565b80516020918201206040805192830193909352918101919091527fc89efdaa54c0f20c7adf612882df0950f5a951637e0307cdcb4c672f298b8bc66060820152608081018290523060a082015260c0016040516020818303038152906040528051906020012091505090565b73ffffffffffffffffffffffffffffffffffffffff821661104c576040517f08c379a000000000000000000000000000000000000000000000000000000000815260206004820152601d60248201527f45524332303a20617070726f76616c20746f2061646472657373283029000000604482015260640161068c565b73ffffffffffffffffffffffffffffffffffffffff8084166000908152600186016020908152604080832093861683529290522054811561112d578082018181116110f3576040517f08c379a000000000000000000000000000000000000000000000000000000000815260206004820152601960248201527f45524332303a20616c6c6f77616e6365206f766572666c6f7700000000000000604482015260640161068c565b73ffffffffffffffffffffffffffffffffffffffff8086166000908152600188016020908152604080832093881683529290522081905590505b8273ffffffffffffffffffffffffffffffffffffffff168473ffffffffffffffffffffffffffffffffffffffff167f8c5be1e5ebec7d5bd14f71427d1e84f3dd0314c0f7b2291e5b200ac8c7c3b9258360405161118c91815260200190565b60405180910390a35050505050565b60008061049e60017ff41bf6a5db26bffdfab174dcf66b31fbba8fdb7e3db040721ce1e62d61839ceb613796565b82818114611233576040517f08c379a000000000000000000000000000000000000000000000000000000000815260206004820152601a60248201527f45524332303a20696e636f6e73697374656e7420617272617973000000000000604482015260640161068c565b806000036112415750610a14565b73ffffffffffffffffffffffffffffffffffffffff86166000908152602089905260408120549080805b84811461151757600089898381811061128657611286613767565b905060200201602081019061129b919061336c565b905073ffffffffffffffffffffffffffffffffffffffff811661131a576040517f08c379a000000000000000000000000000000000000000000000000000000000815260206004820152601d60248201527f45524332303a207472616e7366657220746f2061646472657373283029000000604482015260640161068c565b600088888481811061132e5761132e613767565b905060200201359050806000146114a6578481018581116113ab576040517f08c379a000000000000000000000000000000000000000000000000000000000815260206004820152601660248201527f45524332303a2076616c756573206f766572666c6f7700000000000000000000604482015260640161068c565b8095508273ffffffffffffffffffffffffffffffffffffffff168d73ffffffffffffffffffffffffffffffffffffffff161461143557818f60000160008573ffffffffffffffffffffffffffffffffffffffff1673ffffffffffffffffffffffffffffffffffffffff168152602001908152602001600020600082825401925050819055506114a4565b8682111561149f576040517f08c379a000000000000000000000000000000000000000000000000000000000815260206004820152601b60248201527f45524332303a20696e73756666696369656e742062616c616e63650000000000604482015260640161068c565b938101935b505b8173ffffffffffffffffffffffffffffffffffffffff168c73ffffffffffffffffffffffffffffffffffffffff167fddf252ad1be2c89b69c2b068fc378daa952ba7f163c4a11628f55a4df523b3ef8360405161150591815260200190565b60405180910390a3505060010161126b565b5081158015906115275750808214155b156115c357818303838110611598576040517f08c379a000000000000000000000000000000000000000000000000000000000815260206004820152601b60248201527f45524332303a20696e73756666696369656e742062616c616e63650000000000604482015260640161068c565b73ffffffffffffffffffffffffffffffffffffffff8a16600090815260208d90526040902090820190555b8973ffffffffffffffffffffffffffffffffffffffff168973ffffffffffffffffffffffffffffffffffffffff16146107e1576107e18b8a8c85611d54565b60008061049e60017fc9ed16f33ab3a66c84bfd83099ccb2a8845871e2e1c1928f63797152f0fd54cd613796565b815473ffffffffffffffffffffffffffffffffffffffff828116911614610a8e576040517f08c379a000000000000000000000000000000000000000000000000000000000815260206004820152601860248201527f4f776e6572736869703a206e6f7420746865206f776e65720000000000000000604482015260640161068c565b6040805173ffffffffffffffffffffffffffffffffffffffff8416602482015260448082018490528251808303909101815260649091019091526020810180517bffffffffffffffffffffffffffffffffffffffffffffffffffffffff167fa9059cbb0000000000000000000000000000000000000000000000000000000017905261174090849061283b565b505050565b60008061049e60017f93fe0ff7226b064a4a8f0b09910762afb4bc2441835792c021ffd78cd513011e613796565b828181146117dd576040517f08c379a000000000000000000000000000000000000000000000000000000000815260206004820152601a60248201527f45524332303a20696e636f6e73697374656e7420617272617973000000000000604482015260640161068c565b806000036117eb5750610bb9565b73ffffffffffffffffffffffffffffffffffffffff86166000908152602088905260408120549080805b848114611a9d57600089898381811061183057611830613767565b9050602002016020810190611845919061336c565b905073ffffffffffffffffffffffffffffffffffffffff81166118c4576040517f08c379a000000000000000000000000000000000000000000000000000000000815260206004820152601d60248201527f45524332303a207472616e7366657220746f2061646472657373283029000000604482015260640161068c565b60008888848181106118d8576118d8613767565b90506020020135905080600014611a2c57848101858111611955576040517f08c379a000000000000000000000000000000000000000000000000000000000815260206004820152601660248201527f45524332303a2076616c756573206f766572666c6f7700000000000000000000604482015260640161068c565b8095508273ffffffffffffffffffffffffffffffffffffffff168d73ffffffffffffffffffffffffffffffffffffffff16146119bb5773ffffffffffffffffffffffffffffffffffffffff8316600090815260208f905260409020805483019055611a2a565b86821115611a25576040517f08c379a000000000000000000000000000000000000000000000000000000000815260206004820152601b60248201527f45524332303a20696e73756666696369656e742062616c616e63650000000000604482015260640161068c565b938101935b505b8173ffffffffffffffffffffffffffffffffffffffff168c73ffffffffffffffffffffffffffffffffffffffff167fddf252ad1be2c89b69c2b068fc378daa952ba7f163c4a11628f55a4df523b3ef83604051611a8b91815260200190565b60405180910390a35050600101611815565b508115801590611aad5750808214155b15611b4957818303838110611b1e576040517f08c379a000000000000000000000000000000000000000000000000000000000815260206004820152601b60248201527f45524332303a20696e73756666696369656e742062616c616e63650000000000604482015260640161068c565b73ffffffffffffffffffffffffffffffffffffffff8a16600090815260208c90526040902090820190555b50505050505050505050565b6060816001018054610d08906137d0565b611b6e612947565b611b888888888888611b7e610cc9565b94939291906129ab565b611b90612a61565b611b9d8383610a8761119b565b611ba5612a91565b611bad612abf565b611bb5612aed565b611bc98a8a611bc2610eb4565b9190612b1b565b611b4981611bd5611602565b90612b9b565b73ffffffffffffffffffffffffffffffffffffffff8216611c58576040517f08c379a000000000000000000000000000000000000000000000000000000000815260206004820152601960248201527f45524332303a206d696e7420746f206164647265737328302900000000000000604482015260640161068c565b8015611d01576002830154818101818111611ccf576040517f08c379a000000000000000000000000000000000000000000000000000000000815260206004820152601660248201527f45524332303a20737570706c79206f766572666c6f7700000000000000000000604482015260640161068c565b60028501555073ffffffffffffffffffffffffffffffffffffffff821660009081526020849052604090208054820190555b60405181815273ffffffffffffffffffffffffffffffffffffffff8316906000907fddf252ad1be2c89b69c2b068fc378daa952ba7f163c4a11628f55a4df523b3ef9060200160405180910390a3505050565b73ffffffffffffffffffffffffffffffffffffffff8216611dd1576040517f08c379a000000000000000000000000000000000000000000000000000000000815260206004820152601d60248201527f45524332303a20617070726f76616c20746f2061646472657373283029000000604482015260640161068c565b73ffffffffffffffffffffffffffffffffffffffff80841660009081526001860160209081526040808320938616835292905220547fffffffffffffffffffffffffffffffffffffffffffffffffffffffffffffffff8114801590611e3557508115155b1561112d578181038181106110f3576040517f08c379a000000000000000000000000000000000000000000000000000000000815260206004820152601d60248201527f45524332303a20696e73756666696369656e7420616c6c6f77616e6365000000604482015260640161068c565b73ffffffffffffffffffffffffffffffffffffffff8216611f23576040517f08c379a000000000000000000000000000000000000000000000000000000000815260206004820152601d60248201527f45524332303a207472616e7366657220746f2061646472657373283029000000604482015260640161068c565b80156120285773ffffffffffffffffffffffffffffffffffffffff8316600090815260208590526040902054818103818110611fbb576040517f08c379a000000000000000000000000000000000000000000000000000000000815260206004820152601b60248201527f45524332303a20696e73756666696369656e742062616c616e63650000000000604482015260640161068c565b8373ffffffffffffffffffffffffffffffffffffffff168573ffffffffffffffffffffffffffffffffffffffff16146120255773ffffffffffffffffffffffffffffffffffffffff8086166000908152602088905260408082208490559186168152208054840190555b50505b8173ffffffffffffffffffffffffffffffffffffffff168373ffffffffffffffffffffffffffffffffffffffff167fddf252ad1be2c89b69c2b068fc378daa952ba7f163c4a11628f55a4df523b3ef83604051610ea691815260200190565b6120948787878787610ee2565b73ffffffffffffffffffffffffffffffffffffffff84163b15610a1457610a148686868686868080601f016020809104026020016040519081016040528093929190818152602001838380828437600092019190915250612bd392505050565b73ffffffffffffffffffffffffffffffffffffffff8716612171576040517f08c379a000000000000000000000000000000000000000000000000000000000815260206004820152601d60248201527f45524332303a207065726d69742066726f6d2061646472657373283029000000604482015260640161068c565b834211156121db576040517f08c379a000000000000000000000000000000000000000000000000000000000815260206004820152601560248201527f45524332303a2065787069726564207065726d69740000000000000000000000604482015260640161068c565b73ffffffffffffffffffffffffffffffffffffffff878116600081815260208b8152604080832080546001810190915581517f6e71edae12b1b97f4d1f60370fef10105fa2faae0126114a169c64845d6126c98185015280830195909552948b166060850152608084018a905260a084019490945260c08084018990528451808503909101815260e0909301909352815191909201209061227a610f34565b6040517f19010000000000000000000000000000000000000000000000000000000000006020820152602281019190915260428101839052606201604080517fffffffffffffffffffffffffffffffffffffffffffffffffffffffffffffffe08184030181528282528051602091820120600080855291840180845281905260ff89169284019290925260608301879052608083018690529092509060019060a0016020604051602081039080840390855afa15801561233e573d6000803e3d6000fd5b5050506020604051035190508973ffffffffffffffffffffffffffffffffffffffff168173ffffffffffffffffffffffffffffffffffffffff16146123df576040517f08c379a000000000000000000000000000000000000000000000000000000000815260206004820152601560248201527f45524332303a20696e76616c6964207065726d69740000000000000000000000604482015260640161068c565b50505061072e8787876104d2610d97565b826123fc828483613898565b50505050565b61240e86868686611ea6565b73ffffffffffffffffffffffffffffffffffffffff84163b15610bb957610bb98586868686868080601f016020809104026020016040519081016040528093929190818152602001838380828437600092019190915250612bd392505050565b825473ffffffffffffffffffffffffffffffffffffffff90811690831681146124f3576040517f08c379a000000000000000000000000000000000000000000000000000000000815260206004820152601860248201527f4f776e6572736869703a206e6f7420746865206f776e65720000000000000000604482015260640161068c565b8173ffffffffffffffffffffffffffffffffffffffff168173ffffffffffffffffffffffffffffffffffffffff16146123fc5783547fffffffffffffffffffffffff00000000000000000000000000000000000000001673ffffffffffffffffffffffffffffffffffffffff8381169182178655604051908316907f8be0079c531659141344cd1fd0a4f28419497f9722a3daafe3b4186f6b6457e090600090a350505050565b80471015612604576040517f08c379a000000000000000000000000000000000000000000000000000000000815260206004820152601d60248201527f416464726573733a20696e73756666696369656e742062616c616e6365000000604482015260640161068c565b60008273ffffffffffffffffffffffffffffffffffffffff168260405160006040518083038185875af1925050503d806000811461265e576040519150601f19603f3d011682016040523d82523d6000602084013e612663565b606091505b5050905080611740576040517f08c379a000000000000000000000000000000000000000000000000000000000815260206004820152603a60248201527f416464726573733a20756e61626c6520746f2073656e642076616c75652c207260448201527f6563697069656e74206d61792068617665207265766572746564000000000000606482015260840161068c565b6000333214806127045750601836105b1561270e57503390565b7fffffffffffffffffffffffffffffffffffffffffffffffffffffffffffffffec36013560601c7f000000000000000000000000000000000000000000000000000000000000000073ffffffffffffffffffffffffffffffffffffffff1633148061282a57506040517f8929a8ca00000000000000000000000000000000000000000000000000000000815273ffffffffffffffffffffffffffffffffffffffff82811660048301523360248301527f00000000000000000000000000000000000000000000000000000000000000001690638929a8ca90604401602060405180830381865afa158015612806573d6000803e3d6000fd5b505050506040513d601f19601f8201168201806040525081019061282a91906139b2565b1561283457919050565b3391505090565b600061289d826040518060400160405280602081526020017f5361666545524332303a206c6f772d6c6576656c2063616c6c206661696c65648152508573ffffffffffffffffffffffffffffffffffffffff16612cf99092919063ffffffff16565b80519091501561174057808060200190518101906128bb91906139b2565b611740576040517f08c379a000000000000000000000000000000000000000000000000000000000815260206004820152602a60248201527f5361666545524332303a204552433230206f7065726174696f6e20646964206e60448201527f6f74207375636365656400000000000000000000000000000000000000000000606482015260840161068c565b6000612951610bc1565b905061297f817f36372b07000000000000000000000000000000000000000000000000000000006001612d08565b610ad0817f9d075186000000000000000000000000000000000000000000000000000000006001612d08565b6129e06129d960017fd217496980d1cb14720b20a80af36676bbece8e5feeb5d8970a9681a2c76bb75613796565b6001612e14565b856129ec858783613898565b50600186016129fc838583613898565b506002860180547fffffffffffffffffffffffffffffffffffffffffffffffffffffffffffffff001660ff8316179055610bb97fa219a025000000000000000000000000000000000000000000000000000000006001612a5a610bc1565b9190612d08565b612a8f7f3c130d90000000000000000000000000000000000000000000000000000000006001612a5a610bc1565b565b612a8f7f9d8ff7da000000000000000000000000000000000000000000000000000000006001612a5a610bc1565b612a8f7fc05327e6000000000000000000000000000000000000000000000000000000006001612a5a610bc1565b612a8f7f53f41a97000000000000000000000000000000000000000000000000000000006001612a5a610bc1565b612b496129d960017f207034c18a9defc6f1e4e1ae46a487e86951456577b7bce22778749189164d2a613796565b82547fffffffffffffffffffffffff000000000000000000000000000000000000000090811673ffffffffffffffffffffffffffffffffffffffff938416178455600190930180549093169116179055565b612bc96129d960017f5b388d90dc1312ba799f321972f13311234fa1163bcabec7cf66101c4876eb84613796565b610a8e8282612e84565b6040517f4fc35859000000000000000000000000000000000000000000000000000000008082529073ffffffffffffffffffffffffffffffffffffffff851690634fc3585990612c2d9089908990889088906004016139d4565b6020604051808303816000875af1158015612c4c573d6000803e3d6000fd5b505050506040513d601f19601f82011682018060405250810190612c709190613a1d565b7fffffffff000000000000000000000000000000000000000000000000000000001614610f2d576040517f08c379a000000000000000000000000000000000000000000000000000000000815260206004820152601d60248201527f45524332303a2073616665207472616e736665722072656a6563746564000000604482015260640161068c565b606061076d8484600085612f3a565b7c01000000000000000000000000000000000000000000000000000000007fffffffff00000000000000000000000000000000000000000000000000000000831601612db0576040517f08c379a000000000000000000000000000000000000000000000000000000000815260206004820152601f60248201527f496e74657266616365446574656374696f6e3a2077726f6e672076616c756500604482015260640161068c565b7fffffffff00000000000000000000000000000000000000000000000000000000919091166000908152602092909252604090912080547fffffffffffffffffffffffffffffffffffffffffffffffffffffffffffffff0016911515919091179055565b815482908211612e80576040517f08c379a000000000000000000000000000000000000000000000000000000000815260206004820152601660248201527f53746f726167653a207068617365207265616368656400000000000000000000604482015260640161068c565b5550565b73ffffffffffffffffffffffffffffffffffffffff811615612f0c5781547fffffffffffffffffffffffff00000000000000000000000000000000000000001673ffffffffffffffffffffffffffffffffffffffff821690811783556040516000907f8be0079c531659141344cd1fd0a4f28419497f9722a3daafe3b4186f6b6457e0908290a35b610a8e7f7f5828d0000000000000000000000000000000000000000000000000000000006001612a5a610bc1565b606082471015612fcc576040517f08c379a000000000000000000000000000000000000000000000000000000000815260206004820152602660248201527f416464726573733a20696e73756666696369656e742062616c616e636520666f60448201527f722063616c6c0000000000000000000000000000000000000000000000000000606482015260840161068c565b6000808673ffffffffffffffffffffffffffffffffffffffff168587604051612ff59190613a3a565b60006040518083038185875af1925050503d8060008114613032576040519150601f19603f3d011682016040523d82523d6000602084013e613037565b606091505b509150915061304887838387613053565b979650505050505050565b606083156130e95782516000036130e25773ffffffffffffffffffffffffffffffffffffffff85163b6130e2576040517f08c379a000000000000000000000000000000000000000000000000000000000815260206004820152601d60248201527f416464726573733a2063616c6c20746f206e6f6e2d636f6e7472616374000000604482015260640161068c565b508161076d565b61076d83838151156130fe5781518083602001fd5b806040517f08c379a000000000000000000000000000000000000000000000000000000000815260040161068c91906131eb565b7fffffffff0000000000000000000000000000000000000000000000000000000081168114610ad057600080fd5b60006020828403121561317257600080fd5b8135610a6881613132565b60005b83811015613198578181015183820152602001613180565b50506000910152565b600081518084526131b981602086016020860161317d565b601f017fffffffffffffffffffffffffffffffffffffffffffffffffffffffffffffffe0169290920160200192915050565b602081526000610a6860208301846131a1565b73ffffffffffffffffffffffffffffffffffffffff81168114610ad057600080fd5b803561322b816131fe565b919050565b6000806040838503121561324357600080fd5b823561324e816131fe565b946020939093013593505050565b60008060006060848603121561327157600080fd5b833561327c816131fe565b9250602084013561328c816131fe565b929592945050506040919091013590565b60008083601f8401126132af57600080fd5b50813567ffffffffffffffff8111156132c757600080fd5b6020830191508360208260051b85010111156132e257600080fd5b9250929050565b60008060008060006060868803121561330157600080fd5b853561330c816131fe565b9450602086013567ffffffffffffffff8082111561332957600080fd5b61333589838a0161329d565b9096509450604088013591508082111561334e57600080fd5b5061335b8882890161329d565b969995985093965092949392505050565b60006020828403121561337e57600080fd5b8135610a68816131fe565b600080600080600080606087890312156133a257600080fd5b863567ffffffffffffffff808211156133ba57600080fd5b6133c68a838b0161329d565b909850965060208901359150808211156133df57600080fd5b6133eb8a838b0161329d565b9096509450604089013591508082111561340457600080fd5b5061341189828a0161329d565b979a9699509497509295939492505050565b6000806000806040858703121561343957600080fd5b843567ffffffffffffffff8082111561345157600080fd5b61345d8883890161329d565b9096509450602087013591508082111561347657600080fd5b506134838782880161329d565b95989497509550505050565b60008083601f8401126134a157600080fd5b50813567ffffffffffffffff8111156134b957600080fd5b6020830191508360208285010111156132e257600080fd5b803560ff8116811461322b57600080fd5b60008060008060008060008060008060006101008c8e03121561350457600080fd5b61350d8c613220565b9a5061351b60208d01613220565b995060408c0135985067ffffffffffffffff8060608e0135111561353e57600080fd5b61354e8e60608f01358f0161348f565b909950975060808d013581101561356457600080fd5b6135748e60808f01358f0161348f565b909750955061358560a08e016134d1565b94508060c08e0135111561359857600080fd5b506135a98d60c08e01358e0161348f565b90935091506135ba60e08d01613220565b90509295989b509295989b9093969950565b6000806000806000608086880312156135e457600080fd5b85356135ef816131fe565b945060208601356135ff816131fe565b935060408601359250606086013567ffffffffffffffff81111561362257600080fd5b61335b8882890161348f565b600080600080600080600060e0888a03121561364957600080fd5b8735613654816131fe565b96506020880135613664816131fe565b95506040880135945060608801359350613680608089016134d1565b925060a0880135915060c0880135905092959891949750929550565b600080604083850312156136af57600080fd5b82356136ba816131fe565b915060208301356136ca816131fe565b809150509250929050565b600080602083850312156136e857600080fd5b823567ffffffffffffffff8111156136ff57600080fd5b61370b8582860161348f565b90969095509350505050565b6000806000806060858703121561372d57600080fd5b8435613738816131fe565b935060208501359250604085013567ffffffffffffffff81111561375b57600080fd5b6134838782880161348f565b7f4e487b7100000000000000000000000000000000000000000000000000000000600052603260045260246000fd5b8181038181111561049e577f4e487b7100000000000000000000000000000000000000000000000000000000600052601160045260246000fd5b600181811c908216806137e457607f821691505b60208210810361381d577f4e487b7100000000000000000000000000000000000000000000000000000000600052602260045260246000fd5b50919050565b7f4e487b7100000000000000000000000000000000000000000000000000000000600052604160045260246000fd5b601f82111561174057600081815260208120601f850160051c810160208610156138795750805b601f850160051c820191505b81811015610bb957828155600101613885565b67ffffffffffffffff8311156138b0576138b0613823565b6138c4836138be83546137d0565b83613852565b6000601f84116001811461391657600085156138e05750838201355b7fffffffffffffffffffffffffffffffffffffffffffffffffffffffffffffffff600387901b1c1916600186901b178355610f2d565b6000838152602090207fffffffffffffffffffffffffffffffffffffffffffffffffffffffffffffffe0861690835b828110156139655786850135825560209485019460019092019101613945565b50868210156139a0577fffffffffffffffffffffffffffffffffffffffffffffffffffffffffffffffff60f88860031b161c19848701351681555b505060018560011b0183555050505050565b6000602082840312156139c457600080fd5b81518015158114610a6857600080fd5b600073ffffffffffffffffffffffffffffffffffffffff808716835280861660208401525083604083015260806060830152613a1360808301846131a1565b9695505050505050565b600060208284031215613a2f57600080fd5b8151610a6881613132565b60008251613a4c81846020870161317d565b919091019291505056fea26469706673582212203b33da9531f5739bb38a13135abf5af9e52da9577ae8f6ef1d9c6f5f82a1ab9164736f6c63430008110033",
  "linkReferences": {},
  "deployedLinkReferences": {}
}