{
  "_format": "hh-sol-artifact-1",
  "contractName": "StateSenderMock",
  "sourceName": "contracts/mocks/fx-portal/StateSenderMock.sol",
  "abi": [
    {
      "anonymous": false,
      "inputs": [
        {
          "indexed": true,
          "internalType": "uint256",
          "name": "id",
          "type": "uint256"
        },
        {
          "indexed": true,
          "internalType": "address",
          "name": "contractAddress",
          "type": "address"
        },
        {
          "indexed": false,
          "internalType": "bytes",
          "name": "data",
          "type": "bytes"
        }
      ],
      "name": "StateSynced",
      "type": "event"
    },
    {
      "inputs": [
        {
          "internalType": "address",
          "name": "receiver",
          "type": "address"
        },
        {
          "internalType": "bytes",
          "name": "data",
          "type": "bytes"
        }
      ],
      "name": "syncState",
      "outputs": [],
      "stateMutability": "nonpayable",
      "type": "function"
    }
  ],
  "bytecode": "0x6080604052348015600f57600080fd5b506101bf8061001f6000396000f3fe608060405234801561001057600080fd5b506004361061002b5760003560e01c806316f1983114610030575b600080fd5b61004361003e36600461009c565b610045565b005b8273ffffffffffffffffffffffffffffffffffffffff1660007f103fed9db65eac19c4d870f49ab7520fe03b99f1838e5996caf47e9e43308392848460405161008f92919061013c565b60405180910390a3505050565b6000806000604084860312156100b157600080fd5b833573ffffffffffffffffffffffffffffffffffffffff811681146100d557600080fd5b9250602084013567ffffffffffffffff8111156100f157600080fd5b8401601f8101861361010257600080fd5b803567ffffffffffffffff81111561011957600080fd5b86602082840101111561012b57600080fd5b939660209190910195509293505050565b60208152816020820152818360408301376000818301604090810191909152601f9092017fffffffffffffffffffffffffffffffffffffffffffffffffffffffffffffffe016010191905056fea264697066735822122035e2cfa0ef194e3e91a5cb08498d85d85fcced22420d5d95c45def7dc3ee5d8c64736f6c634300081c0033",
  "linkReferences": {},
  "deployedLinkReferences": {}
}