{
  "_format": "hh-sol-artifact-1",
  "contractName": "FxERC20FixedSupplyChildTunnel",
  "sourceName": "contracts/fx-portal/tunnel/ERC20/FxERC20FixedSupplyChildTunnel.sol",
  "abi": [
    {
      "inputs": [
        {
          "internalType": "address",
          "name": "fxChild",
          "type": "address"
        },
        {
          "internalType": "address",
          "name": "childTokenLogic",
          "type": "address"
        },
        {
          "internalType": "contract IForwarderRegistry",
          "name": "forwarderRegistry",
          "type": "address"
        }
      ],
      "stateMutability": "nonpayable",
      "type": "constructor"
    },
    {
      "inputs": [],
      "name": "FxERC20ChildTokenLogicNotContract",
      "type": "error"
    },
    {
      "inputs": [
        {
          "internalType": "bytes32",
          "name": "syncType",
          "type": "bytes32"
        }
      ],
      "name": "FxERC20InvalidSyncType",
      "type": "error"
    },
    {
      "inputs": [],
      "name": "FxERC20InvalidWithdrawalAddress",
      "type": "error"
    },
    {
      "inputs": [
        {
          "internalType": "address",
          "name": "rootToken",
          "type": "address"
        },
        {
          "internalType": "address",
          "name": "childToken",
          "type": "address"
        }
      ],
      "name": "FxERC20TokenAlreadyMapped",
      "type": "error"
    },
    {
      "inputs": [],
      "name": "FxERC20TokenNotMapped",
      "type": "error"
    },
    {
      "anonymous": false,
      "inputs": [
        {
          "indexed": true,
          "internalType": "address",
          "name": "rootToken",
          "type": "address"
        },
        {
          "indexed": true,
          "internalType": "address",
          "name": "childToken",
          "type": "address"
        },
        {
          "indexed": false,
          "internalType": "address",
          "name": "depositor",
          "type": "address"
        },
        {
          "indexed": false,
          "internalType": "address",
          "name": "recipient",
          "type": "address"
        },
        {
          "indexed": false,
          "internalType": "uint256",
          "name": "amount",
          "type": "uint256"
        }
      ],
      "name": "FxERC20Deposit",
      "type": "event"
    },
    {
      "anonymous": false,
      "inputs": [
        {
          "indexed": true,
          "internalType": "address",
          "name": "rootToken",
          "type": "address"
        },
        {
          "indexed": true,
          "internalType": "address",
          "name": "childToken",
          "type": "address"
        }
      ],
      "name": "FxERC20TokenMapping",
      "type": "event"
    },
    {
      "anonymous": false,
      "inputs": [
        {
          "indexed": true,
          "internalType": "address",
          "name": "rootToken",
          "type": "address"
        },
        {
          "indexed": true,
          "internalType": "address",
          "name": "childToken",
          "type": "address"
        },
        {
          "indexed": false,
          "internalType": "address",
          "name": "withdrawer",
          "type": "address"
        },
        {
          "indexed": false,
          "internalType": "address",
          "name": "recipient",
          "type": "address"
        },
        {
          "indexed": false,
          "internalType": "uint256",
          "name": "amount",
          "type": "uint256"
        }
      ],
      "name": "FxERC20Withdrawal",
      "type": "event"
    },
    {
      "anonymous": false,
      "inputs": [
        {
          "indexed": false,
          "internalType": "bytes",
          "name": "message",
          "type": "bytes"
        }
      ],
      "name": "MessageSent",
      "type": "event"
    },
    {
      "inputs": [],
      "name": "DEPOSIT",
      "outputs": [
        {
          "internalType": "bytes32",
          "name": "",
          "type": "bytes32"
        }
      ],
      "stateMutability": "view",
      "type": "function"
    },
    {
      "inputs": [],
      "name": "MAP_TOKEN",
      "outputs": [
        {
          "internalType": "bytes32",
          "name": "",
          "type": "bytes32"
        }
      ],
      "stateMutability": "view",
      "type": "function"
    },
    {
      "inputs": [],
      "name": "PREFIX_SYMBOL",
      "outputs": [
        {
          "internalType": "string",
          "name": "",
          "type": "string"
        }
      ],
      "stateMutability": "view",
      "type": "function"
    },
    {
      "inputs": [],
      "name": "SUFFIX_NAME",
      "outputs": [
        {
          "internalType": "string",
          "name": "",
          "type": "string"
        }
      ],
      "stateMutability": "view",
      "type": "function"
    },
    {
      "inputs": [],
      "name": "childTokenLogic",
      "outputs": [
        {
          "internalType": "address",
          "name": "",
          "type": "address"
        }
      ],
      "stateMutability": "view",
      "type": "function"
    },
    {
      "inputs": [
        {
          "internalType": "bytes32",
          "name": "salt",
          "type": "bytes32"
        },
        {
          "internalType": "bytes32",
          "name": "bytecodeHash",
          "type": "bytes32"
        },
        {
          "internalType": "address",
          "name": "deployer",
          "type": "address"
        }
      ],
      "name": "computedCreate2Address",
      "outputs": [
        {
          "internalType": "address",
          "name": "",
          "type": "address"
        }
      ],
      "stateMutability": "pure",
      "type": "function"
    },
    {
      "inputs": [],
      "name": "forwarderRegistry",
      "outputs": [
        {
          "internalType": "contract IForwarderRegistry",
          "name": "",
          "type": "address"
        }
      ],
      "stateMutability": "view",
      "type": "function"
    },
    {
      "inputs": [],
      "name": "fxChild",
      "outputs": [
        {
          "internalType": "address",
          "name": "",
          "type": "address"
        }
      ],
      "stateMutability": "view",
      "type": "function"
    },
    {
      "inputs": [],
      "name": "fxRootTunnel",
      "outputs": [
        {
          "internalType": "address",
          "name": "",
          "type": "address"
        }
      ],
      "stateMutability": "view",
      "type": "function"
    },
    {
      "inputs": [
        {
          "internalType": "address",
          "name": "forwarder",
          "type": "address"
        }
      ],
      "name": "isTrustedForwarder",
      "outputs": [
        {
          "internalType": "bool",
          "name": "",
          "type": "bool"
        }
      ],
      "stateMutability": "view",
      "type": "function"
    },
    {
      "inputs": [
        {
          "internalType": "address",
          "name": "",
          "type": "address"
        },
        {
          "internalType": "address",
          "name": "from",
          "type": "address"
        },
        {
          "internalType": "uint256",
          "name": "value",
          "type": "uint256"
        },
        {
          "internalType": "bytes",
          "name": "data",
          "type": "bytes"
        }
      ],
      "name": "onERC20Received",
      "outputs": [
        {
          "internalType": "bytes4",
          "name": "magicValue",
          "type": "bytes4"
        }
      ],
      "stateMutability": "nonpayable",
      "type": "function"
    },
    {
      "inputs": [
        {
          "internalType": "uint256",
          "name": "stateId",
          "type": "uint256"
        },
        {
          "internalType": "address",
          "name": "rootMessageSender",
          "type": "address"
        },
        {
          "internalType": "bytes",
          "name": "data",
          "type": "bytes"
        }
      ],
      "name": "processMessageFromRoot",
      "outputs": [],
      "stateMutability": "nonpayable",
      "type": "function"
    },
    {
      "inputs": [
        {
          "internalType": "address",
          "name": "",
          "type": "address"
        }
      ],
      "name": "rootToChildToken",
      "outputs": [
        {
          "internalType": "address",
          "name": "",
          "type": "address"
        }
      ],
      "stateMutability": "view",
      "type": "function"
    },
    {
      "inputs": [
        {
          "internalType": "address",
          "name": "_fxRootTunnel",
          "type": "address"
        }
      ],
      "name": "setFxRootTunnel",
      "outputs": [],
      "stateMutability": "nonpayable",
      "type": "function"
    },
    {
      "inputs": [
        {
          "internalType": "bytes4",
          "name": "interfaceId",
          "type": "bytes4"
        }
      ],
      "name": "supportsInterface",
      "outputs": [
        {
          "internalType": "bool",
          "name": "",
          "type": "bool"
        }
      ],
      "stateMutability": "view",
      "type": "function"
    },
    {
      "inputs": [
        {
          "internalType": "address",
          "name": "childToken",
          "type": "address"
        },
        {
          "internalType": "uint256",
          "name": "amount",
          "type": "uint256"
        }
      ],
      "name": "withdraw",
      "outputs": [],
      "stateMutability": "nonpayable",
      "type": "function"
    },
    {
      "inputs": [
        {
          "internalType": "address",
          "name": "childToken",
          "type": "address"
        },
        {
          "internalType": "address",
          "name": "receiver",
          "type": "address"
        },
        {
          "internalType": "uint256",
          "name": "amount",
          "type": "uint256"
        }
      ],
      "name": "withdrawTo",
      "outputs": [],
      "stateMutability": "nonpayable",
      "type": "function"
    }
  ],
  "bytecode": "0x60c06040523480156200001157600080fd5b5060405162001fda38038062001fda83398101604081905262000034916200019e565b600080546001600160a01b0319166001600160a01b038516179055828282808062000074634fc3585960e01b60016200006c620000bf565b9190620000f5565b6001600160a01b0390811660805283163b15159050620000a757604051630a1ae39360e11b815260040160405180910390fd5b506001600160a01b031660a052506200021492505050565b600080620000ef60017fca9d3e17f264b0f3984e2634e94adb37fa3e6a8103f06aeae6fa59e21c769f5e620001f2565b92915050565b600160e01b6001600160e01b0319831601620001575760405162461bcd60e51b815260206004820152601f60248201527f496e74657266616365446574656374696f6e3a2077726f6e672076616c756500604482015260640160405180910390fd5b6001600160e01b03199190911660009081526020929092526040909120805460ff1916911515919091179055565b6001600160a01b03811681146200019b57600080fd5b50565b600080600060608486031215620001b457600080fd5b8351620001c18162000185565b6020850151909350620001d48162000185565b6040850151909250620001e78162000185565b809150509250925092565b81810381811115620000ef57634e487b7160e01b600052601160045260246000fd5b60805160a051611d8462000256600039600081816102ca0152610f3801526000818161014a0152818161028801528181610c250152610cad0152611d846000f3fe608060405234801561001057600080fd5b506004361061011b5760003560e01c80637337957f116100b25780639a7c4b7111610081578063d81c8e5211610066578063d81c8e5214610410578063ea60c7c414610437578063f3fef3a31461046d57600080fd5b80639a7c4b71146103ea578063c3b35a7e146103fd57600080fd5b80637337957f146102ec5780637f1e9cb014610380578063886a69ba146103a057806388837094146103d557600080fd5b8063450d11f0116100ee578063450d11f0146102145780634fc3585914610234578063572b6c051461027857806360dc23fc146102c557600080fd5b806301ffc9a7146101205780632b4c9f16146101485780633740d5a01461018f57806339c6c9e0146101d8575b600080fd5b61013361012e3660046116c2565b610480565b60405190151581526020015b60405180910390f35b7f00000000000000000000000000000000000000000000000000000000000000005b60405173ffffffffffffffffffffffffffffffffffffffff909116815260200161013f565b6101cb6040518060400160405280600181526020017f700000000000000000000000000000000000000000000000000000000000000081525081565b60405161013f9190611779565b6101cb6040518060400160405280600a81526020017f2028506f6c79676f6e290000000000000000000000000000000000000000000081525081565b60005461016a9073ffffffffffffffffffffffffffffffffffffffff1681565b6102476102423660046117fa565b61049a565b6040517fffffffff00000000000000000000000000000000000000000000000000000000909116815260200161013f565b61013361028636600461186d565b7f000000000000000000000000000000000000000000000000000000000000000073ffffffffffffffffffffffffffffffffffffffff90811691161490565b61016a7f000000000000000000000000000000000000000000000000000000000000000081565b61016a6102fa36600461188a565b604080517fff0000000000000000000000000000000000000000000000000000000000000060208083019190915260609390931b7fffffffffffffffffffffffffffffffffffffffff0000000000000000000000001660218201526035810194909452605580850193909352805180850390930183526075909301909252805191012090565b60015461016a9073ffffffffffffffffffffffffffffffffffffffff1681565b6103c77f2cef46a936bdc5b7e6e8c71aa04560c41cf7d88bb26901a7e7f4936ff02accad81565b60405190815260200161013f565b6103e86103e336600461186d565b610536565b005b6103e86103f83660046118c3565b610628565b6103e861040b36600461191f565b610716565b6103c77f87a7811f4bfedea3d341ad165680ae306b01aaeacc205d227629cf157dd9f82181565b61016a61044536600461186d565b60026020526000908152604090205473ffffffffffffffffffffffffffffffffffffffff1681565b6103e861047b366004611960565b610786565b60006104948261048e6107ae565b906107dc565b92915050565b60008482156104fe576104af8385018561186d565b905073ffffffffffffffffffffffffffffffffffffffff81166104fe576040517fcb13d6aa00000000000000000000000000000000000000000000000000000000815260040160405180910390fd5b61050a338783886108b6565b507f4fc35859000000000000000000000000000000000000000000000000000000009695505050505050565b60015473ffffffffffffffffffffffffffffffffffffffff16156105e1576040517f08c379a000000000000000000000000000000000000000000000000000000000815260206004820152602a60248201527f4678426173654368696c6454756e6e656c3a20524f4f545f54554e4e454c5f4160448201527f4c52454144595f5345540000000000000000000000000000000000000000000060648201526084015b60405180910390fd5b600180547fffffffffffffffffffffffff00000000000000000000000000000000000000001673ffffffffffffffffffffffffffffffffffffffff92909216919091179055565b60005473ffffffffffffffffffffffffffffffffffffffff1633146106cf576040517f08c379a000000000000000000000000000000000000000000000000000000000815260206004820152602160248201527f4678426173654368696c6454756e6e656c3a20494e56414c49445f53454e444560448201527f520000000000000000000000000000000000000000000000000000000000000060648201526084016105d8565b610710848484848080601f016020809104026020016040519081016040528093929190818152602001838380828437600092019190915250610a7392505050565b50505050565b73ffffffffffffffffffffffffffffffffffffffff8216610763576040517fcb13d6aa00000000000000000000000000000000000000000000000000000000815260040160405180910390fd5b600061076d610be2565b905061077b848285856108b6565b610710848284610d29565b6000610790610be2565b905061079e838283856108b6565b6107a9838284610d29565b505050565b60008061049460017fca9d3e17f264b0f3984e2634e94adb37fa3e6a8103f06aeae6fa59e21c769f5e61198c565b60007c01000000000000000000000000000000000000000000000000000000007fffffffff0000000000000000000000000000000000000000000000000000000083160161082c57506000610494565b7ffe003659000000000000000000000000000000000000000000000000000000007fffffffff0000000000000000000000000000000000000000000000000000000083160161087d57506001610494565b507fffffffff00000000000000000000000000000000000000000000000000000000166000908152602091909152604090205460ff1690565b60008473ffffffffffffffffffffffffffffffffffffffff16630a8a49146040518163ffffffff1660e01b81526004016020604051808303816000875af1158015610905573d6000803e3d6000fd5b505050506040513d601f19601f8201168201806040525081019061092991906119c6565b905073ffffffffffffffffffffffffffffffffffffffff81161580610978575073ffffffffffffffffffffffffffffffffffffffff808216600090815260026020526040902054868216911614155b156109af576040517f6cddfcaf00000000000000000000000000000000000000000000000000000000815260040160405180910390fd5b6040805173ffffffffffffffffffffffffffffffffffffffff8084166020830152808816928201929092528186166060820152908416608082015260a08101839052610a0c9060c001604051602081830303815290604052610d4b565b6040805173ffffffffffffffffffffffffffffffffffffffff86811682528581166020830152918101849052818716918316907faa4bbbc02123d0c446b55ec99a14078c9eab05cb4a271e6d8f8e278d9e4cd1849060600160405180910390a35050505050565b600154829073ffffffffffffffffffffffffffffffffffffffff808316911614610b1f576040517f08c379a000000000000000000000000000000000000000000000000000000000815260206004820152602b60248201527f4678426173654368696c6454756e6e656c3a20494e56414c49445f53454e444560448201527f525f46524f4d5f524f4f5400000000000000000000000000000000000000000060648201526084016105d8565b60008083806020019051810190610b369190611ab8565b915091507f87a7811f4bfedea3d341ad165680ae306b01aaeacc205d227629cf157dd9f8218203610b6f57610b6a81610d85565b610bda565b7f2cef46a936bdc5b7e6e8c71aa04560c41cf7d88bb26901a7e7f4936ff02accad8203610ba557610b9f81610e45565b50610bda565b6040517f079fc927000000000000000000000000000000000000000000000000000000008152600481018390526024016105d8565b505050505050565b600033321480610bf25750601836105b15610bfc57503390565b7fffffffffffffffffffffffffffffffffffffffffffffffffffffffffffffffec36013560601c7f000000000000000000000000000000000000000000000000000000000000000073ffffffffffffffffffffffffffffffffffffffff16331480610d1857506040517f8929a8ca00000000000000000000000000000000000000000000000000000000815273ffffffffffffffffffffffffffffffffffffffff82811660048301523360248301527f00000000000000000000000000000000000000000000000000000000000000001690638929a8ca90604401602060405180830381865afa158015610cf4573d6000803e3d6000fd5b505050506040513d601f19601f82011682018060405250810190610d189190611aff565b15610d2257919050565b3391505090565b6107a973ffffffffffffffffffffffffffffffffffffffff8416833084610fe9565b7f8c5261668696ce22758910d05bab8f186d6eb247ceac2af2e82c7dc17669b03681604051610d7a9190611779565b60405180910390a150565b60008060008084806020019051810190610d9f9190611b31565b73ffffffffffffffffffffffffffffffffffffffff808516600090815260026020526040902054949850929650909450925016610ddd8184846110c5565b6040805173ffffffffffffffffffffffffffffffffffffffff86811682528581166020830152918101849052818316918716907fd04a997afc07fd79393f2188ae8935e4389ab8aef6144f0f839e3aade5b858ab9060600160405180910390a3505050505050565b600080600083806020019051810190610e5e9190611b84565b73ffffffffffffffffffffffffffffffffffffffff80831660009081526002602052604090205416945090925090508215610ee5576040517ff5b9e7de00000000000000000000000000000000000000000000000000000000815273ffffffffffffffffffffffffffffffffffffffff8084166004830152841660248201526044016105d8565b6040517fffffffffffffffffffffffffffffffffffffffff000000000000000000000000606084901b166020820152600090603401604051602081830303815290604052805190602001209050610f5c817f00000000000000000000000000000000000000000000000000000000000000006110e6565b9350610f698385846111f5565b73ffffffffffffffffffffffffffffffffffffffff83811660008181526002602052604080822080547fffffffffffffffffffffffff0000000000000000000000000000000000000000169489169485179055517ff935ffb7c4a7f69e191e46617fc2f41d98d93290443199977b42dd086e744c869190a3505050919050565b60405173ffffffffffffffffffffffffffffffffffffffff808516602483015283166044820152606481018290526107109085907f23b872dd00000000000000000000000000000000000000000000000000000000906084015b604080517fffffffffffffffffffffffffffffffffffffffffffffffffffffffffffffffe08184030181529190526020810180517bffffffffffffffffffffffffffffffffffffffffffffffffffffffff167fffffffff000000000000000000000000000000000000000000000000000000009093169290921790915261134e565b6107a973ffffffffffffffffffffffffffffffffffffffff8416838361145d565b6000808260601b90506040517f3d602d80600a3d3981f3363d3d373d3d3d363d7300000000000000000000000081528160148201527f5af43d82803e903d91602b57fd5bf300000000000000000000000000000000006028820152846037826000f592505073ffffffffffffffffffffffffffffffffffffffff82166111ee576040517f08c379a000000000000000000000000000000000000000000000000000000000815260206004820152602160248201527f437265617465323a204661696c6564206f6e206d696e696d616c206465706c6f60448201527f790000000000000000000000000000000000000000000000000000000000000060648201526084016105d8565b5092915050565b600080600080600080868060200190518101906112129190611bbf565b9550955095509550955095508773ffffffffffffffffffffffffffffffffffffffff16639d11b050308b89896040518060400160405280600a81526020017f2028506f6c79676f6e2900000000000000000000000000000000000000000000815250604051602001611285929190611c7a565b6040516020818303038152906040526040518060400160405280600181526020017f70000000000000000000000000000000000000000000000000000000000000008152508a6040516020016112dc929190611c7a565b6040516020818303038152906040528989896040518963ffffffff1660e01b8152600401611311989796959493929190611ca9565b600060405180830381600087803b15801561132b57600080fd5b505af115801561133f573d6000803e3d6000fd5b50505050505050505050505050565b60006113b0826040518060400160405280602081526020017f5361666545524332303a206c6f772d6c6576656c2063616c6c206661696c65648152508573ffffffffffffffffffffffffffffffffffffffff166114b39092919063ffffffff16565b90508051600014806113d15750808060200190518101906113d19190611aff565b6107a9576040517f08c379a000000000000000000000000000000000000000000000000000000000815260206004820152602a60248201527f5361666545524332303a204552433230206f7065726174696f6e20646964206e60448201527f6f7420737563636565640000000000000000000000000000000000000000000060648201526084016105d8565b60405173ffffffffffffffffffffffffffffffffffffffff83166024820152604481018290526107a99084907fa9059cbb0000000000000000000000000000000000000000000000000000000090606401611043565b60606114c284846000856114ca565b949350505050565b60608247101561155c576040517f08c379a000000000000000000000000000000000000000000000000000000000815260206004820152602660248201527f416464726573733a20696e73756666696369656e742062616c616e636520666f60448201527f722063616c6c000000000000000000000000000000000000000000000000000060648201526084016105d8565b6000808673ffffffffffffffffffffffffffffffffffffffff1685876040516115859190611d32565b60006040518083038185875af1925050503d80600081146115c2576040519150601f19603f3d011682016040523d82523d6000602084013e6115c7565b606091505b50915091506115d8878383876115e3565b979650505050505050565b606083156116795782516000036116725773ffffffffffffffffffffffffffffffffffffffff85163b611672576040517f08c379a000000000000000000000000000000000000000000000000000000000815260206004820152601d60248201527f416464726573733a2063616c6c20746f206e6f6e2d636f6e747261637400000060448201526064016105d8565b50816114c2565b6114c2838381511561168e5781518083602001fd5b806040517f08c379a00000000000000000000000000000000000000000000000000000000081526004016105d89190611779565b6000602082840312156116d457600080fd5b81357fffffffff000000000000000000000000000000000000000000000000000000008116811461170457600080fd5b9392505050565b60005b8381101561172657818101518382015260200161170e565b50506000910152565b6000815180845261174781602086016020860161170b565b601f017fffffffffffffffffffffffffffffffffffffffffffffffffffffffffffffffe0169290920160200192915050565b602081526000611704602083018461172f565b73ffffffffffffffffffffffffffffffffffffffff811681146117ae57600080fd5b50565b60008083601f8401126117c357600080fd5b50813567ffffffffffffffff8111156117db57600080fd5b6020830191508360208285010111156117f357600080fd5b9250929050565b60008060008060006080868803121561181257600080fd5b853561181d8161178c565b9450602086013561182d8161178c565b935060408601359250606086013567ffffffffffffffff81111561185057600080fd5b61185c888289016117b1565b969995985093965092949392505050565b60006020828403121561187f57600080fd5b81356117048161178c565b60008060006060848603121561189f57600080fd5b833592506020840135915060408401356118b88161178c565b809150509250925092565b600080600080606085870312156118d957600080fd5b8435935060208501356118eb8161178c565b9250604085013567ffffffffffffffff81111561190757600080fd5b611913878288016117b1565b95989497509550505050565b60008060006060848603121561193457600080fd5b833561193f8161178c565b9250602084013561194f8161178c565b929592945050506040919091013590565b6000806040838503121561197357600080fd5b823561197e8161178c565b946020939093013593505050565b81810381811115610494577f4e487b7100000000000000000000000000000000000000000000000000000000600052601160045260246000fd5b6000602082840312156119d857600080fd5b81516117048161178c565b7f4e487b7100000000000000000000000000000000000000000000000000000000600052604160045260246000fd5b600082601f830112611a2357600080fd5b815167ffffffffffffffff80821115611a3e57611a3e6119e3565b604051601f83017fffffffffffffffffffffffffffffffffffffffffffffffffffffffffffffffe0908116603f01168101908282118183101715611a8457611a846119e3565b81604052838152866020858801011115611a9d57600080fd5b611aae84602083016020890161170b565b9695505050505050565b60008060408385031215611acb57600080fd5b82519150602083015167ffffffffffffffff811115611ae957600080fd5b611af585828601611a12565b9150509250929050565b600060208284031215611b1157600080fd5b8151801515811461170457600080fd5b8051611b2c8161178c565b919050565b60008060008060808587031215611b4757600080fd5b8451611b528161178c565b6020860151909450611b638161178c565b6040860151909350611b748161178c565b6060959095015193969295505050565b60008060408385031215611b9757600080fd5b8251611ba28161178c565b602084015190925067ffffffffffffffff811115611ae957600080fd5b60008060008060008060c08789031215611bd857600080fd5b86519550602087015167ffffffffffffffff80821115611bf757600080fd5b611c038a838b01611a12565b96506040890151915080821115611c1957600080fd5b611c258a838b01611a12565b95506060890151915060ff82168214611c3d57600080fd5b608089015191945080821115611c5257600080fd5b50611c5f89828a01611a12565b925050611c6e60a08801611b21565b90509295509295509295565b60008351611c8c81846020880161170b565b835190830190611ca081836020880161170b565b01949350505050565b600061010073ffffffffffffffffffffffffffffffffffffffff808c168452808b166020850152896040850152816060850152611ce88285018a61172f565b91508382036080850152611cfc828961172f565b915060ff871660a085015283820360c0850152611d19828761172f565b925080851660e085015250509998505050505050505050565b60008251611d4481846020870161170b565b919091019291505056fea26469706673582212204fc32c35917d6ab323d88ac803f665132ffc07dad9564ec6444e8c49723f7f2a64736f6c63430008130033",
  "linkReferences": {},
  "deployedLinkReferences": {}
}