{
  "_format": "hh-sol-artifact-1",
  "contractName": "FxERC20FixedSupply",
  "sourceName": "contracts/fx-portal/token/ERC20/FxERC20FixedSupply.sol",
  "abi": [
    {
      "inputs": [
        {
          "internalType": "contract IForwarderRegistry",
          "name": "forwarderRegistry",
          "type": "address"
        }
      ],
      "stateMutability": "nonpayable",
      "type": "constructor"
    },
    {
      "inputs": [
        {
          "internalType": "address",
          "name": "owner",
          "type": "address"
        },
        {
          "internalType": "address",
          "name": "spender",
          "type": "address"
        },
        {
          "internalType": "uint256",
          "name": "allowance",
          "type": "uint256"
        },
        {
          "internalType": "uint256",
          "name": "increment",
          "type": "uint256"
        }
      ],
      "name": "ERC20AllowanceOverflow",
      "type": "error"
    },
    {
      "inputs": [
        {
          "internalType": "address",
          "name": "owner",
          "type": "address"
        }
      ],
      "name": "ERC20ApprovalToAddressZero",
      "type": "error"
    },
    {
      "inputs": [],
      "name": "ERC20BatchTransferValuesOverflow",
      "type": "error"
    },
    {
      "inputs": [
        {
          "internalType": "address",
          "name": "owner",
          "type": "address"
        },
        {
          "internalType": "address",
          "name": "spender",
          "type": "address"
        },
        {
          "internalType": "uint256",
          "name": "allowance",
          "type": "uint256"
        },
        {
          "internalType": "uint256",
          "name": "decrement",
          "type": "uint256"
        }
      ],
      "name": "ERC20InsufficientAllowance",
      "type": "error"
    },
    {
      "inputs": [
        {
          "internalType": "address",
          "name": "owner",
          "type": "address"
        },
        {
          "internalType": "uint256",
          "name": "balance",
          "type": "uint256"
        },
        {
          "internalType": "uint256",
          "name": "value",
          "type": "uint256"
        }
      ],
      "name": "ERC20InsufficientBalance",
      "type": "error"
    },
    {
      "inputs": [],
      "name": "ERC20MintToAddressZero",
      "type": "error"
    },
    {
      "inputs": [
        {
          "internalType": "uint256",
          "name": "deadline",
          "type": "uint256"
        }
      ],
      "name": "ERC20PermitExpired",
      "type": "error"
    },
    {
      "inputs": [],
      "name": "ERC20PermitFromAddressZero",
      "type": "error"
    },
    {
      "inputs": [],
      "name": "ERC20PermitInvalidSignature",
      "type": "error"
    },
    {
      "inputs": [
        {
          "internalType": "address",
          "name": "recipient",
          "type": "address"
        }
      ],
      "name": "ERC20SafeTransferRejected",
      "type": "error"
    },
    {
      "inputs": [
        {
          "internalType": "uint256",
          "name": "supply",
          "type": "uint256"
        },
        {
          "internalType": "uint256",
          "name": "value",
          "type": "uint256"
        }
      ],
      "name": "ERC20TotalSupplyOverflow",
      "type": "error"
    },
    {
      "inputs": [
        {
          "internalType": "address",
          "name": "owner",
          "type": "address"
        }
      ],
      "name": "ERC20TransferToAddressZero",
      "type": "error"
    },
    {
      "inputs": [],
      "name": "FailedCall",
      "type": "error"
    },
    {
      "inputs": [],
      "name": "IllegalInterfaceId",
      "type": "error"
    },
    {
      "inputs": [],
      "name": "InconsistentArrayLengths",
      "type": "error"
    },
    {
      "inputs": [
        {
          "internalType": "address",
          "name": "tokenContract",
          "type": "address"
        }
      ],
      "name": "IncorrectTokenContractType",
      "type": "error"
    },
    {
      "inputs": [
        {
          "internalType": "uint256",
          "name": "currentPhase",
          "type": "uint256"
        },
        {
          "internalType": "uint256",
          "name": "newPhase",
          "type": "uint256"
        }
      ],
      "name": "InitializationPhaseAlreadyReached",
      "type": "error"
    },
    {
      "inputs": [
        {
          "internalType": "uint256",
          "name": "balance",
          "type": "uint256"
        },
        {
          "internalType": "uint256",
          "name": "needed",
          "type": "uint256"
        }
      ],
      "name": "InsufficientBalance",
      "type": "error"
    },
    {
      "inputs": [
        {
          "internalType": "address",
          "name": "account",
          "type": "address"
        }
      ],
      "name": "NotContractOwner",
      "type": "error"
    },
    {
      "inputs": [
        {
          "internalType": "address",
          "name": "token",
          "type": "address"
        }
      ],
      "name": "SafeERC20FailedOperation",
      "type": "error"
    },
    {
      "anonymous": false,
      "inputs": [
        {
          "indexed": true,
          "internalType": "address",
          "name": "owner",
          "type": "address"
        },
        {
          "indexed": true,
          "internalType": "address",
          "name": "spender",
          "type": "address"
        },
        {
          "indexed": false,
          "internalType": "uint256",
          "name": "value",
          "type": "uint256"
        }
      ],
      "name": "Approval",
      "type": "event"
    },
    {
      "anonymous": false,
      "inputs": [
        {
          "indexed": true,
          "internalType": "address",
          "name": "previousOwner",
          "type": "address"
        },
        {
          "indexed": true,
          "internalType": "address",
          "name": "newOwner",
          "type": "address"
        }
      ],
      "name": "OwnershipTransferred",
      "type": "event"
    },
    {
      "anonymous": false,
      "inputs": [
        {
          "indexed": true,
          "internalType": "address",
          "name": "from",
          "type": "address"
        },
        {
          "indexed": true,
          "internalType": "address",
          "name": "to",
          "type": "address"
        },
        {
          "indexed": false,
          "internalType": "uint256",
          "name": "value",
          "type": "uint256"
        }
      ],
      "name": "Transfer",
      "type": "event"
    },
    {
      "inputs": [],
      "name": "DOMAIN_SEPARATOR",
      "outputs": [
        {
          "internalType": "bytes32",
          "name": "",
          "type": "bytes32"
        }
      ],
      "stateMutability": "view",
      "type": "function"
    },
    {
      "inputs": [
        {
          "internalType": "address",
          "name": "owner",
          "type": "address"
        },
        {
          "internalType": "address",
          "name": "spender",
          "type": "address"
        }
      ],
      "name": "allowance",
      "outputs": [
        {
          "internalType": "uint256",
          "name": "value",
          "type": "uint256"
        }
      ],
      "stateMutability": "view",
      "type": "function"
    },
    {
      "inputs": [
        {
          "internalType": "address",
          "name": "spender",
          "type": "address"
        },
        {
          "internalType": "uint256",
          "name": "value",
          "type": "uint256"
        }
      ],
      "name": "approve",
      "outputs": [
        {
          "internalType": "bool",
          "name": "result",
          "type": "bool"
        }
      ],
      "stateMutability": "nonpayable",
      "type": "function"
    },
    {
      "inputs": [
        {
          "internalType": "address",
          "name": "owner",
          "type": "address"
        }
      ],
      "name": "balanceOf",
      "outputs": [
        {
          "internalType": "uint256",
          "name": "balance",
          "type": "uint256"
        }
      ],
      "stateMutability": "view",
      "type": "function"
    },
    {
      "inputs": [
        {
          "internalType": "address[]",
          "name": "recipients",
          "type": "address[]"
        },
        {
          "internalType": "uint256[]",
          "name": "values",
          "type": "uint256[]"
        }
      ],
      "name": "batchTransfer",
      "outputs": [
        {
          "internalType": "bool",
          "name": "",
          "type": "bool"
        }
      ],
      "stateMutability": "nonpayable",
      "type": "function"
    },
    {
      "inputs": [
        {
          "internalType": "address",
          "name": "from",
          "type": "address"
        },
        {
          "internalType": "address[]",
          "name": "recipients",
          "type": "address[]"
        },
        {
          "internalType": "uint256[]",
          "name": "values",
          "type": "uint256[]"
        }
      ],
      "name": "batchTransferFrom",
      "outputs": [
        {
          "internalType": "bool",
          "name": "",
          "type": "bool"
        }
      ],
      "stateMutability": "nonpayable",
      "type": "function"
    },
    {
      "inputs": [],
      "name": "connectedToken",
      "outputs": [
        {
          "internalType": "address",
          "name": "",
          "type": "address"
        }
      ],
      "stateMutability": "view",
      "type": "function"
    },
    {
      "inputs": [],
      "name": "decimals",
      "outputs": [
        {
          "internalType": "uint8",
          "name": "",
          "type": "uint8"
        }
      ],
      "stateMutability": "view",
      "type": "function"
    },
    {
      "inputs": [
        {
          "internalType": "address",
          "name": "spender",
          "type": "address"
        },
        {
          "internalType": "uint256",
          "name": "subtractedValue",
          "type": "uint256"
        }
      ],
      "name": "decreaseAllowance",
      "outputs": [
        {
          "internalType": "bool",
          "name": "result",
          "type": "bool"
        }
      ],
      "stateMutability": "nonpayable",
      "type": "function"
    },
    {
      "inputs": [],
      "name": "forwarderRegistry",
      "outputs": [
        {
          "internalType": "contract IForwarderRegistry",
          "name": "",
          "type": "address"
        }
      ],
      "stateMutability": "view",
      "type": "function"
    },
    {
      "inputs": [],
      "name": "fxManager",
      "outputs": [
        {
          "internalType": "address",
          "name": "",
          "type": "address"
        }
      ],
      "stateMutability": "view",
      "type": "function"
    },
    {
      "inputs": [
        {
          "internalType": "address",
          "name": "spender",
          "type": "address"
        },
        {
          "internalType": "uint256",
          "name": "addedValue",
          "type": "uint256"
        }
      ],
      "name": "increaseAllowance",
      "outputs": [
        {
          "internalType": "bool",
          "name": "result",
          "type": "bool"
        }
      ],
      "stateMutability": "nonpayable",
      "type": "function"
    },
    {
      "inputs": [
        {
          "internalType": "address",
          "name": "fxManager_",
          "type": "address"
        },
        {
          "internalType": "address",
          "name": "connectedToken_",
          "type": "address"
        },
        {
          "internalType": "uint256",
          "name": "totalSupply",
          "type": "uint256"
        },
        {
          "internalType": "string",
          "name": "tokenName",
          "type": "string"
        },
        {
          "internalType": "string",
          "name": "tokenSymbol",
          "type": "string"
        },
        {
          "internalType": "uint8",
          "name": "tokenDecimals",
          "type": "uint8"
        },
        {
          "internalType": "string",
          "name": "uri",
          "type": "string"
        },
        {
          "internalType": "address",
          "name": "initialOwner",
          "type": "address"
        }
      ],
      "name": "initialize",
      "outputs": [],
      "stateMutability": "nonpayable",
      "type": "function"
    },
    {
      "inputs": [
        {
          "internalType": "address",
          "name": "forwarder",
          "type": "address"
        }
      ],
      "name": "isTrustedForwarder",
      "outputs": [
        {
          "internalType": "bool",
          "name": "",
          "type": "bool"
        }
      ],
      "stateMutability": "view",
      "type": "function"
    },
    {
      "inputs": [],
      "name": "name",
      "outputs": [
        {
          "internalType": "string",
          "name": "",
          "type": "string"
        }
      ],
      "stateMutability": "view",
      "type": "function"
    },
    {
      "inputs": [
        {
          "internalType": "address",
          "name": "owner",
          "type": "address"
        }
      ],
      "name": "nonces",
      "outputs": [
        {
          "internalType": "uint256",
          "name": "",
          "type": "uint256"
        }
      ],
      "stateMutability": "view",
      "type": "function"
    },
    {
      "inputs": [],
      "name": "owner",
      "outputs": [
        {
          "internalType": "address",
          "name": "",
          "type": "address"
        }
      ],
      "stateMutability": "view",
      "type": "function"
    },
    {
      "inputs": [
        {
          "internalType": "address",
          "name": "owner",
          "type": "address"
        },
        {
          "internalType": "address",
          "name": "spender",
          "type": "address"
        },
        {
          "internalType": "uint256",
          "name": "value",
          "type": "uint256"
        },
        {
          "internalType": "uint256",
          "name": "deadline",
          "type": "uint256"
        },
        {
          "internalType": "uint8",
          "name": "v",
          "type": "uint8"
        },
        {
          "internalType": "bytes32",
          "name": "r",
          "type": "bytes32"
        },
        {
          "internalType": "bytes32",
          "name": "s",
          "type": "bytes32"
        }
      ],
      "name": "permit",
      "outputs": [],
      "stateMutability": "nonpayable",
      "type": "function"
    },
    {
      "inputs": [
        {
          "internalType": "address[]",
          "name": "accounts",
          "type": "address[]"
        },
        {
          "internalType": "contract IERC20[]",
          "name": "tokens",
          "type": "address[]"
        },
        {
          "internalType": "uint256[]",
          "name": "amounts",
          "type": "uint256[]"
        }
      ],
      "name": "recoverERC20s",
      "outputs": [],
      "stateMutability": "nonpayable",
      "type": "function"
    },
    {
      "inputs": [
        {
          "internalType": "address[]",
          "name": "accounts",
          "type": "address[]"
        },
        {
          "internalType": "contract IERC721[]",
          "name": "contracts",
          "type": "address[]"
        },
        {
          "internalType": "uint256[]",
          "name": "tokenIds",
          "type": "uint256[]"
        }
      ],
      "name": "recoverERC721s",
      "outputs": [],
      "stateMutability": "nonpayable",
      "type": "function"
    },
    {
      "inputs": [
        {
          "internalType": "address payable[]",
          "name": "accounts",
          "type": "address[]"
        },
        {
          "internalType": "uint256[]",
          "name": "amounts",
          "type": "uint256[]"
        }
      ],
      "name": "recoverETH",
      "outputs": [],
      "stateMutability": "nonpayable",
      "type": "function"
    },
    {
      "inputs": [
        {
          "internalType": "address",
          "name": "to",
          "type": "address"
        },
        {
          "internalType": "uint256",
          "name": "value",
          "type": "uint256"
        },
        {
          "internalType": "bytes",
          "name": "data",
          "type": "bytes"
        }
      ],
      "name": "safeTransfer",
      "outputs": [
        {
          "internalType": "bool",
          "name": "",
          "type": "bool"
        }
      ],
      "stateMutability": "nonpayable",
      "type": "function"
    },
    {
      "inputs": [
        {
          "internalType": "address",
          "name": "from",
          "type": "address"
        },
        {
          "internalType": "address",
          "name": "to",
          "type": "address"
        },
        {
          "internalType": "uint256",
          "name": "value",
          "type": "uint256"
        },
        {
          "internalType": "bytes",
          "name": "data",
          "type": "bytes"
        }
      ],
      "name": "safeTransferFrom",
      "outputs": [
        {
          "internalType": "bool",
          "name": "",
          "type": "bool"
        }
      ],
      "stateMutability": "nonpayable",
      "type": "function"
    },
    {
      "inputs": [
        {
          "internalType": "string",
          "name": "uri",
          "type": "string"
        }
      ],
      "name": "setTokenURI",
      "outputs": [],
      "stateMutability": "nonpayable",
      "type": "function"
    },
    {
      "inputs": [
        {
          "internalType": "bytes4",
          "name": "interfaceId",
          "type": "bytes4"
        }
      ],
      "name": "supportsInterface",
      "outputs": [
        {
          "internalType": "bool",
          "name": "",
          "type": "bool"
        }
      ],
      "stateMutability": "view",
      "type": "function"
    },
    {
      "inputs": [],
      "name": "symbol",
      "outputs": [
        {
          "internalType": "string",
          "name": "",
          "type": "string"
        }
      ],
      "stateMutability": "view",
      "type": "function"
    },
    {
      "inputs": [],
      "name": "tokenURI",
      "outputs": [
        {
          "internalType": "string",
          "name": "",
          "type": "string"
        }
      ],
      "stateMutability": "view",
      "type": "function"
    },
    {
      "inputs": [],
      "name": "totalSupply",
      "outputs": [
        {
          "internalType": "uint256",
          "name": "supply",
          "type": "uint256"
        }
      ],
      "stateMutability": "view",
      "type": "function"
    },
    {
      "inputs": [
        {
          "internalType": "address",
          "name": "to",
          "type": "address"
        },
        {
          "internalType": "uint256",
          "name": "value",
          "type": "uint256"
        }
      ],
      "name": "transfer",
      "outputs": [
        {
          "internalType": "bool",
          "name": "result",
          "type": "bool"
        }
      ],
      "stateMutability": "nonpayable",
      "type": "function"
    },
    {
      "inputs": [
        {
          "internalType": "address",
          "name": "from",
          "type": "address"
        },
        {
          "internalType": "address",
          "name": "to",
          "type": "address"
        },
        {
          "internalType": "uint256",
          "name": "value",
          "type": "uint256"
        }
      ],
      "name": "transferFrom",
      "outputs": [
        {
          "internalType": "bool",
          "name": "result",
          "type": "bool"
        }
      ],
      "stateMutability": "nonpayable",
      "type": "function"
    },
    {
      "inputs": [
        {
          "internalType": "address",
          "name": "newOwner",
          "type": "address"
        }
      ],
      "name": "transferOwnership",
      "outputs": [],
      "stateMutability": "nonpayable",
      "type": "function"
    }
  ],
  "bytecode": "0x60a060405234801561001057600080fd5b5060405161365238038061365283398101604081905261002f91610040565b6001600160a01b0316608052610070565b60006020828403121561005257600080fd5b81516001600160a01b038116811461006957600080fd5b9392505050565b6080516135b26100a060003960008181610292015281816103160152818161239a015261242801526135b26000f3fe608060405234801561001057600080fd5b50600436106101e55760003560e01c80637ecebe001161010f578063b88d4fde116100a2578063e0df5b6f11610071578063e0df5b6f1461043e578063eb79554914610451578063f2fde38b14610464578063f7ba94bd1461047757600080fd5b8063b88d4fde146103f2578063c3666c3614610405578063d505accf14610418578063dd62ed3e1461042b57600080fd5b80639b779153116100de5780639b779153146103b15780639d11b050146103b9578063a457c2d7146103cc578063a9059cbb146103df57600080fd5b80637ecebe001461037b57806388d695b21461038e5780638da5cb5b146103a157806395d89b41146103a957600080fd5b8063313ce567116101875780634885b254116101565780634885b254146102f3578063572b6c051461030657806370a082311461035357806373c8a9581461036657600080fd5b8063313ce567146102b65780633644e515146102d057806339509351146102d85780633c130d90146102eb57600080fd5b80630a8a4914116101c35780630a8a49141461023a57806318160ddd1461026757806323b872dd1461027d5780632b4c9f161461029057600080fd5b806301ffc9a7146101ea57806306fdde0314610212578063095ea7b314610227575b600080fd5b6101fd6101f8366004612c78565b61048a565b60405190151581526020015b60405180910390f35b61021a6104a4565b6040516102099190612cf9565b6101fd610235366004612d3e565b6104bb565b6102426104e3565b60405173ffffffffffffffffffffffffffffffffffffffff9091168152602001610209565b61026f61050d565b604051908152602001610209565b6101fd61028b366004612d6a565b610521565b7f0000000000000000000000000000000000000000000000000000000000000000610242565b6102be61054c565b60405160ff9091168152602001610209565b61026f610563565b6101fd6102e6366004612d3e565b61056d565b61021a61058c565b6101fd610301366004612df7565b610599565b6101fd610314366004612e7f565b7f000000000000000000000000000000000000000000000000000000000000000073ffffffffffffffffffffffffffffffffffffffff90811691161490565b61026f610361366004612e7f565b6105ca565b610379610374366004612e9c565b610602565b005b61026f610389366004612e7f565b610631565b6101fd61039c366004612f42565b61063f565b61024261066d565b61021a610694565b6102426106a6565b6103796103c7366004613006565b6106b3565b6101fd6103da366004612d3e565b6106e6565b6101fd6103ed366004612d3e565b610705565b6101fd6104003660046130fa565b610724565b610379610413366004612e9c565b610749565b61037961042636600461315c565b610762565b61026f6104393660046131cb565b610789565b61037961044c366004613204565b6107db565b6101fd61045f366004613246565b6107fe565b610379610472366004612e7f565b610821565b610379610485366004612f42565b61083f565b600061049e8261049861085c565b9061088a565b92915050565b60606104b66104b1610964565b610992565b905090565b60006104da6104c8610a28565b84846104d2610a32565b929190610a60565b50600192915050565b60006104b66104f0610b3c565b6001015473ffffffffffffffffffffffffffffffffffffffff1690565b60006104b661051a610a32565b6002015490565b600061054261052e610a28565b858585610539610a32565b93929190610b6a565b5060019392505050565b60006104b6610559610964565b6002015460ff1690565b60006104b6610bbc565b60006104da61057a610a28565b8484610584610a32565b929190610c57565b60606104b66104b1610e09565b60006105be6105a6610a28565b87878787876105b3610a32565b959493929190610e37565b50600195945050505050565b600061049e826105d8610a32565b9073ffffffffffffffffffffffffffffffffffffffff166000908152602091909152604090205490565b61061b61060d610a28565b610615611204565b90611232565b61062986868686868661129d565b505050505050565b600061049e826105d8611388565b600061066261064c610a28565b86868686610658610a32565b94939291906113b6565b506001949350505050565b60006104b661067a611204565b5473ffffffffffffffffffffffffffffffffffffffff1690565b60606104b66106a1610964565b61170d565b60006104b661067a610b3c565b6106c58b8b8a8a8a8a8a8a8a8a61171e565b6106d98b8a6106d2610a32565b9190611793565b5050505050505050505050565b60006104da6106f3610a28565b84846106fd610a32565b9291906118b6565b60006104da610712610a28565b848461071c610a32565b9291906119ee565b60006105be610731610a28565b878787878761073e610a32565b959493929190611bad565b61075461060d610a28565b610629868686868686611c1a565b61078087878787878787610774611388565b96959493929190611eb0565b50505050505050565b60006107d48383610798610a32565b919073ffffffffffffffffffffffffffffffffffffffff9182166000908152600193909301602090815260408085209290931684525290205490565b9392505050565b6107e661060d610a28565b6107fa82826107f3610e09565b919061211f565b5050565b600061066261080b610a28565b86868686610817610a32565b949392919061212b565b61083c61082c610a28565b82610835611204565b9190612197565b50565b61084a61060d610a28565b610856848484846122ab565b50505050565b60008061049e60017fca9d3e17f264b0f3984e2634e94adb37fa3e6a8103f06aeae6fa59e21c769f5e613296565b60007c01000000000000000000000000000000000000000000000000000000007fffffffff000000000000000000000000000000000000000000000000000000008316016108da5750600061049e565b7ffe003659000000000000000000000000000000000000000000000000000000007fffffffff0000000000000000000000000000000000000000000000000000000083160161092b5750600161049e565b507fffffffff00000000000000000000000000000000000000000000000000000000166000908152602091909152604090205460ff1690565b60008061049e60017f335df4119bbb04f056b33eba33b826d3529129e458faf6daa9924b5a8f3b6a82613296565b60608160000180546109a3906132d0565b80601f01602080910402602001604051908101604052809291908181526020018280546109cf906132d0565b8015610a1c5780601f106109f157610100808354040283529160200191610a1c565b820191906000526020600020905b8154815290600101906020018083116109ff57829003601f168201915b50505050509050919050565b60006104b6612357565b60008061049e60017f1da92899d3da68bf9787824388a37ea2bfa79780bcef91b9716c390eec8ecbef613296565b73ffffffffffffffffffffffffffffffffffffffff8216610aca576040517ff7e1ac0f00000000000000000000000000000000000000000000000000000000815273ffffffffffffffffffffffffffffffffffffffff841660048201526024015b60405180910390fd5b73ffffffffffffffffffffffffffffffffffffffff838116600081815260018701602090815260408083209487168084529482529182902085905590518481527f8c5be1e5ebec7d5bd14f71427d1e84f3dd0314c0f7b2291e5b200ac8c7c3b92591015b60405180910390a350505050565b60008061049e60017ffbf67eff80ed72d4d972e624738c2b5704d828cc6926cf8653e1018c8eef81c0613296565b8373ffffffffffffffffffffffffffffffffffffffff168373ffffffffffffffffffffffffffffffffffffffff1614610ba957610ba9858486846118b6565b610bb5858484846119ee565b5050505050565b6000467f8b73c3c69bb8fe3d512ecc4cf759cc79239f7b179b0ffacaa9a75d522b39400f610beb6104b1610964565b80516020918201206040805192830193909352918101919091527fc89efdaa54c0f20c7adf612882df0950f5a951637e0307cdcb4c672f298b8bc66060820152608081018290523060a082015260c0016040516020818303038152906040528051906020012091505090565b73ffffffffffffffffffffffffffffffffffffffff8216610cbc576040517ff7e1ac0f00000000000000000000000000000000000000000000000000000000815273ffffffffffffffffffffffffffffffffffffffff84166004820152602401610ac1565b73ffffffffffffffffffffffffffffffffffffffff80841660009081526001860160209081526040808320938616835292905220548115610d9b57808201818111610d61576040517f93bc2ff100000000000000000000000000000000000000000000000000000000815273ffffffffffffffffffffffffffffffffffffffff8087166004830152851660248201526044810183905260648101849052608401610ac1565b73ffffffffffffffffffffffffffffffffffffffff8086166000908152600188016020908152604080832093881683529290522081905590505b8273ffffffffffffffffffffffffffffffffffffffff168473ffffffffffffffffffffffffffffffffffffffff167f8c5be1e5ebec7d5bd14f71427d1e84f3dd0314c0f7b2291e5b200ac8c7c3b92583604051610dfa91815260200190565b60405180910390a35050505050565b60008061049e60017ff41bf6a5db26bffdfab174dcf66b31fbba8fdb7e3db040721ce1e62d61839ceb613296565b82818114610e71576040517f6582533600000000000000000000000000000000000000000000000000000000815260040160405180910390fd5b80600003610e7f5750610780565b73ffffffffffffffffffffffffffffffffffffffff86166000908152602089905260408120549080805b848110156111c4576000898983818110610ec557610ec5613323565b9050602002016020810190610eda9190612e7f565b905073ffffffffffffffffffffffffffffffffffffffff8116610f41576040517f754f425b00000000000000000000000000000000000000000000000000000000815273ffffffffffffffffffffffffffffffffffffffff8c166004820152602401610ac1565b6000888884818110610f5557610f55613323565b9050602002013590508060001461109357848101858111610fa2576040517fdedd834100000000000000000000000000000000000000000000000000000000815260040160405180910390fd5b8095508273ffffffffffffffffffffffffffffffffffffffff168d73ffffffffffffffffffffffffffffffffffffffff161461102c57818f60000160008573ffffffffffffffffffffffffffffffffffffffff1673ffffffffffffffffffffffffffffffffffffffff16815260200190815260200160002060008282540192505081905550611091565b8682111561108c576040517fe450d38c00000000000000000000000000000000000000000000000000000000815273ffffffffffffffffffffffffffffffffffffffff8e1660048201526024810188905260448101839052606401610ac1565b938101935b505b8173ffffffffffffffffffffffffffffffffffffffff168c73ffffffffffffffffffffffffffffffffffffffff167fddf252ad1be2c89b69c2b068fc378daa952ba7f163c4a11628f55a4df523b3ef836040516110f291815260200190565b60405180910390a384158015906111095750838514155b156111ba57848603868110611170576040517fe450d38c00000000000000000000000000000000000000000000000000000000815273ffffffffffffffffffffffffffffffffffffffff8e1660048201526024810188905260448101879052606401610ac1565b8481018f60000160008f73ffffffffffffffffffffffffffffffffffffffff1673ffffffffffffffffffffffffffffffffffffffff16815260200190815260200160002081905550505b5050600101610ea9565b508973ffffffffffffffffffffffffffffffffffffffff168973ffffffffffffffffffffffffffffffffffffffff16146106d9576106d98b8a8c856118b6565b60008061049e60017fc9ed16f33ab3a66c84bfd83099ccb2a8845871e2e1c1928f63797152f0fd54cd613296565b815473ffffffffffffffffffffffffffffffffffffffff8281169116146107fa576040517f2ef4875e00000000000000000000000000000000000000000000000000000000815273ffffffffffffffffffffffffffffffffffffffff82166004820152602401610ac1565b8483811415806112ad5750808214155b156112e4576040517f6582533600000000000000000000000000000000000000000000000000000000815260040160405180910390fd5b60005b8181101561137e5761137688888381811061130457611304613323565b90506020020160208101906113199190612e7f565b85858481811061132b5761132b613323565b9050602002013588888581811061134457611344613323565b90506020020160208101906113599190612e7f565b73ffffffffffffffffffffffffffffffffffffffff1691906124a4565b6001016112e7565b5050505050505050565b60008061049e60017f93fe0ff7226b064a4a8f0b09910762afb4bc2441835792c021ffd78cd513011e613296565b828181146113f0576040517f6582533600000000000000000000000000000000000000000000000000000000815260040160405180910390fd5b806000036113fe5750610629565b73ffffffffffffffffffffffffffffffffffffffff86166000908152602088905260408120549080805b8481101561165f57600089898381811061144457611444613323565b90506020020160208101906114599190612e7f565b905073ffffffffffffffffffffffffffffffffffffffff81166114c0576040517f754f425b00000000000000000000000000000000000000000000000000000000815273ffffffffffffffffffffffffffffffffffffffff8c166004820152602401610ac1565b60008888848181106114d4576114d4613323565b905060200201359050806000146115ee57848101858111611521576040517fdedd834100000000000000000000000000000000000000000000000000000000815260040160405180910390fd5b8095508273ffffffffffffffffffffffffffffffffffffffff168d73ffffffffffffffffffffffffffffffffffffffff16146115875773ffffffffffffffffffffffffffffffffffffffff8316600090815260208f9052604090208054830190556115ec565b868211156115e7576040517fe450d38c00000000000000000000000000000000000000000000000000000000815273ffffffffffffffffffffffffffffffffffffffff8e1660048201526024810188905260448101839052606401610ac1565b938101935b505b8173ffffffffffffffffffffffffffffffffffffffff168c73ffffffffffffffffffffffffffffffffffffffff167fddf252ad1be2c89b69c2b068fc378daa952ba7f163c4a11628f55a4df523b3ef8360405161164d91815260200190565b60405180910390a35050600101611428565b50811580159061166f5750808214155b15611701578183038381106116d6576040517fe450d38c00000000000000000000000000000000000000000000000000000000815273ffffffffffffffffffffffffffffffffffffffff8b1660048201526024810185905260448101849052606401610ac1565b73ffffffffffffffffffffffffffffffffffffffff8a16600090815260208c90526040902090820190555b50505050505050505050565b60608160010180546109a3906132d0565b611726612536565b6117408888888888611736610964565b949392919061259a565b611748612650565b61175583836107f3610e09565b61175d612680565b6117656126ae565b61176d6126dc565b6117818a8a61177a610b3c565b919061270a565b6117018161178d611204565b9061278a565b73ffffffffffffffffffffffffffffffffffffffff82166117e0576040517f92fd9c8f00000000000000000000000000000000000000000000000000000000815260040160405180910390fd5b8015611863576002830154818101818111611831576040517f0366a5f60000000000000000000000000000000000000000000000000000000081526004810183905260248101849052604401610ac1565b60028501555073ffffffffffffffffffffffffffffffffffffffff821660009081526020849052604090208054820190555b60405181815273ffffffffffffffffffffffffffffffffffffffff8316906000907fddf252ad1be2c89b69c2b068fc378daa952ba7f163c4a11628f55a4df523b3ef9060200160405180910390a3505050565b73ffffffffffffffffffffffffffffffffffffffff821661191b576040517ff7e1ac0f00000000000000000000000000000000000000000000000000000000815273ffffffffffffffffffffffffffffffffffffffff84166004820152602401610ac1565b73ffffffffffffffffffffffffffffffffffffffff80841660009081526001860160209081526040808320938616835292905220547fffffffffffffffffffffffffffffffffffffffffffffffffffffffffffffffff811480159061197f57508115155b15610d9b57818103818110610d61576040517f137ad6ab00000000000000000000000000000000000000000000000000000000815273ffffffffffffffffffffffffffffffffffffffff8087166004830152851660248201526044810183905260648101849052608401610ac1565b73ffffffffffffffffffffffffffffffffffffffff8216611a53576040517f754f425b00000000000000000000000000000000000000000000000000000000815273ffffffffffffffffffffffffffffffffffffffff84166004820152602401610ac1565b8015611b4e5773ffffffffffffffffffffffffffffffffffffffff8316600090815260208590526040902054818103818110611ae1576040517fe450d38c00000000000000000000000000000000000000000000000000000000815273ffffffffffffffffffffffffffffffffffffffff861660048201526024810183905260448101849052606401610ac1565b8373ffffffffffffffffffffffffffffffffffffffff168573ffffffffffffffffffffffffffffffffffffffff1614611b4b5773ffffffffffffffffffffffffffffffffffffffff8086166000908152602088905260408082208490559186168152208054840190555b50505b8173ffffffffffffffffffffffffffffffffffffffff168373ffffffffffffffffffffffffffffffffffffffff167fddf252ad1be2c89b69c2b068fc378daa952ba7f163c4a11628f55a4df523b3ef83604051610b2e91815260200190565b611bba8787878787610b6a565b73ffffffffffffffffffffffffffffffffffffffff84163b15610780576107808686868686868080601f0160208091040260200160405190810160405280939291908181526020018383808284376000920191909152506127c292505050565b848381141580611c2a5750808214155b15611c61576040517f6582533600000000000000000000000000000000000000000000000000000000815260040160405180910390fd5b60005b8181101561137e576000868683818110611c8057611c80613323565b9050602002016020810190611c959190612e7f565b6040517f01ffc9a70000000000000000000000000000000000000000000000000000000081527f80ac58cd00000000000000000000000000000000000000000000000000000000600482015290915073ffffffffffffffffffffffffffffffffffffffff8216906301ffc9a790602401602060405180830381865afa158015611d22573d6000803e3d6000fd5b505050506040513d601f19601f82011682018060405250810190611d469190613352565b611d94576040517f986b9f1f00000000000000000000000000000000000000000000000000000000815273ffffffffffffffffffffffffffffffffffffffff82166004820152602401610ac1565b868683818110611da657611da6613323565b9050602002016020810190611dbb9190612e7f565b73ffffffffffffffffffffffffffffffffffffffff166342842e0e308b8b86818110611de957611de9613323565b9050602002016020810190611dfe9190612e7f565b888887818110611e1057611e10613323565b6040517fffffffff0000000000000000000000000000000000000000000000000000000060e088901b16815273ffffffffffffffffffffffffffffffffffffffff958616600482015294909316602485015250602090910201356044820152606401600060405180830381600087803b158015611e8c57600080fd5b505af1158015611ea0573d6000803e3d6000fd5b5050505050806001019050611c64565b73ffffffffffffffffffffffffffffffffffffffff8716611efd576040517fa974697600000000000000000000000000000000000000000000000000000000815260040160405180910390fd5b83421115611f3a576040517fea2b6f5800000000000000000000000000000000000000000000000000000000815260048101859052602401610ac1565b73ffffffffffffffffffffffffffffffffffffffff878116600081815260208b8152604080832080546001810190915581517f6e71edae12b1b97f4d1f60370fef10105fa2faae0126114a169c64845d6126c98185015280830195909552948b166060850152608084018a905260a084019490945260c08084018990528451808503909101815260e09093019093528151919092012090611fd9610bbc565b6040517f19010000000000000000000000000000000000000000000000000000000000006020820152602281019190915260428101839052606201604080517fffffffffffffffffffffffffffffffffffffffffffffffffffffffffffffffe08184030181528282528051602091820120600080855291840180845281905260ff89169284019290925260608301879052608083018690529092509060019060a0016020604051602081039080840390855afa15801561209d573d6000803e3d6000fd5b5050506020604051035190508973ffffffffffffffffffffffffffffffffffffffff168173ffffffffffffffffffffffffffffffffffffffff161461210e576040517f822a64c800000000000000000000000000000000000000000000000000000000815260040160405180910390fd5b50505061137e8787876104d2610a32565b826108568284836133ea565b612137868686866119ee565b73ffffffffffffffffffffffffffffffffffffffff84163b15610629576106298586868686868080601f0160208091040260200160405190810160405280939291908181526020018383808284376000920191909152506127c292505050565b825473ffffffffffffffffffffffffffffffffffffffff9081169083168114612204576040517f2ef4875e00000000000000000000000000000000000000000000000000000000815273ffffffffffffffffffffffffffffffffffffffff84166004820152602401610ac1565b8173ffffffffffffffffffffffffffffffffffffffff168173ffffffffffffffffffffffffffffffffffffffff16146108565783547fffffffffffffffffffffffff00000000000000000000000000000000000000001673ffffffffffffffffffffffffffffffffffffffff8381169182178655604051908316907f8be0079c531659141344cd1fd0a4f28419497f9722a3daafe3b4186f6b6457e090600090a350505050565b828181146122e5576040517f6582533600000000000000000000000000000000000000000000000000000000815260040160405180910390fd5b60005b818110156106295761234f84848381811061230557612305613323565b9050602002013587878481811061231e5761231e613323565b90506020020160208101906123339190612e7f565b73ffffffffffffffffffffffffffffffffffffffff16906128d0565b6001016122e8565b6000333214806123675750601836105b1561237157503390565b7fffffffffffffffffffffffffffffffffffffffffffffffffffffffffffffffec36013560601c7f000000000000000000000000000000000000000000000000000000000000000073ffffffffffffffffffffffffffffffffffffffff1633148061249357506040517f019a202800000000000000000000000000000000000000000000000000000000815273ffffffffffffffffffffffffffffffffffffffff82811660048301523360248301523060448301527f0000000000000000000000000000000000000000000000000000000000000000169063019a202890606401602060405180830381865afa15801561246f573d6000803e3d6000fd5b505050506040513d601f19601f820116820180604052508101906124939190613352565b1561249d57919050565b3391505090565b6040805173ffffffffffffffffffffffffffffffffffffffff8416602482015260448082018490528251808303909101815260649091019091526020810180517bffffffffffffffffffffffffffffffffffffffffffffffffffffffff167fa9059cbb00000000000000000000000000000000000000000000000000000000179052612531908490612986565b505050565b600061254061085c565b905061256e817f36372b07000000000000000000000000000000000000000000000000000000006001612a2a565b61083c817f9d075186000000000000000000000000000000000000000000000000000000006001612a2a565b6125cf6125c860017fd217496980d1cb14720b20a80af36676bbece8e5feeb5d8970a9681a2c76bb75613296565b6001612b06565b856125db8587836133ea565b50600186016125eb8385836133ea565b506002860180547fffffffffffffffffffffffffffffffffffffffffffffffffffffffffffffff001660ff83161790556106297fa219a02500000000000000000000000000000000000000000000000000000000600161264961085c565b9190612a2a565b61267e7f3c130d9000000000000000000000000000000000000000000000000000000000600161264961085c565b565b61267e7f9d8ff7da00000000000000000000000000000000000000000000000000000000600161264961085c565b61267e7fc05327e600000000000000000000000000000000000000000000000000000000600161264961085c565b61267e7f53f41a9700000000000000000000000000000000000000000000000000000000600161264961085c565b6127386125c860017f207034c18a9defc6f1e4e1ae46a487e86951456577b7bce22778749189164d2a613296565b82547fffffffffffffffffffffffff000000000000000000000000000000000000000090811673ffffffffffffffffffffffffffffffffffffffff938416178455600190930180549093169116179055565b6127b86125c860017f5b388d90dc1312ba799f321972f13311234fa1163bcabec7cf66101c4876eb84613296565b6107fa8282612b52565b6040517f4fc35859000000000000000000000000000000000000000000000000000000008082529073ffffffffffffffffffffffffffffffffffffffff851690634fc358599061281c908990899088908890600401613504565b6020604051808303816000875af115801561283b573d6000803e3d6000fd5b505050506040513d601f19601f8201168201806040525081019061285f919061355f565b7fffffffff000000000000000000000000000000000000000000000000000000001614610bb5576040517f6d44973600000000000000000000000000000000000000000000000000000000815273ffffffffffffffffffffffffffffffffffffffff84166004820152602401610ac1565b80471015612913576040517fcf47918100000000000000000000000000000000000000000000000000000000815247600482015260248101829052604401610ac1565b6000808373ffffffffffffffffffffffffffffffffffffffff168360405160006040518083038185875af1925050503d806000811461296e576040519150601f19603f3d011682016040523d82523d6000602084013e612973565b606091505b5091509150816108565761085681612c08565b600080602060008451602086016000885af1806129a9576040513d6000823e3d81fd5b50506000513d915081156129c15780600114156129db565b73ffffffffffffffffffffffffffffffffffffffff84163b155b15610856576040517f5274afe700000000000000000000000000000000000000000000000000000000815273ffffffffffffffffffffffffffffffffffffffff85166004820152602401610ac1565b7c01000000000000000000000000000000000000000000000000000000007fffffffff00000000000000000000000000000000000000000000000000000000831601612aa2576040517f72c683bb00000000000000000000000000000000000000000000000000000000815260040160405180910390fd5b7fffffffff00000000000000000000000000000000000000000000000000000000919091166000908152602092909252604090912080547fffffffffffffffffffffffffffffffffffffffffffffffffffffffffffffff0016911515919091179055565b81548290828110612b4d576040517fbf0c18ec0000000000000000000000000000000000000000000000000000000081526004810182905260248101849052604401610ac1565b505550565b73ffffffffffffffffffffffffffffffffffffffff811615612bda5781547fffffffffffffffffffffffff00000000000000000000000000000000000000001673ffffffffffffffffffffffffffffffffffffffff821690811783556040516000907f8be0079c531659141344cd1fd0a4f28419497f9722a3daafe3b4186f6b6457e0908290a35b6107fa7f7f5828d000000000000000000000000000000000000000000000000000000000600161264961085c565b805115612c185780518082602001fd5b6040517fd6bda27500000000000000000000000000000000000000000000000000000000815260040160405180910390fd5b7fffffffff000000000000000000000000000000000000000000000000000000008116811461083c57600080fd5b600060208284031215612c8a57600080fd5b81356107d481612c4a565b6000815180845260005b81811015612cbb57602081850181015186830182015201612c9f565b5060006020828601015260207fffffffffffffffffffffffffffffffffffffffffffffffffffffffffffffffe0601f83011685010191505092915050565b6020815260006107d46020830184612c95565b73ffffffffffffffffffffffffffffffffffffffff8116811461083c57600080fd5b8035612d3981612d0c565b919050565b60008060408385031215612d5157600080fd5b8235612d5c81612d0c565b946020939093013593505050565b600080600060608486031215612d7f57600080fd5b8335612d8a81612d0c565b92506020840135612d9a81612d0c565b929592945050506040919091013590565b60008083601f840112612dbd57600080fd5b50813567ffffffffffffffff811115612dd557600080fd5b6020830191508360208260051b8501011115612df057600080fd5b9250929050565b600080600080600060608688031215612e0f57600080fd5b8535612e1a81612d0c565b9450602086013567ffffffffffffffff811115612e3657600080fd5b612e4288828901612dab565b909550935050604086013567ffffffffffffffff811115612e6257600080fd5b612e6e88828901612dab565b969995985093965092949392505050565b600060208284031215612e9157600080fd5b81356107d481612d0c565b60008060008060008060608789031215612eb557600080fd5b863567ffffffffffffffff811115612ecc57600080fd5b612ed889828a01612dab565b909750955050602087013567ffffffffffffffff811115612ef857600080fd5b612f0489828a01612dab565b909550935050604087013567ffffffffffffffff811115612f2457600080fd5b612f3089828a01612dab565b979a9699509497509295939492505050565b60008060008060408587031215612f5857600080fd5b843567ffffffffffffffff811115612f6f57600080fd5b612f7b87828801612dab565b909550935050602085013567ffffffffffffffff811115612f9b57600080fd5b612fa787828801612dab565b95989497509550505050565b60008083601f840112612fc557600080fd5b50813567ffffffffffffffff811115612fdd57600080fd5b602083019150836020828501011115612df057600080fd5b803560ff81168114612d3957600080fd5b60008060008060008060008060008060006101008c8e03121561302857600080fd5b6130318c612d2e565b9a5061303f60208d01612d2e565b995060408c0135985060608c013567ffffffffffffffff81111561306257600080fd5b61306e8e828f01612fb3565b90995097505060808c013567ffffffffffffffff81111561308e57600080fd5b61309a8e828f01612fb3565b90975095506130ad905060a08d01612ff5565b935060c08c013567ffffffffffffffff8111156130c957600080fd5b6130d58e828f01612fb3565b90945092506130e8905060e08d01612d2e565b90509295989b509295989b9093969950565b60008060008060006080868803121561311257600080fd5b853561311d81612d0c565b9450602086013561312d81612d0c565b935060408601359250606086013567ffffffffffffffff81111561315057600080fd5b612e6e88828901612fb3565b600080600080600080600060e0888a03121561317757600080fd5b873561318281612d0c565b9650602088013561319281612d0c565b955060408801359450606088013593506131ae60808901612ff5565b9699959850939692959460a0840135945060c09093013592915050565b600080604083850312156131de57600080fd5b82356131e981612d0c565b915060208301356131f981612d0c565b809150509250929050565b6000806020838503121561321757600080fd5b823567ffffffffffffffff81111561322e57600080fd5b61323a85828601612fb3565b90969095509350505050565b6000806000806060858703121561325c57600080fd5b843561326781612d0c565b935060208501359250604085013567ffffffffffffffff81111561328a57600080fd5b612fa787828801612fb3565b8181038181111561049e577f4e487b7100000000000000000000000000000000000000000000000000000000600052601160045260246000fd5b600181811c908216806132e457607f821691505b60208210810361331d577f4e487b7100000000000000000000000000000000000000000000000000000000600052602260045260246000fd5b50919050565b7f4e487b7100000000000000000000000000000000000000000000000000000000600052603260045260246000fd5b60006020828403121561336457600080fd5b815180151581146107d457600080fd5b7f4e487b7100000000000000000000000000000000000000000000000000000000600052604160045260246000fd5b601f82111561253157806000526020600020601f840160051c810160208510156133ca5750805b601f840160051c820191505b81811015610bb557600081556001016133d6565b67ffffffffffffffff83111561340257613402613374565b6134168361341083546132d0565b836133a3565b6000601f84116001811461346857600085156134325750838201355b7fffffffffffffffffffffffffffffffffffffffffffffffffffffffffffffffff600387901b1c1916600186901b178355610bb5565b6000838152602090207fffffffffffffffffffffffffffffffffffffffffffffffffffffffffffffffe0861690835b828110156134b75786850135825560209485019460019092019101613497565b50868210156134f2577fffffffffffffffffffffffffffffffffffffffffffffffffffffffffffffffff60f88860031b161c19848701351681555b505060018560011b0183555050505050565b73ffffffffffffffffffffffffffffffffffffffff8516815273ffffffffffffffffffffffffffffffffffffffff841660208201528260408201526080606082015260006135556080830184612c95565b9695505050505050565b60006020828403121561357157600080fd5b81516107d481612c4a56fea264697066735822122069580d8b80b4ff1e84e4249864421df62133966de6354bd54a6f93a8c93242a764736f6c634300081c0033",
  "linkReferences": {},
  "deployedLinkReferences": {}
}