{
  "_format": "hh-sol-artifact-1",
  "contractName": "FxERC20MintBurnRootTunnelMock",
  "sourceName": "contracts/mocks/fx-portal/tunnel/ERC20/FxERC20MintBurnRootTunnelMock.sol",
  "abi": [
    {
      "inputs": [
        {
          "internalType": "address",
          "name": "checkpointManager",
          "type": "address"
        },
        {
          "internalType": "address",
          "name": "fxRoot",
          "type": "address"
        },
        {
          "internalType": "address",
          "name": "fxERC20Token",
          "type": "address"
        },
        {
          "internalType": "contract IForwarderRegistry",
          "name": "forwarderRegistry",
          "type": "address"
        }
      ],
      "stateMutability": "nonpayable",
      "type": "constructor"
    },
    {
      "inputs": [],
      "name": "FxERC20InvalidDepositAddress",
      "type": "error"
    },
    {
      "inputs": [
        {
          "internalType": "address",
          "name": "childToken",
          "type": "address"
        },
        {
          "internalType": "address",
          "name": "expectedRootToken",
          "type": "address"
        },
        {
          "internalType": "address",
          "name": "actualRootToken",
          "type": "address"
        }
      ],
      "name": "FxERC20InvalidMappingOnExit",
      "type": "error"
    },
    {
      "inputs": [],
      "name": "IllegalInterfaceId",
      "type": "error"
    },
    {
      "anonymous": false,
      "inputs": [
        {
          "indexed": true,
          "internalType": "address",
          "name": "rootToken",
          "type": "address"
        },
        {
          "indexed": true,
          "internalType": "address",
          "name": "childToken",
          "type": "address"
        },
        {
          "indexed": false,
          "internalType": "address",
          "name": "depositor",
          "type": "address"
        },
        {
          "indexed": false,
          "internalType": "address",
          "name": "recipient",
          "type": "address"
        },
        {
          "indexed": false,
          "internalType": "uint256",
          "name": "amount",
          "type": "uint256"
        }
      ],
      "name": "FxERC20Deposit",
      "type": "event"
    },
    {
      "anonymous": false,
      "inputs": [
        {
          "indexed": true,
          "internalType": "address",
          "name": "rootToken",
          "type": "address"
        },
        {
          "indexed": true,
          "internalType": "address",
          "name": "childToken",
          "type": "address"
        }
      ],
      "name": "FxERC20TokenMapping",
      "type": "event"
    },
    {
      "anonymous": false,
      "inputs": [
        {
          "indexed": true,
          "internalType": "address",
          "name": "rootToken",
          "type": "address"
        },
        {
          "indexed": true,
          "internalType": "address",
          "name": "childToken",
          "type": "address"
        },
        {
          "indexed": false,
          "internalType": "address",
          "name": "withdrawer",
          "type": "address"
        },
        {
          "indexed": false,
          "internalType": "address",
          "name": "recipient",
          "type": "address"
        },
        {
          "indexed": false,
          "internalType": "uint256",
          "name": "amount",
          "type": "uint256"
        }
      ],
      "name": "FxERC20Withdrawal",
      "type": "event"
    },
    {
      "inputs": [],
      "name": "CHILD_TOKEN_PROXY_CODEHASH",
      "outputs": [
        {
          "internalType": "bytes32",
          "name": "",
          "type": "bytes32"
        }
      ],
      "stateMutability": "view",
      "type": "function"
    },
    {
      "inputs": [],
      "name": "DEPOSIT",
      "outputs": [
        {
          "internalType": "bytes32",
          "name": "",
          "type": "bytes32"
        }
      ],
      "stateMutability": "view",
      "type": "function"
    },
    {
      "inputs": [],
      "name": "MAP_TOKEN",
      "outputs": [
        {
          "internalType": "bytes32",
          "name": "",
          "type": "bytes32"
        }
      ],
      "stateMutability": "view",
      "type": "function"
    },
    {
      "inputs": [],
      "name": "SEND_MESSAGE_EVENT_SIG",
      "outputs": [
        {
          "internalType": "bytes32",
          "name": "",
          "type": "bytes32"
        }
      ],
      "stateMutability": "view",
      "type": "function"
    },
    {
      "inputs": [
        {
          "internalType": "bytes",
          "name": "data",
          "type": "bytes"
        }
      ],
      "name": "__processMessageFromChild",
      "outputs": [],
      "stateMutability": "nonpayable",
      "type": "function"
    },
    {
      "inputs": [],
      "name": "checkpointManager",
      "outputs": [
        {
          "internalType": "contract ICheckpointManager",
          "name": "",
          "type": "address"
        }
      ],
      "stateMutability": "view",
      "type": "function"
    },
    {
      "inputs": [
        {
          "internalType": "address",
          "name": "rootToken",
          "type": "address"
        }
      ],
      "name": "childToken",
      "outputs": [
        {
          "internalType": "address",
          "name": "",
          "type": "address"
        }
      ],
      "stateMutability": "view",
      "type": "function"
    },
    {
      "inputs": [
        {
          "internalType": "bytes32",
          "name": "salt",
          "type": "bytes32"
        },
        {
          "internalType": "bytes32",
          "name": "bytecodeHash",
          "type": "bytes32"
        },
        {
          "internalType": "address",
          "name": "deployer",
          "type": "address"
        }
      ],
      "name": "computedCreate2Address",
      "outputs": [
        {
          "internalType": "address",
          "name": "",
          "type": "address"
        }
      ],
      "stateMutability": "pure",
      "type": "function"
    },
    {
      "inputs": [
        {
          "internalType": "address",
          "name": "rootToken",
          "type": "address"
        },
        {
          "internalType": "uint256",
          "name": "amount",
          "type": "uint256"
        }
      ],
      "name": "deposit",
      "outputs": [],
      "stateMutability": "nonpayable",
      "type": "function"
    },
    {
      "inputs": [
        {
          "internalType": "address",
          "name": "rootToken",
          "type": "address"
        },
        {
          "internalType": "address",
          "name": "receiver",
          "type": "address"
        },
        {
          "internalType": "uint256",
          "name": "amount",
          "type": "uint256"
        }
      ],
      "name": "depositTo",
      "outputs": [],
      "stateMutability": "nonpayable",
      "type": "function"
    },
    {
      "inputs": [],
      "name": "forwarderRegistry",
      "outputs": [
        {
          "internalType": "contract IForwarderRegistry",
          "name": "",
          "type": "address"
        }
      ],
      "stateMutability": "view",
      "type": "function"
    },
    {
      "inputs": [],
      "name": "fxChildTunnel",
      "outputs": [
        {
          "internalType": "address",
          "name": "",
          "type": "address"
        }
      ],
      "stateMutability": "view",
      "type": "function"
    },
    {
      "inputs": [],
      "name": "fxRoot",
      "outputs": [
        {
          "internalType": "contract IFxStateSender",
          "name": "",
          "type": "address"
        }
      ],
      "stateMutability": "view",
      "type": "function"
    },
    {
      "inputs": [
        {
          "internalType": "address",
          "name": "forwarder",
          "type": "address"
        }
      ],
      "name": "isTrustedForwarder",
      "outputs": [
        {
          "internalType": "bool",
          "name": "",
          "type": "bool"
        }
      ],
      "stateMutability": "view",
      "type": "function"
    },
    {
      "inputs": [
        {
          "internalType": "address",
          "name": "rootToken",
          "type": "address"
        }
      ],
      "name": "mapToken",
      "outputs": [
        {
          "internalType": "address",
          "name": "childToken",
          "type": "address"
        }
      ],
      "stateMutability": "nonpayable",
      "type": "function"
    },
    {
      "inputs": [
        {
          "internalType": "address",
          "name": "",
          "type": "address"
        },
        {
          "internalType": "address",
          "name": "from",
          "type": "address"
        },
        {
          "internalType": "uint256",
          "name": "value",
          "type": "uint256"
        },
        {
          "internalType": "bytes",
          "name": "data",
          "type": "bytes"
        }
      ],
      "name": "onERC20Received",
      "outputs": [
        {
          "internalType": "bytes4",
          "name": "magicValue",
          "type": "bytes4"
        }
      ],
      "stateMutability": "nonpayable",
      "type": "function"
    },
    {
      "inputs": [
        {
          "internalType": "bytes32",
          "name": "",
          "type": "bytes32"
        }
      ],
      "name": "processedExits",
      "outputs": [
        {
          "internalType": "bool",
          "name": "",
          "type": "bool"
        }
      ],
      "stateMutability": "view",
      "type": "function"
    },
    {
      "inputs": [
        {
          "internalType": "bytes",
          "name": "inputData",
          "type": "bytes"
        }
      ],
      "name": "receiveMessage",
      "outputs": [],
      "stateMutability": "nonpayable",
      "type": "function"
    },
    {
      "inputs": [
        {
          "internalType": "address",
          "name": "",
          "type": "address"
        }
      ],
      "name": "rootToChildToken",
      "outputs": [
        {
          "internalType": "address",
          "name": "",
          "type": "address"
        }
      ],
      "stateMutability": "view",
      "type": "function"
    },
    {
      "inputs": [
        {
          "internalType": "address",
          "name": "_fxChildTunnel",
          "type": "address"
        }
      ],
      "name": "setFxChildTunnel",
      "outputs": [],
      "stateMutability": "nonpayable",
      "type": "function"
    },
    {
      "inputs": [
        {
          "internalType": "bytes4",
          "name": "interfaceId",
          "type": "bytes4"
        }
      ],
      "name": "supportsInterface",
      "outputs": [
        {
          "internalType": "bool",
          "name": "",
          "type": "bool"
        }
      ],
      "stateMutability": "view",
      "type": "function"
    }
  ],
  "bytecode": "0x60c06040523480156200001157600080fd5b50604051620036c1380380620036c18339810160408190526200003491620001d3565b600180546001600160a01b038087166001600160a01b0319928316178355600080549187169190921617905584908490849084908490849084908490819081906200009490634fc3585960e01b906200008c62000127565b91906200015d565b6001600160a01b03166080525060408051693d602d80600a3d3981f360b01b602082015269363d3d373d3d3d363d7360b01b602a8201526001600160601b0319606085901b1660348201526e5af43d82803e903d91602b57fd5bf360881b6048820152815180820360370181526057909101909152805160209091012060a052506200025d9a5050505050505050505050565b6000806200015760017fca9d3e17f264b0f3984e2634e94adb37fa3e6a8103f06aeae6fa59e21c769f5e6200023b565b92915050565b600160e01b6001600160e01b03198316016200018c576040516372c683bb60e01b815260040160405180910390fd5b6001600160e01b03199190911660009081526020929092526040909120805460ff1916911515919091179055565b6001600160a01b0381168114620001d057600080fd5b50565b60008060008060808587031215620001ea57600080fd5b8451620001f781620001ba565b60208601519094506200020a81620001ba565b60408601519093506200021d81620001ba565b60608601519092506200023081620001ba565b939692955090935050565b818103818111156200015757634e487b7160e01b600052601160045260246000fd5b60805160a05161341b620002a6600039600081816101a9015281816106630152610960015260008181610202015281816102b001528181610b800152610c08015261341b6000f3fe608060405234801561001057600080fd5b50600436106101775760003560e01c80638e415f33116100d8578063de9b771f1161008c578063f213159c11610066578063f213159c14610440578063f4a120f714610453578063f953cec71461046657600080fd5b8063de9b771f146103d7578063ea60c7c4146103f7578063ecbb36da1461042d57600080fd5b8063aea4e49e116100bd578063aea4e49e1461037d578063c0857ba014610390578063d81c8e52146103b057600080fd5b80638e415f331461034a578063972c49281461035d57600080fd5b80634fc358591161012f578063607f2d4211610114578063607f2d42146102ed5780637337957f14610310578063886a69ba1461032357600080fd5b80634fc358591461025c578063572b6c05146102a057600080fd5b80630e387de6116101605780630e387de6146101d95780632b4c9f161461020057806347e7ef241461024757600080fd5b806301ffc9a71461017c5780630ca92ab3146101a4575b600080fd5b61018f61018a366004612acc565b610479565b60405190151581526020015b60405180910390f35b6101cb7f000000000000000000000000000000000000000000000000000000000000000081565b60405190815260200161019b565b6101cb7f8c5261668696ce22758910d05bab8f186d6eb247ceac2af2e82c7dc17669b03681565b7f00000000000000000000000000000000000000000000000000000000000000005b60405173ffffffffffffffffffffffffffffffffffffffff909116815260200161019b565b61025a610255366004612b33565b610493565b005b61026f61026a366004612ba8565b6104bb565b6040517fffffffff00000000000000000000000000000000000000000000000000000000909116815260200161019b565b61018f6102ae366004612c1b565b7f000000000000000000000000000000000000000000000000000000000000000073ffffffffffffffffffffffffffffffffffffffff90811691161490565b61018f6102fb366004612c38565b60036020526000908152604090205460ff1681565b61022261031e366004612c51565b610560565b6101cb7f2cef46a936bdc5b7e6e8c71aa04560c41cf7d88bb26901a7e7f4936ff02accad81565b610222610358366004612c1b565b6105e8565b6002546102229073ffffffffffffffffffffffffffffffffffffffff1681565b61025a61038b366004612c1b565b61069e565b6001546102229073ffffffffffffffffffffffffffffffffffffffff1681565b6101cb7f87a7811f4bfedea3d341ad165680ae306b01aaeacc205d227629cf157dd9f82181565b6000546102229073ffffffffffffffffffffffffffffffffffffffff1681565b610222610405366004612c1b565b60046020526000908152604090205473ffffffffffffffffffffffffffffffffffffffff1681565b61025a61043b366004612c8a565b610790565b61025a61044e366004612ccc565b6107d3565b610222610461366004612c1b565b610848565b61025a610474366004612dd1565b610a1f565b600061048d82610487610a35565b90610a63565b92915050565b600061049d610b3d565b90506104ab83828385610c84565b6104b6838284610d89565b505050565b600084821561051e576104d083850185612c1b565b905073ffffffffffffffffffffffffffffffffffffffff811661051e576040517e7336b000000000000000000000000000000000000000000000000000000000815260040160405180910390fd5b61052a33878388610c84565b6105343386610e22565b507f4fc35859000000000000000000000000000000000000000000000000000000009695505050505050565b604080517fff00000000000000000000000000000000000000000000000000000000000000602080830191909152606084901b7fffffffffffffffffffffffffffffffffffffffff00000000000000000000000016602183015260358201869052605580830186905283518084039091018152607590920190925280519101205b9392505050565b6040517fffffffffffffffffffffffffffffffffffffffff000000000000000000000000606083901b1660208201526000908190603401604080517fffffffffffffffffffffffffffffffffffffffffffffffffffffffffffffffe081840301815291905280516020909101206002549091506105e19082907f00000000000000000000000000000000000000000000000000000000000000009073ffffffffffffffffffffffffffffffffffffffff16610560565b60025473ffffffffffffffffffffffffffffffffffffffff1615610749576040517f08c379a000000000000000000000000000000000000000000000000000000000815260206004820152602a60248201527f467842617365526f6f7454756e6e656c3a204348494c445f54554e4e454c5f4160448201527f4c52454144595f5345540000000000000000000000000000000000000000000060648201526084015b60405180910390fd5b600280547fffffffffffffffffffffffff00000000000000000000000000000000000000001673ffffffffffffffffffffffffffffffffffffffff92909216919091179055565b6107cf82828080601f016020809104026020016040519081016040528093929190818152602001838380828437600092019190915250610eb392505050565b5050565b73ffffffffffffffffffffffffffffffffffffffff821661081f576040517e7336b000000000000000000000000000000000000000000000000000000000815260040160405180910390fd5b6000610829610b3d565b905061083784828585610c84565b610842848284610d89565b50505050565b73ffffffffffffffffffffffffffffffffffffffff80821660009081526004602052604090205416801561087b57919050565b61090a7f2cef46a936bdc5b7e6e8c71aa04560c41cf7d88bb26901a7e7f4936ff02accad836108a985610fdd565b6040516020016108ba929190612ebf565b604080517fffffffffffffffffffffffffffffffffffffffffffffffffffffffffffffffe0818403018152908290526108f69291602001612eee565b6040516020818303038152906040526112be565b60408051606084901b7fffffffffffffffffffffffffffffffffffffffff00000000000000000000000016602080830191909152825160148184030181526034909201909252805191012060025461099b9082907f00000000000000000000000000000000000000000000000000000000000000009073ffffffffffffffffffffffffffffffffffffffff16610560565b73ffffffffffffffffffffffffffffffffffffffff84811660008181526004602052604080822080547fffffffffffffffffffffffff000000000000000000000000000000000000000016948616948517905551939550919290917ff935ffb7c4a7f69e191e46617fc2f41d98d93290443199977b42dd086e744c8691a350919050565b6000610a2a8261134f565b90506107cf81610eb3565b60008061048d60017fca9d3e17f264b0f3984e2634e94adb37fa3e6a8103f06aeae6fa59e21c769f5e612f36565b60007c01000000000000000000000000000000000000000000000000000000007fffffffff00000000000000000000000000000000000000000000000000000000831601610ab35750600061048d565b7ffe003659000000000000000000000000000000000000000000000000000000007fffffffff00000000000000000000000000000000000000000000000000000000831601610b045750600161048d565b507fffffffff00000000000000000000000000000000000000000000000000000000166000908152602091909152604090205460ff1690565b600033321480610b4d5750601836105b15610b5757503390565b7fffffffffffffffffffffffffffffffffffffffffffffffffffffffffffffffec36013560601c7f000000000000000000000000000000000000000000000000000000000000000073ffffffffffffffffffffffffffffffffffffffff16331480610c7357506040517f8929a8ca00000000000000000000000000000000000000000000000000000000815273ffffffffffffffffffffffffffffffffffffffff82811660048301523360248301527f00000000000000000000000000000000000000000000000000000000000000001690638929a8ca90604401602060405180830381865afa158015610c4f573d6000803e3d6000fd5b505050506040513d601f19601f82011682018060405250810190610c739190612f49565b15610c7d57919050565b3391505090565b6040805173ffffffffffffffffffffffffffffffffffffffff8681166020830152858116828401528416606082015260808082018490528251808303909101815260a08201909252600091610cfe917f87a7811f4bfedea3d341ad165680ae306b01aaeacc205d227629cf157dd9f821919060c001612eee565b6040516020818303038152906040529050610d18816112be565b610d2185610848565b6040805173ffffffffffffffffffffffffffffffffffffffff8781168252868116602083015291810185905291811691908716907fd04a997afc07fd79393f2188ae8935e4389ab8aef6144f0f839e3aade5b858ab9060600160405180910390a35050505050565b6040517f79cc679000000000000000000000000000000000000000000000000000000000815273ffffffffffffffffffffffffffffffffffffffff8381166004830152602482018390528416906379cc6790906044016020604051808303816000875af1158015610dfe573d6000803e3d6000fd5b505050506040513d601f19601f820116820180604052508101906108429190612f49565b6040517f42966c680000000000000000000000000000000000000000000000000000000081526004810182905273ffffffffffffffffffffffffffffffffffffffff8316906342966c68906024016020604051808303816000875af1158015610e8f573d6000803e3d6000fd5b505050506040513d601f19601f820116820180604052508101906104b69190612f49565b600080600080600085806020019051810190610ecf9190612f6b565b73ffffffffffffffffffffffffffffffffffffffff808616600090815260046020526040902054959a50939850919650945092509081169085168114610f69576040517f3855947700000000000000000000000000000000000000000000000000000000815273ffffffffffffffffffffffffffffffffffffffff8088166004830152808716602483015282166044820152606401610740565b610f74868484611731565b6040805173ffffffffffffffffffffffffffffffffffffffff86811682528581166020830152918101849052818716918816907faa4bbbc02123d0c446b55ec99a14078c9eab05cb4a271e6d8f8e278d9e4cd1849060600160405180910390a350505050505050565b6060600082905060008173ffffffffffffffffffffffffffffffffffffffff166306fdde036040518163ffffffff1660e01b8152600401600060405180830381865afa158015611031573d6000803e3d6000fd5b505050506040513d6000823e601f3d9081017fffffffffffffffffffffffffffffffffffffffffffffffffffffffffffffffe01682016040526110779190810190613006565b905060008273ffffffffffffffffffffffffffffffffffffffff166395d89b416040518163ffffffff1660e01b8152600401600060405180830381865afa1580156110c6573d6000803e3d6000fd5b505050506040513d6000823e601f3d9081017fffffffffffffffffffffffffffffffffffffffffffffffffffffffffffffffe016820160405261110c9190810190613006565b905060008373ffffffffffffffffffffffffffffffffffffffff1663313ce5676040518163ffffffff1660e01b8152600401602060405180830381865afa15801561115b573d6000803e3d6000fd5b505050506040513d601f19601f8201168201806040525081019061117f919061304f565b905060008673ffffffffffffffffffffffffffffffffffffffff16633c130d906040518163ffffffff1660e01b8152600401600060405180830381865afa1580156111ce573d6000803e3d6000fd5b505050506040513d6000823e601f3d9081017fffffffffffffffffffffffffffffffffffffffffffffffffffffffffffffffe01682016040526112149190810190613006565b905060008773ffffffffffffffffffffffffffffffffffffffff16638da5cb5b6040518163ffffffff1660e01b8152600401602060405180830381865afa158015611263573d6000803e3d6000fd5b505050506040513d601f19601f820116820180604052508101906112879190613072565b905084848484846040516020016112a295949392919061308f565b6040516020818303038152906040529650505050505050919050565b6000546002546040517fb472047700000000000000000000000000000000000000000000000000000000815273ffffffffffffffffffffffffffffffffffffffff9283169263b47204779261131a929116908590600401612ebf565b600060405180830381600087803b15801561133457600080fd5b505af1158015611348573d6000803e3d6000fd5b5050505050565b6060600061135c836117be565b905060006113698261181d565b9050600061137683611846565b90506000816113848461186f565b61138d86611a53565b60405160200161139f939291906130fa565b604080517fffffffffffffffffffffffffffffffffffffffffffffffffffffffffffffffe081840301815291815281516020928301206000818152600390935291205490915060ff1615611474576040517f08c379a0000000000000000000000000000000000000000000000000000000008152602060048201526024808201527f4678526f6f7454756e6e656c3a20455849545f414c52454144595f50524f434560448201527f53534544000000000000000000000000000000000000000000000000000000006064820152608401610740565b600081815260036020526040812080547fffffffffffffffffffffffffffffffffffffffffffffffffffffffffffffff001660011790556114b485611a6f565b905060006114c182611bb9565b90506114cc81611c49565b60025473ffffffffffffffffffffffffffffffffffffffff908116911614611576576040517f08c379a000000000000000000000000000000000000000000000000000000000815260206004820152602560248201527f4678526f6f7454756e6e656c3a20494e56414c49445f46585f4348494c445f5460448201527f554e4e454c0000000000000000000000000000000000000000000000000000006064820152608401610740565b600061158187611c72565b90506115a1611591846020015190565b8761159b8a611c8e565b84611caa565b61162d576040517f08c379a000000000000000000000000000000000000000000000000000000000815260206004820152602360248201527f4678526f6f7454756e6e656c3a20494e56414c49445f524543454950545f505260448201527f4f4f4600000000000000000000000000000000000000000000000000000000006064820152608401610740565b61165b8561163a89611f53565b6116438a611f6f565b8461164d8c611f8b565b6116568d611fa7565b611fc3565b50600061166783612129565b90507f8c5261668696ce22758910d05bab8f186d6eb247ceac2af2e82c7dc17669b03661169d611698836000612165565b61219d565b14611704576040517f08c379a000000000000000000000000000000000000000000000000000000000815260206004820152601f60248201527f4678526f6f7454756e6e656c3a20494e56414c49445f5349474e4154555245006044820152606401610740565b600061170f84612218565b8060200190518101906117229190613006565b9b9a5050505050505050505050565b6040517f40c10f1900000000000000000000000000000000000000000000000000000000815273ffffffffffffffffffffffffffffffffffffffff8381166004830152602482018390528416906340c10f1990604401600060405180830381600087803b1580156117a157600080fd5b505af11580156117b5573d6000803e3d6000fd5b50505050505050565b60408051602081019091526060815260006118086118038460408051808201825260008082526020918201528151808301909252825182529182019181019190915290565b612234565b60408051602081019091529081529392505050565b606061048d826000015160088151811061183957611839613127565b6020026020010151612340565b600061048d826000015160028151811061186257611862613127565b602002602001015161219d565b6040805160208101909152600081528151606091901561048d576000806118976000866123dd565b60f81c905060018114806118ae57508060ff166003145b1561196e576001855160026118c39190613156565b6118cd9190612f36565b67ffffffffffffffff8111156118e5576118e5612d0d565b6040519080825280601f01601f19166020018201604052801561190f576020820181803683370190505b509250600061191f6001876123dd565b9050808460008151811061193557611935613127565b60200101907effffffffffffffffffffffffffffffffffffffffffffffffffffffffffffff1916908160001a90535060019250506119d2565b60028551600261197e9190613156565b6119889190612f36565b67ffffffffffffffff8111156119a0576119a0612d0d565b6040519080825280601f01601f1916602001820160405280156119ca576020820181803683370190505b509250600091505b60ff82165b8351811015611a4a57611a016119f060ff851683612f36565b6119fb90600261316d565b876123dd565b848281518110611a1357611a13613127565b60200101907effffffffffffffffffffffffffffffffffffffffffffffffffffffffffffff1916908160001a9053506001016119d7565b50505092915050565b600061048d826000015160098151811061186257611862613127565b611a9360405180606001604052806060815260200160608152602001600081525090565b611aad826000015160068151811061183957611839613127565b602082810182905260408051808201825260008082529083015280518082019091528251815291810190820152611ae38161245e565b15611af857611af181612234565b8252611ba5565b60208201518051600090611b0e90600190612f36565b67ffffffffffffffff811115611b2657611b26612d0d565b6040519080825280601f01601f191660200182016040528015611b50576020820181803683370190505b509050600080836021019150826020019050611b6e82828551612499565b604080518082018252600080825260209182015281518083019092528451825280850190820152611b9e90612234565b8652505050505b611bae83611a53565b604083015250919050565b604080516080810182526000918101828152606080830193909352815260208101919091526000611c078360000151600381518110611bfa57611bfa613127565b6020026020010151612234565b836040015181518110611c1c57611c1c613127565b602002602001015190506040518060400160405280828152602001611c4083612234565b90529392505050565b600061048d8260200151600081518110611c6557611c65613127565b6020026020010151612524565b600061048d826000015160058151811061186257611862613127565b606061048d826000015160078151811061183957611839613127565b600080611cde8460408051808201825260008082526020918201528151808301909252825182529182019181019190915290565b90506000611ceb82612234565b905060608085600080611cfd8b61186f565b90508051600003611d18576000975050505050505050611f4b565b60005b8651811015611f42578151831115611d3e57600098505050505050505050611f4b565b611d60878281518110611d5357611d53613127565b602002602001015161253e565b955085805190602001208414611d8157600098505050505050505050611f4b565b611d96878281518110611bfa57611bfa613127565b94508451601103611e685781518303611df5578c80519060200120611dc78660108151811061183957611839613127565b8051906020012003611de457600198505050505050505050611f4b565b600098505050505050505050611f4b565b6000828481518110611e0957611e09613127565b016020015160f81c90506010811115611e2e5760009950505050505050505050611f4b565b611e53868260ff1681518110611e4657611e46613127565b60200260200101516125bd565b9450611e6060018561316d565b935050611f3a565b8451600203611de4576000611e93611e8c8760008151811061183957611839613127565b84866125eb565b8351909150611ea2828661316d565b03611ef5578d80519060200120611ec58760018151811061183957611839613127565b8051906020012003611ee35760019950505050505050505050611f4b565b60009950505050505050505050611f4b565b80600003611f0f5760009950505050505050505050611f4b565b611f19818561316d565b9350611f3186600181518110611e4657611e46613127565b9450611f3a9050565b600101611d1b565b50505050505050505b949350505050565b600061048d826000015160038151811061186257611862613127565b600061048d826000015160048151811061186257611862613127565b600061048d826000015160008151811061186257611862613127565b606061048d826000015160018151811061183957611839613127565b6001546040517f41539d4a0000000000000000000000000000000000000000000000000000000081526004810184905260009182918291829173ffffffffffffffffffffffffffffffffffffffff909116906341539d4a9060240160a060405180830381865afa15801561203b573d6000803e3d6000fd5b505050506040513d601f19601f8201168201806040525081019061205f9190613180565b50935050925092506120b6828b6120769190612f36565b6040805160208082018f90528183018e9052606082018d905260808083018d90528351808403909101815260a09092019092528051910120908588612718565b61211c576040517f08c379a000000000000000000000000000000000000000000000000000000000815260206004820152601c60248201527f4678526f6f7454756e6e656c3a20494e56414c49445f484541444552000000006044820152606401610740565b9998505050505050505050565b604080516020810190915260608152604051806020016040528061215d8460200151600181518110611bfa57611bfa613127565b905292915050565b6040805180820190915260008082526020820152825180518390811061218d5761218d613127565b6020026020010151905092915050565b8051600090158015906121b257508151602110155b6121bb57600080fd5b60006121ca83602001516128c5565b905060008184600001516121de9190612f36565b90506000808386602001516121f3919061316d565b905080519150602083101561220f57826020036101000a820491505b50949350505050565b606061048d826020015160028151811061183957611839613127565b606061223f8261245e565b61224857600080fd5b600061225383612940565b905060008167ffffffffffffffff81111561227057612270612d0d565b6040519080825280602002602001820160405280156122b557816020015b604080518082019091526000808252602082015281526020019060019003908161228e5790505b50905060006122c785602001516128c5565b85602001516122d6919061316d565b90506000805b84811015612335576122ed836129c5565b915060405180604001604052808381526020018481525084828151811061231657612316613127565b602090810291909101015261232b828461316d565b92506001016122dc565b509195945050505050565b805160609061234e57600080fd5b600061235d83602001516128c5565b905060008184600001516123719190612f36565b905060008167ffffffffffffffff81111561238e5761238e612d0d565b6040519080825280601f01601f1916602001820160405280156123b8576020820181803683370190505b509050600081602001905061220f8487602001516123d6919061316d565b8285612a87565b60006123ea6002846131fc565b15612424576010826123fd600286613210565b8151811061240d5761240d613127565b016020015161241f919060f81c613224565b612454565b601082612432600286613210565b8151811061244257612442613127565b0160200151612454919060f81c613246565b60f81b9392505050565b8051600090810361247157506000919050565b6020820151805160001a9060c082101561248f575060009392505050565b5060019392505050565b806000036124a657505050565b602081106124de57825182526124bd60208461316d565b92506124ca60208361316d565b91506124d7602082612f36565b90506124a6565b806000036124eb57505050565b600060016124fa836020612f36565b61250690610100613388565b6125109190612f36565b935183518516941916939093179091525050565b805160009060151461253557600080fd5b61048d8261219d565b60606000826000015167ffffffffffffffff81111561255f5761255f612d0d565b6040519080825280601f01601f191660200182016040528015612589576020820181803683370190505b509050805160000361259b5792915050565b60008160200190506125b68460200151828660000151612a87565b5092915050565b80516000906021146125ce57600080fd5b600080836020015160016125e2919061316d565b51949350505050565b600080806125f88661186f565b90506000815167ffffffffffffffff81111561261657612616612d0d565b6040519080825280601f01601f191660200182016040528015612640576020820181803683370190505b509050845b8251612651908761316d565b8110156126e957600087828151811061266c5761266c613127565b01602001517fff0000000000000000000000000000000000000000000000000000000000000016905080836126a18985612f36565b815181106126b1576126b1613127565b60200101907effffffffffffffffffffffffffffffffffffffffffffffffffffffffffffff1916908160001a90535050600101612645565b508080519060200120828051906020012003612708578151925061270d565b600092505b509095945050505050565b60006020825161272891906131fc565b1561278f576040517f08c379a000000000000000000000000000000000000000000000000000000000815260206004820152601460248201527f496e76616c69642070726f6f66206c656e6774680000000000000000000000006044820152606401610740565b60006020835161279f9190613210565b90506127ac816002613388565b8510612814576040517f08c379a000000000000000000000000000000000000000000000000000000000815260206004820152601560248201527f4c65616620696e64657820697320746f6f2062696700000000000000000000006044820152606401610740565b60008660205b855181116128b7578581015192506128336002896131fc565b60000361286b576040805160208101849052908101849052606001604051602081830303815290604052805190602001209150612898565b60408051602081018590529081018390526060016040516020818303038152906040528051906020012091505b6128a3600289613210565b97506128b060208261316d565b905061281a565b509094149695505050505050565b8051600090811a60808110156128de5750600092915050565b60b88110806128f9575060c081108015906128f9575060f881105b156129075750600192915050565b60c08110156129345761291c600160b8613394565b6129299060ff1682612f36565b6105e190600161316d565b61291c600160f8613394565b8051600090810361295357506000919050565b60008061296384602001516128c5565b8460200151612972919061316d565b905060008460000151856020015161298a919061316d565b90505b808210156129bc5761299e826129c5565b6129a8908361316d565b9150826129b4816133ad565b93505061298d565b50909392505050565b80516000908190811a60808110156129e057600191506125b6565b60b8811015612a06576129f4608082612f36565b6129ff90600161316d565b91506125b6565b60c0811015612a335760b78103600185019450806020036101000a855104600182018101935050506125b6565b60f8811015612a47576129f460c082612f36565b60019390930151602084900360f7016101000a90049092017fffffffffffffffffffffffffffffffffffffffffffffffffffffffffffffff0a0192915050565b80600003612a9457505050565b602081106124de5782518252612aab60208461316d565b9250612ab860208361316d565b9150612ac5602082612f36565b9050612a94565b600060208284031215612ade57600080fd5b81357fffffffff00000000000000000000000000000000000000000000000000000000811681146105e157600080fd5b73ffffffffffffffffffffffffffffffffffffffff81168114612b3057600080fd5b50565b60008060408385031215612b4657600080fd5b8235612b5181612b0e565b946020939093013593505050565b60008083601f840112612b7157600080fd5b50813567ffffffffffffffff811115612b8957600080fd5b602083019150836020828501011115612ba157600080fd5b9250929050565b600080600080600060808688031215612bc057600080fd5b8535612bcb81612b0e565b94506020860135612bdb81612b0e565b935060408601359250606086013567ffffffffffffffff811115612bfe57600080fd5b612c0a88828901612b5f565b969995985093965092949392505050565b600060208284031215612c2d57600080fd5b81356105e181612b0e565b600060208284031215612c4a57600080fd5b5035919050565b600080600060608486031215612c6657600080fd5b83359250602084013591506040840135612c7f81612b0e565b809150509250925092565b60008060208385031215612c9d57600080fd5b823567ffffffffffffffff811115612cb457600080fd5b612cc085828601612b5f565b90969095509350505050565b600080600060608486031215612ce157600080fd5b8335612cec81612b0e565b92506020840135612cfc81612b0e565b929592945050506040919091013590565b7f4e487b7100000000000000000000000000000000000000000000000000000000600052604160045260246000fd5b604051601f82017fffffffffffffffffffffffffffffffffffffffffffffffffffffffffffffffe016810167ffffffffffffffff81118282101715612d8357612d83612d0d565b604052919050565b600067ffffffffffffffff821115612da557612da5612d0d565b50601f017fffffffffffffffffffffffffffffffffffffffffffffffffffffffffffffffe01660200190565b600060208284031215612de357600080fd5b813567ffffffffffffffff811115612dfa57600080fd5b8201601f81018413612e0b57600080fd5b8035612e1e612e1982612d8b565b612d3c565b818152856020838501011115612e3357600080fd5b81602084016020830137600091810160200191909152949350505050565b60005b83811015612e6c578181015183820152602001612e54565b50506000910152565b60008151808452612e8d816020860160208601612e51565b601f017fffffffffffffffffffffffffffffffffffffffffffffffffffffffffffffffe0169290920160200192915050565b73ffffffffffffffffffffffffffffffffffffffff83168152604060208201526000611f4b6040830184612e75565b828152604060208201526000611f4b6040830184612e75565b7f4e487b7100000000000000000000000000000000000000000000000000000000600052601160045260246000fd5b8181038181111561048d5761048d612f07565b600060208284031215612f5b57600080fd5b815180151581146105e157600080fd5b600080600080600060a08688031215612f8357600080fd5b8551612f8e81612b0e565b6020870151909550612f9f81612b0e565b6040870151909450612fb081612b0e565b6060870151909350612fc181612b0e565b80925050608086015190509295509295909350565b6000612fe4612e1984612d8b565b9050828152838383011115612ff857600080fd5b6105e1836020830184612e51565b60006020828403121561301857600080fd5b815167ffffffffffffffff81111561302f57600080fd5b8201601f8101841361304057600080fd5b611f4b84825160208401612fd6565b60006020828403121561306157600080fd5b815160ff811681146105e157600080fd5b60006020828403121561308457600080fd5b81516105e181612b0e565b60a0815260006130a260a0830188612e75565b82810360208401526130b48188612e75565b905060ff8616604084015282810360608401526130d18186612e75565b91505073ffffffffffffffffffffffffffffffffffffffff831660808301529695505050505050565b83815260008351613112816020850160208801612e51565b60209201918201929092526040019392505050565b7f4e487b7100000000000000000000000000000000000000000000000000000000600052603260045260246000fd5b808202811582820484141761048d5761048d612f07565b8082018082111561048d5761048d612f07565b600080600080600060a0868803121561319857600080fd5b8551945060208601519350604086015192506060860151915060808601516131bf81612b0e565b809150509295509295909350565b7f4e487b7100000000000000000000000000000000000000000000000000000000600052601260045260246000fd5b60008261320b5761320b6131cd565b500690565b60008261321f5761321f6131cd565b500490565b600060ff831680613237576132376131cd565b8060ff84160691505092915050565b600060ff831680613259576132596131cd565b8060ff84160491505092915050565b600181815b808511156132c157817fffffffffffffffffffffffffffffffffffffffffffffffffffffffffffffffff048211156132a7576132a7612f07565b808516156132b457918102915b93841c939080029061326d565b509250929050565b6000826132d85750600161048d565b816132e55750600061048d565b81600181146132fb576002811461330557613321565b600191505061048d565b60ff84111561331657613316612f07565b50506001821b61048d565b5060208310610133831016604e8410600b8410161715613344575081810a61048d565b61334e8383613268565b807fffffffffffffffffffffffffffffffffffffffffffffffffffffffffffffffff0482111561338057613380612f07565b029392505050565b60006105e183836132c9565b60ff828116828216039081111561048d5761048d612f07565b60007fffffffffffffffffffffffffffffffffffffffffffffffffffffffffffffffff82036133de576133de612f07565b506001019056fea26469706673582212201a7f134b334d4b3dd79d3368e30507d50d0860edd1797e2416c67d44d41e8b9264736f6c63430008180033",
  "linkReferences": {},
  "deployedLinkReferences": {}
}