{
  "_format": "hh-sol-artifact-1",
  "contractName": "FxERC20MintBurnRootTunnelMock",
  "sourceName": "contracts/mocks/fx-portal/tunnel/ERC20/FxERC20MintBurnRootTunnelMock.sol",
  "abi": [
    {
      "inputs": [
        {
          "internalType": "address",
          "name": "checkpointManager",
          "type": "address"
        },
        {
          "internalType": "address",
          "name": "fxRoot",
          "type": "address"
        },
        {
          "internalType": "address",
          "name": "fxERC20Token",
          "type": "address"
        },
        {
          "internalType": "contract IForwarderRegistry",
          "name": "forwarderRegistry",
          "type": "address"
        }
      ],
      "stateMutability": "nonpayable",
      "type": "constructor"
    },
    {
      "inputs": [],
      "name": "FxERC20InvalidDepositAddress",
      "type": "error"
    },
    {
      "inputs": [
        {
          "internalType": "address",
          "name": "childToken",
          "type": "address"
        },
        {
          "internalType": "address",
          "name": "expectedRootToken",
          "type": "address"
        },
        {
          "internalType": "address",
          "name": "actualRootToken",
          "type": "address"
        }
      ],
      "name": "FxERC20InvalidMappingOnExit",
      "type": "error"
    },
    {
      "inputs": [],
      "name": "IllegalInterfaceId",
      "type": "error"
    },
    {
      "anonymous": false,
      "inputs": [
        {
          "indexed": true,
          "internalType": "address",
          "name": "rootToken",
          "type": "address"
        },
        {
          "indexed": true,
          "internalType": "address",
          "name": "childToken",
          "type": "address"
        },
        {
          "indexed": false,
          "internalType": "address",
          "name": "depositor",
          "type": "address"
        },
        {
          "indexed": false,
          "internalType": "address",
          "name": "recipient",
          "type": "address"
        },
        {
          "indexed": false,
          "internalType": "uint256",
          "name": "amount",
          "type": "uint256"
        }
      ],
      "name": "FxERC20Deposit",
      "type": "event"
    },
    {
      "anonymous": false,
      "inputs": [
        {
          "indexed": true,
          "internalType": "address",
          "name": "rootToken",
          "type": "address"
        },
        {
          "indexed": true,
          "internalType": "address",
          "name": "childToken",
          "type": "address"
        }
      ],
      "name": "FxERC20TokenMapping",
      "type": "event"
    },
    {
      "anonymous": false,
      "inputs": [
        {
          "indexed": true,
          "internalType": "address",
          "name": "rootToken",
          "type": "address"
        },
        {
          "indexed": true,
          "internalType": "address",
          "name": "childToken",
          "type": "address"
        },
        {
          "indexed": false,
          "internalType": "address",
          "name": "withdrawer",
          "type": "address"
        },
        {
          "indexed": false,
          "internalType": "address",
          "name": "recipient",
          "type": "address"
        },
        {
          "indexed": false,
          "internalType": "uint256",
          "name": "amount",
          "type": "uint256"
        }
      ],
      "name": "FxERC20Withdrawal",
      "type": "event"
    },
    {
      "inputs": [],
      "name": "DEPOSIT",
      "outputs": [
        {
          "internalType": "bytes32",
          "name": "",
          "type": "bytes32"
        }
      ],
      "stateMutability": "view",
      "type": "function"
    },
    {
      "inputs": [],
      "name": "MAP_TOKEN",
      "outputs": [
        {
          "internalType": "bytes32",
          "name": "",
          "type": "bytes32"
        }
      ],
      "stateMutability": "view",
      "type": "function"
    },
    {
      "inputs": [],
      "name": "SEND_MESSAGE_EVENT_SIG",
      "outputs": [
        {
          "internalType": "bytes32",
          "name": "",
          "type": "bytes32"
        }
      ],
      "stateMutability": "view",
      "type": "function"
    },
    {
      "inputs": [
        {
          "internalType": "bytes",
          "name": "data",
          "type": "bytes"
        }
      ],
      "name": "__processMessageFromChild",
      "outputs": [],
      "stateMutability": "nonpayable",
      "type": "function"
    },
    {
      "inputs": [],
      "name": "checkpointManager",
      "outputs": [
        {
          "internalType": "contract ICheckpointManager",
          "name": "",
          "type": "address"
        }
      ],
      "stateMutability": "view",
      "type": "function"
    },
    {
      "inputs": [
        {
          "internalType": "address",
          "name": "rootToken",
          "type": "address"
        }
      ],
      "name": "childToken",
      "outputs": [
        {
          "internalType": "address",
          "name": "",
          "type": "address"
        }
      ],
      "stateMutability": "view",
      "type": "function"
    },
    {
      "inputs": [],
      "name": "childTokenProxyCodeHash",
      "outputs": [
        {
          "internalType": "bytes32",
          "name": "",
          "type": "bytes32"
        }
      ],
      "stateMutability": "view",
      "type": "function"
    },
    {
      "inputs": [
        {
          "internalType": "bytes32",
          "name": "salt",
          "type": "bytes32"
        },
        {
          "internalType": "bytes32",
          "name": "bytecodeHash",
          "type": "bytes32"
        },
        {
          "internalType": "address",
          "name": "deployer",
          "type": "address"
        }
      ],
      "name": "computedCreate2Address",
      "outputs": [
        {
          "internalType": "address",
          "name": "",
          "type": "address"
        }
      ],
      "stateMutability": "pure",
      "type": "function"
    },
    {
      "inputs": [
        {
          "internalType": "address",
          "name": "rootToken",
          "type": "address"
        },
        {
          "internalType": "uint256",
          "name": "amount",
          "type": "uint256"
        }
      ],
      "name": "deposit",
      "outputs": [],
      "stateMutability": "nonpayable",
      "type": "function"
    },
    {
      "inputs": [
        {
          "internalType": "address",
          "name": "rootToken",
          "type": "address"
        },
        {
          "internalType": "address",
          "name": "receiver",
          "type": "address"
        },
        {
          "internalType": "uint256",
          "name": "amount",
          "type": "uint256"
        }
      ],
      "name": "depositTo",
      "outputs": [],
      "stateMutability": "nonpayable",
      "type": "function"
    },
    {
      "inputs": [],
      "name": "forwarderRegistry",
      "outputs": [
        {
          "internalType": "contract IForwarderRegistry",
          "name": "",
          "type": "address"
        }
      ],
      "stateMutability": "view",
      "type": "function"
    },
    {
      "inputs": [],
      "name": "fxChildTunnel",
      "outputs": [
        {
          "internalType": "address",
          "name": "",
          "type": "address"
        }
      ],
      "stateMutability": "view",
      "type": "function"
    },
    {
      "inputs": [],
      "name": "fxRoot",
      "outputs": [
        {
          "internalType": "contract IFxStateSender",
          "name": "",
          "type": "address"
        }
      ],
      "stateMutability": "view",
      "type": "function"
    },
    {
      "inputs": [
        {
          "internalType": "address",
          "name": "forwarder",
          "type": "address"
        }
      ],
      "name": "isTrustedForwarder",
      "outputs": [
        {
          "internalType": "bool",
          "name": "",
          "type": "bool"
        }
      ],
      "stateMutability": "view",
      "type": "function"
    },
    {
      "inputs": [
        {
          "internalType": "address",
          "name": "rootToken",
          "type": "address"
        }
      ],
      "name": "mapToken",
      "outputs": [
        {
          "internalType": "address",
          "name": "childToken",
          "type": "address"
        }
      ],
      "stateMutability": "nonpayable",
      "type": "function"
    },
    {
      "inputs": [
        {
          "internalType": "address",
          "name": "",
          "type": "address"
        },
        {
          "internalType": "address",
          "name": "from",
          "type": "address"
        },
        {
          "internalType": "uint256",
          "name": "value",
          "type": "uint256"
        },
        {
          "internalType": "bytes",
          "name": "data",
          "type": "bytes"
        }
      ],
      "name": "onERC20Received",
      "outputs": [
        {
          "internalType": "bytes4",
          "name": "magicValue",
          "type": "bytes4"
        }
      ],
      "stateMutability": "nonpayable",
      "type": "function"
    },
    {
      "inputs": [
        {
          "internalType": "bytes32",
          "name": "",
          "type": "bytes32"
        }
      ],
      "name": "processedExits",
      "outputs": [
        {
          "internalType": "bool",
          "name": "",
          "type": "bool"
        }
      ],
      "stateMutability": "view",
      "type": "function"
    },
    {
      "inputs": [
        {
          "internalType": "bytes",
          "name": "inputData",
          "type": "bytes"
        }
      ],
      "name": "receiveMessage",
      "outputs": [],
      "stateMutability": "nonpayable",
      "type": "function"
    },
    {
      "inputs": [
        {
          "internalType": "address",
          "name": "",
          "type": "address"
        }
      ],
      "name": "rootToChildToken",
      "outputs": [
        {
          "internalType": "address",
          "name": "",
          "type": "address"
        }
      ],
      "stateMutability": "view",
      "type": "function"
    },
    {
      "inputs": [
        {
          "internalType": "address",
          "name": "_fxChildTunnel",
          "type": "address"
        }
      ],
      "name": "setFxChildTunnel",
      "outputs": [],
      "stateMutability": "nonpayable",
      "type": "function"
    },
    {
      "inputs": [
        {
          "internalType": "bytes4",
          "name": "interfaceId",
          "type": "bytes4"
        }
      ],
      "name": "supportsInterface",
      "outputs": [
        {
          "internalType": "bool",
          "name": "",
          "type": "bool"
        }
      ],
      "stateMutability": "view",
      "type": "function"
    }
  ],
  "bytecode": "0x60c060405234801561001057600080fd5b506040516136b33803806136b383398101604081905261002f916101c5565b600180546001600160a01b038087166001600160a01b03199283161783556000805491871691909216179055849084908490849084908490849084908190819061008b90634fc3585960e01b9061008461011d565b9190610151565b6001600160a01b03166080525060408051693d602d80600a3d3981f360b01b602082015269363d3d373d3d3d363d7360b01b602a8201526001600160601b0319606085901b1660348201526e5af43d82803e903d91602b57fd5bf360881b6048820152815180820360370181526057909101909152805160209091012060a052506102459a5050505050505050505050565b60008061014b60017fca9d3e17f264b0f3984e2634e94adb37fa3e6a8103f06aeae6fa59e21c769f5e610224565b92915050565b600160e01b6001600160e01b031983160161017f576040516372c683bb60e01b815260040160405180910390fd5b6001600160e01b03199190911660009081526020929092526040909120805460ff1916911515919091179055565b6001600160a01b03811681146101c257600080fd5b50565b600080600080608085870312156101db57600080fd5b84516101e6816101ad565b60208601519094506101f7816101ad565b6040860151909350610208816101ad565b6060860151909250610219816101ad565b939692955090935050565b8181038181111561014b57634e487b7160e01b600052601160045260246000fd5b60805160a05161342661028d6000396000818161036e0152818161066301526109600152600081816101db0152818161028901528181610b800152610c0e01526134266000f3fe608060405234801561001057600080fd5b50600436106101775760003560e01c8063972c4928116100d8578063de9b771f1161008c578063f213159c11610066578063f213159c14610440578063f4a120f714610453578063f953cec71461046657600080fd5b8063de9b771f146103d7578063ea60c7c4146103f7578063ecbb36da1461042d57600080fd5b8063b3e37c18116100bd578063b3e37c1814610369578063c0857ba014610390578063d81c8e52146103b057600080fd5b8063972c492814610336578063aea4e49e1461035657600080fd5b8063572b6c051161012f5780637337957f116101145780637337957f146102e9578063886a69ba146102fc5780638e415f331461032357600080fd5b8063572b6c0514610279578063607f2d42146102c657600080fd5b80632b4c9f16116101605780632b4c9f16146101d957806347e7ef24146102205780634fc358591461023557600080fd5b806301ffc9a71461017c5780630e387de6146101a4575b600080fd5b61018f61018a366004612ad2565b610479565b60405190151581526020015b60405180910390f35b6101cb7f8c5261668696ce22758910d05bab8f186d6eb247ceac2af2e82c7dc17669b03681565b60405190815260200161019b565b7f00000000000000000000000000000000000000000000000000000000000000005b60405173ffffffffffffffffffffffffffffffffffffffff909116815260200161019b565b61023361022e366004612b39565b610493565b005b610248610243366004612bae565b6104bb565b6040517fffffffff00000000000000000000000000000000000000000000000000000000909116815260200161019b565b61018f610287366004612c21565b7f000000000000000000000000000000000000000000000000000000000000000073ffffffffffffffffffffffffffffffffffffffff90811691161490565b61018f6102d4366004612c3e565b60036020526000908152604090205460ff1681565b6101fb6102f7366004612c57565b610560565b6101cb7f2cef46a936bdc5b7e6e8c71aa04560c41cf7d88bb26901a7e7f4936ff02accad81565b6101fb610331366004612c21565b6105e8565b6002546101fb9073ffffffffffffffffffffffffffffffffffffffff1681565b610233610364366004612c21565b61069e565b6101cb7f000000000000000000000000000000000000000000000000000000000000000081565b6001546101fb9073ffffffffffffffffffffffffffffffffffffffff1681565b6101cb7f87a7811f4bfedea3d341ad165680ae306b01aaeacc205d227629cf157dd9f82181565b6000546101fb9073ffffffffffffffffffffffffffffffffffffffff1681565b6101fb610405366004612c21565b60046020526000908152604090205473ffffffffffffffffffffffffffffffffffffffff1681565b61023361043b366004612c90565b610790565b61023361044e366004612cd2565b6107d3565b6101fb610461366004612c21565b610848565b610233610474366004612dd7565b610a1f565b600061048d82610487610a35565b90610a63565b92915050565b600061049d610b3d565b90506104ab83828385610c8a565b6104b6838284610d8f565b505050565b600084821561051e576104d083850185612c21565b905073ffffffffffffffffffffffffffffffffffffffff811661051e576040517e7336b000000000000000000000000000000000000000000000000000000000815260040160405180910390fd5b61052a33878388610c8a565b6105343386610e28565b507f4fc35859000000000000000000000000000000000000000000000000000000009695505050505050565b604080517fff00000000000000000000000000000000000000000000000000000000000000602080830191909152606084901b7fffffffffffffffffffffffffffffffffffffffff00000000000000000000000016602183015260358201869052605580830186905283518084039091018152607590920190925280519101205b9392505050565b6040517fffffffffffffffffffffffffffffffffffffffff000000000000000000000000606083901b1660208201526000908190603401604080517fffffffffffffffffffffffffffffffffffffffffffffffffffffffffffffffe081840301815291905280516020909101206002549091506105e19082907f00000000000000000000000000000000000000000000000000000000000000009073ffffffffffffffffffffffffffffffffffffffff16610560565b60025473ffffffffffffffffffffffffffffffffffffffff1615610749576040517f08c379a000000000000000000000000000000000000000000000000000000000815260206004820152602a60248201527f467842617365526f6f7454756e6e656c3a204348494c445f54554e4e454c5f4160448201527f4c52454144595f5345540000000000000000000000000000000000000000000060648201526084015b60405180910390fd5b600280547fffffffffffffffffffffffff00000000000000000000000000000000000000001673ffffffffffffffffffffffffffffffffffffffff92909216919091179055565b6107cf82828080601f016020809104026020016040519081016040528093929190818152602001838380828437600092019190915250610eb992505050565b5050565b73ffffffffffffffffffffffffffffffffffffffff821661081f576040517e7336b000000000000000000000000000000000000000000000000000000000815260040160405180910390fd5b6000610829610b3d565b905061083784828585610c8a565b610842848284610d8f565b50505050565b73ffffffffffffffffffffffffffffffffffffffff80821660009081526004602052604090205416801561087b57919050565b61090a7f2cef46a936bdc5b7e6e8c71aa04560c41cf7d88bb26901a7e7f4936ff02accad836108a985610fe3565b6040516020016108ba929190612ec5565b604080517fffffffffffffffffffffffffffffffffffffffffffffffffffffffffffffffe0818403018152908290526108f69291602001612ef4565b6040516020818303038152906040526112c4565b60408051606084901b7fffffffffffffffffffffffffffffffffffffffff00000000000000000000000016602080830191909152825160148184030181526034909201909252805191012060025461099b9082907f00000000000000000000000000000000000000000000000000000000000000009073ffffffffffffffffffffffffffffffffffffffff16610560565b73ffffffffffffffffffffffffffffffffffffffff84811660008181526004602052604080822080547fffffffffffffffffffffffff000000000000000000000000000000000000000016948616948517905551939550919290917ff935ffb7c4a7f69e191e46617fc2f41d98d93290443199977b42dd086e744c8691a350919050565b6000610a2a82611355565b90506107cf81610eb9565b60008061048d60017fca9d3e17f264b0f3984e2634e94adb37fa3e6a8103f06aeae6fa59e21c769f5e612f3c565b60007c01000000000000000000000000000000000000000000000000000000007fffffffff00000000000000000000000000000000000000000000000000000000831601610ab35750600061048d565b7ffe003659000000000000000000000000000000000000000000000000000000007fffffffff00000000000000000000000000000000000000000000000000000000831601610b045750600161048d565b507fffffffff00000000000000000000000000000000000000000000000000000000166000908152602091909152604090205460ff1690565b600033321480610b4d5750601836105b15610b5757503390565b7fffffffffffffffffffffffffffffffffffffffffffffffffffffffffffffffec36013560601c7f000000000000000000000000000000000000000000000000000000000000000073ffffffffffffffffffffffffffffffffffffffff16331480610c7957506040517f019a202800000000000000000000000000000000000000000000000000000000815273ffffffffffffffffffffffffffffffffffffffff82811660048301523360248301523060448301527f0000000000000000000000000000000000000000000000000000000000000000169063019a202890606401602060405180830381865afa158015610c55573d6000803e3d6000fd5b505050506040513d601f19601f82011682018060405250810190610c799190612f4f565b15610c8357919050565b3391505090565b6040805173ffffffffffffffffffffffffffffffffffffffff8681166020830152858116828401528416606082015260808082018490528251808303909101815260a08201909252600091610d04917f87a7811f4bfedea3d341ad165680ae306b01aaeacc205d227629cf157dd9f821919060c001612ef4565b6040516020818303038152906040529050610d1e816112c4565b610d2785610848565b6040805173ffffffffffffffffffffffffffffffffffffffff8781168252868116602083015291810185905291811691908716907fd04a997afc07fd79393f2188ae8935e4389ab8aef6144f0f839e3aade5b858ab9060600160405180910390a35050505050565b6040517f79cc679000000000000000000000000000000000000000000000000000000000815273ffffffffffffffffffffffffffffffffffffffff8381166004830152602482018390528416906379cc6790906044016020604051808303816000875af1158015610e04573d6000803e3d6000fd5b505050506040513d601f19601f820116820180604052508101906108429190612f4f565b6040517f42966c680000000000000000000000000000000000000000000000000000000081526004810182905273ffffffffffffffffffffffffffffffffffffffff8316906342966c68906024016020604051808303816000875af1158015610e95573d6000803e3d6000fd5b505050506040513d601f19601f820116820180604052508101906104b69190612f4f565b600080600080600085806020019051810190610ed59190612f71565b73ffffffffffffffffffffffffffffffffffffffff808616600090815260046020526040902054959a50939850919650945092509081169085168114610f6f576040517f3855947700000000000000000000000000000000000000000000000000000000815273ffffffffffffffffffffffffffffffffffffffff8088166004830152808716602483015282166044820152606401610740565b610f7a868484611737565b6040805173ffffffffffffffffffffffffffffffffffffffff86811682528581166020830152918101849052818716918816907faa4bbbc02123d0c446b55ec99a14078c9eab05cb4a271e6d8f8e278d9e4cd1849060600160405180910390a350505050505050565b6060600082905060008173ffffffffffffffffffffffffffffffffffffffff166306fdde036040518163ffffffff1660e01b8152600401600060405180830381865afa158015611037573d6000803e3d6000fd5b505050506040513d6000823e601f3d9081017fffffffffffffffffffffffffffffffffffffffffffffffffffffffffffffffe016820160405261107d919081019061300c565b905060008273ffffffffffffffffffffffffffffffffffffffff166395d89b416040518163ffffffff1660e01b8152600401600060405180830381865afa1580156110cc573d6000803e3d6000fd5b505050506040513d6000823e601f3d9081017fffffffffffffffffffffffffffffffffffffffffffffffffffffffffffffffe0168201604052611112919081019061300c565b905060008373ffffffffffffffffffffffffffffffffffffffff1663313ce5676040518163ffffffff1660e01b8152600401602060405180830381865afa158015611161573d6000803e3d6000fd5b505050506040513d601f19601f820116820180604052508101906111859190613055565b905060008673ffffffffffffffffffffffffffffffffffffffff16633c130d906040518163ffffffff1660e01b8152600401600060405180830381865afa1580156111d4573d6000803e3d6000fd5b505050506040513d6000823e601f3d9081017fffffffffffffffffffffffffffffffffffffffffffffffffffffffffffffffe016820160405261121a919081019061300c565b905060008773ffffffffffffffffffffffffffffffffffffffff16638da5cb5b6040518163ffffffff1660e01b8152600401602060405180830381865afa158015611269573d6000803e3d6000fd5b505050506040513d601f19601f8201168201806040525081019061128d9190613078565b905084848484846040516020016112a8959493929190613095565b6040516020818303038152906040529650505050505050919050565b6000546002546040517fb472047700000000000000000000000000000000000000000000000000000000815273ffffffffffffffffffffffffffffffffffffffff9283169263b472047792611320929116908590600401612ec5565b600060405180830381600087803b15801561133a57600080fd5b505af115801561134e573d6000803e3d6000fd5b5050505050565b60606000611362836117c4565b9050600061136f82611823565b9050600061137c8361184c565b905060008161138a84611875565b61139386611a59565b6040516020016113a593929190613100565b604080517fffffffffffffffffffffffffffffffffffffffffffffffffffffffffffffffe081840301815291815281516020928301206000818152600390935291205490915060ff161561147a576040517f08c379a0000000000000000000000000000000000000000000000000000000008152602060048201526024808201527f4678526f6f7454756e6e656c3a20455849545f414c52454144595f50524f434560448201527f53534544000000000000000000000000000000000000000000000000000000006064820152608401610740565b600081815260036020526040812080547fffffffffffffffffffffffffffffffffffffffffffffffffffffffffffffff001660011790556114ba85611a75565b905060006114c782611bbf565b90506114d281611c4f565b60025473ffffffffffffffffffffffffffffffffffffffff90811691161461157c576040517f08c379a000000000000000000000000000000000000000000000000000000000815260206004820152602560248201527f4678526f6f7454756e6e656c3a20494e56414c49445f46585f4348494c445f5460448201527f554e4e454c0000000000000000000000000000000000000000000000000000006064820152608401610740565b600061158787611c78565b90506115a7611597846020015190565b876115a18a611c94565b84611cb0565b611633576040517f08c379a000000000000000000000000000000000000000000000000000000000815260206004820152602360248201527f4678526f6f7454756e6e656c3a20494e56414c49445f524543454950545f505260448201527f4f4f4600000000000000000000000000000000000000000000000000000000006064820152608401610740565b6116618561164089611f59565b6116498a611f75565b846116538c611f91565b61165c8d611fad565b611fc9565b50600061166d8361212f565b90507f8c5261668696ce22758910d05bab8f186d6eb247ceac2af2e82c7dc17669b0366116a361169e83600061216b565b6121a3565b1461170a576040517f08c379a000000000000000000000000000000000000000000000000000000000815260206004820152601f60248201527f4678526f6f7454756e6e656c3a20494e56414c49445f5349474e4154555245006044820152606401610740565b60006117158461221e565b806020019051810190611728919061300c565b9b9a5050505050505050505050565b6040517f40c10f1900000000000000000000000000000000000000000000000000000000815273ffffffffffffffffffffffffffffffffffffffff8381166004830152602482018390528416906340c10f1990604401600060405180830381600087803b1580156117a757600080fd5b505af11580156117bb573d6000803e3d6000fd5b50505050505050565b604080516020810190915260608152600061180e6118098460408051808201825260008082526020918201528151808301909252825182529182019181019190915290565b61223a565b60408051602081019091529081529392505050565b606061048d826000015160088151811061183f5761183f61312d565b6020026020010151612346565b600061048d82600001516002815181106118685761186861312d565b60200260200101516121a3565b6040805160208101909152600081528151606091901561048d5760008061189d6000866123e3565b60f81c905060018114806118b457508060ff166003145b15611974576001855160026118c9919061315c565b6118d39190612f3c565b67ffffffffffffffff8111156118eb576118eb612d13565b6040519080825280601f01601f191660200182016040528015611915576020820181803683370190505b50925060006119256001876123e3565b9050808460008151811061193b5761193b61312d565b60200101907effffffffffffffffffffffffffffffffffffffffffffffffffffffffffffff1916908160001a90535060019250506119d8565b600285516002611984919061315c565b61198e9190612f3c565b67ffffffffffffffff8111156119a6576119a6612d13565b6040519080825280601f01601f1916602001820160405280156119d0576020820181803683370190505b509250600091505b60ff82165b8351811015611a5057611a076119f660ff851683612f3c565b611a01906002613173565b876123e3565b848281518110611a1957611a1961312d565b60200101907effffffffffffffffffffffffffffffffffffffffffffffffffffffffffffff1916908160001a9053506001016119dd565b50505092915050565b600061048d82600001516009815181106118685761186861312d565b611a9960405180606001604052806060815260200160608152602001600081525090565b611ab3826000015160068151811061183f5761183f61312d565b602082810182905260408051808201825260008082529083015280518082019091528251815291810190820152611ae981612464565b15611afe57611af78161223a565b8252611bab565b60208201518051600090611b1490600190612f3c565b67ffffffffffffffff811115611b2c57611b2c612d13565b6040519080825280601f01601f191660200182016040528015611b56576020820181803683370190505b509050600080836021019150826020019050611b748282855161249f565b604080518082018252600080825260209182015281518083019092528451825280850190820152611ba49061223a565b8652505050505b611bb483611a59565b604083015250919050565b604080516080810182526000918101828152606080830193909352815260208101919091526000611c0d8360000151600381518110611c0057611c0061312d565b602002602001015161223a565b836040015181518110611c2257611c2261312d565b602002602001015190506040518060400160405280828152602001611c468361223a565b90529392505050565b600061048d8260200151600081518110611c6b57611c6b61312d565b602002602001015161252a565b600061048d82600001516005815181106118685761186861312d565b606061048d826000015160078151811061183f5761183f61312d565b600080611ce48460408051808201825260008082526020918201528151808301909252825182529182019181019190915290565b90506000611cf18261223a565b905060608085600080611d038b611875565b90508051600003611d1e576000975050505050505050611f51565b60005b8651811015611f48578151831115611d4457600098505050505050505050611f51565b611d66878281518110611d5957611d5961312d565b6020026020010151612544565b955085805190602001208414611d8757600098505050505050505050611f51565b611d9c878281518110611c0057611c0061312d565b94508451601103611e6e5781518303611dfb578c80519060200120611dcd8660108151811061183f5761183f61312d565b8051906020012003611dea57600198505050505050505050611f51565b600098505050505050505050611f51565b6000828481518110611e0f57611e0f61312d565b016020015160f81c90506010811115611e345760009950505050505050505050611f51565b611e59868260ff1681518110611e4c57611e4c61312d565b60200260200101516125c3565b9450611e66600185613173565b935050611f40565b8451600203611dea576000611e99611e928760008151811061183f5761183f61312d565b84866125f1565b8351909150611ea88286613173565b03611efb578d80519060200120611ecb8760018151811061183f5761183f61312d565b8051906020012003611ee95760019950505050505050505050611f51565b60009950505050505050505050611f51565b80600003611f155760009950505050505050505050611f51565b611f1f8185613173565b9350611f3786600181518110611e4c57611e4c61312d565b9450611f409050565b600101611d21565b50505050505050505b949350505050565b600061048d82600001516003815181106118685761186861312d565b600061048d82600001516004815181106118685761186861312d565b600061048d82600001516000815181106118685761186861312d565b606061048d826000015160018151811061183f5761183f61312d565b6001546040517f41539d4a0000000000000000000000000000000000000000000000000000000081526004810184905260009182918291829173ffffffffffffffffffffffffffffffffffffffff909116906341539d4a9060240160a060405180830381865afa158015612041573d6000803e3d6000fd5b505050506040513d601f19601f820116820180604052508101906120659190613186565b50935050925092506120bc828b61207c9190612f3c565b6040805160208082018f90528183018e9052606082018d905260808083018d90528351808403909101815260a0909201909252805191012090858861271e565b612122576040517f08c379a000000000000000000000000000000000000000000000000000000000815260206004820152601c60248201527f4678526f6f7454756e6e656c3a20494e56414c49445f484541444552000000006044820152606401610740565b9998505050505050505050565b60408051602081019091526060815260405180602001604052806121638460200151600181518110611c0057611c0061312d565b905292915050565b604080518082019091526000808252602082015282518051839081106121935761219361312d565b6020026020010151905092915050565b8051600090158015906121b857508151602110155b6121c157600080fd5b60006121d083602001516128cb565b905060008184600001516121e49190612f3c565b90506000808386602001516121f99190613173565b905080519150602083101561221557826020036101000a820491505b50949350505050565b606061048d826020015160028151811061183f5761183f61312d565b606061224582612464565b61224e57600080fd5b600061225983612946565b905060008167ffffffffffffffff81111561227657612276612d13565b6040519080825280602002602001820160405280156122bb57816020015b60408051808201909152600080825260208201528152602001906001900390816122945790505b50905060006122cd85602001516128cb565b85602001516122dc9190613173565b90506000805b8481101561233b576122f3836129cb565b915060405180604001604052808381526020018481525084828151811061231c5761231c61312d565b60209081029190910101526123318284613173565b92506001016122e2565b509195945050505050565b805160609061235457600080fd5b600061236383602001516128cb565b905060008184600001516123779190612f3c565b905060008167ffffffffffffffff81111561239457612394612d13565b6040519080825280601f01601f1916602001820160405280156123be576020820181803683370190505b50905060008160200190506122158487602001516123dc9190613173565b8285612a8d565b60006123f0600284613204565b1561242a57601082612403600286613218565b815181106124135761241361312d565b0160200151612425919060f81c61322c565b61245a565b601082612438600286613218565b815181106124485761244861312d565b016020015161245a919060f81c61324e565b60f81b9392505050565b8051600090810361247757506000919050565b6020820151805160001a9060c0821015612495575060009392505050565b5060019392505050565b806000036124ac57505050565b602081106124e457825182526124c3602084613173565b92506124d0602083613173565b91506124dd602082612f3c565b90506124ac565b806000036124f157505050565b60006001612500836020612f3c565b61250c90610100613393565b6125169190612f3c565b935183518516941916939093179091525050565b805160009060151461253b57600080fd5b61048d826121a3565b60606000826000015167ffffffffffffffff81111561256557612565612d13565b6040519080825280601f01601f19166020018201604052801561258f576020820181803683370190505b50905080516000036125a15792915050565b60008160200190506125bc8460200151828660000151612a8d565b5092915050565b80516000906021146125d457600080fd5b600080836020015160016125e89190613173565b51949350505050565b600080806125fe86611875565b90506000815167ffffffffffffffff81111561261c5761261c612d13565b6040519080825280601f01601f191660200182016040528015612646576020820181803683370190505b509050845b82516126579087613173565b8110156126ef5760008782815181106126725761267261312d565b01602001517fff0000000000000000000000000000000000000000000000000000000000000016905080836126a78985612f3c565b815181106126b7576126b761312d565b60200101907effffffffffffffffffffffffffffffffffffffffffffffffffffffffffffff1916908160001a9053505060010161264b565b50808051906020012082805190602001200361270e5781519250612713565b600092505b509095945050505050565b60006020825161272e9190613204565b15612795576040517f08c379a000000000000000000000000000000000000000000000000000000000815260206004820152601460248201527f496e76616c69642070726f6f66206c656e6774680000000000000000000000006044820152606401610740565b6000602083516127a59190613218565b90506127b2816002613393565b851061281a576040517f08c379a000000000000000000000000000000000000000000000000000000000815260206004820152601560248201527f4c65616620696e64657820697320746f6f2062696700000000000000000000006044820152606401610740565b60008660205b855181116128bd57858101519250612839600289613204565b60000361287157604080516020810184905290810184905260600160405160208183030381529060405280519060200120915061289e565b60408051602081018590529081018390526060016040516020818303038152906040528051906020012091505b6128a9600289613218565b97506128b6602082613173565b9050612820565b509094149695505050505050565b8051600090811a60808110156128e45750600092915050565b60b88110806128ff575060c081108015906128ff575060f881105b1561290d5750600192915050565b60c081101561293a57612922600160b861339f565b61292f9060ff1682612f3c565b6105e1906001613173565b612922600160f861339f565b8051600090810361295957506000919050565b60008061296984602001516128cb565b84602001516129789190613173565b90506000846000015185602001516129909190613173565b90505b808210156129c2576129a4826129cb565b6129ae9083613173565b9150826129ba816133b8565b935050612993565b50909392505050565b80516000908190811a60808110156129e657600191506125bc565b60b8811015612a0c576129fa608082612f3c565b612a05906001613173565b91506125bc565b60c0811015612a395760b78103600185019450806020036101000a855104600182018101935050506125bc565b60f8811015612a4d576129fa60c082612f3c565b60019390930151602084900360f7016101000a90049092017fffffffffffffffffffffffffffffffffffffffffffffffffffffffffffffff0a0192915050565b80600003612a9a57505050565b602081106124e45782518252612ab1602084613173565b9250612abe602083613173565b9150612acb602082612f3c565b9050612a9a565b600060208284031215612ae457600080fd5b81357fffffffff00000000000000000000000000000000000000000000000000000000811681146105e157600080fd5b73ffffffffffffffffffffffffffffffffffffffff81168114612b3657600080fd5b50565b60008060408385031215612b4c57600080fd5b8235612b5781612b14565b946020939093013593505050565b60008083601f840112612b7757600080fd5b50813567ffffffffffffffff811115612b8f57600080fd5b602083019150836020828501011115612ba757600080fd5b9250929050565b600080600080600060808688031215612bc657600080fd5b8535612bd181612b14565b94506020860135612be181612b14565b935060408601359250606086013567ffffffffffffffff811115612c0457600080fd5b612c1088828901612b65565b969995985093965092949392505050565b600060208284031215612c3357600080fd5b81356105e181612b14565b600060208284031215612c5057600080fd5b5035919050565b600080600060608486031215612c6c57600080fd5b83359250602084013591506040840135612c8581612b14565b809150509250925092565b60008060208385031215612ca357600080fd5b823567ffffffffffffffff811115612cba57600080fd5b612cc685828601612b65565b90969095509350505050565b600080600060608486031215612ce757600080fd5b8335612cf281612b14565b92506020840135612d0281612b14565b929592945050506040919091013590565b7f4e487b7100000000000000000000000000000000000000000000000000000000600052604160045260246000fd5b604051601f82017fffffffffffffffffffffffffffffffffffffffffffffffffffffffffffffffe016810167ffffffffffffffff81118282101715612d8957612d89612d13565b604052919050565b600067ffffffffffffffff821115612dab57612dab612d13565b50601f017fffffffffffffffffffffffffffffffffffffffffffffffffffffffffffffffe01660200190565b600060208284031215612de957600080fd5b813567ffffffffffffffff811115612e0057600080fd5b8201601f81018413612e1157600080fd5b8035612e24612e1f82612d91565b612d42565b818152856020838501011115612e3957600080fd5b81602084016020830137600091810160200191909152949350505050565b60005b83811015612e72578181015183820152602001612e5a565b50506000910152565b60008151808452612e93816020860160208601612e57565b601f017fffffffffffffffffffffffffffffffffffffffffffffffffffffffffffffffe0169290920160200192915050565b73ffffffffffffffffffffffffffffffffffffffff83168152604060208201526000611f516040830184612e7b565b828152604060208201526000611f516040830184612e7b565b7f4e487b7100000000000000000000000000000000000000000000000000000000600052601160045260246000fd5b8181038181111561048d5761048d612f0d565b600060208284031215612f6157600080fd5b815180151581146105e157600080fd5b600080600080600060a08688031215612f8957600080fd5b8551612f9481612b14565b6020870151909550612fa581612b14565b6040870151909450612fb681612b14565b6060870151909350612fc781612b14565b60809690960151949793965091949392915050565b6000612fea612e1f84612d91565b9050828152838383011115612ffe57600080fd5b6105e1836020830184612e57565b60006020828403121561301e57600080fd5b815167ffffffffffffffff81111561303557600080fd5b8201601f8101841361304657600080fd5b611f5184825160208401612fdc565b60006020828403121561306757600080fd5b815160ff811681146105e157600080fd5b60006020828403121561308a57600080fd5b81516105e181612b14565b60a0815260006130a860a0830188612e7b565b82810360208401526130ba8188612e7b565b905060ff8616604084015282810360608401526130d78186612e7b565b91505073ffffffffffffffffffffffffffffffffffffffff831660808301529695505050505050565b83815260008351613118816020850160208801612e57565b60209201918201929092526040019392505050565b7f4e487b7100000000000000000000000000000000000000000000000000000000600052603260045260246000fd5b808202811582820484141761048d5761048d612f0d565b8082018082111561048d5761048d612f0d565b600080600080600060a0868803121561319e57600080fd5b855160208701516040880151606089015160808a0151939850919650945092506131c781612b14565b809150509295509295909350565b7f4e487b7100000000000000000000000000000000000000000000000000000000600052601260045260246000fd5b600082613213576132136131d5565b500690565b600082613227576132276131d5565b500490565b600060ff83168061323f5761323f6131d5565b8060ff84160691505092915050565b600060ff831680613261576132616131d5565b8060ff84160491505092915050565b6001815b60018411156132ab5780850481111561328f5761328f612f0d565b600184161561329d57908102905b60019390931c928002613274565b935093915050565b6000826132c25750600161048d565b816132cf5750600061048d565b81600181146132e557600281146132ef5761330b565b600191505061048d565b60ff84111561330057613300612f0d565b50506001821b61048d565b5060208310610133831016604e8410600b841016171561332e575081810a61048d565b6133597fffffffffffffffffffffffffffffffffffffffffffffffffffffffffffffffff8484613270565b807fffffffffffffffffffffffffffffffffffffffffffffffffffffffffffffffff0482111561338b5761338b612f0d565b029392505050565b60006105e183836132b3565b60ff828116828216039081111561048d5761048d612f0d565b60007fffffffffffffffffffffffffffffffffffffffffffffffffffffffffffffffff82036133e9576133e9612f0d565b506001019056fea264697066735822122035d49e4b8eefb95f071f25a7c8fce4838ff13cd14fa0215653585a0bd866972b64736f6c634300081c0033",
  "linkReferences": {},
  "deployedLinkReferences": {}
}