{
  "_format": "hh-sol-artifact-1",
  "contractName": "FxERC20FixedSupplyRootTunnelMock",
  "sourceName": "contracts/mocks/fx-portal/ERC20/FxERC20FixedSupplyRootTunnelMock.sol",
  "abi": [
    {
      "inputs": [
        {
          "internalType": "address",
          "name": "checkpointManager",
          "type": "address"
        },
        {
          "internalType": "address",
          "name": "fxRoot",
          "type": "address"
        },
        {
          "internalType": "address",
          "name": "fxERC20Token",
          "type": "address"
        },
        {
          "internalType": "contract IForwarderRegistry",
          "name": "forwarderRegistry",
          "type": "address"
        }
      ],
      "stateMutability": "nonpayable",
      "type": "constructor"
    },
    {
      "inputs": [],
      "name": "FxERC20InvalidDepositAddress",
      "type": "error"
    },
    {
      "inputs": [
        {
          "internalType": "address",
          "name": "childToken",
          "type": "address"
        },
        {
          "internalType": "address",
          "name": "expectedRootToken",
          "type": "address"
        },
        {
          "internalType": "address",
          "name": "actualRootToken",
          "type": "address"
        }
      ],
      "name": "FxERC20InvalidMappingOnExit",
      "type": "error"
    },
    {
      "anonymous": false,
      "inputs": [
        {
          "indexed": true,
          "internalType": "address",
          "name": "rootToken",
          "type": "address"
        },
        {
          "indexed": true,
          "internalType": "address",
          "name": "childToken",
          "type": "address"
        },
        {
          "indexed": false,
          "internalType": "address",
          "name": "depositor",
          "type": "address"
        },
        {
          "indexed": false,
          "internalType": "address",
          "name": "recipient",
          "type": "address"
        },
        {
          "indexed": false,
          "internalType": "uint256",
          "name": "amount",
          "type": "uint256"
        }
      ],
      "name": "FxERC20Deposit",
      "type": "event"
    },
    {
      "anonymous": false,
      "inputs": [
        {
          "indexed": true,
          "internalType": "address",
          "name": "rootToken",
          "type": "address"
        },
        {
          "indexed": true,
          "internalType": "address",
          "name": "childToken",
          "type": "address"
        }
      ],
      "name": "FxERC20TokenMapping",
      "type": "event"
    },
    {
      "anonymous": false,
      "inputs": [
        {
          "indexed": true,
          "internalType": "address",
          "name": "rootToken",
          "type": "address"
        },
        {
          "indexed": true,
          "internalType": "address",
          "name": "childToken",
          "type": "address"
        },
        {
          "indexed": false,
          "internalType": "address",
          "name": "withdrawer",
          "type": "address"
        },
        {
          "indexed": false,
          "internalType": "address",
          "name": "recipient",
          "type": "address"
        },
        {
          "indexed": false,
          "internalType": "uint256",
          "name": "amount",
          "type": "uint256"
        }
      ],
      "name": "FxERC20Withdrawal",
      "type": "event"
    },
    {
      "inputs": [],
      "name": "DEPOSIT",
      "outputs": [
        {
          "internalType": "bytes32",
          "name": "",
          "type": "bytes32"
        }
      ],
      "stateMutability": "view",
      "type": "function"
    },
    {
      "inputs": [],
      "name": "MAP_TOKEN",
      "outputs": [
        {
          "internalType": "bytes32",
          "name": "",
          "type": "bytes32"
        }
      ],
      "stateMutability": "view",
      "type": "function"
    },
    {
      "inputs": [],
      "name": "SEND_MESSAGE_EVENT_SIG",
      "outputs": [
        {
          "internalType": "bytes32",
          "name": "",
          "type": "bytes32"
        }
      ],
      "stateMutability": "view",
      "type": "function"
    },
    {
      "inputs": [
        {
          "internalType": "bytes",
          "name": "data",
          "type": "bytes"
        }
      ],
      "name": "__processMessageFromChild",
      "outputs": [],
      "stateMutability": "nonpayable",
      "type": "function"
    },
    {
      "inputs": [],
      "name": "checkpointManager",
      "outputs": [
        {
          "internalType": "contract ICheckpointManager",
          "name": "",
          "type": "address"
        }
      ],
      "stateMutability": "view",
      "type": "function"
    },
    {
      "inputs": [
        {
          "internalType": "address",
          "name": "rootToken",
          "type": "address"
        }
      ],
      "name": "childToken",
      "outputs": [
        {
          "internalType": "address",
          "name": "",
          "type": "address"
        }
      ],
      "stateMutability": "view",
      "type": "function"
    },
    {
      "inputs": [],
      "name": "childTokenProxyCodeHash",
      "outputs": [
        {
          "internalType": "bytes32",
          "name": "",
          "type": "bytes32"
        }
      ],
      "stateMutability": "view",
      "type": "function"
    },
    {
      "inputs": [
        {
          "internalType": "bytes32",
          "name": "salt",
          "type": "bytes32"
        },
        {
          "internalType": "bytes32",
          "name": "bytecodeHash",
          "type": "bytes32"
        },
        {
          "internalType": "address",
          "name": "deployer",
          "type": "address"
        }
      ],
      "name": "computedCreate2Address",
      "outputs": [
        {
          "internalType": "address",
          "name": "",
          "type": "address"
        }
      ],
      "stateMutability": "pure",
      "type": "function"
    },
    {
      "inputs": [
        {
          "internalType": "address",
          "name": "rootToken",
          "type": "address"
        },
        {
          "internalType": "uint256",
          "name": "amount",
          "type": "uint256"
        }
      ],
      "name": "deposit",
      "outputs": [],
      "stateMutability": "nonpayable",
      "type": "function"
    },
    {
      "inputs": [
        {
          "internalType": "address",
          "name": "rootToken",
          "type": "address"
        },
        {
          "internalType": "address",
          "name": "receiver",
          "type": "address"
        },
        {
          "internalType": "uint256",
          "name": "amount",
          "type": "uint256"
        }
      ],
      "name": "depositTo",
      "outputs": [],
      "stateMutability": "nonpayable",
      "type": "function"
    },
    {
      "inputs": [],
      "name": "forwarderRegistry",
      "outputs": [
        {
          "internalType": "contract IForwarderRegistry",
          "name": "",
          "type": "address"
        }
      ],
      "stateMutability": "view",
      "type": "function"
    },
    {
      "inputs": [],
      "name": "fxChildTunnel",
      "outputs": [
        {
          "internalType": "address",
          "name": "",
          "type": "address"
        }
      ],
      "stateMutability": "view",
      "type": "function"
    },
    {
      "inputs": [],
      "name": "fxRoot",
      "outputs": [
        {
          "internalType": "contract IFxStateSender",
          "name": "",
          "type": "address"
        }
      ],
      "stateMutability": "view",
      "type": "function"
    },
    {
      "inputs": [
        {
          "internalType": "address",
          "name": "forwarder",
          "type": "address"
        }
      ],
      "name": "isTrustedForwarder",
      "outputs": [
        {
          "internalType": "bool",
          "name": "",
          "type": "bool"
        }
      ],
      "stateMutability": "view",
      "type": "function"
    },
    {
      "inputs": [
        {
          "internalType": "address",
          "name": "rootToken",
          "type": "address"
        }
      ],
      "name": "mapToken",
      "outputs": [
        {
          "internalType": "address",
          "name": "childToken",
          "type": "address"
        }
      ],
      "stateMutability": "nonpayable",
      "type": "function"
    },
    {
      "inputs": [
        {
          "internalType": "address",
          "name": "",
          "type": "address"
        },
        {
          "internalType": "address",
          "name": "from",
          "type": "address"
        },
        {
          "internalType": "uint256",
          "name": "value",
          "type": "uint256"
        },
        {
          "internalType": "bytes",
          "name": "data",
          "type": "bytes"
        }
      ],
      "name": "onERC20Received",
      "outputs": [
        {
          "internalType": "bytes4",
          "name": "magicValue",
          "type": "bytes4"
        }
      ],
      "stateMutability": "nonpayable",
      "type": "function"
    },
    {
      "inputs": [
        {
          "internalType": "bytes32",
          "name": "",
          "type": "bytes32"
        }
      ],
      "name": "processedExits",
      "outputs": [
        {
          "internalType": "bool",
          "name": "",
          "type": "bool"
        }
      ],
      "stateMutability": "view",
      "type": "function"
    },
    {
      "inputs": [
        {
          "internalType": "bytes",
          "name": "inputData",
          "type": "bytes"
        }
      ],
      "name": "receiveMessage",
      "outputs": [],
      "stateMutability": "nonpayable",
      "type": "function"
    },
    {
      "inputs": [
        {
          "internalType": "address",
          "name": "",
          "type": "address"
        }
      ],
      "name": "rootToChildToken",
      "outputs": [
        {
          "internalType": "address",
          "name": "",
          "type": "address"
        }
      ],
      "stateMutability": "view",
      "type": "function"
    },
    {
      "inputs": [
        {
          "internalType": "address",
          "name": "_fxChildTunnel",
          "type": "address"
        }
      ],
      "name": "setFxChildTunnel",
      "outputs": [],
      "stateMutability": "nonpayable",
      "type": "function"
    },
    {
      "inputs": [
        {
          "internalType": "bytes4",
          "name": "interfaceId",
          "type": "bytes4"
        }
      ],
      "name": "supportsInterface",
      "outputs": [
        {
          "internalType": "bool",
          "name": "",
          "type": "bool"
        }
      ],
      "stateMutability": "view",
      "type": "function"
    }
  ],
  "bytecode": "0x60c06040523480156200001157600080fd5b5060405162003bd038038062003bd0833981016040819052620000349162000221565b600180546001600160a01b03199081166001600160a01b03878116919091178355600080549092169086161790558490849084908490849084908490849081908190620000af90634fc3585960e01b906200009a62000142602090811b62000a2b17901c565b6200017860201b62000a59179092919060201c565b6001600160a01b03166080525060408051693d602d80600a3d3981f360b01b602082015269363d3d373d3d3d363d7360b01b602a8201526001600160601b0319606085901b1660348201526e5af43d82803e903d91602b57fd5bf360881b6048820152815180820360370181526057909101909152805160209091012060a05250620002ab9a5050505050505050505050565b6000806200017260017fca9d3e17f264b0f3984e2634e94adb37fa3e6a8103f06aeae6fa59e21c769f5e62000289565b92915050565b600160e01b6001600160e01b0319831601620001da5760405162461bcd60e51b815260206004820152601f60248201527f496e74657266616365446574656374696f6e3a2077726f6e672076616c756500604482015260640160405180910390fd5b6001600160e01b03199190911660009081526020929092526040909120805460ff1916911515919091179055565b6001600160a01b03811681146200021e57600080fd5b50565b600080600080608085870312156200023857600080fd5b8451620002458162000208565b6020860151909450620002588162000208565b60408601519093506200026b8162000208565b60608601519092506200027e8162000208565b939692955090935050565b818103818111156200017257634e487b7160e01b600052601160045260246000fd5b60805160a0516138dc620002f46000396000818161036e0152818161065901526109560152600081816101db0152818161028901528181610c820152610d0a01526138dc6000f3fe608060405234801561001057600080fd5b50600436106101775760003560e01c8063972c4928116100d8578063de9b771f1161008c578063f213159c11610066578063f213159c14610440578063f4a120f714610453578063f953cec71461046657600080fd5b8063de9b771f146103d7578063ea60c7c4146103f7578063ecbb36da1461042d57600080fd5b8063b3e37c18116100bd578063b3e37c1814610369578063c0857ba014610390578063d81c8e52146103b057600080fd5b8063972c492814610336578063aea4e49e1461035657600080fd5b8063572b6c051161012f5780637337957f116101145780637337957f146102e9578063886a69ba146102fc5780638e415f331461032357600080fd5b8063572b6c0514610279578063607f2d42146102c657600080fd5b80632b4c9f16116101605780632b4c9f16146101d957806347e7ef24146102205780634fc358591461023557600080fd5b806301ffc9a71461017c5780630e387de6146101a4575b600080fd5b61018f61018a366004612f3e565b610479565b60405190151581526020015b60405180910390f35b6101cb7f8c5261668696ce22758910d05bab8f186d6eb247ceac2af2e82c7dc17669b03681565b60405190815260200161019b565b7f00000000000000000000000000000000000000000000000000000000000000005b60405173ffffffffffffffffffffffffffffffffffffffff909116815260200161019b565b61023361022e366004612fa5565b610493565b005b61024861024336600461301a565b6104bb565b6040517fffffffff00000000000000000000000000000000000000000000000000000000909116815260200161019b565b61018f61028736600461308d565b7f000000000000000000000000000000000000000000000000000000000000000073ffffffffffffffffffffffffffffffffffffffff90811691161490565b61018f6102d43660046130aa565b60036020526000908152604090205460ff1681565b6101fb6102f73660046130c3565b610556565b6101cb7f2cef46a936bdc5b7e6e8c71aa04560c41cf7d88bb26901a7e7f4936ff02accad81565b6101fb61033136600461308d565b6105de565b6002546101fb9073ffffffffffffffffffffffffffffffffffffffff1681565b61023361036436600461308d565b610694565b6101cb7f000000000000000000000000000000000000000000000000000000000000000081565b6001546101fb9073ffffffffffffffffffffffffffffffffffffffff1681565b6101cb7f87a7811f4bfedea3d341ad165680ae306b01aaeacc205d227629cf157dd9f82181565b6000546101fb9073ffffffffffffffffffffffffffffffffffffffff1681565b6101fb61040536600461308d565b60046020526000908152604090205473ffffffffffffffffffffffffffffffffffffffff1681565b61023361043b3660046130fc565b610786565b61023361044e36600461313e565b6107c9565b6101fb61046136600461308d565b61083e565b610233610474366004613243565b610a15565b600061048d82610487610a2b565b90610b65565b92915050565b600061049d610c3f565b90506104ab83828385610d86565b6104b6838284610e8b565b505050565b600084821561051e576104d08385018561308d565b905073ffffffffffffffffffffffffffffffffffffffff811661051e576040517e7336b000000000000000000000000000000000000000000000000000000000815260040160405180910390fd5b61052a33878388610d86565b507f4fc35859000000000000000000000000000000000000000000000000000000009695505050505050565b604080517fff00000000000000000000000000000000000000000000000000000000000000602080830191909152606084901b7fffffffffffffffffffffffffffffffffffffffff00000000000000000000000016602183015260358201869052605580830186905283518084039091018152607590920190925280519101205b9392505050565b6040517fffffffffffffffffffffffffffffffffffffffff000000000000000000000000606083901b1660208201526000908190603401604080517fffffffffffffffffffffffffffffffffffffffffffffffffffffffffffffffe081840301815291905280516020909101206002549091506105d79082907f00000000000000000000000000000000000000000000000000000000000000009073ffffffffffffffffffffffffffffffffffffffff16610556565b60025473ffffffffffffffffffffffffffffffffffffffff161561073f576040517f08c379a000000000000000000000000000000000000000000000000000000000815260206004820152602a60248201527f467842617365526f6f7454756e6e656c3a204348494c445f54554e4e454c5f4160448201527f4c52454144595f5345540000000000000000000000000000000000000000000060648201526084015b60405180910390fd5b600280547fffffffffffffffffffffffff00000000000000000000000000000000000000001673ffffffffffffffffffffffffffffffffffffffff92909216919091179055565b6107c582828080601f016020809104026020016040519081016040528093929190818152602001838380828437600092019190915250610ead92505050565b5050565b73ffffffffffffffffffffffffffffffffffffffff8216610815576040517e7336b000000000000000000000000000000000000000000000000000000000815260040160405180910390fd5b600061081f610c3f565b905061082d84828585610d86565b610838848284610e8b565b50505050565b73ffffffffffffffffffffffffffffffffffffffff80821660009081526004602052604090205416801561087157919050565b6109007f2cef46a936bdc5b7e6e8c71aa04560c41cf7d88bb26901a7e7f4936ff02accad8361089f85610fd7565b6040516020016108b0929190613331565b604080517fffffffffffffffffffffffffffffffffffffffffffffffffffffffffffffffe0818403018152908290526108ec9291602001613360565b60405160208183030381529060405261132e565b60408051606084901b7fffffffffffffffffffffffffffffffffffffffff0000000000000000000000001660208083019190915282516014818403018152603490920190925280519101206002546109919082907f00000000000000000000000000000000000000000000000000000000000000009073ffffffffffffffffffffffffffffffffffffffff16610556565b73ffffffffffffffffffffffffffffffffffffffff84811660008181526004602052604080822080547fffffffffffffffffffffffff000000000000000000000000000000000000000016948616948517905551939550919290917ff935ffb7c4a7f69e191e46617fc2f41d98d93290443199977b42dd086e744c8691a350919050565b6000610a20826113bf565b90506107c581610ead565b60008061048d60017fca9d3e17f264b0f3984e2634e94adb37fa3e6a8103f06aeae6fa59e21c769f5e6133a8565b7c01000000000000000000000000000000000000000000000000000000007fffffffff00000000000000000000000000000000000000000000000000000000831601610b01576040517f08c379a000000000000000000000000000000000000000000000000000000000815260206004820152601f60248201527f496e74657266616365446574656374696f6e3a2077726f6e672076616c7565006044820152606401610736565b7fffffffff00000000000000000000000000000000000000000000000000000000919091166000908152602092909252604090912080547fffffffffffffffffffffffffffffffffffffffffffffffffffffffffffffff0016911515919091179055565b60007c01000000000000000000000000000000000000000000000000000000007fffffffff00000000000000000000000000000000000000000000000000000000831601610bb55750600061048d565b7ffe003659000000000000000000000000000000000000000000000000000000007fffffffff00000000000000000000000000000000000000000000000000000000831601610c065750600161048d565b507fffffffff00000000000000000000000000000000000000000000000000000000166000908152602091909152604090205460ff1690565b600033321480610c4f5750601836105b15610c5957503390565b7fffffffffffffffffffffffffffffffffffffffffffffffffffffffffffffffec36013560601c7f000000000000000000000000000000000000000000000000000000000000000073ffffffffffffffffffffffffffffffffffffffff16331480610d7557506040517f8929a8ca00000000000000000000000000000000000000000000000000000000815273ffffffffffffffffffffffffffffffffffffffff82811660048301523360248301527f00000000000000000000000000000000000000000000000000000000000000001690638929a8ca90604401602060405180830381865afa158015610d51573d6000803e3d6000fd5b505050506040513d601f19601f82011682018060405250810190610d7591906133bb565b15610d7f57919050565b3391505090565b6040805173ffffffffffffffffffffffffffffffffffffffff8681166020830152858116828401528416606082015260808082018490528251808303909101815260a08201909252600091610e00917f87a7811f4bfedea3d341ad165680ae306b01aaeacc205d227629cf157dd9f821919060c001613360565b6040516020818303038152906040529050610e1a8161132e565b610e238561083e565b6040805173ffffffffffffffffffffffffffffffffffffffff8781168252868116602083015291810185905291811691908716907fd04a997afc07fd79393f2188ae8935e4389ab8aef6144f0f839e3aade5b858ab9060600160405180910390a35050505050565b6104b673ffffffffffffffffffffffffffffffffffffffff84168330846117a1565b600080600080600085806020019051810190610ec991906133dd565b73ffffffffffffffffffffffffffffffffffffffff808616600090815260046020526040902054959a50939850919650945092509081169085168114610f63576040517f3855947700000000000000000000000000000000000000000000000000000000815273ffffffffffffffffffffffffffffffffffffffff8088166004830152808716602483015282166044820152606401610736565b610f6e86848461187d565b6040805173ffffffffffffffffffffffffffffffffffffffff86811682528581166020830152918101849052818716918816907faa4bbbc02123d0c446b55ec99a14078c9eab05cb4a271e6d8f8e278d9e4cd1849060600160405180910390a350505050505050565b606060008273ffffffffffffffffffffffffffffffffffffffff166318160ddd6040518163ffffffff1660e01b8152600401602060405180830381865afa158015611026573d6000803e3d6000fd5b505050506040513d601f19601f8201168201806040525081019061104a9190613448565b9050600083905060008173ffffffffffffffffffffffffffffffffffffffff166306fdde036040518163ffffffff1660e01b8152600401600060405180830381865afa15801561109e573d6000803e3d6000fd5b505050506040513d6000823e601f3d9081017fffffffffffffffffffffffffffffffffffffffffffffffffffffffffffffffe01682016040526110e49190810190613491565b905060008273ffffffffffffffffffffffffffffffffffffffff166395d89b416040518163ffffffff1660e01b8152600401600060405180830381865afa158015611133573d6000803e3d6000fd5b505050506040513d6000823e601f3d9081017fffffffffffffffffffffffffffffffffffffffffffffffffffffffffffffffe01682016040526111799190810190613491565b905060008373ffffffffffffffffffffffffffffffffffffffff1663313ce5676040518163ffffffff1660e01b8152600401602060405180830381865afa1580156111c8573d6000803e3d6000fd5b505050506040513d601f19601f820116820180604052508101906111ec91906134da565b905060008773ffffffffffffffffffffffffffffffffffffffff16633c130d906040518163ffffffff1660e01b8152600401600060405180830381865afa15801561123b573d6000803e3d6000fd5b505050506040513d6000823e601f3d9081017fffffffffffffffffffffffffffffffffffffffffffffffffffffffffffffffe01682016040526112819190810190613491565b905060008873ffffffffffffffffffffffffffffffffffffffff16638da5cb5b6040518163ffffffff1660e01b8152600401602060405180830381865afa1580156112d0573d6000803e3d6000fd5b505050506040513d601f19601f820116820180604052508101906112f491906134fd565b90508685858585856040516020016113119695949392919061351a565b604051602081830303815290604052975050505050505050919050565b6000546002546040517fb472047700000000000000000000000000000000000000000000000000000000815273ffffffffffffffffffffffffffffffffffffffff9283169263b47204779261138a929116908590600401613331565b600060405180830381600087803b1580156113a457600080fd5b505af11580156113b8573d6000803e3d6000fd5b5050505050565b606060006113cc8361189e565b905060006113d9826118fd565b905060006113e683611926565b90506000816113f48461194f565b6113fd86611b3d565b60405160200161140f9392919061358c565b604080517fffffffffffffffffffffffffffffffffffffffffffffffffffffffffffffffe081840301815291815281516020928301206000818152600390935291205490915060ff16156114e4576040517f08c379a0000000000000000000000000000000000000000000000000000000008152602060048201526024808201527f4678526f6f7454756e6e656c3a20455849545f414c52454144595f50524f434560448201527f53534544000000000000000000000000000000000000000000000000000000006064820152608401610736565b600081815260036020526040812080547fffffffffffffffffffffffffffffffffffffffffffffffffffffffffffffff0016600117905561152485611b59565b9050600061153182611ca3565b905061153c81611d33565b60025473ffffffffffffffffffffffffffffffffffffffff9081169116146115e6576040517f08c379a000000000000000000000000000000000000000000000000000000000815260206004820152602560248201527f4678526f6f7454756e6e656c3a20494e56414c49445f46585f4348494c445f5460448201527f554e4e454c0000000000000000000000000000000000000000000000000000006064820152608401610736565b60006115f187611d5c565b9050611611611601846020015190565b8761160b8a611d78565b84611d94565b61169d576040517f08c379a000000000000000000000000000000000000000000000000000000000815260206004820152602360248201527f4678526f6f7454756e6e656c3a20494e56414c49445f524543454950545f505260448201527f4f4f4600000000000000000000000000000000000000000000000000000000006064820152608401610736565b6116cb856116aa89612047565b6116b38a612063565b846116bd8c61207f565b6116c68d61209b565b6120b7565b5060006116d78361221d565b90507f8c5261668696ce22758910d05bab8f186d6eb247ceac2af2e82c7dc17669b03661170d611708836000612259565b612291565b14611774576040517f08c379a000000000000000000000000000000000000000000000000000000000815260206004820152601f60248201527f4678526f6f7454756e6e656c3a20494e56414c49445f5349474e4154555245006044820152606401610736565b600061177f8461230c565b8060200190518101906117929190613491565b9b9a5050505050505050505050565b60405173ffffffffffffffffffffffffffffffffffffffff808516602483015283166044820152606481018290526108389085907f23b872dd00000000000000000000000000000000000000000000000000000000906084015b604080517fffffffffffffffffffffffffffffffffffffffffffffffffffffffffffffffe08184030181529190526020810180517bffffffffffffffffffffffffffffffffffffffffffffffffffffffff167fffffffff0000000000000000000000000000000000000000000000000000000090931692909217909152612328565b6104b673ffffffffffffffffffffffffffffffffffffffff84168383612434565b60408051602081019091526060815260006118e86118e38460408051808201825260008082526020918201528151808301909252825182529182019181019190915290565b61248a565b60408051602081019091529081529392505050565b606061048d8260000151600881518110611919576119196135b9565b60200260200101516125a0565b600061048d8260000151600281518110611942576119426135b9565b6020026020010151612291565b6040805160208101909152600081528151606091901561048d5760008061197760008661263d565b60f81c9050600181148061198e57508060ff166003145b15611a4e576001855160026119a391906135e8565b6119ad91906133a8565b67ffffffffffffffff8111156119c5576119c561317f565b6040519080825280601f01601f1916602001820160405280156119ef576020820181803683370190505b50925060006119ff60018761263d565b90508084600081518110611a1557611a156135b9565b60200101907effffffffffffffffffffffffffffffffffffffffffffffffffffffffffffff1916908160001a9053506001925050611ab2565b600285516002611a5e91906135e8565b611a6891906133a8565b67ffffffffffffffff811115611a8057611a8061317f565b6040519080825280601f01601f191660200182016040528015611aaa576020820181803683370190505b509250600091505b60ff82165b8351811015611b3457611ae1611ad060ff8516836133a8565b611adb9060026135ff565b8761263d565b848281518110611af357611af36135b9565b60200101907effffffffffffffffffffffffffffffffffffffffffffffffffffffffffffff1916908160001a90535080611b2c81613612565b915050611ab7565b50505092915050565b600061048d8260000151600981518110611942576119426135b9565b611b7d60405180606001604052806060815260200160608152602001600081525090565b611b978260000151600681518110611919576119196135b9565b602082810182905260408051808201825260008082529083015280518082019091528251815291810190820152611bcd816126be565b15611be257611bdb8161248a565b8252611c8f565b60208201518051600090611bf8906001906133a8565b67ffffffffffffffff811115611c1057611c1061317f565b6040519080825280601f01601f191660200182016040528015611c3a576020820181803683370190505b509050600080836021019150826020019050611c58828285516126f9565b604080518082018252600080825260209182015281518083019092528451825280850190820152611c889061248a565b8652505050505b611c9883611b3d565b604083015250919050565b604080516080810182526000918101828152606080830193909352815260208101919091526000611cf18360000151600381518110611ce457611ce46135b9565b602002602001015161248a565b836040015181518110611d0657611d066135b9565b602002602001015190506040518060400160405280828152602001611d2a8361248a565b90529392505050565b600061048d8260200151600081518110611d4f57611d4f6135b9565b6020026020010151612784565b600061048d8260000151600581518110611942576119426135b9565b606061048d8260000151600781518110611919576119196135b9565b600080611dc88460408051808201825260008082526020918201528151808301909252825182529182019181019190915290565b90506000611dd58261248a565b905060608085600080611de78b61194f565b90508051600003611e0257600097505050505050505061203f565b60005b8651811015612036578151831115611e285760009850505050505050505061203f565b611e4a878281518110611e3d57611e3d6135b9565b602002602001015161279e565b955085805190602001208414611e6b5760009850505050505050505061203f565b611e80878281518110611ce457611ce46135b9565b94508451601103611f525781518303611edf578c80519060200120611eb186601081518110611919576119196135b9565b8051906020012003611ece5760019850505050505050505061203f565b60009850505050505050505061203f565b6000828481518110611ef357611ef36135b9565b016020015160f81c90506010811115611f18576000995050505050505050505061203f565b611f3d868260ff1681518110611f3057611f306135b9565b602002602001015161281d565b9450611f4a6001856135ff565b935050612024565b8451600203611ece576000611f7d611f7687600081518110611919576119196135b9565b848661284b565b8351909150611f8c82866135ff565b03611fdf578d80519060200120611faf87600181518110611919576119196135b9565b8051906020012003611fcd576001995050505050505050505061203f565b6000995050505050505050505061203f565b80600003611ff9576000995050505050505050505061203f565b61200381856135ff565b935061201b86600181518110611f3057611f306135b9565b94506120249050565b8061202e81613612565b915050611e05565b50505050505050505b949350505050565b600061048d8260000151600381518110611942576119426135b9565b600061048d8260000151600481518110611942576119426135b9565b600061048d8260000151600081518110611942576119426135b9565b606061048d8260000151600181518110611919576119196135b9565b6001546040517f41539d4a0000000000000000000000000000000000000000000000000000000081526004810184905260009182918291829173ffffffffffffffffffffffffffffffffffffffff909116906341539d4a9060240160a060405180830381865afa15801561212f573d6000803e3d6000fd5b505050506040513d601f19601f82011682018060405250810190612153919061364a565b50935050925092506121aa828b61216a91906133a8565b6040805160208082018f90528183018e9052606082018d905260808083018d90528351808403909101815260a09092019092528051910120908588612983565b612210576040517f08c379a000000000000000000000000000000000000000000000000000000000815260206004820152601c60248201527f4678526f6f7454756e6e656c3a20494e56414c49445f484541444552000000006044820152606401610736565b9998505050505050505050565b60408051602081019091526060815260405180602001604052806122518460200151600181518110611ce457611ce46135b9565b905292915050565b60408051808201909152600080825260208201528251805183908110612281576122816135b9565b6020026020010151905092915050565b8051600090158015906122a657508151602110155b6122af57600080fd5b60006122be8360200151612b30565b905060008184600001516122d291906133a8565b90506000808386602001516122e791906135ff565b905080519150602083101561230357826020036101000a820491505b50949350505050565b606061048d8260200151600281518110611919576119196135b9565b600061238a826040518060400160405280602081526020017f5361666545524332303a206c6f772d6c6576656c2063616c6c206661696c65648152508573ffffffffffffffffffffffffffffffffffffffff16612bab9092919063ffffffff16565b8051909150156104b657808060200190518101906123a891906133bb565b6104b6576040517f08c379a000000000000000000000000000000000000000000000000000000000815260206004820152602a60248201527f5361666545524332303a204552433230206f7065726174696f6e20646964206e60448201527f6f742073756363656564000000000000000000000000000000000000000000006064820152608401610736565b60405173ffffffffffffffffffffffffffffffffffffffff83166024820152604481018290526104b69084907fa9059cbb00000000000000000000000000000000000000000000000000000000906064016117fb565b6060612495826126be565b61249e57600080fd5b60006124a983612bba565b905060008167ffffffffffffffff8111156124c6576124c661317f565b60405190808252806020026020018201604052801561250b57816020015b60408051808201909152600080825260208201528152602001906001900390816124e45790505b509050600061251d8560200151612b30565b856020015161252c91906135ff565b90506000805b848110156125955761254383612c3f565b915060405180604001604052808381526020018481525084828151811061256c5761256c6135b9565b602090810291909101015261258182846135ff565b92508061258d81613612565b915050612532565b509195945050505050565b80516060906125ae57600080fd5b60006125bd8360200151612b30565b905060008184600001516125d191906133a8565b905060008167ffffffffffffffff8111156125ee576125ee61317f565b6040519080825280601f01601f191660200182016040528015612618576020820181803683370190505b509050600081602001905061230384876020015161263691906135ff565b8285612d01565b600061264a6002846136c6565b156126845760108261265d6002866136da565b8151811061266d5761266d6135b9565b016020015161267f919060f81c6136ee565b6126b4565b6010826126926002866136da565b815181106126a2576126a26135b9565b01602001516126b4919060f81c613710565b60f81b9392505050565b805160009081036126d157506000919050565b6020820151805160001a9060c08210156126ef575060009392505050565b5060019392505050565b8060000361270657505050565b6020811061273e578251825261271d6020846135ff565b925061272a6020836135ff565b91506127376020826133a8565b9050612706565b8060000361274b57505050565b6000600161275a8360206133a8565b61276690610100613852565b61277091906133a8565b935183518516941916939093179091525050565b805160009060151461279557600080fd5b61048d82612291565b60606000826000015167ffffffffffffffff8111156127bf576127bf61317f565b6040519080825280601f01601f1916602001820160405280156127e9576020820181803683370190505b50905080516000036127fb5792915050565b60008160200190506128168460200151828660000151612d01565b5092915050565b805160009060211461282e57600080fd5b6000808360200151600161284291906135ff565b51949350505050565b600080806128588661194f565b90506000815167ffffffffffffffff8111156128765761287661317f565b6040519080825280601f01601f1916602001820160405280156128a0576020820181803683370190505b509050845b82516128b190876135ff565b8110156129545760008782815181106128cc576128cc6135b9565b01602001517fff00000000000000000000000000000000000000000000000000000000000000169050808361290189856133a8565b81518110612911576129116135b9565b60200101907effffffffffffffffffffffffffffffffffffffffffffffffffffffffffffff1916908160001a90535050808061294c90613612565b9150506128a5565b5080805190602001208280519060200120036129735781519250612978565b600092505b509095945050505050565b60006020825161299391906136c6565b156129fa576040517f08c379a000000000000000000000000000000000000000000000000000000000815260206004820152601460248201527f496e76616c69642070726f6f66206c656e6774680000000000000000000000006044820152606401610736565b600060208351612a0a91906136da565b9050612a17816002613852565b8510612a7f576040517f08c379a000000000000000000000000000000000000000000000000000000000815260206004820152601560248201527f4c65616620696e64657820697320746f6f2062696700000000000000000000006044820152606401610736565b60008660205b85518111612b2257858101519250612a9e6002896136c6565b600003612ad6576040805160208101849052908101849052606001604051602081830303815290604052805190602001209150612b03565b60408051602081018590529081018390526060016040516020818303038152906040528051906020012091505b612b0e6002896136da565b9750612b1b6020826135ff565b9050612a85565b509094149695505050505050565b8051600090811a6080811015612b495750600092915050565b60b8811080612b64575060c08110801590612b64575060f881105b15612b725750600192915050565b60c0811015612b9f57612b87600160b861385e565b612b949060ff16826133a8565b6105d79060016135ff565b612b87600160f861385e565b606061203f8484600085612d46565b80516000908103612bcd57506000919050565b600080612bdd8460200151612b30565b8460200151612bec91906135ff565b9050600084600001518560200151612c0491906135ff565b90505b80821015612c3657612c1882612c3f565b612c2290836135ff565b915082612c2e81613612565b935050612c07565b50909392505050565b80516000908190811a6080811015612c5a5760019150612816565b60b8811015612c8057612c6e6080826133a8565b612c799060016135ff565b9150612816565b60c0811015612cad5760b78103600185019450806020036101000a85510460018201810193505050612816565b60f8811015612cc157612c6e60c0826133a8565b60019390930151602084900360f7016101000a90049092017fffffffffffffffffffffffffffffffffffffffffffffffffffffffffffffff0a0192915050565b80600003612d0e57505050565b6020811061273e5782518252612d256020846135ff565b9250612d326020836135ff565b9150612d3f6020826133a8565b9050612d0e565b606082471015612dd8576040517f08c379a000000000000000000000000000000000000000000000000000000000815260206004820152602660248201527f416464726573733a20696e73756666696369656e742062616c616e636520666f60448201527f722063616c6c00000000000000000000000000000000000000000000000000006064820152608401610736565b6000808673ffffffffffffffffffffffffffffffffffffffff168587604051612e019190613877565b60006040518083038185875af1925050503d8060008114612e3e576040519150601f19603f3d011682016040523d82523d6000602084013e612e43565b606091505b5091509150612e5487838387612e5f565b979650505050505050565b60608315612ef5578251600003612eee5773ffffffffffffffffffffffffffffffffffffffff85163b612eee576040517f08c379a000000000000000000000000000000000000000000000000000000000815260206004820152601d60248201527f416464726573733a2063616c6c20746f206e6f6e2d636f6e74726163740000006044820152606401610736565b508161203f565b61203f8383815115612f0a5781518083602001fd5b806040517f08c379a00000000000000000000000000000000000000000000000000000000081526004016107369190613893565b600060208284031215612f5057600080fd5b81357fffffffff00000000000000000000000000000000000000000000000000000000811681146105d757600080fd5b73ffffffffffffffffffffffffffffffffffffffff81168114612fa257600080fd5b50565b60008060408385031215612fb857600080fd5b8235612fc381612f80565b946020939093013593505050565b60008083601f840112612fe357600080fd5b50813567ffffffffffffffff811115612ffb57600080fd5b60208301915083602082850101111561301357600080fd5b9250929050565b60008060008060006080868803121561303257600080fd5b853561303d81612f80565b9450602086013561304d81612f80565b935060408601359250606086013567ffffffffffffffff81111561307057600080fd5b61307c88828901612fd1565b969995985093965092949392505050565b60006020828403121561309f57600080fd5b81356105d781612f80565b6000602082840312156130bc57600080fd5b5035919050565b6000806000606084860312156130d857600080fd5b833592506020840135915060408401356130f181612f80565b809150509250925092565b6000806020838503121561310f57600080fd5b823567ffffffffffffffff81111561312657600080fd5b61313285828601612fd1565b90969095509350505050565b60008060006060848603121561315357600080fd5b833561315e81612f80565b9250602084013561316e81612f80565b929592945050506040919091013590565b7f4e487b7100000000000000000000000000000000000000000000000000000000600052604160045260246000fd5b604051601f82017fffffffffffffffffffffffffffffffffffffffffffffffffffffffffffffffe016810167ffffffffffffffff811182821017156131f5576131f561317f565b604052919050565b600067ffffffffffffffff8211156132175761321761317f565b50601f017fffffffffffffffffffffffffffffffffffffffffffffffffffffffffffffffe01660200190565b60006020828403121561325557600080fd5b813567ffffffffffffffff81111561326c57600080fd5b8201601f8101841361327d57600080fd5b803561329061328b826131fd565b6131ae565b8181528560208385010111156132a557600080fd5b81602084016020830137600091810160200191909152949350505050565b60005b838110156132de5781810151838201526020016132c6565b50506000910152565b600081518084526132ff8160208601602086016132c3565b601f017fffffffffffffffffffffffffffffffffffffffffffffffffffffffffffffffe0169290920160200192915050565b73ffffffffffffffffffffffffffffffffffffffff8316815260406020820152600061203f60408301846132e7565b82815260406020820152600061203f60408301846132e7565b7f4e487b7100000000000000000000000000000000000000000000000000000000600052601160045260246000fd5b8181038181111561048d5761048d613379565b6000602082840312156133cd57600080fd5b815180151581146105d757600080fd5b600080600080600060a086880312156133f557600080fd5b855161340081612f80565b602087015190955061341181612f80565b604087015190945061342281612f80565b606087015190935061343381612f80565b80925050608086015190509295509295909350565b60006020828403121561345a57600080fd5b5051919050565b600061346f61328b846131fd565b905082815283838301111561348357600080fd5b6105d78360208301846132c3565b6000602082840312156134a357600080fd5b815167ffffffffffffffff8111156134ba57600080fd5b8201601f810184136134cb57600080fd5b61203f84825160208401613461565b6000602082840312156134ec57600080fd5b815160ff811681146105d757600080fd5b60006020828403121561350f57600080fd5b81516105d781612f80565b86815260c06020820152600061353360c08301886132e7565b828103604084015261354581886132e7565b905060ff86166060840152828103608084015261356281866132e7565b91505073ffffffffffffffffffffffffffffffffffffffff831660a0830152979650505050505050565b838152600083516135a48160208501602088016132c3565b60209201918201929092526040019392505050565b7f4e487b7100000000000000000000000000000000000000000000000000000000600052603260045260246000fd5b808202811582820484141761048d5761048d613379565b8082018082111561048d5761048d613379565b60007fffffffffffffffffffffffffffffffffffffffffffffffffffffffffffffffff820361364357613643613379565b5060010190565b600080600080600060a0868803121561366257600080fd5b85519450602086015193506040860151925060608601519150608086015161368981612f80565b809150509295509295909350565b7f4e487b7100000000000000000000000000000000000000000000000000000000600052601260045260246000fd5b6000826136d5576136d5613697565b500690565b6000826136e9576136e9613697565b500490565b600060ff83168061370157613701613697565b8060ff84160691505092915050565b600060ff83168061372357613723613697565b8060ff84160491505092915050565b600181815b8085111561378b57817fffffffffffffffffffffffffffffffffffffffffffffffffffffffffffffffff0482111561377157613771613379565b8085161561377e57918102915b93841c9390800290613737565b509250929050565b6000826137a25750600161048d565b816137af5750600061048d565b81600181146137c557600281146137cf576137eb565b600191505061048d565b60ff8411156137e0576137e0613379565b50506001821b61048d565b5060208310610133831016604e8410600b841016171561380e575081810a61048d565b6138188383613732565b807fffffffffffffffffffffffffffffffffffffffffffffffffffffffffffffffff0482111561384a5761384a613379565b029392505050565b60006105d78383613793565b60ff828116828216039081111561048d5761048d613379565b600082516138898184602087016132c3565b9190910192915050565b6020815260006105d760208301846132e756fea26469706673582212201a7d265eb8824fa2dfea7d7b3e9c0f8add70cdab01ab5e91e682b17f36edf1f364736f6c63430008110033",
  "linkReferences": {},
  "deployedLinkReferences": {}
}