{
  "_format": "hh-sol-artifact-1",
  "contractName": "EndpointV2Mock",
  "sourceName": "contracts/mocks/layerzero/EndpointV2Mock.sol",
  "abi": [
    {
      "inputs": [
        {
          "internalType": "address",
          "name": "delegate",
          "type": "address"
        }
      ],
      "name": "setDelegate",
      "outputs": [],
      "stateMutability": "nonpayable",
      "type": "function"
    }
  ],
  "bytecode": "0x6080604052348015600f57600080fd5b5060ae80601d6000396000f3fe6080604052348015600f57600080fd5b506004361060285760003560e01c8063ca5eb5e114602d575b600080fd5b603b6038366004603d565b50565b005b600060208284031215604e57600080fd5b813573ffffffffffffffffffffffffffffffffffffffff81168114607157600080fd5b939250505056fea2646970667358221220b0a5f8a2a5c33b3dcfc73ca763d9046fea083ab4e2c11c1bf6d627c37a324d8464736f6c634300081c0033",
  "linkReferences": {},
  "deployedLinkReferences": {}
}