{
  "_format": "hh-sol-artifact-1",
  "contractName": "FxERC20MintBurn",
  "sourceName": "contracts/fx-portal/token/ERC20/FxERC20MintBurn.sol",
  "abi": [
    {
      "inputs": [
        {
          "internalType": "contract IForwarderRegistry",
          "name": "forwarderRegistry",
          "type": "address"
        }
      ],
      "stateMutability": "nonpayable",
      "type": "constructor"
    },
    {
      "inputs": [
        {
          "internalType": "address",
          "name": "owner",
          "type": "address"
        },
        {
          "internalType": "address",
          "name": "spender",
          "type": "address"
        },
        {
          "internalType": "uint256",
          "name": "allowance",
          "type": "uint256"
        },
        {
          "internalType": "uint256",
          "name": "increment",
          "type": "uint256"
        }
      ],
      "name": "ERC20AllowanceOverflow",
      "type": "error"
    },
    {
      "inputs": [
        {
          "internalType": "address",
          "name": "owner",
          "type": "address"
        }
      ],
      "name": "ERC20ApprovalToAddressZero",
      "type": "error"
    },
    {
      "inputs": [],
      "name": "ERC20BatchMintValuesOverflow",
      "type": "error"
    },
    {
      "inputs": [],
      "name": "ERC20BatchTransferValuesOverflow",
      "type": "error"
    },
    {
      "inputs": [
        {
          "internalType": "address",
          "name": "owner",
          "type": "address"
        },
        {
          "internalType": "address",
          "name": "spender",
          "type": "address"
        },
        {
          "internalType": "uint256",
          "name": "allowance",
          "type": "uint256"
        },
        {
          "internalType": "uint256",
          "name": "decrement",
          "type": "uint256"
        }
      ],
      "name": "ERC20InsufficientAllowance",
      "type": "error"
    },
    {
      "inputs": [
        {
          "internalType": "address",
          "name": "owner",
          "type": "address"
        },
        {
          "internalType": "uint256",
          "name": "balance",
          "type": "uint256"
        },
        {
          "internalType": "uint256",
          "name": "value",
          "type": "uint256"
        }
      ],
      "name": "ERC20InsufficientBalance",
      "type": "error"
    },
    {
      "inputs": [],
      "name": "ERC20MintToAddressZero",
      "type": "error"
    },
    {
      "inputs": [
        {
          "internalType": "uint256",
          "name": "deadline",
          "type": "uint256"
        }
      ],
      "name": "ERC20PermitExpired",
      "type": "error"
    },
    {
      "inputs": [],
      "name": "ERC20PermitFromAddressZero",
      "type": "error"
    },
    {
      "inputs": [],
      "name": "ERC20PermitInvalidSignature",
      "type": "error"
    },
    {
      "inputs": [
        {
          "internalType": "address",
          "name": "recipient",
          "type": "address"
        }
      ],
      "name": "ERC20SafeTransferRejected",
      "type": "error"
    },
    {
      "inputs": [
        {
          "internalType": "uint256",
          "name": "supply",
          "type": "uint256"
        },
        {
          "internalType": "uint256",
          "name": "value",
          "type": "uint256"
        }
      ],
      "name": "ERC20TotalSupplyOverflow",
      "type": "error"
    },
    {
      "inputs": [
        {
          "internalType": "address",
          "name": "owner",
          "type": "address"
        }
      ],
      "name": "ERC20TransferToAddressZero",
      "type": "error"
    },
    {
      "inputs": [],
      "name": "FailedCall",
      "type": "error"
    },
    {
      "inputs": [],
      "name": "IllegalInterfaceId",
      "type": "error"
    },
    {
      "inputs": [],
      "name": "InconsistentArrayLengths",
      "type": "error"
    },
    {
      "inputs": [
        {
          "internalType": "address",
          "name": "tokenContract",
          "type": "address"
        }
      ],
      "name": "IncorrectTokenContractType",
      "type": "error"
    },
    {
      "inputs": [
        {
          "internalType": "uint256",
          "name": "currentPhase",
          "type": "uint256"
        },
        {
          "internalType": "uint256",
          "name": "newPhase",
          "type": "uint256"
        }
      ],
      "name": "InitializationPhaseAlreadyReached",
      "type": "error"
    },
    {
      "inputs": [
        {
          "internalType": "uint256",
          "name": "balance",
          "type": "uint256"
        },
        {
          "internalType": "uint256",
          "name": "needed",
          "type": "uint256"
        }
      ],
      "name": "InsufficientBalance",
      "type": "error"
    },
    {
      "inputs": [
        {
          "internalType": "address",
          "name": "account",
          "type": "address"
        }
      ],
      "name": "NotContractOwner",
      "type": "error"
    },
    {
      "inputs": [
        {
          "internalType": "bytes32",
          "name": "role",
          "type": "bytes32"
        },
        {
          "internalType": "address",
          "name": "account",
          "type": "address"
        }
      ],
      "name": "NotRoleHolder",
      "type": "error"
    },
    {
      "inputs": [
        {
          "internalType": "address",
          "name": "token",
          "type": "address"
        }
      ],
      "name": "SafeERC20FailedOperation",
      "type": "error"
    },
    {
      "anonymous": false,
      "inputs": [
        {
          "indexed": true,
          "internalType": "address",
          "name": "owner",
          "type": "address"
        },
        {
          "indexed": true,
          "internalType": "address",
          "name": "spender",
          "type": "address"
        },
        {
          "indexed": false,
          "internalType": "uint256",
          "name": "value",
          "type": "uint256"
        }
      ],
      "name": "Approval",
      "type": "event"
    },
    {
      "anonymous": false,
      "inputs": [
        {
          "indexed": true,
          "internalType": "address",
          "name": "previousOwner",
          "type": "address"
        },
        {
          "indexed": true,
          "internalType": "address",
          "name": "newOwner",
          "type": "address"
        }
      ],
      "name": "OwnershipTransferred",
      "type": "event"
    },
    {
      "anonymous": false,
      "inputs": [
        {
          "indexed": false,
          "internalType": "bytes32",
          "name": "role",
          "type": "bytes32"
        },
        {
          "indexed": false,
          "internalType": "address",
          "name": "account",
          "type": "address"
        },
        {
          "indexed": false,
          "internalType": "address",
          "name": "operator",
          "type": "address"
        }
      ],
      "name": "RoleGranted",
      "type": "event"
    },
    {
      "anonymous": false,
      "inputs": [
        {
          "indexed": false,
          "internalType": "bytes32",
          "name": "role",
          "type": "bytes32"
        },
        {
          "indexed": false,
          "internalType": "address",
          "name": "account",
          "type": "address"
        },
        {
          "indexed": false,
          "internalType": "address",
          "name": "operator",
          "type": "address"
        }
      ],
      "name": "RoleRevoked",
      "type": "event"
    },
    {
      "anonymous": false,
      "inputs": [
        {
          "indexed": true,
          "internalType": "address",
          "name": "from",
          "type": "address"
        },
        {
          "indexed": true,
          "internalType": "address",
          "name": "to",
          "type": "address"
        },
        {
          "indexed": false,
          "internalType": "uint256",
          "name": "value",
          "type": "uint256"
        }
      ],
      "name": "Transfer",
      "type": "event"
    },
    {
      "inputs": [],
      "name": "DOMAIN_SEPARATOR",
      "outputs": [
        {
          "internalType": "bytes32",
          "name": "",
          "type": "bytes32"
        }
      ],
      "stateMutability": "view",
      "type": "function"
    },
    {
      "inputs": [],
      "name": "MINTER_ROLE",
      "outputs": [
        {
          "internalType": "bytes32",
          "name": "",
          "type": "bytes32"
        }
      ],
      "stateMutability": "view",
      "type": "function"
    },
    {
      "inputs": [
        {
          "internalType": "address",
          "name": "owner",
          "type": "address"
        },
        {
          "internalType": "address",
          "name": "spender",
          "type": "address"
        }
      ],
      "name": "allowance",
      "outputs": [
        {
          "internalType": "uint256",
          "name": "value",
          "type": "uint256"
        }
      ],
      "stateMutability": "view",
      "type": "function"
    },
    {
      "inputs": [
        {
          "internalType": "address",
          "name": "spender",
          "type": "address"
        },
        {
          "internalType": "uint256",
          "name": "value",
          "type": "uint256"
        }
      ],
      "name": "approve",
      "outputs": [
        {
          "internalType": "bool",
          "name": "result",
          "type": "bool"
        }
      ],
      "stateMutability": "nonpayable",
      "type": "function"
    },
    {
      "inputs": [
        {
          "internalType": "address",
          "name": "owner",
          "type": "address"
        }
      ],
      "name": "balanceOf",
      "outputs": [
        {
          "internalType": "uint256",
          "name": "balance",
          "type": "uint256"
        }
      ],
      "stateMutability": "view",
      "type": "function"
    },
    {
      "inputs": [
        {
          "internalType": "address[]",
          "name": "owners",
          "type": "address[]"
        },
        {
          "internalType": "uint256[]",
          "name": "values",
          "type": "uint256[]"
        }
      ],
      "name": "batchBurnFrom",
      "outputs": [
        {
          "internalType": "bool",
          "name": "",
          "type": "bool"
        }
      ],
      "stateMutability": "nonpayable",
      "type": "function"
    },
    {
      "inputs": [
        {
          "internalType": "address[]",
          "name": "recipients",
          "type": "address[]"
        },
        {
          "internalType": "uint256[]",
          "name": "values",
          "type": "uint256[]"
        }
      ],
      "name": "batchMint",
      "outputs": [],
      "stateMutability": "nonpayable",
      "type": "function"
    },
    {
      "inputs": [
        {
          "internalType": "address[]",
          "name": "recipients",
          "type": "address[]"
        },
        {
          "internalType": "uint256[]",
          "name": "values",
          "type": "uint256[]"
        }
      ],
      "name": "batchTransfer",
      "outputs": [
        {
          "internalType": "bool",
          "name": "",
          "type": "bool"
        }
      ],
      "stateMutability": "nonpayable",
      "type": "function"
    },
    {
      "inputs": [
        {
          "internalType": "address",
          "name": "from",
          "type": "address"
        },
        {
          "internalType": "address[]",
          "name": "recipients",
          "type": "address[]"
        },
        {
          "internalType": "uint256[]",
          "name": "values",
          "type": "uint256[]"
        }
      ],
      "name": "batchTransferFrom",
      "outputs": [
        {
          "internalType": "bool",
          "name": "",
          "type": "bool"
        }
      ],
      "stateMutability": "nonpayable",
      "type": "function"
    },
    {
      "inputs": [
        {
          "internalType": "uint256",
          "name": "value",
          "type": "uint256"
        }
      ],
      "name": "burn",
      "outputs": [
        {
          "internalType": "bool",
          "name": "",
          "type": "bool"
        }
      ],
      "stateMutability": "nonpayable",
      "type": "function"
    },
    {
      "inputs": [
        {
          "internalType": "address",
          "name": "from",
          "type": "address"
        },
        {
          "internalType": "uint256",
          "name": "value",
          "type": "uint256"
        }
      ],
      "name": "burnFrom",
      "outputs": [
        {
          "internalType": "bool",
          "name": "",
          "type": "bool"
        }
      ],
      "stateMutability": "nonpayable",
      "type": "function"
    },
    {
      "inputs": [],
      "name": "connectedToken",
      "outputs": [
        {
          "internalType": "address",
          "name": "",
          "type": "address"
        }
      ],
      "stateMutability": "view",
      "type": "function"
    },
    {
      "inputs": [],
      "name": "decimals",
      "outputs": [
        {
          "internalType": "uint8",
          "name": "",
          "type": "uint8"
        }
      ],
      "stateMutability": "view",
      "type": "function"
    },
    {
      "inputs": [
        {
          "internalType": "address",
          "name": "spender",
          "type": "address"
        },
        {
          "internalType": "uint256",
          "name": "subtractedValue",
          "type": "uint256"
        }
      ],
      "name": "decreaseAllowance",
      "outputs": [
        {
          "internalType": "bool",
          "name": "result",
          "type": "bool"
        }
      ],
      "stateMutability": "nonpayable",
      "type": "function"
    },
    {
      "inputs": [],
      "name": "forwarderRegistry",
      "outputs": [
        {
          "internalType": "contract IForwarderRegistry",
          "name": "",
          "type": "address"
        }
      ],
      "stateMutability": "view",
      "type": "function"
    },
    {
      "inputs": [],
      "name": "fxManager",
      "outputs": [
        {
          "internalType": "address",
          "name": "",
          "type": "address"
        }
      ],
      "stateMutability": "view",
      "type": "function"
    },
    {
      "inputs": [
        {
          "internalType": "bytes32",
          "name": "role",
          "type": "bytes32"
        },
        {
          "internalType": "address",
          "name": "account",
          "type": "address"
        }
      ],
      "name": "grantRole",
      "outputs": [],
      "stateMutability": "nonpayable",
      "type": "function"
    },
    {
      "inputs": [
        {
          "internalType": "bytes32",
          "name": "role",
          "type": "bytes32"
        },
        {
          "internalType": "address",
          "name": "account",
          "type": "address"
        }
      ],
      "name": "hasRole",
      "outputs": [
        {
          "internalType": "bool",
          "name": "hasRole_",
          "type": "bool"
        }
      ],
      "stateMutability": "view",
      "type": "function"
    },
    {
      "inputs": [
        {
          "internalType": "address",
          "name": "spender",
          "type": "address"
        },
        {
          "internalType": "uint256",
          "name": "addedValue",
          "type": "uint256"
        }
      ],
      "name": "increaseAllowance",
      "outputs": [
        {
          "internalType": "bool",
          "name": "result",
          "type": "bool"
        }
      ],
      "stateMutability": "nonpayable",
      "type": "function"
    },
    {
      "inputs": [
        {
          "internalType": "address",
          "name": "fxManager_",
          "type": "address"
        },
        {
          "internalType": "address",
          "name": "connectedToken_",
          "type": "address"
        },
        {
          "internalType": "string",
          "name": "tokenName",
          "type": "string"
        },
        {
          "internalType": "string",
          "name": "tokenSymbol",
          "type": "string"
        },
        {
          "internalType": "uint8",
          "name": "tokenDecimals",
          "type": "uint8"
        },
        {
          "internalType": "string",
          "name": "uri",
          "type": "string"
        },
        {
          "internalType": "address",
          "name": "initialOwner",
          "type": "address"
        }
      ],
      "name": "initialize",
      "outputs": [],
      "stateMutability": "nonpayable",
      "type": "function"
    },
    {
      "inputs": [
        {
          "internalType": "address",
          "name": "forwarder",
          "type": "address"
        }
      ],
      "name": "isTrustedForwarder",
      "outputs": [
        {
          "internalType": "bool",
          "name": "",
          "type": "bool"
        }
      ],
      "stateMutability": "view",
      "type": "function"
    },
    {
      "inputs": [
        {
          "internalType": "address",
          "name": "to",
          "type": "address"
        },
        {
          "internalType": "uint256",
          "name": "value",
          "type": "uint256"
        }
      ],
      "name": "mint",
      "outputs": [],
      "stateMutability": "nonpayable",
      "type": "function"
    },
    {
      "inputs": [],
      "name": "name",
      "outputs": [
        {
          "internalType": "string",
          "name": "",
          "type": "string"
        }
      ],
      "stateMutability": "view",
      "type": "function"
    },
    {
      "inputs": [
        {
          "internalType": "address",
          "name": "owner",
          "type": "address"
        }
      ],
      "name": "nonces",
      "outputs": [
        {
          "internalType": "uint256",
          "name": "",
          "type": "uint256"
        }
      ],
      "stateMutability": "view",
      "type": "function"
    },
    {
      "inputs": [],
      "name": "owner",
      "outputs": [
        {
          "internalType": "address",
          "name": "",
          "type": "address"
        }
      ],
      "stateMutability": "view",
      "type": "function"
    },
    {
      "inputs": [
        {
          "internalType": "address",
          "name": "owner",
          "type": "address"
        },
        {
          "internalType": "address",
          "name": "spender",
          "type": "address"
        },
        {
          "internalType": "uint256",
          "name": "value",
          "type": "uint256"
        },
        {
          "internalType": "uint256",
          "name": "deadline",
          "type": "uint256"
        },
        {
          "internalType": "uint8",
          "name": "v",
          "type": "uint8"
        },
        {
          "internalType": "bytes32",
          "name": "r",
          "type": "bytes32"
        },
        {
          "internalType": "bytes32",
          "name": "s",
          "type": "bytes32"
        }
      ],
      "name": "permit",
      "outputs": [],
      "stateMutability": "nonpayable",
      "type": "function"
    },
    {
      "inputs": [
        {
          "internalType": "address[]",
          "name": "accounts",
          "type": "address[]"
        },
        {
          "internalType": "contract IERC20[]",
          "name": "tokens",
          "type": "address[]"
        },
        {
          "internalType": "uint256[]",
          "name": "amounts",
          "type": "uint256[]"
        }
      ],
      "name": "recoverERC20s",
      "outputs": [],
      "stateMutability": "nonpayable",
      "type": "function"
    },
    {
      "inputs": [
        {
          "internalType": "address[]",
          "name": "accounts",
          "type": "address[]"
        },
        {
          "internalType": "contract IERC721[]",
          "name": "contracts",
          "type": "address[]"
        },
        {
          "internalType": "uint256[]",
          "name": "tokenIds",
          "type": "uint256[]"
        }
      ],
      "name": "recoverERC721s",
      "outputs": [],
      "stateMutability": "nonpayable",
      "type": "function"
    },
    {
      "inputs": [
        {
          "internalType": "address payable[]",
          "name": "accounts",
          "type": "address[]"
        },
        {
          "internalType": "uint256[]",
          "name": "amounts",
          "type": "uint256[]"
        }
      ],
      "name": "recoverETH",
      "outputs": [],
      "stateMutability": "nonpayable",
      "type": "function"
    },
    {
      "inputs": [
        {
          "internalType": "bytes32",
          "name": "role",
          "type": "bytes32"
        }
      ],
      "name": "renounceRole",
      "outputs": [],
      "stateMutability": "nonpayable",
      "type": "function"
    },
    {
      "inputs": [
        {
          "internalType": "bytes32",
          "name": "role",
          "type": "bytes32"
        },
        {
          "internalType": "address",
          "name": "account",
          "type": "address"
        }
      ],
      "name": "revokeRole",
      "outputs": [],
      "stateMutability": "nonpayable",
      "type": "function"
    },
    {
      "inputs": [
        {
          "internalType": "address",
          "name": "to",
          "type": "address"
        },
        {
          "internalType": "uint256",
          "name": "value",
          "type": "uint256"
        },
        {
          "internalType": "bytes",
          "name": "data",
          "type": "bytes"
        }
      ],
      "name": "safeTransfer",
      "outputs": [
        {
          "internalType": "bool",
          "name": "",
          "type": "bool"
        }
      ],
      "stateMutability": "nonpayable",
      "type": "function"
    },
    {
      "inputs": [
        {
          "internalType": "address",
          "name": "from",
          "type": "address"
        },
        {
          "internalType": "address",
          "name": "to",
          "type": "address"
        },
        {
          "internalType": "uint256",
          "name": "value",
          "type": "uint256"
        },
        {
          "internalType": "bytes",
          "name": "data",
          "type": "bytes"
        }
      ],
      "name": "safeTransferFrom",
      "outputs": [
        {
          "internalType": "bool",
          "name": "",
          "type": "bool"
        }
      ],
      "stateMutability": "nonpayable",
      "type": "function"
    },
    {
      "inputs": [
        {
          "internalType": "string",
          "name": "uri",
          "type": "string"
        }
      ],
      "name": "setTokenURI",
      "outputs": [],
      "stateMutability": "nonpayable",
      "type": "function"
    },
    {
      "inputs": [
        {
          "internalType": "bytes4",
          "name": "interfaceId",
          "type": "bytes4"
        }
      ],
      "name": "supportsInterface",
      "outputs": [
        {
          "internalType": "bool",
          "name": "",
          "type": "bool"
        }
      ],
      "stateMutability": "view",
      "type": "function"
    },
    {
      "inputs": [],
      "name": "symbol",
      "outputs": [
        {
          "internalType": "string",
          "name": "",
          "type": "string"
        }
      ],
      "stateMutability": "view",
      "type": "function"
    },
    {
      "inputs": [],
      "name": "tokenURI",
      "outputs": [
        {
          "internalType": "string",
          "name": "",
          "type": "string"
        }
      ],
      "stateMutability": "view",
      "type": "function"
    },
    {
      "inputs": [],
      "name": "totalSupply",
      "outputs": [
        {
          "internalType": "uint256",
          "name": "supply",
          "type": "uint256"
        }
      ],
      "stateMutability": "view",
      "type": "function"
    },
    {
      "inputs": [
        {
          "internalType": "address",
          "name": "to",
          "type": "address"
        },
        {
          "internalType": "uint256",
          "name": "value",
          "type": "uint256"
        }
      ],
      "name": "transfer",
      "outputs": [
        {
          "internalType": "bool",
          "name": "result",
          "type": "bool"
        }
      ],
      "stateMutability": "nonpayable",
      "type": "function"
    },
    {
      "inputs": [
        {
          "internalType": "address",
          "name": "from",
          "type": "address"
        },
        {
          "internalType": "address",
          "name": "to",
          "type": "address"
        },
        {
          "internalType": "uint256",
          "name": "value",
          "type": "uint256"
        }
      ],
      "name": "transferFrom",
      "outputs": [
        {
          "internalType": "bool",
          "name": "result",
          "type": "bool"
        }
      ],
      "stateMutability": "nonpayable",
      "type": "function"
    },
    {
      "inputs": [
        {
          "internalType": "address",
          "name": "newOwner",
          "type": "address"
        }
      ],
      "name": "transferOwnership",
      "outputs": [],
      "stateMutability": "nonpayable",
      "type": "function"
    }
  ],
  "bytecode": "0x60a060405234801561001057600080fd5b5060405161431a38038061431a83398101604081905261002f91610040565b6001600160a01b0316608052610070565b60006020828403121561005257600080fd5b81516001600160a01b038116811461006957600080fd5b9392505050565b60805161427a6100a06000396000818161039301528181610452015281816136d1015261375f015261427a6000f3fe608060405234801561001057600080fd5b50600436106102d35760003560e01c806379cc679011610186578063a9059cbb116100e3578063d547741f11610097578063eb79554911610071578063eb79554914610611578063f2fde38b14610624578063f7ba94bd1461063757600080fd5b8063d547741f146105d8578063dd62ed3e146105eb578063e0df5b6f146105fe57600080fd5b8063c3666c36116100c8578063c3666c361461058b578063d505accf1461059e578063d5391393146105b157600080fd5b8063a9059cbb14610565578063b88d4fde1461057857600080fd5b806391d148541161013a5780639a0186a31161011f5780639a0186a3146105375780639b7791531461054a578063a457c2d71461055257600080fd5b806391d148541461051c57806395d89b411461052f57600080fd5b806388d695b21161016b57806388d695b2146104ee5780638bb9c5bf146105015780638da5cb5b1461051457600080fd5b806379cc6790146104c85780637ecebe00146104db57600080fd5b80633644e515116102345780634885b254116101e857806368573107116101cd578063685731071461048f57806370a08231146104a257806373c8a958146104b557600080fd5b80634885b2541461042f578063572b6c051461044257600080fd5b80633c130d90116102195780633c130d901461040157806340c10f191461040957806342966c681461041c57600080fd5b80633644e515146103e657806339509351146103ee57600080fd5b80631b9a75291161028b5780632b4c9f16116102705780632b4c9f16146103915780632f2ff15d146103b7578063313ce567146103cc57600080fd5b80631b9a75291461036b57806323b872dd1461037e57600080fd5b8063095ea7b3116102bc578063095ea7b3146103155780630a8a49141461032857806318160ddd1461035557600080fd5b806301ffc9a7146102d857806306fdde0314610300575b600080fd5b6102eb6102e636600461390b565b61064a565b60405190151581526020015b60405180910390f35b610308610664565b6040516102f7919061398c565b6102eb6103233660046139d1565b61067b565b6103306106a3565b60405173ffffffffffffffffffffffffffffffffffffffff90911681526020016102f7565b61035d6106cd565b6040519081526020016102f7565b6102eb610379366004613a49565b6106e1565b6102eb61038c366004613aba565b61070f565b7f0000000000000000000000000000000000000000000000000000000000000000610330565b6103ca6103c5366004613afb565b61073a565b005b6103d4610773565b60405160ff90911681526020016102f7565b61035d61078a565b6102eb6103fc3660046139d1565b610794565b6103086107b3565b6103ca6104173660046139d1565b6107c0565b6102eb61042a366004613b2b565b610813565b6102eb61043d366004613b44565b610838565b6102eb610450366004613bcc565b7f000000000000000000000000000000000000000000000000000000000000000073ffffffffffffffffffffffffffffffffffffffff90811691161490565b6103ca61049d366004613a49565b610869565b61035d6104b0366004613bcc565b610913565b6103ca6104c3366004613be9565b61094b565b6102eb6104d63660046139d1565b610a49565b61035d6104e9366004613bcc565b610a68565b6102eb6104fc366004613a49565b610a76565b6103ca61050f366004613b2b565b610a99565b610330610ab7565b6102eb61052a366004613afb565b610ade565b610308610b29565b6103ca610545366004613ce2565b610b3b565b610330610b69565b6102eb6105603660046139d1565b610b76565b6102eb6105733660046139d1565b610b95565b6102eb610586366004613dcd565b610bb4565b6103ca610599366004613be9565b610bd9565b6103ca6105ac366004613e2f565b610e7f565b61035d7f6d696e746572000000000000000000000000000000000000000000000000000081565b6103ca6105e6366004613afb565b610ea6565b61035d6105f9366004613e9e565b610ed4565b6103ca61060c366004613ecc565b610f1f565b6102eb61061f366004613f0e565b610f3e565b6103ca610632366004613bcc565b610f61565b6103ca610645366004613a49565b610f7c565b600061065e8261065861103b565b90611069565b92915050565b6060610676610671611143565b611171565b905090565b600061069a610688611207565b8484610692611211565b92919061123f565b50600192915050565b60006106766106b0611316565b6001015473ffffffffffffffffffffffffffffffffffffffff1690565b60006106766106da611211565b6002015490565b60006107046106ee611207565b868686866106fa611211565b9493929190611344565b506001949350505050565b600061073061071c611207565b858585610727611211565b9392919061154d565b5060019392505050565b6000610744611207565b90506107588161075261159f565b906115cd565b61076e838383610766611638565b929190611666565b505050565b6000610676610780611143565b6002015460ff1690565b600061067661173c565b600061069a6107a1611207565b84846107ab611211565b9291906117d7565b6060610676610671611989565b6107fb7f6d696e74657200000000000000000000000000000000000000000000000000006107ec611207565b6107f4611638565b91906119b7565b61080f8282610808611211565b9190611a3d565b5050565b6000610830610820611207565b83610829611211565b9190611b61565b506001919050565b600061085d610845611207565b8787878787610852611211565b959493929190611c6d565b50600195945050505050565b6108957f6d696e74657200000000000000000000000000000000000000000000000000006107ec611207565b61090d848480806020026020016040519081016040528093929190818152602001838360200280828437600092019190915250506040805160208088028281018201909352878252909350879250869182918501908490808284376000920191909152506109069250611211915050565b9190612047565b50505050565b600061065e82610921611211565b9073ffffffffffffffffffffffffffffffffffffffff166000908152602091909152604090205490565b61095e610956611207565b61075261159f565b84838114158061096e5750808214155b156109a5576040517f6582533600000000000000000000000000000000000000000000000000000000815260040160405180910390fd5b60005b81811015610a3f57610a378888838181106109c5576109c5613f5e565b90506020020160208101906109da9190613bcc565b8585848181106109ec576109ec613f5e565b90506020020135888885818110610a0557610a05613f5e565b9050602002016020810190610a1a9190613bcc565b73ffffffffffffffffffffffffffffffffffffffff169190612268565b6001016109a8565b5050505050505050565b600061069a610a56611207565b8484610a60611211565b9291906122f5565b600061065e8261092161233f565b6000610704610a83611207565b86868686610a8f611211565b949392919061236d565b610ab4610aa4611207565b82610aad611638565b91906126c3565b50565b6000610676610ac461159f565b5473ffffffffffffffffffffffffffffffffffffffff1690565b6000610b228383610aed611638565b60009283526020908152604080842073ffffffffffffffffffffffffffffffffffffffff909316845291905290205460ff1690565b9392505050565b6060610676610b36611143565b612767565b610b4d8a8a8a8a8a8a8a8a8a8a612778565b610b556127ed565b610b5d612824565b50505050505050505050565b6000610676610ac4611316565b600061069a610b83611207565b8484610b8d611211565b929190612852565b600061069a610ba2611207565b8484610bac611211565b92919061298a565b600061085d610bc1611207565b8787878787610bce611211565b959493929190612b49565b610be4610956611207565b848381141580610bf45750808214155b15610c2b576040517f6582533600000000000000000000000000000000000000000000000000000000815260040160405180910390fd5b60005b81811015610a3f576000868683818110610c4a57610c4a613f5e565b9050602002016020810190610c5f9190613bcc565b6040517f01ffc9a70000000000000000000000000000000000000000000000000000000081527f80ac58cd00000000000000000000000000000000000000000000000000000000600482015290915073ffffffffffffffffffffffffffffffffffffffff8216906301ffc9a790602401602060405180830381865afa158015610cec573d6000803e3d6000fd5b505050506040513d601f19601f82011682018060405250810190610d109190613f8d565b610d63576040517f986b9f1f00000000000000000000000000000000000000000000000000000000815273ffffffffffffffffffffffffffffffffffffffff821660048201526024015b60405180910390fd5b868683818110610d7557610d75613f5e565b9050602002016020810190610d8a9190613bcc565b73ffffffffffffffffffffffffffffffffffffffff166342842e0e308b8b86818110610db857610db8613f5e565b9050602002016020810190610dcd9190613bcc565b888887818110610ddf57610ddf613f5e565b6040517fffffffff0000000000000000000000000000000000000000000000000000000060e088901b16815273ffffffffffffffffffffffffffffffffffffffff958616600482015294909316602485015250602090910201356044820152606401600060405180830381600087803b158015610e5b57600080fd5b505af1158015610e6f573d6000803e3d6000fd5b5050505050806001019050610c2e565b610e9d87878787878787610e9161233f565b96959493929190612bb6565b50505050505050565b6000610eb0611207565b9050610ebe8161075261159f565b61076e838383610ecc611638565b929190612e25565b6000610b228383610ee3611211565b919073ffffffffffffffffffffffffffffffffffffffff9182166000908152600193909301602090815260408085209290931684525290205490565b610f2a610956611207565b61080f8282610f37611989565b9190612eef565b6000610704610f4b611207565b86868686610f57611211565b9493929190612efb565b610ab4610f6c611207565b82610f7561159f565b9190612f67565b610f87610956611207565b82818114610fc1576040517f6582533600000000000000000000000000000000000000000000000000000000815260040160405180910390fd5b60005b818110156110335761102b848483818110610fe157610fe1613f5e565b90506020020135878784818110610ffa57610ffa613f5e565b905060200201602081019061100f9190613bcc565b73ffffffffffffffffffffffffffffffffffffffff169061307b565b600101610fc4565b505050505050565b60008061065e60017fca9d3e17f264b0f3984e2634e94adb37fa3e6a8103f06aeae6fa59e21c769f5e613faf565b60007c01000000000000000000000000000000000000000000000000000000007fffffffff000000000000000000000000000000000000000000000000000000008316016110b95750600061065e565b7ffe003659000000000000000000000000000000000000000000000000000000007fffffffff0000000000000000000000000000000000000000000000000000000083160161110a5750600161065e565b507fffffffff00000000000000000000000000000000000000000000000000000000166000908152602091909152604090205460ff1690565b60008061065e60017f335df4119bbb04f056b33eba33b826d3529129e458faf6daa9924b5a8f3b6a82613faf565b606081600001805461118290613fe9565b80601f01602080910402602001604051908101604052809291908181526020018280546111ae90613fe9565b80156111fb5780601f106111d0576101008083540402835291602001916111fb565b820191906000526020600020905b8154815290600101906020018083116111de57829003601f168201915b50505050509050919050565b6000610676613131565b60008061065e60017f1da92899d3da68bf9787824388a37ea2bfa79780bcef91b9716c390eec8ecbef613faf565b73ffffffffffffffffffffffffffffffffffffffff82166112a4576040517ff7e1ac0f00000000000000000000000000000000000000000000000000000000815273ffffffffffffffffffffffffffffffffffffffff84166004820152602401610d5a565b73ffffffffffffffffffffffffffffffffffffffff838116600081815260018701602090815260408083209487168084529482529182902085905590518481527f8c5be1e5ebec7d5bd14f71427d1e84f3dd0314c0f7b2291e5b200ac8c7c3b92591015b60405180910390a350505050565b60008061065e60017ffbf67eff80ed72d4d972e624738c2b5704d828cc6926cf8653e1018c8eef81c0613faf565b8281811461137e576040517f6582533600000000000000000000000000000000000000000000000000000000815260040160405180910390fd5b8060000361138c5750611033565b6000805b828110156115315760008787838181106113ac576113ac613f5e565b90506020020160208101906113c19190613bcc565b905060008686848181106113d7576113d7613f5e565b9050602002013590508973ffffffffffffffffffffffffffffffffffffffff168273ffffffffffffffffffffffffffffffffffffffff161461141f5761141f8b838c84612852565b80156114d95773ffffffffffffffffffffffffffffffffffffffff8216600090815260208c905260409020548181038181106114ad576040517fe450d38c00000000000000000000000000000000000000000000000000000000815273ffffffffffffffffffffffffffffffffffffffff851660048201526024810183905260448101849052606401610d5a565b73ffffffffffffffffffffffffffffffffffffffff8416600090815260208e9052604090205550928301925b60405181815260009073ffffffffffffffffffffffffffffffffffffffff8416907fddf252ad1be2c89b69c2b068fc378daa952ba7f163c4a11628f55a4df523b3ef9060200160405180910390a35050600101611390565b508015610a3f5760028801805482900390555050505050505050565b8373ffffffffffffffffffffffffffffffffffffffff168373ffffffffffffffffffffffffffffffffffffffff161461158c5761158c85848684612852565b6115988584848461298a565b5050505050565b60008061065e60017fc9ed16f33ab3a66c84bfd83099ccb2a8845871e2e1c1928f63797152f0fd54cd613faf565b815473ffffffffffffffffffffffffffffffffffffffff82811691161461080f576040517f2ef4875e00000000000000000000000000000000000000000000000000000000815273ffffffffffffffffffffffffffffffffffffffff82166004820152602401610d5a565b60008061065e60017fc8827d3282af6f37b64c3e9e6f3ac9df286ab0bb0fccd6f8661bf19adb368b23613faf565b60008381526020858152604080832073ffffffffffffffffffffffffffffffffffffffff8616845290915290205460ff1661090d5760008381526020858152604080832073ffffffffffffffffffffffffffffffffffffffff8681168086529184529382902080547fffffffffffffffffffffffffffffffffffffffffffffffffffffffffffffff00166001179055815187815292830152918316918101919091527f2f8788117e7eff1d82e926ec794901d17c78024a50270940304540a733656f0d906060015b60405180910390a150505050565b6000467f8b73c3c69bb8fe3d512ecc4cf759cc79239f7b179b0ffacaa9a75d522b39400f61176b610671611143565b80516020918201206040805192830193909352918101919091527fc89efdaa54c0f20c7adf612882df0950f5a951637e0307cdcb4c672f298b8bc66060820152608081018290523060a082015260c0016040516020818303038152906040528051906020012091505090565b73ffffffffffffffffffffffffffffffffffffffff821661183c576040517ff7e1ac0f00000000000000000000000000000000000000000000000000000000815273ffffffffffffffffffffffffffffffffffffffff84166004820152602401610d5a565b73ffffffffffffffffffffffffffffffffffffffff8084166000908152600186016020908152604080832093861683529290522054811561191b578082018181116118e1576040517f93bc2ff100000000000000000000000000000000000000000000000000000000815273ffffffffffffffffffffffffffffffffffffffff8087166004830152851660248201526044810183905260648101849052608401610d5a565b73ffffffffffffffffffffffffffffffffffffffff8086166000908152600188016020908152604080832093881683529290522081905590505b8273ffffffffffffffffffffffffffffffffffffffff168473ffffffffffffffffffffffffffffffffffffffff167f8c5be1e5ebec7d5bd14f71427d1e84f3dd0314c0f7b2291e5b200ac8c7c3b9258360405161197a91815260200190565b60405180910390a35050505050565b60008061065e60017ff41bf6a5db26bffdfab174dcf66b31fbba8fdb7e3db040721ce1e62d61839ceb613faf565b60008281526020848152604080832073ffffffffffffffffffffffffffffffffffffffff8516845290915290205460ff1661076e576040517f7aa728820000000000000000000000000000000000000000000000000000000081526004810183905273ffffffffffffffffffffffffffffffffffffffff82166024820152604401610d5a565b73ffffffffffffffffffffffffffffffffffffffff8216611a8a576040517f92fd9c8f00000000000000000000000000000000000000000000000000000000815260040160405180910390fd5b8015611b0d576002830154818101818111611adb576040517f0366a5f60000000000000000000000000000000000000000000000000000000081526004810183905260248101849052604401610d5a565b60028501555073ffffffffffffffffffffffffffffffffffffffff821660009081526020849052604090208054820190555b60405181815273ffffffffffffffffffffffffffffffffffffffff8316906000907fddf252ad1be2c89b69c2b068fc378daa952ba7f163c4a11628f55a4df523b3ef906020015b60405180910390a3505050565b8015611c225773ffffffffffffffffffffffffffffffffffffffff8216600090815260208490526040902054818103818110611bef576040517fe450d38c00000000000000000000000000000000000000000000000000000000815273ffffffffffffffffffffffffffffffffffffffff851660048201526024810183905260448101849052606401610d5a565b73ffffffffffffffffffffffffffffffffffffffff84166000908152602086905260409020555060028301805482900390555b60405181815260009073ffffffffffffffffffffffffffffffffffffffff8416907fddf252ad1be2c89b69c2b068fc378daa952ba7f163c4a11628f55a4df523b3ef90602001611b54565b82818114611ca7576040517f6582533600000000000000000000000000000000000000000000000000000000815260040160405180910390fd5b80600003611cb55750610e9d565b73ffffffffffffffffffffffffffffffffffffffff86166000908152602089905260408120549080805b84811015611ffa576000898983818110611cfb57611cfb613f5e565b9050602002016020810190611d109190613bcc565b905073ffffffffffffffffffffffffffffffffffffffff8116611d77576040517f754f425b00000000000000000000000000000000000000000000000000000000815273ffffffffffffffffffffffffffffffffffffffff8c166004820152602401610d5a565b6000888884818110611d8b57611d8b613f5e565b90506020020135905080600014611ec957848101858111611dd8576040517fdedd834100000000000000000000000000000000000000000000000000000000815260040160405180910390fd5b8095508273ffffffffffffffffffffffffffffffffffffffff168d73ffffffffffffffffffffffffffffffffffffffff1614611e6257818f60000160008573ffffffffffffffffffffffffffffffffffffffff1673ffffffffffffffffffffffffffffffffffffffff16815260200190815260200160002060008282540192505081905550611ec7565b86821115611ec2576040517fe450d38c00000000000000000000000000000000000000000000000000000000815273ffffffffffffffffffffffffffffffffffffffff8e1660048201526024810188905260448101839052606401610d5a565b938101935b505b8173ffffffffffffffffffffffffffffffffffffffff168c73ffffffffffffffffffffffffffffffffffffffff167fddf252ad1be2c89b69c2b068fc378daa952ba7f163c4a11628f55a4df523b3ef83604051611f2891815260200190565b60405180910390a38415801590611f3f5750838514155b15611ff057848603868110611fa6576040517fe450d38c00000000000000000000000000000000000000000000000000000000815273ffffffffffffffffffffffffffffffffffffffff8e1660048201526024810188905260448101879052606401610d5a565b8481018f60000160008f73ffffffffffffffffffffffffffffffffffffffff1673ffffffffffffffffffffffffffffffffffffffff16815260200190815260200160002081905550505b5050600101611cdf565b508973ffffffffffffffffffffffffffffffffffffffff168973ffffffffffffffffffffffffffffffffffffffff161461203a5761203a8b8a8c85612852565b5050505050505050505050565b815181518114612083576040517f6582533600000000000000000000000000000000000000000000000000000000815260040160405180910390fd5b806000036120915750505050565b6000805b828110156122095760008582815181106120b1576120b1613f5e565b60200260200101519050600073ffffffffffffffffffffffffffffffffffffffff168173ffffffffffffffffffffffffffffffffffffffff1603612121576040517f92fd9c8f00000000000000000000000000000000000000000000000000000000815260040160405180910390fd5b600085838151811061213557612135613f5e565b60200260200101519050806000146121b157838101848111612183576040517f5542ae7c00000000000000000000000000000000000000000000000000000000815260040160405180910390fd5b73ffffffffffffffffffffffffffffffffffffffff8316600090815260208a90526040902080548301905593505b60405181815273ffffffffffffffffffffffffffffffffffffffff8316906000907fddf252ad1be2c89b69c2b068fc378daa952ba7f163c4a11628f55a4df523b3ef9060200160405180910390a35050600101612095565b50801561159857600285015481810181811161225b576040517f0366a5f60000000000000000000000000000000000000000000000000000000081526004810183905260248101849052604401610d5a565b6002870155505050505050565b6040805173ffffffffffffffffffffffffffffffffffffffff8416602482015260448082018490528251808303909101815260649091019091526020810180517bffffffffffffffffffffffffffffffffffffffffffffffffffffffff167fa9059cbb0000000000000000000000000000000000000000000000000000000017905261076e90849061313b565b8273ffffffffffffffffffffffffffffffffffffffff168273ffffffffffffffffffffffffffffffffffffffff16146123345761233484838584612852565b61090d848383611b61565b60008061065e60017f93fe0ff7226b064a4a8f0b09910762afb4bc2441835792c021ffd78cd513011e613faf565b828181146123a7576040517f6582533600000000000000000000000000000000000000000000000000000000815260040160405180910390fd5b806000036123b55750611033565b73ffffffffffffffffffffffffffffffffffffffff86166000908152602088905260408120549080805b848110156126165760008989838181106123fb576123fb613f5e565b90506020020160208101906124109190613bcc565b905073ffffffffffffffffffffffffffffffffffffffff8116612477576040517f754f425b00000000000000000000000000000000000000000000000000000000815273ffffffffffffffffffffffffffffffffffffffff8c166004820152602401610d5a565b600088888481811061248b5761248b613f5e565b905060200201359050806000146125a5578481018581116124d8576040517fdedd834100000000000000000000000000000000000000000000000000000000815260040160405180910390fd5b8095508273ffffffffffffffffffffffffffffffffffffffff168d73ffffffffffffffffffffffffffffffffffffffff161461253e5773ffffffffffffffffffffffffffffffffffffffff8316600090815260208f9052604090208054830190556125a3565b8682111561259e576040517fe450d38c00000000000000000000000000000000000000000000000000000000815273ffffffffffffffffffffffffffffffffffffffff8e1660048201526024810188905260448101839052606401610d5a565b938101935b505b8173ffffffffffffffffffffffffffffffffffffffff168c73ffffffffffffffffffffffffffffffffffffffff167fddf252ad1be2c89b69c2b068fc378daa952ba7f163c4a11628f55a4df523b3ef8360405161260491815260200190565b60405180910390a350506001016123df565b5081158015906126265750808214155b15610b5d5781830383811061268d576040517fe450d38c00000000000000000000000000000000000000000000000000000000815273ffffffffffffffffffffffffffffffffffffffff8b1660048201526024810185905260448101849052606401610d5a565b73ffffffffffffffffffffffffffffffffffffffff8a16600090815260208c905260409020908201905550505050505050505050565b6126ce8382846119b7565b60008181526020848152604080832073ffffffffffffffffffffffffffffffffffffffff86168085529083529281902080547fffffffffffffffffffffffffffffffffffffffffffffffffffffffffffffff0016905580518481529182018390528101919091527ff6391f5c32d9c69d2a47ea670b442974b53935d1edc7fd64eb21e047a839171b9060600160405180910390a1505050565b606081600101805461118290613fe9565b6127806131df565b61279a8888888888612790611143565b9493929190613243565b6127a26132f2565b6127af8383610f37611989565b6127b7613320565b6127bf61334e565b6127c761337c565b6127db8a8a6127d4611316565b91906133aa565b610b5d816127e761159f565b9061342a565b6128227f28963e1e00000000000000000000000000000000000000000000000000000000600161281b61103b565b9190613462565b565b6128227f20c07ed100000000000000000000000000000000000000000000000000000000600161281b61103b565b73ffffffffffffffffffffffffffffffffffffffff82166128b7576040517ff7e1ac0f00000000000000000000000000000000000000000000000000000000815273ffffffffffffffffffffffffffffffffffffffff84166004820152602401610d5a565b73ffffffffffffffffffffffffffffffffffffffff80841660009081526001860160209081526040808320938616835292905220547fffffffffffffffffffffffffffffffffffffffffffffffffffffffffffffffff811480159061291b57508115155b1561191b578181038181106118e1576040517f137ad6ab00000000000000000000000000000000000000000000000000000000815273ffffffffffffffffffffffffffffffffffffffff8087166004830152851660248201526044810183905260648101849052608401610d5a565b73ffffffffffffffffffffffffffffffffffffffff82166129ef576040517f754f425b00000000000000000000000000000000000000000000000000000000815273ffffffffffffffffffffffffffffffffffffffff84166004820152602401610d5a565b8015612aea5773ffffffffffffffffffffffffffffffffffffffff8316600090815260208590526040902054818103818110612a7d576040517fe450d38c00000000000000000000000000000000000000000000000000000000815273ffffffffffffffffffffffffffffffffffffffff861660048201526024810183905260448101849052606401610d5a565b8373ffffffffffffffffffffffffffffffffffffffff168573ffffffffffffffffffffffffffffffffffffffff1614612ae75773ffffffffffffffffffffffffffffffffffffffff8086166000908152602088905260408082208490559186168152208054840190555b50505b8173ffffffffffffffffffffffffffffffffffffffff168373ffffffffffffffffffffffffffffffffffffffff167fddf252ad1be2c89b69c2b068fc378daa952ba7f163c4a11628f55a4df523b3ef8360405161130891815260200190565b612b56878787878761154d565b73ffffffffffffffffffffffffffffffffffffffff84163b15610e9d57610e9d8686868686868080601f01602080910402602001604051908101604052809392919081815260200183838082843760009201919091525061353e92505050565b73ffffffffffffffffffffffffffffffffffffffff8716612c03576040517fa974697600000000000000000000000000000000000000000000000000000000815260040160405180910390fd5b83421115612c40576040517fea2b6f5800000000000000000000000000000000000000000000000000000000815260048101859052602401610d5a565b73ffffffffffffffffffffffffffffffffffffffff878116600081815260208b8152604080832080546001810190915581517f6e71edae12b1b97f4d1f60370fef10105fa2faae0126114a169c64845d6126c98185015280830195909552948b166060850152608084018a905260a084019490945260c08084018990528451808503909101815260e09093019093528151919092012090612cdf61173c565b6040517f19010000000000000000000000000000000000000000000000000000000000006020820152602281019190915260428101839052606201604080517fffffffffffffffffffffffffffffffffffffffffffffffffffffffffffffffe08184030181528282528051602091820120600080855291840180845281905260ff89169284019290925260608301879052608083018690529092509060019060a0016020604051602081039080840390855afa158015612da3573d6000803e3d6000fd5b5050506020604051035190508973ffffffffffffffffffffffffffffffffffffffff168173ffffffffffffffffffffffffffffffffffffffff1614612e14576040517f822a64c800000000000000000000000000000000000000000000000000000000815260040160405180910390fd5b505050610a3f878787610692611211565b60008381526020858152604080832073ffffffffffffffffffffffffffffffffffffffff8616845290915290205460ff161561090d5760008381526020858152604080832073ffffffffffffffffffffffffffffffffffffffff8681168086529184529382902080547fffffffffffffffffffffffffffffffffffffffffffffffffffffffffffffff00169055815187815292830152918316918101919091527ff6391f5c32d9c69d2a47ea670b442974b53935d1edc7fd64eb21e047a839171b9060600161172e565b8261090d8284836140b2565b612f078686868661298a565b73ffffffffffffffffffffffffffffffffffffffff84163b15611033576110338586868686868080601f01602080910402602001604051908101604052809392919081815260200183838082843760009201919091525061353e92505050565b825473ffffffffffffffffffffffffffffffffffffffff9081169083168114612fd4576040517f2ef4875e00000000000000000000000000000000000000000000000000000000815273ffffffffffffffffffffffffffffffffffffffff84166004820152602401610d5a565b8173ffffffffffffffffffffffffffffffffffffffff168173ffffffffffffffffffffffffffffffffffffffff161461090d5783547fffffffffffffffffffffffff00000000000000000000000000000000000000001673ffffffffffffffffffffffffffffffffffffffff8381169182178655604051908316907f8be0079c531659141344cd1fd0a4f28419497f9722a3daafe3b4186f6b6457e090600090a350505050565b804710156130be576040517fcf47918100000000000000000000000000000000000000000000000000000000815247600482015260248101829052604401610d5a565b6000808373ffffffffffffffffffffffffffffffffffffffff168360405160006040518083038185875af1925050503d8060008114613119576040519150601f19603f3d011682016040523d82523d6000602084013e61311e565b606091505b50915091508161090d5761090d8161364c565b600061067661368e565b600080602060008451602086016000885af18061315e576040513d6000823e3d81fd5b50506000513d91508115613176578060011415613190565b73ffffffffffffffffffffffffffffffffffffffff84163b155b1561090d576040517f5274afe700000000000000000000000000000000000000000000000000000000815273ffffffffffffffffffffffffffffffffffffffff85166004820152602401610d5a565b60006131e961103b565b9050613217817f36372b07000000000000000000000000000000000000000000000000000000006001613462565b610ab4817f9d075186000000000000000000000000000000000000000000000000000000006001613462565b61327861327160017fd217496980d1cb14720b20a80af36676bbece8e5feeb5d8970a9681a2c76bb75613faf565b60016137db565b856132848587836140b2565b50600186016132948385836140b2565b506002860180547fffffffffffffffffffffffffffffffffffffffffffffffffffffffffffffff001660ff83161790556110337fa219a02500000000000000000000000000000000000000000000000000000000600161281b61103b565b6128227f3c130d9000000000000000000000000000000000000000000000000000000000600161281b61103b565b6128227f9d8ff7da00000000000000000000000000000000000000000000000000000000600161281b61103b565b6128227fc05327e600000000000000000000000000000000000000000000000000000000600161281b61103b565b6128227f53f41a9700000000000000000000000000000000000000000000000000000000600161281b61103b565b6133d861327160017f207034c18a9defc6f1e4e1ae46a487e86951456577b7bce22778749189164d2a613faf565b82547fffffffffffffffffffffffff000000000000000000000000000000000000000090811673ffffffffffffffffffffffffffffffffffffffff938416178455600190930180549093169116179055565b61345861327160017f5b388d90dc1312ba799f321972f13311234fa1163bcabec7cf66101c4876eb84613faf565b61080f8282613827565b7c01000000000000000000000000000000000000000000000000000000007fffffffff000000000000000000000000000000000000000000000000000000008316016134da576040517f72c683bb00000000000000000000000000000000000000000000000000000000815260040160405180910390fd5b7fffffffff00000000000000000000000000000000000000000000000000000000919091166000908152602092909252604090912080547fffffffffffffffffffffffffffffffffffffffffffffffffffffffffffffff0016911515919091179055565b6040517f4fc35859000000000000000000000000000000000000000000000000000000008082529073ffffffffffffffffffffffffffffffffffffffff851690634fc35859906135989089908990889088906004016141cc565b6020604051808303816000875af11580156135b7573d6000803e3d6000fd5b505050506040513d601f19601f820116820180604052508101906135db9190614227565b7fffffffff000000000000000000000000000000000000000000000000000000001614611598576040517f6d44973600000000000000000000000000000000000000000000000000000000815273ffffffffffffffffffffffffffffffffffffffff84166004820152602401610d5a565b80511561365c5780518082602001fd5b6040517fd6bda27500000000000000000000000000000000000000000000000000000000815260040160405180910390fd5b60003332148061369e5750601836105b156136a857503390565b7fffffffffffffffffffffffffffffffffffffffffffffffffffffffffffffffec36013560601c7f000000000000000000000000000000000000000000000000000000000000000073ffffffffffffffffffffffffffffffffffffffff163314806137ca57506040517f019a202800000000000000000000000000000000000000000000000000000000815273ffffffffffffffffffffffffffffffffffffffff82811660048301523360248301523060448301527f0000000000000000000000000000000000000000000000000000000000000000169063019a202890606401602060405180830381865afa1580156137a6573d6000803e3d6000fd5b505050506040513d601f19601f820116820180604052508101906137ca9190613f8d565b156137d457919050565b3391505090565b81548290828110613822576040517fbf0c18ec0000000000000000000000000000000000000000000000000000000081526004810182905260248101849052604401610d5a565b505550565b73ffffffffffffffffffffffffffffffffffffffff8116156138af5781547fffffffffffffffffffffffff00000000000000000000000000000000000000001673ffffffffffffffffffffffffffffffffffffffff821690811783556040516000907f8be0079c531659141344cd1fd0a4f28419497f9722a3daafe3b4186f6b6457e0908290a35b61080f7f7f5828d000000000000000000000000000000000000000000000000000000000600161281b61103b565b7fffffffff0000000000000000000000000000000000000000000000000000000081168114610ab457600080fd5b60006020828403121561391d57600080fd5b8135610b22816138dd565b6000815180845260005b8181101561394e57602081850181015186830182015201613932565b5060006020828601015260207fffffffffffffffffffffffffffffffffffffffffffffffffffffffffffffffe0601f83011685010191505092915050565b602081526000610b226020830184613928565b73ffffffffffffffffffffffffffffffffffffffff81168114610ab457600080fd5b80356139cc8161399f565b919050565b600080604083850312156139e457600080fd5b82356139ef8161399f565b946020939093013593505050565b60008083601f840112613a0f57600080fd5b50813567ffffffffffffffff811115613a2757600080fd5b6020830191508360208260051b8501011115613a4257600080fd5b9250929050565b60008060008060408587031215613a5f57600080fd5b843567ffffffffffffffff811115613a7657600080fd5b613a82878288016139fd565b909550935050602085013567ffffffffffffffff811115613aa257600080fd5b613aae878288016139fd565b95989497509550505050565b600080600060608486031215613acf57600080fd5b8335613ada8161399f565b92506020840135613aea8161399f565b929592945050506040919091013590565b60008060408385031215613b0e57600080fd5b823591506020830135613b208161399f565b809150509250929050565b600060208284031215613b3d57600080fd5b5035919050565b600080600080600060608688031215613b5c57600080fd5b8535613b678161399f565b9450602086013567ffffffffffffffff811115613b8357600080fd5b613b8f888289016139fd565b909550935050604086013567ffffffffffffffff811115613baf57600080fd5b613bbb888289016139fd565b969995985093965092949392505050565b600060208284031215613bde57600080fd5b8135610b228161399f565b60008060008060008060608789031215613c0257600080fd5b863567ffffffffffffffff811115613c1957600080fd5b613c2589828a016139fd565b909750955050602087013567ffffffffffffffff811115613c4557600080fd5b613c5189828a016139fd565b909550935050604087013567ffffffffffffffff811115613c7157600080fd5b613c7d89828a016139fd565b979a9699509497509295939492505050565b60008083601f840112613ca157600080fd5b50813567ffffffffffffffff811115613cb957600080fd5b602083019150836020828501011115613a4257600080fd5b803560ff811681146139cc57600080fd5b60008060008060008060008060008060e08b8d031215613d0157600080fd5b8a35613d0c8161399f565b9950613d1a60208c016139c1565b985060408b013567ffffffffffffffff811115613d3657600080fd5b613d428d828e01613c8f565b90995097505060608b013567ffffffffffffffff811115613d6257600080fd5b613d6e8d828e01613c8f565b9097509550613d81905060808c01613cd1565b935060a08b013567ffffffffffffffff811115613d9d57600080fd5b613da98d828e01613c8f565b9094509250613dbc905060c08c016139c1565b90509295989b9194979a5092959850565b600080600080600060808688031215613de557600080fd5b8535613df08161399f565b94506020860135613e008161399f565b935060408601359250606086013567ffffffffffffffff811115613e2357600080fd5b613bbb88828901613c8f565b600080600080600080600060e0888a031215613e4a57600080fd5b8735613e558161399f565b96506020880135613e658161399f565b95506040880135945060608801359350613e8160808901613cd1565b9699959850939692959460a0840135945060c09093013592915050565b60008060408385031215613eb157600080fd5b8235613ebc8161399f565b91506020830135613b208161399f565b60008060208385031215613edf57600080fd5b823567ffffffffffffffff811115613ef657600080fd5b613f0285828601613c8f565b90969095509350505050565b60008060008060608587031215613f2457600080fd5b8435613f2f8161399f565b935060208501359250604085013567ffffffffffffffff811115613f5257600080fd5b613aae87828801613c8f565b7f4e487b7100000000000000000000000000000000000000000000000000000000600052603260045260246000fd5b600060208284031215613f9f57600080fd5b81518015158114610b2257600080fd5b8181038181111561065e577f4e487b7100000000000000000000000000000000000000000000000000000000600052601160045260246000fd5b600181811c90821680613ffd57607f821691505b602082108103614036577f4e487b7100000000000000000000000000000000000000000000000000000000600052602260045260246000fd5b50919050565b7f4e487b7100000000000000000000000000000000000000000000000000000000600052604160045260246000fd5b601f82111561076e57806000526020600020601f840160051c810160208510156140925750805b601f840160051c820191505b81811015611598576000815560010161409e565b67ffffffffffffffff8311156140ca576140ca61403c565b6140de836140d88354613fe9565b8361406b565b6000601f84116001811461413057600085156140fa5750838201355b7fffffffffffffffffffffffffffffffffffffffffffffffffffffffffffffffff600387901b1c1916600186901b178355611598565b6000838152602090207fffffffffffffffffffffffffffffffffffffffffffffffffffffffffffffffe0861690835b8281101561417f578685013582556020948501946001909201910161415f565b50868210156141ba577fffffffffffffffffffffffffffffffffffffffffffffffffffffffffffffffff60f88860031b161c19848701351681555b505060018560011b0183555050505050565b73ffffffffffffffffffffffffffffffffffffffff8516815273ffffffffffffffffffffffffffffffffffffffff8416602082015282604082015260806060820152600061421d6080830184613928565b9695505050505050565b60006020828403121561423957600080fd5b8151610b22816138dd56fea2646970667358221220e1996e21265c06baaff75a4bbd59c785cc0746d057500f892099d2e5eec2e6a164736f6c634300081c0033",
  "linkReferences": {},
  "deployedLinkReferences": {}
}